S01000004D61696E426F6172642E73333777
S31508012000001200205D450108594501085945010896
S31508012010E17801085945010859450108594501085A
S315080120205945010859450108594501085945010805
S3150801203059450108BC64050845290108594501089F
S3150801204059450108594501085945010859450108E5
S3150801205059450108594501085945010859450108D5
S3150801206059450108B12B0108BD2B0108594501083D
S3150801207059450108594501085945010859450108B5
S3150801208059450108594501085945010859450108A5
S315080120905945010859450108594501085945010895
S315080120A059450108894B0108654B0108594501083D
S315080120B059450108652205085D2C0508152C0508F2
S315080120C0112C050831240508592C0508192C050871
S315080120D0312C05081D2C0508BD2C05089D2C050865
S315080120E05945010859450108594501085945010845
S315080120F05D6F010859450108594501085945010807
S315080121005945010859450108594501085945010824
S315080121105945010859450108594501085945010814
S315080121205945010859450108594501085945010804
S3150801213059450108594501085945010859450108F4
S31508012140594501085945010859450108F388010807
S315080121505D0A0508594501085DEF040863EF04089F
S3150801216059450108594501085945010859450108C4
S3150801217010B5054C237833B9044B13B1044800E074
S3150801218000BF0123237010BDE01F002000000000DE
S3150801219038DD050808B5034B1BB10349034800E0C0
S315080121A000BF08BD00000000E41F002038DD050857
S315080121B0A3F5803A704700BF174B002B08BF134B96
S315080121C09D46FFF7F5FF00218B460F461348144A33
S315080121D0121A41F016F80E4B002B00D098470D4BFA
S315080121E0002B00D098470020002104000D000D485F
S315080121F0002802D00C4800E000BF40F097FF2000FD
S31508012200290000F093FB40F07DFF00BF00000800A5
S31508012210000000000000000000120020E01F00205E
S31508012220B0450020000000000000000070470000D3
S31508012230094B07B51B785BB9084B1A6918689047AB
S31508012240074B1A691868019203B05DF804EB104749
S3150801225003B05DF804FB00BF642000209053050815
S31508012260A853050802F018B87047000008B50B48CE
S3150801227002F058FB012805D102F02CF801F0DAF832
S31508012280002008BD064802F04DFB012804D102F0E2
S3150801229021F800F0FFFFF3E70120F2E76053050894
S315080122A078530508036837B523F47F431C4A23F09E
S315080122B00703934231D1002344F62061194A1A488B
S315080122C0009301F09BFE054638B3184C184920685F
S315080122D004F08BFE1749206804F087FE02F04EF8D9
S315080122E002F04DF8144B154A15490093206840F23F
S315080122F00B1304F07AFE2B46124A1349206804F0A0
S3150801230074FE284602F058F81049206804F06DFE5C
S315080123100749206804F069FEFEE703B030BD00BF37
S31508012320A80014012D220108302000208821002050
S31508012330FA4C0508204C0508B14E0508254C050838
S315080123402E4C05083A4C05083D4C0508524C050823
S3150801235030B503684D4A23F47F4323F007039342BC
S315080123608FB000F0838005D8A2F5A022934213D03E
S315080123700FB030BD464A9342FAD1464A1378002B2C
S31508012380F6D0013BDBB21370002BF1D101F0F6FF59
S3150801239001F0F5FF404972E0FFF768FF0028E7D032
S315080123A021F00AFD3D4C054678B103461E213C4AFB
S315080123B006A841F011F901F0E1FF01F0E0FF2A4614
S315080123C03849206804F011FED2E702A821F012FD6F
S315080123D0054628B33449206804F007FE33492068C6
S315080123E004F003FE01F0CAFF01F0C9FF304B314A80
S315080123F0314900932068D72304F0F7FD2B462F4A6D
S315080124002F49206804F0F1FD284601F0D5FF2D4932
S31508012410206804F0EAFD2449206804F0E6FDFEE799
S315080124209DF817301421284A009306A89DF81630FE
S3150801243041F0D2F801F0A2FF01F0A1FF234906AA53
S31508012440206804F0D2FD06A841F0FAF829460246AA
S3150801245006AB0B201BF05AFB0546002888D001F075
S315080124608DFF01F08CFF2A461949AAE7094A137814
S315080124700133137001F082FF01F081FF1549074B03
S3150801248018680FB0BDE8304004F0AFBDA0000600E3
S31508012490A000060165200020444D0508882100207A
S315080124A07C4C0508904C0508FA4C0508204C050893
S315080124B09F4E0508254C05082E4C05083A4C05087B
S315080124C03D4C0508AF4C0508D54C0508E84C0508F0
S315080124D0FC4C0508384D0508036837B523F47F43D6
S315080124E0374923F007038B4204D0364A934262D018
S315080124F003B030BD0379002B30D000236421324A62
S315080125003248009301F07AFD05460028F0D0304C98
S315080125103049206804F069FD2F49206804F065FDFB
S3150801252001F02CFF01F02BFF2C4B2D4A2D4900936E
S315080125302068EE2304F059FD2B462B4A2B492068C7
S3150801254004F053FD284601F037FF2949206804F0B5
S315080125504CFD2049206804F048FDFEE7032021F0E0
S3150801256037FC05460028C3D0194C1A49206804F0DF
S315080125703CFD1949206804F038FD01F0FFFE01F021
S31508012580FEFE164B164A174900932068F32304F0FA
S315080125902CFD2B46144A1549206804F026FD2846C9
S315080125A001F00AFF1349206804F01FFD0949206854
S315080125B004F01BFDFEE703B0BDE83040FFF772BE2D
S315080125C0A8001400A80014012D22010830200020BB
S315080125D088210020FA4C0508204C0508814E05087B
S315080125E0254C05082E4C05083A4C05083D4C0508AE
S315080125F0524C0508534D050830B5042904468BB0DD
S315080126004ED0284D90BB01291CD801F0B7FE01F028
S31508012610B6FE2549286804F0E8FC02238DF818302F
S315080126205023ADF81C30214B1A78511C19702146DC
S31508012630CDE90144009406AB41F2030006F032FAF3
S31508012640059007E001F09AFE01F099FE18492868FD
S3150801265004F0CBFC01F092FE01F091FE059A1549B2
S3150801266028680BB0BDE8304004F0BFBC0128F1D1A1
S3150801267001F084FE01F083FE0F49286804F0B5FCD9
S3150801268002238DF818302823ADF81C30074B1A7829
S31508012690511C1970002106ABCDE901110091CBE758
S315080126A00BB030BD882100208E4D0508662000201C
S315080126B09C4D0508BD4D0508AF4D0508012337B5E5
S315080126C004460093FA210023194A1A4801F096FC98
S315080126D0054638B3184C1949206804F086FC184990
S315080126E0206804F082FC01F049FE01F048FE154B12
S315080126F0154A0093154940F2BF13206804F075FC8A
S315080127002B46134A1349206804F06FFC284601F04A
S3150801271053FE1149206804F068FC0849206804F052
S3150801272064FCFEE7204603B0BDE8304000F088B8F7
S3150801273031220108FC1F002088210020FA4C0508D7
S31508012740204C05085A4E0508254C05082E4C050847
S315080127503A4C05083D4C0508D74D050873B504469E
S315080127601F480E4601F030FC054638B31D4C1E497C
S31508012770206804F03AFC1D49206804F036FC01F093
S31508012780FDFD01F0FCFD1A4B1A4A00931A4940F265
S31508012790C913206804F029FC2B46184A18492068F1
S315080127A004F023FC284601F007FE1649206804F0C8
S315080127B01CFC0D49206804F018FCFEE70122124BA7
S315080127C01A70124BDA6818689047114B1868DA685C
S315080127D090473146204602B0BDE8704000F044B843
S315080127E0FC1F002088210020FA4C0508204C05080A
S315080127F03C4E0508254C05082E4C05083A4C05089B
S315080128003D4C05080A4E050864200020905305082A
S31508012810A853050807B50190009101F0AFFD01F035
S31508012820AEFDDDE9002304480449006803B05DF8FC
S3150801283004EB04F0DABB00BF88210020D14E05085D
S3150801284007B5019001F09AFD01F099FD044B019A33
S315080128500449186803B05DF804EB04F0C6BB00BF71
S31508012860882100201A4F050807B50190009101F04B
S3150801287085FD01F084FDDDE900320448044900685C
S3150801288003B05DF804EB04F0B0BB00BF882100205B
S31508012890524F050808B50346084611461BB1BDE85F
S315080128A00840FFF7E1BF01F069FD01F068FD034B40
S315080128B003491868BDE8084004F097BB8821002041
S315080128C0934F050807B5019001F058FD01F057FD32
S315080128D0044B019A0449186803B05DF804EB04F047
S315080128E084BB00BF88210020D74F050808B501F031
S315080128F045FD01F044FD034B03491868BDE808404E
S3150801290004F073BB882100200B50050808B501F0B7
S3150801291035FD01F034FD034B03491868BDE808404D
S3150801292004F063BB882100201B50050808B505F093
S31508012930FDFFFFF797FC06F006F8FFF795FC05F093
S3150801294051F9F8E70DF01EBB06F040B810B504467C
S3150801295001F094FA20461FF09DFD2046FFF7F8FC8A
S3150801296010BD0120704700B5C3B00DF02DFA0DF06A
S3150801297056FA48B1FFF7F5FF30B101A81BF0A1F8E7
S3150801298010B901A8FFF7E2FF43B05DF804FB7047F1
S3150801299008B503481FF0C8FFBDE8084000F0F0BDC0
S315080129A0C052050810B5044600F07EF9204600F02D
S315080129B09FFE204600F0E8FD204600F0E5FC204693
S315080129C000F064FF204601F09BF82046FFF784FDDE
S315080129D010BD0120704700B5C3B01FF0ADFF48B167
S315080129E0FFF7F7FF30B101A821F0A2F810B901A845
S315080129F0FFF7D8FF43B05DF804FB08B50321802033
S31508012A0003F034F803214FF4806003F02FF809210D
S31508012A104FF4C06003F02AF809214FF4F06003F07F
S31508012A2025F809213E2003F021F809212D2003F07C
S31508012A301DF80921512003F019F8002008BD08B531
S31508012A4004F0ACF901F0E5FC04F02EF904F0C4F940
S31508012A5004F052F904F086F904F08AF9FFF7CDFF7C
S31508012A6004F038F901F0CAFC01F07CFE02F09EF888
S31508012A70BDE8084004F0C6BF08B502F01DF800F02D
S31508012A80F7F8BDE8084000F001B908B501F0B4FC53
S31508012A9005F0FCFB04F0A2F904F0F0FA0AF044FB95
S31508012AA004F06CFE08F034F90AF044FDBDE808406C
S31508012AB000F070B808B504F0D5F804F0DDF8FFF7B2
S31508012AC043FFBDE80840FFF763BF08B501F07AFB8D
S31508012AD0BDE8084001F054BC704708B501F0C6FBD3
S31508012AE0BDE8084001F036BB08B5FFF73CFFBDE875
S31508012AF00840FFF770BF704770B5144E92B035465F
S31508012B000BAC0FCD0FC495E807000023CDE90833B8
S31508012B100A93292384E807000D4A02ACCDE9062366
S31508012B2005238DF8213006238DF8233006F11C0381
S31508012B300FCB84E80F00074B214600930BAA06AB7F
S31508012B40054804F019FD12B070BD00BF34530508DD
S31508012B5000C0055068200020D4200020831E012BC8
S31508012B600AD8012908D80422094B1B6CC3F3401360
S31508012B700521002003F06EBD0239012907D8012875
S31508012B8005D8034B00221B6CC3F34013F0E77047CB
S31508012B9000C0035008B50449044805F001F8BDE82A
S31508012BA00840FFF7A9BF00BF54120020AC2000203F
S31508012BB0014B186804F0A6BDD4200020FFF7F8BF22
S31508012BC0014B1A6A18681047D42000200120704763
S31508012BD00120704710B501F08DFB04460DF060F930
S31508012BE0002808BF002401F0E5FA002808BF0024E0
S31508012BF0FFF7ECFF002814BF2046002010BD38B5AA
S31508012C0005F0F2F8044601F085FB042825D00228D0
S31508012C104FF0000508BF01240DF050F904281ED015
S31508012C20022808BF0124FFF7CBFF042819D0022880
S31508012C3008BF012401F0B4FA042814D0022808BFF9
S31508012C400124FFF7C5FF04280FD0022808BF012475
S31508012C50002D18BF0024204638BD0125DCE70125D3
S31508012C60E1E70125E6E70125EBE70024F3E70000A4
S31508012C7008B5044801F0FCFDBDE80840024801F02A
S31508012C80F7BD00BF605305087853050808B5044821
S31508012C9001F099FEBDE80840024801F094BE00BF64
S31508012CA090530508A853050837B5044610B30368B9
S31508012CB0B14A23F47F4323F00703934200F0748259
S31508012CC000F2A180AD4A934200F0A4814AD8AC4AE9
S31508012CD0934200F018821FD8A2F54022934200F0D1
S31508012CE0348209D8A74A934200F03A81A64A934208
S31508012CF000F0998103B030BDA44A934200F04E8298
S31508012D0002F580229342F5D101F038FB01F037FB39
S31508012D10E388A2889E4912E19E4A934200F04A82BC
S31508012D200ED8A2F5A022934200F0B68102F58032B0
S31508012D309342DFD101F022FB01F021FB964914E110
S31508012D40964A934200F0548202F540329342D1D119
S31508012D5001F014FB01F013FB238991490093A38920
S31508012D6062894DE08F4A934200F09C8123D8A2F5EF
S31508012D701412934200F0D9810ED8A2F5702293421B
S31508012D8000F05D8102F580229342B3D101F0F6FA93
S31508012D9001F0F5FA8449E8E0844A934200F0BB81E0
S31508012DA002F50C129342A5D101F0E8FA01F0E7FA0F
S31508012DB022897F4934E17F4A934200F0DD8110D8A8
S31508012DC0A2F58022934200F0FC8102F5403293423B
S31508012DD090D101F0D3FA01F0D2FA638922897649B2
S31508012DE0ADE0764A934285D101F0C8FA01F0C7FAF7
S31508012DF0B4F8093072490093B4F80730B4F80520DD
S31508012E00704800687AE1704A934200F0A4814CD870
S31508012E10A2F57F02934200F0B98126D8A2F51022C5
S31508012E20934200F045810FD8A2F51412934200F09F
S31508012E30848102F5101293427FF45CAF01F09EFA89
S31508012E4001F09DFA614990E0614A934200F0C08120
S31508012E5002F5403293427FF44DAF01F08FFA01F04B
S31508012E608EFA638922895B4969E05B4A934200F0DD
S31508012E7025810FD8A2F55012934200F0258102F55B
S31508012E804C1293427FF436AF01F078FA01F077FAE3
S31508012E9052496AE0524A93427FF42CAF01F06EFA26
S31508012EA001F06DFA227B4F49BAE04F4A934200F08E
S31508012EB0C08028D802F17E4202F55412934200F0EE
S31508012EC0CB800FD8A2F50032934200F0DF8002F5DD
S31508012ED0803293427FF40EAF01F050FA01F04FFAB7
S31508012EE0424942E0424A934200F07B8102F5403270
S31508012EF093427FF4FFAE01F041FA01F040FAD4F8AB
S31508012F0006203C498CE03C4A934200F0E4801DD8F7
S31508012F1002F17E42934200F0988002F18072934258
S31508012F207FF4E8AE01F02AFA01F029FA334920794B
S31508012F30334AB4F80530002818BF0A4631492148F2
S31508012F40006803B0BDE8304004F04FB82E4A9342FA
S31508012F507FF4D0AE01F012FA01F011FA2B4904E020
S31508012F6001F00CFA01F00BFA2949164B186803B05F
S31508012F70BDE8304004F039B8A8001F02A0000601D8
S31508012F80A8002400A0000600A8001400A8001F003D
S31508012F90EC580508A8004D0065550508A8004E001F
S31508012FA0055B0508A800480191590508A8002401F0
S31508012FB0B3550508A8005101B2590508A000060233
S31508012FC05A54050888210020A8005003E75505082A
S31508012FD0A8004D02FE590508A8004803135605081E
S31508012FE0A8004D032C5D0508A80014062D570508F1
S31508012FF0A8004D04CA5A0508A80014093054050842
S3150801300028540508CA570508A800140AC054050813
S315080130103C54050801F0B2F901F0B1F9A2887849E2
S31508013020784B18682BE001F0A9F901F0A8F976495F
S315080130309BE701F0A3F901F0A2F9744995E701F0BC
S315080130409DF901F09CF972498FE701F097F901F0B2
S3150801305096F9A2886F49E3E701F090F901F08FF933
S31508013060684B1868A38803F44042B2F5404F0BD069
S3150801307013F4805F684B694A18BF1A46684903B05A
S31508013080BDE8304003F0B1BF664AF7E701F076F9CB
S3150801309001F075F9644968E701F070F901F06FF913
S315080130A0624962E701F06AF901F069F960495CE78A
S315080130B001F064F901F063F95E4956E701F05EF93A
S315080130C001F05DF95C4950E701F058F901F057F94B
S315080130D0E2885A49A4E7057901F050F901F04FF958
S315080130E0484BB4F807201868B4F809304DB154496B
S315080130F0544C012D18BF21460091534903F075FF21
S31508013100F8E55249F8E701F039F901F038F9E388A9
S31508013110A2884F4913E701F031F901F030F9238903
S315080131204C490093E388A2886AE601F027F901F081
S3150801313026F9E388A288484901E701F01FF901F059
S315080131401EF9E388A2884549F9E601F017F901F065
S3150801315016F9434909E701F011F901F010F9D4F814
S315080131600E302848019323893E490093A389628931
S31508013170006803F03AFFBDE501F000F901F0FFF838
S31508013180238939490093A389628939E601F0F6F85A
S3150801319001F0F5F8D4F80620344941E701F0EEF8D4
S315080131A001F0EDF83249E0E601F0E8F801F0E7F858
S315080131B03049DAE601F0E2F801F0E1F8227B2E491E
S315080131C02EE701F0DBF801F0DAF8227B2B4927E735
S315080131D001F0D4F801F0D3F8D4F80D30227B284950
S315080131E0ADE601F0CBF801F0CAF8E268254917E720
S315080131F001F0C4F801F0C3F8A289234910E700BF1A
S31508013200A154050888210020D6540508F25405085A
S315080132101755050838550508DC530508D25305081E
S3150801322090550508C05305083F5605086056050818
S3150801323093560508C6560508FA560508605705083F
S31508013240FF5305081654050885570508E65305086A
S315080132500458050851580508AC5805082F5905089A
S3150801326073590508535A0508665B0508C85B0508BE
S31508013270095C05083E5C0508715C0508A85C05083B
S31508013280DB5C05086D5D0508B75D050800201AF0C9
S3150801329081BC000037B520F0CBFD044630B32E4D76
S315080132A02E49286803F0A1FE2D49286803F09DFEE2
S315080132B001F064F801F063F82A4B2B4A00932B4975
S315080132C04923286803F091FE2346294A2949286893
S315080132D003F08BFE204601F06FF82749286803F0B2
S315080132E084FE1E49286803F080FEFEE7FFF70EFB01
S315080132F023464FF4FA61214A2148009400F07EFEE4
S31508013300054630B3144C1549206803F06EFE14497E
S31508013310206803F06AFE01F031F801F030F8114B2C
S31508013320114A009311495423206803F05EFE2B4687
S315080133300F4A1049206803F058FE284601F03CF868
S315080133401049206803F051FE0449206803F04DFE38
S31508013350FEE703B030BD00BF88210020FA4C0508FE
S31508013360204C05083F5F0508055E05082E4C050833
S315080133703A4C05083D4C05087A5E05088D32010868
S31508013380F8200020A25E0508036837B523F47F43B9
S315080133901C4A23F00703934232D1FFF7B7FA0023F9
S315080133A04FF4FA61184A1948009300F027FE0546BA
S315080133B030B3174C1749206803F017FE16492068E1
S315080133C003F013FE00F0DAFF00F0D9FF134B144A9D
S315080133D0144900932068842303F007FE2B46124AFA
S315080133E01249206803F001FE284600F0E5FF10495E
S315080133F0206803F0FAFD0749206803F0F6FDFEE7A9
S3150801340003B030BDA800140A8D320108F820002047
S3150801341088210020FA4C0508204C0508005F05089C
S31508013420055E05082E4C05083A4C05083D4C05086D
S31508013430A25E050837B520F0FBFC054630B3434CC0
S315080134404349206803F0D1FD4249206803F0CDFDC8
S3150801345000F094FF00F093FF3F4B404A0093404928
S315080134606023206803F0C1FD2B463E4A3E49206889
S3150801347003F0BBFD284600F09FFF3C49206803F096
S31508013480B4FD3349206803F0B0FDFEE71AF032FBBC
S31508013490044630B32D4D2E49286803F0A6FD2D4963
S315080134A0286803F0A2FD00F069FF00F068FF2A4BC7
S315080134B02A4A00932A496323286803F096FD23467E
S315080134C0284A2949286803F090FD204600F074FF30
S315080134D02749286803F089FD1D49286803F085FDF9
S315080134E0FEE7FFF703FA23464FF4FA61214A224819
S315080134F0009400F083FD054630B3144C1449206846
S3150801350003F073FD1349206803F06FFD00F036FFE1
S3150801351000F035FF104B114A009311496E232068BC
S3150801352003F063FD2B460F4A0F49206803F05DFD42
S31508013530284600F041FF1149206803F056FD044969
S31508013540206803F052FDFEE703B030BD8821002054
S31508013550FA4C0508204C0508215F0508055E050893
S315080135602E4C05083A4C05083D4C05087A5E0508B7
S31508013570D95E05088D320108F8200020A25E0508EB
S315080135800321002005F044BA036837B523F47F43C5
S31508013590494A23F00703934206D002F520229342B3
S315080135A000F0848003B030BD20F000FB054630B33F
S315080135B0424C4349206803F018FD4249206803F04C
S315080135C014FD00F0DBFE00F0DAFE3F4B3F4A4049AE
S315080135D000932068792303F008FD2B463D4A3E49AE
S315080135E0206803F002FD284600F0E6FE3B49206804
S315080135F003F0FBFC3249206803F0F7FCFEE720F0F4
S31508013600E1FA054630B32D4C2D49206803F0EDFC4F
S315080136102C49206803F0E9FC00F0B0FE00F0AFFE8B
S31508013620294B2A4A2A49009320687D2303F0DDFCA9
S315080136302B46284A2849206803F0D7FC284600F07B
S31508013640BBFE2749206803F0D0FC1D49206803F01A
S31508013650CCFCFEE720F09EFA05460028A2D0174CBE
S315080136601749206803F0C1FC1649206803F0BDFC20
S3150801367000F084FE00F083FE134B144A14490093AC
S315080136802068A42303F0B1FC2B46124A124920688C
S3150801369003F0ABFC284600F08FFE1249206803F0C0
S315080136A0A4FC0749206803F0A0FCFEE703B0BDE8C7
S315080136B0304005F0C1B900BFA800140088210020D8
S315080136C0FA4C0508204C0508676005085D5F050882
S315080136D02E4C05083A4C05083D4C0508D05F0508EF
S315080136E0006005082F60050800201AF053BA00008B
S315080136F037B580B10368344A23F47F4323F00703BF
S31508013700934257D009D802F17A42934247D002F13F
S315080137108072934252D003B030BD2C4A9342FAD1FB
S315080137202B4C8088FFF7CEF800F028FE00F027FE24
S315080137304FF4FA622749206803F057FC00234FF437
S31508013740FA61254A2548009300F058FC05460028E9
S31508013750E1D02349206803F048FC2249206803F098
S3150801376044FC00F00BFE00F00AFE1F4B1F4A2049DD
S3150801377000932068BB2303F038FC2B461D4A1E49DB
S31508013780206803F032FC284600F016FE1B49206823
S3150801379003F02BFC1249206803F027FCFEE70379A6
S315080137A0D0F80720B0F80510181E18BF0120FFF73A
S315080137B071F8B0E78088FEF781FFACE7D0F806100C
S315080137C08088FEF7CBFFA6E7A8001406A800140711
S315080137D08821002087600508E93601082C21002088
S315080137E0FA4C0508204C050873610508C3600508ED
S315080137F02E4C05083A4C05083D4C05084A61050852
S3150801380037B520F0CDFA054638B3154C1549206869
S3150801381003F0EBFB1449206803F0E7FB00F0AEFD6B
S3150801382000F0ADFD114B124A1249009320684FF47E
S31508013830E47303F0DAFB2B460F4A1049206803F0BC
S31508013840D4FB284600F0B8FD0D49206803F0CDFBEE
S315080138500449206803F0C9FBFEE703B030BD00BF89
S3150801386088210020FA4C0508204C05086C620508D9
S31508013870A16105082E4C05083A4C05083D4C05087A
S315080138801662050870477047704700002DE9F04F2A
S31508013890054687B080B10368674A23F47F4323F05E
S315080138A00703934234D00AD802F17F4293422CD0BF
S315080138B002F55412934230D007B0BDE8F08F5F4A43
S315080138C09342F9D1002490F80DA0DFF880B100F1F8
S315080138D00E09A245F0D9AAEB0401022940F3A580F5
S315080138E009EB04039F78564B00221846B5F8088061
S315080138F030F8026BB04500F09A800132052AF7D1FB
S31508013900033457FA84F4E4B2E3E70379002BD3D0FE
S3150801391007B0BDE8F04FFFF773BF437B072BCBD941
S3150801392000F10E01082203A805F00DFB454BBDF871
S315080139300C001B788342BFD1414A937A042BBBD82A
S31508013940164600242D89A9B236F8027BB942B3D0AE
S315080139500134052CF8D122F8135001339372FEF77E
S3150801396059FFA9E7032964D0E21C4A44002633F823
S31508013970021B88451CD1F6B219F804104E2933D01A
S315080139804F291ED04C2943D1022F16D103A805F081
S3150801399000FA4FF6FF72BDF80C30A3EB020CDCF10E
S315080139A0000242EB0C0241463046FFF76CFFA7E7DF
S315080139B00136052EDBD1FF26DEE74FF6FF7302221D
S315080139C0F1E7012F0DD103A805F0E3F99DF90C30B4
S315080139D0A3F17F004242424141463046FFF752FF7A
S315080139E08EE77F230222F7E7032F0DD103A805F0FF
S315080139F0D0F96FF07F42039B991A4A424A414146E0
S31508013A003046FFF741FF7BE76FF07F430222F6E777
S31508013A10019100F0B3FC00F0B2FC01990A4B0A4689
S31508013A201868594603F0E1FA6AE7544651E7002F48
S31508013A3098D100229AE700BFA8001401A8004904FA
S31508013A40602100206C210020882100204C62050895
S31508013A50014B1880704700BF7A120020014B188865
S31508013A60704700BF7A12002037B501210020194A94
S31508013A7005F030FA044680B238B3174D174928685D
S31508013A8003F0B3FA1649286803F0AFFA00F076FC9A
S31508013A9000F075FC134B144A14490093A4B2CB23C6
S31508013AA0286803F0A2FA2346114A1249286803F046
S31508013AB09CFA204600F080FC0F49286803F095FA25
S31508013AC00649286803F091FAFEE703B0BDE83040DD
S31508013AD0FFF7BEBFD863050888210020FA4C050800
S31508013AE0204C0508B6630508846205082E4C0508AE
S31508013AF06B6305083D4C0508F96205087047000027
S31508013B0030B50368B24A23F47F4323F0070393428F
S31508013B1004468BB000F0EB8042D8AE4A934200F0DF
S31508013B20AB800AD802F17F42934200F0A18002F5E8
S31508013B30501293420CD00BB030BDA74A934200F005
S31508013B40A08002F580329342F5D1037B9B07F2D51B
S31508013B500023CDE90133B4F80D2019460092628994
S31508013B60208920F0B3F804460028E4D0012000F0AB
S31508013B70E5FB0028DFD0994D9949286803F035FA05
S31508013B8000F0FCFB00F0FBFB964A234696492868A1
S31508013B9003F02BFA204600F00FFC944A9449D2E030
S31508013BA0944A934238D02FD802F17F42934200F0CB
S31508013BB0318102F57F029342BDD10023CDE901335C
S31508013BC0B0F80D20194600924289008920F05CF868
S31508013BD004460028AFD0012000F0B0FB0028AAD087
S31508013BE07E4D7F49286803F000FA00F0C7FB00F014
S31508013BF0C6FB7C4A23467C49286803F0F6F9204629
S31508013C0000F0DAFB7C4A9DE07C4A934200F0A180F1
S31508013C1002F5803293428ED10023CDE90233B4F8FE
S31508013C200F2019460192B4F80D2000926289208965
S31508013C3020F090F8044600283FF47DAF012000F0FB
S31508013C407DFB00283FF477AF644D6549286803F08A
S31508013C50CCF900F093FB00F092FB624A23466249D5
S31508013C60286803F0C2F9204600F0A6FB644A95E7E6
S31508013C700379002B3FF45FAF0BB0BDE83040FFF787
S31508013C80F3BEB0F80D3006AD4C2B00D00BBBFFF7D9
S31508013C90E5FEADF81600FFF731FF29464C200DF178
S31508013CA0160204F02EFFA0B10023CDE900056289B2
S31508013CB0208919461FF0A8FF0446002C3FF43BAFA4
S31508013CC0012000F03BFB00283FF435AF434D444942
S31508013CD068E0B4F80D3003228DF818301B0A8DF808
S31508013CE01930002301958DF81A300092DFE700F1AB
S31508013CF010030293C37B0193B0F80D3000930023A0
S31508013D004289194600891FF09DFF044600283FF4A1
S31508013D1012AF012000F012FB00283FF40CAF2F4D23
S31508013D202F49286803F061F900F028FB00F027FB0A
S31508013D302C4A23462C49286803F057F9204600F0F7
S31508013D403BFB304A304928680BB0BDE8304003F0E8
S31508013D504CB9FFF783FE06ACADF81600FFF7CEFEA9
S31508013D6021464C200DF1160204F0CBFE00283FF443
S31508013D70E2AE0023CDE900041A46194618461FF09B
S31508013D8043FF40F214539842044603D040F21553B8
S31508013D90984292D1042000F0D1FA00283FF4CBAE24
S31508013DA00E4D1A49286803F020F900F0E7FA00F0E9
S31508013DB0E6FA23460B4A0C49286803F016F9204609
S31508013DC000F0FAFA124A1049286803F00EF9B2E629
S31508013DD0A8004702A8001401A8004701882100206D
S31508013DE01E6305083A4C05083D4C0508636305083A
S31508013DF072630508A800480350630508A80047042C
S31508013E00A763050842630508236305085E63050879
S31508013E106B6305080023CDE90133B0F80D20194677
S31508013E200092428900891FF073FF044600283FF477
S31508013E3082AE012000F082FA00283FF47CAE0A4DDA
S31508013E400A49286803F0D1F800F098FA00F097FAC1
S31508013E50074A23460749286803F0C7F8204600F0B1
S31508013E60ABFA054A9AE600BF882100201E630508B9
S31508013E703A4C05083D4C050897630508036837B5AC
S31508013E8023F47F433A4A23F007039342044664D056
S31508013E9002F18272934268D1B0F80510212964D1E2
S31508013EA00122344B00791A70002219F045FE0546A5
S31508013EB030B3314C3149206803F097F8304920680E
S31508013EC003F093F800F05AFA00F059FA2D4B2E4AEE
S31508013ED000932E493F23206803F087F82B462C4A86
S31508013EE02C49206803F081F8284600F065FA2A492A
S31508013EF0206803F07AF82149206803F076F8FEE78E
S31508013F00207919F0E5FD054600282ED01A4C1B49E3
S31508013F10206803F06AF81A49206803F066F800F089
S31508013F202DFA00F02CFA174B174A00931749432329
S31508013F30206803F05AF82B46154A1649206803F0FB
S31508013F4054F8284600F038FA1349206803F04DF86A
S31508013F500A49206803F049F8FEE7064B1B7823B1A6
S31508013F6003B0BDE8304004F01FBD03B030BD00BF4B
S31508013F70A00006016D21002088210020FA4C0508C1
S31508013F80204C050863640508E26305082E4C0508FC
S31508013F903A4C05083D4C05085264050800220949B2
S31508013FA00B684BB1834204D1436A4AB1536201207B
S31508013FB070471A465B6AF4E70028F5D01846704739
S31508013FC00B60F4E77021002010B5044690B104F0A7
S31508013FD097F92046FFF7E2FF58B194F8280040B157
S31508013FE001F099FF044A1368013B136001F099FF38
S31508013FF0002010BD2220FCE7742100202DE9F04F96
S3150801400085B00546914698460E469DF8387009B919
S31508014010002F64D12846FFF7D7FF044600283CD174
S3150801402085F82800286304F0B9FA864239D904F0DC
S3150801403085FA40F2E7318C462146E6FB00C14FF48A
S315080140407A72604600233EF0C5FE4FF0FF32002328
S3150801405083468A463EF0BEFE4FF0FF32688600234D
S31508014060584651463EF0B6FE2B46CDE90044114668
S315080140701C4A284604F0DFF9044670B91A4AC5E90C
S315080140800798136885F82970EE6233B31A465B6A96
S31508014090002BFBD1556200236B62204605B0BDE8B3
S315080140A0F08F304603A957B104F05AFA044600289E
S315080140B0F3D12B46CDE900000A4A0399D9E704F062
S315080140C04FFA04460028E8D12B462846CDE9007761
S315080140D0044A039904F08CF9CEE71560DBE721243D
S315080140E0DBE700BFED4001087021002091F8283078
S315080140F013B50C4683B90B8E4A8E93420ED243B939
S31508014100CDE9003320460B46104A4FF0FF3104F043
S3150801411039F9238E0133238602B010BD52B191F8C5
S3150801412029307BB101230093D1E907232046C96AC7
S31508014130FFF764FF0123064A84F828301368013320
S315080141401360E9E7084604F0DBF8F3E7ED400108F8
S315080141507421002070B5104D2B681BB100260F4B3A
S315080141601C6804B970BD94F8283093B101F0D3FEE8
S315080141702B6884F82860013B2B6001F0D2FE94F885
S31508014180293013B92046FFF709FFD4E9073120463C
S315080141909847646AE5E700BF742100207021002072
S315080141A0034B1B68002B0CBF01200420704700BF7E
S315080141B074210020024B1868B0FA80F04009704754
S315080141C07421002004210022024B19711A60197307
S315080141D09A607047782100202DE9F843204B05465F
S315080141E01B78ABB94FF00208DFF87C901D4C59F8E3
S315080141F0043BAB4207D1284600F03FFB01280CD10E
S3150801420004F076F92060B8F1010F04F1080401D130
S31508014210BDE8F8834FF00108E9E7284600F02DFBD1
S3150801422007460028EFD104F063F92368C61AFA2075
S3150801423004F08AF9B04201D92771E4E74FF47A709C
S3150801424004F082F9B04202D901232371DBE741F276
S31508014250883004F079F9B0428CBF02230323F4E7CE
S315080142607C120020782100206C12002010B5094C20
S315080142702179042904D00020FEF7BEF9042323710D
S31508014280217B042904D00120FEF7B6F90423237300
S3150801429010BD00BF7821002010B50B4C206800F036
S315080142A0ECFA012803D104F023F9084B1860606879
S315080142B000F0E3FA012803D104F01AF9034B9860D8
S315080142C00022034B1A7010BD6C12002078210020C1
S315080142D07C120020054B1A783AB90121197004217C
S315080142E0034B19711A6019739A6070477C12002082
S315080142F078210020054B187838B9054B1A79042A14
S3150801430003D1187B031F5842584170477C1200207D
S3150801431078210020074B1B7843B9074B18790428E5
S3150801432006D11B7B042B08BF01207047012070476B
S31508014330042070477C120020782100200B4B02468E
S315080143401B788BB10A4B1B78834234BF00200120AE
S31508014350084B1B783BB1084B1B7843FA02F212F063
S31508014360010F08BF002070470120F1E77D120020E8
S315080143707E1200208C2100207F1200207047704792
S31508014380012208B5074B1A700022074B1A7004223E
S31508014390064B1A701F22064B1A7002F0EDFD054BEB
S315080143A0186008BD7D1200208C2100207E12002095
S315080143B07F1200208821002070B50C4C0C49064656
S315080143C0206802F012FE02F0D7FD0546206802F0C9
S315080143D0C7FD304600F002FA284602F0C1FD206802
S315080143E00449BDE8704002F000BE00BF88210020E4
S315080143F083640508856405080F20704708B50121FF
S315080144003A2000F0CFFEFEF7C2FABDE8084000F0F8
S3150801441005B801213A2000F0C5BE00002DE9F0419A
S31508014420484C8EB0264601AD0FCE0FC533681434FD
S315080144302B6006AD0FCC0FC594E80F0085E80F0079
S3150801444001213A2000F0AEFE0121572000F0AAFE14
S315080144504FF480733C4EADF81C303C4B3046039309
S3150801446001A906AB059301F0D3FF01230422032119
S31508014470022002F0EFF8022100230846012202F089
S31508014480E9F8012304221946022002F0E3F804227E
S3150801449000210123022002F0DDF82D4C2D4B0125C8
S315080144A0C4F8C8344FF00213C4F8C43403F5803392
S315080144B0C4F8CC341C2304F50058C4F8B4344FF4BA
S315080144C0487004F04BFA04F580571420C8F8A05038
S315080144D004F044FA2320C7F8A05004F03FFAB921A2
S315080144E03046C8F8A05001F014FF002303211A46EC
S315080144F00220C7F8A05002F0ADF8002302211A469F
S31508014500084602F0A7F82B4629460022022002F0A7
S31508014510A1F800222B461146022002F09BF83046EC
S3150801452001F0C8FE00215720C4F8C814C4F8C41401
S31508014530C4F8CC14C4F8B41400F034FE0EB0BDE8C7
S31508014540F08100BF8864050800000A50E070720017
S3150801455000C0035002000100FEE7000008B500F0A4
S315080145602DF8124B12498B4212D30020114B1249D6
S315080145708B4218D3FDF720FE186850F82240586878
S3150801458040F82240013298688242F5D30C33EAE7B3
S315080145900022F8E71C6844F8220001325C68A2424E
S315080145A0F8D30833E4E70022F8E700BF40DD050841
S315080145B04CDD05084CDD05084CDD05084FF4804146
S315080145C04FF0FF30114B124A10B59A60D3F8882084
S315080145D042F47002C3F888200E4A91660E4901F525
S315080145E0005210660D4850660220C3F8D000BFF38A
S315080145F04F8FBFF36F8F01244FF440330848C0F83B
S315080146008041D36004600B6110BD00BF00ED00E07E
S31508014610002001080090005000800044F7FF370091
S3150801462000E100E0014B1868704700BF84120020C2
S31508014630084B1B6F03F00703022B04D0032B05D08D
S31508014640012B05D0FEE7044B18687047034BFBE7BF
S315080146500348704700800050841200208812002009
S31508014660002D310108B5FFF7E3FF054B1B6FC3F3B7
S3150801467003330133B0FBF3F0024B186008BD00BFEA
S3150801468000800050801200200048704700B4C4041E
S31508014690014B1868704700BF88120020054B186047
S315080146A0054B1B6F03F00703032B01D1FFF7DABF95
S315080146B0704700BF88120020008000500020704714
S315080146C000487047002D31014FF0B4439868C0F394
S315080146D004400C2822D8DFE800F0092121212121F4
S315080146E0071719211B1D1F000F4870479B6803F008
S315080146F04073B3F1807F13D0B3F1007F12D00B4A18
S31508014700002B08BF1046704709487047094870478B
S31508014710094870470948704709487047002070479B
S315080147200848704708487047405DC60000093D00C3
S315080147300024F400C0EA210180BA8C010048E8018E
S31508014740005A620280841E0040420F004FF4004066
S3150801475070474FF47A707047014B1868704700BF6D
S315080147608C1200204FF000639B6A10B503F1784262
S31508014770B2F5903F0AD2084C227812F0FD0F08D103
S31508014780DB69984708B90123237010BD4FF481707E
S31508014790FBE70020F9E700BF8D2100204FF0005309
S315080147A0074A1A60BFF34F8F0649074BCA6802F4D6
S315080147B0E0621343CB60BFF34F8F00BFFDE700BF35
S315080147C002020FF000ED00E00400FA050023036081
S315080147D0704703680B6001607047000070B5C0F34D
S315080147E00725132D1FD8104B53F8256036B9BDE898
S315080147F0704082B20D490E483EF002BE0D4BC4B25E
S315080148005B5DA3420FD356F8240000F019F850B99E
S31508014810094A56F8243052F8252004490748BDE8C4
S3150801482070403EF0EDBD70BDD47705080C650508EE
S3150801483017650508747805082478050821650508AB
S3150801484020B10078B0FA80F040097047012070471E
S3150801485005490A681318054883428CBF4FF0FF3291
S315080148600B601046704700BFCC1A002000000420D8
S31508014870436803B1184722207047436903B11847B3
S31508014880FF20704710B40A681378022B11D0142040
S315080148903023147913FB040307481B585079C34086
S315080148A0DB4303F00103137008465DF8044BFFF779
S315080148B093BC5DF8044B704730C0035037B50468A4
S315080148C0012105463A2000F06DFC00230122617999
S315080148D0207901F0BFFE14223023217913FB01232D
S315080148E00E4A9B586279D340DB4303F001032370D8
S315080148F0A379022B0ED100F0DFF82A460849607920
S3150801490000F004F90123024661792079CDE90033E3
S3150801491001F048FE002003B030BD00BF30C003508F
S3150801492085480108036818787047000002681378FB
S31508014930022B24D014213023107913FB00131049BC
S315080149405B585179CB40917903F00103012912D1C2
S31508014950508843EA40034FF6E07063F03F039BB289
S31508014960834202D11170538070474FF6DF718B4233
S31508014970F9D10021F6E711B983F0010313707047E5
S3150801498030C0035003681A78022A03D100225A80DC
S31508014990FFF794BF704713B504682378022B10D02C
S315080149A0A379022B0BD10021607900F09DF8002331
S315080149B0627920791146CDE9003301F0F3FD02232E
S315080149C0237002B010BDD0E90003184710B504469C
S315080149D001213A2000F0E6FBA3782078B3FA83F3A5
S315080149E0042261785B0901F035FE002010BD000044
S315080149F010B5012243780178847830209A40054B16
S31508014A0000FB01331CB903F501531A6010BD03F508
S31508014A108253FAE700C0035010B5012243780178A2
S31508014A20847830209A40054B00FB01331CB903F505
S31508014A3082531A6010BD03F50153FAE700C003500B
S31508014A400122437801789A4030235943014B5A5041
S31508014A50704700BF40F0035010213023024600780A
S31508014A6013FB0013054950785B58C34003F0010056
S31508014A7093780BB980F00100704700BF30C003502E
S31508014A8070B5044601250B4E04B970BD94FAA4F01D
S31508014A90B0FA80F005FA00F306EB001224EA0304E3
S31508014AA05368002BF0D0117B11B191689847EBE759
S31508014AB09847E9E79021002008B5192001F034FA52
S31508014AC028B14FF00072074BC3F880211A601A20EB
S31508014AD001F02AFA28B14FF08062024BC3F880210F
S31508014AE01A6008BD00E100E038B505460C4601F03C
S31508014AF012FA0022044B03EB05135C601A73BDE836
S31508014B00384001F00EBA00BF90210020F8B50546DD
S31508014B100F46164601F0FFF9104B05F0FC02D3F8D3
S31508014B2024140023EC1804F00304144321FA04FCAA
S31508014B301CF0010F07D00133042BF3D1FF2401F038
S31508014B40F0F92046F8BDFF2CF9D00122044B03EBFE
S31508014B500413C3E901761A73F1E700BF00C00350D5
S31508014B6090210020074BD3F82404D3F8202403F519
S31508014B700053104000F0553020F05020C3F82004AF
S31508014B80FFF77EBF00C00350074BD3F82404D3F8C0
S31508014B90202403F50053104000F0AA3020F0A0208D
S31508014BA0C3F82004FFF76CBF00C00350024B196815
S31508014BB0024B186835F094BFD41A0020D01A002089
S31508014BC07047000037B5920004460D46019240F041
S31508014BD017F8431C0BD060B929462046019A3EF0C6
S31508014BE0D9FA0028044808BF002003B030BD03489D
S31508014BF0FBE70348F9E700BF10E000F021E000F009
S31508014C0024E000F013B5044601A801F0C1FD9DF8A2
S31508014C100630012223804FF4807300206380054B00
S31508014C209B680A3303F01F0302FA03F3636002B0B9
S31508014C3010BD00BF0080E00F01F05CBD08B501F0B2
S31508014C4049FD002008BD10B5044644EA010313F0E6
S31508014C500303084609D1934201D1002010BD54F837
S31508014C60231040F823100133F5E7214692003EF060
S31508014C70A1FAF2E710B504463FF0CAFF431C15D066
S31508014C80B0B90C4B20469B680A3303F01F02012377
S31508014C90934023F003032344984201D1002010BD19
S31508014CA050F8042B0132F7D00348F8E70348F6E732
S31508014CB00348F4E70080E00F0EE000F021E000F081
S31508014CC024E000F008B501F01FF9014B186008BD92
S31508014CD0202A0020014B186801F01AB9202A002061
S31508014CE00A460139014402F0A5BD0000044BD3F878
S31508014CF08420D206FBD4D3F88400C0F38110704710
S31508014D000040005038B5174B0546D3F820310C46FC
S31508014D1003F00703013B052B20D8DFE803F0030B5B
S31508014D20130F171BFFF77EFC052305B1286004B195
S31508014D30236038BDFFF7ACFC0323F6E7FFF7C4FC95
S31508014D400723F2E7FFF7BCFC0223EEE7FFF76AFC4D
S31508014D500623EAE7FFF79CFC0423E6E70023184647
S31508014D60E3E700BF0080005038B5174B0546D3F876
S31508014D7028310C4603F00703013B052B20D8DFE851
S31508014D8003F003131B0F0B17FFF74CFC052305B1A3
S31508014D90286004B1236038BDFFF744FC0623F6E713
S31508014DA0FFF792FC0723F2E7FFF772FC0323EEE70E
S31508014DB0FFF76EFC0423EAE7FFF782FC0223E6E726
S31508014DC000231846E3E700BF0080005073B50D467F
S31508014DD00021114B0191D3F88041064604F00304E2
S31508014DE0022C13D0032C0CD0012C13D101A8FFF7E8
S31508014DF089FF10240EB1019B336005B12C6002B006
S31508014E0070BDFFF761FC07240190F3E7FFF758FC33
S31508014E100190EFE70C46EDE700800050002337B517
S31508014E200193154B0546D3F820320C4603F00703C8
S31508014E30013B032B1ED8DFE803F0020E13180021ED
S31508014E4001A8FFF791FF12230DB1019A2A6004B157
S31508014E50236003B030BDFFF737FC07230190F3E762
S31508014E60FFF774FC0A230190EEE7FFF775FC0923A7
S31508014E700190E9E70023E7E70080005038B5104BB9
S31508014E800546D3F840310C4603F00303022B0BD039
S31508014E90032B0DD0012B0FD1FFF758FC0A2305B1BF
S31508014EA0286004B1236038BDFFF756FC0923F6E7ED
S31508014EB0FFF74FFC0C23F2E700231846EFE700BF84
S31508014EC000800050002337B50193164B0546D3F8E9
S31508014ED060320C4603F00703013B032B1FD8DFE8BA
S31508014EE003F0020E1914002101A8FFF70BFF102386
S31508014EF00DB1019A2A6004B1236003B030BD0021C7
S31508014F0001A8FFF7BBFF1123F2E7FFF7DDFB072334
S31508014F100190EDE7FFF7D4FB02230190E8E70023B0
S31508014F20E6E700BF00800050002337B50193164B12
S31508014F300546D3F894320C4603F00703013B032BCD
S31508014F401FD8DFE803F0020E1914002101A8FFF7A4
S31508014F50D9FE10230DB1019A2A6004B1236003B06A
S31508014F6030BD002101A8FFF789FF1123F2E7FFF7FA
S31508014F70ABFB07230190EDE7FFF7A2FB02230190A4
S31508014F80E8E70023E6E700BF0080005038B5134B79
S31508014F900546D3F800320C4603F00703013B032B01
S31508014FA018D8DFE803F0020A0E12FFF7CFFB0A232F
S31508014FB005B1286004B1236038BDFFF7CDFB09238D
S31508014FC0F6E7FFF7C6FB0C23F2E7FFF74BFB0F23C8
S31508014FD0800AEDE700231846EAE700BF0080005083
S31508014FE038B5134B0546D3F808320C4603F00703C8
S31508014FF0013B032B18D8DFE803F0020A0E12FFF76C
S31508015000A5FB0A2305B1286004B1236038BDFFF763
S31508015010A3FB0923F6E7FFF79CFB0C23F2E7FFF74F
S3150801502021FB0F23800AEDE700231846EAE700BFB4
S315080150300080005038B5104B0546D3F840320C466F
S3150801504003F00303022B0BD0032B0DD0012B0FD139
S31508015050FFF77CFB0A2305B1286004B1236038BD3C
S31508015060FFF77AFB0923F6E7FFF773FB0C23F2E751
S3150801507000231846EFE700BF0080005038B5104BF3
S315080150800546D3F860310C4603F00303022B0BD017
S31508015090032B0DD0012B0FD1FFF758FB0A2305B1BE
S315080150A0286004B1236038BDFFF756FB0923F6E7EC
S315080150B0FFF74FFB0C23F2E700231846EFE700BF83
S315080150C00080005070B5054614460E4600F01CFFD8
S315080150D0296881EA040202EA06044C402C60BDE80C
S315080150E0704000F015BF0000B0F5207F1FD009D829
S315080150F0B0F5007F15D003D868B1B0F5C07F0AD0E6
S3150801510000200CE0B0F5607FFAD10B4BD3F8800094
S31508015110C0F3011003E0084B186FC0F303300130E8
S315080151207047054BD3F89000C0F30460F7E7024BCC
S31508015130186FC0F38020F2E70080005002464FF452
S315080151408030104B10B598660020FFF7CDFF50430D
S3150801515041F671320C4BDC69DA635A6804F480341F
S3150801516022F4401259B9094988428CBF4FF480107C
S315080151700020104358600CB10022DA6310BD0449BF
S31508015180F2E700BF0090005000000350005A620287
S31508015190002D310108B5FFF777FABDE8084000216F
S315080151A0FFF7CCBF430905D0012B0DD0022B094BC4
S315080151B018BF002300F01F0041B103F580530122F7
S315080151C002FA00F018607047034BF3E703F5005342
S315080151D0F5E700BF68800050648000501FB50022C3
S315080151E080280446019200F0BA8048D8002800F0C9
S315080151F0BA80A0F120043D2C54D83D2C52D8DFE8C2
S3150801520014F0B200BE00B200BE00D700D700D70026
S31508015210D700D700BE00E1005B00F70081005B0004
S31508015220BE00BE00BE0051005100510051005100A0
S31508015230510051005100BE00BE00BE0089000101A7
S31508015240BE0051005100510051005100510051005A
S31508015250510051005100510051005100D700B200D0
S31508015260B200B200FC005B005B00060198006C000E
S31508015270DC0051005100510051005100A900B0F560
S31508015280B06F00F09F802DD8B0F5207F77D00CD86D
S31508015290B0F5C07F67D0B0F5007F67D0B0F5807FE5
S315080152A000F09580019804B010BDB0F5607F6CD010
S315080152B00DD8B0F5407FF5D1FFF7D4F902464FF482
S315080152C02070FFF711FFB2FBF0F0400849E0B0F596
S315080152D0806F6DD0B0F5A06FE4D1002101A8FFF76A
S315080152E09DFDDFE7B0F5106F00F0878017D8B0F5A0
S315080152F0E06F00F087800AD8B0F5C06F78D0B0F5B6
S31508015300D06FCFD1002101A8FFF740FECAE7B0F55B
S31508015310F06FC7D1002101A8FFF7B0FEC2E7B0F5CB
S31508015320406F4AD013D8B0F5206F70D0B0F5286F0A
S31508015330B8D10021384B0391D3F8703203F0030337
S31508015340012B02D103A8FFF799FD039B49E0B0F5AC
S31508015350486FA7D1002101A8FFF7E6FDA2E7FFF7ED
S3150801536067F901909EE7FFF77DF9FAE7FFF760F91C
S3150801537002462046FFF7B8FEB2FBF0F0F1E7FFF769
S3150801538071F902464FF42070F4E7234BD3F88030C5
S3150801539003F00303012B04D0022B06D04FF46070EF
S315080153A0E8E7FFF745F90246F8E7FFF78DF9FAE767
S315080153B0002101A8FFF7A6FC74E7002101A8FFF761
S315080153C0D3FC6FE7002101A8FFF700FD6AE74FF05C
S315080153D0E02302921B695B0705D5FFF743F90290A3
S315080153E0029B01935EE703A902A8FFF747FDF7E7CA
S315080153F0002101A8FFF742FD54E7002101A8FFF7A4
S31508015400EFFD4FE7002101A8FFF714FE4AE7002147
S3150801541001A8FFF757FD45E70080005008B5802031
S31508015420FFF7DCFE034B98429EBF4FF48032024BD6
S315080154301A6708BD005A620200A000501FB5002372
S31508015440B0F5807F019300F0C38064D85D2855D8F4
S315080154504C2807D82D2847D823282BD8019805B0DA
S315080154605DF804FB4D381028F8D801A353F820F04D
S31508015470C75501085D5401085D5401085D540108CA
S31508015480795501085D5401085D54010865560108FE
S31508015490975501083D5501085B5601085D540108F9
S315080154A05D5401085D5401085D5401085D54010805
S315080154B06F56010824380928D0D801A353F820F0DB
S315080154C0C7550108C7550108C7550108C755010839
S315080154D0C75501085D540108BD5501085D54010809
S315080154E059550108FD5501083D2800F082803E28DE
S315080154F0B4D1002001A9FFF79DFDAFE78028ADD102
S31508015500604B1B6F03F00703013B032BA6D8DFE8AB
S3150801551003F05350878FB0F5F06F6AD021D8B0F5F4
S31508015520B06F4BD00FD8B0F5607F00F0858095D36A
S31508015530B0F5806F47D0B0F5A06F8FD1002001A9D3
S31508015540FFF76CFC8AE7B0F5D06F57D0B0F5E06F7E
S31508015550CFD0B0F5C06F81D1002001A9FFF78EFC2D
S315080155607CE7B0F5206F7DD00BD8B0F5086F4AD02F
S31508015570B0F5106F7FF472AF002001A9FFF730FD77
S315080155806CE7B0F5406F68D0B0F5486F6FD0B0F5ED
S31508015590286F7FF463AF00213A4B0391D3F8703239
S315080155A003F00303012B67D0022B14BF0B46152307
S315080155B000E00523019351E70223FBE7002001A937
S315080155C0FFF704FC4AE7002001A9FFF79BFB45E723
S315080155D002934FF0E0231B695B0705D5FFF742F8F5
S315080155E00D230393039BE5E703A902A8FFF746FCEE
S315080155F0F8E7002001A9FFF741FD2FE7002001A9DF
S31508015600FFF7C4FC2AE71F4BD3F8003103F0030365
S31508015610022B07D0032B09D0012B0BD1FFF738F842
S315080156200323C7E7FFF798F80923C3E7FFF746F807
S315080156300823BFE70123BDE7124AD2F8802002F00A
S315080156400302012A05D0022AB4D1FFF73DF8072340
S31508015650B0E7FEF7EDFF0E23ACE7002001A9FFF73F
S3150801566083FBFBE6002001A9FFF72CFCF6E60020E8
S3150801567001A9FFF759FCF1E603A8FFF7FFFB112380
S3150801568098E700BF0080005008B5FFF7D7FE092844
S3150801569011D00A38012811D84FF48002094B4FF668
S315080156A0FF705A6603F5D8335B6A13F0010F18BF0A
S315080156B04FF4FA7008BD044B1888FBE74FF6FF70E4
S315080156C0F8E700BF00900050F61A002038B50446E6
S315080156D08020FFF7B3FE032800F083804FF4801281
S315080156E0504B4FF0A0615A6645F60E034E4AC2F872
S315080156F080304E4B99624FF4803103F5805399629D
S31508015700916D11F48031FBD1D4E900031B0543EAFD
S315080157100063E07B0343207B43EA0043607B43EA63
S315080157200033A07B43EA801313619069D4E90453DB
S315080157301B0643EA856300F000400343A07EE57E2D
S315080157400343207E43EA0043607E43EA00239361D4
S31508015750E069136A00280CBF0022082223F00F0310
S3150801576043EA000343EA850343EA02032E4A304D1E
S31508015770136237D194F82430916A94F82000DB003B
S315080157800D4043EA401394F821102B4343EA0113D1
S3150801579043F480339362274B916D33EA0101FBD1C0
S315080157A04FF08071214881621369A56823F470035B
S315080157B043EA055313614FF00043836194F822309D
S315080157C00BB91D4B996294F823301BB94FF48032FB
S315080157D0194B9A6294F825301BB1134B174AC3F833
S315080157E0802038BD022808D11161154891614FF40E
S315080157F008524FF47F41FFF765FC0B4994F82230B4
S315080158008A6A94F820001B06154043EA401394F867
S3150801581024202B4343EAC20394F8232043EA024394
S315080158208B62D7E7009000500040005A0050005A9A
S31508015830C7FFFEFE030001000060005AF1A7FFFF43
S315080158403440005A014B93F900007047F41A0020BE
S31508015850F0B5D0E901434FF400061A4A41780578B4
S3150801586056664FF4D156022702F5B8325662164EDD
S315080158704F2977604FF0010728BF4F2106F580565B
S3150801588077601669F603FCD441EA052151611B01CB
S31508015890417B43EA04230B43017B43EA41039360BB
S315080158A0C37B817B1B0143EA4113417C0B43017C8A
S315080158B043EA41035360837C13B16FF4D1535362B6
S315080158C0F0BD00BF0090005000100250014B188037
S315080158D0704700BFF61A00204FF4800208B5184B2E
S315080158E05A660223174A5360936813F48033FBD12F
S315080158F0012822D1FEF7CCFE134B984215D003F5A9
S31508015900122303F5F863984213D0104B00EB80027B
S31508015910400AB3FBF0F0520A0A4BDA620122186315
S315080159205A620022074B5A6008BD45F67A10084AA2
S31508015930F2E745F61A00074AEEE75362F1E700BFB8
S31508015940009000500040025000F049026466666605
S31508015950D8B80500BBCF05000029CCBF012100211D
S31508015960FFF7ECBBB0F5207F10B50C4657D008D829
S31508015970B0F5007F48D003D830B3B0F5C07F23D047
S3150801598010BDB0F5607FFBD129492A48D1F8FC2022
S3150801599012F080721EBFD1F8FC3023F08073C1F873
S315080159A0FC30D0F88030611E23F0300444EA01143B
S315080159B0C0F88040002AE3D01D4AD2F8FC3043F0F3
S315080159C08073C2F8FC30DBE7FFF7E4FB00F036F83A
S315080159D04FF48031184B174A1967136F611E23F468
S315080159E0704444EA01341467FEF73CFE0446FFF7A7
S315080159F07DF9C0F102012046FFF7AEFF00F024F859
S31508015A00BDE81040FFF70ABD0A4A0139D2F89030BD
S31508015A1023F0F85444EA0164C2F89040B0E7054B14
S31508015A20013C196F21F4806141EA84241C67A7E7C8
S31508015A3000ED00E0008000500090005002214FF474
S31508015A402070FFF78FBF000008B54FF4C070FFF74D
S31508015A50C5FBBDE80840044988428CBF02210121E3
S31508015A604FF42070FFF77EBF80F0FA02B0F5807F11
S31508015A70F8B50C4600F04E816BD85D285DD84C28E8
S31508015A8004D82D2844D8232828D8F8BD4D381028FD
S31508015A90FBD801A353F820F0F55C01088B5A0108DD
S31508015AA08B5A01088B5A0108EF5B01088B5A0108CA
S31508015AB08B5A0108A95E0108275C01087F5B01086A
S31508015AC0895E01088B5A01088B5A01088B5A01080D
S31508015AD08B5A01088B5A0108C95E0108243809281E
S31508015AE0D3D801A353F820F0F55C0108F55C010849
S31508015AF0F55C0108F55C0108F55C01088B5A01089B
S31508015B00D55C01088B5A0108B55B0108C35D01081C
S31508015B103D2800F046813E28B7D1093C032C8CBFAD
S31508015B200021B04BB04A98BF195DD2F8403223F034
S31508015B3003030B43C2F84032A7E78028A5D18B1E81
S31508015B40062B00F2C480DFE803F0BFADC27EC2C2F5
S31508015B50BC00B0F5F06F00F024813BD8B0F5B06F0A
S31508015B6000F0B8801BD8B0F5607F00F067818CD350
S31508015B70B0F5806F00F0BE80B0F5A06F85D1073C07
S31508015B800B2C8CBF0021994B974A98BF195DD2F807
S31508015B90203223F007030B43C2F8203275E7B0F52C
S31508015BA0D06F00F00E81B0F5E06FB6D0B0F5C06FDA
S31508015BB07FF46BAF093C032C8CBF00218C4B8A4ABE
S31508015BC098BF195DD2F8403123F003030B43C2F89D
S31508015BD040315AE7B0F5206F00F0668117D8B0F565
S31508015BE0086F00F01B81B0F5106F7FF44EAF093CCA
S31508015BF0062C8CBF00217F4B7B4A98BF195DD2F8D2
S31508015C00083223F007030B43C2F808323DE7B0F523
S31508015C10406F00F03981B0F5486F00F05581B0F555
S31508015C20286F7FF432AF112C00F05E81152C14BF5A
S31508015C30002102216C4AD2F8703223F003030B4388
S31508015C40C2F8703221E7002502264FF48037012178
S31508015C50022000F0C7F9FFF79DFAFFF7EFFE664B42
S31508015C60614A1F67136F23F0070333431367FEF770
S31508015C70F9FC0646FFF73AF8C0F102013046FFF78C
S31508015C806BFE0121002000F0EDF9FFF7DDFEFFF7BD
S31508015C90C5FB002D7FF4F9AE032C7FF4F6AE574B06
S31508015CA09F62F2E64FF48012534B0E465A664FF442
S31508015CB08032534B9D6A03F58053C5F300659A629A
S31508015CC0C3E700250426C0E700250126BDE7002510
S31508015CD02E46BAE7023C0E2C8CBF0021494B424A9C
S31508015CE098BF195DD2F8803123F003030B43C2F83C
S31508015CF08031CAE6023C052C8CBF0021424B3A4A48
S31508015D0098BF195DD2F8203123F007030B43C2F877
S31508015D102031BAE6A1F10904082C3FF6B6AE01A373
S31508015D2053F824F0495D0108495D01088B5A0108B9
S31508015D30495D0108775D01088B5A01088B5A0108EC
S31508015D408B5A0108495D01084FF48032264B2F49C9
S31508015D50586E03F580535A664B6A43F001034B624A
S31508015D60C1035CBF2A4B5A664FF0E022136923F040
S31508015D700403136189E64FF480321B4B2349586E9D
S31508015D8003F580535A664B6A23F001034B62C3033A
S31508015D905CBF1F4B5A664FF0E022136943F00403B8
S31508015DA0E7E7093C032C8CBF00211A4B0E4A98BF22
S31508015DB0195DD2F8603123F003030B43C2F8603151
S31508015DC063E6093C062C8CBF0021134B064A98BF93
S31508015DD0195DD2F8003223F007030B43C2F80032EB
S31508015DE053E600BFC178050800800050DC78050835
S31508015DF0C1780508C5780508009000500060005A6A
S31508015E000040005AAC780508BB78050800C0075061
S31508015E1000A00050C1780508C5780508CC1E062CD7
S31508015E208CBF0021314B324A98BF195DD2F8003137
S31508015E3023F003030B43C2F8003126E62D49063C3D
S31508015E40D1F8FC2012F080721EBFD1F8FC3023F085
S31508015E508073C1F8FC30082C8CBF0020264B2449DE
S31508015E6098BF185DD1F8803023F003030343C1F8C6
S31508015E708030002A3FF409AE1E4AD2F8FC3043F0BE
S31508015E808073C2F8FC3000E6023C052C8CBF002169
S31508015E901A4B174A98BF195DD2F8283123F0070320
S31508015EA00B43C2F82831F0E5023C0F2C8CBF0021C8
S31508015EB0134B0F4A98BF195DD2F8603223F00703D6
S31508015EC00B43C2F86032E0E5023C0F2C8CBF00217F
S31508015ED00C4B074A98BF195DD2F8943223F0070391
S31508015EE00B43C2F89432D0E50121A3E6CC78050824
S31508015EF00080005000ED00E0D3780508BB7805085E
S31508015F00E8780508E8780508EFF3108072B6704757
S31508015F1000B962B67047EFF31180302383F3118815
S31508015F20704780F311887047054B420953F82230B0
S31508015F3000F01F0023FA00F0C04300F0010070478B
S31508015F4000E100E0024A536B0342FCD1704700BFEF
S31508015F5000400950044A4178536F23F4407343EAD9
S31508015F6001235367704700BF0040005070477047D0
S31508015F700A4A10B51369044643F00403136101F094
S31508015F80FFFFFFF7F3FF30BFFFF7F1FF02F00CF851
S31508015F901CB9BDE81040FEF765BB10BD00ED00E079
S31508015FA0084A10B51369044643F00403136101F066
S31508015FB0E7FF30BF01F0F8FF1CB9BDE81040FEF756
S31508015FC051BB10BD00ED00E070477047034A0179E7
S31508015FD0D36E23F030030B43D3667047004000505D
S31508015FE070470000F8B504461C4BD3F88420D10647
S31508015FF0FBD4D3F88430C3F381139C422CD0FEF72B
S3150801600017FB012C064602D12146FFF7A5FCFFF72F
S315080160107BFF4FF00072124B07465A662046FFF780
S31508016020DFFF4FF480630D4D621E93402B676B6E45
S315080160309A0103D4D5F884309B060AD53846FFF76A
S3150801604067FF022C08D13046BDE8F8400021FFF76A
S3150801605083BCD5F88430EAE7F8BD00BF004000509C
S315080160600060005007B518B90191FEF7E1FA0199E8
S31508016070064B1B7843B1064B984205D8012003B05D
S315080160805DF804EBFFF7AEBF0220F8E7D42A00203B
S31508016090005A62020278034B012100201A70FFF7A9
S315080160A0E1BF00BFD42A00204FF00042154B10B5BE
S315080160B05A664AF6CD3314494C6C0B6404F0010454
S315080160C088B90120FFF73EFF4B68DB0704D50F4B64
S315080160D058600B6BD807FCD514B10B4B0C4A1A64E4
S315080160E035F041FE10BD0B6B1A07FCD42022074B75
S315080160F09A620122A3F580535A60034A936A9B0662
S31508016100FCD5E9E7009000500040095000600950AD
S315080161103254FFFF4FF0004238B5164B01465A6616
S315080161204AF6CD33144C154A656C236443780B2023
S315080161305B0043F00103D363FFF704FF63688A78C2
S3150801614023F4F87343EA02136360CA784B7943EA86
S315080161500223A3600A798B7943EA0223236108782B
S31508016160FFF7A2FFEB0744BF054B236435F0FBFDA0
S31508016170012038BD009000500040095000400050F1
S315080161803254FFFF4FF00042124B70B55D6E03F5B6
S3150801619080535A664AF6CD3304460F4980204E6C21
S315080161A00B64FFF7CFFE0B6A23F00F030F2C94BF86
S315080161B0234343F00F030B62F30744BF074B0B64FA
S315080161C0002DA2BF4FF00042054B5A6635F0CBFDB4
S315080161D070BD00BF00800050004009503254FFFFD7
S315080161E000A000504FF00042104B70B55D6E03F5EC
S315080161F080535A664AF6CD3304460D4980204E6CC3
S315080162000B64FFF79FFE0B6A23F4F85343EA042352
S315080162100B62F30744BF074B0B64002DA2BF4FF077
S315080162200042054B5A6635F09EFD70BD0080005050
S31508016230004009503254FFFF00A00050436D0B4245
S31508016240FCD1704708B54368DA0714D58368DB07BC
S3150801625002D50369D90707D50A2350218363FFF7B6
S31508016260EDFF836C9A07FCD1012200F500535A60B1
S3150801627043689B07FCD408BD38B50C460121024684
S3150801628000F58053596004F00F0540F6FF71FFF7DA
S31508016290D5FF78218563FFF7D1FF04F00103610774
S315080162A048BF43F00203916C01F003019942FAD108
S315080162B038BD000010B5FFF7C5FF042300F580516E
S315080162C000F500520B6113610B6113610B611361D8
S315080162D00B611361202341F2020103610023C360AC
S315080162E0836041614FF4A021836183654162054959
S315080162F0C36103628362C36243630365D164036353
S3150801630010BD00BFFF3F0D0309B9FFF79BBFFFF79C
S31508016310B3BF836C5A06FCD54164836C1B06FCD556
S31508016320C06B80B270470000F8B5054614460846AA
S3150801633041B9344B9D422FD0334B9D4208BF57205C
S31508016340FEF74CFFAB68DE072ED5B0FBF4F46E689A
S31508016350013C16F0010625D028212846FFF76EFFD5
S31508016360AB6C99071AD1AB6CDA0719D4AB6C13F07D
S31508016370020F0CBF002706272846FFF763FF286987
S3150801638020F07F4040EA04642C61DEB13946284694
S31508016390BDE8F840FFF7B8BF5620D1E70527EBE778
S315080163A00927E9E73746EAE76B68AB6DAF68DB07AC
S315080163B007F0E00748BF6400402F1BD003D8DFB1C0
S315080163C0202F1BD0F8BD602F1AD0802FFAD10126B5
S315080163D004FB06F34101B1FBF3F30C4A203B02EA45
S315080163E0C30228460121FFF729FF2A63BDE8F840C1
S315080163F0FFF724BF0626EBE71026E9E70826E7E7B5
S315080164000426E5E70000015B00000A50F8FF7F005B
S31508016410436870B504460D460E691BB140F6FF7117
S31508016420FFF70CFF2046FFF745FF22696B7BA97B27
S3150801643022F087020B43134343F08003236116B30B
S315080164402A692369117823F0F8030B43117F43EA7C
S31508016450C113117943EA4113517A43EA0113D17BF6
S3150801646043EA81132361E168D2E9053021F0F0415D
S3150801647021F4702103430B43117B527B43EA8123A9
S3150801648043EAC233E360A368EA7B23F003031343B9
S3150801649043F00103A3602EB32A69A168538803F464
S315080164A0C0430B43A3605179A36843EA8123A360E0
S315080164B09379D079616A1B01000203F0700300F435
S315080164C0E06021F4772121F4EE6103430B43117A4D
S315080164D0527F090301F4E04112040B4302F47022CE
S315080164E01343636263692A7B23F00F0313436361D2
S315080164F0B6B12B695A89A2615A7B3AB11D4A9442AF
S3150801650024D19A7B1C4902F00F024A67DA7B3AB119
S31508016510184A944224D11B7C174A03F00F031367C8
S31508016520D5E901122046FFF7FFFE05212046FFF7B0
S31508016530A3FE2821FFF782FE2B78A363FFF77EFED1
S31508016540A36CDB4313F4405FFAD170BD0B4A944246
S3150801655001BF9A7B084902F00F02C1F88020D5E7EE
S31508016560064A944201BF1B7CA2F5CE2203F00F0313
S31508016570D367D5E70000015B0090035000000A507D
S3150801658070B5054614460E46FFF7BEFC296881EA32
S31508016590040202EA06044C402C60BDE87040FFF78D
S315080165A0B7BC0000072AF7B501F0030614461F46D3
S315080165B04FF003012CD89500A94000FA05F21C48B2
S315080165C00191FFF7DDFF01991A4806FA05F2FFF76F
S315080165D0D7FF194B19499DF82000002F08BF194606
S315080165E0012303FA04F40C60154B1649002808BF69
S315080165F00B461C60144B9DF82400C3F82044103147
S31508016600A3F6DC33002808BF0B461C6003B0F0BDB7
S31508016610A2F10805AD00A94000FA05F20B4801915F
S31508016620FFF7AEFF01990A4806FA05F2CFE700BF60
S3150801663000C4035008C4035010E4035010D4035097
S3150801664014D4035014E4035000E0035004C4035067
S315080166500CC403502DE9F04105460F461E469046E7
S315080166604AB101233022194C8B4002FB00443EB348
S3150801667004F5825423600F21072F05EB450388BFD4
S31508016680A7F108044FEA0313114895BFBC00A400FB
S3150801669004330C3308FA04F2A1401844FFF770FFDB
S315080166A0B8F1000F0AD101213020084A01FA07F78B
S315080166B000FB05223EB102F582521760BDE8F08162
S315080166C004F50154D6E702F50152F6E700C0035076
S315080166D030C003504FF48032054B9A6641F6713249
S315080166E003F51C33DA63012203F50053DA607047B8
S315080166F00090005041F671320121064BDA6303F529
S315080167000052D1600022DA634FF48032A3F51833C0
S315080167109A66704700000350436813B94160704791
S315080167205B685A68012AFBD159607047836813B9B7
S31508016730816070475B685A68012AFBD159607047C6
S31508016740C369032B9FBF00EB83020133D160C36189
S315080167507047C369042B15D84FF09842116CC902CA
S31508016760FCD504339B0013650168103B1160416831
S315080167700C30116050F8041C034411604FF0984224
S31508016780984200D1704750F8041B1160F8E70000E1
S315080167904FF48032064B5A6603F5E6239B69C3F329
S315080167A08512827003F03F021B0B4270037070471B
S315080167B00090005040F6B732064B5B689BB2934295
S315080167C09FBF4FF47A72B3FBF2F3034AD05C88BFDA
S315080167D0002070470080E00FF878050870B5054677
S315080167E016461C4621B94FF42070FEF7F7FC014600
S315080167F0402C1BD003D8DCB1202C1BD070BD602CDB
S31508016800FCD1042303FB06F2560806EB4113B3FB3E
S31508016810F2F3094A203B02EAC303AA6822F060029E
S31508016820AA60AA681443AC60EB61E7E70623E9E7C7
S315080168301023E7E70823E5E7F8FF7F00012200F5C3
S3150801684080535A60CB43934003F00A034361416185
S3150801685011B900F50050426070470000012100F5AA
S31508016860805310B5596040F6AA6341F205024361A7
S315080168700023094C8360C365C26000F500520361B9
S31508016880C361C3649464054C8365A04204BF036570
S315080168904365516010BD00BFFFFF010000C00550F0
S315080168A070B50D46FFF7DAFF012300F580567360D0
S315080168B0AB7C04461BB1836843F080438360EB7C61
S315080168C05BB1244B9C4202BF2A7DA3F51033C3F862
S315080168D0C821E36D43F08003E3652A8A6B7B204672
S315080168E01343EA891343E3602B7BD5E90112FFF7CA
S315080168F075FF6B7D1BB1A36843F48033A360AB7D41
S315080169001BB1A36843F40043A360EB7D2A7E1B07F2
S31508016910120502F4E00203F0E0431343A3656B7E1C
S315080169209A1E012A4FF0020209D80B49032BC1F816
S31508016930202709D10423F3652B78636170BD0749C4
S31508016940012BC1F82027F4E7042204F50053DA6580
S31508016950F2E700BF00C0055000D0035000E0035025
S3150801696083691B06FCD5406AC0B2704783695B061A
S31508016970FCD5C16370470000054B9A689107FCD4A2
S315080169805A689207F9D4DA69002AF6D1704700BF26
S3150801699000800A5008B5FFF7EFFF0122024B03F505
S315080169A080514A601A6108BD00800A50074B5A682F
S315080169B0012A0AD15A68D20702D5DA69002AF9D119
S315080169C002221A610122024B5A60704700800A505E
S315080169D000A00A5010B5064CFFF7CEFF6368012BDD
S315080169E003D1FFF7E3FFFFF7C7FF0378E36010BDA5
S315080169F000800A50E8B94A680B7812B1127843EA5E
S31508016A00C2034A78002A14BF0222002213438A6865
S31508016A1012B1127843EA82138A78002A14BF042233
S31508016A2000221343CA6812B1127843EA4223014A83
S31508016A309364704700800A5008B9014B596470473E
S31508016A4000900A5008B9014B5964704700A00A50D2
S31508016A5008B9014B1964704700A00A5010B9024BD6
S31508016A60186C70470020704700800A5048B911B168
S31508016A70012903D07047044BD86C7047024B186D37
S31508016A8070470020704700BF00800A5040B911B115
S31508016A90012903D07047034BDA647047014B1A6525
S31508016AA0704700BF00800A5038B50446054D35F0D9
S31508016AB080F90FCC0FC594E8030085E80300002090
S31508016AC038BD00BFD82A002047F6FF739A42F0B5B1
S31508016AD063D0022963D8334BCF0003EBC10013F807
S31508016AE031108478012913D10025C3781B1B9D42D7
S31508016AF002D3E018C0B2F0BD591B4668A3EB510199
S31508016B0036F911609642D4BF0D4601F1FF33EEE71F
S31508016B1040680028EFD0B0F90010914204DBB0F9C3
S31508016B2002109142B8BF114682883B44FF2A19BF19
S31508016B30C8222826B0F90620B0F90860A2EB01029E
S31508016B400CBF0125002592FBF6F25F782A447B1ECD
S31508016B50934228BF13464FF47A7E00EBC305AE680D
S31508016B60EA88AC4611FB02621E4622EAE27201334A
S31508016B7002F5FA729F42B2FBFEF204D9BCF80CC0C8
S31508016B8008359445EBD200EBC6008088904228BFB1
S31508016B901046A04238BF2046ACE7FF20ABE70020ED
S31508016BA0A9E700BFD82A00200229F0B553D82B48F7
S31508016BB000EBC10410F83110636801290FD1E078A0
S31508016BC0A478904294BFC4EB0001C4EB0201001BF8
S31508016BD0CAB28242C8BF002233F91200F0BD002BA7
S31508016BE039D0A178914202D3B3F90200F6E7E178E8
S31508016BF0B3F900009142F1D999886478A1F1FF06A9
S31508016C00013C714203F10405E4B2714103F10C0739
S31508016C101FFA82FCCEB2B44216D805EBC1014FF475
S31508016C207A756A43B1F902404968521A04EBD4717C
S31508016C3002EB610292FBF4F29042CFDBB3F9020058
S31508016C409042CBDC10B2C9E737F831E04E1CE64575
S31508016C50E3D33146DEE70248C0E700BFD82A002061
S31508016C600080FFFF0148FFF71FBF00BFFC7805083A
S31508016C7000487047F81A00207FB50222084B0949D7
S31508016C80CDE901234FF00073CDE90313072301A9C9
S31508016C904FF0FF30059335F00DF907B05DF804FBA9
S31508016CA0006A18000002060007B5094B18689A8899
S31508016CB09B7900906846ADF804208DF80630FFF7F9
S31508016CC029FA0C20FFF75EFA002003B05DF804FBF1
S31508016CD07879050813B50024064A6846536F43F0C8
S31508016CE00103536700948DF80440FFF76FF92046B6
S31508016CF002B010BD0040005030B58BB06C46154D42
S31508016D000FCD0FC40FCD0FC495E8030084E8030027
S31508016D10114BD3F84C21120314D4D3F85041E4B2E1
S31508016D208DF81940FEF78EFD204480F308008DF892
S31508016D3018000A48FDF7B2FC6846FEF7C7FC0020B2
S31508016D400BB030BD064B1C884FF6FF739C4208BF3B
S31508016D508C24E5E7807905080080E00FC017530207
S31508016D600001E00F08B50120FEF7B6FD002008BDB9
S31508016D7030B5094D87B001AC0FCD0FC42B6801A8FA
S31508016D8023603F238DF80530FEF762FD6420FEF788
S31508016D909DFD002007B030BDA87905086FF00402F3
S31508016DA0502110B50A480B4C12F0800FD3B21BBF05
S31508016DB003F00F03043BA3181B1802F101020CBFD1
S31508016DC083F8001319764C2AEED1002010BD00BFB6
S31508016DD000ED00E000E100E000F078B838B501F018
S31508016DE055FA0446E0B901F0A9FB4FF4167343437B
S31508016DF00C4803F5742303F23F23B3FBF0F30A4A65
S31508016E000A4913600A220D680948013A12F0FF027D
S31508016E1040F8043BF9D103EBC3022B4413440B603E
S31508016E20204638BD40420F002C2B0020F82A0020AE
S31508016E30FC2A0020012208B5034B1A7001F058FB01
S31508016E40024B186008BD00BFF42A0020282B002039
S31508016E50F8B5144C237823B301F04AFB124B134DB2
S31508016E601B68134EC01A012838BF0120114B124F57
S31508016E7018602B7856F8232046F82300111A3A6829
S31508016E800E48521A0A213A600932B2FBF1F201336D
S31508016E90DBB20260B3FBF1F201FB12332B70002364
S31508016EA02370F8BDF42A0020282B0020242B00206B
S31508016EB0FC2A0020F02A0020F82A00202C2B00208A
S31508016EC0014B1868704700BF2C2B002020234FF474
S31508016ED08012094981F82C33084B5A66084B094A2E
S31508016EE003F50050426702674FF48050C1F88401E8
S31508016EF0486003445A67704700E100E0009000507B
S31508016F000040005A010000A0044B9A6DD20702D432
S31508016F100028FAD170470120704700BF0040005A87
S31508016F200C4B10B51C6FE20707D5012203F5005378
S31508016F301A67FFF78DFF00F067FF14F000521CBFB8
S31508016F40054B1A67002CBEBF4FF00042024B1A6769
S31508016F5010BD00BF0040005A0060005AFFF7E0BFAD
S31508016F6010B50446FEF7D0FF024B1C60FEF7D0FFB2
S31508016F70002010BD302B002010B5FEF7C5FF034BCE
S31508016F801C68FEF7C5FF204610BD00BF302B002048
S31508016F9007B530B9CDE90012FFF7EEFFDDE90012BA
S31508016FA030B1436823B1006803B05DF804EB1847B4
S31508016FB0232003B05DF804FB30B51C4685B058B9EB
S31508016FC0CDE90012FFF7D8FFDDE9001204B903ACD9
S31508016FD020B9232005B030BD03B903AC8568002D5F
S31508016FE0F7D023460068A847F4E70EB477B507AB90
S31508016FF053F8046B05460193B0B9FFF7BDFF044684
S315080170000546304601993CF023FBAC42064602D0C0
S315080170102046FFF7A5FF002ED4BF3720002003B076
S31508017020BDE8704003B07047FFF7A6FF85420446E6
S31508017030E7D02846FFF794FFE3E700207047FEE70D
S315080170404FF4005300204B60704701207047002021
S31508017050704707B5002001AB0190FFF7ADFF019816
S31508017060002808BF4FF0FF3003B05DF804FB10B5E8
S3150801707014460020FFF78CFF204610BD034B022261
S3150801708018680023806819463CF0E2B9C81D00203B
S3150801709090F82A3001223BB190F82E30022B03D109
S315080170A080F82E20184670471346FBE780F824100F
S315080170B0704790F82400704790F82B00704700003D
S315080170C0002808DB0123420900F01F0003FA00F03B
S315080170D0014B43F82200704700E100E0002809DB74
S315080170E00122430900F01F0002FA00F0024A603348
S315080170F042F82300704700BF00E100E0F8B50446F6
S315080171000D4690F82B3081B173B990F82C60FEF7D3
S31508017110FBFE05460121304600F0A4FC2846FEF791
S31508017120F7FE012384F82B30F8BD002BFCD090F82C
S315080171302C70FEF7E9FE06462946384600F092FC11
S315080171403046FEF7E5FE84F82B50EDE770B50446A8
S315080171500568FFF711FF844202D10020FFF700FFFF
S3150801716095F92800FFF7BAFF95F92830002B0DDBB2
S3150801717001215A0903F01F0301FA03F314492032C6
S3150801718041F82230BFF34F8FBFF36F8F95F929006E
S31508017190FFF7A4FF95F92930002B0DDB01215A09C8
S315080171A003F01F0301FA03F30949203241F822309B
S315080171B0BFF34F8FBFF36F8F00232846C4E900330F
S315080171C0C4E90433A360EB68BDE87040184700BF03
S315080171D000E100E02DE9F047044616460D4690F811
S315080171E02480FEF798FE94F82A2003469AB1FEF702
S315080171F098FE94F82D90FEF787FE0746012148462A
S3150801720000F030FC3846FEF783FEFEF784FE0022C6
S31508017210034684F82A201846FEF783FE2E44B8F161
S31508017220000F23D1AE4205D1204663680121BDE88E
S31508017230F047184794F82630002BF3D020462368E8
S3150801724015F8011B98470028ECD0BDE8F08794F89B
S3150801725026305BB12B780A2B03D10D2120462368F2
S3150801726098472046236815F8011B9847AE42EED188
S31508017270DAE72DE9F7434FF00009044690461E4622
S31508017280C3F800904F1E3368434505D2FEF743FE07
S31508017290A269C2B9FEF745FE94F827305BB91123F6
S315080172A0012220460DF107018DF80730FFF792FFFD
S315080172B0012384F827303368002B0CBF1B200020DC
S315080172C003B0BDE8F083E16922698A5C07F8012FFA
S315080172D02569226A0135954208BF4D46A26925618D
S315080172E0013AA261FEF71DFEA36820469847336856
S315080172F001333360C7E708B5FFF76CFF002008BD07
S31508017300F8B51F46536806460C461546002B5BD052
S315080173109368002B5AD03022002120463BF071FF9A
S315080173206B682B4AE361AB68204623622B7B84F8A2
S315080173302430AB7B276084F8253040F20113E384BF
S31508017340069B00276360079BA360089BE3602B7875
S3150801735084F828306B7884F829301E4B34607360C2
S315080173601D4BB3601D4B33611D4B73611D4BF360A0
S315080173701D4B3362012384F82E30B2611B4AF26138
S315080173809DF8282084F82D209DF8242084F82A3099
S3150801739084F82C20697B84F82B70FFF7AFFE95F9EA
S315080173A00100FFF79BFE95F90100FFF789FE95F9A4
S315080173B00000FFF793FE95F90000FFF781FE3046BE
S315080173C0FFF7CEFD3846F8BD2220FCE72120FAE773
S315080173D0FD700108F772010873720108AD700108A2
S315080173E0B37001084D71010891700108B97001085F
S315080173F010B50446FEF78FFDA269236A9A4203D2A5
S31508017400FEF78FFD012010BDFEF78BFD0020FAE780
S3150801741037B504460D4600E000BFFEF77CFD94F83B
S31508017420253002466BB1132D07D1002384F8263087
S3150801743003B0BDE83040FEF774BD112D01D101231B
S31508017440F4E76369E1691046CD54A16963690131BD
S31508017450A161216A01338B42636104BF0023636121
S31508017460FEF75FFD042384F82E3094F825307BB1AE
S31508017470A269236A9A420BD11323012220460DF1F0
S3150801748007018DF80730FFF7A5FE002384F827309A
S3150801749003B030BD90F82A3073B5044603F0FF01F6
S315080174A0A3B9436801919847012384F82A3094F8CF
S315080174B02D60FEF729FD05460199304600F0D2FAFE
S315080174C02846FEF725FD022384F82E3002B070BD4A
S315080174D0026BD36C43F00403D364704710B50446BA
S315080174E0026B93695906FCD5002394F839101A469C
S315080174F094F83800FFF7AEF8002394F83B101A46C3
