S00F0000546167426F6172642E733337E1
S315080120000012002069470108674701086747010868
S31508012010F17E010867470108674701086747010814
S3150801202067470108674701086747010867470108C5
S3150801203067470108B87E0508A52901086747010809
S3150801204067470108674701086747010867470108A5
S315080120506747010867470108674701086747010895
S3150801206067470108292C0108352C0108674701082B
S315080120706747010867470108674701086747010875
S315080120806747010867470108674701086747010865
S315080120906747010867470108674701086747010855
S315080120A0674701082D4E0108094E010867470108CF
S315080120B067470108353B05082D450508E544050828
S315080120C0E1440508013D050829450508E9440508CF
S315080120D001450508ED4405088D4505086D450508C2
S315080120E06747010867470108674701086747010805
S315080120F06D750108674701086747010867470108C1
S3150801210067470108674701086747010867470108E4
S3150801211067470108674701086747010867470108D4
S3150801212067470108674701086747010867470108C4
S3150801213067470108674701086747010867470108B4
S315080121406747010867470108674701083F8F010884
S315080121502D230508674701082D08050833080508D2
S315080121606747010867470108674701086747010884
S3150801217010B5054C237833B9044B13B1044800E074
S3150801218000BF0123237010BDE018002000000000E5
S3150801219078E3050808B5034B1BB10349034800E07A
S315080121A000BF08BD00000000E418002078E3050818
S315080121B0A3F5803A704700BF174B002B08BF134B96
S315080121C09D46FFF7F5FF00218B460F461348144A33
S315080121D0121A42F07EFC0E4B002B00D098470D4B8D
S315080121E0002B00D098470020002104000D000D485F
S315080121F0002802D00C4800E000BF42F0FFFB200097
S31508012200290000F0C3FB42F0E5FB00BF000008000F
S31508012210000000000000000000120020E018002065
S31508012220103F0020000000000000000010B502F079
S31508012230F5F802F0F4F8BDE810400348B423034A60
S315080122400349006805F0D9B9481A0020316605081E
S31508012250E464050810B502F0E1F802F0E0F8BDE81B
S31508012260104003488223034A0349006805F0C5B9AB
S31508012270481A002020660508E464050810B502F02E
S31508012280CDF802F0CCF8BDE810400348A223034A72
S315080122900349006805F0B1B9481A00200E66050819
S315080122A0E464050810B502F0B9F802F0B8F8BDE81B
S315080122B0104003482A23034A0349006805F09DB9DB
S315080122C0481A0020FC650508D064050810B502F017
S315080122D0A5F802F0A4F8BDE8104003486B23034AA9
S315080122E00349006805F089B9481A0020EF65050811
S315080122F0E464050810B502F091F802F090F8BDE81B
S31508012300104003486223034A0349006805F075B97A
S31508012310481A0020E2650508E4640508F7B5089C33
S31508012320064600940F4606F0CFFE054640B3154C07
S315080123301549206805F061F91449206805F05DF929
S3150801234002F06CF802F06BF8114B124A009312492D
S31508012350C423206805F051F92B46104A1049206814
S3150801236005F04BF9284602F081F80E493B463246FC
S31508012370206805F042F90449206805F03EF9FEE7B0
S3150801238003B0F0BD481A0020E8660508EC640508A4
S3150801239042660508F1640508FF6405080B6505082A
S315080123A00E650508236505082DE9F041044617461B
S315080123B01D46DFF888808AB00E4602F02FF802F033
S315080123C02EF83D23CDE90175184A1949D8F80000B8
S315080123D0009405F012F9119BB3F90430282B21D189
S315080123E0144B1A691868904702238DF81830C823C8
S315080123F0ADF81C300023CDE9023306AB2A46314637
S31508012400CDE900332046BDF8403006F02DFF059092
S3150801241002F004F802F003F8059A0749D8F8000013
S3150801242005F0EBF80AB0BDE8F08100BFD4650508F0
S3150801243077650508CC6C0508AC650508481A0020BF
S3150801244013B50E4C002141F202000D4B0D4A0094C2
S31508012450FFF764FF012141F20200094B0A4A009481
S31508012460FFF75CFF094B002100934FF49850084B86
S31508012470084AFFF753FF02B010BD00BFCD2201087D
S31508012480F5220108A9230108A52201082D22010820
S31508012490552201087D220108FFF7D2BF094B07B56E
S315080124A01B785BB9084B1A6918689047074B1A6974
S315080124B01868019203B05DF804EB104703B05DF8A4
S315080124C004FB00BF30190020CC6C0508E46C050834
S315080124D0704770477047000008B50B4802F0EEFADE
S315080124E0012805D101F046FF00F0E0FF002008BDF4
S315080124F0064802F0E3FA012804D101F03BFF00F097
S3150801250005FFF3E70120F2E79C6C0508B46C0508A2
S3150801251030B503684D4A23F47F4323F007039342FA
S315080125208FB000F0838005D8A2F5A022934213D07C
S315080125300FB030BD464A9342FAD1464A1378002B6A
S31508012540F6D0013BDBB21370002BF1D101F066FF27
S3150801255001F065FF404972E0FFF7BEFF0028E7D0AA
S3150801256021F096FF3D4C054678B103461E213C4AAB
S3150801257006A842F089FC01F051FF01F050FF2A46F6
S315080125803849206805F039F8D2E702A821F09EFFFC
S31508012590054628B33449206805F02FF833492068E1
S315080125A005F02BF801F03AFF01F039FF304B314ABB
S315080125B0314900932068FD2305F01FF82B462F4A61
S315080125C02F49206805F019F8284601F04FFF2D49D3
S315080125D0206805F012F82449206805F00EF8FEE790
S315080125E09DF817301421284A009306A89DF816303D
S315080125F042F04AFC01F012FF01F011FF234906AA35
S31508012600206804F0FAFF06A842F072FC2946024641
S3150801261006AB0B201BF092FD0546002888D001F079
S31508012620FDFE01F0FCFE2A461949AAE7094A137874
S315080126300133137001F0F2FE01F0F1FE1549074B63
S3150801264018680FB0BDE8304004F0D7BFA0000600F7
S31508012650A00006013119002032670508481A002032
S315080126606266050876660508E8660508EC640508E5
S315080126704468050895660508FF6405080B6505089D
S315080126800E6505089E660508C4660508D66605082A
S31508012690EA66050826670508036837B523F47F4304
S315080126A01F4A23F00703934208D002F1807293422E
S315080126B034D103B0BDE83040FFF7EEBE0379002BF5
S315080126C0F7D1032021F0F0FE054638B3154C16491B
S315080126D0206804F092FF1549206804F08EFF01F086
S315080126E09DFE01F09CFE124B124A13490093206885
S315080126F040F2111304F081FF2B46104A1049206855
S3150801270004F07BFF284601F0B1FE0E49206804F06B
S3150801271074FF0549206804F070FFFEE703B030BD79
S31508012720A8001400481A0020E8660508EC640508A4
S315080127302668050895660508FF6405080B650508FA
S315080127400E65050841670508012337B50446009358
S31508012750FA210023194A1A4801F0BEFC054638B386
S31508012760184C1949206804F048FF1849206804F0F4
S3150801277044FF01F053FE01F052FE154B154A009332
S3150801278015494FF4C773206804F037FF2B46134ADF
S315080127901349206804F031FF284601F067FE114904
S315080127A0206804F02AFF0849206804F026FFFEE79E
S315080127B0204603B0BDE8304000F072B89D240108F8
S315080127C0FC180020481A0020E8660508EC6405088C
S315080127D0FF67050895660508FF6405080B65050882
S315080127E00E6505087C67050873B504461F480E463D
S315080127F001F058FC054638B31D4C1E49206804F003
S31508012800FCFE1D49206804F0F8FE01F007FE01F000
S3150801281006FE1A4B1A4A00931A494FF4D1732068D7
S3150801282004F0EBFE2B46184A1849206804F0E5FE29
S31508012830284601F01BFE1649206804F0DEFE0D4904
S31508012840206804F0DAFEFEE70122124B1A70124BD9
S31508012850DA6818689047114B1868DA689047314664
S31508012860204602B0BDE8704000F02EB8FC180020E2
S31508012870481A0020E8660508EC640508E1670508BA
S3150801288095660508FF6405080B6505080E650508C4
S31508012890AF67050830190020CC6C0508E46C0508FB
S315080128A007B5019001F0BAFD01F0B9FD044B019A93
S315080128B00449186803B05DF804EB04F09EBE00BF36
S315080128C0481A00205668050807B50190009101F0DD
S315080128D0A5FD01F0A4FDDDE90032044804490068BC
S315080128E003B05DF804EB04F088BE00BF481A002067
S315080128F08E68050808B50346084611461BB1BDE8AA
S315080129000840FFF7E1BF01F089FD01F088FD034B9F
S3150801291003491868BDE8084004F06FBE481A00204C
S31508012920CF68050807B5019001F078FD01F077FD3C
S31508012930044B019A0449186803B05DF804EB04F0E6
S315080129405CBE00BF481A00201369050808B501F0E6
S3150801295065FD01F064FD034B03491868BDE80840AD
S3150801296004F04BBE481A00204769050808B501F06E
S3150801297055FD01F054FD034B03491868BDE80840AD
S3150801298004F03BBE481A00205769050808B506F049
S31508012990F3FAFFF79DFD06F0FCFAFFF79AFD05F03D
S315080129A029FCF8E70DF004BE06F038BB10B504465D
S315080129B001F05AFA204620F085F82046FFF7A8FDCF
S315080129C010BD0120704700B5C3B00DF013FD0DF021
S315080129D03CFD48B1FFF7F5FF30B101A81BF089FBB3
S315080129E010B901A8FFF7E2FF43B05DF804FB704791
S315080129F008B5034820F0B0FABDE8084000F0FCBD70
S31508012A00FC6B050810B5044600F08AF9204600F06B
S31508012A101DFF204600F0F4FD204600F0F1FC20469B
S31508012A2001F040F82046FFF737FE10BD0120704738
S31508012A3000B5C3B020F098FA48B1FFF7F7FF30B1F7
S31508012A4001A821F0D7FB10B901A8FFF7DBFF43B0B6
S31508012A505DF804FB08B50321802003F059F9032129
S31508012A604FF4806003F054F909214FF4C06003F074
S31508012A704FF909214FF4F06003F04AF909213E2084
S31508012A8003F046F909212D2003F042F909215120C5
S31508012A9003F03EF9002008BD08B504F087FC01F0F3
S31508012AA037FD04F009FC04F09FFC04F02DFC04F04A
S31508012AB061FC04F065FCFFF7CDFF04F013FC01F09F
S31508012AC019FD01F055FF02F0C3F9BDE8084005F00C
S31508012AD0A1BA08B502F042F900F03EF800F004F98F
S31508012AE0BDE8084000F00EB908B501F0DFFC05F0B5
S31508012AF0D7FE04F07BFC04F0C9FD0AF02BFE05F0B5
S31508012B0045F908F01BFC0BF02BF8BDE8084000F06E
S31508012B107DB808B504F0AEFB04F0B6FBFFF744FF39
S31508012B20BDE80840FFF764BF08B501F0B9FBBDE889
S31508012B30084001F075BC704708B501F005FCBDE811
S31508012B40084001F075BB08B5FFF73DFFBDE8084031
S31508012B50FFF76EBF7047000008B53A20012102F061
S31508012B6073FCBDE80840014801F0FABF5412002081
S31508012B7070B5144E92B035460BAC0FCD0FC495E81F
S31508012B8007000023CDE908330A93292384E80700BF
S31508012B900D4A02ACCDE9062305238DF8213006231B
S31508012BA08DF8233006F11C030FCB84E80F00074B81
S31508012BB0214600930BAA06AB054804F0E5FF12B0BF
S31508012BC070BD00BF706C050800C00550341900209F
S31508012BD0A0190020831E012B0AD8012908D804222E
S31508012BE0094B1B6CC3F340130521002003F084BE77
S31508012BF00239012907D8012805D8034B00221B6C85
S31508012C00C3F34013F0E7704700C0035008B5044901
S31508012C10044805F0CDFABDE80840FFF7A9BF00BF93
S31508012C206C12002078190020014B186805F072B85B
S31508012C30A0190020FFF7F8BF014B1A6A1868104758
S31508012C40A0190020012070470120704710B501F036
S31508012C50A1FB04460DF03AFC002808BF002401F048
S31508012C6017FB002808BF0024FFF7ECFF002814BF54
S31508012C702046002010BD38B505F0BEFB044601F01C
S31508012C8099FB042825D002284FF0000508BF012426
S31508012C900DF02AFC04281ED0022808BF0124FFF7DC
S31508012CA0CBFF042819D0022808BF012401F0E6FA4F
S31508012CB0042814D0022808BF0124FFF7C5FF0428F9
S31508012CC00FD0022808BF0124002D18BF0024204672
S31508012CD038BD0125DCE70125E1E70125E6E7012500
S31508012CE0EBE70024F3E7000008B5044801F08CFE81
S31508012CF0BDE80840024801F087BE00BF9C6C050884
S31508012D00B46C050808B5044801F0B0FFBDE80840F1
S31508012D10024801F0ABBF00BFCC6C0508E46C05089E
S31508012D2037B5044610B30368B14A23F47F4323F049
S31508012D300703934200F0748200F2A180AD4A9342E0
S31508012D4000F0A4814AD8AC4A934200F018821FD8F1
S31508012D50A2F54022934200F0348209D8A74A934249
S31508012D6000F03A81A64A934200F0998103B030BD3A
S31508012D70A44A934200F04E8202F580229342F5D18D
S31508012D8001F04CFB01F04BFBE388A2889E4912E156
S31508012D909E4A934200F04A820ED8A2F5A022934297
S31508012DA000F0B68102F580329342DFD101F036FB9D
S31508012DB001F035FB964914E1964A934200F0548294
S31508012DC002F540329342D1D101F028FB01F027FBED
S31508012DD0238991490093A38962894DE08F4A9342D9
S31508012DE000F09C8123D8A2F51412934200F0D981F0
S31508012DF00ED8A2F57022934200F05D8102F5802279
S31508012E009342B3D101F00AFB01F009FB8449E8E0DA
S31508012E10844A934200F0BB8102F50C129342A5D174
S31508012E2001F0FCFA01F0FBFA22897F4934E17F4A75
S31508012E30934200F0DD8110D8A2F58022934200F07A
S31508012E40FC8102F54032934290D101F0E7FA01F094
S31508012E50E6FA638922897649ADE0764A934285D1B5
S31508012E6001F0DCFA01F0DBFAB4F809307249009393
S31508012E70B4F80730B4F80520704800687AE1704A5A
S31508012E80934200F0A4814CD8A2F57F02934200F048
S31508012E90B98126D8A2F51022934200F045810FD8B0
S31508012EA0A2F51412934200F0848102F5101293429E
S31508012EB07FF45CAF01F0B2FA01F0B1FA614990E032
S31508012EC0614A934200F0C08102F5403293427FF491
S31508012ED04DAF01F0A3FA01F0A2FA638922895B4991
S31508012EE069E05B4A934200F025810FD8A2F550129A
S31508012EF0934200F0258102F54C1293427FF436AFD6
S31508012F0001F08CFA01F08BFA52496AE0524A93426F
S31508012F107FF42CAF01F082FA01F081FA227B4F4946
S31508012F20BAE04F4A934200F0C08028D802F17E42A7
S31508012F3002F55412934200F0CB800FD8A2F5003265
S31508012F40934200F0DF8002F5803293427FF40EAFA0
S31508012F5001F064FA01F063FA424942E0424A9342B7
S31508012F6000F07B8102F5403293427FF4FFAE01F017
S31508012F7055FA01F054FAD4F806203C498CE03C4A4B
S31508012F80934200F0E4801DD802F17E42934200F09C
S31508012F90988002F1807293427FF4E8AE01F03EFA1E
S31508012FA001F03DFA33492079334AB4F8053000284F
S31508012FB018BF0A4631492148006803B0BDE83040C8
S31508012FC004F01BBB2E4A93427FF4D0AE01F026FAD9
S31508012FD001F025FA2B4904E001F020FA01F01FFA65
S31508012FE02949164B186803B0BDE8304004F005BB03
S31508012FF0A8001F02A0000601A8002400A0000600E0
S31508013000A8001400A8001F0028720508A8004D0092
S31508013010A16E0508A8004E0041740508A8004801DC
S31508013020CD720508A8002401EF6E0508A800510114
S31508013030EE720508A0000602966D0508481A0020DA
S31508013040A8005003236F0508A8004D023A73050826
S31508013050A80048034F6F0508A8004D0368760508C0
S31508013060A800140669700508A8004D040674050829
S31508013070A80014096C6D0508646D05080671050834
S31508013080A800140AFC6D0508786D050801F0C6F953
S3150801309001F0C5F9A2887849784B18682BE001F048
S315080130A0BDF901F0BCF976499BE701F0B7F901F0E2
S315080130B0B6F9744995E701F0B1F901F0B0F9724929
S315080130C08FE701F0ABF901F0AAF9A2886F49E3E7A6
S315080130D001F0A4F901F0A3F9684B1868A38803F471
S315080130E04042B2F5404F0BD013F4805F684B694AF2
S315080130F018BF1A46684903B0BDE8304004F07DBAE6
S31508013100664AF7E701F08AF901F089F9644968E73F
S3150801311001F084F901F083F9624962E701F07EF969
S3150801312001F07DF960495CE701F078F901F077F97A
S315080131305E4956E701F072F901F071F95C4950E709
S3150801314001F06CF901F06BF9E2885A49A4E70579AF
S3150801315001F064F901F063F9484BB4F807201868DF
S31508013160B4F809304DB15449544C012D18BF2146C4
S315080131700091534904F041FAF8E55249F8E701F09C
S315080131804DF901F04CF9E388A2884F4913E701F09C
S3150801319045F901F044F923894C490093E388A2884B
S315080131A06AE601F03BF901F03AF9E388A288484951
S315080131B001E701F033F901F032F9E388A2884549BC
S315080131C0F9E601F02BF901F02AF9434909E701F07B
S315080131D025F901F024F9D4F80E30284801932389FA
S315080131E03E490093A3896289006804F006FABDE5A1
S315080131F001F014F901F013F9238939490093A389D8
S31508013200628939E601F00AF901F009F9D4F80620CC
S31508013210344941E701F002F901F001F93249E0E6E2
S3150801322001F0FCF801F0FBF83049DAE601F0F6F8AE
S3150801323001F0F5F8227B2E492EE701F0EFF801F0AF
S31508013240EEF8227B2B4927E701F0E8F801F0E7F8C9
S31508013250D4F80D30227B2849ADE601F0DFF801F0FC
S31508013260DEF8E268254917E701F0D8F801F0D7F842
S31508013270A289234910E700BFDD6D0508481A002019
S31508013280126E05082E6E0508536E0508746E05083C
S31508013290186D05080E6D0508CC6E0508FC6C050849
S315080132A07B6F05089C6F0508CF6F05080270050836
S315080132B0367005089C7005083B6D0508526D0508B2
S315080132C0C1700508226D0508407105088D7105084C
S315080132D0E87105086B720508AF7205088F73050852
S315080132E0A274050804750508457505087A75050863
S315080132F0AD750508E475050817760508A976050864
S31508013300F376050800201AF05DBF000037B521F0F5
S31508013310FBF8044630B32E4D2E49286804F06DF9A2
S315080133202D49286804F069F901F078F801F077F871
S315080133302A4B2B4A00932B494923286804F05DF947
S315080133402346294A2949286804F057F9204601F0F5
S315080133508DF82749286804F050F91E49286804F0B1
S315080133604CF9FEE7FFF702FB23464FF4FA61214ABF
S315080133702148009400F0B0FE054630B3144C1549B7
S31508013380206804F03AF91449206804F036F901F086
S3150801339045F801F044F8114B114A00931149542399
S315080133A0206804F02AF92B460F4A1049206804F0D0
S315080133B024F9284601F05AF81049206804F01DF945
S315080133C00449206804F019F9FEE703B030BD00BFCF
S315080133D0481A0020E8660508EC6405087B780508A4
S315080133E041770508FF6405080B6505080E6505089C
S315080133F0B677050805330108C4190020DE770508E4
S31508013400036837B523F47F431C4A23F00703934225
S3150801341032D1FFF7ABFA00234FF4FA61184A19487B
S31508013420009300F059FE054630B3174C174920683A
S3150801343004F0E3F81649206804F0DFF800F0EEFF1F
S3150801344000F0EDFF134B144A1449009320688423B6
S3150801345004F0D3F82B46124A1249206804F0CDF835
S31508013460284601F003F81049206804F0C6F8074910
S31508013470206804F0C2F8FEE703B030BDA800140ABC
S3150801348005330108C4190020481A0020E866050812
S31508013490EC6405083C78050841770508FF640508CA
S315080134A00B6505080E650508DE77050837B521F0B1
S315080134B02BF8054630B3434C4349206804F09DF880
S315080134C04249206804F099F800F0A8FF00F0A7FF28
S315080134D03F4B404A009340496023206804F08DF829
S315080134E02B463E4A3E49206804F087F8284600F0F4
S315080134F0BDFF3C49206804F080F83349206804F090
S315080135007CF8FEE71AF00EFE044630B32D4D2E491F
S31508013510286804F072F82D49286804F06EF800F05E
S315080135207DFF00F07CFF2A4B2A4A00932A49632330
S31508013530286804F062F82346284A2949286804F0CD
S315080135405CF8204600F092FF2749286804F055F8F0
S315080135501D49286804F051F8FEE7FFF7F7F92346F5
S315080135604FF4FA61214A2248009400F0B5FD054658
S3150801357030B3144C1449206804F03FF81349206805
S3150801358004F03BF800F04AFF00F049FF104B114ADE
S31508013590009311496E23206804F02FF82B460F4A31
S315080135A00F49206804F029F8284600F05FFF114901
S315080135B0206804F022F80449206804F01EF8FEE7A2
S315080135C003B030BD481A0020E8660508EC64050812
S315080135D05D78050841770508FF6405080B65050848
S315080135E00E650508B6770508157805080533010837
S315080135F0C4190020DE7705080321002005F050BD17
S3150801360037B501687D4C21F47F4323F00703A342B4
S31508013610024600F0ED8004D8794A93420FD003B0F0
S3150801362030BD7848834204D0774B0B4077498B42AB
S31508013630F5D1104603B0BDE8304005F06BBD20F06A
S3150801364021FE054630B3724C7249206803F0D5FF56
S315080136507149206803F0D1FF00F0E0FE00F0DFFEBB
S315080136606E4B6F4A00936F495423206803F0C5FFD8
S315080136702B466D4A6D49206803F0BFFF284600F0C6
S31508013680F5FE6B49206803F0B8FF6249206803F02C
S31508013690B4FFFEE720F0EAFD054630B35C4C5D4910
S315080136A0206803F0AAFF5C49206803F0A6FF00F032
S315080136B0B5FE00F0B4FE594B594A009359495C23AB
S315080136C0206803F09AFF2B46574A5849206803F0A9
S315080136D094FF284600F0CAFE5649206803F08DFF7C
S315080136E04C49206803F089FFFEE720F0B3FD054643
S315080136F030B3474C4749206803F07FFF46492068A5
S3150801370003F07BFF00F08AFE00F089FE434B444A32
S31508013710009344497123206803F06FFF2B46424A00
S315080137204249206803F069FF284600F09FFE424996
S31508013730206803F062FF3749206803F05EFFFEE761
S3150801374020F0B8FD054630B3314C3249206803F004
S3150801375054FF3149206803F050FF00F05FFE00F086
S315080137605EFE2E4B2E4A00932E497D23206803F0D8
S3150801377044FF2B462C4A2D49206803F03EFF284674
S3150801378000F074FE2D49206803F037FF21492068AF
S3150801379003F033FFFEE720F081FD054600283FF4DC
S315080137A03EAF1B4C1B49206803F027FF1A492068C6
S315080137B003F023FF00F032FE00F031FE174B184AE2
S315080137C000931849A423206803F017FF2B46164ACD
S315080137D01649206803F011FF284600F047FE1849EC
S315080137E0206803F00AFF0B49206803F006FFFEE78D
S315080137F003B0BDE8304005F001BD00BFA8001E00BA
S31508013800A8001400A8001F02F800FFFEA8001F0068
S31508013810481A0020E8660508EC6405080A7A0508CE
S3150801382099780508FF6405080B6505080E650508FE
S315080138300C7905083B7905086B790508A37905080C
S31508013840D279050800201AF0BDBC000037B580B151
S315080138500368344A23F47F4323F00703934257D07E
S3150801386009D802F17A42934247D002F18072934213
S3150801387052D003B030BD2C4A9342FAD12B4C8088E2
S31508013880FFF750F800F0CAFD00F0C9FD4FF4FA62DF
S315080138902749206803F0B1FE00234FF4FA61254A4F
S315080138A02548009300F018FC05460028E1D0234975
S315080138B0206803F0A2FE2249206803F09EFE00F06C
S315080138C0ADFD00F0ACFD1F4B1F4A2049009320684F
S315080138D0BB2303F092FE2B461D4A1E49206803F0BE
S315080138E08CFE284600F0C2FD1B49206803F085FEC0
S315080138F01249206803F081FEFEE70379D0F8072014
S31508013900B0F80510181E18BF0120FEF7F3FFB0E73F
S315080139108088FEF719FFACE7D0F806108088FEF715
S3150801392063FFA6E7A8001406A8001407481A002092
S315080139302A7A050845380108F8190020E8660508B5
S31508013940EC640508167B0508667A0508FF64050810
S315080139500B6505080E650508ED7A0508014B188003
S31508013960704700BF92120020014B1888704700BFAC
S315080139709212002037B502210020264A05F0E7FDFC
S31508013980044680B238B3244D2449286803F035FE2D
S315080139902349286803F031FE00F040FD00F03FFDA1
S315080139A0204B214A21490093A4B2CB23286803F06E
S315080139B024FE23461E4A1F49286803F01EFE204698
S315080139C000F054FD1C49286803F017FE13492868BE
S315080139D003F013FEFEE7FFF7C1FF00F0D5FAB8B111
S315080139E0022000F0FBFC0C4C58B11449206803F086
S315080139F004FE00F013FD00F012FD1149206803F0E2
S31508013A00FCFD0649206803B0BDE8304003F0F5BD6A
S31508013A1003B030BD0A7D0508481A0020E866050886
S31508013A20EC640508E87C0508447B0508FF6405087D
S31508013A309D7C05080E650508B97B0508DE7B05082A
S31508013A40E37B050870470000002313B5694601A802
S31508013A50CDE9003300F0E4FA78B94FF47A70009CA6
S31508013A60640004F2F31494FBF0F4009464B2204663
S31508013A70FFF7E8FF204602B010BD11280AD000F072
S31508013A80CDFC00F0CCFCDDE90032034803490068AF
S31508013A9003F0B3FD7F24EAE7481A0020237C0508D2
S31508013AA07047000070B503689D4A23F47F4323F0ED
S31508013AB00703934204468AB000F0FF8042D8994A28
S31508013AC0934200F0AB800AD802F17F42934200F09C
S31508013AD0A18002F5501293420CD00AB070BD924AE9
S31508013AE0934200F0A08002F580329342F5D1037B20
S31508013AF09B07F2D50023CDE90133B4F80D20194609
S31508013B0000926289208920F059FC04460028E4D0F5
S31508013B10012000F063FC0028DFD0844D8449286821
S31508013B2003F06BFD00F07AFC00F079FC814A23462C
S31508013B308149286803F061FD204600F097FC7F4A19
S31508013B407F49E6E07F4A934238D02FD802F17F4277
S31508013B50934200F0508102F57F029342BDD10023C2
S31508013B60CDE90133B0F80D20194600924289008942
S31508013B7020F002FC04460028AFD0012000F02EFCFC
S31508013B800028AAD0694D6A49286803F036FD00F075
S31508013B9045FC00F044FC674A23466749286803F058
S31508013BA02CFD204600F062FC674AB1E0674A934261
S31508013BB000F0D48002F5803293428ED10023CDE9FC
S31508013BC00233B4F80F2019460192B4F80D20009279
S31508013BD06289208920F036FC044600283FF47DAF2F
S31508013BE0012000F0FBFB00283FF477AF4F4D504909
S31508013BF0286803F002FD00F011FC00F010FC4D4AA4
S31508013C0023464D49286803F0F8FC204600F02EFCAF
S31508013C104F4A95E70379002B3FF45FAF0AB0BDE839
S31508013C207040FFF7A7BEB0F80D3006AE4C2B00D09A
S31508013C309BBBFFF799FEADF81600FFF731FF31463A
S31508013C404C200DF1160205F03AFB0546B4F80D3085
S31508013C504F2B00D05BB9FFF7F7FE71198DF81600E7
S31508013C600DF116024F2005F02AFB0544EDB2208915
S31508013C706289A5B10023CDE90056194620F03CFB1F
S31508013C800446002C3FF429AF012000F0A7FB0028C9
S31508013C903FF423AF254D264997E00025D6E7B4F82A
S31508013CA00D308DF81A508DF818301B0A8DF8193019
S31508013CB00323019600932B46DFE700F110030293D5
S31508013CC0C37B0193B0F80D3000930023428919464E
S31508013CD0008920F02FFB044600283FF4FEAE0120A0
S31508013CE000F07CFB00283FF4F8AE104D1049286817
S31508013CF003F083FC00F092FB00F091FB0D4A23468A
S31508013D000D49286803F079FC204600F0AFFB114AFB
S31508013D10114928680AB0BDE8704003F06EBC00BFBF
S31508013D20A8004702A8001401A8004701481A002064
S31508013D30507C05080B6505080E650508957C050880
S31508013D40A47C0508A8004803827C0508A800470446
S31508013D50D97C0508747C0508557C0508FFF704FE1F
S31508013D6006ADADF81600FFF79BFE29460DF11602C2
S31508013D704C2005F0A4FA0446FFF766FE0DF115027C
S31508013D808DF8150029194F2005F099FA204410F0ED
S31508013D90FF003FF4A2AE0023CDE900051A461946F5
S31508013DA0184620F0A9FA40F214539842044604D062
S31508013DB040F2155398427FF464AF042000F00EFBDD
S31508013DC000283FF48AAE204D2049286803F015FCE7
S31508013DD000F024FB00F023FB23461D4A1D492868F1
S31508013DE003F00BFC204600F041FB1B4A1B492868DF
S31508013DF003F003FC71E60023CDE90133B0F80D2089
S31508013E00194600924289008920F0FAFA04460028E8
S31508013E103FF463AE012000F0E1FA00283FF45DAEFD
S31508013E20094D0F49286803F0E8FB00F0F7FA00F09E
S31508013E30F6FA074A23460749286803F0DEFB2046B7
S31508013E4000F014FB074A7BE6481A0020907C050817
S31508013E500B6505080E6505089D7C0508557C050852
S31508013E60507C0508C97C0508036837B523F47F43E8
S31508013E703A4A23F007039342044664D002F1827258
S31508013E80934268D1B0F80510212964D10122344B37
S31508013E9000791A7000221AF067F9054630B3314CD9
S31508013EA03149206803F0A9FB3049206803F0A5FBD6
S31508013EB000F0B4FA00F0B3FA2D4B2E4A00932E49BE
S31508013EC03F23206803F099FB2B462C4A2C4920688E
S31508013ED003F093FB284600F0C9FA2A49206803F043
S31508013EE08CFB2149206803F088FBFEE720791AF04C
S31508013EF007F9054600282ED01A4C1B49206803F0FD
S31508013F007CFB1A49206803F078FB00F087FA00F079
S31508013F1086FA174B174A009317494323206803F07B
S31508013F206CFB2B46154A1649206803F066FB2846A2
S31508013F3000F09CFA1349206803F05FFB0A492068E0
S31508013F4003F05BFBFEE7064B1B7823B103B0BDE824
S31508013F50304005F051B803B030BD00BFA0000601DE
S31508013F602C1A0020481A0020E8660508EC640508A2
S31508013F709F7D05081E7D0508FF6405080B65050874
S31508013F800E6505088E7D050813B5012000F060F859
S31508013F900446012000F08CFA14BB174C1749206817
S31508013FA003F02BFB1649206803F027FB00F036FACD
S31508013FB000F035FA134B144A009314493823206844
S31508013FC003F01BFB124A1349206803F016FB12493A
S31508013FD0206803F012FB0949206803F00EFBFEE78F
S31508013FE04021204600F0A9FBB0FA80F30B4A5B0991
S31508013FF0137002B010BD00BF481A0020E866050814
S31508014000EC640508687E0508BF7D0508FF64050898
S31508014010207E0508337E05084B7E05082D1A0020EB
S3150801402007B5009109490190097851B1012000F0BD
S315080140300FF8DDE90032402103B05DF804EB00F02A
S3150801404031BB112003B05DF804FB00BF2D1A002017
S315080140500346074A102B106807D8012202FA03F310
S31508014060044A134208BF002070470020704700BF6A
S315080140706812002016010100002209490B684BB19C
S31508014080834204D1436A4AB15362012070471A46F2
S315080140905B6AF4E70028F5D0184670470B60F4E729
S315080140A0301A002010B5044690B104F033FC2046BE
S315080140B0FFF7E2FF58B194F8280040B102F07DF805
S315080140C0044A1368013B136002F07DF8002010BD15
S315080140D02220FCE7341A00202DE9F04F85B0054669
S315080140E0914698460E469DF8387009B9002F64D155
S315080140F02846FFF7D7FF044600283CD185F8280053
S31508014100286304F071FD864239D904F021FD40F295
S31508014110E7318C462146E6FB00C14FF47A726046C8
S31508014120002340F0BFFA4FF0FF32002383468A4648
S3150801413040F0B8FA4FF0FF326886002358465146D8
S3150801414040F0B0FA2B46CDE9004411461C4A2846F0
S3150801415004F07BFC044670B91A4AC5E90798136846
S3150801416085F82970EE6233B31A465B6A002BFBD1D8
S31508014170556200236B62204605B0BDE8F08F3046D4
S3150801418003A957B104F012FD04460028F3D12B46C2
S31508014190CDE900000A4A0399D9E704F007FD044668
S315080141A00028E8D12B462846CDE90077044A039929
S315080141B004F028FCCEE71560DBE72124DBE700BF26
S315080141C0C9410108301A002091F8283013B50C4668
S315080141D083B90B8E4A8E93420ED243B9CDE9003389
S315080141E020460B46104A4FF0FF3104F0D5FB238ECB
S315080141F00133238602B010BD52B191F829307BB143
S3150801420001230093D1E907232046C96AFFF764FF12
S315080142100123064A84F82830136801331360E9E755
S31508014220084604F077FBF3E7C9410108341A002070
S3150801423070B5104D2B681BB100260F4B1C6804B9CD
S3150801424070BD94F8283093B101F0B7FF2B6884F854
S315080142502860013B2B6001F0B6FF94F8293013B9A9
S315080142602046FFF709FFD4E9073120469847646AD3
S31508014270E5E700BF341A0020301A0020034B1B68FB
S31508014280002B0CBF01200420704700BF341A002000
S31508014290024B1868B0FA80F040097047341A0020BA
S315080142A004210022024B19711A6019739A6070472A
S315080142B0381A00202DE9F843204B05461B78ABB97F
S315080142C04FF00208DFF87C901D4C59F8043BAB42CD
S315080142D007D1284600F09DFB01280CD104F012FCF9
S315080142E02060B8F1010F04F1080401D1BDE8F88393
S315080142F04FF00108E9E7284600F08BFB074600283E
S31508014300EFD104F0FFFB2368C61AFA2004F026FC55
S31508014310B04201D92771E4E74FF47A7004F01EFC24
S31508014320B04202D901232371DBE741F2883004F058
S3150801433015FCB0428CBF02230323F4E79412002034
S31508014340381A00208412002010B5094C2179042955
S3150801435004D00020FEF7BEF804232371217B04292B
S3150801436004D00120FEF7B6F80423237310BD00BF5D
S31508014370381A0020054B1A783AB901211970042117
S31508014380034B19711A6019739A60704794120020C9
S31508014390381A0020054B187838B9054B1A79042ABA
S315080143A003D1187B031F58425841704794120020C5
S315080143B0381A0020074B1B7843B9074B187904288C
S315080143C006D11B7B042B08BF0120704701207047CB
S315080143D00420704794120020381A00200B4B02461D
S315080143E01B788BB10A4B1B78834234BF002001200E
S315080143F0084B1B783BB1084B1B7843FA02F212F0C3
S31508014400010F08BF002070470120F1E7951200202F
S31508014410961200204C1A0020971200207047704708
S31508014420012208B5074B1A700022074B1A7004229D
S31508014430064B1A701F22064B1A7003F0A5F8054B96
S31508014440186008BD951200204C1A0020961200200B
S3150801445097120020481A0020024B0349186803F0F6
S31508014460CCB800BF481A00207B7E050870B50C4CF5
S315080144700C490646206803F0C0F803F085F805469E
S31508014480206803F075F83046FFF7E6FF284603F083
S315080144906FF820680449BDE8704003F0AEB800BF64
S315080144A0481A00207D7E05087F7E05080F20704783
S315080144B0202808B515DC032804DC0138012808D9A9
S315080144C00E200DE00123043803FA00F0084B1842C8
S315080144D0F6D0012304220921022002F00DFA002058
S315080144E008BD4028ECD1012304220821F4E700BFC6
S315080144F01100001008B501213A2000F0A5FFFEF7CA
S3150801450076FA0120FFF7D4FFBDE8084000F004B8A9
S3150801451001213A2000F098BF2DE9F041484C8EB0B0
S31508014520264601AD0FCE0FC5336814342B6006AD90
S315080145300FCC0FC594E80F0085E80F0001213A203A
S3150801454000F082FF0121572000F07EFF4FF48073AF
S315080145503C4EADF81C303C4B3046039301A906ABE3
S31508014560059302F0A7F8012304220321022002F091
S31508014570C3F9022100230846012202F0BDF90123ED
S3150801458004221946022002F0B7F904220021012368
S31508014590022002F0B1F92D4C2D4B0125C4F8C8347F
S315080145A04FF00213C4F8C43403F58033C4F8CC348D
S315080145B01C2304F50058C4F8B4344FF4487004F0C9
S315080145C0F3FC04F580571420C8F8A05004F0ECFC5D
S315080145D02320C7F8A05004F0E7FCB9213046C8F8F3
S315080145E0A05001F0E8FF002303211A460220C7F86C
S315080145F0A05002F081F9002302211A46084602F06A
S315080146007BF92B4629460022022002F075F9002281
S315080146102B461146022002F06FF9304601F09CFF45
S3150801462000215720C4F8C814C4F8C414C4F8CC141B
S31508014630C4F8B41400F008FF0EB0BDE8F08100BF5D
S31508014640847E050800000A50E070720000C003501D
S315080146500200010010B51446042288B08DF8043012
S315080146600DEB020304930123ADF8143002AB069354
S3150801467002234900ADF80C1003A9ADF80E20ADF8D8
S315080146801C3000F0E3FA50B99DF809309DF808206E
S3150801469003F0FC0303EB0223236008B010BD0023DB
S315080146A03120F9E72DE9F0411D46E52307468846FD
S315080146B01646FFF7CFFFC0B943F6095334682A46B1
S315080146C05C43640BA4F5BB54103CE02341463846D1
S315080146D03460FFF7BFFF40B945F2CD532968594306
S315080146E04913A1F5374102392960BDE8F081042350
S315080146F010B588B0ADF80E30FC238DF80030C9230B
S315080147008DF801300223ADF8143001AB0693082366
S315080147104900ADF80C1003A91446CDF810D0ADF830
S315080147201C3000F093FA28B914B19DF804302370AF
S31508014730012000E0002008B010BD70B50022054632
S315080147400E46FFF7D4FF044608B1002070BD50207D
S3150801475004F010FA224631462846FFF7C8FF00281A
S31508014760F3D11020F2E7FEE708B500F02DF8124B59
S3150801477012498B4212D30020114B12498B4218D38E
S31508014780FDF71AFD186850F82240586840F822408B
S31508014790013298688242F5D30C33EAE70022F8E73A
S315080147A01C6844F8220001325C68A242F8D3083337
S315080147B0E4E70022F8E700BF80E305088CE3050873
S315080147C08CE305088CE305084FF480414FF0FF3070
S315080147D0114B124A10B59A60D3F8882042F4700238
S315080147E0C3F888200E4A91660E4901F500521066F3
S315080147F00D4850660220C3F8D000BFF34F8FBFF3B0
S315080148006F8F01244FF440330848C0F88041D360C4
S3150801481004600B6110BD00BF00ED00E00020010837
S315080148200090005000800044F7FF370000E100E0E7
S31508014830014B1868704700BF9C120020084B1B6F7C
S3150801484003F00703022B04D0032B05D0012B05D057
S31508014850FEE7044B18687047034BFBE703487047AC
S31508014860008000509C120020A0120020002D31016A
S3150801487008B5FFF7E3FF054B1B6FC3F3033301339A
S31508014880B0FBF3F0024B186008BD00BF0080005072
S31508014890981200200048704700B4C404014B1868F8
S315080148A0704700BFA0120020054B1860054B1B6F0F
S315080148B003F00703032B01D1FFF7DABF704700BFE7
S315080148C0A012002000800050002070470048704761
S315080148D0002D31014FF0B4439868C0F304400C2809
S315080148E022D8DFE800F00921212121210717192102
S315080148F01B1D1F000F4870479B6803F04073B3F1F7
S31508014900807F13D0B3F1007F12D00B4A002B08BF6A
S315080149101046704709487047094870470948704763
S31508014920094870470948704700207047084870478A
S3150801493008487047405DC60000093D000024F400A0
S31508014940C0EA210180BA8C010048E801005A6202D6
S3150801495080841E0040420F004FF4004070474FF418
S315080149607A707047014B1868704700BFA41200207F
S315080149704FF000639B6A10B503F17842B2F5903F98
S315080149800AD2084C227812F0FD0F08D1DB69984744
S3150801499008B90123237010BD4FF48170FBE700208D
S315080149A0F9E700BF4D1A00204FF00053074A1A6075
S315080149B0BFF34F8F0649074BCA6802F4E0621343F7
S315080149C0CB60BFF34F8F00BFFDE700BF02020FF0B8
S315080149D000ED00E00400FA05002303607047036850
S315080149E00B6001607047000005490A6813180548FD
S315080149F083428CBF4FF0FF320B601046704700BFF1
S31508014A00A812002000000420436803B11847222099
S31508014A107047436903B11847FF20704710B40A6805
S31508014A201378022B11D014203023147913FB0403B5
S31508014A3007481B585079C340DB4303F00103137041
S31508014A4008465DF8044BFFF735BC5DF8044B704723
S31508014A5030C0035037B50468012105463A2000F0F5
S31508014A60F3FC002301226179207901F045FF142224
S31508014A703023217913FB01230E4A9B586279D340CF
S31508014A80DB4303F001032370A379022B0ED100F057
S31508014A9065F92A460849607900F08AF90123024630
S31508014AA061792079CDE9003301F0CEFE002003B00B
S31508014AB030BD00BF30C003501D4A0108036818788D
S31508014AC07047000002681378022B24D01421302382
S31508014AD0107913FB001310495B585179CB40917932
S31508014AE003F00103012912D1508843EA40034FF626
S31508014AF0E07063F03F039BB2834202D11170538089
S31508014B0070474FF6DF718B42F9D10021F6E711B9EB
S31508014B1083F001031370704730C0035003681A7895
S31508014B20022A03D100225A80FFF794BF704713B5B2
S31508014B3004682378022B10D0A379022B0BD100210C
S31508014B40607900F023F90023627920791146CDE9CD
S31508014B50003301F079FE0223237002B010BD000074
S31508014B602DE9FF4103680446B3F1B64F04D0354A2F
S31508014B70934251D12F2000E02E20012100F064FC40
S31508014B8001230A226179207901F0B6FE01230A225E
S31508014B90E179A07901F0B0FE092701262A4D4FF0E7
S31508014BA030082279637908FB025206FA03F302F503
S31508014BB001521360642004F0F7F92379627908FB3E
S31508014BC0035306FA02F203F5825364201A6004F0CD
S31508014BD0EBF9013FE3D12068B0F1B64F1FD10323AA
S31508014BE0C5F8E8346279237943EA0243C5F8EC3417
S31508014BF0E279A37943EA0243C5F8F03440F2011396
S31508014C00ADF80030E36869460293A3680193237CF3
S31508014C108DF80C3001F0F6FE04B0BDE8F081094BC1
S31508014C209842EBD10323C5F8F8346279237943EA2C
S31508014C300243C5F8FC34E279A37943EA0243C5F88D
S31508014C400035DBE70080065000C0035038B505463D
S31508014C5002F006F8044C012801D1013C00D138BD07
S31508014C60284601F0F1FEF6E7E1930400D0E90003D6
S31508014C70184710B5044601213A2000F0E5FBA37850
S31508014C802078B3FA83F3042261785B0901F034FED4
S31508014C90002010BD10B501224378017884783020B0
S31508014CA09A40054B00FB01331CB903F501531A6001
S31508014CB010BD03F58253FAE700C0035010B501226F
S31508014CC043780178847830209A40054B00FB0133FC
S31508014CD01CB903F582531A6010BD03F50153FAE7AF
S31508014CE000C003500122437801789A403023594382
S31508014CF0014B5A50704700BF40F003501021302332
S31508014D000246007813FB0013054950785B58C340E7
S31508014D1003F0010093780BB980F00100704700BFDA
S31508014D2030C0035070B5044601250B4E04B970BD59
S31508014D3094FAA4F0B0FA80F005FA00F306EB001233
S31508014D4024EA03045368002BF0D0117B11B1916852
S31508014D509847EBE79847E9E7501A002008B5192064
S31508014D6001F034FA28B14FF00072074BC3F88021DD
S31508014D701A601A2001F02AFA28B14FF08062024B14
S31508014D80C3F880211A6008BD00E100E038B5054680
S31508014D900C4601F012FA0022044B03EB05135C6082
S31508014DA01A73BDE8384001F00EBA00BF501A002048
S31508014DB0F8B505460F46164601F0FFF9104B05F002
S31508014DC0FC02D3F824140023EC1804F0030414435A
S31508014DD021FA04FC1CF0010F07D00133042BF3D18F
S31508014DE0FF2401F0F0F92046F8BDFF2CF9D0012285
S31508014DF0044B03EB0413C3E901761A73F1E700BF09
S31508014E0000C00350501A0020074BD3F82404D3F8E6
S31508014E10202403F50053104000F0553020F05020AF
S31508014E20C3F82004FFF77EBF00C00350074BD3F831
S31508014E302404D3F8202403F50053104000F0AA30C7
S31508014E4020F0A020C3F82004FFF76CBF00C0035070
S31508014E50024B1968024B186837F0AABAB01200203B
S31508014E60AC1200207047000037B5920004460D4683
S31508014E70019241F01DFB431C0BD060B9294620461F
S31508014E80019A3FF0EFFD0028044808BF002003B04F
S31508014E9030BD0348FBE70348F9E700BF10E000F01F
S31508014EA021E000F024E000F013B5044601A801F062
S31508014EB077FF9DF80630012223804FF48073002086
S31508014EC06380054B9B680A3303F01F0302FA03F359
S31508014ED0636002B010BD00BF0080E00F01F012BF91
S31508014EE008B501F0FFFE002008BD10B5044644EAE6
S31508014EF0010313F00303084609D1934201D10020A7
S31508014F0010BD54F8231040F823100133F5E7214664
S31508014F1092003FF0B7FDF2E710B5044641F0D0FA2A
S31508014F20431C15D0B0B90C4B20469B680A3303F0D5
S31508014F301F020123934023F003032344984201D11E
S31508014F40002010BD50F8042B0132F7D00348F8E7CA
S31508014F500348F6E70348F4E70080E00F0EE000F0A7
S31508014F6021E000F024E000F008B501F01FF9014B3B
S31508014F70186008BDE0220020014B186801F01AB933
S31508014F80E02200200A460139014402F05BBF000015
S31508014F90044BD3F88420D206FBD4D3F88400C0F39B
S31508014FA0811070470040005038B5174B0546D3F8B5
S31508014FB020310C4603F00703013B052B20D8DFE817
S31508014FC003F0030B130F171BFFF732FC052305B17B
S31508014FD0286004B1236038BDFFF760FC0323F6E7B8
S31508014FE0FFF778FC0723F2E7FFF770FC0223EEE7E9
S31508014FF0FFF71EFC0623EAE7FFF750FC0423E6E762
S3150801500000231846E3E700BF0080005038B5174B68
S315080150100546D3F828310C4603F00703013B052B57
S3150801502020D8DFE803F003131B0F0B17FFF700FC6B
S31508015030052305B1286004B1236038BDFFF7F8FBE5
S315080150400623F6E7FFF746FC0723F2E7FFF726FCF8
S315080150500323EEE7FFF722FC0423EAE7FFF736FC12
S315080150600223E6E700231846E3E700BF0080005065
S3150801507073B50D460021114B0191D3F880410646BF
S3150801508004F00304022C13D0032C0CD0012C13D1E9
S3150801509001A8FFF789FF10240EB1019B336005B102
S315080150A02C6002B070BDFFF715FC07240190F3E7E9
S315080150B0FFF70CFC0190EFE70C46EDE70080005086
S315080150C0002337B50193154B0546D3F820320C4614
S315080150D003F00703013B032B1ED8DFE803F0020E9A
S315080150E01318002101A8FFF791FF12230DB1019AA8
S315080150F02A6004B1236003B030BDFFF7EBFB072339
S315080151000190F3E7FFF728FC0A230190EEE7FFF782
S3150801511029FC09230190E9E70023E7E7008000500D
S3150801512038B5104B0546D3F840310C4603F0030356
S31508015130022B0BD0032B0DD0012B0FD1FFF70CFC43
S315080151400A2305B1286004B1236038BDFFF70AFCBC
S315080151500923F6E7FFF703FC0C23F2E700231846B9
S31508015160EFE700BF00800050002337B50193164BC7
S315080151700546D3F860320C4603F00703013B032BBF
S315080151801FD8DFE803F0020E1914002101A8FFF762
S315080151900BFF10230DB1019A2A6004B1236003B0F5
S315080151A030BD002101A8FFF7BBFF1123F2E7FFF786
S315080151B091FB07230190EDE7FFF788FB0223019096
S315080151C0E8E70023E6E700BF00800050002337B573
S315080151D00193164B0546D3F894320C4603F00703A0
S315080151E0013B032B1FD8DFE803F0020E1914002137
S315080151F001A8FFF7D9FE10230DB1019A2A6004B15F
S31508015200236003B030BD002101A8FFF789FF1123F0
S31508015210F2E7FFF75FFB07230190EDE7FFF756FB80
S3150801522002230190E8E70023E6E700BF008000506B
S3150801523038B5134B0546D3F800320C4603F007037D
S31508015240013B032B18D8DFE803F0020A0E12FFF719
S3150801525083FB0A2305B1286004B1236038BDFFF733
S3150801526081FB0923F6E7FFF77AFB0C23F2E7FFF741
S31508015270FFFA0F23800AEDE700231846EAE700BF85
S315080152800080005038B5134B0546D3F808320C4652
S3150801529003F00703013B032B18D8DFE803F0020AE2
S315080152A00E12FFF759FB0A2305B1286004B12360E2
S315080152B038BDFFF757FB0923F6E7FFF750FB0C2329
S315080152C0F2E7FFF7D5FA0F23800AEDE70023184620
S315080152D0EAE700BF0080005038B5104B0546D3F801
S315080152E040320C4603F00303022B0BD0032B0DD0DF
S315080152F0012B0FD1FFF730FB0A2305B1286004B152
S31508015300236038BDFFF72EFB0923F6E7FFF727FBD6
S315080153100C23F2E700231846EFE700BF0080005090
S3150801532038B5104B0546D3F860310C4603F0030334
S31508015330022B0BD0032B0DD0012B0FD1FFF70CFB42
S315080153400A2305B1286004B1236038BDFFF70AFBBB
S315080153500923F6E7FFF703FB0C23F2E700231846B8
S31508015360EFE700BF0080005070B5054614460E46AB
S3150801537000F01CFF296881EA040202EA06044C408F
S315080153802C60BDE8704000F015BF0000B0F5207F25
S315080153901FD009D8B0F5007F15D003D868B1B0F58C
S315080153A0C07F0AD000200CE0B0F5607FFAD10B4B24
S315080153B0D3F88000C0F3011003E0084B186FC0F35F
S315080153C0033001307047054BD3F89000C0F30460F1
S315080153D0F7E7024B186FC0F38020F2E70080005010
S315080153E002464FF48030104B10B598660020FFF73F
S315080153F0CDFF504341F671320C4BDC69DA635A68CA
S3150801540004F4803422F4401259B9094988428CBF00
S315080154104FF480100020104358600CB10022DA6363
S3150801542010BD0449F2E700BF009000500000035088
S31508015430005A6202002D310108B5FFF72BFABDE8C3
S3150801544008400021FFF7CCBF430905D0012B0DD039
S31508015450022B094B18BF002300F01F0041B103F5C9
S315080154608053012202FA00F018607047034BF3E7F4
S3150801547003F50053F5E700BF6880005064800050CB
S315080154801FB5002280280446019200F0BA8048D848
S31508015490002800F0BA80A0F120043D2C54D83D2CF8
S315080154A052D8DFE814F0B200BE00B200BE00D70041
S315080154B0D700D700D700D700BE00E1005B00F70090
S315080154C081005B00BE00BE00BE00510051005100C4
S315080154D051005100510051005100BE00BE00BE00EE
S315080154E089000101BE0051005100510051005100CF
S315080154F05100510051005100510051005100510015
S31508015500D700B200B200B200FC005B005B000601E6
S3150801551098006C00DC005100510051005100510007
S31508015520A900B0F5B06F00F09F802DD8B0F5207FA7
S3150801553077D00CD8B0F5C07F67D0B0F5007F67D0BB
S31508015540B0F5807F00F09580019804B010BDB0F5E4
S31508015550607F6CD00DD8B0F5407FF5D1FFF788F99B
S3150801556002464FF42070FFF711FFB2FBF0F0400836
S3150801557049E0B0F5806F6DD0B0F5A06FE4D1002198
S3150801558001A8FFF79DFDDFE7B0F5106F00F08780F2
S3150801559017D8B0F5E06F00F087800AD8B0F5C06F6C
S315080155A078D0B0F5D06FCFD1002101A8FFF740FE22
S315080155B0CAE7B0F5F06FC7D1002101A8FFF7B0FE21
S315080155C0C2E7B0F5406F4AD013D8B0F5206F70D056
S315080155D0B0F5286FB8D10021384B0391D3F8703252
S315080155E003F00303012B02D103A8FFF799FD039BDF
S315080155F049E0B0F5486FA7D1002101A8FFF7E6FDFC
S31508015600A2E7FFF71BF901909EE7FFF731F9FAE7E1
S31508015610FFF714F902462046FFF7B8FEB2FBF0F091
S31508015620F1E7FFF725F902464FF42070F4E7234B1B
S31508015630D3F8803003F00303012B04D0022B06D0E4
S315080156404FF46070E8E7FFF7F9F80246F8E7FFF765
S3150801565041F9FAE7002101A8FFF7A6FC74E7002142
S3150801566001A8FFF7D3FC6FE7002101A8FFF700FDAA
S315080156706AE74FF0E02302921B695B0705D5FFF73E
S31508015680F7F80290029B01935EE703A902A8FFF7C8
S3150801569047FDF7E7002101A8FFF742FD54E700217E
S315080156A001A8FFF7EFFD4FE7002101A8FFF714FE58
S315080156B04AE7002101A8FFF757FD45E7008000509A
S315080156C008B58020FFF7DCFE034B98429EBF4FF4D6
S315080156D08032024B1A6708BD005A620200A00050C8
S315080156E01FB50023B0F5807F019300F0C38064D80D
S315080156F05D2855D84C2807D82D2847D823282BD8D4
S31508015700019805B05DF804FB4D381028F8D801A3B7
S3150801571053F820F06B580108015701080157010891
S31508015720015701081D5801080157010801570108C9
S31508015730095901083B580108E1570108FF580108B2
S3150801574001570108015701080157010801570108C6
S31508015750015701081359010824380928D0D801A38B
S3150801576053F820F06B5801086B5801086B5801086B
S315080157706B5801086B58010801570108615801085F
S3150801578001570108FD570108A15801083D2800F0F5
S3150801579082803E28B4D1002001A9FFF79DFDAFE71D
S315080157A08028ADD1604B1B6F03F00703013B032B28
S315080157B0A6D8DFE803F05350878FB0F5F06F6AD0AB
S315080157C021D8B0F5B06F4BD00FD8B0F5607F00F097
S315080157D0858095D3B0F5806F47D0B0F5A06F8FD18E
S315080157E0002001A9FFF76CFC8AE7B0F5D06F57D006
S315080157F0B0F5E06FCFD0B0F5C06F81D1002001A917
S31508015800FFF78EFC7CE7B0F5206F7DD00BD8B0F59D
S31508015810086F4AD0B0F5106F7FF472AF002001A966
S31508015820FFF730FD6CE7B0F5406F68D0B0F5486F0B
S315080158306FD0B0F5286F7FF463AF00213A4B03911F
S31508015840D3F8703203F00303012B67D0022B14BF80
S315080158500B46152300E00523019351E70223FBE7D5
S31508015860002001A9FFF704FC4AE7002001A9FFF778
S315080158709BFB45E702934FF0E0231B695B0705D5C0
S31508015880FEF7F6FF0D230393039BE5E703A902A899
S31508015890FFF746FCF8E7002001A9FFF741FD2FE7CE
S315080158A0002001A9FFF7C4FC2AE71F4BD3F80031F2
S315080158B003F00303022B07D0032B09D0012B0BD1CD
S315080158C0FEF7ECFF0323C7E7FFF74CF80923C3E705
S315080158D0FEF7FAFF0823BFE70123BDE7124AD2F80C
S315080158E0802002F00302012A05D0022AB4D1FEF76C
S315080158F0F1FF0723B0E7FEF7A1FF0E23ACE700206F
S3150801590001A9FFF783FBFBE6002001A9FFF72CFCA1
S31508015910F6E6002001A9FFF759FCF1E603A8FFF70F
S31508015920FFFB112398E700BF0080005008B5FFF779
S31508015930D7FE092811D00A38012811D84FF4800258
S31508015940094B4FF6FF705A6603F5D8335B6A13F0B5
S31508015950010F18BF4FF4FA7008BD044B1888FBE70E
S315080159604FF6FF70F8E700BF00900050D2120020F2
S3150801597038B504468020FFF7B3FE032800F083807C
S315080159804FF48012504B4FF0A0615A6645F60E034C
S315080159904E4AC2F880304E4B99624FF4803103F576
S315080159A080539962916D11F48031FBD1D4E90003DA
S315080159B01B0543EA0063E07B0343207B43EA00437C
S315080159C0607B43EA0033A07B43EA80131361906945
S315080159D0D4E904531B0643EA856300F000400343F8
S315080159E0A07EE57E0343207E43EA0043607E43EAC8
S315080159F000239361E069136A00280CBF002208227C
S31508015A0023F00F0343EA000343EA850343EA02034B
S31508015A102E4A304D136237D194F82430916A94F89E
S31508015A202000DB000D4043EA401394F821102B4374
S31508015A3043EA011343F480339362274B916D33EAAA
S31508015A400101FBD14FF08071214881621369A56874
S31508015A5023F4700343EA055313614FF0004383614E
S31508015A6094F822300BB91D4B996294F823301BB96F
S31508015A704FF48032194B9A6294F825301BB1134BB7
S31508015A80174AC3F8802038BD022808D11161154884
S31508015A9091614FF408524FF47F41FFF765FC0B49BA
S31508015AA094F822308A6A94F820001B06154043EAC6
S31508015AB0401394F824202B4343EAC20394F8232085
S31508015AC043EA02438B62D7E7009000500040005A30
S31508015AD00050005AC7FFFEFE030001000060005A8D
S31508015AE0F1A7FFFF3440005A014B93F900007047B4
S31508015AF0D0120020F0B5D0E901434FF400061A4A46
S31508015B004178057856664FF4D156022702F5B83220
S31508015B105662164E4F2977604FF0010728BF4F216D
S31508015B2006F5805677601669F603FCD441EA052125
S31508015B3051611B01417B43EA04230B43017B43EA81
S31508015B4041039360C37B817B1B0143EA4113417C7B
S31508015B500B43017C43EA41035360837C13B16FF421
S31508015B60D1535362F0BD00BF00900050001002509F
S31508015B70014B1880704700BFD21200204FF48002F3
S31508015B8008B5184B5A660223174A5360936813F4EB
S31508015B908033FBD1012822D1FEF780FE134B9842B0
S31508015BA015D003F5122303F5F863984213D0104B69
S31508015BB000EB8002400AB3FBF0F0520A0A4BDA62A4
S31508015BC0012218635A620022074B5A6008BD45F63E
S31508015BD07A10084AF2E745F61A00074AEEE75362D1
S31508015BE0F1E700BF009000500040025000F0490262
S31508015BF064666666D8B80500BBCF05000029CCBF28
S31508015C0001210021FFF7ECBBB0F5207F10B50C464A
S31508015C1057D008D8B0F5007F48D003D830B3B0F5CF
S31508015C20C07F23D010BDB0F5607FFBD129492A4832
S31508015C30D1F8FC2012F080721EBFD1F8FC3023F097
S31508015C408073C1F8FC30D0F88030611E23F030042F
S31508015C5044EA0114C0F88040002AE3D01D4AD2F86C
S31508015C60FC3043F08073C2F8FC30DBE7FFF7E4FB56
S31508015C7000F036F84FF48031184B174A1967136F3D
S31508015C80611E23F4704444EA01341467FEF7F0FDFB
S31508015C900446FFF77DF9C0F102012046FFF7AEFF82
S31508015CA000F024F8BDE81040FFF70ABD0A4A013999
S31508015CB0D2F8903023F0F85444EA0164C2F89040CF
S31508015CC0B0E7054B013C196F21F4806141EA842450
S31508015CD01C67A7E700ED00E0008000500090005027
S31508015CE002214FF42070FFF78FBF000008B54FF46B
S31508015CF0C070FFF7C5FBBDE80840044988428CBF60
S31508015D00022101214FF42070FFF77EBF80F0FA02CD
S31508015D10B0F5807FF8B50C4600F04E816BD85D284A
S31508015D205DD84C2804D82D2844D8232828D8F8BD6E
S31508015D304D381028FBD801A353F820F0995F0108C4
S31508015D402F5D01082F5D01082F5D0108935E01088B
S31508015D502F5D01082F5D01084D610108CB5E010821
S31508015D60235E01082D6101082F5D01082F5D0108D9
S31508015D702F5D01082F5D01082F5D01086D6101087E
S31508015D8024380928D3D801A353F820F0995F0108CC
S31508015D90995F0108995F0108995F0108995F0108F0
S31508015DA02F5D0108795F01082F5D0108595E010819
S31508015DB0676001083D2800F046813E28B7D1093CB5
S31508015DC0032C8CBF0021B04BB04A98BF195DD2F89D
S31508015DD0403223F003030B43C2F84032A7E7802879
S31508015DE0A5D18B1E062B00F2C480DFE803F0BFADF8
S31508015DF0C27EC2C2BC00B0F5F06F00F024813BD868
S31508015E00B0F5B06F00F0B8801BD8B0F5607F00F030
S31508015E1067818CD3B0F5806F00F0BE80B0F5A06FB6
S31508015E2085D1073C0B2C8CBF0021994B974A98BF0B
S31508015E30195DD2F8203223F007030B43C2F820324A
S31508015E4075E7B0F5D06F00F00E81B0F5E06FB6D00A
S31508015E50B0F5C06F7FF46BAF093C032C8CBF0021F2
S31508015E608C4B8A4A98BF195DD2F8403123F0030357
S31508015E700B43C2F840315AE7B0F5206F00F066814E
S31508015E8017D8B0F5086F00F01B81B0F5106F7FF4D5
S31508015E904EAF093C062C8CBF00217F4B7B4A98BF2D
S31508015EA0195DD2F8083223F007030B43C2F808320A
S31508015EB03DE7B0F5406F00F03981B0F5486F00F065
S31508015EC05581B0F5286F7FF432AF112C00F05E8151
S31508015ED0152C14BF002102216C4AD2F8703223F026
S31508015EE003030B43C2F8703221E7002502264FF45B
S31508015EF080370121022000F0C7F9FFF79DFAFFF765
S31508015F00EFFE664B614A1F67136F23F0070333439E
S31508015F101367FEF7ADFC0646FFF73AF8C0F1020132
S31508015F203046FFF76BFE0121002000F0EDF9FFF77F
S31508015F30DDFEFFF7C5FB002D7FF4F9AE032C7FF4D8
S31508015F40F6AE574B9F62F2E64FF48012534B0E465C
S31508015F505A664FF48032534B9D6A03F58053C5F355
S31508015F6000659A62C3E700250426C0E700250126D5
S31508015F70BDE700252E46BAE7023C0E2C8CBF002150
S31508015F80494B424A98BF195DD2F8803123F0030381
S31508015F900B43C2F88031CAE6023C052C8CBF0021AE
S31508015FA0424B3A4A98BF195DD2F8203123F00703CC
S31508015FB00B43C2F82031BAE6A1F10904082C3FF6D1
S31508015FC0B6AE01A353F824F0ED5F0108ED5F0108B1
S31508015FD02F5D0108ED5F01081B6001082F5D0108AF
S31508015FE02F5D01082F5D0108ED5F01084FF480322E
S31508015FF0264B2F49586E03F580535A664B6A43F070
S3150801600001034B62C1035CBF2A4B5A664FF0E0227B
S31508016010136923F00403136189E64FF480321B4B9D
S315080160202349586E03F580535A664B6A23F00103D8
S315080160304B62C3035CBF1F4B5A664FF0E0221369DC
S3150801604043F00403E7E7093C032C8CBF00211A4BF4
S315080160500E4A98BF195DD2F8603123F003030B434A
S31508016060C2F8603163E6093C062C8CBF0021134B4C
S31508016070064A98BF195DD2F8003223F007030B438D
S31508016080C2F8003253E600BF417F05080080005080
S315080160905C7F0508417F0508457F0508009000508B
S315080160A00060005A0040005A2C7F05083B7F05080E
S315080160B000C0075000A00050417F0508457F05082C
S315080160C0CC1E062C8CBF0021314B324A98BF195D74
S315080160D0D2F8003123F003030B43C2F8003126E658
S315080160E02D49063CD1F8FC2012F080721EBFD1F86A
S315080160F0FC3023F08073C1F8FC30082C8CBF0020DB
S31508016100264B244998BF185DD1F8803023F0030344
S315080161100343C1F88030002A3FF409AE1E4AD2F87B
S31508016120FC3043F08073C2F8FC3000E6023C052CD3
S315080161308CBF00211A4B174A98BF195DD2F828312E
S3150801614023F007030B43C2F82831F0E5023C0F2C74
S315080161508CBF0021134B0F4A98BF195DD2F86032E4
S3150801616023F007030B43C2F86032E0E5023C0F2C2B
S315080161708CBF00210C4B074A98BF195DD2F894329F
S3150801618023F007030B43C2F89432D0E50121A3E6B5
S315080161904C7F05080080005000ED00E0537F05089C
S315080161A03B7F0508687F0508687F0508EFF31080BF
S315080161B072B6704700B962B67047EFF311803023A3
S315080161C083F31188704780F311887047054B42099C
S315080161D053F8223000F01F0023FA00F0C04300F004
S315080161E00100704700E100E0024A536B0342FCD10B
S315080161F0704700BF00400950044A4178536F23F4A1
S31508016200407343EA01235367704700BF00400050BB
S31508016210704770470A4A10B51369044643F00403E8
S31508016220136102F0B5F9FFF7F3FF30BFFFF7F1FF8E
S3150801623002F0C2F91CB9BDE81040FEF719BB10BD42
S3150801624000ED00E0084A10B51369044643F004035B
S31508016250136102F09DF930BF02F0AEF91CB9BDE831
S315080162601040FEF705BB10BD00ED00E07047704712
S31508016270034A0179D36E23F030030B43D366704783
S315080162800040005070470000F8B504461C4BD3F88F
S315080162908420D106FBD4D3F88430C3F381139C42FE
S315080162A02CD0FEF7CBFA012C064602D12146FFF780
S315080162B0A5FCFFF77BFF4FF00072124B07465A66A3
S315080162C02046FFF7DFFF4FF480630D4D621E9340B2
S315080162D02B676B6E9A0103D4D5F884309B060AD5D1
S315080162E03846FFF767FF022C08D13046BDE8F8406B
S315080162F00021FFF783BCD5F88430EAE7F8BD00BF73
S31508016300004000500060005007B518B90191FEF72A
S3150801631095FA0199064B1B7843B1064B984205D865
S31508016320012003B05DF804EBFFF7AEBF0220F8E7E2
S3150801633094230020005A62020278034B01210020AF
S315080163401A70FFF7E1BF00BF942300204FF0004207
S31508016350154B10B55A664AF6CD3314494C6C0B6485
S3150801636004F0010488B90120FFF73EFF4B68DB07FB
S3150801637004D50F4B58600B6BD807FCD514B10B4BE2
S315080163800C4A1A6437F057F910BD0B6B1A07FCD47F
S315080163902022074B9A620122A3F580535A60034AC9
S315080163A0936A9B06FCD5E9E7009000500040095026
S315080163B0006009503254FFFF4FF0004238B5164BC2
S315080163C001465A664AF6CD33144C154A656C236460
S315080163D043780B205B0043F00103D363FFF704FF07
S315080163E063688A7823F4F87343EA02136360CA7808
S315080163F04B7943EA0223A3600A798B7943EA02239C
S3150801640023610878FFF7A2FFEB0744BF054B236416
S3150801641037F011F9012038BD0090005000400950AD
S31508016420004000503254FFFF4FF00042124B70B546
S315080164305D6E03F580535A664AF6CD3304460F4915
S3150801644080204E6C0B64FFF7CFFE0B6A23F00F0317
S315080164500F2C94BF234343F00F030B62F30744BF8A
S31508016460074B0B64002DA2BF4FF00042054B5A663D
S3150801647037F0E1F870BD00BF0080005000400950B8
S315080164803254FFFF00A000504FF00042104B70B588
S315080164905D6E03F580535A664AF6CD3304460D49B7
S315080164A080204E6C0B64FFF79FFE0B6A23F4F853AA
S315080164B043EA04230B62F30744BF074B0B64002D21
S315080164C0A2BF4FF00042054B5A6637F0B4F870BDCB
S315080164D000800050004009503254FFFF00A00050D0
S315080164E0436D0B42FCD1704708B54368DA0714D5EA
S315080164F08368DB0702D50369D90707D50A23502123
S315080165008363FFF7EDFF836C9A07FCD1012200F53F
S3150801651000535A6043689B07FCD408BD38B50C463E
S315080165200121024600F58053596004F00F0540F633
S31508016530FF71FFF7D5FF78218563FFF7D1FF04F0D7
S315080165400103610748BF43F00203916C01F003019F
S315080165509942FAD138BD000010B5FFF7C5FF0423EB
S3150801656000F5805100F500520B6113610B6113614F
S315080165700B6113610B611361202341F2020103616F
S315080165800023C360836041614FF4A0218361836561
S3150801659041620549C36103628362C362436303655A
S315080165A0D164036310BD00BFFF3F0D0309B9FFF7AF
S315080165B09BBFFFF7B3BF836C5A06FCD54164836C56
S315080165C01B06FCD5C06B80B270470000F8B50546BE
S315080165D01446084641B9344B9D422FD0334B9D4250
S315080165E008BF5720FEF74CFFAB68DE072ED5B0FB78
S315080165F0F4F46E68013C16F0010625D028212846D8
S31508016600FFF76EFFAB6C99071AD1AB6CDA0719D491
S31508016610AB6C13F0020F0CBF002706272846FFF7BD
S3150801662063FF286920F07F4040EA04642C61DEB1EB
S3150801663039462846BDE8F840FFF7B8BF5620D1E7E6
S315080166400527EBE70927E9E73746EAE76B68AB6D04
S31508016650AF68DB0707F0E00748BF6400402F1BD08F
S3150801666003D8DFB1202F1BD0F8BD602F1AD0802F99
S31508016670FAD1012604FB06F34101B1FBF3F30C4AF7
S31508016680203B02EAC30228460121FFF729FF2A63B4
S31508016690BDE8F840FFF724BF0626EBE71026E9E731
S315080166A00826E7E70426E5E70000015B00000A5033
S315080166B0F8FF7F00436870B504460D460E691BB1A5
S315080166C040F6FF71FFF70CFF2046FFF745FF2269E9
S315080166D06B7BA97B22F087020B43134343F08003AC
S315080166E0236116B32A692369117823F0F8030B434A
S315080166F0117F43EAC113117943EA4113517A43EAF7
S315080167000113D17B43EA81132361E168D2E905309C
S3150801671021F0F04121F4702103430B43117B527B95
S3150801672043EA812343EAC233E360A368EA7B23F0A1
S315080167300303134343F00103A3602EB32A69A16837
S31508016740538803F4C0430B43A3605179A36843EA12
S315080167508123A3609379D079616A1B01000203F052
S31508016760700300F4E06021F4772121F4EE6103431C
S315080167700B43117A527F090301F4E04112040B43DA
S3150801678002F470221343636263692A7B23F00F03C1
S3150801679013436361B6B12B695A89A2615A7B3AB12F
S315080167A01D4A944224D19A7B1C4902F00F024A677A
S315080167B0DA7B3AB1184A944224D11B7C174A03F072
S315080167C00F031367D5E901122046FFF7FFFE0521DE
S315080167D02046FFF7A3FE2821FFF782FE2B78A36345
S315080167E0FFF77EFEA36CDB4313F4405FFAD170BD5D
S315080167F00B4A944201BF9A7B084902F00F02C1F87D
S315080168008020D5E7064A944201BF1B7CA2F5CE2219
S3150801681003F00F03D367D5E70000015B009003502F
S3150801682000000A5070B5054614460E46FFF7BEFC31
S31508016830296881EA040202EA06044C402C60BDE894
S315080168407040FFF7B7BC0000072AF7B501F0030649
S3150801685014461F464FF003012CD89500A94000FAAB
S3150801686005F21C480191FFF7DDFF01991A4806FA5E
S3150801687005F2FFF7D7FF194B19499DF82000002F9C
S3150801688008BF1946012303FA04F40C60154B16498F
S31508016890002808BF0B461C60144B9DF82400C3F85A
S315080168A020441031A3F6DC33002808BF0B461C60D0
S315080168B003B0F0BDA2F10805AD00A94000FA05F242
S315080168C00B480191FFF7AEFF01990A4806FA05F24E
S315080168D0CFE700BF00C4035008C4035010E40350B7
S315080168E010D4035014D4035014E4035000E00350A9
S315080168F004C403500CC403502DE9F04105460F4664
S315080169001E4690464AB101233022194C8B4002FBA0
S3150801691000443EB304F5825423600F21072F05EB8B
S31508016920450388BFA7F108044FEA0313114895BF29
S31508016930BC00A40004330C3308FA04F2A14018443D
S31508016940FFF770FFB8F1000F0AD101213020084A7C
S3150801695001FA07F700FB05223EB102F582521760DC
S31508016960BDE8F08104F50154D6E702F50152F6E7D0
S3150801697000C0035030C00350F8B505460E4614460C
S315080169805AB3826803F0030722F440728260FFF764
S315080169900DFCAA6882EA072303F440735340AB60EF
S315080169A0FFF708FC36B9B5F1B64F17D12E20FEF719
S315080169B067FD0646AB680C4BD85D60430DD06FEAA0
S315080169C0C4040444A319B3FBF0F3AA68013B920774
S315080169D002D5002B08BF0123AB61F8BD034B9D42CD
S315080169E0E8D12F20E3E700BF787F0508008006502D
S315080169F0043021B100F5805001230360704700F58A
S31508016A000050F9E738B500230E4A036400F5005330
S31508016A10DA634A7804460D4600F108037AB903F5A4
S31508016A20805302221A602046D5E901122B7BFFF713
S31508016A30A3FF20462978BDE83840FFF7D9BF03F5FB
S31508016A400053EEE7FFFF1F00B0F1B64F2DE9F04303
S31508016A5022D0804B984240F0FA807F4B402505268C
S31508016A604FF000084FF0030C996800F50054C26B0B
S31508016A7012F4C06F16D0970510D5FD225A70092257
S31508016A801A700022026493F90110012900D15A7083
S31508016A9093F90100BDE8F083704BDFE75605EED5A3
S31508016AA0FE22EBE71F78082F00F2CD80DFE817F00A
S31508016AB009001F0041004C006900740096009E0001
S31508016AC0C2004C880A88E5060AD5120A02F00602AF
S31508016AD042F0F002012119704263C1600120D9E731
S31508016AE002F0FE02A10748BF42F00102F2E71706CB
S31508016AF007D5802100F50052D1634FF608721A8036
S31508016B0062E05206EAD54A88E563D70604D5022229
S31508016B101A700B784363E1E7920765D507221A7065
S31508016B201B7901EBC3010B89012BD7D10823C3605C
S31508016B30D4E71706DDD45206D0D54A88E563970708
S31508016B4052D583F800C092E74C880A88E50643BF08
S31508016B50120A02F0060242F0F00202F0FE0264078F
S31508016B6009D51C7942F0010201EBC4010989012901
S31508016B7004BF0821C160042119700123C36042635F
S31508016B80ACE71706B5D45706A8D54A88E563520770
S31508016B902AD507221A70A1E71A795F8801EBC20E76
S31508016BA0BEF80890B94511D80132D2B21A714F8888
S31508016BB0A3F8028017F0040FC3D1FF0702D4012AF4
S31508016BC07FF655AF08221A700223B0E7DEF80420D3
S31508016BD0791C5980D25D42630622DBE7170688D401
S31508016BE057067FF57BAFE5631E7040E794067FF590
S31508016BF075AF20261A7900F5005401EBC2010A89FE
S31508016C00456AE6635C88A24281BF4968661C5E8064
S31508016C100D5559888A42D5D90424012AC46004D954
S31508016C20013A914201D10822C2601A78092A3FF431
S31508016C3028AF53E7D2057FF551AF4FF4807100F5C0
S31508016C400052D1631BE74FF609321A8019E76FF034
S31508016C5003001FE700800650A42300209823002084
S31508016C60B0F1B64F10B407D01A4B98422ED06FF038
S31508016C7003005DF8044B7047174B0269D20744BFFE
S31508016C802022C2604A88940702D50C89002CEED0CE
S31508016C90520702D50A8A002AE9D04FF480721A608F
S31508016CA0002299601A71C023C3604369DB050FD4BA
S31508016CB0202200F50053DA63084A5DF8044BDA63CB
S31508016CC0036C43F4FC630364FFF7BEBE044BD4E7CD
S31508016CD0436AEAE70080065098230020FFFF1F0059
S31508016CE0A42300204FF48032054B9A6641F671328F
S31508016CF003F51C33DA63012203F50053DA607047A2
S31508016D000090005041F671320121064BDA6303F512
S31508016D100052D1600022DA634FF48032A3F51833AA
S31508016D209A66704700000350436813B9416070477B
S31508016D305B685A68012AFBD159607047836813B9A1
S31508016D40816070475B685A68012AFBD159607047B0
S31508016D50C369032B9FBF00EB83020133D160C36173
S31508016D607047C369042B15D84FF09842116CC902B4
S31508016D70FCD504339B0013650168103B116041681B
S31508016D800C30116050F8041C034411604FF098420E
S31508016D90984200D1704750F8041B1160F8E70000CB
S31508016DA04FF48032064B5A6603F5E6239B69C3F313
S31508016DB08512827003F03F021B0B42700370704705
S31508016DC00090005040F6B732064B5B689BB293427F
S31508016DD09FBF4FF47A72B3FBF2F3034AD05C88BFC4
S31508016DE0002070470080E00F7C7F050870B50546D6
S31508016DF016461C4621B94FF42070FEF741FB0146A1
S31508016E00402C1BD003D8DCB1202C1BD070BD602CC4
S31508016E10FCD1042303FB06F2560806EB4113B3FB28
S31508016E20F2F3094A203B02EAC303AA6822F0600288
S31508016E30AA60AA681443AC60EB61E7E70623E9E7B1
S31508016E401023E7E70823E5E7F8FF7F00012200F5AD
S31508016E5080535A60CB43934003F00A03436141616F
S31508016E6011B900F50050426070470000012100F594
S31508016E70805310B5596040F6AA6341F20502436191
S31508016E800023094C8360C365C26000F500520361A3
S31508016E90C361C3649464054C8365A04204BF03655A
S31508016EA04365516010BD00BFFFFF010000C00550DA
S31508016EB070B50D46FFF7DAFF012300F580567360BA
S31508016EC0AB7C04461BB1836843F080438360EB7C4B
S31508016ED05BB1244B9C4202BF2A7DA3F51033C3F84C
S31508016EE0C821E36D43F08003E3652A8A6B7B20465C
S31508016EF01343EA891343E3602B7BD5E90112FFF7B4
S31508016F0075FF6B7D1BB1A36843F48033A360AB7D2A
S31508016F101BB1A36843F40043A360EB7D2A7E1B07DC
S31508016F20120502F4E00203F0E0431343A3656B7E06
S31508016F309A1E012A4FF0020209D80B49032BC1F800
S31508016F40202709D10423F3652B78636170BD0749AE
S31508016F50012BC1F82027F4E7042204F50053DA656A
S31508016F60F2E700BF00C0055000D0035000E003500F
S31508016F7083691B06FCD5406AC0B2704783695B0604
S31508016F80FCD5C16370470000054B9A689107FCD48C
S31508016F905A689207F9D4DA69002AF6D1704700BF10
S31508016FA000800A5008B5FFF7EFFF0122024B03F5EF
S31508016FB080514A601A6108BD00800A50074B5A6819
S31508016FC0012A0AD15A68D20702D5DA69002AF9D103
S31508016FD002221A610122024B5A60704700800A5048
S31508016FE000A00A5010B5064CFFF7CEFF6368012BC7
S31508016FF003D1FFF7E3FFFFF7C7FF0378E36010BD8F
S3150801700000800A50E8B94A680B7812B1127843EA47
S31508017010C2034A78002A14BF0222002213438A684F
S3150801702012B1127843EA82138A78002A14BF04221D
S3150801703000221343CA6812B1127843EA4223014A6D
S315080170409364704700800A5008B9014B5964704728
S3150801705000900A5008B9014B5964704700A00A50BC
S3150801706008B9014B1964704700A00A5010B9024BC0
S31508017070186C70470020704700800A5048B911B152
S31508017080012903D07047044BD86C7047024B186D21
S3150801709070470020704700BF00800A5040B911B1FF
S315080170A0012903D07047034BDA647047014B1A650F
S315080170B0704700BF00800A5038B50446054D36F0C2
S315080170C0E0FA0FCC0FC594E8030085E80300002019
S315080170D038BD00BFB023002047F6FF739A42F0B5CA
S315080170E063D0022963D8334BCF0003EBC10013F8F1
S315080170F031108478012913D10025C3781B1B9D42C1
S3150801710002D3E018C0B2F0BD591B4668A3EB510182
S3150801711036F911609642D4BF0D4601F1FF33EEE709
S3150801712040680028EFD0B0F90010914204DBB0F9AD
S3150801713002109142B8BF114682883B44FF2A19BF03
S31508017140C8222826B0F90620B0F90860A2EB010288
S315080171500CBF0125002592FBF6F25F782A447B1EB7
S31508017160934228BF13464FF47A7E00EBC305AE68F7
S31508017170EA88AC4611FB02621E4622EAE272013334
S3150801718002F5FA729F42B2FBFEF204D9BCF80CC0B2
S3150801719008359445EBD200EBC6008088904228BF9B
S315080171A01046A04238BF2046ACE7FF20ABE70020D7
S315080171B0A9E700BFB02300200229F0B553D82B4810
S315080171C000EBC10410F83110636801290FD1E0788A
S315080171D0A478904294BFC4EB0001C4EB0201001BE2
S315080171E0CAB28242C8BF002233F91200F0BD002B91
S315080171F039D0A178914202D3B3F90200F6E7E178D2
S31508017200B3F900009142F1D999886478A1F1FF0692
S31508017210013C714203F10405E4B2714103F10C0723
S315080172201FFA82FCCEB2B44216D805EBC1014FF45F
S315080172307A756A43B1F902404968521A04EBD47166
S3150801724002EB610292FBF4F29042CFDBB3F9020042
S315080172509042CBDC10B2C9E737F831E04E1CE6455F
S31508017260E3D33146DEE70248C0E700BFB02300207A
S315080172700080FFFF0148FFF71FBF00BF807F050899
S3150801728000487047D41200207FB50222084B0949ED
S31508017290CDE901234FF00073CDE90313072301A9B3
S315080172A04FF0FF30059336F06DFA07B05DF804FB31
S315080172B0006A18000002060007B5094B18689A8883
S315080172C09B7900906846ADF804208DF80630FFF7E3
S315080172D073F80C20FFF7A8F8002003B05DF804FB4B
S315080172E0FC7F050813B50024064A6846536F43F028
S315080172F00103536700948DF80440FEF7B9FF204651
S3150801730002B010BD0040005030B58BB06C46154D2B
S315080173100FCD0FC40FCD0FC495E8030084E8030011
S31508017320114BD3F84C21120314D4D3F85041E4B2CB
S315080173308DF81940FEF7D8FB204480F308008DF834
S3150801734018000A48FDF7B0FA6846FEF711FB002057
S315080173500BB030BD064B1C884FF6FF739C4208BF25
S315080173608C24E5E7048005080080E00FC017530266
S315080173700001E00F08B50120FEF700FC002008BD5A
S3150801738030B5094D87B001AC0FCD0FC42B6801A8E4
S3150801739023603F238DF80530FEF7ACFB6420FEF72A
S315080173A0E7FB002007B030BD2C8005086FF004020A
S315080173B0502110B50A480B4C12F0800FD3B21BBFEF
S315080173C003F00F03043BA3181B1802F101020CBFBB
S315080173D083F8001319764C2AEED1002010BD00BFA0
S315080173E000ED00E000E100E000F078B838B501F002
S315080173F057FA0446E0B901F0ABFB4FF41673434361
S315080174000C4803F5742303F23F23B3FBF0F30A4A4E
S315080174100A4913600A220D680948013A12F0FF0267
S3150801742040F8043BF9D103EBC3022B4413440B6028
S31508017430204638BD40420F0004240020D0230020F6
S31508017440D4230020012208B5034B1A7001F05AFB18
S31508017450024B186008BD00BFCC2300200024002081
S31508017460F8B5144C237823B301F04CFB124B134D9A
S315080174701B68134EC01A012838BF0120114B124F41
S3150801748018602B7856F8232046F82300111A3A6813
S315080174900E48521A0A213A600932B2FBF1F2013357
S315080174A0DBB20260B3FBF1F201FB12332B7000234E
S315080174B02370F8BDCC23002000240020FC230020E3
S315080174C0D4230020C8230020D02300200424002030
S315080174D0014B1868704700BF0424002020234FF48D
S315080174E08012094981F82C33084B5A66084B094A18
S315080174F003F50050426702674FF48050C1F88401D2
