S00F0000546167426F6172642E733337E1
S3150801200000120020B1430108AD430108AD430108A0
S315080120107D780108AD430108AD430108AD430108C8
S31508012020AD430108AD430108AD430108AD430108BD
S31508012030AD4301089474050815290108AD43010843
S31508012040AD430108AD430108AD430108AD4301089D
S31508012050AD430108AD430108AD430108AD4301088D
S31508012060AD430108992B0108A52B0108AD430108C9
S31508012070AD430108AD430108AD430108AD4301086D
S31508012080AD430108AD430108AD430108AD4301085D
S31508012090AD430108AD430108AD430108AD4301084D
S315080120A0AD430108554A0108314A0108AD43010803
S315080120B0AD430108D1320508C93C0508813C05082C
S315080120C07D3C05089D340508C53C0508853C050881
S315080120D09D3C0508893C0508293D0508093D050873
S315080120E0AD430108AD430108AD430108AD430108FD
S315080120F0F96E0108AD430108AD430108AD43010876
S31508012100AD430108AD430108AD430108AD430108DC
S31508012110AD430108AD430108AD430108AD430108CC
S31508012120AD430108AD430108AD430108AD430108BC
S31508012130AD430108AD430108AD430108AD430108AC
S31508012140AD430108AD430108AD4301088F88010875
S31508012150C91A0508AD430108C9FF0408CFFF0408D9
S31508012160AD430108AD430108AD430108AD4301087C
S3150801217010B5054C237833B9044B13B1044800E074
S3150801218000BF0123237010BDDC18002000000000E9
S3150801219048D9050808B5034B1BB10349034800E0B4
S315080121A000BF08BD00000000E018002048D9050856
S315080121B0A3F5803A704700BF174B002B08BF134B96
S315080121C09D46FFF7F5FF00218B460F461348144A33
S315080121D0121A42F04CF80E4B002B00D098470D4BC3
S315080121E0002B00D098470020002104000D000D485F
S315080121F0002802D00C4800E000BF41F0CDFF2000C6
S31508012200290000F07BFB41F0B3FF00BF0000080086
S31508012210000000000000000000120020DC18002069
S31508012220F83E0020000000000000000010B501F093
S31508012230C5FF01F0C4FFBDE8104003489A23034ACD
S315080122400349006804F09FBE441A0020465D05084C
S31508012250685C050810B501F0B1FF01F0B0FFBDE8F3
S31508012260104003486823034A0349006804F08BBEFB
S31508012270441A0020355D0508685C050810B501F0AB
S315080122809DFF01F09CFFBDE8104003488823034ADF
S315080122900349006804F077BE441A0020235D050847
S315080122A0685C050810B501F089FF01F088FFBDE8F3
S315080122B0104003485123034A0349006804F063BEEA
S315080122C0441A0020165D0508685C050810B501F07A
S315080122D075FF01F074FFBDE8104003484823034A1F
S315080122E00349006804F04FBE441A0020095D050839
S315080122F0685C050813B5059C01F060FF01F05FFFF6
S315080123000A482A230A4A0B49006804F03CFEB4F934
S315080123100430282B07D1084B1A691868019202B0B4
S31508012320BDE81040104702B010BD00BF441A002096
S31508012330FB5C0508685C0508E063050873B500934E
S3150801234013460A460021064606F066FB054640B3D3
S31508012350154C1649206804F016FE1549206804F044
S3150801236012FE01F02BFF01F02AFF124B124A134904
S3150801237000932068AA2304F006FE2B46104A114949
S31508012380206804F000FE284601F040FF0E490023AC
S315080123903246206804F0F7FD0449206804F0F3FD8D
S315080123A0FEE702B070BD00BF441A0020FD5D0508B6
S315080123B0705C0508575D0508755C0508835C0508AA
S315080123C08F5C0508925C0508A75C050810B541F203
S315080123D00200074B074A0849FFF7B0FFBDE810405E
S315080123E04FF49850054B064A0649FFF7A7BF00BFA9
S315080123F0A5220108CD220108F52201082D2201088E
S31508012400552201087D220108FFF7E0BF094B07B5F0
S315080124101B785BB9084B1A6918689047074B1A6904
S315080124201868019203B05DF804EB104703B05DF834
S3150801243004FB00BF2C190020E0630508F8630508B2
S31508012440704770477047000008B50B4802F05AF903
S31508012450012805D101F05EFE00F0E0FF002008BD6D
S31508012460064802F04FF9012804D101F053FE00F0A5
S3150801247005FFF3E70120F2E7B0630508C86305081D
S3150801248030B503684D4A23F47F4323F0070393428B
S315080124908FB000F0838005D8A2F5A022934213D00D
S315080124A00FB030BD464A9342FAD1464A1378002BFB
S315080124B0F6D0013BDBB21370002BF1D101F07EFEA1
S315080124C001F07DFE404972E0FFF7BEFF0028E7D024
S315080124D021F0E6FB3D4C054678B103461E213C4AF0
S315080124E006A842F09FF801F069FE01F068FE2A4647
S315080124F03849206804F047FDD2E702A821F0EEFB2F
S31508012500054628B33449206804F03DFD334920685F
S3150801251004F039FD01F052FE01F051FE304B314A0B
S31508012520314900932068FB2304F02DFD2B462F4AE1
S315080125302F49206804F027FD284601F067FE2D493A
S31508012540206804F020FD2449206804F01CFDFEE7FC
S315080125509DF817301421284A009306A89DF81630CD
S3150801256042F060F801F02AFE01F029FE234906AA85
S31508012570206804F008FD06A842F088F829460246B4
S3150801258006AB0B201BF056FA0546002888D001F049
S3150801259015FE01F014FE2A461949AAE7094A1378D5
S315080125A00133137001F00AFE01F009FE1549074BC4
S315080125B018680FB0BDE8304004F0E5BCA00006007D
S315080125C0A00006012D190020475E0508441A0020BF
S315080125D0775D05088B5D0508FD5D0508705C0508D6
S315080125E0595F0508AA5D0508835C05088F5C05081F
S315080125F0925C0508B35D0508D95D0508EB5D05081C
S31508012600FF5D05083B5E0508036837B523F47F437C
S315080126101F4A23F00703934208D002F180729342BE
S3150801262034D103B0BDE83040FFF7EEBE0379002B85
S31508012630F7D1032021F040FB054638B3154C16495E
S31508012640206804F0A0FC1549206804F09CFC01F000
S31508012650B5FD01F0B4FD124B124A134900932068E7
S3150801266040F20F1304F08FFC2B46104A10492068DC
S3150801267004F089FC284601F0C9FD0E49206804F0DA
S3150801268082FC0549206804F07EFCFEE703B030BDF4
S31508012690A8001400441A0020FD5D0508705C0508B1
S315080126A03B5F0508AA5D0508835C05088F5C05087C
S315080126B0925C0508565E0508012337B50446009362
S315080126C0FA210023194A1A4801F0D6FB054638B300
S315080126D0184C1949206804F056FC1849206804F07A
S315080126E052FC01F06BFD01F06AFD154B154A00938A
S315080126F015494FF4C673206804F045FC2B46134A66
S315080127001349206804F03FFC284601F07FFD114972
S31508012710206804F038FC0849206804F034FCFEE718
S31508012720204603B0BDE8304000F072B80D24010818
S31508012730F8180020441A0020FD5D0508705C05089C
S31508012740145F0508AA5D0508835C05088F5C050802
S31508012750925C0508915E050873B504461F480E4646
S3150801276001F070FB054638B31D4C1E49206804F07C
S315080127700AFC1D49206804F006FC01F01FFD01F062
S315080127801EFD1A4B1A4A00931A494FF4CB73206857
S3150801279004F0F9FB2B46184A1849206804F0F3FBA4
S315080127A0284601F033FD1649206804F0ECFB0D4973
S315080127B0206804F0E8FBFEE70122124B1A70124B5F
S315080127C0DA6818689047114B1868DA6890473146F5
S315080127D0204602B0BDE8704000F02EB8F818002077
S315080127E0441A0020FD5D0508705C0508F65E0508BB
S315080127F0AA5D0508835C05088F5C0508925C0508D7
S31508012800C45E05082C190020E0630508F86305086D
S3150801281007B5019001F0D2FC01F0D1FC044B019AF5
S315080128200449186803B05DF804EB04F0ACBB00BFBB
S31508012830441A00206B5F050807B50190009101F065
S31508012840BDFC01F0BCFCDDE900320448044900681E
S3150801285003B05DF804EB04F096BB00BF441A0020F0
S31508012860A35F050808B50346084611461BB1BDE82E
S315080128700840FFF7E1BF01F0A1FC01F0A0FC034B02
S3150801288003491868BDE8084004F07DBB441A0020D6
S31508012890E45F050807B5019001F090FC01F08FFC93
S315080128A0044B019A0449186803B05DF804EB04F077
S315080128B06ABB00BF441A00202860050808B501F064
S315080128C07DFC01F07CFC034B03491868BDE8084010
S315080128D004F059BB441A00205C60050808B501F0EC
S315080128E06DFC01F06CFC034B03491868BDE8084010
S315080128F004F049BB441A00206C60050808B505F0C8
S31508012900E3FFFFF79DFD05F0ECFFFFF79AFD05F0E4
S3150801291037F9F8E70DF0CABA06F028B810B5044633
S3150801292001F0EAF920461FF049FD2046FFF7A8FD08
S3150801293010BD0120704700B5C3B00DF0D9F90DF0EF
S3150801294002FA48B1FFF7F5FF30B101A81BF04DF8BF
S3150801295010B901A8FFF7E2FF43B05DF804FB704721
S3150801296008B503481FF074FFBDE8084000F0FCBD38
S315080129701463050810B5044600F08AF9204600F0EC
S315080129801DFF204600F0F4FD204600F0F1FC20462C
S3150801299000F0F4FF2046FFF737FE10BD012070470F
S315080129A000B5C3B01FF05CFF48B1FFF7F7FF30B1C0
S315080129B001A821F051F810B901A8FFF7DBFF43B0D0
S315080129C05DF804FB08B50321802002F0B5FF032159
S315080129D04FF4806002F0B0FF09214FF4C06002F0A5
S315080129E0ABFF09214FF4F06002F0A6FF09213E2052
S315080129F002F0A2FF09212D2002F09EFF0921512094
S31508012A0002F09AFF002008BD08B504F095F901F017
S31508012A102AFC04F017F904F0ADF904F03BF904F0C7
S31508012A206FF904F073F9FFF7CDFF04F021F901F00E
S31508012A300FFC01F0C1FD02F01FF8BDE8084004F0E3
S31508012A40AFBF08B501F09EFF00F03EF800F004F9AB
S31508012A50BDE8084000F00EB908B501F0F7FB05F02E
S31508012A60E3FB04F089F904F0D7FA0AF0F1FA04F065
S31508012A7053FE08F0E1F80AF0F1FCBDE8084000F061
S31508012A807DB808B504F0BCF804F0C4F8FFF744FFB4
S31508012A90BDE80840FFF764BF08B501F0D1FABDE803
S31508012AA0084001F08DBB704708B501F01DFBBDE874
S31508012AB0084001F08DBA08B5FFF73DFFBDE80840AB
S31508012AC0FFF76EBF7047000008B53A20012102F0F2
S31508012AD0CFFABDE80840014801F066BE541200204D
S31508012AE070B5144E92B035460BAC0FCD0FC495E8B0
S31508012AF007000023CDE908330A93292384E8070050
S31508012B000D4A02ACCDE9062305238DF821300623AB
S31508012B108DF8233006F11C030FCB84E80F00074B11
S31508012B20214600930BAA06AB054804F0F3FC12B044
S31508012B3070BD00BF8463050800C005503019002028
S31508012B409C190020831E012B0AD8012908D80422C2
S31508012B50094B1B6CC3F340130521002003F0E0BCAD
S31508012B600239012907D8012805D8034B00221B6C15
S31508012B70C3F34013F0E7704700C0035008B5044992
S31508012B80044804F0DBFFBDE80840FFF7A9BF00BF12
S31508012B906812002074190020014B186804F080BDE2
S31508012BA09C190020FFF7F8BF014B1A6A18681047ED
S31508012BB09C190020012070470120704710B501F0CB
S31508012BC0B9FA04460DF000F9002808BF002401F0FF
S31508012BD02FFA002808BF0024FFF7ECFF002814BFCE
S31508012BE02046002010BD38B505F0CCF8044601F0A2
S31508012BF0B1FA042825D002284FF0000508BF0124A0
S31508012C000DF0F0F804281ED0022808BF0124FFF7AA
S31508012C10CBFF042819D0022808BF012401F0FEF9C8
S31508012C20042814D0022808BF0124FFF7C5FF042889
S31508012C300FD0022808BF0124002D18BF0024204602
S31508012C4038BD0125DCE70125E1E70125E6E7012590
S31508012C50EBE70024F3E7000008B5044801F0F8FCA7
S31508012C60BDE80840024801F0F3BC00BFB06305089F
S31508012C70C863050808B5044801F00CFEBDE808401C
S31508012C80024801F007BE00BFE0630508F8630508BE
S31508012C9037B5044610B30368B14A23F47F4323F0DA
S31508012CA00703934200F0748200F2A180AD4A934271
S31508012CB000F0A4814AD8AC4A934200F018821FD882
S31508012CC0A2F54022934200F0348209D8A74A9342DA
S31508012CD000F03A81A64A934200F0998103B030BDCB
S31508012CE0A44A934200F04E8202F580229342F5D11E
S31508012CF001F064FA01F063FAE388A2889E4912E1B9
S31508012D009E4A934200F04A820ED8A2F5A022934227
S31508012D1000F0B68102F580329342DFD101F04EFA16
S31508012D2001F04DFA964914E1964A934200F054820D
S31508012D3002F540329342D1D101F040FA01F03FFA4F
S31508012D40238991490093A38962894DE08F4A934269
S31508012D5000F09C8123D8A2F51412934200F0D98180
S31508012D600ED8A2F57022934200F05D8102F5802209
S31508012D709342B3D101F022FA01F021FA8449E8E03D
S31508012D80844A934200F0BB8102F50C129342A5D105
S31508012D9001F014FA01F013FA22897F4934E17F4AD6
S31508012DA0934200F0DD8110D8A2F58022934200F00B
S31508012DB0FC8102F54032934290D101F0FFF901F00E
S31508012DC0FEF9638922897649ADE0764A934285D12F
S31508012DD001F0F4F901F0F3F9B4F8093072490093F6
S31508012DE0B4F80730B4F80520704800687AE1704AEB
S31508012DF0934200F0A4814CD8A2F57F02934200F0D9
S31508012E00B98126D8A2F51022934200F045810FD840
S31508012E10A2F51412934200F0848102F5101293422E
S31508012E207FF45CAF01F0CAF901F0C9F9614990E094
S31508012E30614A934200F0C08102F5403293427FF421
S31508012E404DAF01F0BBF901F0BAF9638922895B49F3
S31508012E5069E05B4A934200F025810FD8A2F550122A
S31508012E60934200F0258102F54C1293427FF436AF66
S31508012E7001F0A4F901F0A3F952496AE0524A9342D2
S31508012E807FF42CAF01F09AF901F099F9227B4F49A9
S31508012E90BAE04F4A934200F0C08028D802F17E4238
S31508012EA002F55412934200F0CB800FD8A2F50032F6
S31508012EB0934200F0DF8002F5803293427FF40EAF31
S31508012EC001F07CF901F07BF9424942E0424A93421A
S31508012ED000F07B8102F5403293427FF4FFAE01F0A8
S31508012EE06DF901F06CF9D4F806203C498CE03C4AAE
S31508012EF0934200F0E4801DD802F17E42934200F02D
S31508012F00988002F1807293427FF4E8AE01F056F997
S31508012F1001F055F933492079334AB4F805300028C8
S31508012F2018BF0A4631492148006803B0BDE8304058
S31508012F3004F029B82E4A93427FF4D0AE01F03EF947
S31508012F4001F03DF92B4904E001F038F901F037F9B0
S31508012F502949164B186803B0BDE8304004F013B888
S31508012F60A8001F02A0000601A8002400A000060070
S31508012F70A8001400A8001F003C690508A8004D0018
S31508012F80B5650508A8004E00556B0508A800480157
S31508012F90E1690508A800240103660508A80051018E
S31508012FA0026A0508A0000602AA640508441A002058
S31508012FB0A800500337660508A8004D024E6A0508A1
S31508012FC0A800480363660508A8004D037C6D05083B
S31508012FD0A80014067D670508A8004D041A6B0508A4
S31508012FE0A800140980640508786405081A680508A4
S31508012FF0A800140A106505088C64050801F0DEF8B6
S3150801300001F0DDF8A2887849784B18682BE001F0C1
S31508013010D5F801F0D4F876499BE701F0CFF801F02D
S31508013020CEF8744995E701F0C9F801F0C8F8724974
S315080130308FE701F0C3F801F0C2F8A2886F49E3E708
S3150801304001F0BCF801F0BBF8684B1868A38803F4D3
S315080130504042B2F5404F0BD013F4805F684B694A82
S3150801306018BF1A46684903B0BDE8304003F08BBF64
S31508013070664AF7E701F0A2F801F0A1F8644968E7A2
S3150801308001F09CF801F09BF8624962E701F096F8B5
S3150801309001F095F860495CE701F090F801F08FF8C6
S315080130A05E4956E701F08AF801F089F85C4950E76C
S315080130B001F084F801F083F8E2885A49A4E7057912
S315080130C001F07CF801F07BF8484BB4F80720186842
S315080130D0B4F809304DB15449544C012D18BF214655
S315080130E00091534903F04FFFF8E55249F8E701F01B
S315080130F065F801F064F8E388A2884F4913E701F0FF
S315080131005DF801F05CF823894C490093E388A288AD
S315080131106AE601F053F801F052F8E388A2884849B3
S3150801312001E701F04BF801F04AF8E388A28845491E
S31508013130F9E601F043F801F042F8434909E701F0DD
S315080131403DF801F03CF8D4F80E302848019323895C
S315080131503E490093A3896289006803F014FFBDE51F
S3150801316001F02CF801F02BF8238939490093A3893A
S31508013170628939E601F022F801F021F8D4F806202F
S31508013180344941E701F01AF801F019F83249E0E645
S3150801319001F014F801F013F83049DAE601F00EF8F7
S315080131A001F00DF8227B2E492EE701F007F801F010
S315080131B006F8227B2B4927E701F000F800F0FFFF0C
S315080131C0D4F80D30227B2849ADE600F0F7FF00F070
S315080131D0F6FFE268254917E700F0F0FF00F0EFFF78
S315080131E0A289234910E700BFF1640508441A0020A3
S315080131F026650508426505086765050888650508A1
S315080132002C64050822640508E065050810640508AC
S315080132108F660508B0660508E3660508166705089A
S315080132204A670508B06705084F6405086664050816
S31508013230D56705083664050854680508A1680508B0
S31508013240FC6805087F690508C3690508A36A0508B6
S31508013250B66B0508186C0508596C05088E6C0508C7
S31508013260C16C0508F86C05082B6D0508BD6D0508C8
S31508013270076E050800201AF021BC000037B520F0BA
S315080132804BFD044630B32E4D2E49286803F07BFECC
S315080132902D49286803F077FE00F090FF00F08FFFB4
S315080132A02A4B2B4A00932B494923286803F06BFEC6
S315080132B02346294A2949286803F065FE204600F075
S315080132C0A5FF2749286803F05EFE1E49286803F012
S315080132D05AFEFEE7FFF702FB23464FF4FA61214A3D
S315080132E02148009400F0C8FD054630B3144C154931
S315080132F0206803F048FE1449206803F044FE00F0F4
S315080133005DFF00F05CFF114B114A009311495423EC
S31508013310206803F038FE2B460F4A1049206803F04F
S3150801332032FE284600F072FF1049206803F02BFE92
S315080133300449206803F027FEFEE703B030BD00BF4D
S31508013340441A0020FD5D0508705C05088F6F0508A5
S31508013350556E0508835C05088F5C0508925C0508AF
S31508013360CA6E050875320108C0190020F26E0508F3
S31508013370036837B523F47F431C4A23F007039342B6
S3150801338032D1FFF7ABFA00234FF4FA61184A19480C
S31508013390009300F071FD054630B3174C17492068B4
S315080133A003F0F1FD1649206803F0EDFD00F006FF74
S315080133B000F005FF134B144A14490093206884232F
S315080133C003F0E1FD2B46124A1249206803F0DBFDA2
S315080133D0284600F01BFF1049206803F0D4FD074971
S315080133E0206803F0D0FDFEE703B030BDA800140A3B
S315080133F075320108C0190020441A0020FD5D050830
S31508013400705C0508506F0508556E0508835C05084C
S315080134108F5C0508925C0508F26E050837B520F041
S315080134207BFC054630B3434C4349206803F0ABFDAA
S315080134304249206803F0A7FD00F0C0FE00F0BFFE78
S315080134403F4B404A009340496023206803F09BFDA7
S315080134502B463E4A3E49206803F095FD284600F072
S31508013460D5FE3C49206803F08EFD3349206803F0F8
S315080134708AFDFEE71AF0D2FA044630B32D4D2E49DD
S31508013480286803F080FD2D49286803F07CFD00F0CB
S3150801349095FE00F094FE2A4B2A4A00932A49632393
S315080134A0286803F070FD2346284A2949286803F04D
S315080134B06AFD204600F0AAFE2749286803F063FD45
S315080134C01D49286803F05FFDFEE7FFF7F7F9234674
S315080134D04FF4FA61214A2248009400F0CDFC0546D2
S315080134E030B3144C1449206803F04DFD1349206884
S315080134F003F049FD00F062FE00F061FE104B114A2F
S31508013500009311496E23206803F03DFD2B460F4AAF
S315080135100F49206803F037FD284600F077FE114968
S31508013520206803F030FD0449206803F02CFDFEE70E
S3150801353003B030BD441A0020FD5D0508705C05081E
S31508013540716F0508556E0508835C05088F5C0508CB
S31508013550925C0508CA6E0508296F050875320108C7
S31508013560C0190020F26E05080321002005F040BAB3
S3150801357037B501687D4C21F47F4323F00703A34245
S31508013580024600F0ED8004D8794A93420FD003B081
S3150801359030BD7848834204D0774B0B4077498B423C
S315080135A0F5D1104603B0BDE8304005F05BBA20F00E
S315080135B071FA054630B3724C7249206803F0E3FC90
S315080135C07149206803F0DFFC00F0F8FD00F0F7FD13
S315080135D06E4B6F4A00936F495423206803F0D3FC5E
S315080135E02B466D4A6D49206803F0CDFC284600F04C
S315080135F00DFE6B49206803F0C6FC6249206803F09A
S31508013600C2FCFEE720F03AFA054630B35C4C5D4948
S31508013610206803F0B8FC5C49206803F0B4FC00F0AC
S31508013620CDFD00F0CCFD594B594A009359495C230D
S31508013630206803F0A8FC2B46574A5849206803F02E
S31508013640A2FC284600F0E2FD5649206803F09BFCDF
S315080136504C49206803F097FCFEE720F003FA05467B
S3150801366030B3474C4749206803F08DFC464920682A
S3150801367003F089FC00F0A2FD00F0A1FD434B444A8A
S31508013680009344497123206803F07DFC2B46424A86
S315080136904249206803F077FC284600F0B7FD424905
S315080136A0206803F070FC3749206803F06CFCFEE7DC
S315080136B020F008FA054630B3314C3249206803F048
S315080136C062FC3149206803F05EFC00F077FD00F0EA
S315080136D076FD2E4B2E4A00932E497D23206803F052
S315080136E052FC2B462C4A2D49206803F04CFC2846EF
S315080136F000F08CFD2D49206803F045FC214920681E
S3150801370003F041FCFEE720F0D1F9054600283FF415
S315080137103EAF1B4C1B49206803F035FC1A4920684B
S3150801372003F031FC00F04AFD00F049FD174B184A39
S3150801373000931849A423206803F025FC2B46164A52
S315080137401649206803F01FFC284600F05FFD18495A
S31508013750206803F018FC0B49206803F014FCFEE707
S3150801376003B0BDE8304005F0F1B900BFA8001E005E
S31508013770A8001400A8001F02F800FFFEA8001F00F9
S31508013780441A0020FD5D0508705C05081E710508D0
S31508013790AD6F0508835C05088F5C0508925C050812
S315080137A0207005084F7005087F700508B770050871
S315080137B0E670050800201AF081B9000037B580B116
S315080137C00368344A23F47F4323F00703934257D00F
S315080137D009D802F17A42934247D002F180729342A4
S315080137E052D003B030BD2C4A9342FAD12B4C808873
S315080137F0FFF750F800F0E2FC00F0E1FC4FF4FA6242
S315080138002749206803F0BFFB00234FF4FA61254AD4
S315080138102548009300F030FB05460028E1D02349EE
S31508013820206803F0B0FB2249206803F0ACFB00F0E6
S31508013830C5FC00F0C4FC1F4B1F4A204900932068B1
S31508013840BB2303F0A0FB2B461D4A1E49206803F043
S315080138509AFB284600F0DAFC1B49206803F093FB23
S315080138601249206803F08FFBFEE70379D0F8072099
S31508013870B0F80510181E18BF0120FEF7F3FFB0E7D0
S315080138808088FEF719FFACE7D0F806108088FEF7A6
S3150801389063FFA6E7A8001406A8001407441A002027
S315080138A03E710508B5370108F4190020FD5D0508C4
S315080138B0705C05082A7205087A710508835C050893
S315080138C08F5C0508925C050801720508014B188092
S315080138D0704700BF8E120020014B1888704700BF41
S315080138E08E12002037B501210020194A05F0ACFADD
S315080138F0044680B238B3174D1749286803F043FBCD
S315080139001649286803F03FFB00F058FC00F057FC05
S31508013910134B144A14490093A4B2CB23286803F025
S3150801392032FB2346114A1249286803F02CFB20462C
S3150801393000F06CFC0F49286803F025FB0649286846
S3150801394003F021FBFEE703B0BDE83040FFF7BEBF39
S31508013950AC730508441A0020FD5D0508705C05086E
S315080139608A73050858720508835C05083F730508BC
S31508013970925C0508CD7205087047000030B50368EA
S31508013980B24A23F47F4323F00703934204468BB0DC
S3150801399000F0EB8042D8AE4A934200F0AB800AD8D9
S315080139A002F17F42934200F0A18002F55012934240
S315080139B00CD00BB030BDA74A934200F0A08002F5A7
S315080139C080329342F5D1037B9B07F2D50023CDE9DB
S315080139D00133B4F80D20194600926289208920F036
S315080139E0F5F804460028E4D0012000F0C7FB0028BA
S315080139F0DFD0994D9949286803F0C5FA00F0DEFB36
S31508013A0000F0DDFB964A23469649286803F0BBFA7F
S31508013A10204600F0FBFB944A9449D2E0944A93422B
S31508013A2038D02FD802F17F42934200F0318102F556
S31508013A307F029342BDD10023CDE90133B0F80D20B1
S31508013A40194600924289008920F09EF8044600280A
S31508013A50AFD0012000F092FB0028AAD07E4D7F4905
S31508013A60286803F090FA00F0A9FB00F0A8FB7C4A4D
S31508013A7023467C49286803F086FA204600F0C6FBEF
S31508013A807C4A9DE07C4A934200F0A18002F580328F
S31508013A9093428ED10023CDE90233B4F80F2019469B
S31508013AA00192B4F80D2000926289208920F0D2F89B
S31508013AB0044600283FF47DAF012000F05FFB002893
S31508013AC03FF477AF644D6549286803F05CFA00F066
S31508013AD075FB00F074FB624A23466249286803F0C5
S31508013AE052FA204600F092FB644A95E70379002BC7
S31508013AF03FF45FAF0BB0BDE83040FFF7F3BEB0F857
S31508013B000D3006AD4C2B00D00BBBFFF7E5FEADF82B
S31508013B101600FFF731FF29464C200DF1160205F074
S31508013B204BF8A0B10023CDE9000562892089194621
S31508013B301FF0EAFF0446002C3FF43BAF012000F0DA
S31508013B401DFB00283FF435AF434D444968E0B4F8FE
S31508013B500D3003228DF818301B0A8DF81930002311
S31508013B6001958DF81A300092DFE700F110030293F0
S31508013B70C37B0193B0F80D3000930023428919469F
S31508013B8000891FF0DFFF044600283FF412AF012029
S31508013B9000F0F4FA00283FF40CAF2F4D2F4928689E
S31508013BA003F0F1F900F00AFB00F009FB2C4A234661
S31508013BB02C49286803F0E7F9204600F027FB304A2C
S31508013BC0304928680BB0BDE8304003F0DCB9FFF78F
S31508013BD083FE06ACADF81600FFF7CEFE21464C2053
S31508013BE00DF1160204F0E8FF00283FF4E2AE0023C7
S31508013BF0CDE900041A46194618461FF085FF40F21A
S31508013C0014539842044603D040F21553984292D170
S31508013C10042000F0B3FA00283FF4CBAE0E4D1A4942
S31508013C20286803F0B0F900F0C9FA00F0C8FA23468B
S31508013C300B4A0C49286803F0A6F9204600F0E6FA73
S31508013C40124A1049286803F09EF9B2E6A80047020D
S31508013C50A8001401A8004701441A0020F2720508B9
S31508013C608F5C0508925C05083773050846730508D5
S31508013C70A800480324730508A80047047B730508B0
S31508013C8016730508F7720508327305083F730508A8
S31508013C900023CDE90133B0F80D2019460092428977
S31508013CA000891FF0B5FF044600283FF482AE0120C3
S31508013CB000F064FA00283FF47CAE0A4D0A492868E8
S31508013CC003F061F900F07AFA00F079FA074A234617
S31508013CD00749286803F057F9204600F097FA054A7C
S31508013CE09AE600BF441A0020F27205088F5C05089F
S31508013CF0925C05086B730508036837B523F47F439F
S31508013D003A4A23F007039342044664D002F18272C9
S31508013D10934268D1B0F80510212964D10122344BA8
S31508013D2000791A70002219F09BFE054630B3314C12
S31508013D303149206803F027F93049206803F023F94F
S31508013D4000F03CFA00F03BFA2D4B2E4A00932E491F
S31508013D503F23206803F017F92B462C4A2C49206883
S31508013D6003F011F9284600F051FA2A49206803F0B0
S31508013D700AF92149206803F006F9FEE7207919F0C6
S31508013D803BFE054600282ED01A4C1B49206803F035
S31508013D90FAF81A49206803F0F6F800F00FFA00F06D
S31508013DA00EFA174B174A009317494323206803F065
S31508013DB0EAF82B46154A1649206803F0E4F828461E
S31508013DC000F024FA1349206803F0DDF80A4920684F
S31508013DD003F0D9F8FEE7064B1B7823B103B0BDE81B
S31508013DE0304004F0B1BD03B030BD00BFA0000601EC
S31508013DF0281A0020441A0020FD5D0508705C050894
S31508013E0037740508B6730508835C05088F5C0508D1
S31508013E10925C050826740508002209490B684BB10E
S31508013E20834204D1436A4AB15362012070471A4654
S31508013E305B6AF4E70028F5D0184670470B60F4E78B
S31508013E402C1A002010B5044690B104F027FA204632
S31508013E50FFF7E2FF58B194F8280040B101F0C1FF1D
S31508013E60044A1368013B136001F0C1FF002010BD2D
S31508013E702220FCE7301A00202DE9F04F85B00546CF
S31508013E80914698460E469DF8387009B9002F64D1B7
S31508013E902846FFF7D7FF044600283CD185F82800B5
S31508013EA0286304F049FB864239D904F015FB40F230
S31508013EB0E7318C462146E6FB00C14FF47A7260462B
S31508013EC000233FF0BDFF4FF0FF32002383468A46A9
S31508013ED03FF0B6FF4FF0FF32688600235846514639
S31508013EE03FF0AEFF2B46CDE9004411461C4A284651
S31508013EF004F06FFA044670B91A4AC5E907981368B7
S31508013F0085F82970EE6233B31A465B6A002BFBD13A
S31508013F10556200236B62204605B0BDE8F08F304636
S31508013F2003A957B104F0EAFA04460028F3D12B464F
S31508013F30CDE900000A4A0399D9E704F0DFFA0446F5
S31508013F400028E8D12B462846CDE90077044A03998B
S31508013F5004F01CFACEE71560DBE72124DBE700BF96
S31508013F60693F01082C1A002091F8283013B50C4630
S31508013F7083B90B8E4A8E93420ED243B9CDE90033EB
S31508013F8020460B46104A4FF0FF3104F0C9F9238E3B
S31508013F900133238602B010BD52B191F829307BB1A5
S31508013FA001230093D1E907232046C96AFFF764FF75
S31508013FB00123064A84F82830136801331360E9E7B8
S31508013FC0084604F06BF9F3E7693F0108301A002047
S31508013FD070B5104D2B681BB100260F4B1C6804B930
S31508013FE070BD94F8283093B101F0FBFE2B6884F874
S31508013FF02860013B2B6001F0FAFE94F8293013B9C9
S315080140002046FFF709FFD4E9073120469847646A35
S31508014010E5E700BF301A00202C1A0020034B1B6865
S31508014020002B0CBF01200420704700BF301A002066
S31508014030024B1868B0FA80F040097047301A002020
S3150801404004210022024B19711A6019739A6070478C
S31508014050341A00202DE9F843204B05461B78ABB9E5
S315080140604FF00208DFF87C901D4C59F8043BAB422F
S3150801407007D1284600F0F1FA01280CD104F006FA16
S315080140802060B8F1010F04F1080401D1BDE8F883F5
S315080140904FF00108E9E7284600F0DFFA074600284D
S315080140A0EFD104F0F3F92368C61AFA2004F01AFAD4
S315080140B0B04201D92771E4E74FF47A7004F012FA95
S315080140C0B04202D901232371DBE741F2883004F0BB
S315080140D009FAB0428CBF02230323F4E790120020A9
S315080140E0341A00208012002010B5094C21790429C0
S315080140F004D00020FEF7A6F904232371217B0429A5
S3150801410004D00120FEF79EF90423237310BD00BFD6
S31508014110341A0020054B1A783AB90121197004217D
S31508014120034B19711A6019739A607047901200202F
S31508014130341A0020054B187838B9054B1A79042A20
S3150801414003D1187B031F584258417047901200202B
S31508014150341A0020074B1B7843B9074B18790428F2
S3150801416006D11B7B042B08BF01207047012070472D
S315080141700420704790120020341A00200B4B024687
S315080141801B788BB10A4B1B78834234BF0020012070
S31508014190084B1B783BB1084B1B7843FA02F212F025
S315080141A0010F08BF002070470120F1E79112002096
S315080141B092120020481A0020931200207047704777
S315080141C0012208B5074B1A700022074B1A70042200
S315080141D0064B1A701F22064B1A7002F09BFE054BFE
S315080141E0186008BD91120020481A0020921200207A
S315080141F093120020441A0020024B0349186802F062
S31508014200C2BE00BF441A00205774050870B50C4C8D
S315080142100C490646206802F0B6FE02F07BFE05460A
S31508014220206802F06BFE3046FFF7E6FF284602F0EB
S3150801423065FE20680449BDE8704002F0A4BE00BFCF
S31508014240441A0020597405085B7405080F20704745
S3150801425008B501213A2000F00BFFFEF780FBBDE807
S31508014260084000F005B801213A2000F001BF00001E
S315080142702DE9F041484C8EB0264601AD0FCE0FC54B
S31508014280336814342B6006AD0FCC0FC594E80F00C4
S3150801429085E80F0001213A2000F0EAFE01215720A6
S315080142A000F0E6FE4FF480733C4EADF81C303C4BF3
S315080142B03046039301A906AB059302F00FF80123D3
S315080142C004220321022002F02BF9022100230846C9
S315080142D0012202F025F9012304221946022002F0DF
S315080142E01FF9042200210123022002F019F92D4C9D
S315080142F02D4B0125C4F8C8344FF00213C4F8C43451
S3150801430003F58033C4F8CC341C2304F50058C4F8EB
S31508014310B4344FF4487004F0EFFA04F580571420CA
S31508014320C8F8A05004F0E8FA2320C7F8A05004F012
S31508014330E3FAB9213046C8F8A05001F050FF00232E
S3150801434003211A460220C7F8A05002F0E9F8002313
S3150801435002211A46084602F0E3F82B4629460022AE
S31508014360022002F0DDF800222B461146022002F057
S31508014370D7F8304601F004FF00215720C4F8C814C5
S31508014380C4F8C414C4F8CC14C4F8B41400F070FE0C
S315080143900EB0BDE8F08100BF6074050800000A5040
S315080143A0E070720000C0035002000100FEE7000041
S315080143B008B500F02DF8124B12498B4212D3002092
S315080143C0114B12498B4218D3FDF7F6FE186850F8BF
S315080143D02240586840F82240013298688242F5D353
S315080143E00C33EAE70022F8E71C6844F82200013298
S315080143F05C68A242F8D30833E4E70022F8E700BF75
S3150801440050D905085CD905085CD905085CD90508A1
S315080144104FF480414FF0FF30114B124A10B59A60A4
S31508014420D3F8882042F47002C3F888200E4A9166B0
S315080144300E4901F5005210660D4850660220C3F870
S31508014440D000BFF34F8FBFF36F8F01244FF4403372
S315080144500848C0F88041D36004600B6110BD00BFF5
S3150801446000ED00E0002001080090005000800044A3
S31508014470F7FF370000E100E0014B1868704700BFFD
S3150801448098120020084B1B6F03F00703022B04D078
S31508014490032B05D0012B05D0FEE7044B186870479E
S315080144A0034BFBE703487047008000509812002031
S315080144B09C120020002D310108B5FFF7E3FF054BDB
S315080144C01B6FC3F303330133B0FBF3F0024B1860E0
S315080144D008BD00BF008000509412002000487047B4
S315080144E000B4C404014B1868704700BF9C12002031
S315080144F0054B1860054B1B6F03F00703032B01D10E
S31508014500FFF7DABF704700BF9C12002000800050F9
S315080145100020704700487047002D31014FF0B44321
S315080145209868C0F304400C2822D8DFE800F0092176
S3150801453021212121071719211B1D1F000F4870472B
S315080145409B6803F04073B3F1807F13D0B3F1007F0A
S3150801455012D00B4A002B08BF10467047094870470E
S31508014560094870470948704709487047094870471C
S31508014570002070470848704708487047405DC600E4
S3150801458000093D000024F400C0EA210180BA8C012B
S315080145900048E801005A620280841E0040420F006A
S315080145A04FF4004070474FF47A707047014B186812
S315080145B0704700BFA01200204FF000639B6A10B538
S315080145C003F17842B2F5903F0AD2084C227812F0EC
S315080145D0FD0F08D1DB69984708B90123237010BD7F
S315080145E04FF48170FBE70020F9E700BF491A002064
S315080145F04FF00053074A1A60BFF34F8F0649074B1E
S31508014600CA6802F4E0621343CB60BFF34F8F00BF61
S31508014610FDE700BF02020FF000ED00E00400FA0515
S3150801462000230360704703680B6001607047000050
S3150801463005490A681318054883428CBF4FF0FF32B3
S315080146400B601046704700BFA4120020000004202A
S31508014650436803B1184722207047436903B11847D5
S31508014660FF20704710B40A681378022B11D0142062
S315080146703023147913FB040307481B585079C340A8
S31508014680DB4303F00103137008465DF8044BFFF79B
S31508014690E1BC5DF8044B704730C0035037B5046878
S315080146A0012105463A2000F0E3FC00230122617945
S315080146B0207901F035FF14223023217913FB0123D8
S315080146C00E4A9B586279D340DB4303F001032370FA
S315080146D0A379022B0ED100F055F92A4608496079CB
S315080146E000F07AF90123024661792079CDE9003390
S315080146F001F0BEFE002003B030BD00BF30C003503C
S31508014700654601080368187870470000026813783F
S31508014710022B24D014213023107913FB00131049DE
S315080147205B585179CB40917903F00103012912D1E4
S31508014730508843EA40034FF6E07063F03F039BB2AB
S31508014740834202D11170538070474FF6DF718B4255
S31508014750F9D10021F6E711B983F001031370704707
S3150801476030C0035003681A78022A03D100225A80FE
S31508014770FFF794BF704713B504682378022B10D04E
S31508014780A379022B0BD10021607900F013F90023DC
S31508014790627920791146CDE9003301F069FE0223D9
S315080147A0237002B010BD00002DE9FF4103680446DD
S315080147B0B3F1B64F04D0354A934251D12F2000E0C8
S315080147C02E20012100F054FC01230A226179207967
S315080147D001F0A6FE01230A22E179A07901F0A0FEE3
S315080147E0092701262A4D4FF030082279637908FBFB
S315080147F0025206FA03F302F501521360642004F02B
S315080148007BF82379627908FB035306FA02F203F56A
S31508014810825364201A6004F06FF8013FE3D12068DF
S31508014820B0F1B64F1FD10323C5F8E834627923796D
S3150801483043EA0243C5F8EC34E279A37943EA024331
S31508014840C5F8F03440F20113ADF80030E368694663
S315080148500293A3680193237C8DF80C3001F0E6FEE0
S3150801486004B0BDE8F081094B9842EBD10323C5F8A2
S31508014870F8346279237943EA0243C5F8FC34E279CC
S31508014880A37943EA0243C5F80035DBE70080065001
S3150801489000C00350D0E90003184710B504460121AA
S315080148A03A2000F0E5FBA3782078B3FA83F30422D3
S315080148B061785B0901F034FE002010BD10B50122B4
S315080148C043780178847830209A40054B00FB013300
S315080148D01CB903F501531A6010BD03F58253FAE7B3
S315080148E000C0035010B5012243780178847830203E
S315080148F09A40054B00FB01331CB903F582531A6034
S3150801490010BD03F50153FAE700C0035001224378AD
S3150801491001789A4030235943014B5A50704700BFDA
S3150801492040F00350102130230246007813FB001390
S31508014930054950785B58C34003F0010093780BB9D9
S3150801494080F00100704700BF30C0035070B50446BF
S3150801495001250B4E04B970BD94FAA4F0B0FA80F0A3
S3150801496005FA00F306EB001224EA03045368002B48
S31508014970F0D0117B11B191689847EBE79847E9E7C1
S315080149804C1A002008B5192001F034FA28B14FF065
S315080149900072074BC3F880211A601A2001F02AFA1F
S315080149A028B14FF08062024BC3F880211A6008BD16
S315080149B000E100E038B505460C4601F012FA00227E
S315080149C0044B03EB05135C601A73BDE8384001F02C
S315080149D00EBA00BF4C1A0020F8B505460F46164612
S315080149E001F0FFF9104B05F0FC02D3F8241400235B
S315080149F0EC1804F00304144321FA04FC1CF0010F1B
S31508014A0007D00133042BF3D1FF2401F0F0F9204636
S31508014A10F8BDFF2CF9D00122044B03EB0413C3E9BB
S31508014A2001761A73F1E700BF00C003504C1A002043
S31508014A30074BD3F82404D3F8202403F50053104078
S31508014A4000F0553020F05020C3F82004FFF77EBF50
S31508014A5000C00350074BD3F82404D3F8202403F5E8
S31508014A600053104000F0AA3020F0A020C3F820041B
S31508014A70FFF76CBF00C00350024B1968024B186858
S31508014A8037F064B8AC120020A81200207047000065
S31508014A9037B5920004460D46019241F0D5F8431CFC
S31508014AA00BD060B929462046019A3FF0A9FB002898
S31508014AB0044808BF002003B030BD0348FBE703489C
S31508014AC0F9E700BF10E000F021E000F024E000F073
S31508014AD013B5044601A801F029FE9DF80630012206
S31508014AE023804FF4807300206380054B9B680A334B
S31508014AF003F01F0302FA03F3636002B010BD00BF9F
S31508014B000080E00F01F0C4BD08B501F0B1FD002039
S31508014B1008BD10B5044644EA010313F00303084629
S31508014B2009D1934201D1002010BD54F8231040F851
S31508014B3023100133F5E7214692003FF071FBF2E7B6
S31508014B4010B5044641F088F8431C15D0B0B90C4B92
S31508014B5020469B680A3303F01F020123934023F082
S31508014B6003032344984201D1002010BD50F8042BB9
S31508014B700132F7D00348F8E70348F6E70348F4E7B4
S31508014B800080E00F0EE000F021E000F024E000F0E4
S31508014B9008B501F01FF9014B186008BDE022002095
S31508014BA0014B186801F01AB9E02200200A460139BA
S31508014BB0014402F00DBE0000044BD3F88420D2064E
S31508014BC0FBD4D3F88400C0F381107047004000502D
S31508014BD038B5174B0546D3F820310C4603F00703C1
S31508014BE0013B052B20D8DFE803F0030B130F171B36
S31508014BF0FFF742FC052305B1286004B1236038BDDF
S31508014C00FFF770FC0323F6E7FFF788FC0723F2E7B3
S31508014C10FFF780FC0223EEE7FFF72EFC0623EAE7FF
S31508014C20FFF760FC0423E6E700231846E3E700BF25
S31508014C300080005038B5174B0546D3F828310C4685
S31508014C4003F00703013B052B20D8DFE803F0031324
S31508014C501B0F0B17FFF710FC052305B1286004B1DC
S31508014C60236038BDFFF708FC0623F6E7FFF756FC75
S31508014C700723F2E7FFF736FC0323EEE7FFF732FCDB
S31508014C800423EAE7FFF746FC0223E6E70023184672
S31508014C90E3E700BF0080005073B50D460021114BB4
S31508014CA00191D3F88041064604F00304022C13D07F
S31508014CB0032C0CD0012C13D101A8FFF789FF10246E
S31508014CC00EB1019B336005B12C6002B070BDFFF7D0
S31508014CD025FC07240190F3E7FFF71CFC0190EFE799
S31508014CE00C46EDE700800050002337B50193154BBC
S31508014CF00546D3F820320C4603F00703013B032B84
S31508014D001ED8DFE803F0020E1318002101A8FFF7E9
S31508014D1091FF12230DB1019A2A6004B1236003B0F1
S31508014D2030BDFFF7FBFB07230190F3E7FFF738FCDC
S31508014D300A230190EEE7FFF739FC09230190E9E719
S31508014D400023E7E70080005038B5104B0546D3F835
S31508014D5040310C4603F00303022B0BD0032B0DD075
S31508014D60012B0FD1FFF71CFC0A2305B1286004B1FA
S31508014D70236038BDFFF71AFC0923F6E7FFF713FC92
S31508014D800C23F2E700231846EFE700BF0080005026
S31508014D90002337B50193164B0546D3F860320C4606
S31508014DA003F00703013B032B1FD8DFE803F0020ECC
S31508014DB01914002101A8FFF70BFF10230DB1019A61
S31508014DC02A6004B1236003B030BD002101A8FFF7B2
S31508014DD0BBFF1123F2E7FFF7A1FB07230190EDE7DC
S31508014DE0FFF798FB02230190E8E70023E6E700BFF7
S31508014DF000800050002337B50193164B0546D3F8BA
S31508014E0094320C4603F00703013B032B1FD8DFE856
S31508014E1003F0020E1914002101A8FFF7D9FE102389
S31508014E200DB1019A2A6004B1236003B030BD002197
S31508014E3001A8FFF789FF1123F2E7FFF76FFB0723A5
S31508014E400190EDE7FFF766FB02230190E8E70023EF
S31508014E50E6E700BF0080005038B5134B0546D3F886
S31508014E6000320C4603F00703013B032B18D8DFE891
S31508014E7003F0020A0E12FFF793FB0A2305B1286015
S31508014E8004B1236038BDFFF791FB0923F6E7FFF765
S31508014E908AFB0C23F2E7FFF70FFB0F23800AEDE7E6
S31508014EA000231846EAE700BF0080005038B5134BC7
S31508014EB00546D3F808320C4603F00703013B032BDA
S31508014EC018D8DFE803F0020A0E12FFF769FB0A2376
S31508014ED005B1286004B1236038BDFFF767FB0923D4
S31508014EE0F6E7FFF760FB0C23F2E7FFF7E5FA0F2376
S31508014EF0800AEDE700231846EAE700BF0080005064
S31508014F0038B5104B0546D3F840320C4603F0030377
S31508014F10022B0BD0032B0DD0012B0FD1FFF740FB32
S31508014F200A2305B1286004B1236038BDFFF73EFBAB
S31508014F300923F6E7FFF737FB0C23F2E700231846A8
S31508014F40EFE700BF0080005038B5104B0546D3F88F
S31508014F5060310C4603F00303022B0BD0032B0DD053
S31508014F60012B0FD1FFF71CFB0A2305B1286004B1F9
S31508014F70236038BDFFF71AFB0923F6E7FFF713FB92
S31508014F800C23F2E700231846EFE700BF0080005024
S31508014F9070B5054614460E4600F01CFF296881EADD
S31508014FA0040202EA06044C402C60BDE8704000F099
S31508014FB015BF0000B0F5207F1FD009D8B0F5007FD6
S31508014FC015D003D868B1B0F5C07F0AD000200CE02F
S31508014FD0B0F5607FFAD10B4BD3F88000C0F301100E
S31508014FE003E0084B186FC0F3033001307047054BD7
S31508014FF0D3F89000C0F30460F7E7024B186FC0F3CB
S315080150008020F2E70080005002464FF48030104BB2
S3150801501010B598660020FFF7CDFF504341F671326F
S315080150200C4BDC69DA635A6804F4803422F44012C2
S3150801503059B9094988428CBF4FF4801000201043A2
S3150801504058600CB10022DA6310BD0449F2E700BFCB
S315080150500090005000000350005A6202002D3101F1
S3150801506008B5FFF73BFABDE808400021FFF7CCBFBA
S31508015070430905D0012B0DD0022B094B18BF00237C
S3150801508000F01F0041B103F58053012202FA00F036
S3150801509018607047034BF3E703F50053F5E700BFC4
S315080150A068800050648000501FB50022802804469D
S315080150B0019200F0BA8048D8002800F0BA80A0F121
S315080150C020043D2C54D83D2C52D8DFE814F0B20008
S315080150D0BE00B200BE00D700D700D700D700D70060
S315080150E0BE00E1005B00F70081005B00BE00BE0068
S315080150F0BE005100510051005100510051005100AC
S315080151005100BE00BE00BE0089000101BE0051006B
S3150801511051005100510051005100510051005100F8
S315080151205100510051005100D700B200B200B2003F
S31508015130FC005B005B00060198006C00DC00510076
S315080151405100510051005100A900B0F5B06F00F0AF
S315080151509F802DD8B0F5207F77D00CD8B0F5C07FC9
S3150801516067D0B0F5007F67D0B0F5807F00F09580F5
S31508015170019804B010BDB0F5607F6CD00DD8B0F5BC
S31508015180407FF5D1FFF798F902464FF42070FFF7F3
S3150801519011FFB2FBF0F0400849E0B0F5806F6DD021
S315080151A0B0F5A06FE4D1002101A8FFF79DFDDFE767
S315080151B0B0F5106F00F0878017D8B0F5E06F00F0F2
S315080151C087800AD8B0F5C06F78D0B0F5D06FCFD147
S315080151D0002101A8FFF740FECAE7B0F5F06FC7D175
S315080151E0002101A8FFF7B0FEC2E7B0F5406F4AD02B
S315080151F013D8B0F5206F70D0B0F5286FB8D100215B
S31508015200384B0391D3F8703203F00303012B02D113
S3150801521003A8FFF799FD039B49E0B0F5486FA7D1AD
S31508015220002101A8FFF7E6FDA2E7FFF72BF9019098
S315080152309EE7FFF741F9FAE7FFF724F90246204608
S31508015240FFF7B8FEB2FBF0F0F1E7FFF735F90246D2
S315080152504FF42070F4E7234BD3F8803003F00303AF
S31508015260012B04D0022B06D04FF46070E8E7FFF754
S3150801527009F90246F8E7FFF751F9FAE7002101A80B
S31508015280FFF7A6FC74E7002101A8FFF7D3FC6FE737
S31508015290002101A8FFF700FD6AE74FF0E02302921B
S315080152A01B695B0705D5FFF707F90290029B019376
S315080152B05EE703A902A8FFF747FDF7E7002101A862
S315080152C0FFF742FD54E7002101A8FFF7EFFD4FE77D
S315080152D0002101A8FFF714FE4AE7002101A8FFF7FC
S315080152E057FD45E70080005008B58020FFF7DCFE32
S315080152F0034B98429EBF4FF48032024B1A6708BD92
S31508015300005A620200A000501FB50023B0F5807F45
S31508015310019300F0C38064D85D2855D84C2807D876
S315080153202D2847D823282BD8019805B05DF804FB0A
S315080153304D381028F8D801A353F820F093540108E2
S31508015340295301082953010829530108455401081D
S3150801535029530108295301083155010863540108E5
S315080153600954010827550108295301082953010839
S315080153702953010829530108295301083B550108F6
S3150801538024380928D0D801A353F820F093540108EA
S31508015390935401089354010893540108935401083E
S315080153A0295301088954010829530108255401087C
S315080153B0C95401083D2800F082803E28B4D1002056
S315080153C001A9FFF79DFDAFE78028ADD1604B1B6FA3
S315080153D003F00703013B032BA6D8DFE803F053507C
S315080153E0878FB0F5F06F6AD021D8B0F5B06F4BD082
S315080153F00FD8B0F5607F00F0858095D3B0F5806F42
S3150801540047D0B0F5A06F8FD1002001A9FFF76CFC3A
S315080154108AE7B0F5D06F57D0B0F5E06FCFD0B0F5C9
S31508015420C06F81D1002001A9FFF78EFC7CE7B0F59A
S31508015430206F7DD00BD8B0F5086F4AD0B0F5106F44
S315080154407FF472AF002001A9FFF730FD6CE7B0F5D4
S31508015450406F68D0B0F5486F6FD0B0F5286F7FF40C
S3150801546063AF00213A4B0391D3F8703203F003037B
S31508015470012B67D0022B14BF0B46152300E0052329
S31508015480019351E70223FBE7002001A9FFF704FC7A
S315080154904AE7002001A9FFF79BFB45E702934FF076
S315080154A0E0231B695B0705D5FFF706F80D23039370
S315080154B0039BE5E703A902A8FFF746FCF8E70020E6
S315080154C001A9FFF741FD2FE7002001A9FFF7C4FC59
S315080154D02AE71F4BD3F8003103F00303022B07D049
S315080154E0032B09D0012B0BD1FEF7FCFF0323C7E7DA
S315080154F0FFF75CF80923C3E7FFF70AF80823BFE7B4
S315080155000123BDE7124AD2F8802002F00302012ADC
S3150801551005D0022AB4D1FFF701F80723B0E7FEF751
S31508015520B1FF0E23ACE7002001A9FFF783FBFBE6D9
S31508015530002001A9FFF72CFCF6E6002001A9FFF7D8
S3150801554059FCF1E603A8FFF7FFFB112398E700BF13
S315080155500080005008B5FFF7D7FE092811D00A3890
S31508015560012811D84FF48002094B4FF6FF705A668D
S3150801557003F5D8335B6A13F0010F18BF4FF4FA70BD
S3150801558008BD044B1888FBE74FF6FF70F8E700BF24
S3150801559000900050CE12002038B504468020FFF74F
S315080155A0B3FE032800F083804FF48012504B4FF06E
S315080155B0A0615A6645F60E034E4AC2F880304E4B34
S315080155C099624FF4803103F580539962916D11F414
S315080155D08031FBD1D4E900031B0543EA0063E07B74
S315080155E00343207B43EA0043607B43EA0033A07B05
S315080155F043EA801313619069D4E904531B0643EA0D
S31508015600856300F000400343A07EE57E0343207EC8
S3150801561043EA0043607E43EA00239361E069136A23
S3150801562000280CBF0022082223F00F0343EA0003D7
S3150801563043EA850343EA02032E4A304D136237D102
S3150801564094F82430916A94F82000DB000D4043EA6F
S31508015650401394F821102B4343EA011343F4803392
S315080156609362274B916D33EA0101FBD14FF08071AB
S31508015670214881621369A56823F4700343EA055337
S3150801568013614FF00043836194F822300BB91D4B27
S31508015690996294F823301BB94FF48032194B9A62F8
S315080156A094F825301BB1134B174AC3F8802038BD2F
S315080156B0022808D11161154891614FF408524FF437
S315080156C07F41FFF765FC0B4994F822308A6A94F802
S315080156D020001B06154043EA401394F824202B4367
S315080156E043EAC20394F8232043EA02438B62D7E7CD
S315080156F0009000500040005A0050005AC7FFFEFEB5
S31508015700030001000060005AF1A7FFFF3440005A68
S31508015710014B93F900007047CC120020F0B5D0E98F
S3150801572001434FF400061A4A4178057856664FF444
S31508015730D156022702F5B8325662164E4F297760BE
S315080157404FF0010728BF4F2106F580567760166985
S31508015750F603FCD441EA052151611B01417B43EA69
S3150801576004230B43017B43EA41039360C37B817B9B
S315080157701B0143EA4113417C0B43017C43EA410384
S315080157805360837C13B16FF4D1535362F0BD00BFEC
S315080157900090005000100250014B1880704700BF5E
S315080157A0CE1200204FF4800208B5184B5A66022320
S315080157B0174A5360936813F48033FBD1012822D129
S315080157C0FEF790FE134B984215D003F5122303F505
S315080157D0F863984213D0104B00EB8002400AB3FBE2
S315080157E0F0F0520A0A4BDA62012218635A62002261
S315080157F0074B5A6008BD45F67A10084AF2E745F69E
S315080158001A00074AEEE75362F1E700BF009000501D
S315080158100040025000F0490264666666D8B8050081
S31508015820BBCF05000029CCBF01210021FFF7ECBB46
S31508015830B0F5207F10B50C4657D008D8B0F5007FD3
S3150801584048D003D830B3B0F5C07F23D010BDB0F52A
S31508015850607FFBD129492A48D1F8FC2012F08072D1
S315080158601EBFD1F8FC3023F08073C1F8FC30D0F8A4
S315080158708030611E23F0300444EA0114C0F88040E8
S31508015880002AE3D01D4AD2F8FC3043F08073C2F8EF
S31508015890FC30DBE7FFF7E4FB00F036F84FF4803124
S315080158A0184B174A1967136F611E23F4704444EAAB
S315080158B001341467FEF700FE0446FFF77DF9C0F1CF
S315080158C002012046FFF7AEFF00F024F8BDE81040BC
S315080158D0FFF70ABD0A4A0139D2F8903023F0F85485
S315080158E044EA0164C2F89040B0E7054B013C196FE0
S315080158F021F4806141EA84241C67A7E700ED00E0F2
S31508015900008000500090005002214FF42070FFF7EC
S315080159108FBF000008B54FF4C070FFF7C5FBBDE89F
S315080159200840044988428CBF022101214FF42070A6
S31508015930FFF77EBF80F0FA02B0F5807FF8B50C4616
S3150801594000F04E816BD85D285DD84C2804D82D28E7
S3150801595044D8232828D8F8BD4D381028FBD801A3E8
S3150801596053F820F0C15B0108575901085759010836
S3150801597057590108BB5A01085759010857590108CF
S31508015980755D0108F35A01084B5A0108555D01086E
S315080159905759010857590108575901085759010814
S315080159A057590108955D010824380928D3D801A358
S315080159B053F820F0C15B0108C15B0108C15B01080E
S315080159C0C15B0108C15B010857590108A15B0108C0
S315080159D057590108815A01088F5C01083D2800F0D2
S315080159E046813E28B7D1093C032C8CBF0021B04B18
S315080159F0B04A98BF195DD2F8403223F003030B432E
S31508015A00C2F84032A7E78028A5D18B1E062B00F2E3
S31508015A10C480DFE803F0BFADC27EC2C2BC00B0F5E8
S31508015A20F06F00F024813BD8B0F5B06F00F0B88074
S31508015A301BD8B0F5607F00F067818CD3B0F5806F15
S31508015A4000F0BE80B0F5A06F85D1073C0B2C8CBF4A
S31508015A500021994B974A98BF195DD2F8203223F055
S31508015A6007030B43C2F8203275E7B0F5D06F00F093
S31508015A700E81B0F5E06FB6D0B0F5C06F7FF46BAFAD
S31508015A80093C032C8CBF00218C4B8A4A98BF195DAF
S31508015A90D2F8403123F003030B43C2F840315AE7E9
S31508015AA0B0F5206F00F0668117D8B0F5086F00F0E1
S31508015AB01B81B0F5106F7FF44EAF093C062C8CBFE5
S31508015AC000217F4B7B4A98BF195DD2F8083223F033
S31508015AD007030B43C2F808323DE7B0F5406F00F003
S31508015AE03981B0F5486F00F05581B0F5286F7FF41C
S31508015AF032AF112C00F05E81152C14BF0021022152
S31508015B006C4AD2F8703223F003030B43C2F87032A1
S31508015B1021E7002502264FF480370121022000F0F3
S31508015B20C7F9FFF79DFAFFF7EFFE664B614A1F6754
S31508015B30136F23F0070333431367FEF7BDFC0646CD
S31508015B40FFF73AF8C0F102013046FFF76BFE012173
S31508015B50002000F0EDF9FFF7DDFEFFF7C5FB002D8C
S31508015B607FF4F9AE032C7FF4F6AE574B9F62F2E64B
S31508015B704FF48012534B0E465A664FF48032534BFC
S31508015B809D6A03F58053C5F300659A62C3E700254C
S31508015B900426C0E700250126BDE700252E46BAE7FB
S31508015BA0023C0E2C8CBF0021494B424A98BF195D15
S31508015BB0D2F8803123F003030B43C2F88031CAE6D9
S31508015BC0023C052C8CBF0021424B3A4A98BF195D0D
S31508015BD0D2F8203123F007030B43C2F82031BAE685
S31508015BE0A1F10904082C3FF6B6AE01A353F824F037
S31508015BF0155C0108155C010857590108155C01086F
S31508015C00435C0108575901085759010857590108B2
S31508015C10155C01084FF48032264B2F49586E03F55F
S31508015C2080535A664B6A43F001034B62C1035CBF5A
S31508015C302A4B5A664FF0E022136923F004031361D5
S31508015C4089E64FF480321B4B2349586E03F580537E
S31508015C505A664B6A23F001034B62C3035CBF1F4BB1
S31508015C605A664FF0E022136943F00403E7E7093C5B
S31508015C70032C8CBF00211A4B0E4A98BF195DD2F826
S31508015C80603123F003030B43C2F8603163E6093C34
S31508015C90062C8CBF0021134B064A98BF195DD2F812
S31508015CA0003223F007030B43C2F8003253E600BF64
S31508015CB01D75050800800050387505081D7505080D
S31508015CC021750508009000500060005A0040005AEE
S31508015CD0087505081775050800C0075000A000508B
S31508015CE01D75050821750508CC1E062C8CBF0021DB
S31508015CF0314B324A98BF195DD2F8003123F00303BC
S31508015D000B43C2F8003126E62D49063CD1F8FC20A2
S31508015D1012F080721EBFD1F8FC3023F08073C1F8EF
S31508015D20FC30082C8CBF0020264B244998BF185DEF
S31508015D30D1F8803023F003030343C1F88030002AE9
S31508015D403FF409AE1E4AD2F8FC3043F08073C2F81C
S31508015D50FC3000E6023C052C8CBF00211A4B174A81
S31508015D6098BF195DD2F8283123F007030B43C2F80F
S31508015D702831F0E5023C0F2C8CBF0021134B0F4A4A
S31508015D8098BF195DD2F8603223F007030B43C2F8B6
S31508015D906032E0E5023C0F2C8CBF00210C4B074A10
S31508015DA098BF195DD2F8943223F007030B43C2F862
S31508015DB09432D0E50121A3E6287505080080005034
S31508015DC000ED00E02F7505081775050844750508E7
S31508015DD044750508EFF3108072B6704700B962B6CC
S31508015DE07047EFF31180302383F31188704780F3EE
S31508015DF011887047054B420953F8223000F01F00FD
S31508015E0023FA00F0C04300F00100704700E100E00A
S31508015E10024A536B0342FCD1704700BF0040095048
S31508015E20044A4178536F23F4407343EA01235367C5
S31508015E30704700BF00400050704770470A4A10B5C6
S31508015E401369044643F00403136102F067F8FFF788
S31508015E50F3FF30BFFFF7F1FF02F074F81CB9BDE894
S31508015E601040FEF729BB10BD00ED00E0084A10B549
S31508015E701369044643F00403136102F04FF830BF77
S31508015E8002F060F81CB9BDE81040FEF715BB10BD5D
S31508015E9000ED00E070477047034A0179D36E23F09D
S31508015EA030030B43D366704700400050704700002B
S31508015EB0F8B504461C4BD3F88420D106FBD4D3F895
S31508015EC08430C3F381139C422CD0FEF7DBFA012CF4
S31508015ED0064602D12146FFF7A5FCFFF77BFF4FF0E7
S31508015EE00072124B07465A662046FFF7DFFF4FF44A
S31508015EF080630D4D621E93402B676B6E9A0103D426
S31508015F00D5F884309B060AD53846FFF767FF022C79
S31508015F1008D13046BDE8F8400021FFF783BCD5F823
S31508015F208430EAE7F8BD00BF004000500060005029
S31508015F3007B518B90191FEF7A5FA0199064B1B7821
S31508015F4043B1064B984205D8012003B05DF804EB2E
S31508015F50FFF7AEBF0220F8E794230020005A620239
S31508015F600278034B012100201A70FFF7E1BF00BF39
S31508015F70942300204FF00042154B10B55A664AF695
S31508015F80CD3314494C6C0B6404F0010488B9012023
S31508015F90FFF73EFF4B68DB0704D50F4B58600B6BC9
S31508015FA0D807FCD514B10B4B0C4A1A6436F011FF0D
S31508015FB010BD0B6B1A07FCD42022074B9A620122EB
S31508015FC0A3F580535A60034A936A9B06FCD5E9E711
S31508015FD00090005000400950006009503254FFFFFC
S31508015FE04FF0004238B5164B01465A664AF6CD338C
S31508015FF0144C154A656C236443780B205B0043F007
S315080160000103D363FFF704FF63688A7823F4F873FF
S3150801601043EA02136360CA784B7943EA0223A36011
S315080160200A798B7943EA022323610878FFF7A2FFED
S31508016030EB0744BF054B236436F0CBFE012038BD80
S315080160400090005000400950004000503254FFFFB4
S315080160504FF00042124B70B55D6E03F580535A66D8
S315080160604AF6CD3304460F4980204E6C0B64FFF780
S31508016070CFFE0B6A23F00F030F2C94BF234343F083
S315080160800F030B62F30744BF074B0B64002DA2BF36
S315080160904FF00042054B5A6636F09BFE70BD00BFB5
S315080160A000800050004009503254FFFF00A0005004
S315080160B04FF00042104B70B55D6E03F580535A667A
S315080160C04AF6CD3304460D4980204E6C0B64FFF722
S315080160D09FFE0B6A23F4F85343EA04230B62F30782
S315080160E044BF074B0B64002DA2BF4FF00042054B7E
S315080160F05A6636F06EFE70BD0080005000400950A9
S315080161003254FFFF00A00050436D0B42FCD170478B
S3150801611008B54368DA0714D58368DB0702D503692E
S31508016120D90707D50A2350218363FFF7EDFF836C4F
S315080161309A07FCD1012200F500535A6043689B0770
S31508016140FCD408BD38B50C460121024600F580533A
S31508016150596004F00F0540F6FF71FFF7D5FF782166
S315080161608563FFF7D1FF04F00103610748BF43F0D8
S315080161700203916C01F003019942FAD138BD00007E
S3150801618010B5FFF7C5FF042300F5805100F500524D
S315080161900B6113610B6113610B6113610B61136170
S315080161A0202341F2020103610023C3608360416138
S315080161B04FF4A0218361836541620549C361036286
S315080161C08362C36243630365D164036310BD00BF81
S315080161D0FF3F0D0309B9FFF79BBFFFF7B3BF836CF9
S315080161E05A06FCD54164836C1B06FCD5C06B80B28C
S315080161F070470000F8B505461446084641B9344BC0
S315080162009D422FD0334B9D4208BF5720FEF74CFFC6
S31508016210AB68DE072ED5B0FBF4F46E68013C16F0C8
S31508016220010625D028212846FFF76EFFAB6C990792
S315080162301AD1AB6CDA0719D4AB6C13F0020F0CBF89
S31508016240002706272846FFF763FF286920F07F40C5
S3150801625040EA04642C61DEB139462846BDE8F840B7
S31508016260FFF7B8BF5620D1E70527EBE70927E9E786
S315080162703746EAE76B68AB6DAF68DB0707F0E007FF
S3150801628048BF6400402F1BD003D8DFB1202F1BD095
S31508016290F8BD602F1AD0802FFAD1012604FB06F328
S315080162A04101B1FBF3F30C4A203B02EAC30228463B
S315080162B00121FFF729FF2A63BDE8F840FFF724BF4C
S315080162C00626EBE71026E9E70826E7E70426E5E7C9
S315080162D00000015B00000A50F8FF7F00436870B5B3
S315080162E004460D460E691BB140F6FF71FFF70CFF18
S315080162F02046FFF745FF22696B7BA97B22F08702BF
S315080163000B43134343F08003236116B32A692369B8
S31508016310117823F0F8030B43117F43EAC11311796E
S3150801632043EA4113517A43EA0113D17B43EA8113C4
S315080163302361E168D2E9053021F0F04121F47021A9
S3150801634003430B43117B527B43EA812343EAC2335E
S31508016350E360A368EA7B23F00303134343F00103D5
S31508016360A3602EB32A69A168538803F4C0430B437B
S31508016370A3605179A36843EA8123A3609379D0790D
S31508016380616A1B01000203F0700300F4E06021F466
S31508016390772121F4EE6103430B43117A527F0903F6
S315080163A001F4E04112040B4302F4702213436362C1
S315080163B063692A7B23F00F0313436361B6B12B6923
S315080163C05A89A2615A7B3AB11D4A944224D19A7BD1
S315080163D01C4902F00F024A67DA7B3AB1184A94421D
S315080163E024D11B7C174A03F00F031367D5E9011261
S315080163F02046FFF7FFFE05212046FFF7A3FE2821C9
S31508016400FFF782FE2B78A363FFF77EFEA36CDB43BF
S3150801641013F4405FFAD170BD0B4A944201BF9A7BCF
S31508016420084902F00F02C1F88020D5E7064A9442CE
S3150801643001BF1B7CA2F5CE2203F00F03D367D5E774
S315080164400000015B0090035000000A5070B5054634
S3150801645014460E46FFF7BEFC296881EA040202EAE1
S3150801646006044C402C60BDE87040FFF7B7BC00003D
S31508016470072AF7B501F0030614461F464FF0030134
S315080164802CD89500A94000FA05F21C480191FFF79E
S31508016490DDFF01991A4806FA05F2FFF7D7FF194BEE
S315080164A019499DF82000002F08BF1946012303FA50
S315080164B004F40C60154B1649002808BF0B461C60EE
S315080164C0144B9DF82400C3F820441031A3F6DC339D
S315080164D0002808BF0B461C6003B0F0BDA2F10805F1
S315080164E0AD00A94000FA05F20B480191FFF7AEFF8E
S315080164F001990A4806FA05F2CFE700BF00C403501E
S3150801650008C4035010E4035010D4035014D40350A4
S3150801651014E4035000E0035004C403500CC40350B0
S315080165202DE9F04105460F461E4690464AB101231C
S315080165303022194C8B4002FB00443EB304F58254C9
S3150801654023600F21072F05EB450388BFA7F1080430
S315080165504FEA0313114895BFBC00A40004330C335A
S3150801656008FA04F2A1401844FFF770FFB8F1000FCA
S315080165700AD101213020084A01FA07F700FB052252
S315080165803EB102F582521760BDE8F08104F5015467
S31508016590D6E702F50152F6E700C0035030C00350B2
S315080165A0F8B505460E4614465AB3826803F0030742
S315080165B022F440728260FFF70DFCAA6882EA07237B
S315080165C003F440735340AB60FFF708FC36B9B5F1E5
S315080165D0B64F17D12E20FEF767FD0646AB680C4B62
S315080165E0D85D60430DD06FEAC4040444A319B3FB14
S315080165F0F0F3AA68013B920702D5002B08BF0123D5
S31508016600AB61F8BD034B9D42E8D12F20E3E700BFFC
S315080166105475050800800650043021B100F58050F4
S3150801662001230360704700F50050F9E738B50023E8
S315080166300E4A036400F50053DA634A7804460D46A8
S3150801664000F108037AB903F5805302221A6020463D
S31508016650D5E901122B7BFFF7A3FF20462978BDE870
S315080166603840FFF7D9BF03F50053EEE7FFFF1F00D8
S315080166704FF48032054B9A6641F6713203F51C33A5
S31508016680DA63012203F50053DA607047009000507F
S3150801669041F671320121064BDA6303F50052D160E6
S315080166A00022DA634FF48032A3F518339A667047ED
S315080166B000000350436813B9416070475B685A6824
S315080166C0012AFBD159607047836813B98160704705
S315080166D05B685A68012AFBD159607047C369032B65
S315080166E09FBF00EB83020133D160C3617047C36961
S315080166F0042B15D84FF09842116CC902FCD5043306
S315080167009B0013650168103B116041680C301160EC
S3150801671050F8041C034411604FF09842984200D186
S31508016720704750F8041B1160F8E700004FF48032F7
S31508016730064B5A6603F5E6239B69C3F385128270F5
S3150801674003F03F021B0B4270037070470090005024
S3150801675040F6B732064B5B689BB293429FBF4FF434
S315080167607A72B3FBF2F3034AD05C88BF0020704704
S315080167700080E00F5875050870B5054616461C4693
S3150801678021B94FF42070FEF78FFC0146402C1BD02F
S3150801679003D8DCB1202C1BD070BD602CFCD104239E
S315080167A003FB06F2560806EB4113B3FBF2F3094A5B
S315080167B0203B02EAC303AA6822F06002AA60AA681B
S315080167C01443AC60EB61E7E70623E9E71023E7E743
S315080167D00823E5E7F8FF7F00012200F580535A6098
S315080167E0CB43934003F00A034361416111B900F5B4
S315080167F00050426070470000012100F5805310B532
S31508016800596040F6AA6341F2050243610023094C27
S315080168108360C365C26000F500520361C361C36446
S315080168209464054C8365A04204BF036543655160C2
S3150801683010BD00BFFFFF010000C0055070B50D4631
S31508016840FFF7DAFF012300F580567360AB7C044637
S315080168501BB1836843F080438360EB7C5BB1244BB7
S315080168609C4202BF2A7DA3F51033C3F8C821E36D04
S3150801687043F08003E3652A8A6B7B20461343EA8942
S315080168801343E3602B7BD5E90112FFF775FF6B7D97
S315080168901BB1A36843F48033A360AB7D1BB1A36826
S315080168A043F40043A360EB7D2A7E1B07120502F41D
S315080168B0E00203F0E0431343A3656B7E9A1E012AA7
S315080168C04FF0020209D80B49032BC1F8202709D139
S315080168D00423F3652B78636170BD0749012BC1F861
S315080168E02027F4E7042204F50053DA65F2E700BF2E
S315080168F000C0055000D0035000E0035083691B0611
S31508016900FCD5406AC0B2704783695B06FCD5C16392
S3150801691070470000054B9A689107FCD45A6892079C
S31508016920F9D4DA69002AF6D1704700BF00800A5007
S3150801693008B5FFF7EFFF0122024B03F580514A60C4
S315080169401A6108BD00800A50074B5A68012A0AD104
S315080169505A68D20702D5DA69002AF9D102221A61E0
S315080169600122024B5A60704700800A5000A00A5063
S3150801697010B5064CFFF7CEFF6368012B03D1FFF76D
S31508016980E3FFFFF7C7FF0378E36010BD00800A50F5
S31508016990E8B94A680B7812B1127843EAC2034A7811
S315080169A0002A14BF0222002213438A6812B1127800
S315080169B043EA82138A78002A14BF04220022134369
S315080169C0CA6812B1127843EA4223014A93647047AE
S315080169D000800A5008B9014B5964704700900A5063
S315080169E008B9014B5964704700A00A5008B9014B10
S315080169F01964704700A00A5010B9024B186C704709
S31508016A000020704700800A5048B911B1012903D006
S31508016A107047044BD86C7047024B186D70470020BD
S31508016A20704700BF00800A5040B911B1012903D04F
S31508016A307047034BDA647047014B1A65704700BF0C
S31508016A4000800A5038B50446054D36F0E8F90FCCF2
S31508016A500FC594E8030085E80300002038BD00BF90
S31508016A609823002047F6FF739A42F0B563D00229AE
S31508016A7063D8334BCF0003EBC10013F83110847888
S31508016A80012913D10025C3781B1B9D4202D3E018A7
S31508016A90C0B2F0BD591B4668A3EB510136F9116026
S31508016AA09642D4BF0D4601F1FF33EEE74068002850
S31508016AB0EFD0B0F90010914204DBB0F9021091420F
S31508016AC0B8BF114682883B44FF2A19BFC822282627
S31508016AD0B0F90620B0F90860A2EB01020CBF012546
S31508016AE0002592FBF6F25F782A447B1E934228BF63
S31508016AF013464FF47A7E00EBC305AE68EA88AC46C6
S31508016B0011FB02621E4622EAE272013302F5FA72AB
S31508016B109F42B2FBFEF204D9BCF80CC00835944575
S31508016B20EBD200EBC6008088904228BF1046A042EF
S31508016B3038BF2046ACE7FF20ABE70020A9E700BF36
S31508016B40982300200229F0B553D82B4800EBC1043D
S31508016B5010F83110636801290FD1E078A4789042C2
S31508016B6094BFC4EB0001C4EB0201001BCAB2824206
S31508016B70C8BF002233F91200F0BD002B39D0A17825
S31508016B80914202D3B3F90200F6E7E178B3F90000BE
S31508016B909142F1D999886478A1F1FF06013C7142C5
S31508016BA003F10405E4B2714103F10C071FFA82FCF3
S31508016BB0CEB2B44216D805EBC1014FF47A756A43D1
S31508016BC0B1F902404968521A04EBD47102EB610229
S31508016BD092FBF4F29042CFDBB3F902009042CBDC90
S31508016BE010B2C9E737F831E04E1CE645E3D3314622
S31508016BF0DEE70248C0E700BF982300200080FFFFB8
S31508016C000148FFF71FBF00BF5C75050800487047BC
S31508016C10D01200207FB50222084B0949CDE901238C
S31508016C204FF00073CDE90313072301A94FF0FF3095
S31508016C30059336F075F907B05DF804FB006A18008C
S31508016C400002060007B5094B18689A889B790090D7
S31508016C506846ADF804208DF80630FFF7C1F90C2017
S31508016C60FFF7F6F9002003B05DF804FBD8750508AF
S31508016C7013B50024064A6846536F43F00103536768
S31508016C8000948DF80440FFF707F9204602B010BDBD
S31508016C900040005030B58BB06C46154D0FCD0FC472
S31508016CA00FCD0FC495E8030084E80300114BD3F810
S31508016CB04C21120314D4D3F85041E4B28DF819408B
S31508016CC0FEF726FD204480F308008DF818000A48CF
S31508016CD0FDF70EFC6846FEF75FFC00200BB030BDE1
S31508016CE0064B1C884FF6FF739C4208BF8C24E5E7C8
S31508016CF0E07505080080E00FC01753020001E00F98
S31508016D0008B50120FEF74EFD002008BD30B5094D36
S31508016D1087B001AC0FCD0FC42B6801A823603F23B0
S31508016D208DF80530FEF7FAFC6420FEF735FD0020E4
S31508016D3007B030BD087605086FF00402502110B57A
S31508016D400A480B4C12F0800FD3B21BBF03F00F0396
S31508016D50043BA3181B1802F101020CBF83F80013A8
S31508016D6019764C2AEED1002010BD00BF00ED00E0D7
S31508016D7000E100E000F078B838B501F055FA0446AC
S31508016D80E0B901F0A9FB4FF4167343430C4803F528
S31508016D90742303F23F23B3FBF0F30A4A0A4913604B
S31508016DA00A220D680948013A12F0FF0240F8043B2D
S31508016DB0F9D103EBC3022B4413440B60204638BDBB
S31508016DC040420F00EC230020B8230020BC230020FA
S31508016DD0012208B5034B1A7001F058FB024B1860E3
S31508016DE008BD00BFB4230020E8230020F8B5144CE1
S31508016DF0237823B301F04AFB124B134D1B68134E3C
S31508016E00C01A012838BF0120114B124F18602B7880
S31508016E1056F8232046F82300111A3A680E48521AE2
S31508016E200A213A600932B2FBF1F20133DBB20260A0
S31508016E30B3FBF1F201FB12332B7000232370F8BD6B
S31508016E40B4230020E8230020E4230020BC230020EB
S31508016E50B0230020B8230020EC230020014B18683A
S31508016E60704700BFEC23002020234FF48012094904
S31508016E7081F82C33084B5A66084B094A03F500502A
S31508016E80426702674FF48050C1F8840148600344A1
S31508016E905A67704700E100E0009000500040005A30
S31508016EA0010000A0044B9A6DD20702D40028FAD13A
S31508016EB070470120704700BF0040005A0C4B10B5BF
S31508016EC01C6FE20707D5012203F500531A67FFF77E
S31508016ED08DFF00F067FF14F000521CBF054B1A67BF
S31508016EE0002CBEBF4FF00042024B1A6710BD00BF0F
S31508016EF00040005A0060005AFFF7E0BF10B504468B
S31508016F00FEF768FF024B1C60FEF768FF002010BD04
S31508016F10F023002010B5FEF75DFF034B1C68FEF752
S31508016F205DFF204610BD00BFF023002007B530B92C
S31508016F30CDE90012FFF7EEFFDDE9001230B1436833
S31508016F4023B1006803B05DF804EB1847232003B0AA
S31508016F505DF804FB30B51C4685B058B9CDE9001279
S31508016F60FFF7D8FFDDE9001204B903AC20B92320E5
S31508016F7005B030BD03B903AC8568002DF7D02346AB
S31508016F800068A847F4E70EB477B507AB53F8046B66
S31508016F9005460193B0B9FFF7BDFF044605463046DD
S31508016FA001993DF07BFBAC42064602D02046FFF72D
S31508016FB0A5FF002ED4BF3720002003B0BDE87040DE
S31508016FC003B07047FFF7A6FF85420446E7D0284677
S31508016FD0FFF794FFE3E700207047FEE74FF40053FD
S31508016FE000204B607047012070470020704707B5A5
S31508016FF0002001AB0190FFF7ADFF0198002808BFFB
S315080170004FF0FF3003B05DF804FB10B514460020BD
S31508017010FFF78CFF204610BD034B02221868002398
S31508017020806819463DF03ABAC416002090F82A300D
S3150801703001223BB190F82E30022B03D180F82E2085
S31508017040184670471346FBE780F82410704790F8F6
S315080170502400704790F82B0070470000002808DBD1
S315080170600123420900F01F0003FA00F0014B43F81F
S315080170702200704700E100E0002809DB01224309EC
S3150801708000F01F0002FA00F0024A603342F82300BA
S31508017090704700BF00E100E0F8B504460D4690F8D8
S315080170A02B3081B173B990F82C60FEF793FE054633
S315080170B00121304600F0A4FC2846FEF78FFE012385
S315080170C084F82B30F8BD002BFCD090F82C70FEF715
S315080170D081FE06462946384600F092FC3046FEF700
S315080170E07DFE84F82B50EDE770B504460568FFF779
S315080170F011FF844202D10020FFF700FF95F928000D
S31508017100FFF7BAFF95F92830002B0DDB01215A0943
S3150801711003F01F0301FA03F31449203241F8223020
S31508017120BFF34F8FBFF36F8F95F92900FFF7A4FFC0
S3150801713095F92930002B0DDB01215A0903F01F03AC
S3150801714001FA03F30949203241F82230BFF34F8F80
S31508017150BFF36F8F00232846C4E90033C4E904331B
S31508017160A360EB68BDE87040184700BF00E100E086
S315080171702DE9F047044616460D4690F82480FEF799
S3150801718030FE94F82A2003469AB1FEF730FE94F8A9
S315080171902D90FEF71FFE07460121484600F030FCF8
S315080171A03846FEF71BFEFEF71CFE0022034684F84E
S315080171B02A201846FEF71BFE2E44B8F1000F23D1EC
S315080171C0AE4205D1204663680121BDE8F04718475C
S315080171D094F82630002BF3D02046236815F8011BB6
S315080171E098470028ECD0BDE8F08794F826305BB1C3
S315080171F02B780A2B03D10D21204623689847204670
S31508017200236815F8011B9847AE42EED1DAE72DE956
S31508017210F7434FF00009044690461E46C3F800900E
S315080172204F1E3368434505D2FEF7DBFDA269C2B995
S31508017230FEF7DDFD94F827305BB9112301222046BC
S315080172400DF107018DF80730FFF792FF012384F846
S3150801725027303368002B0CBF1B20002003B0BDE884
S31508017260F083E16922698A5C07F8012F2569226A98
S315080172700135954208BF4D46A2692561013AA261C9
S31508017280FEF7B5FDA3682046984733680133336096
S31508017290C7E708B5FFF76CFF002008BDF8B51F461C
S315080172A0536806460C461546002B5BD09368002B9F
S315080172B05AD03022002120463CF0D9FF6B682B4A70
S315080172C0E361AB68204623622B7B84F82430AB7BD1
S315080172D0276084F8253040F20113E384069B0027D2
S315080172E06360079BA360089BE3602B7884F82830CA
S315080172F06B7884F829301E4B346073601D4BB3607C
S315080173001D4B33611D4B73611D4BF3601D4B33627E
S31508017310012384F82E30B2611B4AF2619DF82820B8
S3150801732084F82D209DF8242084F82A3084F82C200E
S31508017330697B84F82B70FFF7AFFE95F90100FFF71B
S315080173409BFE95F90100FFF789FE95F90000FFF705
S3150801735093FE95F90000FFF781FE3046FFF7CEFD53
S315080173603846F8BD2220FCE72120FAE79970010882
S31508017370937201080F720108497001084F700108DC
S31508017380E97001082D7001085570010810B5044609
S31508017390FEF727FDA269236A9A4203D2FEF727FD63
S315080173A0012010BDFEF723FD0020FAE737B5044694
S315080173B00D4600E000BFFEF714FD94F8253002469D
S315080173C06BB1132D07D1002384F8263003B0BDE82D
S315080173D03040FEF70CBD112D01D10123F4E7636995
S315080173E0E1691046CD54A16963690131A161216A38
S315080173F001338B42636104BF00236361FEF7F7FC27
S31508017400042384F82E3094F825307BB1A269236AC7
S315080174109A420BD11323012220460DF107018DF85B
S315080174200730FFF7A5FE002384F8273003B030BDE7
S3150801743090F82A3073B5044603F0FF01A3B94368EF
S3150801744001919847012384F82A3094F82D60FEF7B4
S31508017450C1FC05460199304600F0D2FA2846FEF7E6
S31508017460BDFC022384F82E3002B070BD026BD36CCA
S3150801747043F00403D364704710B50446026B93695D
S315080174805906FCD5002394F839101A4694F83800A1
S31508017490FFF746F8002394F83B101A4694F83A0089
S315080174A0FFF73EF894F84030DA0707D5002394F839
S315080174B03D101A4694F83C00FFF732F894F840302C
S315080174C09B0707D5002394F83F101A4694F83E0007
S315080174D0FFF726F8206B0021FFF77EF9606B002184
S315080174E0FDF7C6FD002010BD08B5006BFFF70CFAC5
S315080174F0002008BD036BDA6C19B142F00102DA64A7
