S0160000626C696E6B5F626172656D6574616C2E733337C2
S3150800000000100020C52E0008C32E0008C32E0008C5
S31508000010C32E0008C32E0008C32E0008C32E0008EE
S31508000020C32E0008C32E0008C32E0008C32E0008DE
S31508000030C32E0008C32E0008C32E0008C32E0008CE
S31508000040C32E0008C32E0008C32E0008C32E0008BE
S31508000050C32E0008C32E0008C32E0008C32E0008AE
S31508000060C32E0008C32E0008C32E0008C32E00089E
S31508000070C32E0008C32E0008C32E0008C32E00088E
S31508000080C32E0008C32E0008C32E0008C32E00087E
S31508000090C32E0008912C0008C32E0008C32E0008A2
S315080000A0C32E0008C32E0008C32E0008C32E00085E
S315080000B0C32E0008C32E0008C32E0008C32E00084E
S315080000C0C32E0008C32E0008C32E0008C32E00083E
S315080000D0C32E0008C32E0008C32E0008C32E00082E
S315080000E0C32E0008C32E0008C32E0008C32E00081E
S315080000F0C32E0008C32E0008C32E0008C32E00080E
S31508000100C32E0008C32E0008C32E0008C32E0008FD
S31508000110C32E0008C32E0008C32E0008C32E0008ED
S31508000120C32E0008C32E0008C32E0008C32E0008DD
S31508000130C32E0008C32E0008C32E0008C32E0008CD
S31508000140C32E0008C32E0008C32E000801070008A6
S31508000150C32E0008C32E0008C32E0008C32E0008AD
S31508000160C32E0008C32E0008C32E0008C32E00089D
S3150800017010B5054C237833B9044B13B1044800E095
S3150800018000BF0123237010BD8C1100200000000061
S31508000190486C020808B5034B1BB10349034800E045
S315080001A000BF08BD0000000090110020486C02083E
S315080001B0A3F5803A704700BF174B002B08BF134BB7
S315080001C09D46FFF7F5FF00218B460F461348144A54
S315080001D0121A04F07DF80E4B002B00D098470D4BF1
S315080001E0002B00D098470020002104000D000D4880
S315080001F0002802D00C4800E000BF04F045F82000B3
S31508000200290003F034FB04F02BF800BF00000800B7
S315080002100000000000000000001000208C110020E3
S3150800022000670020000000000000000010B504462A
S3150800023002F0CCFE4FF47A729042B0FBF2F105D28E
S315080002403621BDE810400C4802F03ABE0B4BB3FB12
S31508000250F1F30B49884201D93C21F2E702FB04F08D
S31508000260B0FBF3F0022806D9BDE810400323B0FB23
S31508000270F3F000F00DB810BD44E4000840420F004A
S31508000280E7CD9A3B000000000000000000000000D7
S31508000290013800D0FCE7704708B503F0FEF903F013
S315080002A00FFA03F00FFA03F014FABDE8084003F05A
S315080002B011BA08B503F00FFA03F00EFA03F00DFAB7
S315080002C0BDE8084003F00ABA30B50F4C416123680F
S315080002D0ABB92060836011E0891A9A681D464161AE
S315080002E02AB113465A698A42F6D955B11A461346AF
S315080002F0A860836013B15A69511A596130BD002547
S31508000300F0E72060F5E700BFC011002010B500F047
S315080003108BF90A4C0A4B19682368C31A01B10BB941
S31508000320206010BD4A699A423ABF9B1A0022D21A27
S315080003304A6128BF00238968F0E700BFAC11002096
S31508000340C011002038B5134D2B685B6993B1124A6A
S31508000350022014681C4400F073F9204600F07AF96C
S3150800036000230E492A680B70D088800709D5012317
S315080003700B7038BD022000F063F9022000F0B8F9CE
S31508000380EEE79268002AF4D050690344012BEBD9B2
S31508000390EFE700BFC0110020AC110020B411002007
S315080003A000220C490B687BB183420AD183687AB173
S315080003B0936083681BB15A6941690A445A610020EF
S315080003C070471A469B68EEE70028EFD00220704770
S315080003D00B60EEE7C011002070B501F06AFD144EFF
S315080003E005463478FCB9134B1C60134B1C60134B41
S315080003F01C8000F0E7F8012000F022F900F09AF9D5
S315080004000F4B0246186020B9284601F058FD2320F4
S3150800041070BD234640F2E7310A4803F091FD0A4BC6
S31508000420186001233370284601F049FD0020EFE7E4
S31508000430A8110020C0110020AC110020B611002020
S31508000440BC11002018FCFFFFB011002038B501F0E0
S3150800045030FD054600F0E8F80446284601F02FFD71
S31508000460204638BD044B1B6858434FF47A7300F294
S31508000470E730B0FBF3F07047BC110020C2072DE946
S31508000480F84F04460BD5464A138801339BB21380AE
S31508000490FFF73CFF434B1B680BB1FFF753FFA3075E
S315080004A07CD501F006FD4FF0000A05465646FFF7D3
S315080004B02DFFD0463B4FDFF8F4903C680CB16369DA
S315080004C08BB10022384B012E1A7003D1BAF1020FF4
S315080004D008BF1E70002C51D0FFF734FF2846BDE830
S315080004E0F84F01F0ECBC23461A792179914288BF6E
S315080004F01C469B6813B15A69002AF5D0284601F0B4
S31508000500DEFCD4F810A0BAF1000F3BD000F08CF84E
S31508000510A269851AEB17AA4578EB030333DA236930
S3150800052013440122A3612369D3B1CAB9EB17BAEB05
S31508000530050563EB4303002B04DA4FF48161484653
S3150800054002F0BEFC01F0B5FC824629462046FFF7BC
S31508000550BBFEA369226950461344A36101F0AFFCB0
S31508000560E368B4F806A0013613B120462168984717
S3150800057001F09FFC0546FFF7C9FE9EE7022000F042
S31508000580A1F8ABE7554601F094FC83462046FFF7F1
S3150800059007FF584601F093FC0022C4E7BDE8F88F30
S315080005A0B6110020C0110020B81100209DE40008F3
S315080005B0034B5A68D20702D5DA69002AF9D170477F
S315080005C000800A5010B50121002486B03E20ADF8FF
S315080005D00810CDE903448DF804408DF80A400594C7
S315080005E000F00AFD01A800F069F9204602A98DF875
S315080005F0084000F073F920460F2100F0A5F90F21F5
S31508000600204600F0AFF900F039F9FFF7D1FF0822CC
S31508000610034B9C61034BC3F888219A6006B010BD52
S3150800062000800A5000E100E008B5FFF7C1FF014B62
S31508000630986908BD00800A500021084600F0B0B944
S3150800064000F00101830748BF41F00201002000F0D5
S315080006506DB90000F8B5044601F024FCFFF7A8FFC1
S31508000660164B07469D69FFF7E7FF0646002000F090
S3150800067087F9830704D4731B032B01D8AE420FD125
S315080006800021631B022B98BFEC1C0846B4F1FF3F00
S315080006902CBF2246621E00F09BF90220FFF7D0FF0E
S315080006A0384601F003FC064A137833B103498B6CCC
S315080006B043F001038B6400231370F8BD00800A50D1
S315080006C000100020830700F0010109D50122064B1E
S315080006D041F002011A70054A936C23F001039364F2
S315080006E0002000F031B900BF0010002000800A5039
S315080006F0830742BF0222014B1A64704700900A50D2
S3150800070038B501F0D6FB0446002000F039F9830716
S3150800071000F0010548BF45F0020500F0030100207E
S3150800072000F020F92846FFF7A9FE2046BDE8384024
S3150800073001F0C5BB3E2000F08BBC000007B5094B95
S3150800074018689A889B7900906846ADF804208DF859
S31508000750063001F073FC0C2001F0A8FC002003B061
S315080007605DF804FBFEE4000813B50024064A684653
S31508000770536F43F00103536700948DF8044001F06A
S31508000780A9FB204602B010BD0040005030B58BB022
S315080007906C46154D0FCD0FC40FCD0FC495E8030059
S315080007A084E80300114BD3F84C21120314D4D3F870
S315080007B05041E4B28DF8194000F072FF204480F3EE
S315080007C008008DF818000A4802F01CFC684600F07C
S315080007D059FE00200BB030BD064B1C884FF6FF7340
S315080007E09C4208BF8C24E5E708E500080080E00F76
S315080007F0C01753020001E00F30B5094D87B001ACB0
S315080008000FCD0FC42B6801A823603F238DF8053050
S3150800081000F04CFF642000F0ABFF002007B030BDAD
S3150800082030E500086FF00402502110B50A480B4C59
S3150800083012F0800FD3B21BBF03F00F03043BA318BB
S315080008401B1802F101020CBF83F8001319764C2A13
S31508000850EED1002010BD00BF00ED00E000E100E091
S31508000860054B9A689107FCD45A689207F9D4DA6955
S31508000870002AF6D1704700BF00800A5008B5FFF776
S31508000880EFFF0122024B03F580514A601A6108BD49
S3150800089000800A50074B5A68012A0AD15A68D207BB
S315080008A002D5DA69002AF9D102221A610122024B1D
S315080008B05A60704700800A5000A00A5010B5064CCE
S315080008C0FFF7CEFF6368012B03D1FFF7E3FFFFF7BE
S315080008D0C7FF0378E36010BD00800A5018B1712184
S315080008E0104802F0EDBA4A680B7812B1127843EA5A
S315080008F0C2034A78002A14BF0222002213438A68D8
S3150800090012B1127843EA82138A78002A14BF0422A5
S3150800091000221343CA6812B1127843EA4223024AF4
S315080009209364704744E5000800800A5020B14FF4EC
S315080009308271034802F0C4BA024B5964704700BF7B
S3150800094044E5000800900A5020B14FF4A07103480E
S3150800095002F0B6BA024B5964704700BF44E5000876
S3150800096000A00A5020B14FF4BE71034802F0A8BA9D
S31508000970024B1964704700BF44E5000800A00A50FE
S3150800098008B530B1044840F2B71102F099FA0020D0
S3150800099008BD024B186CFBE744E5000800800A50C6
S315080009A008B548B1084840F2662102F089FA0020E5
S315080009B008BD064BD86CFBE70029FAD00129F7D108
S315080009C0024B186DF4E700BF44E5000800800A50A2
S315080009D050B14FF44171074802F072BA064BDA6417
S315080009E07047054B1A6570470029F7D00129F8D0DA
S315080009F0704700BF44E5000800800A50044BD3F84E
S31508000A008420D206FBD4D3F88400C0F38110704743
S31508000A100040005038B50F4B0546D3F880300C46D9
S31508000A2003F00303012B09D0022B0FD00A4840F626
S31508000A30B27102F045FA0023184602E002F0ACFA59
S31508000A400E2305B1286004B1236038BD02F0F0FA20
S31508000A500723F6E700800050A1E5000838B5194BD2
S31508000A600546D3F820310C4603F00703013B052B56
S31508000A7020D8DFE803F0030B130F171B02F086FAE2
S31508000A80052305B1286004B1236038BD02F0B4FA25
S31508000A900323F6E702F0CCFA0723F2E702F0C4FADA
S31508000AA00223EEE702F072FA0623EAE702F0A4FA56
S31508000AB00423E6E7044841F22B0102F001FA002379
S31508000AC01846DEE700800050A1E5000838B5194B46
S31508000AD00546D3F828310C4603F00703013B052BDE
S31508000AE020D8DFE803F003131B0F0B1702F04EFAAA
S31508000AF0052305B1286004B1236038BD02F046FA23
S31508000B000623F6E702F094FA0723F2E702F074FAEE
S31508000B100323EEE702F070FA0423EAE702F084FA08
S31508000B200223E6E7044840F63E6102F0C9F90023CD
S31508000B301846DEE700800050A1E50008F7B5002753
S31508000B40144B0197D3F88041064604F00304022C9F
S31508000B500D4614D0032C0DD0012C14D1394601A80A
S31508000B60FFF77CFF10240EB1019B336005B12C60A2
S31508000B7003B0F0BD02F05CFA07240190F3E702F037
S31508000B8053FA0190EFE741F27811034802F098F919
S31508000B903C46E8E700800050A1E50008002337B589
S31508000BA00193184B0546D3F820320C4603F0070389
S31508000BB0013B032B1ED8DFE803F0020E13180021B1
S31508000BC001A8FFF783FF12230DB1019A2A6004B129
S31508000BD0236003B030BD02F02BFA07230190F3E738
S31508000BE002F068FA0A230190EEE702F069FA09238F
S31508000BF00190E9E740F6FD51034802F061F9002348
S31508000C00E2E700BF00800050A1E5000838B5124BA6
S31508000C100546D3F840310C4603F00303022B0BD0EC
S31508000C20032B0DD0012B0FD102F044FA0A2305B18C
S31508000C30286004B1236038BD02F042FA0923F6E7BA
S31508000C4002F03BFA0C23F2E7044841F2590102F09C
S31508000C5037F900231846EAE700800050A1E50008A6
S31508000C60002337B50193184B0546D3F860320C4676
S31508000C7003F00703013B032B1FD8DFE803F0020E3E
S31508000C801914002101A8FFF7E9FE10230DB1019AF6
S31508000C902A6004B1236003B030BD002101A8FFF724
S31508000CA0B5FF1123F2E702F0C3F907230190EDE738
S31508000CB002F0BAF902230190E8E740F6A261034878
S31508000CC002F0FEF80023E1E700800050A1E50008E5
S31508000CD0002337B50193184B0546D3F894320C46D2
S31508000CE003F00703013B032B1FD8DFE803F0020ECE
S31508000CF01914002101A8FFF7B1FE10230DB1019ABE
S31508000D002A6004B1236003B030BD002101A8FFF7B3
S31508000D107DFF1123F2E702F08BF907230190EDE737
S31508000D2002F082F902230190E8E740F6D56103480C
S31508000D3002F0C6F80023E1E700800050A1E50008AC
S31508000D4073B500240F4B0194D3F87032064603F0AE
S31508000D500303012B0D4607D0022B11D04FF4706107
S31508000D60094802F0ADF804E0214601A8FFF74EFF56
S31508000D7011240EB1019B336005B12C6002B070BD21
S31508000D801524F6E700800050A1E5000838B5154B94
S31508000D900546D3F800320C4603F00703013B032B44
S31508000DA018D8DFE803F0020A0E1202F083F90A23C4
S31508000DB005B1286004B1236038BD02F081F9092322
S31508000DC0F6E702F07AF90C23F2E702F0FFF80F23B0
S31508000DD0800AEDE7044841F22E2102F071F800235B
S31508000DE01846E5E700800050A1E5000838B5154B20
S31508000DF00546D3F808320C4603F00703013B032BDC
S31508000E0018D8DFE803F0020A0E1202F053F90A2393
S31508000E1005B1286004B1236038BD02F051F90923F1
S31508000E20F6E702F04AF90C23F2E702F0CFF80F23AF
S31508000E30800AEDE7044841F2622102F041F80023F6
S31508000E401846E5E700800050A1E5000838B5124BC2
S31508000E500546D3F840320C4603F00303022B0BD0A9
S31508000E60032B0DD0012B0FD102F024F90A2305B16B
S31508000E70286004B1236038BD02F022F90923F6E799
S31508000E8002F01BF90C23F2E7044841F2F11102F0D3
S31508000E9017F800231846EAE700800050A1E5000885
S31508000EA038B5124B0546D3F860310C4603F00303F8
S31508000EB0022B0BD0032B0DD0012B0FD102F0FAF821
S31508000EC00A2305B1286004B1236038BD02F0F8F89A
S31508000ED00923F6E702F0F1F80C23F2E7044841F299
S31508000EE0870101F0EDFF00231846EAE7008000506D
S31508000EF0A1E5000870B5054614460E4600F0D2FF77
S31508000F00296881EA040202EA06044C402C60BDE81E
S31508000F10704000F0CBBF0000B0F5207F10B52ED092
S31508000F2009D8B0F5007F24D003D868B1B0F5C07FE2
S31508000F300AD000241BE0B0F5607FFAD1124BD3F833
S31508000F408040C4F3011412E00F4B1C6F230B13F0FF
S31508000F500E0FC4F303340AD0032C08D0072C06D08E
S31508000F600F2C04D040F27221084801F0A9FF601C3A
S31508000F7010BD054BD3F89040C4F30464F7E7024B61
S31508000F801C6FC4F38024F2E700800050A1E5000836
S31508000F904FF4803238B5104B04469A6600200D4649
S31508000FA0FFF7BAFF41F671320C4B6043DC69DA632E
S31508000FB05A6804F4803422F440125DB9084988421C
S31508000FC08CBF4FF480100020104358600CB10022EB
S31508000FD0DA6338BD0349F2E7009000500000035079
S31508000FE0005A6202002D310108B502F001F8BDE889
S31508000FF008400021FFF7CCBF70B5440905460E46E8
S315080010000ED140F216310F4801F05AFF05F01F05C0
S31508001010AEB104F58053012000FA05F51D6070BDD8
S31508001020012C08D0022C08D04FF44871054801F06D
S3150800103047FF0024EAE7044CE8E7044CE6E704F532
S315080010400053E8E7A1E50008648000506880005076
S31508001050002130B5802885B00446CDE9001100F09E
S31508001060938029D8002800F09580A0F120043D2C13
S3150800107035D83D2C33D8DFE804F08D998D99A8A88A
S31508001080A8A8A899B23FC8633F99999932323232D3
S31508001090323232329999996BD299323232323232AD
S315080010A032323232323232A88D8D8DCD3F3FD77AE9
S315080010B050AD323232323282B0F5B06F00F08F80E6
S315080010C030D8B0F5207F71D00FD8B0F5C07F61D089
S315080010D0B0F5007F61D0B0F5807F00F0858040F2E2
S315080010E06D41544801F0ECFE51E0B0F5607F67D0E1
S315080010F00DD8B0F5407FF2D101F068FF04464FF4F1
S315080011002070FFF709FFB4FBF0F040083EE0B0F5A9
S31508001110806F5AD0B0F5A06FE1D100216846FFF77D
S315080011203DFD34E0B0F5106F74D016D8B0F5E06F19
S3150800113075D00AD8B0F5C06F67D0B0F5D06FCED1EC
S3150800114000216846FFF722FE21E0B0F5F06FC6D110
S3150800115000216846FFF7A4FE19E0B0F5406F39D0C4
S315080011600AD8B0F5206F5FD0B0F5286FB7D1002147
S315080011706846FFF7E5FD0AE0B0F5486FAFD10021F4
S315080011806846FFF7A5FD02E001F006FF009000980B
S3150800119005B030BD01F01AFFF8E701F0FDFE05467F
S315080011A02046FFF7B9FEB5FBF0F0EFE701F00EFFBA
S315080011B004464FF42070FFF7AFFEB4FBF0F0E5E706
S315080011C001A8FFF727FC019DEAE700216846FFF71B
S315080011D045FCDCE700216846FFF778FCD7E70021E5
S315080011E06846FFF7ABFCD2E74FF0E02302911B6994
S315080011F05B0705D501F0EAFE0290029B0093C6E75D
S3150800120003A902A8FFF702FDF7E700216846FFF7E2
S31508001210FDFCBCE700216846FFF7E8FDB7E70021BB
S315080012206846FFF713FEB2E700216846FFF718FD88
S31508001230ADE700BFA1E5000808B58020FFF708FF65
S31508001240034B98429EBF4FF48032024B1A6708BD83
S31508001250005A620200A000501FB50023B0F5807F37
S31508001260019300F0C38064D85D2855D84C2806D869
S315080012702D2847D823282BD840F24B51A5E04D38C6
S315080012801028F9D801A353F820F000BFE31300088B
S3150800129079120008791200087912000895130008D7
S315080012A0791200087912000869140008B3130008B7
S315080012B0591300085F14000879120008791200080B
S315080012C079120008791200087912000873140008C8
S315080012D024380928D0D801A353F820F0E3130008CE
S315080012E0E3130008E3130008E3130008E3130008F8
S315080012F079120008D313000879120008751300083C
S31508001300191400083D2800F082803E28B4D1002038
S3150800131001A9FFF79BFD60E08028ADD1574B1B6FF5
S3150800132003F00703013B032B4DD8DFE803F04A47D8
S31508001330878FB0F5F06F6AD021D8B0F5B06F48D076
S315080013400FD8B0F5607F00F0858095D3B0F5806F33
S3150800135047D0B0F5A06F8FD1002001A9FFF71EFC7A
S315080013603BE0B0F5D06F57D0B0F5E06FCFD0B0F511
S31508001370C06F81D1002001A9FFF748FC2DE0B0F528
S31508001380206F71D00BD8B0F5086F4AD0B0F5106F42
S315080013907FF472AF002001A9FFF728FD1DE0B0F524
S315080013A0406F5CD0B0F5486F63D0B0F5286F7FF416
S315080013B063AF002001A9FFF7C3FC0EE005230193E4
S315080013C00BE00223FBE740F29F412D4801F078FD30
S315080013D003E0002001A9FFF7B1FB019805B05DF80D
S315080013E004FB002001A9FFF739FBF6E702934FF04B
S315080013F0E0231B695B0705D501F0E8FD0D23039380
S31508001400039BDCE703A902A8FFF700FCF8E7002026
S3150800141001A9FFF745FDE0E7002001A9FFF7B6FCA3
S31508001420DBE7164BD3F8003103F00303022B07D092
S31508001430032B09D0012B0BD101F0DEFD0323BEE7F8
S3150800144001F03EFE0923BAE701F0ECFD0823B6E7F2
S315080014500123B4E7184601A9FFF7DCFABDE7002027
S3150800146001A9FFF733FBB8E7002001A9FFF7F8FB4E
S31508001470B3E7002001A9FFF72BFCAEE70080005078
S31508001480A1E5000838B5036804460F2B04D940F6D1
S3150800149063217A4801F014FD63680F2B04D940F6DE
S315080014A06621764801F00CFDA3680F2B04D940F697
S315080014B06921724801F004FD237B0F2B04D940F6FD
S315080014C06C216E4801F0FCFC637B0F2B04D940F6B7
S315080014D06F216A4801F0F4FCA37B3F2B04D940F640
S315080014E07221664801F0ECFCE37B3F2B04D940F6F9
S315080014F07521624801F0E4FC2369032B04D940F600
S3150800150078215E4801F0DCFC6369032B04D940F6B8
S315080015107B215A4801F0D4FCE369032B04D940F631
S315080015207E21564801F0CCFC8020FFF795FE032863
S3150800153000F083804FF48012514B4FF0A0615A6639
S3150800154045F60E034F4AC2F880304F4B99624FF466
S31508001550803103F580539962916D11F48031FBD186
S31508001560D4E900031B0543EA0063E07B0343207BC1
S3150800157043EA0043607B43EA0033A07B43EA8013D7
S3150800158013619069D4E904531B0643EA856300F0A6
S3150800159000400343A07EE57E0343207E43EA0043E2
S315080015A0607E43EA00239361E069136A00280CBF52
S315080015B00022082223F00F0343EA000343EA8503C7
S315080015C043EA02032F4A314D136237D194F8243087
S315080015D0916A94F82000DB000D4043EA401394F822
S315080015E021102B4343EA011343F480339362284BBB
S315080015F0916D33EA0101FBD14FF080712248816277
S315080016001369A56823F4700343EA055313614FF081
S315080016100043836194F822300BB91E4B996294F803
S3150800162023301BB94FF480321A4B9A6294F825304E
S315080016301BB1144B184AC3F8802038BD022808D1BC
S315080016401161164891614FF408524FF47F41FFF734
S3150800165051FC0C4994F822308A6A94F820001B063B
S31508001660154043EA401394F824202B4343EAC20367
S3150800167094F8232043EA02438B62D7E7A1E50008E2
S31508001680009000500040005A0050005AC7FFFEFE66
S31508001690030001000060005AF1A7FFFF3440005A1A
S315080016A0014B93F90000704701100020436810B5FC
S315080016B0072B044604D940F6E1312A4801F000FC1C
S315080016C0A368032B04D940F6E331264801F0F8FB5A
S315080016D02378032B04D940F6E531224801F0F0FBC4
S315080016E094F90130002B04DA40F6E7311D4801F081
S315080016F0E7FB4FF400011C4A637851664FF4D15159
S31508001700022002F5B832516218494F2B48604FF053
S31508001710010028BF4F2301F5805148601169C903AC
S31508001720FCD4217843EA01235361D4E901131B0150
S3150800173043EA0123617B0B43217B43EA4103936020
S31508001740E37BA17B1B0143EA4113617C0B43217CAC
S3150800175043EA41035360A37C13B16FF4D153536238
S3150800176010BD00BFA1E5000800900050001002500F
S31508001770014B1880704700BF021000200029CCBF1B
S3150800178001210021FFF704BCB0F5207F38B577D0DA
S315080017900ED8B0F5007F61D003D890B3B0F5C07FFE
S315080017A02FD040F2F921BDE838403D4801F088BB0A
S315080017B0B0F5607FF5D13B4A4C1ED2F8FC5015F0C7
S315080017C080751EBFD2F8FC3023F08073C2F8FC3057
S315080017D0032C04D940F2DB21314801F071FB324B6E
S315080017E0D3F8801021F0300141EA0411C3F88010C3
S315080017F035B12C4AD2F8FC3043F08073C2F8FC307D
S3150800180038BD102901F1FF3404D8284B23FA01F119
S31508001810CB0704D440F2B221214801F051FBFFF76F
S31508001820E3FB00F047F84FF48031214B1E4A196755
S31508001830136F23F4704343EA0433136701F0C6FBBE
S315080018400446FFF7DBF8C0F102012046FFF796FFD2
S3150800185000F036F8BDE83840FFF7EEBC4C1E1F2CEA
S3150800186004D940F2ED210E4801F02AFB0E4BD3F8BD
S31508001870901021F0F85141EA0461C3F89010BFE7CF
S315080018804C1E012C04D940F2F321054801F018FB3F
S31508001890054B196F21F4806141EA84211967AFE786
S315080018A0A1E5000800ED00E00080005016010100E7
S315080018B00090005002214FF42070FFF765BF00002A
S315080018C008B54FF4C070FFF7C3FBBDE808400449EC
S315080018D088428CBF022101214FF42070FFF754BFC4
S315080018E080F0FA02B0F5807FF8B50C4600F0628108
S315080018F06CD85D285ED84C2806D82D2846D82328CB
S315080019002AD840F667018FE14D381028F9D801A387
S3150800191053F820F08B1B0008031900080319000868
S31508001920031900086B1A00080319000803190008B0
S31508001930071E00089D1A0008F9190008CF1D00089F
S3150800194003190008031900080319000803190008F9
S3150800195003190008471E000824380928D1D801A30E
S3150800196053F820F08B1B00088B1B00088B1B000804
S315080019708B1B00088B1B000803190008591B00085D
S3150800198003190008331A0008931C00083D2800F0C4
S315080019906B813E28B5D1093C032C00F22D82A84B59
S315080019A0195DA84AD2F8403223F003030B43C2F864
S315080019B04032B3E08028A4D18B1E062B00F2C180EA
S315080019C0DFE803F0BCADBFC7BFBF8100B0F5F06F5D
S315080019D000F04A813CD8B0F5B06F00F0BD801DD844
S315080019E0B0F5607F00F0AB818BD3B0F5806F00F067
S315080019F0CC80B0F5A06F84D1073C0B2C00F2DE81B9
S31508001A00DFE814F0CE01DC01DA01D801D801DC01E7
S31508001A10DC01DC01DC01DC01DC01E301B0F5D06F9F
S31508001A2000F03781B0F5E06FB5D0B0F5C06F7FF440
S31508001A3068AF093C032C00F2FC80834B195D814A90
S31508001A40D2F8403123F003030B43C2F8403165E076
S31508001A50B0F5206F00F0D78114D8B0F5086F00F004
S31508001A604F81B0F5106F7FF44CAF093C062C00F29D
S31508001A703E81DFE814F02E014301430138013C01A1
S31508001A803C013A01B0F5406F00F0A181B0F5486F0E
S31508001A9000F0D981B0F5286F7FF433AF112C00F030
S31508001AA0F281152C00F0F18140F63501674801F006
S31508001AB007FA00226349D1F8703223F0030313436F
S31508001AC0C1F870322AE0002504264FF48037012138
S31508001AD0022000F00BFAFFF787FAFFF7EBFE5C4BE4
S31508001AE0584A1F67136F23F007033343136701F040
S31508001AF06DFA0646FEF782FFC0F102013046FFF78F
S31508001B003DFE0121002000F049FAFFF7D9FEFFF754
S31508001B1093FB1DB9032C01D14E4B9F62F8BD4FF4C0
S31508001B2080124B4B0E465A664FF480324A4B9D6ADA
S31508001B3003F58053C5F300659A62C6E700250126BA
S31508001B40C3E7002540F28D51404801F0B9F92E4609
S31508001B50BBE700250226B8E7072C12D0102C12D0B6
S31508001B60022C05D040F2D251384801F0A9F90024D8
S31508001B70344BD3F8801121F003010C43C3F880419C
S31508001B80CCE70324F4E70124F2E7023C052C0AD843
S31508001B90324B195D2B4AD2F8203123F007030B4349
S31508001BA0C2F82031BAE740F20961284801F088F9FD
S31508001BB00021EFE7A1F10904082C33D8DFE804F087
S31508001BC0050532051C32323205004FF480321D4BB2
S31508001BD02349586E03F580535A664B6A43F001034E
S31508001BE04B62C1035CBF1F4B5A664FF0E022136974
S31508001BF023F00403136191E74FF48032114B18491F
S31508001C00586E03F580535A664B6A23F001034B62FC
S31508001C10C3035CBF134B5A664FF0E022136943F0C7
S31508001C200403E7E740F23161BDE8F840074801F0F0
S31508001C3047B940F24D61054801F042F90021FEE638
S31508001C40F4E5000800800050F4E50008A1E5000866
S31508001C50009000500060005A0040005AEEE5000867
S31508001C6000C0075000A00050093C032C0AD8884B36
S31508001C70195D884AD2F8603123F003030B43C2F892
S31508001C8060314BE74FF4CD61834801F019F9002123
S31508001C90EFE7093C062C13D8DFE804F00419190EFF
S31508001CA01212100002227B49D1F8003223F00703F2
S31508001CB01343C1F8003231E70322F4E70422F2E7BE
S31508001CC040F2AD61744801F0FBF80022EBE701220F
S31508001CD0E9E702226F49D1F8083223F007031343D4
S31508001CE0C1F808321AE70322F4E70422F2E740F2C1
S31508001CF0CD61694801F0E4F80022EBE70122E9E743
S31508001D004C1E082C12D8DFE804F016111811111110
S31508001D10110F050002225F49D1F8003123F00303B1
S31508001D201343C1F80031F9E60322F4E740F2E9610A
S31508001D30594801F0C5F80022EDE70122EBE7574ABA
S31508001D40D2F8FC5015F080751EBFD2F8FC3023F08F
S31508001D508073C2F8FC3007291CD00E291CD006292E
S31508001D601CD040F216714C4801F0AAF800224949E5
S31508001D70D1F8803023F003031343C1F88030002DD7
S31508001D803FF4CCAE454AD2F8FC3043F08073C2F833
S31508001D90FC30C3E60222EAE70122E8E70322E6E787
S31508001DA002223C49D1F8203223F007031343C1F835
S31508001DB02032B3E60322F4E70422F2E740F2667122
S31508001DC0354801F07DF80022EBE70122E9E7023CFD
S31508001DD0052C0AD8324B195D2E4AD2F8283123F041
S31508001DE007030B43C2F8283198E640F297712A4850
S31508001DF001F066F80021EFE740F2D171264801F0BC
S31508001E005FF80021CDE5102C17D012D8022C16D079
S31508001E10072C16D040F607011F4801F051F800229A
S31508001E201C49D1F8603223F007031343C1F8603226
S31508001E3074E6112CEED10222F2E70122F0E7032222
S31508001E40EEE70422ECE7102C17D012D8022C16D095
S31508001E50072C16D040F61F010F4801F031F8002272
S31508001E600C49D1F8943223F007031343C1F894328E
S31508001E7054E6112CEED10222F2E70122F0E7032202
S31508001E80EEE70422ECE7012214E6022212E600BF7E
S31508001E90F4E5000800800050A1E5000800ED00E028
S31508001EA0EEE50008EFF3108072B6704700B962B627
S31508001EB07047EFF31180302383F31188704780F35E
S31508001EC011887047024A536B0342FCD1704700BF22
S31508001ED000400950034A0179D36E23F030030B43BF
S31508001EE0D366704700400050704700002DE9F04166
S31508001EF00446264BD3F88420D006FBD4D3F8843086
S31508001F00C3F381139C423ED001F046F8012C0546E6
S31508001F100BD11F4B984204D940F2FD611D4800F0D1
S31508001F20CFFF01212846FFF729FCFFF7BBFF4FF03B
S31508001F300072194B07465A662046FFF7D5FF4FF43D
S31508001F408063124E621E9340DFF848803367736ED3
S31508001F509A0103D4D6F884309B060AD53846FFF78B
S31508001F60A5FF022C0FD12846BDE8F0410021FFF756
S31508001F7005BCD6F884309906E9D540F20B7140467F
S31508001F8000F09EFFE3E7BDE8F08100BF0040005087
S31508001F90005A6202F8E500080060005007B518B953
S31508001FA0019100F0F9FF0199064B1B7843B1064BE6
S31508001FB0984205D8012003B05DF804EBFFF796BFF9
S31508001FC00220F8E7C4110020005A62027047000098
S31508001FD04FF00042154B10B55A664AF6CD331449F0
S31508001FE04C6C0B6404F0010488B90120FFF76AFF02
S31508001FF04B68DB0704D50F4B58600B6BD807FCD52D
S3150800200014B10B4B0C4A1A64FFF7E0FF10BD0B6BBB
S315080020101A07FCD42022074B9A620122A3F58053A3
S315080020205A60034A936A9B06FCD5E9E7009000507C
S3150800203000400950006009503254FFFF4FF000423B
S3150800204038B5164B01465A664AF6CD33144C154A2E
S31508002050656C236443780B205B0043F00103D3636C
S31508002060FFF730FF63688A7823F4F87343EA0213AC
S315080020706360CA784B7943EA0223A3600A798B79AD
S3150800208043EA022323610878FFF7A2FFEB0744BF60
S31508002090054B2364FFF79AFF012038BD00900050D6
S315080020A000400950004000503254FFFF0F2870B519
S315080020B0044604D940F68351134800F001FF4FF057
S315080020C00042124B12495D6E03F580535A664AF672
S315080020D0CD334E6C80200B64FFF7F4FE0B6A23F0B9
S315080020E00F030F2C94BF234343F00F030B62F30730
S315080020F044BF084B0B64002DA2BF4FF00042064BAD
S315080021005A66FFF763FF70BDF8E5000800800050C7
S31508002110004009503254FFFF00A00050436D0B42A7
S31508002120FCD1704708B54368DA0714D58368DB071E
S3150800213002D50369D90707D50A2350218363FFF718
S31508002140EDFF836C9A07FCD1012200F500535A6013
S3150800215043689B07FCD408BD10B5FFF7E3FF0423CB
S3150800216000F5805100F500520B6113610B61136194
S315080021700B6113610B611361202341F202010361B4
S315080021800023C360836041614FF4A02183618365A6
S3150800219041620549C36103628362C362436303659F
S315080021A0D164036310BD00BFFF3F0D0338B5174B5D
S315080021B0044698420D4607D0154B984204D040F283
S315080021C06311144800F07CFE25B92046BDE8384066
S315080021D0FFF7A8BF012204F580535A6040F6FF7145
S315080021E0204605F00F02FFF799FFA2637821FFF753
S315080021F095FF05F001036A0748BF43F00203A26C86
S3150800220002F003029A42FAD138BD00BF0000015B12
S3150800221000000A5045E60008836C5A06FCD541645E
S31508002220836C1B06FCD5C06B80B270472DE9F04164
S3150800223005460C46174622B94FF402716D4800F060
S315080022403FFE6D4B9D4200F0C9806C4B9D4200F0ED
S31508002250CA8040F20B21674800F032FE44B940F2CA
S315080022605A31644800F02CFE2046FEF7F1FE04467B
S31508002270AB68D80744D5BC4204D240F215215D4864
S3150800228000F01EFE6B6803F00108B4FBF7F35C1E52
S31508002290FF2C04D940F21D21564800F011FEB8F172
S315080022A0000F2BD028212846FFF738FFAB6C99077B
S315080022B01ED1AB6CDA071DD4AE6C16F002061BD124
S315080022C040F22A214B4800F0FBFD2846FFF72AFF7B
S315080022D02B6923F07F4343EA04632B61B8F1000FAF
S315080022E000F0868031462846BDE8F041FFF75EBF1C
S315080022F00526EAE70926E8E70626E6E74646E7E783
S315080023006B68012B04D040F23D213A4800F0D8FD15
S31508002310AB6DA968DB0701F0E00148BF7F004029E3
S3150800232046D009D8B9B1202938D040F27F21BDE876
S31508002330F041304800F0C4BD602945D08029F4D169
S3150800234007EB4703A34204D940F27921294800F054
S31508002350B7FD012308E0B7EB141F04D940F2652145
S31508002360244800F0ADFD10237B436401B4FBF3F36E
S31508002370234E203BB6EBC30F4FEAC30404D240F208
S315080023808A211C4800F09CFD284634400121FFF7AD
S31508002390C5FE2C63BDE8F041FFF7C0BEB7EBD40F0E
S315080023A004D940F26A21134800F08AFD0823DBE7C6
S315080023B00626B4FBF6F3BB4204D240F26F210D4861
S315080023C000F07EFD3346CFE7B7EB940F04D94FF400
S315080023D01D71084800F074FD0423C5E7002C7FF43E
S315080023E047AF562440E7002C7FF442AF57243BE71B
S315080023F0BDE8F08145E600080000015B00000A50D0
S31508002400F8FF7F00774B70B5984204460D4606D014
S31508002410754B984203D0DC21744800F051FD1DB974
S31508002420DE21724800F04CFD6A7BAB687AB1704ACF
S31508002430934203D9E0216D4800F042FD2B69D3B1E0
S31508002440DB7BC3B1E321694800F03AFD13E0694A32
S31508002450934203D9E621654800F032FD2B6953B152
S315080024601A7F42B1A968644A5B7F914240F2A08014
S31508002470042B00F2A08063682E6923B140F6FF7131
S315080024802046FFF74BFE2046FFF766FE22696B7B68
S31508002490A97B22F087020B43134343F08003236191
S315080024A016B32A692369117823F0F8030B43117FC1
S315080024B043EAC113117943EA4113517A43EA0113F6
S315080024C0D17B43EA81132361E168D2E9053021F023
S315080024D0F04121F4702103430B43117B527B43EAFD
S315080024E0812343EAC233E360A368EA7B23F003034C
S315080024F0134343F00103A3602EB32A69A1685388E6
S3150800250003F4C0430B43A3605179A36843EA8123CC
S31508002510A3609379D079616A1B01000203F0700306
S3150800252000F4E06021F4772121F4EE6103430B43C4
S31508002530117A527F090301F4E04112040B4302F4B5
S3150800254070221343636263692A7B23F00F031343E4
S315080025506361B6B12B695A89A2615A7B3AB1214A9D
S3150800256094422AD19A7B254902F00F024A67DA7B00
S315080025703AB11C4A94422AD11B7C204A03F00F0325
S315080025801367D5E901122046FFF750FE05212046BC
S31508002590FFF70CFE28212046FFF7C0FD2B78A36322
S315080025A0FFF7BCFDA36CDB4313F4405FFAD170BDA3
S315080025B0042B3FF660AFEE2145E70B4A944201BF74
S315080025C09A7B0E4902F00F02C1F88020CFE7064A2F
S315080025D0944201BF1B7CA2F5CE2203F00F03D367FA
S315080025E0CFE700BF0000015B00000A5045E600087F
S315080025F0002D3101809698003F4B4C000090035007
S3150800260038B50D460446B0B1012816D0022816D0B2
S31508002610032803D13F23EB40DB0704D440F22D41C6
S31508002620084800F04DFC302001214443064B01FACE
S3150800263005F51D5138BDFF23EDE70F23EBE740F203
S31508002640FF33E8E795E6000840D0035038B50D4655
S315080026500446B0B1012816D0022816D0032803D1A3
S315080026603F23EB40DB0704D440F2FE31084800F074
S3150800267027FC302001214443064B01FA05F51D517C
S3150800268038BDFF23EDE70F23EBE740F2FF33E8E71A
S3150800269095E6000840E0035070B5054614460E4618
S315080026A0FFF700FC296881EA040202EA06044C40A6
S315080026B02C60BDE87040FFF7F9BB00002DE9F0413A
S315080026C00D46174698460446002835D0012835D0C9
S315080026D0022835D0032803D13F23EB40DB0704D477
S315080026E04FF4B0711C4800F0EBFB37B12946204681
S315080026F0B8F1000F27D0FFF783FF0F21072D04EB52
S31508002700440688BFA5F108034FEA0616134895BF85
S31508002710AB009B0004360C3607FA03F299403044A6
S31508002720FFF7BAFFB7B929462046B8F1000F0DD012
S31508002730BDE8F041FFF764BFFF23CEE70F23CCE7E0
S3150800274040F2FF33C9E7FFF781FFD6E7BDE8F0415E
S31508002750FFF77CBFBDE8F081E3E6000830C0035010
S3150800276010B5044618B991211F4800F0A9FB237833
S315080027701B0613F0604F03D092211B4800F0A0FB04
S31508002780E3780F2B03D9A321174800F099FB012101
S315080027902020FEF731FC01212120FEF72DFC012225
S315080027A0124B5A60227812069A606178A27842EA39
S315080027B001429A61FF229A6200229A631A644FF0D4
S315080027C000425A654FF0FF324FF4001103F50053EB
S315080027D01A65074AC2F88011E3781B01DBB282F852
S315080027E01533116010BD00BF31E700080000045022
S315080027F000E100E02DE9F0410126C3B207280546AD
S315080028000C46904606FA03F603DDEC21364800F03E
S3150800281057FB1CB9ED21344800F052FB236823F41A
S315080028207C1323F00F031BB1F0212F4800F048FB5F
S31508002830A37A1B0413F47C0F04D040F209112A482A
S3150800284000F03EFBE37A1B0513F07E6F04D040F2DE
S315080028500B11254800F034FB237B5B0513F0FE5F64
S3150800286004D040F20D11204800F02AFB30201F4FFB
S315080028701F4B617B1E65AB0000FB0575226803F1E3
S31508002880A04303F588235A602966E37AA27A1B05D2
S3150800289043EA0243227B43EA425328F00302EB65EC
S315080028A02A67FFF706FB7B6D33437B65237A13B1F3
S315080028B03B6C33433B64637A13B1BB6B3343BB63F3
S315080028C02279A37943EA0243094A93616179E37954
S315080028D043EA014307498B61044B56639E64BDE88E
S315080028E0F041FFF7ECBA00BF31E7000800000450DA
S315080028F0002004500010045010B50124C3B2072864
S3150800290004FA03F404DD40F29711074800F0D8FAF8
S31508002910FFF7CFFA054B5A6D22EA04025A659C6204
S31508002920BDE81040FFF7CBBA31E7000800000450B5
S3150800293070B506460C46154622B940F28E210C485B
S3150800294000F0BEFA24B94FF42070FEF781FB044666
S315080029506D00013CB4FBF5F4064B250213EA04238B
S3150800296004D040F2B321024800F0AAFAF56170BD1E
S31508002970CCE70008070080FF38B50C4B04469842A0
S315080029800D4604D04FF43371094800F099FA012234
S3150800299004F580535A60EB43934003F00A036361DE
S315080029A0656115B904F50054626038BD00C005506C
S315080029B0CCE70008124B10B59842044604D040F202
S315080029C04241104800F07CFA012104F58053596011
S315080029D040F6AA6341F20502636100230A48A36030
S315080029E0E365E26004F500522361E361E364906401
S315080029F00348A365844204BF23656365516010BD1F
S31508002A0000C00550CCE70008FFFF010038B52D4B84
S31508002A10044698420D4604D040F269312A4800F02F
S31508002A204FFA2046FFF7C6FF0122A97B04F580531B
S31508002A305A602A8AA368002914BF4FF480610021CE
S31508002A4042F0010213432A7D0B43002A14BF4FF0BC
S31508002A5000520022A360A3681343A360AB7C5BB15A
S31508002A60184B9C4202BFEA7CA3F51033C3F8C82171
S31508002A70E36D43F08003E3652B7B2046D5E901121D
S31508002A8043F48053E360FFF753FF6B7B0BB11023CE
S31508002A9063616B7D1BB1A36843F48033A360AB7D90
S31508002AA01BB1A36843F40043A360EB7D2A7E1B0792
S31508002AB0120503F0E04302F4E0021343A3652B7802
S31508002AC0636138BD00C00550CCE70008194B70B5E6
S31508002AD0984205460C4604D040F2FA31164800F0F2
S31508002AE0EFF900232146284626782370FFF78EFF44
S31508002AF094F82020A38B94F821001343A27F002A80
S31508002B00E27F14BF10210021002A14BF08220022E8
S31508002B10002814BF0220002003430B43134343F04D
S31508002B2001036B652EB131462846BDE87040FFF7B4
S31508002B3023BF70BD00C00550CCE7000838B5124B5E
S31508002B4005461B78DBB1E0B1FFF7B3F90F4A00235E
S31508002B501146147B54B92B6001251A0101EB0313A6
S31508002B601D738C50FFF7ABF9204638BD0133082B8F
S31508002B7002F11002EDD1FFF7A2F90548F5E705487D
S31508002B80F3E70548F1E700BF48130020C811002005
S31508002B90048000F0028000F0018000F0154B13B5A8
S31508002BA01868002301908DF80430FFF782F9124B5C
S31508002BB01C7824B1FFF783F9104802B010BD012232
S31508002BC01A70FFF77CF90E4B01A81C731C7783F863
S31508002BD02C4083F83C4083F84C4083F85C4083F8EB
S31508002BE06C4083F87C4008238DF80730FFF7B8FD62
S31508002BF02046E2E71BE8000848130020038000F09F
S31508002C00C8110020F8B50D4D2D7885B1072810DCC0
S31508002C100B4D060105EB0014277B67B1AB51002568
S31508002C20069BA5606360FFF7E5FD2846F8BD0548E5
S31508002C30FCE70548FAE70548F8E700BF481300200F
S31508002C40C8110020028000F0018000F0078000F023
S31508002C500A4A08B5127852B107280AD8084A02EB78
S31508002C6000131B7B3BB1FFF747FE002008BD054854
S31508002C70FCE70548FAE70548F8E700BF48130020CF
S31508002C80C8110020028000F0018000F0078000F0E3
S31508002C902DE9F843174B1F6D5B6D1F4000D5FEE706
S31508002CA001260025144CDFF85480DFF8549037428B
S31508002CB017D02368C8F850609BB1A168284601312F
S31508002CC06268A1609847637B012B0AD148B909EB72
S31508002CD045131A7B60F341021A731A7F60F34102A7
S31508002CE01A770135082D4FEA460604F11004DED19D
S31508002CF0BDE8F88300000450C811002000200450E5
S31508002D0048120020D0E9000318478368006818476E
S31508002D10C36800681847000038B50D460446B0B1C8
S31508002D20012816D0022816D0032803D13F23EB40EA
S31508002D30DB0704D440F2FE31084800F0C1F8302021
S31508002D4001214443064B01FA05F51D5138BDFF2301
S31508002D50EDE70F23EBE740F2FF33E8E795E60008D7
S31508002D6040E0035038B50D460446B0B1012816D0E8
S31508002D70022816D0032803D13F23EB40DB0704D4EF
S31508002D8040F22D41084800F09BF8302001214443C9
S31508002D90064B01FA05F51D5138BDFF23EDE70F2354
S31508002DA0EBE740F2FF33E8E795E6000840D003502A
S31508002DB010B5044601213A20FEF71EF9A3782078BB
S31508002DC0B3FA83F3042261785B09FFF777FC0020E6
S31508002DD010BD034659789B7800780BB9FFF79CBF5E
S31508002DE0FFF7C0BF034659789B7800780BB9FFF701
S31508002DF0B9BFFFF791BF000038B504784578ACB184
S31508002E00012C15D0022C15D0032C03D13F23EB40FF
S31508002E10DB0704D44FF48961084800F051F83023E1
S31508002E2001225C43064BAA401A5138BDFF23EEE740
S31508002E300F23ECE740F2FF33E9E700BF95E6000809
S31508002E4040F0035070B5057804464678E5B1012D83
S31508002E501CD0022D1CD0032D03D13F22F240D307EC
S31508002E6004D44FF483610C4800F02AF8102330226A
S31508002E7012FB0535094BEB58F34003F00100A37824
S31508002E800BB980F0010070BDFF22E7E70F22E5E7E6
S31508002E9040F2FF32E2E700BF95E6000830C0035073
S31508002EA005490A681318054883428CBF4FF0FF325C
S31508002EB00B601046704700BF041000200000042075
S31508002EC0FEE7FEE708B500F02DF8124B12498B42D3
S31508002ED012D30020114B12498B4218D3FDF76CF917
S31508002EE0186850F82240586840F82240013298681D
S31508002EF08242F5D30C33EAE70022F8E71C6844F867
S31508002F00220001325C68A242F8D30833E4E70022C3
S31508002F10F8E700BF506C02085C6C02085C6C02089B
S31508002F205C6C02084FF480414FF0FF30114B124A97
S31508002F3010B59A60D3F8882042F47002C3F8882046
S31508002F400E4A91660E4901F5005210660D48506604
S31508002F500220C3F8D000BFF34F8FBFF36F8F012451
S31508002F604FF440330848C0F88041D36004600B61D1
S31508002F7010BD00BF00ED00E0000000080090005002
S31508002F8000800044F7FF370000E100E0014B1868B5
S31508002F90704700BF0C100020084B1B6F03F0070397
S31508002FA0022B04D0032B05D0012B05D0FEE7044BDA
S31508002FB018687047034BFBE70348704700800050CA
S31508002FC00C10002010100020002D310108B5FFF765
S31508002FD0E3FF054B1B6FC3F303330133B0FBF3F079
S31508002FE0024B186008BD00BF008000500810002082
S31508002FF00048704700B4C404014B1868704700BF06
S3150800300010100020054B1860054B1B6F03F00703D3
S31508003010032B01D1FFF7DABF704700BF101000205D
S31508003020008000500020704700487047002D31018D
S315080030304FF0B4439868C0F304400C2822D8DFE860
S3150800304000F0092121212121071719211B1D1F0025
S315080030500F4870479B6803F04073B3F1807F13D025
S31508003060B3F1007F12D00B4A002B08BF10467047F9
S315080030700948704709487047094870470948704722
S315080030800948704700207047084870470848704745
S31508003090405DC60000093D000024F400C0EA210195
S315080030A080BA8C010048E801005A620280841E003A
S315080030B040420F004FF4004070474FF47A70704753
S315080030C0014B1868704700BF141000200122024BFC
S315080030D0C3F8A020704700BF00D003500122024B5E
S315080030E0C3F8A020704700BF00E0035070B5454CF8
S315080030F08EB0264601AD0FCE0FC5336814342B604B
S3150800310006AD0FCC0FC594E80F0085E80F00012126
S315080031103A20FDF771FF01215720FDF76DFF4FF4A7
S315080031208073394DADF81C30384B2846039301A9F6
S3150800313006AB0593FFF766F9012304220321022053
S31508003140FFF7BCFA0221002308460122FFF7B6FA68
S315080031500123042219460220FFF7B0FA04220021AF
S3150800316001230220FFF7AAFA294C2A4B4FF448708C
S31508003170C4F8C8344FF00213C4F8C43403F58033D6
S31508003180C4F8CC341C23C4F8B434FDF74FF8142023
S31508003190FFF7A4FFFDF74AF82320FFF797FFFDF78F
S315080031A045F8B9212846FFF799FFFFF735F8FFF7E5
S315080031B08DFF002303211A460220FFF77FFA00231A
S315080031C002211A460846FFF779FA01230022194612
S315080031D00220FFF773FA0022012311460220FFF7A7
S315080031E06DFA2846FEF7B8FF00215720C4F8C81420
S315080031F0C4F8C414C4F8CC14C4F8B414FDF7FCFE1F
S315080032000EB070BD20E8000800000A50E070720099
S3150800321000C0035002000100F0B54B1E012B074603
S315080032200E468BB07CD83F4D01AC0FCD0FC40FCDE9
S315080032300FC42B6801213A202360FDF7DDFE01212A
S315080032402920FDF7D9FE0023012204210320FFF7D8
S3150800325035FA0321002308460422FFF72FFA042231
S31508003260002305210320FFF729FA05238DF80430EA
S3150800327001238DF818304FF44073012E01A92A480E
S315080032804FEA871708BF8DF82360ADF820300397FB
S31508003290FFF71CFC0D22254B1A62254A1A634FF0CC
S315080032A003125A6302F500325A62FFF777FC0021CF
S315080032B02048FFF743FC044618B1012420460BB00A
S315080032C0F0BD1D4A012ED37823F03C0343F03403A6
S315080032D0D370D37C23F03C0343F03403D37412D168
S315080032E001461648FFF72AFC0028E6D1144AD37887
S315080032F023F03C0343F03403D370D37C23F03C0320
S3150800330043F03403D3740F4B0F4A1E700023137017
S315080033100E4A13700E4A137001220E4B1A70CDE72F
S315080033202124CBE754E8000800C0055000C7035025
S315080033300300040050130020181000205413002026
S31508003340381000205A1300205B1300207413002045
S315080033505913002058130020184B73B51B78002BFF
S3150800336028D0174D2C783CBB164A174E11681748BB
S315080033701369314001431160334015490343154829
S315080033809160136191610094134B14490068FFF72B
S3150800339039FC134B1B78012B07D11248009423469E
S315080033A0114A12490068FFF72DFC012300202B70F3
S315080033B002B070BD1120FBE70220F9E75813002080
S315080033C059130020181000200F80FFCFF07F00301F
S315080033D06813002050130020C1340008581000203C
S315080033E05A130020541300203810002068100020BB
S315080033F0184B2DE9F0411B7804460D4616461BB3BB
S31508003400154B1B7813BB154F3B78FBB9DFF860806B
S3150800341098F800304B43B3F5006F19D8104B1B785A
S315080034200BB9FFF799FF98F800000E4B6843186030
S315080034300D4B1C6004EB40045C600C4B00201E60C6
S3150800344001233B70BDE8F0811120FBE70220F9E774
S315080034502120F7E7581300205B130020741300207F
S3150800346059130020601300206C1300204C13002011
S315080034705A13002010B50C4C237893B10B4B1868DF
S31508003480FFF7E6FB0A4B1B78012B03D1094B18689B
S31508003490FFF7DEFB0020084B20701870074B1870EA
S315080034A010BD0220FCE700BF59130020501300206E
S315080034B05A130020541300205B13002074130020B5
S315080034C0F8B53B4D2B78002B42D03A4811F0010F46
S315080034D000F1100308BF1946374E384B32681C688E
S315080034E018BF0146A2422CD2CB786FF30513CB70D6
S315080034F0334B1B6803EB42038B60A31AB3F5006FCB
S315080035000B8817D940F2FF7402F5006264F30E13B4
S315080035100B803260C37803F03003302B08D1C37CAC
S3150800352003F03003302B03D100232B70FFF7A2FFE3
S315080035300120F8BD671EBA1A62F30E130B803460B9
S31508003540E8E70A681F4B13430B601F4B8B60E1E7E4
S315080035501E4B1B78002BEBD0C943164801F001031C
S3150800356000EB0314E2781D01C2F30112032A0FD1FE
S31508003570124A46591268013AC2F30A01144A3240FD
S3150800358042EA01124251134A52F82330A360CFE7A8
S31508003590114A1268002ACBD01049084809780068F1
S315080035A0B0FBF1F10B4850F823009047C0E700BF85
S315080035B05B130020181000206413002060130020FD
S315080035C05C130020F07F003068130020741300207D
S315080035D00F80FFCF6C1300204C1300205A130020D5
S315080035E00F207047082808B504D00FDC022809DC2C
S315080035F0002809DD0123042209210220FFF75EF8CD
S31508003600002008BD0428F5D09F2106E02028F1D027
S31508003610402807D01028F7D188210448FFF750FC26
S315080036200E20EEE7012304220821E6E778E80008E1
S3150800363008B501213A20FDF7DFFC00F00BF8402021
S31508003640FFF7D0FFBDE80840FFF750BD01213A203B
S31508003650FDF7D2BC704708B503218020FEF742F972
S3150800366003214FF48060FEF73DF909214FF4C0604D
S31508003670FEF738F909214FF4F060FEF733F909210E
S315080036803E20FEF72FF909212D20FEF72BF90921F7
S315080036905120FEF727F9002008BD08B5FDF7C2F846
S315080036A0FFF7D4FFFDF74AF8FDF770F8FDF7A4F821
S315080036B0FFF7D1FFFDF758F8BDE80840FFF7B8BF98
S315080036C000F00EB808B5FFF78BFFBDE80840FCF719
S315080036D083BE704770477047704770477047000051
S315080036E008B50448FFF70EFBBDE808400248FFF797
S315080036F009BB00BFD4E80008ECE8000870B5054629
S31508003700FCF7A4FE0C490446284601F0BFFEFCF768
S315080037109DFE0A490A4D0A682E68531E06FB0303D6
S31508003720181BB0FBF2F0013228600F20BDE870408C
S315080037300A60FCF797BE00BF4537000880100020D6
S31508003740781300202DE9F341018A0546FD2940D06A
S3150800375029B1214802B0BDE8F04100F0C1BD448955
S31508003760052C28D81D4B012C53F8248026D0E21EA0
S3150800377057425741012C22D0231F5E425E41686999
S3150800378000F0FCFA0022164B00F07CF800F060FB13
S3150800379040B20090234642462968124800F0A0FD30
S315080037A0114877B1FFF7B1FA10486EB102B0BDE81B
S315080037B0F041FFF7AABADFF83880D8E72746264649
S315080037C0DDE7FFF7A5FAEFE702B0BDE8F041FFF73E
S315080037D09FBA02B0BDE8F0810CE900088410002009
S315080037E00000693F17E90008D4E80008ECE800087B
S315080037F004E9000808B5154800F0F8FD144800F07B
S31508003800F5FD0020FDF724FC4FF47A5201461148D5
S3150800381000F066FD0E4800F0E9FD00230E491A4641
S315080038200E4801F0E9FD014658B901214FF47A50D6
S31508003830FFF7F2FCBDE80840F021094A0948FFF7FE
S31508003840D7BD0948BDE8084000F04ABDA3E900080D
S315080038504FE90008A5E90008CC24020844EA000854
S31508003860FD3600087C130020E0E90008FEE708B5ED
S31508003870FCF712FDFFF7BEFFFCF71BFDFFF7F6FF8F
S31508003880FAE7000070B54FF0FF0C4CF4E06C1CEA48
S3150800389011541DBF1CEA135594EA0C0F95EA0C0F38
S315080038A000F0DEF82C4481EA030621EA4C5123EAAB
S315080038B04C5350EA013518BF52EA033541F48011DA
S315080038C043F4801338D0A0FB02CE4FF00005E1FB8D
S315080038D002E506F00042E0FB03E54FF00006E1FBD7
S315080038E003569CF0000F18BF4EF0010EA4F1FF041A
S315080038F0B6F5007F64F5407404D25FEA4E0E6D415A
S3150800390046EB060642EAC62141EA55514FEAC5206A
S3150800391040EA5E504FEACE2EB4F1FD0C88BFBCF5E6
S31508003920E06F1ED8BEF1004F08BF5FEA500E50F197
S31508003930000041EB045170BD06F0004646EA01015D
S3150800394040EA020081EA0301B4EB5C04C2BFD4EB8F
S315080039500C0541EA045170BD41F480114FF0000E88
S31508003960013C00F3AB8014F1360FDEBF002001F0F6
S31508003970004170BDC4F10004203C35DA0C341BDC70
S3150800398004F11404C4F1200500FA05F320FA04F042
S3150800399001FA05F240EA020001F0004221F0004176
S315080039A010EBD37021FA04F642EB06015EEA430EE9
S315080039B008BF20EAD37070BDC4F10C04C4F1200519
S315080039C000FA04F320FA05F001FA04F240EA0200CC
S315080039D001F0004110EBD37041F100015EEA430E9D
S315080039E008BF20EAD37070BDC4F1200500FA05F2BD
S315080039F04EEA020E20FA04F301FA05F243EA02033C
S31508003A0021FA04F001F0004121FA04F220EA02004A
S31508003A1000EBD3705EEA430E08BF20EAD37070BD90
S31508003A2094F0000F0FD101F00046400041EB010170
S31508003A3011F4801F08BF013CF7D041EA060195F052
S31508003A40000F18BF704703F00046520043EB03030C
S31508003A5013F4801F08BF013DF7D043EA06037047F9
S31508003A6094EA0C0F0CEA135518BF95EA0C0F0CD004
S31508003A7050EA410618BF52EA4306D1D181EA03014A
S31508003A8001F000414FF0000070BD50EA410606BF44
S31508003A901046194652EA430619D094EA0C0F02D189
S31508003AA050EA013613D195EA0C0F05D152EA0336CE
S31508003AB01CBF104619460AD181EA030101F00041EC
S31508003AC041F0FE4141F470014FF0000070BD41F035
S31508003AD0FE4141F4780170BD81F0004102E000BF6B
S31508003AE083F0004330B54FEA41044FEA430594EAB0
S31508003AF0050F08BF90EA020F1FBF54EA000C55EAEB
S31508003B00020C7FEA645C7FEA655C00F0E2804FEABB
S31508003B105454D4EB5555B8BF6D420CDD2C4480EA9D
S31508003B20020281EA030382EA000083EA010180EACD
S31508003B30020281EA0303362D88BF30BD11F0004F1B
S31508003B404FEA01314FF4801C4CEA113102D0404251
S31508003B5061EB410113F0004F4FEA03334CEA13338C
S31508003B6002D0524263EB430394EA050F00F0A780A4
S31508003B70A4F10104D5F1200E0DDB02FA0EFC22FA9F
S31508003B8005F2801841F1000103FA0EF2801843FA93
S31508003B9005F359410EE0A5F120050EF1200E012A84
S31508003BA003FA0EFC28BF4CF0020C43FA05F3C018C2
S31508003BB051EBE37101F0004507D54FF0000EDCF13B
S31508003BC0000C7EEB00006EEB0101B1F5801F1BD3E4
S31508003BD0B1F5001F0CD349085FEA30004FEA3C0CE8
S31508003BE004F101044FEA445212F5800F80F09A80DE
S31508003BF0BCF1004F08BF5FEA500C50F1000041EBE2
S31508003C00045141EA050130BD5FEA4C0C404141EBE5
S31508003C100101013C28BFB1F5801FE9D291F0000FE0
S31508003C2004BF01460020B1FA81F308BF2033A3F18F
S31508003C300B03B3F120020CDA0C3208DD02F1140C86
S31508003C40C2F10C0201FA0CF021FA02F10CE002F1C1
S31508003C501402D8BFC2F1200C01FA02F120FA0CFCBA
S31508003C60DCBF41EA0C019040E41AA2BF01EB045103
S31508003C70294330BD6FEA04041F3C1CDA0C340EDC01
S31508003C8004F11404C4F1200220FA04F001FA02F344
S31508003C9040EA030021FA04F345EA030130BDC4F102
S31508003CA00C04C4F1200220FA02F001FA04F340EAF7
S31508003CB00300294630BD21FA04F0294630BD94F0A8
S31508003CC0000F83F4801306BF81F480110134013D8F
S31508003CD04EE77FEA645C18BF7FEA655C29D094EA00
S31508003CE0050F08BF90EA020F05D054EA000C04BF7E
S31508003CF01946104630BD91EA030F1EBF0021002069
S31508003D0030BD5FEA545C05D14000494128BF41F007
S31508003D10004130BD14F580043CBF01F5801130BD6B
S31508003D2001F0004545F0FE4141F470014FF00000F6
S31508003D3030BD7FEA645C1ABF194610467FEA655CA7
S31508003D401CBF0B46024650EA013406BF52EA033549
S31508003D5091EA030F41F4002130BD00BF90F0000F37
S31508003D6004BF0021704730B54FF4806404F1320473
S31508003D704FF000054FF0000150E700BF90F0000F2C
S31508003D8004BF0021704730B54FF4806404F1320453
S31508003D9010F0004548BF40424FF000013EE700BF23
S31508003DA042004FEAE2014FEA31014FEA02701FBFB3
S31508003DB012F07F4393F07F4F81F06051704732F0E5
S31508003DC07F4208BF704793F07F4F04BF41F400213C
S31508003DD0704730B54FF4607401F0004521F000419A
S31508003DE01CE700BF50EA010208BF704730B54FF024
S31508003DF000050AE050EA010208BF704730B511F025
S31508003E00004502D5404261EB41014FF4806404F15C
S31508003E1032045FEA915C3FF4D8AE4FF003025FEAE2
S31508003E20DC0C18BF03325FEADC0C18BF033202EB66
S31508003E30DC02C2F1200300FA03FC20FA02F001FAC0
S31508003E4003FE40EA0E0021FA02F11444BDE600BF63
S31508003E504FEA410212F5001215D211D56FF47873A4
S31508003E60B3EB625212D94FEAC12343F0004343EA47
S31508003E70505311F0004F23FA02F018BF4042704722
S31508003E804FF00000704750EA013005D111F00040AC
S31508003E9008BF6FF0004070474FF00000704700BF42
S31508003EA07BB972B90029BEBF00204FF0004106E079
S31508003EB008BF00281CBF6FF000414FF0FF3000F02C
S31508003EC0CDB9ADF1080C6DE904CE002909DB002B4C
S31508003ED01ADB00F04DF8DDF804E0DDE9022304B052
S31508003EE07047404261EB4101002B1BDB00F040F8B4
S31508003EF0DDF804E0DDE9022304B0404261EB41014C
S31508003F00524263EB43037047524263EB430300F0AC
S31508003F102FF8DDF804E0DDE9022304B0404261EB46
S31508003F2041017047524263EB430300F021F8DDF884
S31508003F3004E0DDE9022304B0524263EB4303704711
S31508003F4053B94AB9002908BF00281CBF4FF0FF31F2
S31508003F504FF0FF3000F082B9ADF1080C6DE904CEE0
S31508003F6000F006F8DDF804E0DDE9022304B0704746
S31508003F702DE9F04F099D04460F46002B48D18A4289
S31508003F80944661D9B2FA82F343B1C3F120019F4046
S31508003F9002FA03FC9C4020FA01F10F434FEA1C4148
S31508003FA01FFA8CFE220CB7FBF1F601FB167706FB0F
S31508003FB00EF042EA0742904208D91CEB020206F1CB
S31508003FC0FF3702D2904200F237813E46121AA4B257
S31508003FD0B2FBF1F001FB102200FB0EFE44EA02449C
S31508003FE0A64508D91CEB040400F1FF3202D2A64507
S31508003FF000F21C81104640EA0640A4EB0E04002697
S315080040001DB1DC400023C5E900433146BDE8F08F09
S315080040108B4209D9002D00F0FD800026C5E9000174
S3150800402030463146BDE8F08FB3FA83F6002E4BD101
S315080040308B42C0F0F280824240F2EF803046002D7B
S31508004040E3D0C5E90047E0E702B9FFDEB2FA82F33A
S31508004050002B40F09D80891A4FEA124E97B201262E
S31508004060200CB1FBFEF20EFB121140EA014107FBE0
S3150800407002F088420FD91CEB010102F1FF382CBF70
S315080040804FF001094FF00009884203D9B9F1000F32
S3150800409000F0CF804246091AA4B2B1FBFEF00EFB2F
S315080040A0101100FB07F744EA0144A74208D91CEBA4
S315080040B0040400F1FF3102D2A74200F2B480084698
S315080040C0E41B40EA02409BE7C6F12007B34001FA29
S315080040D006F422FA07FCF940B2404CEA030C20FA2F
S315080040E007F34FEA1C491C431FFA8CFE00FA06F335
S315080040F0200CB1FBF9F809FB181140EA014108FB4D
S315080041000EF088420FD91CEB010108F1FF3A2CBFCB
S315080041104FF0010B4FF0000B884203D9BBF1000F9B
S3150800412000F08D80D046091AA4B2B1FBF9F009FB5C
S31508004130101100FB0EFE44EA01418E4507D91CEB1F
S31508004140010100F1FF3401D28E457FD8204640EAAE
S315080041500840A1EB0E01A0FB029841454C46C64615
S3150800416002D306D14B4504D20138B9EB020468EBF9
S315080041700C0E002D70D01A1B61EB0E0122FA06F305
S3150800418001FA07F7F14000261F43C5E900713CE72D
S3150800419002FA03FCC3F1200001FA03F221FA00F641
S315080041A04FEA1C4E24FA00F11FFA8CF79C40114383
S315080041B0B6FBFEF00A0C0EFB106642EA064200FB4E
S315080041C007F696420ED91CEB020200F1FF382CBF07
S315080041D04FF001094FF00009964202D9B9F1000FD4
S315080041E031D04046921B89B2B2FBFEF60EFB162270
S315080041F041EA024106FB07F28A4207D91CEB010194
S3150800420006F1FF3801D28A4223D84646891A46EA79
S31508004210004625E72E462846F7E6841A61EB03038F
S3150800422001201F460BE76444023849E76444023814
S31508004230E1E6023A61442EE7023E6244C6E6A8F188
S31508004240020861446FE702386244CBE702386144EA
S315080042507DE7023E6144D9E72E46D6E6704700BFA1
S3150800426008B5074B044613B1002100E000BF054B13
S315080042701868836A03B19847204601F0BBF800BF67
S3150800428000000000C82D020870B50D4D00260D4C23
S31508004290641BA410A64209D10B4D00260B4C0AF04C
S315080042A0C5F8641BA410A64205D170BD55F8043B99
S315080042B001369847EEE755F8043B01369847F2E78A
S315080042C08411002084110020841100208811002008
S315080042D002440346934200D1704703F8011BF9E7ED
S315080042E00FB40A4B13B51C6824B1A36913B9204649
S315080042F000F05CFA05AB049AA1682046019300F029
S3150800430065FC02B0BDE8104004B070479C10002060
S3150800431070B50E46054618B183690BB900F046FA22
S31508004320AB69AC6813B9284600F040FA2C4B9C429E
S3150800433020D16C68636EDB0705D4A389980502D47F
S31508004340A06D00F0D1FAA38919071DD52369DBB141
S31508004350013EA36816F8011F013BA36039BB002B79
S3150800436038DA22460A21284600F048F8013011D0EA
S315080043700A2511E01B4B9C4201D1AC68DAE71A4BBF
S315080043809C4208BFEC68D5E72146284600F088F825
S315080043900028DDD04FF0FF35636EDA0705D4A38910
S315080043A09B0502D4A06D00F0A0FA284670BD002B2C
S315080043B004DAA2699A4206DC0A2904D023685A1C40
S315080043C022601970C5E72246284600F017F8013022
S315080043D0BFD1DFE723680A255A1C22601D70DBE778
S315080043E0EC2D02080C2E0208CC2D0208024B0146C1
S315080043F01868FFF78DBF00BF9C100020F8B50E4661
S315080044001446054618B183690BB900F0CFF9214B5C
S315080044109C422BD16C68A369A360A3891A072FD580
S3150800442023696BB32369F6B220683746C01A6369F5
S31508004430834204DC2146284600F024F930BBA368F1
S315080044400130013BA36023685A1C22601E70636911
S31508004450834204D0A389DB0706D50A2E04D1214658
S31508004460284600F00FF988B93846F8BD0A4B9C4231
S3150800447001D1AC68CFE7094B9C4208BFEC68CAE794
S315080044802146284600F00CF80028CBD04FF0FF371D
S31508004490EAE700BFEC2D02080C2E0208CC2D020814
S315080044A0324B70B51D6806460C4625B1AB6913B983
S315080044B0284600F07BF92E4B9C420FD16C68A389E5
S315080044C0B4F90C2019072CD4DD0611D4092333605E
S315080044D042F040034FF0FF30A3813EE0254B9C425B
S315080044E001D1AC68EBE7244B9C4208BFEC68E6E7D1
S315080044F0580712D5616B41B104F14403994202D0C1
S31508004500304600F059FA00236363A38923F0240395
S31508004510A3810023636023692360A38943F008030A
S31508004520A38123694BB9A38903F42073B3F5007FEC
S3150800453003D02146304600F0FFF9A089B4F90C20D3
S3150800454010F001030AD00023A36063695B42A361EC
S31508004550236943B910F08000BAD170BD810758BFEE
S315080045606369A360F4E70020F7E700BF9C1000200A
S31508004570EC2D02080C2E0208CC2D02088A892DE99A
S31508004580F041054610070C4658D44B68002B05DC4D
S315080045900B6C002B02DC0020BDE8F081E66A002ED9
S315080045A0F9D0002312F480522F682B6032D0606D48
S315080045B0A3895A0705D56368C01A636B0BB1236CC8
S315080045C0C01A00230246E66A2846216AB047431CF9
S315080045D0A38906D129681D292CD8294ACA40D60795
S315080045E028D50022D90462602269226004D5421CBB
S315080045F001D12B6803B96065616B2F600029CAD0A9
S3150800460004F14403994202D0284600F0D5F9002067
S315080046106063C1E7216A01232846B047411CC7D118
S315080046202B68002BC4D01D2B01D0162B01D12F606F
S31508004630B1E7A38943F04003A381ADE70F69002FD3
S31508004640A9D093070E680F600CBF4B690023A6EB31
S3150800465007088B60B8F1000F9DDD43463A46216A8C
S315080046602846A66AB047002806DCA3894FF0FF3023
S3150800467043F04003A3818FE70744A8EB0008E9E766
S315080046800100402038B50B6905460C4613B90025CC
S31508004690284638BD18B183690BB900F087F8144B62
S315080046A09C421BD16C68B4F90C30002BEFD0626EBB
S315080046B0D00704D4990502D4A06D00F015F9284650
S315080046C02146FFF75BFF636E0546DA07E0D4A38948
S315080046D09B05DDD4A06D00F008F9D9E7054B9C428F
S315080046E001D1AC68DFE7044B9C4208BFEC68DAE707
S315080046F0EC2D02080C2E0208CC2D0208002310B55A
S3150800470004468360818119464366C2810822836113
S31508004710C0E90033C0E904335C30FFF7D9FD054B27
S3150800472024626362044BA362044BE362044B236373
S3150800473010BD00BF795100089F510008D7510008E5
S31508004740FB510008014900F0AFB800BF85460008D4
S3150800475070B568224D1E0E46554305F1740100F0EA
S3150800476097F9044640B1002105F16802C0E9001630
S315080047700C30A060FFF7ACFD204670BD014800F084
S31508004780B3B800BF3D170020014800F0AEB800BF1F
S315080047903D170020014800F0A7B800BF3E170020CB
S315080047A0014800F0A2B800BF3E17002010B5044625
S315080047B0FFF7F0FFA3691BB1BDE81040FFF7F0BF94
S315080047C0C4E9123323652046124B134A1B68A262BA
S315080047D0A34204BF0123A36100F020F860602046CD
S315080047E000F01CF8A060204600F018F8002204210A
S315080047F0E0606068FFF782FF01220921A068FFF7E1
S315080048007DFF02221221E068FFF778FF0123A361EA
S31508004810D2E700BFC82D020845470008F8B5074685
S31508004820FFF7ACFF1E4B1E68B36913B93046FFF796
S31508004830BDFF4836D6E90134013B03D533680BB3CF
S315080048403668F7E7B4F90C50D5B9164B04F1580099
S315080048506566E36000F047F8FFF796FF08222946E9
S3150800486004F15C002560A561C4E90155C4E9045555
S31508004870FFF72EFDC4E90D55C4E912552046F8BDCB
S315080048806834D9E704213846FFF762FF04463060EA
S315080048900028D5D1FFF778FF0C233B60EEE700BF71
S315080048A0C82D02080100FFFF2DE9F8430646884691
S315080048B000F148040027D4E90195B9F1010905D5A5
S315080048C02468002CF7D13846BDE8F883AB89012B5C
S315080048D007D9B5F90E30013303D029463046C0470B
S315080048E007436835E9E770477047704770B50E4665
S315080048F0B1F90E1096B0144600291D4608DAB6F925
S315080049000C3000222A601A0610D44FF480630EE099
S315080049106A4600F099FC0028F1DB019A02F470421D
S31508004920A2F500535A425A412A60EEE74023002076
S31508004930236016B070BD00008B8973B59D070646C7
S315080049400C4607D504F147032360236101236361FD
S3150800495002B070BD01AB6A46FFF7C8FF009905466D
S31508004960304600F095F848B9B4F90C309A05EFD4FA
S3150800497023F0030343F00203A381E3E70D4BB3627D
S31508004980A389206043F080032061A381009B6361B3
S31508004990019B5BB1B4F90E10304600F067FC28B1F4
S315080049A0A38923F0030343F00103A381A0890543E8
S315080049B0A581CDE74547000837B5002943D051F80A
S315080049C0043C0C1F0190002BB8BFE41800F08CFCC7
S315080049D01E4A0198136833B96360146003B0BDE8D2
S315080049E0304000F087BCA34208D9256861198B427C
S315080049F001BF19685B6849192160EDE71A465B68CB
S31508004A000BB1A342FAD911685518A5420BD12468EF
S31508004A10214454181160A342E0D11C685B68214404
S31508004A2053601160DAE702D90C230360D6E72568DC
S31508004A3061198B4202BF19685B684919636008BF30
S31508004A4021605460CAE703B030BD00BF401700209C
S31508004A5070B50E4E0C460546316811B900F07CFB60
S31508004A6030602146284600F077FB431C0AD0C41C58
S31508004A7024F00304A04207D0211A284600F06CFB54
S31508004A80013001D14FF0FF34204670BD4417002095
S31508004A902DE9F041CD1C074625F0030508350C2DF8
S31508004AA038BF0C25002D01DBA94205D90C230026A9
S31508004AB03B603046BDE8F0812E4E00F015FC3368A9
S31508004AC01C4634BB29463846FFF7C2FF431C04463A
S31508004AD04DD134682646002E40D1236831463846E3
S31508004AE004EB030800F038FB80453AD1216803350A
S31508004AF038466D1A25F0030508350C2D38BF0C25E8
S31508004B002946FFF7A5FF01302BD023682B442360E5
S31508004B100EE02268521B1ED40B2A16D96119A3422D
S31508004B20256018BF5960636808BF316062514B60E1
S31508004B3004F10B06384600F0DDFB231D26F00706B8
S31508004B40F21AB6D09B1BA350B3E76268A3420CBF08
S31508004B5032605A60ECE723466468B2E73446766802
S31508004B60B9E70C2338463B6000F0C4FBA1E7256093
S31508004B70DEE700BF401700209368013B002B9360D7
S31508004B8010B408DA9469A34201DB0A2903D15DF857
S31508004B90044BFFF733BC1368581C1060084619709D
S31508004BA05DF8044B7047F8B506460F461446D51807
S31508004BB0AC4201D1002007E03A4614F8011B304602
S31508004BC0FFF7DAFF431CF3D1F8BD00002DE9F04FDB
S31508004BD00D469DB014469846064618B183690BB92A
S31508004BE0FFF7E4FD894B9D421BD175686B6ED907AB
S31508004BF005D4AB899A0502D4A86DFFF775FEAB8973
S31508004C001B0701D52B69EBB929463046FFF748FC47
S31508004C10C0B16B6EDC070ED54FF0FF301DB0BDE896
S31508004C20F08F7B4B9D4201D1B568DFE7794B9D42FA
S31508004C3008BFF568DAE7AB899805EDD4A86DFFF7E4
S31508004C4054FEE9E70023CDF80C804FF00109DFF8A0
S31508004C50C881099320238DF8293030238DF82A300E
S31508004C6023469A4613F8012B0AB1252AF9D1BAEB3D
S31508004C70040B0BD05B46224629463046FFF793FFC6
S31508004C80013000F0AA80099A5A4409929AF800302D
S31508004C90002B00F0A28000234FF0FF320AF1010A30
S31508004CA0049307938DF853301A93CDE90523544698
S31508004CB00522594814F8011B00F0FAFA049AD8B9E3
S31508004CC0D10644BF20238DF85330130744BF2B2346
S31508004CD08DF853309AF800302A2B15D0079A544687
S31508004CE000204FF00A0C214611F8013B303B092BF6
S31508004CF04ED9B0B1079214E0A0EB0803A24609FA10
S31508004D0003F313430493D2E7039B191D1B68002B77
S31508004D100391BBBF5B4242F0020207930793B8BFF9
S31508004D20049223782E2B0CD163782A2B35D1039B3A
S31508004D3002341A1D1B68002B0392B8BF4FF0FF33CD
S31508004D400593DFF8E4A003222178504600F0B0FA74
S31508004D5040B14023A0EB0A00013403FA00F0049B9B
S31508004D600343049314F8011B06222C488DF82810D7
S31508004D7000F09EFA00283FD0294B1BBB039B073344
S31508004D8023F0070308330393099B3B44099367E71A
S31508004D900CFB02320C460120A5E7002301344FF034
S31508004DA00A0C19460593204610F8012B303A092AB1
S31508004DB003D9002BC5D00591C3E70CFB0121044696
S31508004DC00123F0E703AB2A4604A930460093154BA6
S31508004DD000E000BF0746781CD6D16B6ED90705D40C
S31508004DE0AB899A0502D4A86DFFF77FFDAB895B06F0
S31508004DF03FF512AF099811E703AB2A4604A93046D6
S31508004E000093084B00F082F8E4E700BFEC2D020897
S31508004E100C2E0208CC2D02082C2E0208362E02086B
S31508004E2000000000A74B0008322E02082DE9F047C3
S31508004E30164699468A6807460B690C46DDF82080AF
S31508004E409342B8BF1346336091F843200AB1013341
S31508004E5033602368990642BF336802333360256896
S31508004E6015F0060506D104F1190AE36832689B1A9B
S31508004E70AB4229DC94F84320131E226818BF01238D
S31508004E8092062ED404F1430249463846C0470130FB
S31508004E9021D023681A3454F80E5C03F006033268EE
S31508004EA00026042B54F8123C08BFAD1A54F80A2CF5
S31508004EB014BF002525EAE5759342C4BF9B1AED1871
S31508004EC0B5421AD1002008E0012352464946384621
S31508004ED0C047013003D14FF0FF30BDE8F0870135F8
S31508004EE0C3E7E1185A1C30200233224481F84300F4
S31508004EF094F8451082F84310C4E701232246494630
S31508004F003846C0470130E6D00136D9E72DE9FF47D4
S31508004F100F7E914680460C46782F9A460C9D01F1E5
S31508004F20430207D8622F0AD8002F00F0D880582FDE
S31508004F3000F0A38004F1420584F842703AE0A7F134
S31508004F406303152BF6D801A151F823F0A54F0008E5
S31508004F50B94F0008354F0008354F0008354F00088F
S31508004F60354F0008B94F0008354F0008354F00087F
S31508004F70354F0008354F0008C5500008E94F0008AE
S31508004F80A7500008354F0008354F0008E7500008BD
S31508004F90354F0008E94F0008354F0008354F00081F
S31508004FA0AF5000082B681A1D1B682A6004F14205D9
S31508004FB084F842300123A3E020682968060601F137
S31508004FC004030AD50E682B60002E03DA2D237642D9
S31508004FD084F843305E480A2319E00E6810F0400F43
S31508004FE02B6018BF36B2EFE72B682068191D2960B9
S31508004FF0010601D51E6802E04606FBD51E886F2FFE
S3150800500053480CBF08230A23002184F84310656817
S31508005010002DA560A2BF216821F0040121600EB908
S31508005020002D4DD01546B6FBF3F103FB1167C75D9E
S3150800503005F8017D37460E46BB42F4D9082B0BD13D
S315080050402368DE0708D5236961689942DEBF3023E5
S3150800505005F8013C05F1FF35521B22614B4603AAB0
S3150800506021464046CDF800A0FFF7E0FE01304CD1BE
S315080050704FF0FF3004B0BDE8F087354881F8457039
S315080050802968236851F8046B29601D0614D5DF07C3
S3150800509044BF43F0200323601EB9236823F020038E
S315080050A023601023B0E7236843F0200323607823A6
S315080050B0284884F84530E3E7590648BFB6B2E6E71C
S315080050C01546BBE72B682668181D616928603506F2
S315080050D01B6801D5196002E07006FBD5198000230C
S315080050E015462361BAE72B6800211A1D2A601D6838
S315080050F06268284600F0DCF808B1401B6060636807
S315080051002361002384F84330A8E723692A464946E1
S315080051104046D0470130ABD023689B0713D4E068DC
S31508005120039B9842B8BF1846A4E70123324649466E
S315080051304046D04701309BD00135E36803995B1A96
S31508005140AB42F2DCEBE7002504F11906F5E700BFF0
S315080051503D2E02084E2E020838B50023054D04469A
S3150800516008462B60FDF79CFE431C02D12B6803B151
S31508005170236038BD4817002010B50C46B1F90E104B
S3150800518000F0EEF80028ABBF636DA3891B1823F463
S315080051908053ACBF6365A38110BD002070472DE91D
S315080051A0F0411F468B8905460C46DB05164605D594
S315080051B002230022B1F90E1000F068F8A3893246DE
S315080051C0B4F90E10284623F48053A3813B46BDE864
S315080051D0F04100F017B810B50C46B1F90E1000F002
S315080051E055F8431CA38915BF606523F4805343F41F
S315080051F08053A38118BFA38110BDB1F90E1000F02A
S3150800520013B8000038B50446064D08461146002274
S315080052102A601A4600F0E6F8431C02D12B6803B14F
S31508005220236038BD4817002038B50023054D0446CD
S3150800523008462B6000F0AEF8431C02D12B6803B178
S31508005240236038BD4817002038B50023064D0446AC
S31508005250084611462B6000F0A5F8431C02D12B68BE
S3150800526003B1236038BD00BF4817002038B50023B6
S31508005270054D044608462B6000F09CF8431C02D1F5
S315080052802B6803B1236038BD4817002038B504469B
S31508005290064D0846114600222A601A4600F092F882
S315080052A0431C02D12B6803B1236038BD4817002080
S315080052B0C9B2024410B59042034601D1002303E067
S315080052C01C7801308C42F6D1184610BD0A44431E9C
S315080052D0914200D1704710B511F8014B914203F87D
S315080052E0014FF9D110BD00000148FFF7FDBA00BF14
S315080052F03C1700200148FFF7F8BA00BF3C1700200A
S315080053002DE9F041804614460E4621B91146BDE8FE
S31508005310F041FFF7BDBB2AB92546FFF74DFB2846E6
S31508005320BDE8F08100F02EF88442074602D8B4EBB7
S31508005330500F12D821464046FFF7AAFB054600281B
S31508005340EDD0BC422246314628BF3A46FFF7BEFF9B
S3150800535031464046FFF730FBE1E73546DFE7000018
S3150800536038B50446064D0846114600222A601A46F4
S3150800537000F030F8431C02D12B6803B1236038BD16
S315080053804817002051F8043C181F002BBCBF0B58C7
S31508005390C0187047024B58224FF0FF301A6070470A
S315080053A048170020024B58224FF0FF301A6070470A
S315080053B048170020024B582200201A60704700BF89
S315080053C048170020024B58224FF0FF301A607047EA
S315080053D048170020024B58224FF0FF301A607047DA
S315080053E048170020024B58224FF0FF301A607047CA
S315080053F048170020FEE700BF2DE9F3410F460021BC
S315080054001D46804616461E4CC42220460091FEF7CD
S315080054105FFF1C4B01A8A366A4F87850C4E915875A
S31508005420A4F86E6000F0E4FB6946204600F0E8FB4D
S31508005430019D2B0D062B1FD1C5F30733082B1BD156
S31508005440C5F30B05C5B9009808F024FBC4F8A800F5
S31508005450A0B142F2607323610B4B2046E3602562DC
S31508005460A56165612560E56100F05CF8204600F0FD
S3150800547065FD02B0BDE8F0810120FAE7FE20F8E7F5
S315080054804C1700200600FA00101800202DE9F041FC
S31508005490214F224CD7E90032013342F100028846F7
S315080054A02146C7E9003201F02FF8B4F89A300646CB
S315080054B013B10023A4F89A30194D36BBB4F88420EA
S315080054C00AB3D4F8C030002B0DDDB4F9BC1051B9BD
S315080054D032232B82114800F0FDFF11482E82C04767
S315080054E03046BDE8F0816A81B4F88A20D7E9000120
S315080054F0AA81C5E90001B4F8BE20B4F89210EA8181
