S0150000546167426F6172645365727665722E73333764
S3150801200000120020354B0108334B0108334B0108F8
S31508012010E1940108334B0108334B0108334B01089E
S31508012020334B0108334B0108334B0108334B010885
S31508012030334B0108F46B0508892A0108334B01085B
S31508012040334B0108334B0108334B0108334B010865
S31508012050334B0108334B0108334B0108334B010855
S31508012060334B01087D2D0108892D0108334B0108E1
S31508012070334B0108334B0108334B0108334B010835
S31508012080334B0108334B0108334B0108334B010825
S31508012090334B0108334B0108334B0108334B010815
S315080120A0334B0108A15201087D520108334B01083F
S315080120B0334B0108F51F0508ED290508A52905086B
S315080120C0A1290508C1210508E9290508A92905083D
S315080120D0C1290508AD2905084D2A05082D2A05082F
S315080120E0334B0108334B0108334B0108334B0108C5
S315080120F03D8B0108334B0108334B0108334B01086B
S31508012100334B0108334B0108334B0108334B0108A4
S31508012110334B0108334B0108334B0108334B010894
S31508012120334B0108334B0108334B0108334B010884
S31508012130334B0108334B0108334B0108334B010874
S31508012140334B0108334B0108334B01082FA501080E
S31508012150ED070508334B0108EDEC0408F3EC040818
S31508012160334B0108334B0108334B0108334B010844
S3150801217010B5054C237833B9044B13B1044800E074
S3150801218000BF0123237010BD38170020000000008E
S3150801219050D2050808B5034B1BB10349034800E0B3
S315080121A000BF08BD000000003C17002050D20508FA
S315080121B0A3F5803A704700BF174B002B08BF134B96
S315080121C09D46FFF7F5FF00218B460F461348144A33
S315080121D0121A40F0DEFE0E4B002B00D098470D4B2D
S315080121E0002B00D098470020002104000D000D485F
S315080121F0002802D00C4800E000BF40F05FFE200036
S31508012200290000F035FC40F045FE00BF000008003B
S31508012210000000000000000000120020381700200E
S31508012220383C0020000000000000000008B5074BFC
S315080122301B784BB9064B186802F08EFF054B1868D8
S31508012240BDE8084002F088BF08BD00BF8817002016
S31508012250705A0508885A050808B502F029F9084888
S3150801226002F09FFE074B186802F03DFF064802F090
S3150801227098FE064B1868BDE8084002F034BF00BF57
S31508012280405A0508705A0508585A0508885A050813
S3150801229008B5064802F07CFE054802F079FE0120E1
S315080122A007F060FFBDE8084002F0E4B8405A0508A7
S315080122B0585A050808B502F063F902F062F9054BA8
S315080122C00549186806F090FCFFF7C6FFBDE8084007
S315080122D0FFF7DEBF5C1B0020184D0508704700009C
S315080122E008B50B4802F024FE012805D102F0E0F8F2
S315080122F001F08CF9002008BD064802F019FE0128F4
S3150801230004D102F0D5F801F0AFF8F3E70120F2E7BE
S31508012310405A0508585A050830B503684E4A23F449
S315080123207F4323F0070393428FB000F0848005D8DA
S31508012330A2F5A022934213D00FB030BD474A93426B
S31508012340FAD1474A1378002BF6D0013BDBB213705A
S31508012350002BF1D102F014F902F013F9414973E0A7
S31508012360FFF7BEFF0028E7D022F074FB3E4C054676
S3150801237078B103461E213D4A06A840F0DDFF02F06A
S31508012380FFF802F0FEF82A463949206806F02CFCC7
S31508012390D2E702A822F07CFB054630B3354920680E
S315080123A006F022FC3449206806F01EFC02F0E8F823
S315080123B002F0E7F8314B324A3249009320684FF46C
S315080123C0857306F011FC2B462F4A3049206806F022
S315080123D00BFC284602F0FCF82D49206806F004FC9F
S315080123E02449206806F000FCFEE79DF81730142101
S315080123F0284A009306A89DF8163040F09DFF02F082
S31508012400BFF802F0BEF8244906AA206806F0ECFBDC
S3150801241006A840F0CFFF2946024606AB01201CF06C
S3150801242057FB0546002887D002F0AAF802F0A9F85A
S315080124302A461A49A9E70A4A13780133137002F0A2
S315080124409FF802F09EF81649074B18680FB0BDE8C9
S31508012450304006F0C9BB00BFA0000600A000060177
S31508012460891700203A4E05085C1B00203C4D0508DB
S31508012470504D0508F04D05086F4D05087D4F0508B7
S31508012480744D05087D4D0508894D05088C4D0508CF
S31508012490A14D0508C74D0508DE4D0508F24D05088D
S315080124A02E4E0508036837B523F47F431A4A23F0ED
S315080124B0070393422ED1037963BB032022F0D6FA90
S315080124C0054638B3154C1649206806F08DFB1549A3
S315080124D0206806F089FB02F053F802F052F8124B15
S315080124E0124A13490093206840F21D1306F07CFB3B
S315080124F02B46104A1049206806F076FB284602F05A
S3150801250067F80E49206806F06FFB0549206806F052
S315080125106BFBFEE703B030BDA80014005C1B00206E
S31508012520F04D05086F4D05085F4F0508744D050800
S315080125307D4D0508894D05088C4D0508494E050848
S3150801254008B5E1B960B902F01BF802F01AF8114BA7
S315080125501149186806F048FBBDE8084001F0A2B920
S31508012560012815D102F00CF802F00BF80B49094BBA
S31508012570186806F039FBBDE8084001F087B901295A
S3150801258006D128B901F0FCFF01F0FBFF0449EEE78B
S3150801259008BD00BF5C1B0020844E0508924E050845
S315080125A0A04E050837B50446FFF756FE0123FA2162
S315080125B000931A4A00231A4801F00EFE054638B35D
S315080125C0184C1949206806F00FFB1849206806F0CF
S315080125D00BFB01F0D5FF01F0D4FF154B154A00930B
S315080125E0154940F2B313206806F0FEFA2B46134A42
S315080125F01349206806F0F8FA284601F0E9FF11495F
S31508012600206806F0F1FA0849206806F0EDFAFEE7B7
S31508012610204603B0BDE8304000F004B92D22010878
S31508012620541700205C1B0020F04D05086F4D050866
S31508012630384F0508744D05087D4D0508894D05086F
S315080126408C4D0508B54E050873B5044620480E4657
S3150801265001F0A8FD054638B31E4C1F49206806F04F
S31508012660C3FA1E49206806F0BFFA01F089FF01F096
S3150801267088FF1B4B1B4A00931B494FF4E1732068E3
S3150801268006F0B2FA2B46194A1949206806F0ACFA3F
S31508012690284601F09DFF1749206806F0A5FA0E495C
S315080126A0206806F0A1FAFEE70122134B1A70134BB4
S315080126B0186802F03DFD124B186802F039FDFFF764
S315080126C0E7FD3146204602B0BDE8704000F0BEB8CD
S315080126D0541700205C1B0020F04D05086F4D0508B6
S315080126E01A4F0508744D05087D4D0508894D0508DD
S315080126F08C4D0508E84E050888170020705A05080C
S31508012700885A050808B501F03BFF01F03AFF034B6B
S3150801271003491868BDE8084006F066BA5C1B002044
S315080127208F4F050808B501F02BFF01F02AFF034B6F
S3150801273003491868BDE8084006F056BA5C1B002034
S315080127409F4F05087F2870B50446104D09D101F041
S3150801275017FF01F016FF28680D49BDE8704006F01D
S3150801276043BA01F00DFF01F00CFF0A2204EB8403C2
S3150801277093FBF2F104EBD47402FB1133286862105F
S315080127800449BDE8704006F02FBA00BF5C1B002063
S31508012790AC4F0508C34F0508431C70B504460D4DDB
S315080127A009D101F0EDFE01F0ECFE28680A49BDE801
S315080127B0704006F019BA01F0E3FE01F0E2FE642367
S315080127C0B4FBF3F2286803FB1243BDE870400349E2
S315080127D006F00ABA5C1B0020E24F0508F94F050806
S315080127E038B54FF6FF73984204460B4D09D101F0EF
S315080127F0C7FE01F0C6FE28680849BDE8384006F05C
S31508012800F3B901F0BDFE01F0BCFE22462868044971
S31508012810BDE8384006F0E8B95C1B002018500508E9
S315080128203050050807B5019001F0AAFE01F0A9FE8E
S31508012830044B019A0449186803B05DF804EB06F0E5
S31508012840D3B900BF5C1B00204450050807B50190A9
S31508012850009101F095FE01F094FEDDE9003204488D
S315080128600449006803B05DF804EB06F0BDB900BF82
S315080128705C1B00207C50050808B50346084611462E
S315080128801BB1BDE80840FFF7E1BF01F079FE01F091
S3150801289078FE034B03491868BDE8084006F0A4B959
S315080128A05C1B0020BD50050807B5019001F068FEC4
S315080128B001F067FE044B019A0449186803B05DF8F4
S315080128C004EB06F091B900BF5C1B00200151050815
S315080128D030B597B00DF13F0110A81CF04FF9564CD1
S315080128E0054628B35549206806F07EF954492068FB
S315080128F006F07AF901F044FE01F043FE514B524AC3
S31508012900524900932068352306F06EF92B46504A42
S315080129105049206806F068F9284601F059FE4E49E3
S31508012920206806F061F94549206806F05DF9FEE779
S3150801293001F026FE01F025FE9DF840309DF83F0086
S3150801294004939DF84130454903939DF84230444A22
S3150801295002939DF84330002808BF0A4601939DF863
S3150801296044304049009320689DF8453006F03CF90B
S3150801297012A822F08DF8054628B33049206806F0DA
S3150801298033F92F49206806F02FF901F0F9FD01F016
S31508012990F8FD2C4B2C4A2D4900932068402306F05C
S315080129A023F92B462A4A2B49206806F01DF92846A1
S315080129B001F00EFE2C49206806F016F91F49206819
S315080129C006F012F9FEE701F0DBFD01F0DAFD9DF8EC
S315080129D057309DF848200D939DF8563023490C939E
S315080129E09DF8553020680B939DF854300A939DF84D
S315080129F0533009939DF8523008939DF85130079347
S31508012A009DF8503006939DF84F3005939DF84E304A
S31508012A1004939DF84D3003939DF84C3002939DF82D
S31508012A204B3001939DF84A3000939DF8493006F0E2
S31508012A30DBF817B030BD00BF5C1B0020F04D050860
S31508012A406F4D050861520508515105087D4D050868
S31508012A50894D05088C4D0508695105084351050836
S31508012A60355105089D510508D35105080952050830
S31508012A7008B507F079FDFFF71DFC07F082FDFFF7A2
S31508012A802DFC06F0AFFEF8E70EF028BA07F0BEBD3A
S31508012A9010B5044601F006FA204620F0FBFC204654
S31508012AA0FFF73AFC10BD0120704700B5C3B00EF020
S31508012AB037F90EF060F948B1FFF7F5FF30B101A813
S31508012AC01BF0E1FF10B901A8FFF7E2FF43B05DF87B
S31508012AD004FB7047014820F027BF00BF20550508B1
S31508012AE010B5044600F0CAF9204600F03BFE204620
S31508012AF000F036FD204600F0DBFF2046FFF7D2FC4A
S31508012B0010BD0120704700B5C3B020F015FF48B1CC
S31508012B10FFF7F7FF30B101A821F0B4FE10B901A8FB
S31508012B20FFF7DEFF43B05DF804FB000030B50A4C41
S31508012B300A4B22680A4D1A600A4B85B02B600A4B6C
S31508012B40019306F009F82B68029001A920680393FE
S31508012B5004F078FE05B030BD5C120020C4210020C7
S31508012B60C021002050120020FC590508014B1868A5
S31508012B7004F07CBE5C12002038B505F0EDFF044672
S31508012B80064D2B68D3F8B00205F0DAFF286804F081
S31508012B9080FE2046BDE8384005F0D2BF5C12002011
S31508012BA008B50321802003F0EDFA03214FF4806074
S31508012BB003F0E8FA09214FF4C06003F0E3FA0921AA
S31508012BC04FF4F06003F0DEFA09213E2003F0DAFA49
S31508012BD009212D2003F0D6FA0921512003F0D2FA52
S31508012BE0002008BD08B505F0C9FE01F046FD05F04F
S31508012BF04BFE05F0E1FE05F06FFE05F0A3FE05F0BC
S31508012C00A7FEFFF7CDFF05F055FE01F025FD02F001
S31508012C1095F802F057FBBDE8084006F0F3BC08B585
S31508012C2002F0D6FA00F042F800F00CF9BDE80840C7
S31508012C3000F016B908B501F0EBFC07F029F905F023
S31508012C40BDFE06F01BF80BF01BFA06F097FB09F020
S31508012C500BF80BF01BFC00F083F8BDE80840FFF702
S31508012C6065BF08B504F040FD04F048FDFFF70EFF07
S31508012C70BDE80840FFF72EBF08B501F091FBBDE896
S31508012C80084001F07FBC704708B501F0DDFB01F093
S31508012C904FFBBDE80840FFF76FBF08B5FFF705FF13
S31508012CA0BDE80840FFF72FBF7047000008B53A2076
S31508012CB0012102F003FEBDE80840014802F08AB985
S31508012CC06012002070B5144E92B035460BAC0FCD8C
S31508012CD00FC495E807000023CDE908330A93292391
S31508012CE084E807000D4A02ACCDE9062305238DF8D1
S31508012CF0213006238DF8233006F11C030FCB84E817
S31508012D000F00074B214600930BAA06AB054806F0B0
S31508012D1033FA12B070BD00BF145A050800C0055039
S31508012D20481A0020B41A0020831E012B0AD801294B
S31508012D3008D80422094B1B6CC3F340130521002054
S31508012D4004F014B80239012907D8012805D8034B1C
S31508012D5000221B6CC3F34013F0E7704700C0035011
S31508012D6008B50449044806F01BFDBDE80840FFF70D
S31508012D70A9BF00BF781200208C1A0020014B1868E1
S31508012D8006F0C0BAB41A0020FFF7F8BF014B1A6A59
S31508012D9018681047B41A00200120704701207047AF
S31508012DA010B501F095FB04460EF026F8002808BF79
S31508012DB00024FFF7DBFE002808BF002401F0E8FA2B
S31508012DC0002808BF0024FFF7E7FF002814BF2046A4
S31508012DD0002010BD38B506F007FE044601F088FB51
S31508012DE0042825D002284FF0000508BF01240EF05B
S31508012DF011F804281ED0022808BF0124FFF7C6FFD0
S31508012E00042819D0022808BF012401F0B7FA0428BA
S31508012E1014D0022808BF0124FFF7C0FF04280FD0E9
S31508012E20022808BF0124002D18BF0024204638BDFA
S31508012E300125DCE70125E1E70125E6E70125EBE7C1
S31508012E400024F3E708B5044802F018F8BDE808407D
S31508012E50024802F013B800BF405A0508585A050837
S31508012E6008B5044802F03CF9BDE80840024802F0FA
S31508012E7037B900BF705A0508885A050837B5044698
S31508012E8010B30368B14A23F47F4323F0070393423F
S31508012E9000F0748200F2A180AD4A934200F0A48149
S31508012EA04AD8AC4A934200F018821FD8A2F54022AC
S31508012EB0934200F0348209D8A74A934200F03A8136
S31508012EC0A64A934200F0998103B030BDA44A9342C1
S31508012ED000F04E8202F580229342F5D101F050FBB3
S31508012EE001F04FFBE388A2889E4912E19E4A93426C
S31508012EF000F04A820ED8A2F5A022934200F0B681CC
S31508012F0002F580329342DFD101F03AFB01F039FB39
S31508012F10964914E1964A934200F0548202F54032EA
S31508012F209342D1D101F02CFB01F02BFB2389914966
S31508012F300093A38962894DE08F4A934200F09C81F0
S31508012F4023D8A2F51412934200F0D9810ED8A2F51E
S31508012F507022934200F05D8102F580229342B3D13B
S31508012F6001F00EFB01F00DFB8449E8E0844A934227
S31508012F7000F0BB8102F50C129342A5D101F000FBCA
S31508012F8001F0FFFA22897F4934E17F4A934200F032
S31508012F90DD8110D8A2F58022934200F0FC8102F56A
S31508012FA04032934290D101F0EBFA01F0EAFA6389D3
S31508012FB022897649ADE0764A934285D101F0E0FA55
S31508012FC001F0DFFAB4F8093072490093B4F8073012
S31508012FD0B4F80520704800687AE1704A934200F017
S31508012FE0A4814CD8A2F57F02934200F0B98126D874
S31508012FF0A2F51022934200F045810FD8A2F51412CA
S31508013000934200F0848102F5101293427FF45CAF7B
S3150801301001F0B6FA01F0B5FA614990E0614A9342C6
S3150801302000F0C08102F5403293427FF44DAF01F0C2
S31508013030A7FA01F0A6FA638922895B4969E05B4A26
S31508013040934200F025810FD8A2F55012934200F061
S31508013050258102F54C1293427FF436AF01F090FABE
S3150801306001F08FFA52496AE0524A93427FF42CAF33
S3150801307001F086FA01F085FA227B4F49BAE04F4AF8
S31508013080934200F0C08028D802F17E4202F554121C
S31508013090934200F0CB800FD8A2F50032934200F09C
S315080130A0DF8002F5803293427FF40EAF01F068FAB1
S315080130B001F067FA424942E0424A934200F07B81B5
S315080130C002F5403293427FF4FFAE01F059FA01F05E
S315080130D058FAD4F806203C498CE03C4A934200F061
S315080130E0E4801DD802F17E42934200F0988002F1F5
S315080130F0807293427FF4E8AE01F042FA01F041FA98
S3150801310033492079334AB4F80530002818BF0A46EE
S3150801311031492148006803B0BDE8304005F064BD77
S315080131202E4A93427FF4D0AE01F02AFA01F029FA29
S315080131302B4904E001F024FA01F023FA2949164B38
S31508013140186803B0BDE8304005F04EBDA8001F025F
S31508013150A0000601A8002400A0000600A80014008B
S31508013160A8001F00CC5F0508A8004D00455C0508AE
S31508013170A8004E00E5610508A80048017160050828
S31508013180A8002401935C0508A8005101926005086E
S31508013190A00006023A5B05085C1B0020A800500344
S315080131A0C75C0508A8004D02DE600508A8004803AB
S315080131B0F35C0508A8004D030C640508A80014066D
S315080131C00D5E0508A8004D04AA610508A8001409A2
S315080131D0105B0508085B0508AA5E0508A800140A1D
S315080131E0A05B05081C5B050801F0CAF901F0C9F9DD
S315080131F0A2887849784B18682BE001F0C1F901F0EB
S31508013200C0F976499BE701F0BBF901F0BAF97449AF
S3150801321095E701F0B5F901F0B4F972498FE701F0C4
S31508013220AFF901F0AEF9A2886F49E3E701F0A8F911
S3150801323001F0A7F9684B1868A38803F44042B2F570
S31508013240404F0BD013F4805F684B694A18BF1A4682
S31508013250684903B0BDE8304005F0C6BC664AF7E7E1
S3150801326001F08EF901F08DF9644968E701F088F9F2
S3150801327001F087F9624962E701F082F901F081F903
S3150801328060495CE701F07CF901F07BF95E4956E794
S3150801329001F076F901F075F95C4950E701F070F92A
S315080132A001F06FF9E2885A49A4E7057901F068F94E
S315080132B001F067F9484BB4F807201868B4F80930E3
S315080132C04DB15449544C012D18BF2146009153491B
S315080132D005F08AFCF8E55249F8E701F051F901F0E1
S315080132E050F9E388A2884F4913E701F049F901F03B
S315080132F048F923894C490093E388A2886AE601F0D4
S315080133003FF901F03EF9E388A288484901E701F04F
S3150801331037F901F036F9E388A2884549F9E601F05B
S315080133202FF901F02EF9434909E701F029F901F0CE
S3150801333028F9D4F80E302848019323893E49009389
S31508013340A3896289006805F04FFCBDE501F018F90B
S3150801335001F017F9238939490093A389628939E666
S3150801336001F00EF901F00DF9D4F80620344941E7C8
S3150801337001F006F901F005F93249E0E601F000F934
S3150801338001F0FFF83049DAE601F0FAF801F0F9F848
S31508013390227B2E492EE701F0F3F801F0F2F8227BA1
S315080133A02B4927E701F0ECF801F0EBF8D4F80D30DA
S315080133B0227B2849ADE601F0E3F801F0E2F8E2687C
S315080133C0254917E701F0DCF801F0DBF8A289234962
S315080133D010E700BF815B05085C1B0020B65B05088A
S315080133E0D25B0508F75B0508185C0508BC5A050891
S315080133F0B25A0508705C0508A05A05081F5D05083C
S31508013400405D0508735D0508A65D0508DA5D0508D2
S31508013410405E0508DF5A0508F65A0508655E05087F
S31508013420C65A0508E45E0508315F05088C5F05087C
S315080134300F600508536005083361050846620508EB
S31508013440A8620508E96205081E63050851630508AF
S3150801345088630508BB6305084D6405089764050874
S3150801346000201BF079BB000037B521F02FFB04467D
S3150801347030B32E4D2E49286805F0B6FB2D4928682C
S3150801348005F0B2FB01F07CF801F07BF82A4B2B4AD8
S3150801349000932B494923286805F0A6FB2346294AA8
S315080134A02949286805F0A0FB204601F091F827492B
S315080134B0286805F099FB1E49286805F095FBFEE783
S315080134C0FFF730F923464FF4FA61214A214800945F
S315080134D000F082FE054630B3144C1549206805F004
S315080134E083FB1449206805F07FFB01F049F801F0D8
S315080134F048F8114B114A009311495423206805F0E5
S3150801350073FB2B460F4A1049206805F06DFB2846C8
S3150801351001F05EF81049206805F066FB0449206849
S3150801352005F062FBFEE703B030BD00BF5C1B00205F
S31508013530F04D05086F4D05081F660508E564050881
S315080135407D4D0508894D05088C4D05085A65050800
S3150801355061340108D81A002082650508FFF784BF7F
S31508013560036837B523F47F431C4A23F007039342C4
S3150801357032D1FFF7D7F800234FF4FA61184A1948F0
S31508013580009300F029FE054630B3174C1749206809
S3150801359005F02AFB1649206805F026FB00F0F0FF26
S315080135A000F0EFFF134B144A144900932068842353
S315080135B005F01AFB2B46124A1249206805F014FB3E
S315080135C0284601F005F81049206805F00DFB074962
S315080135D0206805F009FBFEE703B030BDA800140A10
S315080135E061340108D81A00205C1B0020F04D05083B
S315080135F06F4D0508E0650508E56405087D4D050874
S31508013600894D05088C4D05088265050837B521F0F1
S315080136105DFA054630B3434C4349206805F0E4FAA0
S315080136204249206805F0E0FA00F0AAFF00F0A9FF78
S315080136303F4B404A009340496023206805F0D4FA7D
S315080136402B463E4A3E49206805F0CEFA284600F048
S31508013650BFFF3C49206805F0C7FA3349206805F0E1
S31508013660C3FAFEE71BF028FA044630B32D4D2E495E
S31508013670286805F0B9FA2D49286805F0B5FA00F069
S315080136807FFF00F07EFF2A4B2A4A00932A496323CB
S31508013690286805F0A9FA2346284A2949286805F021
S315080136A0A3FA204600F094FF2749286805F09CFAFA
S315080136B01D49286805F098FAFEE7FFF723F823461F
S315080136C04FF4FA61214A2248009400F085FD054627
S315080136D030B3144C1449206805F086FA134920685A
S315080136E005F082FA00F04CFF00F04BFF104B114A2F
S315080136F0009311496E23206805F076FA2B460F4A86
S315080137000F49206805F070FA284600F061FF114953
S31508013710206805F069FA0449206805F065FAFEE7AC
S3150801372003B030BD5C1B0020F04D05086F4D050840
S3150801373001660508E56405087D4D0508894D0508F6
S315080137408C4D05085A650508B965050861340108EF
S31508013750D81A002082650508FFF758BF00201BF01C
S31508013760FBB9000037B580B10368344A23F47F43B7
S3150801377023F00703934257D009D802F17A429342BC
S3150801378047D002F18072934252D003B030BD2C4A21
S315080137909342FAD12B4C8088FFF786F800F0F0FEA9
S315080137A000F0EFFE4FF4FA622749206805F01CFA8B
S315080137B000234FF4FA61254A2548009300F00CFDD1
S315080137C005460028E1D02349206805F00DFA22496B
S315080137D0206805F009FA00F0D3FE00F0D2FE1F4B6F
S315080137E01F4A204900932068BB2305F0FDF92B46A3
S315080137F01D4A1E49206805F0F7F9284600F0E8FE3B
S315080138001B49206805F0F0F91249206805F0ECF922
S31508013810FEE70379D0F80720B0F80510181E18BF7F
S315080138200120FFF729F8B0E78088FEF7BBFEACE771
S31508013830D0F806108088FEF707FFA6E7A800140649
S31508013840A80014075C1B00203D6605085D370108C2
S315080138500C1B0020F04D05086F4D05082967050862
S31508013860796605087D4D0508894D05088C4D0508BD
S3150801387000670508014B1880704700BF9E1200209B
S31508013880014B1888704700BF9E1200204FF6FF7142
S31508013890034A13888B421CBF01331380704700BF4C
S315080138A09E1200204FF6FD71034A1388013B9BB215
S315080138B08B4298BF138070479E120020FFF7E6BF20
S315080138C0FFF7F0BFD0E9023253F822301A88014BCC
S315080138D01A8070479E12002008B500F051FE00F0CC
S315080138E050FE044B04491A88044B1868BDE8084081
S315080138F005F07AB99E1200207C5B05085C1B002046
S3150801390037B503210020324A06F0D4FF044680B2B7
S3150801391038B3304D3049286805F066F92F492868CB
S3150801392005F062F900F02CFE00F02BFE2C4B2D4A17
S315080139302D490093A4B2CB23286805F055F92346EF
S315080139402A4A2B49286805F04FF9204600F040FE1F
S315080139502849286805F048F91F49286805F044F9F7
S31508013960FEE7FFF787FF00F02DFBA0B1022000F06C
S31508013970E7FD184C58B12049206805F035F900F0E3
S31508013980FFFD00F0FEFD1D49206805F02DF91249DD
S31508013990206805F029F900F077FBB8B1022000F09C
S315080139A0CFFD0C4C58B11449206805F01DF900F0FB
S315080139B0E7FD00F0E6FD1249206805F015F906490C
S315080139C0206803B0BDE8304005F00EB903B030BD3C
S315080139D0706905085C1B0020F04D05086F4D050848
S315080139E04E690508576705087D4D050803690508E9
S315080139F08C4D0508CC670508F1670508F6670508C3
S31508013A0022680508002313B5694601A8CDE90033E4
S31508013A1000F086FB78B94FF47A70009C640004F2D2
S31508013A20F31494FBF0F4009464B22046FEF78AFE80
S31508013A30204602B010BD11280AD000F0A1FD00F001
S31508013A40A0FDDDE9003203480349006805F0CCF81A
S31508013A507F24EAE75C1B00206268050813B501A804
S31508013A6000F0FEFA58B9DDED017AFCEEE77A17EEB9
S31508013A70904A2046FEF790FE204602B010BD112856
S31508013A800ED000F07DFD00F07CFDDDED017AFCEE47
S31508013A90E77A054B17EE902A0449186805F0A4F849
S31508013AA04FF0FF34E5E700BF5C1B00208F6805086F
S31508013AB070B50368A44A23F47F4323F007039342AE
S31508013AC004468AB000F00D8142D8A04A934200F01C
S31508013AD0AB800AD802F17F42934200F0A18002F539
S31508013AE0501293420CD00AB070BD994A934200F025
S31508013AF0A08002F580329342F5D1037B9B07F2D56C
S31508013B000023CDE90133B4F80D20194600926289E4
S31508013B10208920F035FF04460028E4D0012000F072
S31508013B200FFD0028DFD08B4D8B49286805F05CF81E
S31508013B3000F026FD00F025FD884A234688492868B5
S31508013B4005F052F8204600F043FD864A8649F4E01E
S31508013B50864A934238D02FD802F17F42934200F029
S31508013B60688102F57F029342BDD10023CDE9013375
S31508013B70B0F80D20194600924289008920F0DEFE30
S31508013B8004460028AFD0012000F0DAFC0028AAD0AC
S31508013B90704D7149286805F027F800F0F1FC00F02E
S31508013BA0F0FC6E4A23466E49286805F01DF8204642
S31508013BB000F00EFD6E4ABFE06E4A934200F0E280C5
S31508013BC002F5803293428ED10023CDE90233B4F84F
S31508013BD00F2019460192B4F80D20009262892089B6
S31508013BE020F012FF044600283FF47DAF012000F0C3
S31508013BF0A7FC00283FF477AF564D5749286804F0CB
S31508013C00F3FF00F0BDFC00F0BCFC544A23465449BE
S31508013C10286804F0E9FF204600F0DAFC564A95E7E1
S31508013C200379002B3FF45FAF0AB0BDE87040FFF798
S31508013C3067BEB0F80D3006AE4C2B01D0002B40D133
S31508013C40FFF71EFEADF81400FEF7CAFD31464C20FB
S31508013C5005AA06F0E7FC0546B4F80D304E2B00D050
S31508013C604BB9FFF7FBFE7119059005AA4E2006F020
S31508013C70D9FC0544EDB2B4F80D304F2B00D053B939
S31508013C80FFF7C0FE71198DF8140005AA4F2006F03A
S31508013C90C9FC0544EDB220896289A5B10023CDE9A5
S31508013CA00056194620F00AFE0446002C3FF41BAFC5
S31508013CB0012000F045FC00283FF415AF254D2649A3
S31508013CC0A1E00025C8E7B4F80D308DF81A508DF833
S31508013CD018301B0A8DF819300323019600932B46D9
S31508013CE0DFE700F110030293C37B0193B0F80D30AF
S31508013CF00093002342891946008920F0FDFD0446F8
S31508013D0000283FF4F0AE012000F01AFC00283FF429
S31508013D10EAAE104D1049286804F066FF00F030FC41
S31508013D2000F02FFC0D4A23460D49286804F05CFF74
S31508013D30204600F04DFC114A114928680AB0BDE831
S31508013D40704004F051BF00BFA8004702A800140143
S31508013D50A80047015C1B0020B6680508894D0508BF
S31508013D608C4D0508FB6805080A690508A80048037B
S31508013D70E8680508A80047043F690508DA680508E0
S31508013D80BB680508FFF77CFD06ADADF81200FEF726
S31508013D9027FD29460DF112024C2006F043FC044684
S31508013DA0FFF75CFE291905AA05904E2006F03AFC94
S31508013DB02044C4B2FFF726FE0DF111028DF8110059
S31508013DC029194F2006F02EFC204410F0FF003FF47D
S31508013DD08AAE0023CDE900051A461946184620F091
S31508013DE06DFD40F214539842044604D040F215532F
S31508013DF098427FF45AAF042000F0A2FB00283FF452
S31508013E0072AE204D2049286804F0EEFE00F0B8FB9A
S31508013E1000F0B7FB23461D4A1D49286804F0E4FE55
S31508013E20204600F0D5FB1B4A1B49286804F0DCFE36
S31508013E3059E60023CDE90133B0F80D201946009261
S31508013E404289008920F0BEFD044600283FF44BAEA6
S31508013E50012000F075FB00283FF445AE094D0F49D6
S31508013E60286804F0C1FE00F08BFB00F08AFB074AC4
S31508013E7023460749286804F0B7FE204600F0A8FB48
S31508013E80074A63E65C1B0020F6680508894D0508A4
S31508013E908C4D050803690508BB680508B668050859
S31508013EA02F690508036837B523F47F433A4A23F097
S31508013EB007039342044664D002F18272934268D1A1
S31508013EC0B0F80510232964D10122344B00791A7000
S31508013ED000221AF013FE054630B3314C31492068E9
S31508013EE004F082FE3049206804F07EFE00F048FBAB
S31508013EF000F047FB2D4B2E4A00932E493F2320689D
S31508013F0004F072FE2B462C4A2C49206804F06CFEFC
S31508013F10284600F05DFB2A49206804F065FE214920
S31508013F20206804F061FEFEE720791AF0B3FD054624
S31508013F3000282ED01A4C1B49206804F055FE1A4950
S31508013F40206804F051FE00F01BFB00F01AFB174B2A
S31508013F50174A009317494323206804F045FE2B4668
S31508013F60154A1649206804F03FFE284600F030FB42
S31508013F701349206804F038FE0A49206804F034FE23
S31508013F80FEE7064B1B7823B103B0BDE8304006F0C7
S31508013F902BBB03B030BD00BFA0000601401B0020AB
S31508013FA05C1B0020F04D05086F4D05080F6A0508D2
S31508013FB08E6905087D4D0508894D05088C4D05084E
S31508013FC0FE69050837B5022000F0C2F8044602204A
S31508013FD000F020FB054600B91CBB174C17492068A1
S31508013FE004F002FE1649206804F0FEFD00F0C8FA46
S31508013FF000F0C7FA134B144A009314493323206877
S3150801400004F0F2FD124A1349206804F0EDFD124945
S315080140102A46206804F0E8FD0849206804F0E4FD12
S31508014020FEE70146204600F049FDB0FA80F30B4A47
S315080140305B09137003B030BD5C1B0020F04D050809
S315080140406F4D0508016B05082F6A05087D4D0508A2
S31508014050906A0508BF6A0508D76A0508411B00204A
S3150801406007B5084B01901B7843B1022000F070F8A0
S31508014070019903B05DF804EB00F040BD112003B0CF
S315080140805DF804FB411B002013B5012000F060F820
S315080140900446012000F0BEFA14BB174C17492068E4
S315080140A004F0A2FD1649206804F09EFD00F068FAA6
S315080140B000F067FA134B144A009314493823206811
S315080140C004F092FD124A1349206804F08DFD124945
S315080140D0206804F089FD0949206804F085FDFEE79A
S315080140E04021204600F0DFFBB0FA80F30B4A5B095A
S315080140F0137002B010BD00BF5C1B0020F04D05080F
S315080141006F4D0508A56B0508146B05087D4D050857
S31508014110756B0508BF6A0508886B0508421B0020F0
S3150801412007B5009109490190097851B1012000F0BC
S315080141300FF8DDE90032402103B05DF804EB00F029
S3150801414067BB112003B05DF804FB00BF421B0020CA
S315080141500346074A102B106807D8012202FA03F30F
S31508014160044A134208BF002070470020704700BF69
S315080141707412002016010100002209490B684BB18F
S31508014180834204D1436A4AB15362012070471A46F1
S315080141905B6AF4E70028F5D0184670470B60F4E728
S315080141A0441B002010B5044690B105F0ABFE20462D
S315080141B0FFF7E2FF58B194F8280040B102F037FA48
S315080141C0044A1368013B136002F037FA002010BD58
S315080141D02220FCE7481B00202DE9F04F85B0054653
S315080141E0914698460E469DF8387009B9002F64D154
S315080141F02846FFF7D7FF044600283CD185F8280052
S31508014200286305F0E9FF864239D905F099FF40F29E
S31508014210E7318C462146E6FB00C14FF47A726046C7
S3150801422000233EF09FFC4FF0FF32002383468A4667
S315080142303EF098FC4FF0FF326886002358465146F7
S315080142403EF090FC2B46CDE9004411461C4A28460F
S3150801425005F0F3FE044670B91A4AC5E907981368CA
S3150801426085F82970EE6233B31A465B6A002BFBD1D7
S31508014270556200236B62204605B0BDE8F08F3046D3
S3150801428003A957B105F08AFF04460028F3D12B4646
S31508014290CDE900000A4A0399D9E705F07FFF0446EC
S315080142A00028E8D12B462846CDE90077044A039928
S315080142B005F0A0FECEE71560DBE72124DBE700BFAA
S315080142C0C9420108441B002091F8283013B50C4651
S315080142D083B90B8E4A8E93420ED243B9CDE9003388
S315080142E020460B46104A4FF0FF3105F04DFE238E4E
S315080142F00133238602B010BD52B191F829307BB142
S3150801430001230093D1E907232046C96AFFF764FF11
S315080143100123064A84F82830136801331360E9E754
S31508014320084605F0EFFDF3E7C9420108481B0020DE
S3150801433070B5104D2B681BB100260F4B1C6804B9CC
S3150801434070BD94F8283093B102F071F92B6884F89E
S315080143502860013B2B6002F070F994F8293013B9F3
S315080143602046FFF709FFD4E9073120469847646AD2
S31508014370E5E700BF481B0020441B0020034B1B68D0
S31508014380002B0CBF01200420704700BF481B0020EA
S31508014390024B1868B0FA80F040097047481B0020A4
S315080143A004210022024B19711A6019739A60704729
S315080143B04C1B00202DE9F843204B05461B78ABB969
S315080143C04FF00208DFF87C901D4C59F8043BAB42CC
S315080143D007D1284600F057FD01280CD105F08AFEC1
S315080143E02060B8F1010F04F1080401D1BDE8F88392
S315080143F04FF00108E9E7284600F045FD0746002881
S31508014400EFD105F077FE2368C61AFA2005F09EFE5D
S31508014410B04201D92771E4E74FF47A7005F096FEA8
S31508014420B04202D901232371DBE741F2883005F056
S315080144308DFEB0428CBF02230323F4E7A0120020AD
S315080144404C1B00209012002010B5094C2179042933
S3150801445004D00020FEF774F804232371217B042974
S3150801446004D00120FEF76CF80423237310BD00BFA6
S315080144704C1B002010B50B4C206800F004FD0128E8
S3150801448003D105F037FE084B1860606800F0FBFCA5
S31508014490012803D105F02EFE034B98600022034B39
S315080144A01A7010BD901200204C1B0020A01200208B
S315080144B0054B1A783AB9012119700421034B197170
S315080144C01A6019739A607047A01200204C1B0020CD
S315080144D0054B187838B9054B1A79042A03D1187B84
S315080144E0031F584258417047A01200204C1B002058
S315080144F0074B1B7843B9074B1879042806D11B7B50
S31508014500042B08BF0120704701207047042070471B
S31508014510A01200204C1B002008B5D0E9023253F83E
S31508014520221003EB82035B6808781978032928BFF0
S315080145300321012828BF0120FEF702F808BD000063
S315080145400B4B02461B788BB10A4B1B78834234BF4F
S3150801455000200120084B1B783BB1084B1B7843FA16
S3150801456002F212F0010F08BF002070470120F1E79F
S31508014570A1120020A2120020601B0020A312002015
S3150801458070477047012208B5074B1A700022074B7E
S315080145901A700422064B1A701F22064B1A7004F071
S315080145A0DBFA054B186008BDA1120020601B00202C
S315080145B0A2120020A31200205C1B0020024B034913
S315080145C0186804F011BB00BF5C1B0020B86B050816
S315080145D070B50C4C0C490646206804F005FB04F03E
S315080145E0BBFA0546206804F0ABFA3046FFF7E6FF4A
S315080145F0284604F0A5FA20680449BDE8704004F08D
S31508014600F3BA00BF5C1B0020BA6B0508BC6B050832
S315080146100F207047202808B515DC032804DC01386B
S31508014620012808D90E200DE00123043803FA00F009
S31508014630084B1842F6D0012304220921022002F070
S3150801464095FB002008BD4028ECD10123042208214E
S31508014650F4E700BF1100001008B501213A2001F066
S315080146602DF9FEF736FA0120FFF7D4FF0220FFF7EE
S31508014670D1FFBDE8084000F005B801213A2001F054
S315080146801DB900002DE9F041484C8EB0264601AD12
S315080146900FCE0FC5336814342B6006AD0FCC0FC58A
S315080146A094E80F0085E80F0001213A2001F006F988
S315080146B00121572001F002F94FF480733C4EADF801
S315080146C01C303C4B3046039301A906AB059302F017
S315080146D02BFA012304220321022002F047FB0221BF
S315080146E000230846012202F041FB01230422194650
S315080146F0022002F03BFB042200210123022002F0E2
S3150801470035FB2D4C2D4B0125C4F8C8344FF0021347
S31508014710C4F8C43403F58033C4F8CC341C2304F537
S315080147200058C4F8B4344FF4487005F035FF04F561
S3150801473080571420C8F8A05005F02EFF2320C7F88B
S31508014740A05005F029FFB9213046C8F8A05002F05B
S315080147506CF9002303211A460220C7F8A05002F07B
S3150801476005FB002302211A46084602F0FFFA2B46EA
S3150801477029460022022002F0F9FA00222B461146A8
S31508014780022002F0F3FA304602F020F90021572000
S31508014790C4F8C814C4F8C414C4F8CC14C4F8B414BE
S315080147A001F08CF80EB0BDE8F08100BFC06B0508BA
S315080147B000000A50E070720000C0035002000100B8
S315080147C010B51446042288B08DF804300DEB0203A7
S315080147D004930123ADF8143002AB06930223490072
S315080147E0ADF80C1003A9ADF80E20ADF81C3000F099
S315080147F067FC50B99DF809309DF8082003F0FC03C1
S3150801480003EB0223236008B010BD00233120F9E72A
S315080148102DE9F0411D46E523074688461646FFF76A
S31508014820CFFFC0B943F6095334682A465C43640B83
S31508014830A4F5BB54103CE023414638463460FFF7E3
S31508014840BFFF40B945F2CD53296859434913A1F52C
S31508014850374102392960BDE8F081042310B588B0D3
S31508014860ADF80E30FC238DF80030C9238DF80130E0
S315080148700223ADF8143001AB069308234900ADF8BD
S315080148800C1003A91446CDF810D0ADF81C3000F071
S3150801489017FC28B914B19DF804302370012000E0F3
S315080148A0002008B010BD70B5002205460E46FFF778
S315080148B0D4FF044608B1002070BD502005F052FC13
S315080148C0224631462846FFF7C8FF0028F3D11020B3
S315080148D0F2E7000010B50F4B88B0039301AB0493C0
S315080148E00123ADF8143002AB069302238DF80410A8
S315080148F003A91446ADF81C3000F0E2FB40B99DF857
S3150801490009209DF8083003EB0223238008B010BD67
S315080149103120FBE75200040013B50C460DF10602DF
S315080149200021FFF7D7FFE8B9DFED1C7A9FED1C7A66
S31508014930BDF8062012F4805F47FE877A02F480618B
S3150801494002F47073120558BF77EEA77A09B977EEA4
S31508014950A77AC02B13D007D8402B13D0802B0CD0A5
S31508014960ABB1232002B010BDB3F5007F12D0B3F569
S31508014970407FF6D19FED0B7A06E077EEA77AC4ED74
S31508014980007AEFE7B1EE007A67EE877AF7E7B2EEDB
S31508014990007AF9E7B3EE007AF6E700BF17B7D1391F
S315080149A017B7513B0000004200B50F4B89B003937E
S315080149B002AB04930323ADF8143001AB069300232D
S315080149C08DF808108DF8092003A9120A8DF80A2016
S315080149D0ADF81C3000F074FB002814BF312000200C
S315080149E009B05DF804FB00BF520001002DE9F3414F
S315080149F090460DF1060205460E461F46FFF76AFF69
S31508014A0068B9BDF8064007EA080224EA0704224302
S31508014A1092B231462846ADF80620FFF7C5FF02B027
S31508014A20BDE8F08173B500210DF106020646FFF7D0
S31508014A3051FF044608BBBDF80620014602F4604250
S31508014A4042F001023046ADF80620FFF7ADFF0446F5
S31508014A5098B9024601213046FFF7A6FF22460546C8
S31508014A6002213046FFF7A0FF22460543072303210B
S31508014A703046FFF7BBFF45EA0004204602B070BD89
S31508014A80012381EA03020021FFF7B0BF134600297B
S31508014A900CBF00224FF48052022B06D142F48062E9
S31508014AA04FF4E0530021FFF7A1BF042B02D142F4D2
S31508014AB04062F5E7012BF3D02120704738B504464B
S31508014AC00A200D4605F04EFB2046FFF7ABFFA0B9BD
S31508014AD0012220461146FFF7D9FF70B92DB92046A4
S31508014AE0BDE838400121FFF7CBBF042301461A462A
S31508014AF02046FFF77BFF0028F1D038BD73B50D4678
S31508014B0001AA04210646FFF7E5FEBDF8044070B97F
S31508014B10304601A9FFF700FF48B907EE904A9DED17
S31508014B20017AF8EE677A67EE877AC5ED007A02B000
S31508014B3070BDFEE708B500F02DF8124B12498B42FD
S31508014B4012D30020114B12498B4218D3FDF734FBBF
S31508014B50186850F82240586840F82240013298688F
S31508014B608242F5D30C33EAE70022F8E71C6844F8D9
S31508014B70220001325C68A242F8D30833E4E7002236
S31508014B80F8E700BF58D2050864D2050864D20508BB
S31508014B9064D205084FF480414FF0FF30114B124A99
S31508014BA010B59A60D3F8882042F47002C3F88820B9
S31508014BB00E4A91660E4901F5005210660D48506677
S31508014BC00220C3F8D000BFF34F8FBFF36F8F0124C4
S31508014BD04FF440330848C0F88041D36004600B6144
S31508014BE010BD00BF00ED00E0002001080090005054
S31508014BF000800044F7FF370000E100E0014B186828
S31508014C00704700BFA8120020084B1B6F03F007036B
S31508014C10022B04D0032B05D0012B05D0FEE7044B4C
S31508014C2018687047034BFBE703487047008000503C
S31508014C30A8120020AC120020002D310108B5FFF79B
S31508014C40E3FF054B1B6FC3F303330133B0FBF3F0EB
S31508014C50024B186008BD00BF00800050A412002056
S31508014C600048704700B4C404014B1868704700BF78
S31508014C70AC120020054B1860054B1B6F03F00703A8
S31508014C80032B01D1FFF7DABF704700BFAC12002032
S31508014C90008000500020704700487047002D310100
S31508014CA04FF0B4439868C0F304400C2822D8DFE8D3
S31508014CB000F0092121212121071719211B1D1F0098
S31508014CC00F4870479B6803F04073B3F1807F13D098
S31508014CD0B3F1007F12D00B4A002B08BF104670476C
S31508014CE00948704709487047094870470948704795
S31508014CF009487047002070470848704708487047B8
S31508014D00405DC60000093D000024F400C0EA210107
S31508014D1080BA8C010048E801005A620280841E00AC
S31508014D2040420F004FF4004070474FF47A707047C5
S31508014D30014B1868704700BFB01200204FF000639E
S31508014D409B6A10B503F17842B2F5903F0AD2084C36
S31508014D50227812F0FD0F08D1DB69984708B90123BB
S31508014D60237010BD4FF48170FBE70020F9E700BFFF
S31508014D70611B00204FF00053074A1A60BFF34F8F9B
S31508014D800649074BCA6802F4E0621343CB60BFF3D6
S31508014D904F8F00BFFDE700BF02020FF000ED00E0F4
S31508014DA00400FA0500230360704703680B6001607D
S31508014DB0704710B538B132B129B100230139D45C35
S31508014DC014B90023037010BD8B42FAD200F8014BC7
S31508014DD00133F4E7034638B100201A5C22B1814257
S31508014DE000D170470130F8E770474FF0FF31FFF700
S31508014DF0F1BF70B50C461646054660B15AB151B1B8
S31508014E00FFF7F3FF844206D9211A32462844BDE842
S31508014E107040FFF7CEBF70BD70B5D0B1C9B10E4EA7
S31508014E20431E013913F8014F2046A25D02F0030221
S31508014E30012A11F8012F08BF04F12000B55C05F01D
S31508014E400305012D08BF2032801A01D1002CE9D1B2
S31508014E5070BD0120FCE700BFE1CE050805490A68D7
S31508014E601318054883428CBF4FF0FF320B6010467A
S31508014E70704700BFB412002000000420436803B144
S31508014E80184722207047436903B11847FF20704726
S31508014E9010B40A681378022B11D014203023147920
S31508014EA013FB040307481B585079C340DB4303F03F
S31508014EB00103137008465DF8044BFFF77BBA5DF8EA
S31508014EC0044B704730C0035037B5046801210546C5
S31508014ED03A2000F0F3FC002301226179207901F0E0
S31508014EE045FF14223023217913FB01230E4A9B58CF
S31508014EF06279D340DB4303F001032370A379022BC4
S31508014F000ED100F065F92A460849607900F08AF958
S31508014F100123024661792079CDE9003301F0CEFEFD
S31508014F20002003B030BD00BF30C00350914E0108C8
S31508014F30036818787047000002681378022B24D09A
S31508014F4014213023107913FB001310495B5851794A
S31508014F50CB40917903F00103012912D1508843EA24
S31508014F6040034FF6E07063F03F039BB2834202D1E0
S31508014F701170538070474FF6DF718B42F9D10021CA
S31508014F80F6E711B983F001031370704730C0035077
S31508014F9003681A78022A03D100225A80FFF794BFC0
S31508014FA0704713B504682378022B10D0A379022B16
S31508014FB00BD10021607900F023F900236279207969
S31508014FC01146CDE9003301F079FE0223237002B0C0
S31508014FD010BD00002DE9FF4103680446B3F1B64F41
S31508014FE004D0354A934251D12F2000E02E200121C9
S31508014FF000F064FC01230A226179207901F0B6FEEA
S3150801500001230A22E179A07901F0B0FE09270126D8
S315080150102A4D4FF030082279637908FB025206FAC5
S3150801502003F302F501521360642005F0B5FA2379FA
S31508015030627908FB035306FA02F203F582536420E8
S315080150401A6005F0A9FA013FE3D12068B0F1B64F1D
S315080150501FD10323C5F8E8346279237943EA024369
S31508015060C5F8EC34E279A37943EA0243C5F8F0348A
S3150801507040F20113ADF80030E36869460293A3686C
S315080150800193237C8DF80C3001F0F6FE04B0BDE8DF
S31508015090F081094B9842EBD10323C5F8F8346279BC
S315080150A0237943EA0243C5F8FC34E279A37943EA52
S315080150B00243C5F80035DBE70080065000C00350FF
S315080150C038B5054602F006F8044C012801D1013C21
S315080150D000D138BD284601F0F1FEF6E7E193040058
S315080150E0D0E90003184710B5044601213A2000F01B
S315080150F0E5FBA3782078B3FA83F3042261785B0988
S3150801510001F034FE002010BD10B501224378017864
S31508015110847830209A40054B00FB01331CB903F50E
S3150801512001531A6010BD03F58253FAE700C0035014
S3150801513010B5012243780178847830209A40054BCE
S3150801514000FB01331CB903F582531A6010BD03F540
S315080151500153FAE700C003500122437801789A40C7
S3150801516030235943014B5A50704700BF40F0035052
S31508015170102130230246007813FB001305495078A5
S315080151805B58C34003F0010093780BB980F0010026
S31508015190704700BF30C0035070B5044601250B4E59
S315080151A004B970BD94FAA4F0B0FA80F005FA00F3D8
S315080151B006EB001224EA03045368002BF0D0117B96
S315080151C011B191689847EBE79847E9E7641B002016
S315080151D008B5192001F034FA28B14FF00072074BCF
S315080151E0C3F880211A601A2001F02AFA28B14FF073
S315080151F08062024BC3F880211A6008BD00E100E015
S3150801520038B505460C4601F012FA0022044B03EBA9
S3150801521005135C601A73BDE8384001F00EBA00BF89
S31508015220641B0020F8B505460F46164601F0FFF93E
S31508015230104B05F0FC02D3F824140023EC1804F0F3
S315080152400304144321FA04FC1CF0010F07D00133AF
S31508015250042BF3D1FF2401F0F0F92046F8BDFF2C09
S31508015260F9D00122044B03EB0413C3E901761A733F
S31508015270F1E700BF00C00350641B0020074BD3F8B9
S315080152802404D3F8202403F50053104000F05530C8
S3150801529020F05020C3F82004FFF77EBF00C003505A
S315080152A0074BD3F82404D3F8202403F50053104000
S315080152B000F0AA3020F0A020C3F82004FFF76CBF45
S315080152C000C00350024B1968024B186835F0D0BA72
S315080152D0BC120020B81200207047000037B59200B2
S315080152E004460D4601923FF00FFD431C0BD060B9F1
S315080152F029462046019A3DF015FE0028044808BFB4
S31508015300002003B030BD0348FBE70348F9E700BFB7
S3150801531010E000F021E000F024E000F013B50446A7
S3150801532001A801F077FF9DF80630012223804FF48A
S31508015330807300206380054B9B680A3303F01F03C3
S3150801534002FA03F3636002B010BD00BF0080E00FEC
S3150801535001F012BF08B501F0FFFE002008BD10B527
S31508015360044644EA010313F00303084609D19342AC
S3150801537001D1002010BD54F8231040F82310013341
S31508015380F5E7214692003DF0DDFDF2E710B504464A
S315080153903FF0B2FC431C15D0B0B90C4B20469B68B4
S315080153A00A3303F01F020123934023F00303234426
S315080153B0984201D1002010BD50F8042B0132F7D0D4
S315080153C00348F8E70348F6E70348F4E70080E00FE7
S315080153D00EE000F021E000F024E000F008B501F04D
S315080153E01FF9014B186008BDD8200020014B186829
S315080153F001F01AB9D82000200A460139014404F0FF
S3150801540019B80000044BD3F88420D206FBD4D3F88C
S315080154108400C0F3811070470040005038B5174B1F
S315080154200546D3F820310C4603F00703013B052B4B
S3150801543020D8DFE803F0030B130F171BFFF7DEFB7A
S31508015440052305B1286004B1236038BDFFF70CFCBC
S315080154500323F6E7FFF724FC0723F2E7FFF71CFC13
S315080154600223EEE7FFF7CAFB0623EAE7FFF7FCFB91
S315080154700423E6E700231846E3E700BF008000504F
S3150801548038B5174B0546D3F828310C4603F0070300
S31508015490013B052B20D8DFE803F003131B0F0B177D
S315080154A0FFF7ACFB052305B1286004B1236038BDBD
S315080154B0FFF7A4FB0623F6E7FFF7F2FB0723F2E75C
S315080154C0FFF7D2FB0323EEE7FFF7CEFB0423EAE758
S315080154D0FFF7E2FB0223E6E700231846E3E700BFEE
S315080154E00080005073B50D460021114B0191D3F888
S315080154F08041064604F00304022C13D0032C0CD079
S31508015500012C13D101A8FFF789FF10240EB1019BC5
S31508015510336005B12C6002B070BDFFF7C1FB0724EB
S315080155200190F3E7FFF7B8FB0190EFE70C46EDE7CB
S3150801553000800050002337B50193154B0546D3F873
S3150801554020320C4603F00703013B032B1ED8DFE884
S3150801555003F0020E1318002101A8FFF791FF122389
S315080155600DB1019A2A6004B1236003B030BDFFF77B
S3150801557097FB07230190F3E7FFF7D4FB0A23019072
S31508015580EEE7FFF7D5FB09230190E9E70023E7E7F3
S315080155900080005038B5104B0546D3F840310C460B
S315080155A003F00303022B0BD0032B0DD0012B0FD1D4
S315080155B0FFF7B8FB0A2305B1286004B1236038BD9B
S315080155C0FFF7B6FB0923F6E7FFF7AFFB0C23F2E774
S315080155D000231846EFE700BF00800050002337B5C7
S315080155E00193164B0546D3F860320C4603F00703C0
S315080155F0013B032B1FD8DFE803F0020E1914002123
S3150801560001A8FFF70BFF10230DB1019A2A6004B117
S31508015610236003B030BD002101A8FFF7BBFF1123AA
S31508015620F2E7FFF73DFB07230190EDE7FFF734FBB0
S3150801563002230190E8E70023E6E700BF0080005057
S31508015640002337B50193164B0546D3F894320C4619
S3150801565003F00703013B032B1FD8DFE803F0020E13
S315080156601914002101A8FFF7D9FE10230DB1019ADB
S315080156702A6004B1236003B030BD002101A8FFF7F9
S3150801568089FF1123F2E7FFF70BFB07230190EDE7EB
S31508015690FFF702FB02230190E8E70023E6E700BFD4
S315080156A00080005038B5134B0546D3F800320C4636
S315080156B003F00703013B032B18D8DFE803F0020ABE
S315080156C00E12FFF72FFB0A2305B1286004B12360E8
S315080156D038BDFFF72DFB0923F6E7FFF726FB0C2359
S315080156E0F2E7FFF7ABFA0F23800AEDE70023184626
S315080156F0EAE700BF0080005038B5134B0546D3F8DA
S3150801570008320C4603F00703013B032B18D8DFE8E0
S3150801571003F0020A0E12FFF705FB0A2305B12860FA
S3150801572004B1236038BDFFF703FB0923F6E7FFF74A
S31508015730FCFA0C23F2E7FFF781FA0F23800AEDE75B
S3150801574000231846EAE700BF0080005038B5104B21
S315080157500546D3F840320C4603F00303022B0BD05F
S31508015760032B0DD0012B0FD1FFF7DCFA0A2305B164
S31508015770286004B1236038BDFFF7DAFA0923F6E792
S31508015780FFF7D3FA0C23F2E700231846EFE700BF29
S315080157900080005038B5104B0546D3F860310C46E9
S315080157A003F00303022B0BD0032B0DD0012B0FD1D2
S315080157B0FFF7B8FA0A2305B1286004B1236038BD9A
S315080157C0FFF7B6FA0923F6E7FFF7AFFA0C23F2E774
S315080157D000231846EFE700BF0080005070B5054664
S315080157E014460E4600F01CFF296881EA040202EA03
S315080157F006044C402C60BDE8704000F015BF00005F
S31508015800B0F5207F1FD009D8B0F5007F15D003D891
S3150801581068B1B0F5C07F0AD000200CE0B0F5607F12
S31508015820FAD10B4BD3F88000C0F3011003E0084B03
S31508015830186FC0F3033001307047054BD3F8900059
S31508015840C0F30460F7E7024B186FC0F38020F2E754
S315080158500080005002464FF48030104B10B5986610
S315080158600020FFF7CDFF504341F671320C4BDC693E
S31508015870DA635A6804F4803422F4401259B90949A2
S3150801588088428CBF4FF480100020104358600CB139
S315080158900022DA6310BD0449F2E700BF0090005008
S315080158A000000350005A6202002D310108B5FFF7C6
S315080158B0D7F9BDE808400021FFF7CCBF430905D059
S315080158C0012B0DD0022B094B18BF002300F01F0036
S315080158D041B103F58053012202FA00F018607047BE
S315080158E0034BF3E703F50053F5E700BF6880005063
S315080158F0648000501FB5002280280446019200F0FA
S31508015900BA8048D8002800F0BA80A0F120043D2CBE
S3150801591054D83D2C52D8DFE814F0B200BE00B200CC
S31508015920BE00D700D700D700D700D700BE00E100D8
S315080159305B00F70081005B00BE00BE00BE0051009F
S315080159405100510051005100510051005100BE0053
S31508015950BE00BE0089000101BE0051005100510080
S3150801596051005100510051005100510051005100A0
S3150801597051005100D700B200B200B200FC005B0032
S315080159805B00060198006C00DC00510051005100D3
S3150801599051005100A900B0F5B06F00F09F802DD8D5
S315080159A0B0F5207F77D00CD8B0F5C07F67D0B0F5B9
S315080159B0007F67D0B0F5807F00F09580019804B02C
S315080159C010BDB0F5607F6CD00DD8B0F5407FF5D12C
S315080159D0FFF734F902464FF42070FFF711FFB2FBC7
S315080159E0F0F0400849E0B0F5806F6DD0B0F5A06FD2
S315080159F0E4D1002101A8FFF79DFDDFE7B0F5106F9F
S31508015A0000F0878017D8B0F5E06F00F087800AD8D4
S31508015A10B0F5C06F78D0B0F5D06FCFD1002101A80D
S31508015A20FFF740FECAE7B0F5F06FC7D1002101A81C
S31508015A30FFF7B0FEC2E7B0F5406F4AD013D8B0F50C
S31508015A40206F70D0B0F5286FB8D10021384B03917B
S31508015A50D3F8703203F00303012B02D103A8FFF731
S31508015A6099FD039B49E0B0F5486FA7D1002101A82C
S31508015A70FFF7E6FDA2E7FFF7C7F801909EE7FFF7F4
S31508015A80DDF8FAE7FFF7C0F802462046FFF7B8FE49
S31508015A90B2FBF0F0F1E7FFF7D1F802464FF42070B8
S31508015AA0F4E7234BD3F8803003F00303012B04D02A
S31508015AB0022B06D04FF46070E8E7FFF7A5F8024617
S31508015AC0F8E7FFF7EDF8FAE7002101A8FFF7A6FCCA
S31508015AD074E7002101A8FFF7D3FC6FE7002101A8AD
S31508015AE0FFF700FD6AE74FF0E02302921B695B07A7
S31508015AF005D5FFF7A3F80290029B01935EE703A978
S31508015B0002A8FFF747FDF7E7002101A8FFF742FDC5
S31508015B1054E7002101A8FFF7EFFD4FE7002101A88F
S31508015B20FFF714FE4AE7002101A8FFF757FD45E7ED
S31508015B300080005008B58020FFF7DCFE034B984231
S31508015B409EBF4FF48032024B1A6708BD005A6202A3
S31508015B5000A000501FB50023B0F5807F019300F027
S31508015B60C38064D85D2855D84C2807D82D2847D82E
S31508015B7023282BD8019805B05DF804FB4D38102869
S31508015B80F8D801A353F820F0DF5C0108755B01081A
S31508015B90755B0108755B0108915C0108755B010875
S31508015BA0755B01087D5D0108AF5C0108555C01085C
S31508015BB0735D0108755B0108755B0108755B010872
S31508015BC0755B0108755B0108875D0108243809289A
S31508015BD0D0D801A353F820F0DF5C0108DF5C010887
S31508015BE0DF5C0108DF5C0108DF5C0108755B010801
S31508015BF0D55C0108755B0108715C0108155D010832
S31508015C003D2800F082803E28B4D1002001A9FFF783
S31508015C109DFDAFE78028ADD1604B1B6F03F00703ED
S31508015C20013B032BA6D8DFE803F05350878FB0F565
S31508015C30F06F6AD021D8B0F5B06F4BD00FD8B0F558
S31508015C40607F00F0858095D3B0F5806F47D0B0F5B9
S31508015C50A06F8FD1002001A9FFF76CFC8AE7B0F588
S31508015C60D06F57D0B0F5E06FCFD0B0F5C06F81D106
S31508015C70002001A9FFF78EFC7CE7B0F5206F7DD0E7
S31508015C800BD8B0F5086F4AD0B0F5106F7FF472AF34
S31508015C90002001A9FFF730FD6CE7B0F5406F68D029
S31508015CA0B0F5486F6FD0B0F5286F7FF463AF002168
S31508015CB03A4B0391D3F8703203F00303012B67D0F3
S31508015CC0022B14BF0B46152300E00523019351E768
S31508015CD00223FBE7002001A9FFF704FC4AE700209D
S31508015CE001A9FFF79BFB45E702934FF0E0231B69E8
S31508015CF05B0705D5FEF7A2FF0D230393039BE5E793
S31508015D0003A902A8FFF746FCF8E7002001A9FFF757
S31508015D1041FD2FE7002001A9FFF7C4FC2AE71F4B25
S31508015D20D3F8003103F00303022B07D0032B09D064
S31508015D30012B0BD1FEF798FF0323C7E7FEF7F8FF00
S31508015D400923C3E7FEF7A6FF0823BFE70123BDE73B
S31508015D50124AD2F8802002F00302012A05D0022A4B
S31508015D60B4D1FEF79DFF0723B0E7FEF74DFF0E23DB
S31508015D70ACE7002001A9FFF783FBFBE6002001A998
S31508015D80FFF72CFCF6E6002001A9FFF759FCF1E61E
S31508015D9003A8FFF7FFFB112398E700BF0080005017
S31508015DA008B5FFF7D7FE092811D00A38012811D8F6
S31508015DB04FF48002094B4FF6FF705A6603F5D83344
S31508015DC05B6A13F0010F18BF4FF4FA7008BD044B54
S31508015DD01888FBE74FF6FF70F8E700BF0090005000
S31508015DE0DE12002038B504468020FFF7B3FE0328EB
S31508015DF000F083804FF48012504B4FF0A0615A6631
S31508015E0045F60E034E4AC2F880304E4B99624FF45E
S31508015E10803103F580539962916D11F48031FBD17C
S31508015E20D4E900031B0543EA0063E07B0343207BB7
S31508015E3043EA0043607B43EA0033A07B43EA8013CD
S31508015E4013619069D4E904531B0643EA856300F09C
S31508015E5000400343A07EE57E0343207E43EA0043D8
S31508015E60607E43EA00239361E069136A00280CBF48
S31508015E700022082223F00F0343EA000343EA8503BD
S31508015E8043EA02032E4A304D136237D194F824307F
S31508015E90916A94F82000DB000D4043EA401394F818
S31508015EA021102B4343EA011343F480339362274BB2
S31508015EB0916D33EA0101FBD14FF08071214881626E
S31508015EC01369A56823F4700343EA055313614FF078
S31508015ED00043836194F822300BB91D4B996294F8FB
S31508015EE023301BB94FF48032194B9A6294F8253046
S31508015EF01BB1134B174AC3F8802038BD022808D1B5
S31508015F001161154891614FF408524FF47F41FFF72B
S31508015F1065FC0B4994F822308A6A94F820001B061E
S31508015F20154043EA401394F824202B4343EAC2035D
S31508015F3094F8232043EA02438B62D7E70090005086
S31508015F400040005A0050005AC7FFFEFE0300010038
S31508015F500060005AF1A7FFFF3440005A014B93F93C
S31508015F6000007047DC120020F0B5D0E901434FF478
S31508015F7000061A4A4178057856664FF4D156022723
S31508015F8002F5B8325662164E4F2977604FF001076F
S31508015F9028BF4F2106F5805677601669F603FCD4AB
S31508015FA041EA052151611B01417B43EA04230B4365
S31508015FB0017B43EA41039360C37B817B1B0143EA6F
S31508015FC04113417C0B43017C43EA41035360837CC3
S31508015FD013B16FF4D1535362F0BD00BF0090005066
S31508015FE000100250014B1880704700BFDE120020D6
S31508015FF04FF4800208B5184B5A660223174A5360B4
S31508016000936813F48033FBD1012822D1FEF72CFEC5
S31508016010134B984215D003F5122303F5F8639842FA
S3150801602013D0104B00EB8002400AB3FBF0F0520A82
S315080160300A4BDA62012218635A620022074B5A6038
S3150801604008BD45F67A10084AF2E745F61A00074AE6
S31508016050EEE75362F1E700BF00900050004002509E
S3150801606000F0490264666666D8B80500BBCF05002C
S315080160700029CCBF01210021FFF7ECBBB0F5207F39
S3150801608010B50C4657D008D8B0F5007F48D003D8CC
S3150801609030B3B0F5C07F23D010BDB0F5607FFBD11A
S315080160A029492A48D1F8FC2012F080721EBFD1F87E
S315080160B0FC3023F08073C1F8FC30D0F88030611EC3
S315080160C023F0300444EA0114C0F88040002AE3D0E2
S315080160D01D4AD2F8FC3043F08073C2F8FC30DBE786
S315080160E0FFF7E4FB00F036F84FF48031184B174AF6
S315080160F01967136F611E23F4704444EA0134146767
S31508016100FEF79CFD0446FFF77DF9C0F10201204622
S31508016110FFF7AEFF00F024F8BDE81040FFF70ABD0F
S315080161200A4A0139D2F8903023F0F85444EA016456
S31508016130C2F89040B0E7054B013C196F21F4806124
S3150801614041EA84241C67A7E700ED00E000800050BF
S315080161500090005002214FF42070FFF78FBF000016
S3150801616008B54FF4C070FFF7C5FBBDE80840044900
S3150801617088428CBF022101214FF42070FFF77EBFB0
S3150801618080F0FA02B0F5807FF8B50C4600F04E8132
S315080161906BD85D285DD84C2804D82D2844D82328E7
S315080161A028D8F8BD4D381028FBD801A353F820F09C
S315080161B00D640108A3610108A3610108A36101082F
S315080161C007630108A3610108A3610108C165010804
S315080161D03F63010897620108A1650108A3610108E7
S315080161E0A3610108A3610108A3610108A36101086C
S315080161F0E165010824380928D3D801A353F820F00A
S315080162000D6401080D6401080D6401080D64010897
S315080162100D640108A3610108ED630108A361010882
S31508016220CD620108DB6401083D2800F046813E285D
S31508016230B7D1093C032C8CBF0021B04BB04A98BF9B
S31508016240195DD2F8403223F003030B43C2F84032FA
S31508016250A7E78028A5D18B1E062B00F2C480DFE8AC
S3150801626003F0BFADC27EC2C2BC00B0F5F06F00F04C
S3150801627024813BD8B0F5B06F00F0B8801BD8B0F5D3
S31508016280607F00F067818CD3B0F5806F00F0BE8027
S31508016290B0F5A06F85D1073C0B2C8CBF0021994B1B
S315080162A0974A98BF195DD2F8203223F007030B43AA
S315080162B0C2F8203275E7B0F5D06F00F00E81B0F55F
S315080162C0E06FB6D0B0F5C06F7FF46BAF093C032C15
S315080162D08CBF00218C4B8A4A98BF195DD2F8403190
S315080162E023F003030B43C2F840315AE7B0F5206F98
S315080162F000F0668117D8B0F5086F00F01B81B0F57C
S31508016300106F7FF44EAF093C062C8CBF00217F4BE2
S315080163107B4A98BF195DD2F8083223F007030B436D
S31508016320C2F808323DE7B0F5406F00F03981B0F5A3
S31508016330486F00F05581B0F5286F7FF432AF112C04
S3150801634000F05E81152C14BF002102216C4AD2F897
S31508016350703223F003030B43C2F8703221E700259C
S3150801636002264FF480370121022000F0C7F9FFF712
S315080163709DFAFFF7EFFE664B614A1F67136F23F01D
S31508016380070333431367FEF759FC0646FFF73AF846
S31508016390C0F102013046FFF76BFE0121002000F033
S315080163A0EDF9FFF7DDFEFFF7C5FB002D7FF4F9AE2A
S315080163B0032C7FF4F6AE574B9F62F2E64FF4801238
S315080163C0534B0E465A664FF48032534B9D6A03F57A
S315080163D08053C5F300659A62C3E700250426C0E722
S315080163E000250126BDE700252E46BAE7023C0E2CFC
S315080163F08CBF0021494B424A98BF195DD2F88031BA
S3150801640023F003030B43C2F88031CAE6023C052C8C
S315080164108CBF0021424B3A4A98BF195DD2F8203108
S3150801642023F007030B43C2F82031BAE6A1F10904A8
S31508016430082C3FF6B6AE01A353F824F061640108AF
S3150801644061640108A3610108616401088F64010898
S31508016450A3610108A3610108A36101086164010838
S315080164604FF48032264B2F49586E03F580535A66EE
S315080164704B6A43F001034B62C1035CBF2A4B5A6660
S315080164804FF0E022136923F00403136189E64FF400
S3150801649080321B4B2349586E03F580535A664B6A63
S315080164A023F001034B62C3035CBF1F4B5A664FF0CF
S315080164B0E022136943F00403E7E7093C032C8CBF88
S315080164C000211A4B0E4A98BF195DD2F8603123F0A4
S315080164D003030B43C2F8603163E6093C062C8CBF03
S315080164E00021134B064A98BF195DD2F8003223F0F2
S315080164F007030B43C2F8003253E600BF7D6C05085B
S3150801650000800050986C05087D6C0508816C0508AB
S31508016510009000500060005A0040005A686C050857
S31508016520776C050800C0075000A000507D6C05086F
S31508016530816C0508CC1E062C8CBF0021314B324AD2
S3150801654098BF195DD2F8003123F003030B43C2F853
S31508016550003126E62D49063CD1F8FC2012F080725E
S315080165601EBFD1F8FC3023F08073C1F8FC30082C2B
S315080165708CBF0020264B244998BF185DD1F880307E
S3150801658023F003030343C1F88030002A3FF409AE20
S315080165901E4AD2F8FC3043F08073C2F8FC3000E69C
S315080165A0023C052C8CBF00211A4B174A98BF195D6E
S315080165B0D2F8283123F007030B43C2F82831F0E556
S315080165C0023C0F2C8CBF0021134B0F4A98BF195D53
S315080165D0D2F8603223F007030B43C2F86032E0E5D4
S315080165E0023C0F2C8CBF00210C4B074A98BF195D42
S315080165F0D2F8943223F007030B43C2F89432D0E55C
S315080166000121A3E6886C05080080005000ED00E032
S315080166108F6C0508776C0508A46C0508A46C050839
S31508016620EFF3108072B6704700B962B67047EFF3A0
S315080166301180302383F31188704780F311887047DE
S31508016640054B420953F8223000F01F0023FA00F0E7
S31508016650C04300F00100704700E100E0024A536BB5
S315080166600342FCD1704700BF00400950044A4178F3
S31508016670536F23F4407343EA01235367704700BFFE
S3150801668000400050704770470A4A10B5136904461E
S3150801669043F00403136103F073FAFFF7F3FF30BF06
S315080166A0FFF7F1FF03F080FA1CB9BDE81040FEF7C9
S315080166B0C5BA10BD00ED00E0084A10B513690446D5
S315080166C043F00403136103F05BFA30BF03F06CFA7D
S315080166D01CB9BDE81040FEF7B1BA10BD00ED00E0E7
S315080166E070477047034A0179D36E23F030030B4391
S315080166F0D36670470040005070470000F8B504465D
S315080167001C4BD3F88420D106FBD4D3F88430C3F3C9
S3150801671081139C422CD0FEF777FA012C064602D14A
S315080167202146FFF7A5FCFFF77BFF4FF00072124BDE
S3150801673007465A662046FFF7DFFF4FF480630D4D83
S31508016740621E93402B676B6E9A0103D4D5F8843089
S315080167509B060AD53846FFF767FF022C08D1304653
S31508016760BDE8F8400021FFF783BCD5F88430EAE795
S31508016770F8BD00BF004000500060005007B518B9C9
S315080167800191FEF741FA0199064B1B7843B1064B75
S31508016790984205D8012003B05DF804EBFFF7AEBFB8
S315080167A00220F8E78C210020005A62020278034B86
S315080167B0012100201A70FFF7E1BF00BF8C210020DC
S315080167C04FF00042154B10B55A664AF6CD331449B7
S315080167D04C6C0B6404F0010488B90120FFF73EFFF5
S315080167E04B68DB0704D50F4B58600B6BD807FCD5F4
S315080167F014B10B4B0C4A1A6435F07DF910BD0B6BBD
S315080168001A07FCD42022074B9A620122A3F580536A
S315080168105A60034A936A9B06FCD5E9E70090005043
S3150801682000400950006009503254FFFF4FF0004202
S3150801683038B5164B01465A664AF6CD33144C154AF5
S31508016840656C236443780B205B0043F00103D36333
S31508016850FFF704FF63688A7823F4F87343EA02139F
S315080168606360CA784B7943EA0223A3600A798B7974
S3150801687043EA022323610878FFF7A2FFEB0744BF27
S31508016880054B236435F037F9012038BD00900050D7
S3150801689000400950004000503254FFFF4FF00042BB
S315080168A0124B70B55D6E03F580535A664AF6CD33C1
S315080168B004460F4980204E6C0B64FFF7CFFE0B6A26
S315080168C023F00F030F2C94BF234343F00F030B62EE
S315080168D0F30744BF074B0B64002DA2BF4FF00042DC
S315080168E0054B5A6635F007F970BD00BF00800050A8
S315080168F0004009503254FFFF00A000504FF00042FB
S31508016900104B70B55D6E03F580535A664AF6CD3362
S3150801691004460D4980204E6C0B64FFF79FFE0B6AF7
S3150801692023F4F85343EA04230B62F30744BF074BE6
S315080169300B64002DA2BF4FF00042054B5A6635F095
S31508016940DAF870BD00800050004009503254FFFF4C
S3150801695000A00050436D0B42FCD1704708B543684F
S31508016960DA0714D58368DB0702D50369D90707D582
S315080169700A2350218363FFF7EDFF836C9A07FCD145
S31508016980012200F500535A6043689B07FCD408BDF1
S3150801699038B50C460121024600F58053596004F0CA
S315080169A00F0540F6FF71FFF7D5FF78218563FFF7DD
S315080169B0D1FF04F00103610748BF43F00203916C5C
S315080169C001F003019942FAD138BD000010B5FFF76D
S315080169D0C5FF042300F5805100F500520B611361D0
S315080169E00B6113610B6113610B611361202341F282
S315080169F0020103610023C360836041614FF4A02152
S31508016A008361836541620549C36103628362C36227
S31508016A1043630365D164036310BD00BFFF3F0D03E4
S31508016A2009B9FFF79BBFFFF7B3BF836C5A06FCD5BD
S31508016A304164836C1B06FCD5C06B80B270470000AD
S31508016A40F8B505461446084641B9344B9D422FD040
S31508016A50334B9D4208BF5720FEF74CFFAB68DE0754
S31508016A602ED5B0FBF4F46E68013C16F0010625D06C
S31508016A7028212846FFF76EFFAB6C99071AD1AB6C34
S31508016A80DA0719D4AB6C13F0020F0CBF00270627DF
S31508016A902846FFF763FF286920F07F4040EA04642F
S31508016AA02C61DEB139462846BDE8F840FFF7B8BF84
S31508016AB05620D1E70527EBE70927E9E73746EAE74D
S31508016AC06B68AB6DAF68DB0707F0E00748BF64008A
S31508016AD0402F1BD003D8DFB1202F1BD0F8BD602F64
S31508016AE01AD0802FFAD1012604FB06F34101B1FB26
S31508016AF0F3F30C4A203B02EAC30228460121FFF7B9
S31508016B0029FF2A63BDE8F840FFF724BF0626EBE70D
S31508016B101026E9E70826E7E70426E5E70000015B12
S31508016B2000000A50F8FF7F00436870B504460D4619
S31508016B300E691BB140F6FF71FFF70CFF2046FFF700
S31508016B4045FF22696B7BA97B22F087020B4313431E
S31508016B5043F08003236116B32A692369117823F068
S31508016B60F8030B43117F43EAC113117943EA411331
S31508016B70517A43EA0113D17B43EA81132361E16820
S31508016B80D2E9053021F0F04121F4702103430B438A
S31508016B90117B527B43EA812343EAC233E360A3684C
S31508016BA0EA7B23F00303134343F00103A3602EB3E7
S31508016BB02A69A168538803F4C0430B43A36051793A
S31508016BC0A36843EA8123A3609379D079616A1B019B
S31508016BD0000203F0700300F4E06021F4772121F448
S31508016BE0EE6103430B43117A527F090301F4E04135
S31508016BF012040B4302F470221343636263692A7B0E
S31508016C0023F00F0313436361B6B12B695A89A26155
S31508016C105A7B3AB11D4A944224D19A7B1C4902F007
S31508016C200F024A67DA7B3AB1184A944224D11B7C8F
S31508016C30174A03F00F031367D5E901122046FFF738
S31508016C40FFFE05212046FFF7A3FE2821FFF782FE56
S31508016C502B78A363FFF77EFEA36CDB4313F4405F37
S31508016C60FAD170BD0B4A944201BF9A7B084902F0DA
S31508016C700F02C1F88020D5E7064A944201BF1B7C62
S31508016C80A2F5CE2203F00F03D367D5E70000015B17
S31508016C900090035000000A5070B5054614460E468A
S31508016CA0FFF7BEFC296881EA040202EA06044C40A1
S31508016CB02C60BDE87040FFF7B7BC0000072AF7B59E
S31508016CC001F0030614461F464FF003012CD8950020
S31508016CD0A94000FA05F21C480191FFF7DDFF019969
S31508016CE01A4806FA05F2FFF7D7FF194B19499DF815
S31508016CF02000002F08BF1946012303FA04F40C608B
S31508016D00154B1649002808BF0B461C60144B9DF805
S31508016D102400C3F820441031A3F6DC33002808BF49
S31508016D200B461C6003B0F0BDA2F10805AD00A940F1
S31508016D3000FA05F20B480191FFF7AEFF01990A48DF
S31508016D4006FA05F2CFE700BF00C4035008C4035092
S31508016D5010E4035010D4035014D4035014E4035020
S31508016D6000E0035004C403500CC403502DE9F0415C
S31508016D7005460F461E4690464AB101233022194C54
S31508016D808B4002FB00443EB304F5825423600F2175
S31508016D90072F05EB450388BFA7F108044FEA03133C
S31508016DA0114895BFBC00A40004330C3308FA04F259
S31508016DB0A1401844FFF770FFB8F1000F0AD101216D
S31508016DC03020084A01FA07F700FB05223EB102F511
S31508016DD082521760BDE8F08104F50154D6E702F541
S31508016DE00152F6E700C0035030C00350F8B5054616
S31508016DF00E4614465AB3826803F0030722F440721A
S31508016E008260FFF70DFCAA6882EA072303F4407340
S31508016E105340AB60FFF708FC36B9B5F1B64F17D149
S31508016E202E20FEF767FD0646AB680C4BD85D60431E
S31508016E300DD06FEAC4040444A319B3FBF0F3AA689E
S31508016E40013B920702D5002B08BF0123AB61F8BDB0
S31508016E50034B9D42E8D12F20E3E700BFB46C050838
S31508016E6000800650043021B100F5805001230360EB
S31508016E70704700F50050F9E738B500230E4A036458
S31508016E8000F50053DA634A7804460D4600F1080313
S31508016E907AB903F5805302221A602046D5E9011210
S31508016EA02B7BFFF7A3FF20462978BDE83840FFF77B
S31508016EB0D9BF03F50053EEE7FFFF1F00B0F1B64F48
S31508016EC02DE9F04322D0804B984240F0FA807F4B5F
S31508016ED0402505264FF000084FF0030C996800F588
S31508016EE00054C26B12F4C06F16D0970510D5FD2257
S31508016EF05A7009221A700022026493F901100129B5
S31508016F0000D15A7093F90100BDE8F083704BDFE7B1
S31508016F105605EED5FE22EBE71F78082F00F2CD8045
S31508016F20DFE817F009001F0041004C0069007400F2
S31508016F3096009E00C2004C880A88E5060AD5120A00
S31508016F4002F0060242F0F002012119704263C160A3
S31508016F500120D9E702F0FE02A10748BF42F001026B
S31508016F60F2E7170607D5802100F50052D1634FF6DF
S31508016F7008721A8062E05206EAD54A88E563D7069E
S31508016F8004D502221A700B784363E1E7920765D5A7
S31508016F9007221A701B7901EBC3010B89012BD7D183
S31508016FA00823C360D4E71706DDD45206D0D54A882C
S31508016FB0E563970752D583F800C092E74C880A889B
S31508016FC0E50643BF120A02F0060242F0F00202F099
S31508016FD0FE02640709D51C7942F0010201EBC401DE
S31508016FE00989012904BF0821C160042119700123F7
S31508016FF0C3604263ACE71706B5D45706A8D54A88D5
S31508017000E56352072AD507221A70A1E71A795F881C
S3150801701001EBC20EBEF80890B94511D80132D2B2B9
S315080170201A714F88A3F8028017F0040FC3D1FF071E
S3150801703002D4012A7FF655AF08221A700223B0E757
S31508017040DEF80420791C5980D25D42630622DBE70B
S31508017050170688D457067FF57BAFE5631E7040E7B0
S3150801706094067FF575AF20261A7900F5005401EBD1
S31508017070C2010A89456AE6635C88A24281BF4968FA
S31508017080661C5E800D5559888A42D5D90424012A81
S31508017090C46004D9013A914201D10822C2601A7822
S315080170A0092A3FF428AF53E7D2057FF551AF4FF4CC
S315080170B0807100F50052D1631BE74FF609321A8039
S315080170C019E76FF003001FE7008006509C21002096
S315080170D090210020B0F1B64F10B407D01A4B984250
S315080170E02ED06FF003005DF8044B7047174B026909
S315080170F0D20744BF2022C2604A88940702D50C8968
S31508017100002CEED0520702D50A8A002AE9D04FF49C
S3150801711080721A60002299601A71C023C36043699C
S31508017120DB050FD4202200F50053DA63084A5DF81F
S31508017130044BDA63036C43F4FC630364FFF7BEBED6
S31508017140044BD4E7436AEAE7008006509021002001
S31508017150FFFF1F009C2100204FF48032054B9A66E1
S3150801716041F6713203F51C33DA63012203F5005344
S31508017170DA6070470090005041F671320121064BE2
S31508017180DA6303F50052D1600022DA634FF48032E4
S31508017190A3F518339A66704700000350436813B97C
S315080171A0416070475B685A68012AFBD1596070478C
S315080171B0836813B9816070475B685A68012AFBD1F5
S315080171C059607047C369032B9FBF00EB83020133E4
S315080171D0D160C3617047C369042B15D84FF0984233
S315080171E0116CC902FCD504339B0013650168103B79
S315080171F0116041680C30116050F8041C0344116099
S315080172004FF09842984200D1704750F8041B11601C
S31508017210F8E700004FF48032064B5A6603F5E62379
S315080172209B69C3F38512827003F03F021B0B427000
S31508017230037070470090005040F6B732064B5B6802
S315080172409BB293429FBF4FF47A72B3FBF2F3034AA0
S31508017250D05C88BF002070470080E00FB86C050835
S3150801726070B5054616461C4621B94FF42070FEF73F
S3150801727041FB0146402C1BD003D8DCB1202C1BD086
S3150801728070BD602CFCD1042303FB06F2560806EBFD
S315080172904113B3FBF2F3094A203B02EAC303AA6886
S315080172A022F06002AA60AA681443AC60EB61E7E7C2
S315080172B00623E9E71023E7E70823E5E7F8FF7F0058
S315080172C0012200F580535A60CB43934003F00A0329
S315080172D04361416111B900F50050426070470000F1
S315080172E0012100F5805310B5596040F6AA6341F2B1
S315080172F0050243610023094C8360C365C26000F53A
S3150801730000520361C361C3649464054C8365A0425A
S3150801731004BF03654365516010BD00BFFFFF01004F
S3150801732000C0055070B50D46FFF7DAFF012300F5D9
S3150801733080567360AB7C04461BB1836843F0804377
S315080173408360EB7C5BB1244B9C4202BF2A7DA3F58B
S315080173501033C3F8C821E36D43F08003E3652A8A35
S315080173606B7B20461343EA891343E3602B7BD5E9FC
S315080173700112FFF775FF6B7D1BB1A36843F48033D8
S31508017380A360AB7D1BB1A36843F40043A360EB7D07
S315080173902A7E1B07120502F4E00203F0E0431343B9
S315080173A0A3656B7E9A1E012A4FF0020209D80B4982
S315080173B0032BC1F8202709D10423F3652B786361D0
S315080173C070BD0749012BC1F82027F4E7042204F50B
S315080173D00053DA65F2E700BF00C0055000D003503C
S315080173E000E0035083691B06FCD5406AC0B27047AA
S315080173F083695B06FCD5C16370470000054B9A6833
S315080174009107FCD45A689207F9D4DA69002AF6D1A9
S31508017410704700BF00800A5008B5FFF7EFFF012249
S31508017420024B03F580514A601A6108BD00800A5073
S31508017430074B5A68012A0AD15A68D20702D5DA696E
S31508017440002AF9D102221A610122024B5A607047B9
S3150801745000800A5000A00A5010B5064CFFF7CEFF6F
S315080174606368012B03D1FFF7E3FFFFF7C7FF037833
S31508017470E36010BD00800A50E8B94A680B7812B17A
S31508017480127843EAC2034A78002A14BF022200226C
S3150801749013438A6812B1127843EA82138A78002A5A
S315080174A014BF042200221343CA6812B1127843EAB0
S315080174B04223014A9364704700800A5008B9014B78
S315080174C05964704700900A5008B9014B59647047CE
S315080174D000A00A5008B9014B1964704700A00A5068
S315080174E010B9024B186C70470020704700800A508B
S315080174F048B911B1012903D07047044BD86C7047BC
