S01600006D61696E426F617264436C69656E742E733337F2
S3150801200000120020DD460108D9460108D946010813
S31508012010118C0108D9460108D9460108D946010893
S31508012020D9460108D9460108D9460108D946010801
S31508012030D9460108145A0508212E0108D94601086E
S31508012040D9460108D9460108D9460108D9460108E1
S31508012050D9460108D9460108D9460108D9460108D1
S31508012060D9460108F930010805310108D9460108A0
S31508012070D9460108D9460108D9460108D9460108B1
S31508012080D9460108D9460108D9460108D9460108A1
S31508012090D9460108D9460108D9460108D946010891
S315080120A0D94601083D4D0108194D0108D9460108CF
S315080120B0D94601083D0F050835190508ED18050823
S315080120C0E91805080911050831190508F11805085F
S315080120D009190508F5180508951905087519050852
S315080120E0D9460108D9460108D9460108D946010841
S315080120F06D820108D9460108D9460108D946010861
S31508012100D9460108D9460108D9460108D946010820
S31508012110D9460108D9460108D9460108D946010810
S31508012120D9460108D9460108D9460108D946010800
S31508012130D9460108D9460108D9460108D9460108F0
S31508012140D9460108D9460108D94601085F9C010804
S3150801215035F70408D946010835DC04083BDC0408D0
S31508012160D9460108D9460108D9460108D9460108C0
S3150801217010B5054C237833B9044B13B1044800E074
S3150801218000BF0123237010BD1817002000000000AE
S3150801219018C0050808B5034B1BB10349034800E0FD
S315080121A000BF08BD000000001C17002018C0050864
S315080121B0A3F5803A704700BF174B002B08BF134B96
S315080121C09D46FFF7F5FF00218B460F461348144A33
S315080121D0121A3FF082FE0E4B002B00D098470D4B8A
S315080121E0002B00D098470020002104000D000D485F
S315080121F0002802D00C4800E000BF3FF003FE200093
S31508012200290000F001FE3FF0E9FD00BF00000800CB
S31508012210000000000000000000120020181700202E
S31508012220703C0020000000000000000037B51C4B80
S31508012230187801F01FFD01234FF4FA610093194A3A
S315080122400023194801F07CFF054638B3174C184995
S31508012250206806F061F81749206806F05DF802F073
S3150801226043F902F042F9144B144A154900932068C0
S3150801227040F2E31306F050F82B46124A1249206839
S3150801228006F04AF8284602F057F91049206806F080
S3150801229043F80749206806F03FF8FEE703B030BD6A
S315080122A000120020D122010868170020B01B002067
S315080122B0953D0508603C05086C3F0508653C050821
S315080122C06E3C05087A3C05087D3C0508923C0508E4
S315080122D0014B187801F038BD00120020094B07B5EB
S315080122E01B785BB9084B1A6918689047074B1A6936
S315080122F01868019203B05DF804EB104703B05DF866
S3150801230004FB00BFD01700208C4A0508A44A05081B
S3150801231008B502F081F8084802F017FC074B18685F
S3150801232002F02EFC064802F010FC064B1868BDE8C0
S31508012330084002F025BC00BF5C4A05088C4A05081E
S31508012340744A0508A44A050808B5064802F0F4FBCC
S31508012350054802F0F1FB012007F09CFABDE80840A8
S3150801236002F03CB85C4A0508744A050808B502F04B
S31508012370BBF802F0BAF8054B0549186805F0CCFF19
S31508012380FFF7C6FFBDE80840FFF7DEBFB01B002018
S31508012390C53C050870470000014B1878704700BF17
S315080123A00012002008B50B4802F096FB012805D15A
S315080123B002F032F801F0E8FA002008BD064802F0FA
S315080123C08BFB012804D102F027F801F00BFAF3E799
S315080123D00120F2E75C4A0508744A0508036837B51F
S315080123E023F47F431C4A23F00703934231D1002388
S315080123F044F62061194A1A48009301F0A1FE0546E0
S3150801240038B3184C1849206805F086FF1749206823
S3150801241005F082FF02F068F802F067F8144B154AD6
S315080124201549009320684FF4A67305F075FF2B46EE
S31508012430124A1349206805F06FFF284602F07CF816
S315080124401049206805F068FF0749206805F064FF10
S31508012450FEE703B030BD00BFA80014012D22010814
S315080124609C170020B01B0020953D0508603C050817
S31508012470933F0508653C05086E3C05087A3C050846
S315080124807D3C0508E93C050830B503684E4A23F446
S315080124907F4323F0070393428FB000F0848005D869
S315080124A0A2F5A022934213D00FB030BD474A9342FA
S315080124B0FAD1474A1378002BF6D0013BDBB21370E9
S315080124C0002BF1D102F010F802F00FF8414973E040
S315080124D0FFF768FF0028E7D021F00AFC3E4C0546C5
S315080124E078B103461E213D4A06A83FF0C9FE01F010
S315080124F0FBFF01F0FAFF2A463949206805F00CFF6F
S31508012500D2E702A821F012FC054630B33549206806
S3150801251005F002FF3449206805F0FEFE01F0E4FFEC
S3150801252001F0E3FF314B324A3249009320684FF4F8
S315080125308C7305F0F1FE2B462F4A3049206805F0C9
S31508012540EBFE284601F0F8FF2D49206805F0E4FE68
S315080125502449206805F0E0FEFEE79DF817301421AE
S31508012560284A009306A89DF816303FF089FE01F027
S31508012570BBFF01F0BAFF244906AA206805F0CCFE84
S3150801258006A83FF0BBFE2946024606AB01201BF012
S3150801259097FD0546002887D001F0A6FF01F0A5FFA3
S315080125A02A461A49A9E70A4A13780133137001F032
S315080125B09BFF01F09AFF1649074B18680FB0BDE853
S315080125C0304005F0A9BE00BFA0000600A000060124
S315080125D0D1170020DF3D0508B01B0020133D050873
S315080125E0273D0508953D0508603C05085A3F05083D
S315080125F0653C05086E3C05087A3C05087D3C0508DE
S31508012600463D05086C3D0508833D0508973D0508C7
S31508012610D33D0508036837B523F47F43384923F0CA
S3150801262007038B4204D0374A934264D003B030BDC6
S315080126300379002B31D000236421334A33480093B0
S3150801264001F07EFD05460028F0D0314C314920685D
S3150801265005F062FE3049206805F05EFE01F044FF90
S3150801266001F043FF2D4B2E4A2E490093206840F274
S315080126702F1305F051FE2B462B4A2C49206805F0ED
S315080126804BFE284601F058FF2949206805F044FE0B
S315080126902049206805F040FEFEE7032021F034FBBF
S315080126A005460028C2D01A4C1A49206805F034FE9E
S315080126B01949206805F030FE01F016FF01F015FFF3
S315080126C0164B174A1749009320684FF49A7305F079
S315080126D023FE2B46144A1549206805F01DFE284697
S315080126E001F02AFF1349206805F016FE09492068FA
S315080126F005F012FEFEE703B0BDE83040FFF76EBEF7
S31508012700A8001400A80014012D2201089C17002016
S31508012710B01B0020953D0508603C05083C3F0508AF
S31508012720653C05086E3C05087A3C05087D3C0508AC
S31508012730E93C0508EE3D050837B51C4B187801F04C
S3150801274099FA01234FF4FA610093194A00231948AB
S3150801275001F0F6FC054638B3174C1849206805F010
S31508012760DBFD1749206805F0D7FD01F0BDFE01F034
S31508012770BCFE144B144A1549009320684FF4D773CD
S3150801278005F0CAFD2B46124A1249206805F0C4FD18
S31508012790284601F0D1FE1049206805F0BDFD07491C
S315080127A0206805F0B9FDFEE703B030BD0012002030
S315080127B0D122010868170020B01B0020953D0508A5
S315080127C0603C0508223F0508653C05086E3C05087E
S315080127D07A3C05087D3C0508293E0508042910B5FB
S315080127E017D078BB01291C4C20D801F07DFE01F0D9
S315080127F07CFE1A49206805F08FFD194B1A784E2A76
S3150801280008D04F2A03D04C2A06D14E2200E04C228A
S315080128101A7010BD4F22FBE701F066FE01F065FE56
S3150801282020681049BDE8104005F076BD01F05CFE50
S3150801283001F05BFE0C49206805F06EFDBDE810400D
S31508012840FFF77ABF0128E4D101F04EFE01F04DFEF3
S31508012850014B06491868EFE7B01B00205B3E0508E7
S3150801286000120020693E05088A3E05089D3E0508B6
S3150801287037B50446FFF74CFD0123FA2100931A4A9E
S3150801288000231A4801F05CFC054638B3184C19496F
S31508012890206805F041FD1849206805F03DFD01F065
S315080128A023FE01F022FE154B154A009315494FF4F4
S315080128B00673206805F030FD2B46134A1349206834
S315080128C005F02AFD284601F037FE1149206805F072
S315080128D023FD0849206805F01FFDFEE7204603B0E1
S315080128E0BDE8304000F04AB9DD220108341700205E
S315080128F0B01B0020953D0508603C0508FB3E050810
S31508012900653C05086E3C05087A3C05087D3C0508CA
S31508012910923C050873B5044620480E4601F0F6FBBD
S31508012920054638B31E4C1F49206805F0F5FC1E49BB
S31508012930206805F0F1FC01F0D7FD01F0D6FD1B4B2F
S315080129401B4A00931B4940F22223206805F0E4FC48
S315080129502B46194A1949206805F0DEFC284601F07C
S31508012960EBFD1749206805F0D7FC0E49206805F0EC
S31508012970D3FCFEE70122134B1A70134BDA68186869
S315080129809047124B1868DA689047FFF7DDFC314625
S31508012990204602B0BDE8704000F004B934170020A3
S315080129A0B01B0020953D0508603C0508DD3E05087D
S315080129B0653C05086E3C05087A3C05087D3C05081A
S315080129C0AB3E0508D01700208C4A0508A44A05081D
S315080129D007B5019001F088FD01F087FD044B019AC6
S315080129E00449186803B05DF804EB05F095BC00BF0F
S315080129F0B01B0020B33F050807B50190009101F00F
S31508012A0073FD01F072FDDDE90023044804490068FD
S31508012A1003B05DF804EB05F07FBC00BFB01B0020D6
S31508012A20F73F0508F7B50D4616461C46FFF7B4FCF1
S31508012A304F2815D1164FAEB901F056FD01F055FDD7
S31508012A400A2204EBD47304EB840494FBF2F102FB2F
S31508012A50114438682A460F4900945B1005F05CFC5E
S31508012A6003B0F0BD012E0BD101F03EFD01F03DFD95
S31508012A702A460949386803B0BDE8F04005F04CBC60
S31508012A8001F032FD01F031FD2A460449F2E700BFA3
S31508012A90B01B00204040050878400508AC400508F1
S31508012AA02DE9F0410C4615461F46FFF775FC4C28E3
S31508012AB021D1124E5DB901F017FD01F016FD3B4615
S31508012AC0224630680E49BDE8F04105F025BC012DC6
S31508012AD00AD101F009FD01F008FD224609493068CD
S31508012AE0BDE8F04105F018BC01F0FEFC01F0FDFC63
S31508012AF022460549F3E7BDE8F08100BFB01B002077
S31508012B00E6400508174105084C410508F7B50D4685
S31508012B1016461C46FFF740FC4E2810D1134F86B9BE
S31508012B2001F0E2FC01F0E1FC6422B4FBF2F302FBE2
S31508012B3013440F492A463868009405F0EDFB03B0A3
S31508012B40F0BD012E0BD101F0CFFC01F0CEFC2A46D7
S31508012B500849386803B0BDE8F04005F0DDBB01F06F
S31508012B60C3FC01F0C2FC2A460349F2E7B01B002068
S31508012B7087410508C0410508F441050807B50190D4
S31508012B8001F0B2FC01F0B1FC044B019A0449186842
S31508012B9003B05DF804EB05F0BFBB00BFB01B002016
S31508012BA02E42050807B50190009101F09DFC01F040
S31508012BB09CFCDDE9003204480449006803B05DF86D
S31508012BC004EB05F0A9BB00BFB01B0020664205084F
S31508012BD008B50346084611461BB1BDE80840FFF78C
S31508012BE0E1BF01F081FC01F080FC034B0349186841
S31508012BF0BDE8084005F090BBB01B0020A7420508B8
S31508012C0007B5019001F070FC01F06FFC044B019AC5
S31508012C100449186803B05DF804EB05F07DBB00BFF5
S31508012C20B01B0020EB42050808B501F05DFC01F078
S31508012C305CFC034B03491868BDE8084005F06CBB0A
S31508012C40B01B00201F43050808B501F04DFC01F033
S31508012C504CFC034B03491868BDE8084005F05CBB0A
S31508012C60B01B00202F43050830B597B00DF13F0181
S31508012C7010A81BF07BFA564C054628B3554920681F
S31508012C8005F04AFB5449206805F046FB01F02CFC87
S31508012C9001F02BFC514B524A5249009320683523C7
S31508012CA005F03AFB2B46504A5049206805F034FB9B
S31508012CB0284601F041FC4E49206805F02DFB45499F
S31508012CC0206805F029FBFEE701F00EFC01F00DFC7A
S31508012CD09DF840309DF83F0004939DF841304549E1
S31508012CE003939DF84230444A02939DF843300028E5
S31508012CF008BF0A4601939DF844304049009320686D
S31508012D009DF8453005F008FB12A821F00FF8054695
S31508012D1028B33049206805F0FFFA2F49206805F0E5
S31508012D20FBFA01F0E1FB01F0E0FB2C4B2C4A2D49A3
S31508012D3000932068402305F0EFFA2B462A4A2B49CF
S31508012D40206805F0E9FA284601F0F6FB2C492068C7
S31508012D5005F0E2FA1F49206805F0DEFAFEE701F000
S31508012D60C3FB01F0C2FB9DF857309DF848200D932F
S31508012D709DF8563023490C939DF8553020680B93DE
S31508012D809DF854300A939DF8533009939DF85230B3
S31508012D9008939DF8513007939DF8503006939DF896
S31508012DA04F3005939DF84E3004939DF84D300393AB
S31508012DB09DF84C3002939DF84B3001939DF84A30AB
S31508012DC000939DF8493005F0A7FA17B030BD00BF4A
S31508012DD0B01B0020953D0508603C050868440508B8
S31508012DE0584305086E3C05087A3C05087D3C0508EC
S31508012DF0704305084A4305083C430508A4430508EA
S31508012E00DA4305081044050808B506F045FFFFF73B
S31508012E10ADFA06F04EFFFFF7BDFA06F07BF8F8E7C4
S31508012E200DF054BB06F08ABF10B5044601F0C8F888
S31508012E3020461FF027FE2046FFF726FB10BD01207E
S31508012E40704700B5C3B00DF063FA0DF08CFA48B1BE
S31508012E50FFF7F5FF30B101A81BF00DF910B901A86C
S31508012E60FFF7E2FF43B05DF804FB7047014820F025
S31508012E7053B800BF0847050810B5044600F0BCF969
S31508012E80204600F02DFE204600F028FD204600F0E1
S31508012E90B5FF2046FFF7BEFB10BD0120704700B500
S31508012EA0C3B020F041F848B1FFF7F7FF30B101A8E8
S31508012EB020F0CCFE10B901A8FFF7DEFF43B05DF89C
S31508012EC004FB000030B50A4C0A4B22680A4D1A6009
S31508012ED00A4B85B02B600A4B019305F0D5F92B688F
S31508012EE0029001A92068039304F044F805B030BDA7
S31508012EF054120020FC210020F8210020481200204D
S31508012F00184A0508014B186804F048B854120020FD
S31508012F1038B505F0B9F90446064D2B68D3F8B00261
S31508012F2005F0A6F9286804F04CF82046BDE83840B3
S31508012F3005F09EB95412002008B50321802002F03D
S31508012F406FFE03214FF4806002F06AFE09214FF4F7
S31508012F50C06002F065FE09214FF4F06002F060FEE0
S31508012F6009213E2002F05CFE09212D2002F058FEBF
S31508012F700921512002F054FE002008BD08B505F0CC
S31508012F8095F801F006FB05F017F805F0ADF805F020
S31508012F903BF805F06FF805F073F8FFF7CDFF05F07C
S31508012FA021F801F0EBFA01F09DFC01F0D9FEBDE82C
S31508012FB0084005F0BFBE08B501F058FE00F000F95B
S31508012FC0BDE8084000F00AB908B501F0D5FA06F0DF
S31508012FD0F7FA05F08BF805F0E9F90AF049FB05F06F
S31508012FE065FD08F039F90AF049FD00F077F8BDE802
S31508012FF00840FFF767BF08B503F00EFF03F016FF99
S31508013000FFF710FFBDE80840FFF730BF08B501F02C
S315080130107BF9BDE8084001F069BA704708B501F0C7
S31508013020C7F901F039F9BDE80840FFF771BF08B5DE
S31508013030FFF707FFBDE80840FFF731BF70470000FB
S3150801304070B5144E92B035460BAC0FCD0FC495E84A
S3150801305007000023CDE908330A93292384E80700EA
S315080130600D4A02ACCDE9062305238DF82130062346
S315080130708DF8233006F11C030FCB84E80F00074BAC
S31508013080214600930BAA06AB054805F00DFC12B0C4
S3150801309070BD00BF304A050800C00550901A0020CF
S315080130A0FC1A0020831E012B0AD8012908D80422FC
S315080130B0094B1B6CC3F340130521002003F0A4BB85
S315080130C00239012907D8012805D8034B00221B6CB0
S315080130D0C3F34013F0E7704700C0035008B504492D
S315080130E0044805F0F5FEBDE80840FFF7A9BF00BF93
S315080130F058120020D41A0020014B186805F09ABC12
S31508013100FC1A0020FFF7F8BF014B1A6A1868104726
S31508013110FC1A0020012070470120704710B501F004
S315080131208BF904460DF060F9002808BF0024FFF763
S31508013130E9FE002808BF002401F0DEF8002808BFD0
S315080131400024FFF7E7FF002814BF2046002010BD22
S3150801315038B505F0E1FF044601F07EF9042825D0CB
S3150801316002284FF0000508BF01240DF04BF9042889
S315080131701ED0022808BF0124FFF7C6FF042819D06C
S31508013180022808BF012401F0ADF8042814D002284A
S3150801319008BF0124FFF7C0FF04280FD0022808BF83
S315080131A00124002D18BF0024204638BD0125DCE77F
S315080131B00125E1E70125E6E70125EBE70024F3E729
S315080131C008B5044801F02EFCBDE80840024801F0A4
S315080131D029BC00BF5C4A0508744A050808B50448B5
S315080131E001F0CBFCBDE80840024801F0C6BC00BFAF
S315080131F08C4A0508A44A050837B5044610B303687E
S31508013200B14A23F47F4323F00703934200F0748203
S3150801321000F2A180AD4A934200F0A4814AD8AC4A93
S31508013220934200F018821FD8A2F54022934200F07B
S31508013230348209D8A74A934200F03A81A64A9342B2
S3150801324000F0998103B030BDA44A934200F04E8242
S3150801325002F580229342F5D101F046F901F045F9CC
S31508013260E388A2889E4912E19E4A934200F04A8267
S315080132700ED8A2F5A022934200F0B68102F580325B
S315080132809342DFD101F030F901F02FF9964914E1A3
S31508013290964A934200F0548202F540329342D1D1C4
S315080132A001F022F901F021F9238991490093A389B3
S315080132B062894DE08F4A934200F09C8123D8A2F59A
S315080132C01412934200F0D9810ED8A2F570229342C6
S315080132D000F05D8102F580229342B3D101F004F931
S315080132E001F003F98449E8E0844A934200F0BB817E
S315080132F002F50C129342A5D101F0F6F801F0F5F8A2
S3150801330022897F4934E17F4A934200F0DD8110D852
S31508013310A2F58022934200F0FC8102F540329342E5
S3150801332090D101F0E1F801F0E0F863892289764944
S31508013330ADE0764A934285D101F0D6F801F0D5F889
S31508013340B4F8093072490093B4F80730B4F8052087
S31508013350704800687AE1704A934200F0A4814CD81B
S31508013360A2F57F02934200F0B98126D8A2F5102270
S31508013370934200F045810FD8A2F51412934200F04A
S31508013380848102F5101293427FF45CAF01F0ACF828
S3150801339001F0ABF8614990E0614A934200F0C081BF
S315080133A002F5403293427FF44DAF01F09DF801F0EA
S315080133B09CF8638922895B4969E05B4A934200F07C
S315080133C025810FD8A2F55012934200F0258102F506
S315080133D04C1293427FF436AF01F086F801F085F876
S315080133E052496AE0524A93427FF42CAF01F07CF8C5
S315080133F001F07BF8227B4F49BAE04F4A934200F02D
S31508013400C08028D802F17E4202F55412934200F098
S31508013410CB800FD8A2F50032934200F0DF8002F587
S31508013420803293427FF40EAF01F05EF801F05DF849
S31508013430424942E0424A934200F07B8102F540321A
S3150801344093427FF4FFAE01F04FF801F04EF8D4F83D
S3150801345006203C498CE03C4A934200F0E4801DD8A2
S3150801346002F17E42934200F0988002F18072934203
S315080134707FF4E8AE01F038F801F037F833492079DE
S31508013480334AB4F80530002818BF0A46314921489D
S31508013490006803B0BDE8304004F03EBF2E4A9342AF
S315080134A07FF4D0AE01F020F801F01FF82B4904E0B3
S315080134B001F01AF801F019F82949164B186803B0F2
S315080134C0BDE8304004F028BFA8001F02A00006018D
S315080134D0A8002400A0000600A8001400A8001F00E8
S315080134E0E84F0508A8004D00614C0508A8004E00E4
S315080134F001520508A80048018D500508A8002401B5
S31508013500AF4C0508A8005101AE500508A0000602F7
S31508013510564B0508B01B0020A8005003E34C0508CC
S31508013520A8004D02FA500508A80048030F4D0508E2
S31508013530A8004D0328540508A8001406294E0508B5
S31508013540A8004D04C6510508A80014092C4B050806
S31508013550244B0508C64E0508A800140ABC4B0508E5
S31508013560384B050800F0C0FF00F0BFFFA288784974
S31508013570784B18682BE000F0B7FF00F0B6FF7649E4
S315080135809BE700F0B1FF00F0B0FF744995E700F042
S31508013590ABFF00F0AAFF72498FE700F0A5FF00F024
S315080135A0A4FFA2886F49E3E700F09EFF00F09DFFA4
S315080135B0684B1868A38803F44042B2F5404F0BD014
S315080135C013F4805F684B694A18BF1A46684903B005
S315080135D0BDE8304004F0A0BE664AF7E700F084FF74
S315080135E000F083FF644968E700F07EFF00F07DFF85
S315080135F0624962E700F078FF00F077FF60495CE70F
S3150801360000F072FF00F071FF5E4956E700F06CFFAB
S3150801361000F06BFF5C4950E700F066FF00F065FFBC
S31508013620E2885A49A4E7057900F05EFF00F05DFFDC
S31508013630484BB4F807201868B4F809304DB1544915
S31508013640544C012D18BF21460091534904F064FEDC
S31508013650F8E55249F8E700F047FF00F046FFE3882E
S31508013660A2884F4913E700F03FFF00F03EFF238988
S315080136704C490093E388A2886AE600F035FF00F01A
S3150801368034FFE388A288484901E700F02DFF00F0DE
S315080136902CFFE388A2884549F9E600F025FF00F0EA
S315080136A024FF434909E700F01FFF00F01EFFD4F885
S315080136B00E302848019323893E490093A3896289DC
S315080136C0006804F029FEBDE500F00EFF00F00DFFCD
S315080136D0238939490093A389628939E600F004FFF1
S315080136E000F003FFD4F80620344941E700F0FCFE58
S315080136F000F0FBFE3249E0E600F0F6FE00F0F5FECA
S315080137003049DAE600F0F0FE00F0EFFE227B2E49A2
S315080137102EE700F0E9FE00F0E8FE227B2B4927E7B9
S3150801372000F0E2FE00F0E1FED4F80D30227B2849D4
S31508013730ADE600F0D9FE00F0D8FEE268254917E7A4
S3150801374000F0D2FE00F0D1FEA289234910E700BF9E
S315080137509D4B0508B01B0020D24B0508EE4B05080A
S31508013760134C0508344C0508D84A0508CE4A0508FD
S315080137708C4C0508BC4A05083B4D05085C4D0508F7
S315080137808F4D0508C24D0508F64D05085C4E05081E
S31508013790FB4A0508124B0508814E0508E24A050849
S315080137A0004F05084D4F0508A84F05082B50050879
S315080137B06F5005084F51050862520508C45205089D
S315080137C0055305083A5305086D530508A45305081A
S315080137D0D753050869540508B354050800201AF09B
S315080137E0B3BC000037B520F0BFFA044630B32E4DFE
S315080137F02E49286804F090FD2D49286804F08CFDAF
S3150801380000F072FE00F071FE2A4B2B4A00932B49F9
S315080138104923286804F080FD2346294A294928684E
S3150801382004F07AFD204600F087FE2749286804F04F
S3150801383073FD1E49286804F06FFDFEE7FFF704FAD9
S3150801384023464FF4FA61214A2148009400F078FC96
S31508013850054630B3144C1549206804F05DFD14493A
S31508013860206804F059FD00F03FFE00F03EFE114BC2
S31508013870114A009311495423206804F04DFD2B4643
S315080138800F4A1049206804F047FD284600F054FE07
S315080138901049206804F040FD0449206804F03CFD05
S315080138A0FEE703B030BD00BFB01B0020953D0508FB
S315080138B0603C05083B560508015505086E3C050898
S315080138C07A3C05087D3C050876550508DD3701086B
S315080138D0201B00209E550508FFF784BF036837B5EE
S315080138E023F47F431C4A23F00703934232D1FFF79F
S315080138F0ABF900234FF4FA61184A1948009300F00E
S315080139001FFC054630B3174C1749206804F004FD1F
S315080139101649206804F000FD00F0E6FD00F0E5FD1B
S31508013920134B144A144900932068842304F0F4FCC9
S315080139302B46124A1249206804F0EEFC284600F08C
S31508013940FBFD1049206804F0E7FC0749206804F0EC
S31508013950E3FCFEE703B030BDA800140ADD37010811
S31508013960201B0020B01B0020953D0508603C05087A
S31508013970FC550508015505086E3C05087A3C0508FD
S315080139807D3C05089E55050837B520F0EDF9054635
S3150801399030B3434C4349206804F0BEFC42492068D1
S315080139A004F0BAFC00F0A0FD00F09FFD3F4B404A31
S315080139B0009340496023206804F0AEFC2B463E4A3A
S315080139C03E49206804F0A8FC284600F0B5FD3C49AC
S315080139D0206804F0A1FC3349206804F09DFCFEE749
S315080139E01AF062FB044630B32D4D2E49286804F0BF
S315080139F093FC2D49286804F08FFC00F075FD00F052
S31508013A0074FD2A4B2A4A00932A496323286804F03D
S31508013A1083FC2346284A2949286804F07DFC204668
S31508013A2000F08AFD2749286804F076FC1D492868B4
S31508013A3004F072FCFEE7FFF7F7F823464FF4FA6144
S31508013A40214A2248009400F07BFB054630B3144C0A
S31508013A501449206804F060FC1349206804F05CFCF2
S31508013A6000F042FD00F041FD104B114A0093114947
S31508013A706E23206804F050FC2B460F4A0F49206834
S31508013A8004F04AFC284600F057FD1149206804F065
S31508013A9043FC0449206804F03FFCFEE703B030BD4F
S31508013AA0B01B0020953D0508603C05081D56050814
S31508013AB0015505086E3C05087A3C05087D3C050854
S31508013AC076550508D5550508DD370108201B002060
S31508013AD09E550508FFF758BF00201AF035BB0000B0
S31508013AE037B580B10368344A23F47F4323F00703CB
S31508013AF0934257D009D802F17A42934247D002F14C
S31508013B008072934252D003B030BD2C4A9342FAD107
S31508013B102B4C8088FFF774F800F0E6FC00F0E5FC12
S31508013B204FF4FA622749206804F0F6FB00234FF4A4
S31508013B30FA61254A2548009300F002FB054600284C
S31508013B40E1D02349206804F0E7FB2249206804F004
S31508013B50E3FB00F0C9FC00F0C8FC1F4B1F4A2049D3
S31508013B6000932068BB2304F0D7FB2B461D4A1E4948
S31508013B70206804F0D1FB284600F0DEFC1B492068CA
S31508013B8004F0CAFB1249206804F0C6FBFEE7037974
S31508013B90D0F80720B0F80510181E18BF0120FFF746
S31508013BA017F8B0E78088FEF763FEACE7D0F8061091
S31508013BB08088FEF7AFFEA6E7A8001406A80014073A
S31508013BC0B01B002059560508D93A0108541B002094
S31508013BD0953D0508603C05084557050895560508AD
S31508013BE06E3C05087A3C05087D3C05081C57050806
S31508013BF037B520F031F8054638B3154C1549206814
S31508013C0004F08AFB1449206804F086FB00F06CFC7A
S31508013C1000F06BFC114B124A1249009320684FF4CD
S31508013C20E47304F079FB2B460F4A1049206804F027
S31508013C3073FB284600F080FC0D49206804F06CFBF4
S31508013C400449206804F068FBFEE703B030BD00BFF5
S31508013C50B01B0020953D0508603C05081D5905085F
S31508013C60735705086E3C05087A3C05087D3C05082E
S31508013C70E857050873B50024294B86B21C609C7267
S31508013C805C601C81274B054618703046FEF7A0FE7E
S31508013C90234622462146204600961FF0E9FF0446A0
S31508013CA0A0B9032000F000FC68B11F4E1F49306817
S31508013CB004F032FB00F018FC00F017FC2A461C49F8
S31508013CC0306804F029FB204602B070BD40F2145357
S31508013CD0984203D040F21553984219D1042000F0B6
S31508013CE0E3FB0028EFD0104E1249306804F014FBAC
S31508013CF000F0FAFB00F0F9FB0F4A10492346306839
S31508013D0004F00AFB204600F017FC2A460C49D7E7BF
S31508013D10012000F0C9FB0028D5D0034E0949E4E784
S31508013D20881B0020941B0020B01B00201E58050884
S31508013D30235805085B5805087A3C05087D3C0508A3
S31508013D406058050897580508002373B51A46009068
S31508013D500546194618461FF0ABFF0446A0B90320CD
S31508013D6000F0A2FB68B11D4E1D49306804F0D4FA73
S31508013D7000F0BAFB00F0B9FB2A461A49306804F08C
S31508013D80CBFA204602B070BD40F21453984203D0D4
S31508013D9040F21553984219D1042000F085FB0028FA
S31508013DA0EFD00E4E1049306804F0B6FA00F09CFBCD
S31508013DB000F09BFB0D4A0E492346306804F0ACFA25
S31508013DC0204600F0B9FB2A460A49D7E7012000F048
S31508013DD06BFB0028D5D0014E0749E4E7B01B00204C
S31508013DE01E5805089C5805085B5805087A3C0508BD
S31508013DF07D3C0508CD580508975805082DE9F04F6B
S31508013E00054687B080B10368674A23F47F4323F0E8
S31508013E100703934234D00AD802F17F4293422CD049
S31508013E2002F55412934230D007B0BDE8F08F5F4ACD
S31508013E309342F9D1002490F80DA0DFF880B100F182
S31508013E400E09A245F0D9AAEB0401022940F3A5807F
S31508013E5009EB04039F78564B00221846B5F80880EB
S31508013E6030F8026BB04500F09A800132052AF7D185
S31508013E70033457FA84F4E4B2E3E70379002BD3D089
S31508013E8007B0BDE8F04FFFF7B3BE437B072BCBD98D
S31508013E9000F10E01082203A806F005F8454BBDF806
S31508013EA00C001B788342BFD1414A937A042BBBD8B5
S31508013EB0164600242D89A9B236F8027BB942B3D039
S31508013EC00134052CF8D122F8135001339372FEF709
S31508013ED093FDA9E7032964D0E21C4A44002633F876
S31508013EE0021B88451CD1F6B219F804104E2933D0A5
S31508013EF04F291ED04C2943D1022F16D103A805F00C
S31508013F0031FF4FF6FF72BDF80C30A3EB020CDCF162
S31508013F10000242EB0C0241463046FEF7C1FDA7E717
S31508013F200136052EDBD1FF26DEE74FF6FF730222A7
S31508013F30F1E7012F0DD103A805F014FF9DF90C3007
S31508013F40A3F17F004242424141463046FEF76AFDEF
S31508013F508EE77F230222F7E7032F0DD103A805F089
S31508013F6001FF6FF07F42039B991A4A424A41414633
S31508013F703046FEF7CBFD7BE76FF07F430222F6E77B
S31508013F80019100F0B1FA00F0B0FA01990A4B0A461C
S31508013F901868594604F0C0F96AE7544651E7002FF4
S31508013FA098D100229AE700BFA8001401A800490485
S31508013FB0881B0020941B0020B01B0020FD58050813
S31508013FC0036837B523F47F433A4A23F0070393423C
S31508013FD0044664D002F18272934268D1B0F80510A2
S31508013FE0212964D10122344B00791A7000221AF072
S31508013FF07DF8054630B3314C3149206804F08CF917
S315080140003049206804F088F900F06EFA00F06DFA7C
S315080140102D4B2E4A00932E493F23206804F07CF944
S315080140202B462C4A2C49206804F076F9284600F0DC
S3150801403083FA2A49206804F06FF92149206804F0B7
S315080140406BF9FEE720791AF01DF8054600282ED0EF
S315080140501A4C1B49206804F05FF91A49206804F0D4
S315080140605BF900F041FA00F040FA174B174A009342
S3150801407017494323206804F04FF92B46154A164978
S31508014080206804F049F9284600F056FA13492068D1
S3150801409004F042F90A49206804F03EF9FEE7064BA6
S315080140A01B7823B103B0BDE8304005F035BE03B037
S315080140B030BD00BFA0000601951B0020B01B0020E3
S315080140C0953D0508603C0508B659050835590508A2
S315080140D06E3C05087A3C05087D3C0508A559050886
S315080140E0002209490B684BB1834204D1436A4AB19C
S315080140F05362012070471A465B6AF4E70028F5D037
S31508014100184670470B60F4E7981B002010B5044663
S3150801411090B105F08FFA2046FFF7E2FF58B194F8FF
S31508014120280040B101F0D1FF044A1368013B13602E
S3150801413001F0D1FF002010BD2220FCE79C1B0020C6
S315080141402DE9F04F85B00546914698460E469DF8ED
S31508014150387009B9002F64D12846FFF7D7FF0446FE
S3150801416000283CD185F82800286305F0CDFB864256
S3150801417039D905F07DFB40F2E7318C462146E6FB4D
S3150801418000C14FF47A72604600233DF08FFC4FF070
S31508014190FF32002383468A463DF088FC4FF0FF3202
S315080141A068860023584651463DF080FC2B46CDE9EA
S315080141B0004411461C4A284605F0D7FA044670B948
S315080141C01A4AC5E90798136885F82970EE6233B368
S315080141D01A465B6A002BFBD1556200236B622046A7
S315080141E005B0BDE8F08F304603A957B105F06EFB5F
S315080141F004460028F3D12B46CDE900000A4A039963
S31508014200D9E705F063FB04460028E8D12B46284682
S31508014210CDE90077044A039905F084FACEE71560DB
S31508014220DBE72124DBE700BF31420108981B0020A8
S3150801423091F8283013B50C4683B90B8E4A8E9342F2
S315080142400ED243B9CDE9003320460B46104A4FF04A
S31508014250FF3105F031FA238E0133238602B010BDF2
S3150801426052B191F829307BB101230093D1E9072393
S315080142702046C96AFFF764FF0123064A84F82830F5
S31508014280136801331360E9E7084605F0D3F9F3E744
S31508014290314201089C1B002070B5104D2B681BB1DB
S315080142A000260F4B1C6804B970BD94F8283093B1E9
S315080142B001F00BFF2B6884F82860013B2B6001F0A5
S315080142C00AFF94F8293013B92046FFF709FFD4E904
S315080142D0073120469847646AE5E700BF9C1B002022
S315080142E0981B0020034B1B68002B0CBF01200420E0
S315080142F0704700BF9C1B0020024B1868B0FA80F07B
S31508014300400970479C1B002004210022024B1971A9
S315080143101A6019739A607047A01B00202DE9F843AB
S31508014320204B05461B78ABB94FF00208DFF87C90A5
S315080143301D4C59F8043BAB4207D1284600F077FBE0
S3150801434001280CD105F06EFA2060B8F1010F04F1CD
S31508014350080401D1BDE8F8834FF00108E9E72846CA
S3150801436000F065FB07460028EFD105F05BFA2368E4
S31508014370C61AFA2005F082FAB04201D92771E4E794
S315080143804FF47A7005F07AFAB04202D90123237103
S31508014390DBE741F2883005F071FAB0428CBF02239F
S315080143A00323F4E77E120020A01B002070120020D0
S315080143B010B5094C2179042904D00020FEF70EFA1C
S315080143C004232371217B042904D00120FEF706FA70
S315080143D00423237310BD00BFA01B002010B50B4C8E
S315080143E0206800F024FB012803D105F01BFA084BCD
S315080143F01860606800F01BFB012803D105F012FA6A
S31508014400034B98600022034B1A7010BD70120020EE
S31508014410A01B00207E120020054B1A783AB901210B
S3150801442019700421034B19711A6019739A60704740
S315080144307E120020A01B0020054B187838B9054BC1
S315080144401A79042A03D1187B031F58425841704729
S315080144507E120020A01B0020074B1B7843B9074B8F
S315080144601879042806D11B7B042B08BF0120704745
S3150801447001207047042070477E120020A01B0020EF
S3150801448008B5D0E9023253F8221003EB82035B68C0
S3150801449008781978032928BF0321012828BF012094
S315080144A0FEF79CF908BD00000B4B02461B788BB141
S315080144B00A4B1B78834234BF00200120084B1B7826
S315080144C03BB1084B1B7843FA02F212F0010F08BF01
S315080144D0002070470120F1E77F120020801200209A
S315080144E0B41B00208112002070477047012208B5CD
S315080144F0074B1A700022074B1A700422064B1A70D2
S315080145001F22064B1A7003F0BFFE054B186008BD43
S315080145107F120020B41B0020801200208112002087
S31508014520B01B0020024B0349186803F0F5BE00BF13
S31508014530B01B0020D659050870B50C4C0C49064627
S31508014540206803F0E9FE03F09FFE0546206803F0A4
S315080145508FFE3046FFF7E6FF284603F089FE2068FE
S315080145600449BDE8704003F0D7BE00BFB01B002068
S31508014570D8590508DA5905080F20704708B50121E9
S315080145803A2000F0E9FEFEF770FCBDE8084000F0AD
S3150801459005B801213A2000F0DFBE00002DE9F041FF
S315080145A0484C8EB0264601AD0FCE0FC5336814347C
S315080145B02B6006AD0FCC0FC594E80F0085E80F00F8
S315080145C001213A2000F0C8FE0121572000F0C4FE5F
S315080145D04FF480733C4EADF81C303C4B3046039388
S315080145E001A906AB059301F0EDFF0123042203217E
S315080145F0022002F009F9022100230846012202F0ED
S3150801460003F9012304221946022002F0FDF80422C7
S3150801461000210123022002F0F7F82D4C2D4B01252C
S31508014620C4F8C8344FF00213C4F8C43403F5803310
S31508014630C4F8CC341C2304F50058C4F8B4344FF438
S31508014640487005F041FB04F580571420C8F8A050BE
S3150801465005F03AFB2320C7F8A05005F035FBB92130
S315080146603046C8F8A05001F02EFF002303211A4650
S315080146700220C7F8A05002F0C7F8002302211A4603
S31508014680084602F0C1F82B4629460022022002F00C
S31508014690BBF800222B461146022002F0B5F8304637
S315080146A001F0E2FE00215720C4F8C814C4F8C41466
S315080146B0C4F8CC14C4F8B41400F04EFE0EB0BDE82C
S315080146C0F08100BFE059050800000A50E070720049
S315080146D000C0035002000100FEE7000008B500F023
S315080146E02DF8124B12498B4212D30020114B124955
S315080146F08B4218D3FDF760FD186850F822405868B8
S3150801470040F82240013298688242F5D30C33EAE731
S315080147100022F8E71C6844F8220001325C68A242CC
S31508014720F8D30833E4E70022F8E700BF20C00508FC
S315080147302CC005082CC005082CC005084FF480417B
S315080147404FF0FF30114B124A10B59A60D3F8882002
S3150801475042F47002C3F888200E4A91660E4901F5A3
S31508014760005210660D4850660220C3F8D000BFF308
S315080147704F8FBFF36F8F01244FF440330848C0F8B9
S315080147808041D36004600B6110BD00BF00ED00E0FD
S31508014790002001080090005000800044F7FF370010
S315080147A000E100E0014B1868704700BF881200203D
S315080147B0084B1B6F03F00703022B04D0032B05D00C
S315080147C0012B05D0FEE7044B18687047034BFBE73E
S315080147D00348704700800050881200208C12002080
S315080147E0002D310108B5FFF7E3FF054B1B6FC3F336
S315080147F003330133B0FBF3F0024B186008BD00BF69
S3150801480000800050841200200048704700B4C40498
S31508014810014B1868704700BF8C120020054B1860C1
S31508014820054B1B6F03F00703032B01D1FFF7DABF13
S31508014830704700BF8C12002000800050002070478E
S3150801484000487047002D31014FF0B4439868C0F312
S3150801485004400C2822D8DFE800F009212121212172
S31508014860071719211B1D1F000F4870479B6803F086
S315080148704073B3F1807F13D0B3F1007F12D00B4A96
S31508014880002B08BF1046704709487047094870470A
S31508014890094870470948704709487047002070471A
S315080148A00848704708487047405DC60000093D0042
S315080148B00024F400C0EA210180BA8C010048E8010D
S315080148C0005A620280841E0040420F004FF40040E5
S315080148D070474FF47A707047014B1868704700BFEC
S315080148E0901200204FF000639B6A10B503F17842DD
S315080148F0B2F5903F0AD2084C227812F0FD0F08D182
S31508014900DB69984708B90123237010BD4FF48170FC
S31508014910FBE70020F9E700BFB51B00204FF0005365
S31508014920074A1A60BFF34F8F0649074BCA6802F454
S31508014930E0621343CB60BFF34F8F00BFFDE700BFB3
S3150801494002020FF000ED00E00400FA0500230360FF
S31508014950704703680B600160704710B538B132B112
S3150801496029B100230139D45C14B90023037010BDA1
S315080149708B42FAD200F8014B0133F4E7034638B10A
S3150801498000201A5C22B1814200D170470130F8E754
S3150801499070474FF0FF31FFF7F1BF70B50C46164669
S315080149A0054660B15AB151B1FFF7F3FF844206D902
S315080149B0211A32462844BDE87040FFF7CEBF70BDC4
S315080149C070B5D0B1C9B10E4E431E013913F8014F66
S315080149D02046A25D02F00302012A11F8012F08BF41
S315080149E004F12000B55C05F00305012D08BF20324E
S315080149F0801A01D1002CE9D170BD0120FCE700BF66
S31508014A00A9BC050805490A681318054883428CBFDD
S31508014A104FF0FF320B601046704700BF941200201A
S31508014A2000000420436803B11847222070474369F0
S31508014A3003B11847FF20704710B40A681378022B90
S31508014A4011D014203023147913FB040307481B588B
S31508014A505079C340DB4303F00103137008465DF840
S31508014A60044BFFF75BBC5DF8044B704730C003503D
S31508014A7037B50468012105463A2000F06DFC00238C
S31508014A8001226179207901F0BFFE142230232179B0
S31508014A9013FB01230E4A9B586279D340DB4303F08B
S31508014AA001032370A379022B0ED100F0DFF82A4601
S31508014AB00849607900F004F90123024661792079F1
S31508014AC0CDE9003301F048FE002003B030BD00BF38
S31508014AD030C00350394A0108036818787047000046
S31508014AE002681378022B24D014213023107913FB82
S31508014AF0001310495B585179CB40917903F00103B2
S31508014B00012912D1508843EA40034FF6E07063F059
S31508014B103F039BB2834202D11170538070474FF60F
S31508014B20DF718B42F9D10021F6E711B983F0010350
S31508014B301370704730C0035003681A78022A03D1EC
S31508014B4000225A80FFF794BF704713B5046823788B
S31508014B50022B10D0A379022B0BD10021607900F02A
S31508014B609DF80023627920791146CDE9003301F0D9
S31508014B70F3FD0223237002B010BDD0E900031847E4
S31508014B8010B5044601213A2000F0E6FBA378207807
S31508014B90B3FA83F3042261785B0901F035FE00203C
S31508014BA010BD000010B501224378017884783020C1
S31508014BB09A40054B00FB01331CB903F501531A60F2
S31508014BC010BD03F58253FAE700C0035010B5012260
S31508014BD043780178847830209A40054B00FB0133ED
S31508014BE01CB903F582531A6010BD03F50153FAE7A0
S31508014BF000C003500122437801789A403023594373
S31508014C00014B5A50704700BF40F003501021302322
S31508014C100246007813FB0013054950785B58C340D8
S31508014C2003F0010093780BB980F00100704700BFCB
S31508014C3030C0035070B5044601250B4E04B970BD4A
S31508014C4094FAA4F0B0FA80F005FA00F306EB001224
S31508014C5024EA03045368002BF0D0117B11B1916843
S31508014C609847EBE79847E9E7B81B002008B51920EC
S31508014C7001F034FA28B14FF00072074BC3F88021CE
S31508014C801A601A2001F02AFA28B14FF08062024B05
S31508014C90C3F880211A6008BD00E100E038B5054671
S31508014CA00C4601F012FA0022044B03EB05135C6073
S31508014CB01A73BDE8384001F00EBA00BFB81B0020D0
S31508014CC0F8B505460F46164601F0FFF9104B05F0F3
S31508014CD0FC02D3F824140023EC1804F0030414434B
S31508014CE021FA04FC1CF0010F07D00133042BF3D180
S31508014CF0FF2401F0F0F92046F8BDFF2CF9D0012276
S31508014D00044B03EB0413C3E901761A73F1E700BFF9
S31508014D1000C00350B81B0020074BD3F82404D3F86E
S31508014D20202403F50053104000F0553020F05020A0
S31508014D30C3F82004FFF77EBF00C00350074BD3F822
S31508014D402404D3F8202403F50053104000F0AA30B8
S31508014D5020F0A020C3F82004FFF76CBF00C0035061
S31508014D60024B1968024B186834F026BD9C120020C4
S31508014D70981200207047000037B5920004460D4688
S31508014D8001923EF05DFF431C0BD060B929462046CF
S31508014D90019A3DF06BF80028044808BF002003B0CB
S31508014DA030BD0348FBE70348F9E700BF10E000F010
S31508014DB021E000F024E000F013B5044601A801F053
S31508014DC0C1FD9DF80630012223804FF4807300202F
S31508014DD06380054B9B680A3303F01F0302FA03F34A
S31508014DE0636002B010BD00BF0080E00F01F05CBD3A
S31508014DF008B501F049FD002008BD10B5044644EA8E
S31508014E00010313F00303084609D1934201D1002097
S31508014E1010BD54F8231040F823100133F5E7214655
S31508014E2092003DF033F8F2E710B504463EF010FF64
S31508014E30431C15D0B0B90C4B20469B680A3303F0C6
S31508014E401F020123934023F003032344984201D10F
S31508014E50002010BD50F8042B0132F7D00348F8E7BB
S31508014E600348F6E70348F4E70080E00F0EE000F098
S31508014E7021E000F024E000F008B501F01FF9014B2C
S31508014E80186008BD28210020014B186801F01AB9DD
S31508014E90282100200A460139014403F063BE0000B7
S31508014EA0044BD3F88420D206FBD4D3F88400C0F38C
S31508014EB0811070470040005038B5174B0546D3F8A6
S31508014EC020310C4603F00703013B052B20D8DFE808
S31508014ED003F0030B130F171BFFF764FC052305B13A
S31508014EE0286004B1236038BDFFF792FC0323F6E777
S31508014EF0FFF7AAFC0723F2E7FFF7A2FC0223EEE776
S31508014F00FFF750FC0623EAE7FFF782FC0423E6E7EE
S31508014F1000231846E3E700BF0080005038B5174B59
S31508014F200546D3F828310C4603F00703013B052B48
S31508014F3020D8DFE803F003131B0F0B17FFF732FC2A
S31508014F40052305B1286004B1236038BDFFF72AFCA3
S31508014F500623F6E7FFF778FC0723F2E7FFF758FC85
S31508014F600323EEE7FFF754FC0423EAE7FFF768FC9F
S31508014F700223E6E700231846E3E700BF0080005056
S31508014F8073B50D460021114B0191D3F880410646B0
S31508014F9004F00304022C13D0032C0CD0012C13D1DA
S31508014FA001A8FFF789FF10240EB1019B336005B1F3
S31508014FB02C6002B070BDFFF747FC07240190F3E7A8
S31508014FC0FFF73EFC0190EFE70C46EDE70080005045
S31508014FD0002337B50193154B0546D3F820320C4605
S31508014FE003F00703013B032B1ED8DFE803F0020E8B
S31508014FF01318002101A8FFF791FF12230DB1019A99
S315080150002A6004B1236003B030BDFFF71DFC0723F6
S315080150100190F3E7FFF75AFC0A230190EEE7FFF741
S315080150205BFC09230190E9E70023E7E700800050CC
S3150801503038B5104B0546D3F840310C4603F0030347
S31508015040022B0BD0032B0DD0012B0FD1FFF73EFC02
S315080150500A2305B1286004B1236038BDFFF73CFC7B
S315080150600923F6E7FFF735FC0C23F2E70023184678
S31508015070EFE700BF00800050002337B50193164BB8
S315080150800546D3F860320C4603F00703013B032BB0
S315080150901FD8DFE803F0020E1914002101A8FFF753
S315080150A00BFF10230DB1019A2A6004B1236003B0E6
S315080150B030BD002101A8FFF7BBFF1123F2E7FFF777
S315080150C0C3FB07230190EDE7FFF7BAFB0223019023
S315080150D0E8E70023E6E700BF00800050002337B564
S315080150E00193164B0546D3F894320C4603F0070391
S315080150F0013B032B1FD8DFE803F0020E1914002128
S3150801510001A8FFF7D9FE10230DB1019A2A6004B14F
S31508015110236003B030BD002101A8FFF789FF1123E1
S31508015120F2E7FFF791FB07230190EDE7FFF788FB0D
S3150801513002230190E8E70023E6E700BF008000505C
S3150801514038B5134B0546D3F800320C4603F007036E
S31508015150013B032B18D8DFE803F0020A0E12FFF70A
S31508015160B5FB0A2305B1286004B1236038BDFFF7F2
S31508015170B3FB0923F6E7FFF7ACFB0C23F2E7FFF7CE
S3150801518031FB0F23800AEDE700231846EAE700BF43
S315080151900080005038B5134B0546D3F808320C4643
S315080151A003F00703013B032B18D8DFE803F0020AD3
S315080151B00E12FFF78BFB0A2305B1286004B12360A1
S315080151C038BDFFF789FB0923F6E7FFF782FB0C23B6
S315080151D0F2E7FFF707FB0F23800AEDE700231846DE
S315080151E0EAE700BF0080005038B5104B0546D3F8F2
S315080151F040320C4603F00303022B0BD0032B0DD0D0
S31508015200012B0FD1FFF762FB0A2305B1286004B110
S31508015210236038BDFFF760FB0923F6E7FFF759FB63
S315080152200C23F2E700231846EFE700BF0080005081
S3150801523038B5104B0546D3F860310C4603F0030325
S31508015240022B0BD0032B0DD0012B0FD1FFF73EFB01
S315080152500A2305B1286004B1236038BDFFF73CFB7A
S315080152600923F6E7FFF735FB0C23F2E70023184677
S31508015270EFE700BF0080005070B5054614460E469C
S3150801528000F01CFF296881EA040202EA06044C4080
S315080152902C60BDE8704000F015BF0000B0F5207F16
S315080152A01FD009D8B0F5007F15D003D868B1B0F57D
S315080152B0C07F0AD000200CE0B0F5607FFAD10B4B15
S315080152C0D3F88000C0F3011003E0084B186FC0F350
S315080152D0033001307047054BD3F89000C0F30460E2
S315080152E0F7E7024B186FC0F38020F2E70080005001
S315080152F002464FF48030104B10B598660020FFF730
S31508015300CDFF504341F671320C4BDC69DA635A68BA
S3150801531004F4803422F4401259B9094988428CBFF1
S315080153204FF480100020104358600CB10022DA6354
S3150801533010BD0449F2E700BF009000500000035079
S31508015340005A6202002D310108B5FFF75DFABDE882
S3150801535008400021FFF7CCBF430905D0012B0DD02A
S31508015360022B094B18BF002300F01F0041B103F5BA
S315080153708053012202FA00F018607047034BF3E7E5
S3150801538003F50053F5E700BF6880005064800050BC
S315080153901FB5002280280446019200F0BA8048D839
S315080153A0002800F0BA80A0F120043D2C54D83D2CE9
S315080153B052D8DFE814F0B200BE00B200BE00D70032
S315080153C0D700D700D700D700BE00E1005B00F70081
S315080153D081005B00BE00BE00BE00510051005100B5
S315080153E051005100510051005100BE00BE00BE00DF
S315080153F089000101BE0051005100510051005100C0
S315080154005100510051005100510051005100510005
S31508015410D700B200B200B200FC005B005B000601D7
S3150801542098006C00DC0051005100510051005100F8
S31508015430A900B0F5B06F00F09F802DD8B0F5207F98
S3150801544077D00CD8B0F5C07F67D0B0F5007F67D0AC
S31508015450B0F5807F00F09580019804B010BDB0F5D5
S31508015460607F6CD00DD8B0F5407FF5D1FFF7BAF95A
S3150801547002464FF42070FFF711FFB2FBF0F0400827
S3150801548049E0B0F5806F6DD0B0F5A06FE4D1002189
S3150801549001A8FFF79DFDDFE7B0F5106F00F08780E3
S315080154A017D8B0F5E06F00F087800AD8B0F5C06F5D
S315080154B078D0B0F5D06FCFD1002101A8FFF740FE13
S315080154C0CAE7B0F5F06FC7D1002101A8FFF7B0FE12
S315080154D0C2E7B0F5406F4AD013D8B0F5206F70D047
S315080154E0B0F5286FB8D10021384B0391D3F8703243
S315080154F003F00303012B02D103A8FFF799FD039BD0
S3150801550049E0B0F5486FA7D1002101A8FFF7E6FDEC
S31508015510A2E7FFF74DF901909EE7FFF763F9FAE76E
S31508015520FFF746F902462046FFF7B8FEB2FBF0F050
S31508015530F1E7FFF757F902464FF42070F4E7234BDA
S31508015540D3F8803003F00303012B04D0022B06D0D5
S315080155504FF46070E8E7FFF72BF90246F8E7FFF723
S3150801556073F9FAE7002101A8FFF7A6FC74E7002101
S3150801557001A8FFF7D3FC6FE7002101A8FFF700FD9B
S315080155806AE74FF0E02302921B695B0705D5FFF72F
S3150801559029F90290029B01935EE703A902A8FFF786
S315080155A047FDF7E7002101A8FFF742FD54E700216F
S315080155B001A8FFF7EFFD4FE7002101A8FFF714FE49
S315080155C04AE7002101A8FFF757FD45E7008000508B
S315080155D008B58020FFF7DCFE034B98429EBF4FF4C7
S315080155E08032024B1A6708BD005A620200A00050B9
S315080155F01FB50023B0F5807F019300F0C38064D8FE
S315080156005D2855D84C2807D82D2847D823282BD8C4
S31508015610019805B05DF804FB4D381028F8D801A3A8
S3150801562053F820F07B570108115601081156010855
S31508015630115601082D57010811560108115601087E
S31508015640195801084B570108F15601080F58010866
S31508015650115601081156010811560108115601087B
S31508015660115601082358010824380928D0D801A35E
S3150801567053F820F07B5701087B5701087B5701082F
S315080156807B5701087B570108115601087157010814
S31508015690115601080D570108B15701083D2800F0B8
S315080156A082803E28B4D1002001A9FFF79DFDAFE70E
S315080156B08028ADD1604B1B6F03F00703013B032B19
S315080156C0A6D8DFE803F05350878FB0F5F06F6AD09C
S315080156D021D8B0F5B06F4BD00FD8B0F5607F00F088
S315080156E0858095D3B0F5806F47D0B0F5A06F8FD17F
S315080156F0002001A9FFF76CFC8AE7B0F5D06F57D0F7
S31508015700B0F5E06FCFD0B0F5C06F81D1002001A907
S31508015710FFF78EFC7CE7B0F5206F7DD00BD8B0F58E
S31508015720086F4AD0B0F5106F7FF472AF002001A957
S31508015730FFF730FD6CE7B0F5406F68D0B0F5486FFC
S315080157406FD0B0F5286F7FF463AF00213A4B039110
S31508015750D3F8703203F00303012B67D0022B14BF71
S315080157600B46152300E00523019351E70223FBE7C6
S31508015770002001A9FFF704FC4AE7002001A9FFF769
S315080157809BFB45E702934FF0E0231B695B0705D5B1
S31508015790FFF728F80D230393039BE5E703A902A85E
S315080157A0FFF746FCF8E7002001A9FFF741FD2FE7BF
S315080157B0002001A9FFF7C4FC2AE71F4BD3F80031E3
S315080157C003F00303022B07D0032B09D0012B0BD1BE
S315080157D0FFF71EF80323C7E7FFF77EF80923C3E798
S315080157E0FFF72CF80823BFE70123BDE7124AD2F8D1
S315080157F0802002F00302012A05D0022AB4D1FFF75C
S3150801580023F80723B0E7FEF7D3FF0E23ACE7002002
S3150801581001A9FFF783FBFBE6002001A9FFF72CFC92
S31508015820F6E6002001A9FFF759FCF1E603A8FFF700
S31508015830FFFB112398E700BF0080005008B5FFF76A
S31508015840D7FE092811D00A38012811D84FF4800249
S31508015850094B4FF6FF705A6603F5D8335B6A13F0A6
S31508015860010F18BF4FF4FA7008BD044B1888FBE7FF
S315080158704FF6FF70F8E700BF00900050BE120020F7
S3150801588038B504468020FFF7B3FE032800F083806D
S315080158904FF48012504B4FF0A0615A6645F60E033D
S315080158A04E4AC2F880304E4B99624FF4803103F567
S315080158B080539962916D11F48031FBD1D4E90003CB
S315080158C01B0543EA0063E07B0343207B43EA00436D
S315080158D0607B43EA0033A07B43EA80131361906936
S315080158E0D4E904531B0643EA856300F000400343E9
S315080158F0A07EE57E0343207E43EA0043607E43EAB9
S3150801590000239361E069136A00280CBF002208226C
S3150801591023F00F0343EA000343EA850343EA02033C
S315080159202E4A304D136237D194F82430916A94F88F
S315080159302000DB000D4043EA401394F821102B4365
S3150801594043EA011343F480339362274B916D33EA9B
S315080159500101FBD14FF08071214881621369A56865
S3150801596023F4700343EA055313614FF0004383613F
S3150801597094F822300BB91D4B996294F823301BB960
S315080159804FF48032194B9A6294F825301BB1134BA8
S31508015990174AC3F8802038BD022808D11161154875
S315080159A091614FF408524FF47F41FFF765FC0B49AB
S315080159B094F822308A6A94F820001B06154043EAB7
S315080159C0401394F824202B4343EAC20394F8232076
S315080159D043EA02438B62D7E7009000500040005A21
S315080159E00050005AC7FFFEFE030001000060005A7E
S315080159F0F1A7FFFF3440005A014B93F900007047A5
S31508015A00BC120020F0B5D0E901434FF400061A4A4A
S31508015A104178057856664FF4D156022702F5B83211
S31508015A205662164E4F2977604FF0010728BF4F215E
S31508015A3006F5805677601669F603FCD441EA052116
S31508015A4051611B01417B43EA04230B43017B43EA72
S31508015A5041039360C37B817B1B0143EA4113417C6C
S31508015A600B43017C43EA41035360837C13B16FF412
S31508015A70D1535362F0BD00BF009000500010025090
S31508015A80014B1880704700BFBE1200204FF48002F8
S31508015A9008B5184B5A660223174A5360936813F4DC
S31508015AA08033FBD1012822D1FEF7B2FE134B98426F
S31508015AB015D003F5122303F5F863984213D0104B5A
S31508015AC000EB8002400AB3FBF0F0520A0A4BDA6295
S31508015AD0012218635A620022074B5A6008BD45F62F
S31508015AE07A10084AF2E745F61A00074AEEE75362C2
S31508015AF0F1E700BF009000500040025000F0490253
S31508015B0064666666D8B80500BBCF05000029CCBF18
S31508015B1001210021FFF7ECBBB0F5207F10B50C463B
S31508015B2057D008D8B0F5007F48D003D830B3B0F5C0
S31508015B30C07F23D010BDB0F5607FFBD129492A4823
S31508015B40D1F8FC2012F080721EBFD1F8FC3023F088
S31508015B508073C1F8FC30D0F88030611E23F0300420
S31508015B6044EA0114C0F88040002AE3D01D4AD2F85D
S31508015B70FC3043F08073C2F8FC30DBE7FFF7E4FB47
S31508015B8000F036F84FF48031184B174A1967136F2E
S31508015B90611E23F4704444EA01341467FEF722FEB9
S31508015BA00446FFF77DF9C0F102012046FFF7AEFF73
S31508015BB000F024F8BDE81040FFF70ABD0A4A01398A
S31508015BC0D2F8903023F0F85444EA0164C2F89040C0
S31508015BD0B0E7054B013C196F21F4806141EA842441
S31508015BE01C67A7E700ED00E0008000500090005018
S31508015BF002214FF42070FFF78FBF000008B54FF45C
S31508015C00C070FFF7C5FBBDE80840044988428CBF50
S31508015C10022101214FF42070FFF77EBF80F0FA02BE
S31508015C20B0F5807FF8B50C4600F04E816BD85D283B
S31508015C305DD84C2804D82D2844D8232828D8F8BD5F
S31508015C404D381028FBD801A353F820F0A95E0108A6
S31508015C503F5C01083F5C01083F5C0108A35D010840
S31508015C603F5C01083F5C01085D600108DB5D0108D6
S31508015C70335D01083D6001083F5C01083F5C01088E
S31508015C803F5C01083F5C01083F5C01087D60010833
S31508015C9024380928D3D801A353F820F0A95E0108AE
S31508015CA0A95E0108A95E0108A95E0108A95E0108A5
S31508015CB03F5C0108895E01083F5C0108695D0108CE
S31508015CC0775F01083D2800F046813E28B7D1093C97
S31508015CD0032C8CBF0021B04BB04A98BF195DD2F88E
S31508015CE0403223F003030B43C2F84032A7E780286A
S31508015CF0A5D18B1E062B00F2C480DFE803F0BFADE9
S31508015D00C27EC2C2BC00B0F5F06F00F024813BD858
S31508015D10B0F5B06F00F0B8801BD8B0F5607F00F021
S31508015D2067818CD3B0F5806F00F0BE80B0F5A06FA7
S31508015D3085D1073C0B2C8CBF0021994B974A98BFFC
S31508015D40195DD2F8203223F007030B43C2F820323B
S31508015D5075E7B0F5D06F00F00E81B0F5E06FB6D0FB
S31508015D60B0F5C06F7FF46BAF093C032C8CBF0021E3
S31508015D708C4B8A4A98BF195DD2F8403123F0030348
S31508015D800B43C2F840315AE7B0F5206F00F066813F
S31508015D9017D8B0F5086F00F01B81B0F5106F7FF4C6
S31508015DA04EAF093C062C8CBF00217F4B7B4A98BF1E
S31508015DB0195DD2F8083223F007030B43C2F80832FB
S31508015DC03DE7B0F5406F00F03981B0F5486F00F056
S31508015DD05581B0F5286F7FF432AF112C00F05E8142
S31508015DE0152C14BF002102216C4AD2F8703223F017
S31508015DF003030B43C2F8703221E7002502264FF44C
S31508015E0080370121022000F0C7F9FFF79DFAFFF755
S31508015E10EFFE664B614A1F67136F23F0070333438F
S31508015E201367FEF7DFFC0646FFF73AF8C0F10201F1
S31508015E303046FFF76BFE0121002000F0EDF9FFF770
S31508015E40DDFEFFF7C5FB002D7FF4F9AE032C7FF4C9
S31508015E50F6AE574B9F62F2E64FF48012534B0E464D
S31508015E605A664FF48032534B9D6A03F58053C5F346
S31508015E7000659A62C3E700250426C0E700250126C6
S31508015E80BDE700252E46BAE7023C0E2C8CBF002141
S31508015E90494B424A98BF195DD2F8803123F0030372
S31508015EA00B43C2F88031CAE6023C052C8CBF00219F
S31508015EB0424B3A4A98BF195DD2F8203123F00703BD
S31508015EC00B43C2F82031BAE6A1F10904082C3FF6C2
S31508015ED0B6AE01A353F824F0FD5E0108FD5E010884
S31508015EE03F5C0108FD5E01082B5F01083F5C010864
S31508015EF03F5C01083F5C0108FD5E01084FF48032F2
S31508015F00264B2F49586E03F580535A664B6A43F060
S31508015F1001034B62C1035CBF2A4B5A664FF0E0226C
S31508015F20136923F00403136189E64FF480321B4B8E
S31508015F302349586E03F580535A664B6A23F00103C9
S31508015F404B62C3035CBF1F4B5A664FF0E0221369CD
S31508015F5043F00403E7E7093C032C8CBF00211A4BE5
S31508015F600E4A98BF195DD2F8603123F003030B433B
S31508015F70C2F8603163E6093C062C8CBF0021134B3D
S31508015F80064A98BF195DD2F8003223F007030B437E
S31508015F90C2F8003253E600BF9D5A0508008000503A
S31508015FA0B85A05089D5A0508A15A050800900050D7
S31508015FB00060005A0040005A885A0508975A050891
S31508015FC000C0075000A000509D5A0508A15A0508AF
S31508015FD0CC1E062C8CBF0021314B324A98BF195D65
S31508015FE0D2F8003123F003030B43C2F8003126E649
S31508015FF02D49063CD1F8FC2012F080721EBFD1F85B
S31508016000FC3023F08073C1F8FC30082C8CBF0020CB
S31508016010264B244998BF185DD1F8803023F0030335
S315080160200343C1F88030002A3FF409AE1E4AD2F86C
S31508016030FC3043F08073C2F8FC3000E6023C052CC4
S315080160408CBF00211A4B174A98BF195DD2F828311F
S3150801605023F007030B43C2F82831F0E5023C0F2C65
S315080160608CBF0021134B0F4A98BF195DD2F86032D5
S3150801607023F007030B43C2F86032E0E5023C0F2C1C
S315080160808CBF00210C4B074A98BF195DD2F8943290
S3150801609023F007030B43C2F89432D0E50121A3E6A6
S315080160A0A85A05080080005000ED00E0AF5A05081F
S315080160B0975A0508C45A0508C45A0508EFF310800B
S315080160C072B6704700B962B67047EFF31180302394
S315080160D083F31188704780F311887047054B42098D
S315080160E053F8223000F01F0023FA00F0C04300F0F5
S315080160F00100704700E100E0024A536B0342FCD1FC
S31508016100704700BF00400950044A4178536F23F491
S31508016110407343EA01235367704700BF00400050AC
S31508016120704770470A4A10B51369044643F00403D9
S31508016130136103F0BDF8FFF7F3FF30BFFFF7F1FF77
S3150801614003F0CAF81CB9BDE81040FEF74BBB10BDF9
S3150801615000ED00E0084A10B51369044643F004034C
S31508016160136103F0A5F830BF03F0B6F81CB9BDE812
S315080161701040FEF737BB10BD00ED00E070477047D1
S31508016180034A0179D36E23F030030B43D366704774
S315080161900040005070470000F8B504461C4BD3F880
S315080161A08420D106FBD4D3F88430C3F381139C42EF
S315080161B02CD0FEF7FDFA012C064602D12146FFF73F
S315080161C0A5FCFFF77BFF4FF00072124B07465A6694
S315080161D02046FFF7DFFF4FF480630D4D621E9340A3
S315080161E02B676B6E9A0103D4D5F884309B060AD5C2
S315080161F03846FFF767FF022C08D13046BDE8F8405C
S315080162000021FFF783BCD5F88430EAE7F8BD00BF63
S31508016210004000500060005007B518B90191FEF71B
S31508016220C7FA0199064B1B7843B1064B984205D824
S31508016230012003B05DF804EBFFF7AEBF0220F8E7D3
S31508016240DC210020005A62020278034B012100205A
S315080162501A70FFF7E1BF00BFDC2100204FF00042B2
S31508016260154B10B55A664AF6CD3314494C6C0B6476
S3150801627004F0010488B90120FFF73EFF4B68DB07EC
S3150801628004D50F4B58600B6BD807FCD514B10B4BD3
S315080162900C4A1A6434F0D3FB10BD0B6B1A07FCD4F5
S315080162A02022074B9A620122A3F580535A60034ABA
S315080162B0936A9B06FCD5E9E7009000500040095017
S315080162C0006009503254FFFF4FF0004238B5164BB3
S315080162D001465A664AF6CD33144C154A656C236451
S315080162E043780B205B0043F00103D363FFF704FFF8
S315080162F063688A7823F4F87343EA02136360CA78F9
S315080163004B7943EA0223A3600A798B7943EA02238C
S3150801631023610878FFF7A2FFEB0744BF054B236407
S3150801632034F08DFB012038BD009000500040095023
S31508016330004000503254FFFF4FF00042124B70B537
S315080163405D6E03F580535A664AF6CD3304460F4906
S3150801635080204E6C0B64FFF7CFFE0B6A23F00F0308
S315080163600F2C94BF234343F00F030B62F30744BF7B
S31508016370074B0B64002DA2BF4FF00042054B5A662E
S3150801638034F05DFB70BD00BF00800050004009502D
S315080163903254FFFF00A000504FF00042104B70B579
S315080163A05D6E03F580535A664AF6CD3304460D49A8
S315080163B080204E6C0B64FFF79FFE0B6A23F4F8539B
S315080163C043EA04230B62F30744BF074B0B64002D12
S315080163D0A2BF4FF00042054B5A6634F030FB70BD40
S315080163E000800050004009503254FFFF00A00050C1
S315080163F0436D0B42FCD1704708B54368DA0714D5DB
S315080164008368DB0702D50369D90707D50A23502113
S315080164108363FFF7EDFF836C9A07FCD1012200F530
S3150801642000535A6043689B07FCD408BD38B50C462F
S315080164300121024600F58053596004F00F0540F624
S31508016440FF71FFF7D5FF78218563FFF7D1FF04F0C8
S315080164500103610748BF43F00203916C01F0030190
S315080164609942FAD138BD000010B5FFF7C5FF0423DC
S3150801647000F5805100F500520B6113610B61136140
S315080164800B6113610B611361202341F20201036160
S315080164900023C360836041614FF4A0218361836552
S315080164A041620549C36103628362C362436303654B
S315080164B0D164036310BD00BFFF3F0D0309B9FFF7A0
S315080164C09BBFFFF7B3BF836C5A06FCD54164836C47
S315080164D01B06FCD5C06B80B270470000F8B50546AF
S315080164E01446084641B9344B9D422FD0334B9D4241
S315080164F008BF5720FEF74CFFAB68DE072ED5B0FB69
S31508016500F4F46E68013C16F0010625D028212846C8
S31508016510FFF76EFFAB6C99071AD1AB6CDA0719D482
S31508016520AB6C13F0020F0CBF002706272846FFF7AE
S3150801653063FF286920F07F4040EA04642C61DEB1DC
S3150801654039462846BDE8F840FFF7B8BF5620D1E7D7
S315080165500527EBE70927E9E73746EAE76B68AB6DF5
S31508016560AF68DB0707F0E00748BF6400402F1BD080
S3150801657003D8DFB1202F1BD0F8BD602F1AD0802F8A
S31508016580FAD1012604FB06F34101B1FBF3F30C4AE8
S31508016590203B02EAC30228460121FFF729FF2A63A5
S315080165A0BDE8F840FFF724BF0626EBE71026E9E722
S315080165B00826E7E70426E5E70000015B00000A5024
S315080165C0F8FF7F00436870B504460D460E691BB196
S315080165D040F6FF71FFF70CFF2046FFF745FF2269DA
S315080165E06B7BA97B22F087020B43134343F080039D
S315080165F0236116B32A692369117823F0F8030B433B
S31508016600117F43EAC113117943EA4113517A43EAE7
S315080166100113D17B43EA81132361E168D2E905308D
S3150801662021F0F04121F4702103430B43117B527B86
S3150801663043EA812343EAC233E360A368EA7B23F092
S315080166400303134343F00103A3602EB32A69A16828
S31508016650538803F4C0430B43A3605179A36843EA03
S315080166608123A3609379D079616A1B01000203F043
S31508016670700300F4E06021F4772121F4EE6103430D
S315080166800B43117A527F090301F4E04112040B43CB
S3150801669002F470221343636263692A7B23F00F03B2
S315080166A013436361B6B12B695A89A2615A7B3AB120
S315080166B01D4A944224D19A7B1C4902F00F024A676B
S315080166C0DA7B3AB1184A944224D11B7C174A03F063
S315080166D00F031367D5E901122046FFF7FFFE0521CF
S315080166E02046FFF7A3FE2821FFF782FE2B78A36336
S315080166F0FFF77EFEA36CDB4313F4405FFAD170BD4E
S315080167000B4A944201BF9A7B084902F00F02C1F86D
S315080167108020D5E7064A944201BF1B7CA2F5CE220A
S3150801672003F00F03D367D5E70000015B0090035020
S3150801673000000A5070B5054614460E46FFF7BEFC22
S31508016740296881EA040202EA06044C402C60BDE885
S315080167507040FFF7B7BC0000072AF7B501F003063A
S3150801676014461F464FF003012CD89500A94000FA9C
S3150801677005F21C480191FFF7DDFF01991A4806FA4F
S3150801678005F2FFF7D7FF194B19499DF82000002F8D
S3150801679008BF1946012303FA04F40C60154B164980
S315080167A0002808BF0B461C60144B9DF82400C3F84B
S315080167B020441031A3F6DC33002808BF0B461C60C1
S315080167C003B0F0BDA2F10805AD00A94000FA05F233
S315080167D00B480191FFF7AEFF01990A4806FA05F23F
S315080167E0CFE700BF00C4035008C4035010E40350A8
S315080167F010D4035014D4035014E4035000E003509A
S3150801680004C403500CC403502DE9F04105460F4654
S315080168101E4690464AB101233022194C8B4002FB91
S3150801682000443EB304F5825423600F21072F05EB7C
S31508016830450388BFA7F108044FEA0313114895BF1A
S31508016840BC00A40004330C3308FA04F2A14018442E
S31508016850FFF770FFB8F1000F0AD101213020084A6D
S3150801686001FA07F700FB05223EB102F582521760CD
S31508016870BDE8F08104F50154D6E702F50152F6E7C1
S3150801688000C0035030C003504FF48032054B9A665E
S3150801689041F6713203F51C33DA63012203F500531D
S315080168A0DA6070470090005041F671320121064BBB
S315080168B0DA6303F50052D1600022DA634FF48032BD
S315080168C0A3F518339A66704700000350436813B955
S315080168D0416070475B685A68012AFBD15960704765
S315080168E0836813B9816070475B685A68012AFBD1CE
S315080168F059607047C369032B9FBF00EB83020133BD
S31508016900D160C3617047C369042B15D84FF098420B
S31508016910116CC902FCD504339B0013650168103B51
S31508016920116041680C30116050F8041C0344116071
S315080169304FF09842984200D1704750F8041B1160F5
S31508016940F8E700004FF48032064B5A6603F5E62352
S315080169509B69C3F38512827003F03F021B0B4270D9
S31508016960037070470090005040F6B732064B5B68DB
S315080169709BB293429FBF4FF47A72B3FBF2F3034A79
S31508016980D05C88BF002070470080E00FD45A050804
S3150801699070B5054616461C4621B94FF42070FEF718
S315080169A0F7FC0146402C1BD003D8DCB1202C1BD0A8
S315080169B070BD602CFCD1042303FB06F2560806EBD6
S315080169C04113B3FBF2F3094A203B02EAC303AA685F
S315080169D022F06002AA60AA681443AC60EB61E7E79B
S315080169E00623E9E71023E7E70823E5E7F8FF7F0031
S315080169F0012200F580535A60CB43934003F00A0302
S31508016A004361416111B900F50050426070470000C9
S31508016A10012100F5805310B5596040F6AA6341F289
S31508016A20050243610023094C8360C365C26000F512
S31508016A3000520361C361C3649464054C8365A04233
S31508016A4004BF03654365516010BD00BFFFFF010028
S31508016A5000C0055070B50D46FFF7DAFF012300F5B2
S31508016A6080567360AB7C04461BB1836843F0804350
S31508016A708360EB7C5BB1244B9C4202BF2A7DA3F564
S31508016A801033C3F8C821E36D43F08003E3652A8A0E
S31508016A906B7B20461343EA891343E3602B7BD5E9D5
S31508016AA00112FFF775FF6B7D1BB1A36843F48033B1
S31508016AB0A360AB7D1BB1A36843F40043A360EB7DE0
S31508016AC02A7E1B07120502F4E00203F0E043134392
S31508016AD0A3656B7E9A1E012A4FF0020209D80B495B
S31508016AE0032BC1F8202709D10423F3652B786361A9
S31508016AF070BD0749012BC1F82027F4E7042204F5E4
S31508016B000053DA65F2E700BF00C0055000D0035014
S31508016B1000E0035083691B06FCD5406AC0B2704782
S31508016B2083695B06FCD5C16370470000054B9A680B
S31508016B309107FCD45A689207F9D4DA69002AF6D182
S31508016B40704700BF00800A5008B5FFF7EFFF012222
S31508016B50024B03F580514A601A6108BD00800A504C
S31508016B60074B5A68012A0AD15A68D20702D5DA6947
S31508016B70002AF9D102221A610122024B5A60704792
S31508016B8000800A5000A00A5010B5064CFFF7CEFF48
S31508016B906368012B03D1FFF7E3FFFFF7C7FF03780C
S31508016BA0E36010BD00800A50E8B94A680B7812B153
S31508016BB0127843EAC2034A78002A14BF0222002245
S31508016BC013438A6812B1127843EA82138A78002A33
S31508016BD014BF042200221343CA6812B1127843EA89
S31508016BE04223014A9364704700800A5008B9014B51
S31508016BF05964704700900A5008B9014B59647047A7
S31508016C0000A00A5008B9014B1964704700A00A5040
S31508016C1010B9024B186C70470020704700800A5063
S31508016C2048B911B1012903D07047044BD86C704794
S31508016C30024B186D70470020704700BF00800A504C
S31508016C4040B911B1012903D07047034BDA64704783
S31508016C50014B1A65704700BF00800A5038B50446D3
S31508016C60054D33F012FF0FCC0FC594E8030085E8F4
S31508016C700300002038BD00BFE021002047F6FF735E
S31508016C809A42F0B563D0022963D8334BCF0003EBA0
S31508016C90C10013F831108478012913D10025C3786E
S31508016CA01B1B9D4202D3E018C0B2F0BD591B4668B2
S31508016CB0A3EB510136F911609642D4BF0D4601F195
S31508016CC0FF33EEE740680028EFD0B0F90010914293
S31508016CD004DBB0F902109142B8BF114682883B44E1
S31508016CE0FF2A19BFC8222826B0F90620B0F908607C
S31508016CF0A2EB01020CBF0125002592FBF6F25F7893
S31508016D002A447B1E934228BF13464FF47A7E00EB32
S31508016D10C305AE68EA88AC4611FB02621E4622EA42
S31508016D20E272013302F5FA729F42B2FBFEF204D90E
S31508016D30BCF80CC008359445EBD200EBC600808838
S31508016D40904228BF1046A04238BF2046ACE7FF2034
S31508016D50ABE70020A9E700BFE02100200229F0B532
S31508016D6053D82B4800EBC10410F831106368012988
S31508016D700FD1E078A478904294BFC4EB0001C4EB2C
S31508016D800201001BCAB28242C8BF002233F91200AF
S31508016D90F0BD002B39D0A178914202D3B3F9020094
S31508016DA0F6E7E178B3F900009142F1D99988647858
S31508016DB0A1F1FF06013C714203F10405E4B27141F8
S31508016DC003F10C071FFA82FCCEB2B44216D805EBC2
S31508016DD0C1014FF47A756A43B1F902404968521AFA
S31508016DE004EBD47102EB610292FBF4F29042CFDB21
S31508016DF0B3F902009042CBDC10B2C9E737F831E0AB
S31508016E004E1CE645E3D33146DEE70248C0E700BF3C
S31508016E10E02100200080FFFF0148FFF71FBF00BFE8
S31508016E20D85A050800487047C01200207FB50222CB
S31508016E30084B0949CDE901234FF00073CDE9031346
S31508016E40072301A94FF0FF30059333F09FFE07B0E2
S31508016E505DF804FB006A180000020600704700206E
S31508016E60704700207047000010B54FF42F720021BB
S31508016E7004463BF032F88023C4F88C30044B04F105
S31508016E809C00636001232372BDE81040FDF75EBDD7
S31508016E90545B050810B5D0F8A0400A4674B900F04D
S31508016EA0BDFC044640B12D2896BF074B074953F848
S31508016EB02010074800F0EAFF204610BDD0F8A410BC
S31508016EC01046A0470024F7E7005C0508575B05084C
S31508016ED0655B0508012310B50372437A04465BB165
S31508016EE000F044FE204604F10901FFF7D3FF2046CE
S31508016EF0BDE8104000F02FBD10BD0000037870B545
S31508016F0004460BB1002070BDFFF7ABFF0028F9D18D
S31508016F1001232370237A23B120726168144800F093
S31508016F20B5FF4FF0FF36D4F8B4526A1C18D0C4F82E
S31508016F30B4622046FFF792FF2046E9B200F050FE00
S31508016F400028F0D02046FFF7C5FF207A28B16168EE
S31508016F50074800F09BFF0020207200232370D2E728
S31508016F6000F079FF431C0546E3D10120F5E700BF90
S31508016F70395D050838B50D460446FFF775FF6B6898
S31508016F802046C4F8B032A96800F00EFB4FF0FF3373
S31508016F902046C4F8B432FFF762FF38BDD0F8B432E0
S31508016FA010B50133044601D0002010BD00F053FF8F
S31508016FB0C4F8B4020130F7D194F8B80280F00100A0
S31508016FC0F3E708B5FFF79AFF08BD0000F8B50B7897
S31508016FD00546302B0E46174604D14B7803F0DF03DE
S31508016FE0582B12D02A49721E12F8014F002C38D19B
S31508016FF00A22214630463BF0BFFA202D03460A46AF
S3150801700034D1631A5842584117E04A1C204912F8EC
S31508017010013F9BB930463BF071F91E4B02382B40B4
S31508017020032B15D16B1C48BF2B1D9B1083420BD11B
S31508017030B07837288CBF00200120F8BD5B5C13F0BF
S315080170404403E4D11846F8E7CCBF01200020F4E751
S31508017050002DB8BF0335B0EBA50FD4BF0120002022
S31508017060EBE7635C13F00403BED1EBE727B10843F2
S3150801707002D0013B61F10002012000FA05F5013D4C
S315080170801D40002A08BF9D4218BF0020D5E700BF52
S31508017090A9BC0508030000800A7801382D2A0ABF11
S315080170A0012200228918FFF791BF000070B5037805
S315080170B07B2B16D10546022100220B4E15F8014FEE
S315080170C07D2C05D1435C63B9D04300F0010070BD46
S315080170D0A35D13F0440302D001320131EEE7202CFF
S315080170E0FBD00020F3E700BFA9BC0508072805D88F
S315080170F0DFE800F0060A0D1013151A17002070476D
S3150801710000220820FFF762BF00221020FAE70022BA
S315080171102020F7E70820FFF7BFBF1020FBE7202054
S31508017120F9E70846FFF7C2BF012070472DE9F74383
S3150801713007280C46DDE90A7690461D4608D8013827
S3150801714006280AD8DFE800F01D27303A44574A00D6
S31508017150212850D003B0BDE8F0830022204611460D
S315080171603BF086FA3368C0B205EB83013A6845F805
S315080171702300013348F8221033603B6801333B6032
S31508017180E8E70022204611463BF072FA336880B2DE
S3150801719005EB8301EAE70022204611463BF068FA2F
S315080171A0336805EB8301E1E70022204611463BF0EF
S315080171B043F9336840B205EB8301D7E7002220463D
S315080171C011463BF039F9336800B205EB8301CDE787
S315080171D00022204611463BF02FF9E1E700238946B4
S315080171E01E461D468DF8063019F8013F7D2B06D13E
S315080171F025702D0A65703B6848F82340BDE7202BAA
S31508017200F2D006F00102013612B98DF80430EBE727
S315080172101022002101A88DF805303BF00DF96319FC
S3150801722001359870ADB2DFE72DE9F04F9B46002393
S3150801723085B08B45814688469246CDE902336BDC9B
S315080172401A461E4619F80340FF2C08D15B4496B12D
S31508017250013B43455CDD2B2005B0BDE8F08FA4F169
S315080172602001012905D9103C072C98BF01220133B9
S31508017270E8E70126FBE742B1013B4345EBDC35462E
S315080172803746454504DB0020E6E79845F7D0E2E7AF
S315080172905D453BDB19F80730202B18D109EB0703AD
S315080172A05B78FF2BD7D1CEB920465AF82510FFF7C0
S315080172B01DFF98B303AB019302AB00932046DDE9AA
S315080172C00E235AF82510FFF731FF0135D9E7212B8F
S315080172D00ED109EB07035B78FF2BBCD1029B5AF849
S315080172E025200E99012641F8232001330293ECE764
S315080172F0A3F11004072C02D91C460137D3E709EB81
S3150801730007035B78FF2BA6D1E4B2CCE70624CAE7CC
S3150801731000252F462E46B4E721209DE726209BE728
S315080173202DE9F04F07460E4615469846044685B0A0
S31508017330DDF84490DDE90FAB206808B3DAF80020E0
S31508017340D8F800108A421BDA0E9B53F82210FDF773
S3150801735037FB48BBDAF800200132CAF80020626818
S31508017360117BFE291BD10E9B1068012100932A4629
S315080173704346CDE902B9CDF804A0FFF7D1FF04468B
S315080173802B7843B999F800302BB97EB101233C46D5
S3150801739089F800302B70204605B0BDE8F08F01232F
S315080173A08BF800302B70EBE70C34C5E73446F2E76F
S315080173B070B506460D463AF0A1FF0446304600F080
S315080173C065FD044EAC4200D370BD304600F05EFD4B
S315080173D00134F7E7DB5905082DE9F84F0446022180
S315080173E05048FFF7E5FF1E212068FFF7E1FF6368B4
S315080173F0586800F04BFD4C4800F048FD67683B7B38
S31508017400FD2B12D8D7F808804FF0FF3640463AF0E0
S3150801741075FF0546DFF80C91DFF86CA1DFF844B17A
S315080174200C3717F8013BFF2B01D1BDE8F88F212B4B
S3150801743017D8212B33D8DFE803F06D736F11181AAB
S315080174401C1E323232323232323220222426282A85
S315080174502C2E32323232323232326930334C1DB34B
S315080174601FE0FE2B5AD0324CF9E7324CF7E7324C83
S31508017470F5E7324CF3E7324CF1E7324CEFE7324CA1
S31508017480EDE7324CEBE7324CE9E7324CE7E7324CB1
S31508017490E5E7324CE3E7324CE1E7324CDFE7244CCF
S315080174A005B10136202BBCD002214846FFF780FFE3
S315080174B01E214846FFF77CFF504600F0E7FC594677
S315080174C020463AF011FF2849002818BF21462748C7
S315080174D000F0DCFC3B78202B02D12B2000F0CAFC03
S315080174E0234800F0D3FC4DB118F806301F2B05D000
S315080174F018F806001F2801D0AE4203DB0A4800F03F
