S01A0000766F6963655F636F6E74726F6C5F6C696768742E733337ED
S3150800000000100020A11000089D1000089D1000088F
S315080000109D1000089D1000089D1000089D100008FE
S315080000209D1000089D1000089D1000089D100008EE
S315080000309D1000089D100008FB7F00089D10000811
S315080000409D1000089D1000089D1000089D100008CE
S315080000509D1000089D1000089D1000089D100008BE
S315080000609D1000089D1000089D100008F90A000858
S31508000070050B00089D1000089D100008B51B000818
S315080000809D1000089D1000089D1000089D1000088E
S315080000909D100008AD3300089D1000089D1000084B
S315080000A09D1000081D0400089D1000089D100008FA
S315080000B09D1000089D1000089D1000089D1000085E
S315080000C09D1000089D1000089D1000089D1000084E
S315080000D09D1000089D1000089D1000089D1000083E
S315080000E09D1000089D1000089D1000089D1000082E
S315080000F01D8500089D1000089D1000089D10000829
S315080001009D1000089D1000089D1000089D1000080D
S315080001109D1000089D1000089D1000089D100008FD
S315080001209D1000089D1000089D1000089D100008ED
S315080001309D1000089D1000089D1000089D100008DD
S315080001409D1000089D1000089D100008279F0008B4
S315080001509D1000089D1000089D1000089D100008BD
S315080001609D1000089D1000089D1000089D100008AD
S3150800017010B5054C237833B9044B13B1044800E095
S3150800018000BF0123237010BD781100200000000075
S315080001906C6F020808B5034B1BB10349034800E01E
S315080001A000BF08BD000000007C1100206C6F02082B
S315080001B0A3F5803A704700BF174B002B08BF134BB7
S315080001C09D46FFF7F5FF00218B460F461348144A54
S315080001D0121A16F052FB0E4B002B00D098470D4B07
S315080001E0002B00D098470020002104000D000D4880
S315080001F0002802D00C4800E000BF16F0DFFA200005
S31508000200290000F01AF816F045FA00BF00000800A9
S3150800021000000000000000000010002078110020F7
S31508000220BC5E0120000000000000000008B500F0D8
S31508000230EBFABDE8084000F083BB08B509F090FE6C
S31508000240FFF7F4FF09F099FE002008BDC0E9001287
S3150800025000220372009BC360019BC0E9043100F1D0
S31508000260180300F5D4711A601A715A719A71DA7105
S3150800027008338B42F7D1032380F8B0314FF000439F
S31508000280C0E96A22C0F8B43170470000F7B50C7FA0
S31508000290099F092C0ED101AEB64600244D6995F882
S315080002A008C064450DDA0D692D5D0134803D0EF8F0
S315080002B0015BF6E71F49006810F03EF8012003B01D
S315080002C0F0BD00210C460D46614507DA16F801EB2C
S315080002D0A645C4BF4DB274460131F5E790F8B0C1E2
S315080002E0ACF1020101291FD9D0F8B411B1F1004FC0
S315080002F01AD0511ACE1790F808E0A64518DA6545BF
S3150800030007D1D0F80CC04FEAEC7E8C457EEB06018F
S315080003100EDAC0F8B421012280F8B0513A701D7087
S31508000320089B00201C70CAE76FF000410026E2E730
S315080003300022F3E76496010870B5490086B0022AE0
S315080003400C9CADF80410ADF80620DDE90A650BD063
S31508000350042A0DD0012A12D10293ADF80C6001A926
S3150800036001F0A8F806B070BD0295ADF80C40F6E7A6
S315080003700293ADF80C600495ADF81440EFE76FF002
S315080003800300EFE72DE9FF4D0646884617469A46CD
S315080003904FF496750024DFF834B0013D10D30C9B5A
S315080003A03246CDE901A35321434658460097FFF745
S315080003B0C3FF041E04D0F0DA15B103480AF0C8FDDD
S315080003C0204604B0BDE8F08DA196010800800650CD
S315080003D02DE9FF4D0646884617469A464FF4967508
S315080003E00024DFF834B0013D10D30C9B3246CDE92A
S315080003F001A36021434658460097FFF79DFF041E58
S3150800040004D0F0DA15B103480AF0A2FD204604B07C
S31508000410BDE8F08DA1960108008006502021064B04
S3150800042003F50052C2F82014042203F540531A6754
S315080004300122024B1A70704700C003509411002025
S315080004401FB517238DF80C30002302228DF80D10E6
S3150800045004460093012003A9FFF7BAFF021E04DA37
S3150800046040F231110C480AF05FFD18238DF80C3064
S3150800047000230222012064F05F04009303A98DF88B
S315080004800D40FFF7A5FF021E04DA40F23B110248B1
S315080004900AF04AFD04B010BDBF9601081FB5002337
S315080004A001228DF80A308DF80B30009204200DF1E8
S315080004B00B030DF10A01FFF78BFF021E04DA4FF456
S315080004C0A4714F480AF030FD9DF80B104D480AF00C
S315080004D02BFD13238DF80C3029238DF80D300023BE
S315080004E002220120009303A9FFF772FF021E04DA15
S315080004F04FF4AA7142480AF017FD14238DF80C3000
S3150800050089238DF80D30002302220120009303A9C8
S31508000510FFF75EFF021E04DA40F25D1138480AF062
S3150800052003FD15238DF80C300023022201200093C9
S3150800053003A98DF80D20FFF74BFF021E04DA4FF4CE
S31508000540B3712F480AF0F0FC16238DF80C300023FF
S3150800055002220120009303A98DF80D30FFF738FF1A
S31508000560021E04DA40F26F1125480AF0DDFCB021BC
S315080005700120FFF765FF00210E20FFF761FF00212C
S315080005801E20FFF75DFF70211D20FFF759FF202170
S315080005901F20FFF755FF00211120FFF751FF70219B
S315080005A01020FFF74DFF20211220FFF749FF0823EF
S315080005B08DF80C30002302220120009303A98DF840
S315080005C00D30FFF705FF021E04DA40F28D110C48C4
S315080005D00AF0AAFC09238DF80C3000230222012018
S315080005E0009303A98DF80D30FFF7F2FE021E04DA18
S315080005F040F2971102480AF097FC05B05DF804FB33
S31508000600BF960108CF9601082C2300B589B08DF84E
S315080006100F3018238DF81C3006238DF81D30002363
S3150800062002220120009307A9FFF7D2FE021E04DA70
S315080006304FF4D47122480AF077FC02230122009372
S31508000640042004AB0DF10F01FFF7C2FE021E04DA07
S3150800065040F2AF111A480AF067FC22238DF80F30D2
S31508000660022301220093042005AB0DF10F01FFF7C9
S31508000670AFFE021E04DA40F2B91111480AF054FC22
S3150800068024238DF80F30022301220093042006ABA1
S315080006900DF10F01FFF79CFE021E04DA40F2C311AA
S315080006A007480AF041FCBDF81830BDF81420BDF81B
S315080006B0101004480AF038FC09B05DF804FB00BFC6
S315080006C0BF960108E29601081FB540F62D03ADF85E
S315080006D00C30002302220120009303A9FFF752FEE3
S315080006E0021E04DA40F2D71134480AF01DFC2E2304
S315080006F08DF80C30002302220120009303A98DF8FF
S315080007000D30FFF73FFE021E04DA4FF4F0712B4856
S315080007100AF00AFC24238DF80C3006238DF80D30D8
S31508000720002302220120009303A9FFF72BFE021ED5
S3150800073004DA40F2E91121480AF0F6FB27238DF87E
S315080007400C3040238DF80D3000230222012000933F
S3150800075003A9FFF717FE021E04DA4FF4F9711748CA
S315080007600AF0E2FB2E238DF80C3010238DF80D309D
S31508000770002302220120009303A9FFF703FE021EAD
S3150800078004DA40F2FB110D480AF0CEFB2F238DF850
S315080007900C30EF238DF80D30002302220120009340
S315080007A003A9FFF7EFFD021E04DA4FF401710348AF
S315080007B00AF0BAFB05B05DF804FB00BFBF96010856
S315080007C07FB532238DF80F300623012200930420CB
S315080007D004AB0DF10F01FFF7D5FD021E04DA40F256
S315080007E03A2107480AF0A0FBBDF81430BDF81220DC
S315080007F0BDF8101003480AF097FB07B05DF804FB34
S31508000800BF960108FA96010808B5FFF75DFFBDE82F
S315080008100840FFF743BE08B5FFF7D2FFBDE808401A
S31508000820FFF7F2BE80B53F488AB00AF091FB3E4812
S315080008300AF08EFB0FF096FB3C4CD4E88F3FDB07A3
S3150800084012D4204614F05DFE70B10FF063FC4FF42D
S315080008507A7203230146CDE900233548A023FFF722
S31508000860F5FC204614F059FE314B324E324F3360B8
S3150800087004F02AF801210446084608F0AFFC204691
S3150800088004F026F800242D4D06AB00220193082318
S31508000890114600931046C82307F028FA9DF8183029
S315080008A01BB1B921384600F0FFFC0FF0A3FA0FF090
S315080008B03DFC0FF049FB18B90FF032FC12F072FA42
S315080008C08DF815408DF816408DF8174009F0A4F9F3
S315080008D009F0B4F9D6F8008003900FF02DFC0DF15D
S315080008E0170301930DF11603014600934046039A38
S315080008F00DF11503FFF7CAFC0028C5D19DF817307E
S31508000900002BC1D09DF815302BB9284600F0E5FD1F
S31508000910FFF781FFB8E7012BB6D1284600F0E0FDC6
S31508000920B2E700BF0E970108239701089811002027
S31508000930341A00209C1100203E970108D097010820
S3150800094070B596B00FAA1546154B03F1180614464E
S3150800095018685968083303C4B3422246F7D11B788E
S31508000960022223700BAB089300234FF40071CDE9E4
S3150800097006323322CDE902210A4ACDE9043301922F
S315080009801422294600920848084A06F0A7FE9DF850
S315080009902C301BB19F21064800F086FC16B070BDAE
S315080009A05897010834120020A011002025080008D5
S315080009B03E970108704708B50321802003F0A4FC80
S315080009C003214FF4806003F09FFC09214FF4C060B7
S315080009D003F09AFC09214FF4F06003F095FC092115
S315080009E03E2003F091FC09212D2003F08DFC0921FE
S315080009F0512003F089FC002008BD08B507F0AEFCBD
S31508000A0000F0BEF807F036FC07F0C6FC07F05AFC03
S31508000A1007F08EFCFFF7CFFF07F042FC00F0A2F8C4
S31508000A2005F07AFA05F07AFABDE8084008F0A6BBA0
S31508000A3005F0A8BA08B500F015F800F027FEBDE8DD
S31508000A40084000F061B808B500F064F808F0F0FF57
S31508000A5007F0A4FCBDE8084000F04CB870470FF05A
S31508000A60D1BB000008B53A20012102F0D7FFBDE846
S31508000A700840014800F060BC0410002030B5184C4E
S31508000A809BB006AD0FCC0FC594E80F0085E80F00A4
S31508000A902C2200210FA815F0F0FE124B02AD0E9382
S31508000AA001238DF83D30562310930523139306230F
S31508000AB01034159394E80F0085E80F000A4B294671
S31508000AC000930A480EAB06AA07F014FE044618B1AE
S31508000AD06921074800F0E8FB20461BB030BD00BF7F
S31508000AE0A09701080000015BEC1B0020C81C002031
S31508000AF071970108FFF7C2BF014B186807F010BFCE
S31508000B00C81C0020FFF7F8BF014800F0E3BC00BF8F
S31508000B10D09701080F207047082808B504D00FDCC5
S31508000B20022809DC002809DD012304220921022004
S31508000B3004F0F2FC002008BD0428F5D09F2106E049
S31508000B402028F1D0402807D01028F7D1882104485A
S31508000B5000F0AAFB0E20EEE7012304220821E6E7AF
S31508000B60802D020808B501213A2002F057FFFFF749
S31508000B7021FF4020FFF7D0FFBDE8084000F0F8B994
S31508000B8001213A2002F04ABFF0B54B1E012B074659
S31508000B900E468BB07CD83F4D01AC0FCD0FC40FCDA0
S31508000BA00FC42B6801213A20236002F037FF012188
S31508000BB0292002F033FF002301220421022004F039
S31508000BC0ABFC002304220521022004F0A5FC042224
S31508000BD000230621022004F09FFC05238DF804302B
S31508000BE001238DF818304FF44073012E01A92A48C5
S31508000BF04FEA871708BF8DF82360ADF820300397B2
S31508000C0005F0C0F80D22254B1A62254A1A6302F52B
S31508000C1080325A6302F580325A6202F04DFB002197
S31508000C20204802F019FB044618B1012420460BB0EF
S31508000C30F0BD1D4A012ED37823F03C0343F034035C
S31508000C40D370D37C23F03C0343F03403D37412D11E
S31508000C500146164802F000FB0028E6D1144AD3786C
S31508000C6023F03C0343F03403D370D37C23F03C03D6
S31508000C7043F03403D3740F4B0F4A1E7000231370CE
S31508000C800E4A13700E4A137001220E4B1A70CDE7E6
S31508000C902124CBE7DC2D020800C0055000C703500D
S31508000CA002000400F41C00201C100020F81C002080
S31508000CB03C100020FE1C0020FF1C0020181D0020F0
S31508000CC0FD1C0020FC1C0020184B73B51B78002B5C
S31508000CD028D0174D2C783CBB164A174E1168174872
S31508000CE013693140014311603340154903431548E0
S31508000CF09160136191610094134B1449006802F0E6
S31508000D000FFB134B1B78012B07D11248009423467F
S31508000D10114A1249006802F003FB012300202B70D8
S31508000D2002B070BD1120FBE70220F9E7FC1C002089
S31508000D30FD1C00201C1000200F80FFCFF07F003024
S31508000D400C1D0020F41C0020310E00085C10002049
S31508000D50FE1C0020F81C00203C1000206C1000200F
S31508000D60184B2DE9F0411B7804460D4616461BB371
S31508000D70154B1B7813BB154F3B78FBB9DFF8608022
S31508000D8098F800304B43B3F5006F19D8104B1B7811
S31508000D900BB9FFF799FF98F800000E4B68431860E7
S31508000DA00D4B1C6004EB40045C600C4B00201E607D
S31508000DB001233B70BDE8F0811120FBE70220F9E72B
S31508000DC02120F7E7FC1C0020FF1C0020181D00202E
S31508000DD0FD1C0020041D0020101D0020F01C002012
S31508000DE0FE1C002010B50C4C237893B10B4B1868E9
S31508000DF002F0BCFA0A4B1B78012B03D1094B186881
S31508000E0002F0B4FA0020084B20701870074B1870CF
S31508000E1010BD0220FCE700BFFD1C0020F41C0020CA
S31508000E20FE1C0020F81C0020FF1C0020181D0020B6
S31508000E30F8B53B4D2B78002B42D03A4811F0010FFC
S31508000E4000F1100308BF1946374E384B32681C6844
S31508000E5018BF0146A2422CD2CB786FF30513CB708C
S31508000E60334B1B6803EB42038B60A31AB3F5006F81
S31508000E700B8817D940F2FF7402F5006264F30E136B
S31508000E800B803260C37803F03003302B08D1C37C63
S31508000E9003F03003302B03D100232B70FFF7A2FF9A
S31508000EA00120F8BD671EBA1A62F30E130B80346070
S31508000EB0E8E70A681F4B13430B601F4B8B60E1E79B
S31508000EC01E4B1B78002BEBD0C943164801F00103D3
S31508000ED000EB0314E2781D01C2F30112032A0FD1B5
S31508000EE0124A46591268013AC2F30A01144A3240B4
S31508000EF042EA01124251134A52F82330A360CFE75F
S31508000F00114A1268002ACBD01049084809780068A7
S31508000F10B0FBF1F10B4850F823009047C0E700BF3B
S31508000F20FF1C00201C100020081D0020041D0020A6
S31508000F30001D0020F07F00300C1D0020181D002029
S31508000F400F80FFCF101D0020F01C0020FE1C002083
S31508000F500122024BC3F8A020704700BF00D00350FF
S31508000F600122024BC3F8A020704700BF00E00350DF
S31508000F7070B5454C8EB0264601AD0FCE0FC5336809
S31508000F8014342B6006AD0FCC0FC594E80F0085E826
S31508000F900F0001213A2002F041FD0121572002F0FD
S31508000FA03DFD4FF48073394DADF81C30384B28465B
S31508000FB0039301A906AB059304F052F90123042211
S31508000FC00321022004F0A8FA022100230846012280
S31508000FD004F0A2FA012304221946022004F09CFA1E
S31508000FE0042200210123022004F096FA294C2A4BF8
S31508000FF04FF44870C4F8C8344FF00213C4F8C43428
S3150800100003F58033C4F8CC341C23C4F8B43408F090
S31508001010B7FF1420FFF7A4FF08F0B2FF2320FFF75D
S3150800102097FF08F0ADFFB9212846FFF799FF03F0AF
S315080010306EFEFFF78DFF002303211A46022004F0F7
S315080010406BFA002302211A46084604F065FA0123C2
S3150800105000221946022004F05FFA002201231146F5
S31508001060022004F059FA284603F0E6FD002157202D
S31508001070C4F8C814C4F8C414C4F8CC14C4F8B41416
S3150800108002F0CCFC0EB070BD002E020800000A501B
S31508001090E070720000C0035002000100FEE7000085
S315080010A008B500F02DF8124B12498B4212D30020D6
S315080010B0114B12498B4218D3FFF77EF8186850F87F
S315080010C02240586840F82240013298688242F5D397
S315080010D00C33EAE70022F8E71C6844F822000132DC
S315080010E05C68A242F8D30833E4E70022F8E700BFB9
S315080010F0746F0208806F0208806F0208806F02080A
S315080011004FF480414FF0FF30114B124A10B59A60E8
S31508001110D3F8882042F47002C3F888200E4A9166F4
S315080011200E4901F5005210660D4850660220C3F8B4
S31508001130D000BFF34F8FBFF36F8F01244FF44033B6
S315080011400848C0F88041D36004600B6110BD00BF39
S3150800115000ED00E000000008009000500080004408
S31508001160F7FF370000E100E0014B1868704700BF41
S3150800117080100020084B1B6F03F00703022B04D0D6
S31508001180032B05D0012B05D0FEE7044B18687047E2
S31508001190034BFBE70348704700800050801000208F
S315080011A084100020002D310108B5FFF7E3FF054B39
S315080011B01B6FC3F303330133B0FBF3F0024B186024
S315080011C008BD00BF008000507C1000200048704712
S315080011D000B4C404014B1868704700BF841000208F
S315080011E0054B1860054B1B6F03F00703032B01D152
S315080011F0FFF7DABF704700BF841000200080005058
S315080012000020704700487047002D31014FF0B44365
S315080012109868C0F304400C2822D8DFE800F00921BA
S3150800122021212121071719211B1D1F000F4870476F
S315080012309B6803F04073B3F1807F13D0B3F1007F4E
S3150800124012D00B4A002B08BF104670470948704752
S315080012500948704709487047094870470948704760
S31508001260002070470848704708487047405DC60028
S3150800127000093D000024F400C0EA210180BA8C016F
S315080012800048E801005A620280841E0040420F00AE
S315080012904FF4004070474FF47A707047014B186856
S315080012A0704700BF88100020FEE7002303607047E0
S315080012B038B504460D4601B118B937210348FFF77A
S315080012C0F3FF23682B60256038BD00BF342E020863
S315080012D038B504460D4601B118B978210548FFF717
S315080012E0E3FF23681BB1AB4202D12B68236038BDEC
S315080012F01C46F6E7342E02081FB5144652B16A4654
S3150800130006F09CF920609DF80000003818BF0120FF
S3150800131004B010BD0120FBE705490A681318054803
S3150800132083428CBF4FF0FF320B601046704700BFF8
S315080013308C100020000004202DE9FF47044618B948
S315080013402C215848FFF7B0FF2368B3F1B64F0AD0EF
S31508001350554A934200F083804221524804B0BDE8C2
S31508001360F047FFF7A1BF2E20012102F057FB01230A
S315080013700A226179207904F0CFF801230A22E1795B
S31508001380A07904F0C9F809260127DFF82081DFF8DB
S315080013902091257994F805A0002D62D0012D62D000
S315080013A0022D62D0032D04D13F2323FA0AF3DA076C
S315080013B004D440F2FE314046FFF776FF302202FBA6
S315080013C0059507FA0AF305F501552B60642008F020
S315080013D0D7FD257994F805A0002D49D0012D49D0CF
S315080013E0022D49D0032D04D13F2323FA0AF3DB0744
S315080013F004D440F22D414046FFF756FF302202FB47
S31508001400059507FA0AF305F5825564202B6008F05E
S31508001410B7FD013EBDD12068B0F1B64F2FD10323E9
S31508001420C9F8E8346279237943EA0243C9F8EC3407
S31508001430E279A37943EA0243C9F8F03440F201138A
S31508001440ADF80030E36869460293A3680193237CEC
S315080014508DF80C3004F040F904B0BDE8F0872F2071
S3150800146082E7FF23A1E70F239FE740F2FF339CE7BC
S31508001470FF23BAE70F23B8E740F2FF33B5E70A4B75
S315080014809842DBD10323C9F8F8346279237943EA11
S315080014900243C9F8FC34E279A37943EA0243C9F85E
S315080014A00035CBE7842E020800800650DC2E0208A1
S315080014B000C0035038B5054604F052FA044C01281A
S315080014C001D1013C00D138BD284604F037F9F6E7CA
S315080014D0E1930400D0E900031847836800681847B9
S315080014E0C36800681847000038B50D460446B0B111
S315080014F0012816D0022816D0032803D13F23EB4033
S31508001500DB0704D440F2FE310848FFF7CDFE302051
S3150800151001214443064B01FA05F51D5138BDFF2349
S31508001520EDE70F23EBE740F2FF33E8E7DC2E02088E
S3150800153040E0035038B50D460446B0B1012816D030
S31508001540022816D0032803D13F23EB40DB0704D437
S3150800155040F22D410848FFF7A7FE302001214443F9
S31508001560064B01FA05F51D5138BDFF23EDE70F239C
S31508001570EBE740F2FF33E8E7DC2E020840D00350E1
S3150800158010B5044601213A2002F048FAA3782078DB
S31508001590B3FA83F3042261785B0903F0BDFF0020E8
S315080015A010BD034659789B7800780BB9FFF79CBFA6
S315080015B0FFF7C0BF034659789B7800780BB9FFF749
S315080015C0B9BFFFF791BF000038B504784578ACB1CC
S315080015D0012C15D0022C15D0032C03D13F23EB4048
S315080015E0DB0704D44FF489610848FFF75DFE302312
S315080015F001225C43064BAA401A5138BDFF23EEE789
S315080016000F23ECE740F2FF33E9E700BFDC2E0208C0
S3150800161040F0035070B5057804464678E5B1012DCB
S315080016201CD0022D1CD0032D03D13F22F240D30734
S3150800163004D44FF483610C48FFF736FE102330229A
S3150800164012FB0535094BEB58F34003F00100A3786C
S315080016500BB980F0010070BDFF22E7E70F22E5E72E
S3150800166040F2FF32E2E700BFDC2E020830C003502A
S31508001670044B054A043850F8041F43F8041B9342E8
S31508001680F9D170476400005D7801005D10B5084C1B
S31508001690237A53B9E360074B236001F0C1FD4FF489
S315080016A00042054B1A6001232372002010BD00BFBB
S315080016B0901000207116000800E100E0092370B5BB
S315080016C00C460546084EC0F81031336901333361BC
S315080016D001F0B4FD21462846336898470CB101F05D
S315080016E0AFFD002070BD00BF9010002001F0A8BD1E
S315080016F00729F8B505460C4610EE107A10EE906AE2
S3150800170003D9BC210448FFF7CFFD05EB840325F870
S3150800171024705E80F8BD00BF2A2F020807EE903AB3
S31508001720F8EEE70A07EE902AB8EEE70AF3EE600A43
S31508001730B3EE400AFFF7DCBF07EE902A40F200033B
S31508001740B8EEE70A00EE903AB3EE400AFFF7D0BFCC
S3150800175040F2000300EE903AFFF7CABFF3EE600AC4
S31508001760B3EE400AFFF7C4BF2DE9F84F0429074630
S315080017700C4693469946BDF82880BDF82C60BDF8FE
S315080017803050DDF838A003D9D7213248FFF78CFD51
S31508001790B8F5806F03D9D8212E48FFF785FDB6F531
S315080017A0806F03D9D9212B48FFF77EFDB5F5806FE9
S315080017B003D9DA212748FFF777FD0D9B03F5006368
S315080017C0B3F5805F03D3DB212248FFF76DFD0AF5E9
S315080017D00063B3F5805F03D3DC211E48FFF764FD81
S315080017E00F9B03F50063B3F5805F03D3DD2119482A
S315080017F0FFF75AFD184B0F99013E013D03EA0A4AC5
S3150800180003EA0141C6F30906C5F3090507EB041205
S3150800181046EA0A060D439662D5620D9A08F1FF3824
S3150800182003EA02434FEA093202F440521343C8F36B
S31508001830090843EA0803023419F0040F07EB0412F7
S3150800184018BF43F480432401536047F804B0BDE849
S31508001850F88F00BF2A2F02080000FF0F30B50124B9
S31508001860002587B0CDE904540395BDF828500094A7
S31508001870CDE90145FFF778FF07B030BD70B5012403
S31508001880002686B0BDF82C50CDE90454CDE90256A1
S31508001890BDF82850CDE90045FFF766FF06B070BDD4
S315080018A02DE9F041072904460E4615461F469DF8C0
S315080018B0208004D940F21F110B48FFF7F5FCDDE93B
S315080018C006320C2101FB06411343C1F8B070C1F87A
S315080018D0B4302A05B8F1000F03D1C1F8B820BDE825
S315080018E0F08142F00042F8E72A2F02082DE9F0417C
S315080018F0072906460C46154698469DF8187004D9D9
S3150800190040F231112148FFF7CFFC013DABB2B3F5E8
S31508001910806F04D34FF499711C48FFF7C5FCB8F1E2
S31508001920070F04D940F233111848FFF7BDFC072FFB
S3150800193004D94FF49A711548FFF7B6FC0C20079A9C
S3150800194004F10E0345EA023500FB0862B84546F87D
S3150800195033504FEA4404D2F8B85007D1032101FAAC
S3150800196004F42C43C2F8B840BDE8F0810123A34033
S315080019702B43C2F8B830022300FB076603FA04F4C7
S31508001980D6F8B8302343C6F8B830EDE72A2F020850
S3150800199037B50446D0F87002062804DD0AB12123BB
S315080019A0136003B030BD4B1EB3F5806FF6D2002529
S315080019B00130C4F87002CDE900558AB22B46C1B28F
S315080019C0D4F86802FFF792FFD4F87022D4F8683288
S315080019D002F10E0103EBC1035D60D4F87832D4F846
S315080019E07402591C9333C4F8781244F8232001234F
S315080019F004EB8004520003FA02F2D4F82C321343A3
S31508001A00C4F82C32CDE74FF0FF332022C0E99C33CF
S31508001A10C0F87832002100F50A7014F02EBF30B5F0
S31508001A20D0F8744285B0062C099D04DD0DB121233A
S31508001A302B6005B030BD00250134C0F8744202950C
S31508001A40089DCDE900351346D0F868020A46E1B28A
S31508001A50FFF726FFEDE72DE9F0430429BDF81C50F2
S31508001A60BDF82060BDF82470DDE90ACEDDE90C84F6
S31508001A7004D90CB121232360BDE8F083B5F5806F46
S31508001A8014D8B6F5806F11D8B7F5806F0ED80CF557
S31508001A900069B9F5805F09D20EF50069B9F5805F6E
S31508001AA004D208F50069B9F5805F03D3002CE3D0AA
S31508001AB02823E0E7CDE90BE8CDE9097CCDE907560F
S31508001AC0BDE8F043FFF750BE30B589B00D9C002540
S31508001AD0069401240395CDE90454BDF830500094CA
S31508001AE0CDE90145FFF7B7FF09B030BDD0F8783228
S31508001AF010B503F1920150F821400221D0F8742262
S31508001B00640000EB820201FA04F4D2F82812013BC1
S31508001B102143C2F82812C0F8783210BDF8B5002162
S31508001B200C250446D0F8743200F50A76DFF854C05E
S31508001B30D0F868028B4217DA05FB030393F8BB203B
S31508001B40002142F0800283F8BB20FFF7B7FD4FF46F
S31508001B508A72D4F86C3283F00103C4F86C3202FB43
S31508001B600343C4F86832F8BD05FB0107D7F8B82067
S31508001B7056F804EB02EA0C0242EA0E02C7F8B8204D
S31508001B800131D7E70000FFFF0023C0E99A03704739
S31508001B90D0F8783210B5933350F82340D0F868322D
S31508001BA0033103EBC403186F890002FA01F10843F5
S31508001BB0186710BD4FF0BA4210B5D469136A1C40B5
S31508001BC0E1070DD50121124BD961124B50691968ED
S31508001BD00144196091695A680A445A6001F032FB57
S31508001BE0620308D54FF48022094BDA61094A136863
S31508001BF003F180731360230308D54FF40022044BC6
S31508001C00DA61044A536803F18073536010BD00BF5C
S31508001C100020005D1C1D00202DE9F04F174687B0F7
S31508001C2004460D46984601F00FFB17F1800F06464D
S31508001C3002D1B8F17F0F04D0A02D11D82544A542B2
S31508001C4002D107B0BDE8F08F94F900309F4202DD5B
S31508001C5027700134F3E79845B8BF84F80080F8E7A1
S31508001C604FF0000940F20A2A3B463A460021304620
S31508001C70FFF754FD4346424601213046FFF74EFD25
S31508001C804B464A4649463046CDE90199CDF800A06B
S31508001C90FFF706FE40F20B232F4A0121CDE9003259
S31508001CA0304640F2D5122D4BCDF80890FFF7F8FDD7
S31508001CB001212B4B40F2D512CDE9013130460221E4
S31508001CC0284BCDF800A0FFF7EBFDB5F5006F2B46C6
S31508001CD028BF4FF4006323F0030B4FEA5B0A1FFA91
S31508001CE08AFA2246002130460593CDF800A005233E
S31508001CF0FFF7B4FD2246052301213046CDF800A0A2
S31508001D00FFF7ACFD0223059A002130460093C2F383
S31508001D108F020123CDF80490FFF7E8FDA5EB0B052C
S31508001D2001213046FFF7CAFC9F2D5C44CDD845B14A
S31508001D30254414F9013B9F4208DD04F8017CA542BD
S31508001D40F7D107B0BDE8F04FFFF7D0BC9845B8BF4C
S31508001D5004F8018CF3E700BF0000A021000102206F
S31508001D600000B021000103302DE9F04F2DED068B60
S31508001D70436CD1B02B93836D05463393436D90ED39
S31508001D80178A3493036DD0F840801D93C36C90F87E
S31508001D90487010938368C66B3593036B1791369317
S31508001DA0C36A379340F20003ADF83A31836940932A
S31508001DB000234F9301F04CFA04462FB91D9B109A45
S31508001DC013431CBF21234F93339B012B02D1349B12
S31508001DD0012B01D021234F93179B73B1DDE93532CF
S31508001DE01343379A33431343DB0706D521234F930F
S31508001DF098217748FFF758FA05E04F9B169353B199
S31508001E00179B002BF4D14F9B1693169851B0BDEC37
S31508001E10068BBDE8F08F2046FFF7B6FE2B68D5ED9A
S31508001E20188A38936B68002E0E936B69BAEEE88AA7
S31508001E300B93EB68B3EE488A2C932B6911936B6B63
S31508001E401E93AB6B1E9A1293EB692D932B6A139311
S31508001E502C9BA3EB0203109A134493FBF8F34393CA
S31508001E60DDE91132A3EB02031D9A13442B9A93FB67
S31508001E70F2F3139A44930B9B02FB03F319930E9BFD
S31508001E80129A02FB03F32093209A1E9B02FB03F38C
S31508001E90119A25930E9B02FB03F30E9A22932B9B12
S31508001EA002FB03F34593229B119A03FB08F346931F
S31508001EB0229B03EBD3734FEA63034993259B03EBFA
S31508001EC0D3734FEA63034A93209B03EBD3734FEA1A
S31508001ED063034B93BDF82C301A9308BF01233F9335
S31508001EE00DF59D7318BF33460AEE903A2C9B534363
S31508001EF00E9A5343139A4C932D9B53430B9A534371
S31508001F003E93169B0D9340F2002309EE103A0D9B63
S31508001F10139A934214DB179B002B3FF476AFFFF717
S31508001F20E5FB2D9B38990B985943139B95F924206B
S31508001F30594395F928304143A869FFF76DFE64E7D0
S31508001F400D9B2B9A1D995A431D9B1298D31A8A1AD0
S31508001F5022EAE2721492119A1499D21A9042D4BFC4
S31508001F60C1EB0001C1EB0201002B2DDB0D98449E4D
S31508001F70129F9742D8BF30462690269A0D98121A75
S31508001F80013209920E9A4A4314992E92339A01FB0A
S31508001F9002333C932E9B099903EBD3735B1047934B
S31508001FA0DDE945320129D8BF13462A9303EBD373DB
S31508001FB05B10489300230A930A9B2D9A934209DBE8
S31508001FC0269B01330D93A2E70D9A2692D5E700BF0B
S31508001FD07C2F02080A9B109A08FB03F3991AD31A56
S31508001FE02C9A1E9823EAE373521A9042D4BFC3EB85
S31508001FF00007C3EB0207002952DB0A9943981E9E85
S315080020009642D8BF01462791279A0A99521A2492CE
S3150800201001321592249A002A52D0099A012A4FDDD4
S31508002020B8454DD03FDD4FF0010AA8EB070B159ACE
S31508002030012A07DD0AFB08F20BEB07018A4201D0E9
S3150800204028224F92159A12995245A8BF5246419294
S31508002050199A02FB0AF23992149A01FB03220E9985
S315080020604A4315993B92099A012AD8BF0A4692B261
S315080020703B993D92369A0A4409EE902A0A9A109993
S3150800208002FB08F2521A349903FB01232F9300230B
S315080020900F930F9B419A934217DB279B01338AE7DD
S315080020A00A9A2792B0E797FBF8F208FB127B92464A
S315080020B0BBF1000FBBD002F1010AA8EB0B0BB6E788
S315080020C04FF0010A4FF0000BBCE70F9B159A93429D
S315080020D0C4BF28234F93249B0F9A01339B1A93FB63
S315080020E0FAF20AFB1233002B18BF0132012A099BA8
S315080020F01F9200F02F82012B08DCBBF1000F01D0E4
S3150800210028234F93CDF830B01B9706E0CDF830B0B2
S315080021100C9B1F9AFB1853431B930C9B2F9A013B4E
S31508002120002B3A93CCBF4FF48773002311990AEE1C
S31508002130103A3C9B01FB02330E9A139953430A9AB1
S3150800214023930F9B13440D9A01FB03230B9A5343C6
S31508002150189300232893289B389A93420ADB0F9BEF
S3150800216001330F932F9B43442F9392E700231B972A
S315080021700C93D2E7399BB3F5006F0ADB199B0AF17A
S31508002180FF39B3F5006F01DB28234F93199B1C9386
S3150800219003E04FF00009399B1C931F9B229A09FB09
S315080021A003334293189B002BBCBF28234F930B9BEA
S315080021B0002BBCBF28234F931C9B002BBCBF282396
S315080021C04F93209B1343259A13432E9A13432A9A17
S315080021D013433B9A1343239A134313F001032193A2
S315080021E000F076812A9B229A3093259B3293209B76
S315080021F031932E9B204629934D92FFF704FC219B91
S315080022000126002B0CBF052301234FAAD4F8680228
S3150800221006924D9ABDF8A4100492309A0291039240
S31508002220BDF86C20309101923D9A23990092359A17
S3150800223005960A4400214D93FFF70DFC4FABCDE9F7
S315080022400563319BBAB20493329B01920393309B88
S3150800225019EE902A02931A9B31460093D4F8680225
S315080022604D9BFFF7F8FB4FAB01933F9B1AEE902A65
S3150800227000930223D4F868021946FFF725FC4FABF2
S3150800228001931A9B03210093379A0223D4F8680214
S31508002290FFF71AFC4FABCDE905630B9B189904931E
S315080022A01C9B409A03931A9B0A440293BDF8243058
S315080022B004210193BDF808310093D4F86802334627
S315080022C0FFF7C9FBB0EE490A0021D4F86802FFF708
S315080022D03FFA219B002B40F00481F0EE480AB0EE4D
S315080022E0480A3146D4F86802FFF702FAB8EEE80A57
S315080022F00026B3EE400A0221D4F86802FFF728FA4E
S3150800230020460B994FAAFFF743FB4FAB41212046C6
S31508002310934A019300964EF62C43FFF780FB20461E
S3150800232009994FAAFFF734FB20461F994FAAFFF7D2
S315080023302FFB394620464FAAFFF72AFB2046299944
S315080023404FAAFFF725FB4FAB40F2CD112046CDE94A
S315080023500063844A844BFFF762FB4FAB40F2D71108
S31508002360824A2046CDE900633346FFF758FB2046EC
S31508002370FFF7BCFB022231462046FFF709FC022282
S3150800238001212046FFF704FC2046FFF7AFFB099B17
S31508002390012B04DC012231462046FFF7F9FB0C9B92
S315080023A0002B04DD022200212046FFF7F1FB219BCA
S315080023B0002B40F09E800C9B4A21023B1C934FAB9E
S315080023C00193219B20460093694A1AEE103AFFF7BB
S315080023D026FB1C9B4FAE013B21931C9B40F2CD1163
S315080023E0002B4FF04F6320460093624ACCBF4FF450
S315080023F0877300230196FFF712FBB9F1000F0FDD73
S31508002400324649462046FFF7C3FA00222046CF2324
S31508002410114601960092FFF702FB2046FFF766FB7E
S315080024204FF000094FAE4B46412120464C4A0196D3
S31508002430CDF80090FFF7F3FA219B012B5CD11946E2
S3150800244032462046FFF7A4FA4B464A4649462046F6
S31508002450CDE90096FFF7E3FA2046FFF747FB02228D
S3150800246049462046FFF794FB2046FFF73FFB02222A
S3150800247004212046FFF78CFB099B012B04DD012272
S3150800248000212046FFF784FB2046FFF72FFB042296
S3150800249020461146FFF77CFB012220461146FFF72E
S315080024A077FB042202212046FFF772FB0422032150
S315080024B02046FFF76DFB2046FFF718FB4F9B002BC6
S315080024C037D0179B002B3FF49EAC40F2FA2190E4DC
S315080024D0489B3093DDE9492332934B9B3193479BC5
S315080024E088E6B0EE480A3146D4F86802FFF730F9B4
S315080024F0FCE63A9B1C936CE7B6DD1C9B3246991E9C
S315080025002046FFF745FA324620460121FFF740FAF2
S315080025104A4649464B462046CDE90096FFF77FFADC
S315080025202046FFF7E3FA022249462046FFF730FB2A
S3150800253092E7179B13B12046FFF7F0FA289B4C9AAF
S3150800254001332893239B134423933E9A189B1344E1
S31508002550189300E6012B7FF709AE00230C93D7E505
S3150800256000000450060001600E7E080006070550AC
S3150800257000000550050302700121FFF7F5BB002195
S3150800258008B5FFF7F1FBB0FA80F0400908BD002056
S31508002590704700002DE9F04F2DED048B82468BB075
S315080025A028B921200BB0BDEC048BBDE8F08FC16AB9
S315080025B021B13621CC48FEF777FEF2E7036A9FED94
S315080025C0CB9A13F0010F14BF4FF480624FF40062E8
S315080025D09A42C0F2DE80049100F036FEDAE90F7BFB
S315080025E0DAED057AB8EEE78ABAF85030DAF82080DC
S315080025F008EE903A0BFB07F318F0010528EE098A56
S31508002600044609EE103ADAF84C900499BFB240F045
S31508002610D08108EBD8764FEA6608C6F34F06CDE9AF
S31508002620007605232946DAF80020FFF727F91FFA6E
S315080026308BF3009305230196DAF81820012120462A
S31508002640FFF71CF9DAF83020002A00F09A80BAF869
S31508002650343000930223194620461FFA8BF6FFF7FB
S31508002660FDF8CDE900760123DAF838200321204663
S31508002670FFF704F9DFED9D0A0021B0EE600A204657
S31508002680FFF76CF8F0EE480AB0EE480A012120463A
S31508002690FFF764F8B0EE680A03212046FFF758F8FA
S315080026A04A4604212046FFF747F84FF0000940F252
S315080026B02D234A46494620460093CDE901994B46C3
S315080026C0FFF7EEF88A4B40F2D71201212046009315
S315080026D0CDE90199874BFFF7E3F840F2D7120221BB
S315080026E02046CDE90199844BCDF80090FFF7D8F83C
S315080026F0002D4BD14A2203212046CDE901557F4BB7
S315080027000095FFF7CDF84FF0040900254FF0010BAF
S315080027107B4B5FFA89F940F2D71249462046CDE944
S31508002720013B0095774BFFF7BBF82B463A462946FF
S315080027302046CDE90095FFF7D9F842F20203324662
S3150800274059462046CDE900932B46FFF7CFF80221DC
S3150800275020231FFA88F2CDE9001320465B46FFF7CF
S31508002760C5F859462046FEF7A9FF19EE101A9AF938
S3150800277053309AF95220DAF83800FFF74DFA00205C
S3150800278010E70123604A0093022364E74FF0030928
S31508002790BBE7069100F058FDDAED057AF8EEE78A10
S315080027A0BAF85030054668EE898A08EE103ADAF823
S315080027B03C30DAF84C20DAF820400893DAF8403052
S315080027C0F0EE490AB0EE490A06990592049309946F
S315080027D0FEF7C4FFF0EE680AB0EE680A0121284643
S315080027E0FEF7BCFF03212846B0EE480AFEF7B0FF05
S315080027F004F0010604212846059AFEF79DFF16BB3C
S315080028004FF0050804EBD47464104FF0010B002751
S31508002810B4F5806F1ADC364B40F2D71200212846F1
S315080028200093CDE90177334BFFF73AF840F2D71218
S3150800283001212846CDE901772F4B0097FFF730F89D
S31508002840D6B1022122E04FF00108DEE700232F4827
S3150800285010F8011B94FBF1F201FB124CBCF1000FBE
S3150800286006D1944201FB0BFB3FF49BAE1446CFE71F
S3150800287001330B2BECD194E602214A222846CDE9F6
S3150800288001661E4B0096FFF70BF803210026012769
S315080028901B4B40F2D7122846CDE901370096194B53
S315080028A01FFA8BFBFEF7FCFF33465A46314628468D
S315080028B0CDE90076FFF71AF82223A4B2CDE9007312
S315080028C02246334639462846FFF710F8CDE905660D
S315080028D0089BB3426ADC089904989AF95330414335
S315080028E09AF9522047E700BFD82F0208000000389F
S315080028F00E7E080006000160060705500000055018
S315080029000000D02305030450483002083D30020871
S31508002910069BDAF8002007991A44DAF818300B44AF
S3150800292008EE903ADAF83030002B3CD033F81730FE
S3150800293008EE103A059B002107EB0309DAF8383050
S3150800294028469944CDE900B44346FEF797FF434627
S3150800295018EE902A01212846CDE900B4FEF78EFF2D
S3150800296001234A46009303212846FEF777FFB0EE77
S31508002970480A05212846FEF7EBFE01212846FEF700
S315080029809DFE079B099A013713440793049BBB4294
S31508002990BEDCDDE9042313440593099A069B013638
S315080029A01344069394E740F20003C1E7002707970C
S315080029B0ECE71FFA88F6CDE900760123DAF800205D
S315080029C0FEF75CFF1FFA8BF300930196012333E6AB
S315080029D058B1031F9FED137A0020DFED136A9FEDB0
S315080029E0136A01EB4202914200D17047D3ED017A96
S315080029F0F8EEE77A67EE877AF4EEE67AF1EE10FA01
S31508002A0003F104030CDCF4EE467AF1EE10FA48BF43
S31508002A102120F3EE677A17EE90CA21F802CBE2E797
S31508002A202120F6E70000003800E07F4700E07FC776
S31508002A3038B50022164B51EC100B12F02DFF10A3DF
S31508002A40D3E9002304460D4613F0B6F970B90EA370
S31508002A50D3E900232046294613F090F958B92046B1
S31508002A60294613F041FD00EE100A38BD47F6FF333C
S31508002A7000EE103AF9E74FF6FF33F9E7AFF30080B7
S31508002A800000000000FCEF400000000000FCEFC062
S31508002A900000E04070B560B3026AD30755BF4FF433
S31508002AA000614FF4806102EBD273134658BF5B1086
S31508002AB091421FDA01220DE00021194E16F8015B3A
S31508002AC093FBF5F405FB143068B9A34205FB02F243
S31508002AD00DD02346B3F5806FEEDCB2F5806FCCBF20
S31508002AE00020012003E001310B29E7D1002000F086
S31508002AF0010070BDC36B013BB3F5806F0DD2036C4B
S31508002B00013BB3F5806F08D2002A06DD406BB0F5AD
S31508002B10806F8CBF00200120EBE70020E9E700BFAB
S31508002B203D3002082DE9F04F2DED048B0368C3B044
S31508002B303393C36890ED098A20930369D0ED088A18
S31508002B400E938369D0F804A02A93C36990F8385085
S31508002B502193036C12911493C36B0F93D0E90C93D2
S31508002B602293C36A2393836A249383682B934369C6
S31508002B702C930023419300F06BFB04462DB9149B5C
S31508002B800F9A13431CBF21234193129B63B1DDE9BE
S31508002B902B321343DB0707D52123419340F26231D9
S31508002BA09848FEF781FB05E0419B119353B1129BB0
S31508002BB0002BF3D1419B1193119843B0BDEC048BC4
S31508002BC0BDE8F08F2046FEF7DFFF249A209B9B1A6C
S31508002BD00F9A134493FBF9F3239A35930E9B9B1A8A
S31508002BE0149A1344229A93FBF2F33693219B03FB20
S31508002BF00AF317930E9B0AFB03F318930AFB02F3D7
S31508002C003793189B189A09FB03F338930E9B09FB15
S31508002C1003F30AFB03F33C93209B5343179A309321
S31508002C202A9B53433D93119B0B934DF6000309EEE4
S31508002C30103A0B9B219A934205DB129B002BBBD0C3
S31508002C40FEF754FDB8E7229A0B9B23995343149A2F
S31508002C509A1A2592149AD31A23EAE373259A159396
S31508002C600E9B9B1A159A9942D4BFC2EB0102C2EB7E
S31508002C7003022D92259A002A1ADB369A0B99239875
S31508002C809842C8BF0A461B920B9A1B9B9B1A03F1D4
S31508002C900108DDE93732B8F1010FD8BF1346299389
S31508002CA000232A9A934206DB1B9B01330B93C0E74A
S31508002CB00B9B1B93E8E709FB03F20F99249D501A17
S31508002CC08A1A209922EAE272091A8D42D4BFC2EB07
S31508002CD00505C2EB01050028099560DB3598249D9A
S31508002CE08D42C8BF18461C901C99C91A1991013102
S31508002CF010911999002962D0B8F1010F5FDD099981
S31508002D00894500F024824CDD4FF0010BA9EB010543
S31508002D101099012907DD0BFB09F10998284481421E
S31508002D2001D02821419110990BF1FF305945A8BFD0
S31508002D305946349117990F9E0BFB01F1B1F5006FB7
S31508002D40B8BF00201F9001303A901098B8F1010FD3
S31508002D50C8BF404680B2319003FB09F0801B02448D
S31508002D60259E159830440E9E06FB02020AFB02F2C7
S31508002D70219828920B9A03FB00230AFB03F3279357
S31508002D80179BB1F5006FA8BF194600231E910D9336
S31508002D900D9B349A934216DB1C9B013381E71C93E7
S31508002DA0A2E70999099891FBF9F109FB11058B46E8
S31508002DB0002DADD001F1010BA9EB0505A8E74FF0F1
S31508002DC0010B0025AFE70D9B109A9342C4BF282339
S31508002DD04193199B0D9A01339B1A93FBFBF20BFB4C
S31508002DE01233002B18BF0132012A169200F0A8816F
S31508002DF0B8F1010F08DC0DB128234193099B0A9508
S31508002E0008E000BF4A3002080A95DDE90932134492
S31508002E10169A53431393169B3A9A53439BB232938B
S31508002E20279B1A93289B269300231D931D9B339A51
S31508002E30934280F27981002365E1099B139300236D
S31508002E400A93E8E71A9A0C9B9B182F9344BF2823EA
S31508002E504193BAF1000FBCBF282341931E9B269AC3
S31508002E60002BBCBF282341930C9B9F180133534565
S31508002E7080F22381189B43EA0A06299B1E431E9B60
S31508002E801E432F9B1E433E43F64306F00106731C62
S31508002E903B939AFBF3F32E93189B721C93FBF2F267
S31508002EA0299B3F92721C93FBF2F11E9B204693FBD3
S31508002EB0F2F33E913993FEF7A6FD002E0CBF0123CF
S31508002EC005232E9AD4F8680205923F9A3E990492F1
S31508002ED0BDF8B42041AE0292BDF84C200391019290
S31508002EE0319A002100922B9A06963A443E93FEF7B1
S31508002EF0B2FD2E9B00270493399B1FFA88F2039391
S31508002F0001230293329B2C9901922F9A00930696DD
S31508002F1005970A443E9B0121D4F86802FEF79BFDFB
S31508002F204DF60003F0EE490A00EE103A3946D4F899
S31508002F306802FEF7DDFBF8EEE80AF3EE600A032105
S31508002F40B0EE600AD4F86802FEF7D2FBF8EEC80ABB
S31508002F50F3EE600A0421B0EE600AD4F86802FEF7C0
S31508002F60C7FB324641462046FEF712FD324620464A
S31508002F701699FEF70DFD3B464FF08052412120463B
S31508002F80CDE90076FEF74BFD324620460999FEF755
S31508002F90FFFC324620462D99FEF7FAFC40F20A233A
S31508002FA040F253116C4A2046CDE90076FEF737FD0C
S31508002FB02046FEF79BFD022239462046FEF7E8FD2D
S31508002FC02046FEF793FDB8F1010F04DC01223946CD
S31508002FD02046FEF7DDFD0A9B002B04DD02220021B8
S31508002FE02046FEF7D5FD0A9B41AA012BA3F102064E
S31508002FF04FF01D6340F2D511CDE900322046CCBF13
S315080030004FF485730023554AFEF709FD1F9B002BD5
S315080030101DDD41AF19463A462046FEF7B9FC3A4649
S3150800302001212046FEF7B4FC002320461A4619461D
S3150800303000930197FEF7F3FC2046FEF757FD0122A1
S3150800304020461146FEF7A4FD2046FEF74FFD002E4A
S3150800305017DD012E41AA32D131462046FEF798FCEB
S31508003060002141AB01930A460B4620460091FEF724
S31508003070D6FC2046FEF73AFD022200212046FEF73E
S3150800308087FD2046FEF732FD022201212046FEF783
S315080030907FFDB8F1010F04DD012200212046FEF76D
S315080030A077FD2046FEF722FD419B23B3129B002B9A
S315080030B03FF480AD40F2D24172E50026E7E60A9B6E
S315080030C02046D91EFEF764FC204641AA0121FEF7D8
S315080030D05FFC002141AB0A460091204601930B464E
S315080030E0FEF79DFC2046FEF701FD02220021204640
S315080030F0FEF74EFDBDE7129B13B12046FEF70EFD07
S315080031000C9B3B9A13440C930C9B5345FFF69AAEC3
S315080031101D9B309A01331D93269B134426933D9A93
S315080031201A9B13441A9381E60D9B3C9A01330D931F
S31508003130289B13442893179A279B1344279327E61B
S31508003140B8F1010F7FF779AE00230A935DE60025F3
S315080031504FF0010BE7E500BF020001100304015020
S315080031600121FFF7DFBC002108B5FFF7DBFCB0FA49
S3150800317080F0400908BD000038B54FF0BA44074D45
S315080031806368DA0705D54FF0BA4213695B07FCD5C1
S3150800319038BD52212846FEF787F8F1E7A73002081E
S315080031A04FF08042074B01219A664FF0BA4303F568
S315080031B08052516001F540211162034A1268DA60B3
S315080031C0704700BF00900050A41000200B4B9B6E68
S315080031D0580011D54FF0BA435A68D1070CD5D968AB
S315080031E0074A11600121074A51605A689207FCD4C0
S315080031F04FF08042044B9A66704700BF008000502B
S31508003200A41000200020005D00A000508B1E012B9A
S3150800321001D8FFF7DBBF012901D8FFF7C1BF704707
S3150800322008B50449044806F079F8BDE80840FFF7F0
S31508003230B7BF00BF00310208241D0020FFF79CBF5E
S31508003240FFF79ABF70470000004870472C1D002002
S31508003250004870472C1D002038B5124B05461B78D0
S31508003260DBB1E0B101F037FB0F4A00231146147BAE
S3150800327054B92B6001251A0101EB03131D738C50F9
S3150800328001F02FFB204638BD0133082B02F110024E
S31508003290EDD101F026FB0548F5E70548F3E70548B3
S315080032A0F1E700BF28210020A81F0020048000F0B5
S315080032B0028000F0018000F0154B13B51868002352
S315080032C001908DF8043001F006FB124B1C7824B1EE
S315080032D001F007FB104802B010BD01221A7001F078
S315080032E000FB0E4B01A81C731C7783F82C4083F84F
S315080032F03C4083F84C4083F85C4083F86C4083F884
S315080033007C4008238DF8073002F086FB2046E2E76A
S315080033100831020828210020038000F0A81F002099
S31508003320F8B50D4D2D7885B1072810DC0B4D060133
S3150800333005EB0014277B67B1AB510025069BA560FA
S31508003340636002F0B3FB2846F8BD0548FCE705486C
S31508003350FAE70548F8E700BF28210020A81F002043
S31508003360028000F0018000F0078000F00A4A08B5E4
S31508003370127852B107280AD8084A02EB00131B7BB9
S315080033803BB102F015FC002008BD0548FCE70548DE
S31508003390FAE70548F8E700BF28210020A81F002003
S315080033A0028000F0018000F0078000F02DE9F84364
S315080033B0174B1F6D5B6D1F4000D5FEE701260025E4
S315080033C0144CDFF85480DFF85490374217D023683E
S315080033D0C8F850609BB1A168284601316268A160AF
S315080033E09847637B012B0AD148B909EB45131A7B29
S315080033F060F341021A731A7F60F341021A770135A6
S31508003400082D4FEA460604F11004DED1BDE8F8831C
S3150800341000000450A81F0020002004502820002087
S31508003420044BD3F88420D206FBD4D3F88400C0F327
S31508003430811070470040005038B50F4B0546D3F849
S3150800344080300C4603F00303012B09D0022B0FD062
S315080034500A4840F6B271FDF727FF0023184602E036
S31508003460FDF788FE0E2305B1286004B1236038BD38
S31508003470FDF7CCFE0723F6E7008000500C31020862
S3150800348038B5194B0546D3F820310C4603F0070327
S31508003490013B052B20D8DFE803F0030B130F171B9E
S315080034A0FDF762FE052305B1286004B1236038BD27
S315080034B0FDF790FE0323F6E7FDF7A8FE0723F2E7DC
S315080034C0FDF7A0FE0223EEE7FDF74EFE0623EAE728
S315080034D0FDF780FE0423E6E7044841F22B01FDF7D9
S315080034E0E3FE00231846DEE7008000500C31020890
S315080034F038B5194B0546D3F828310C4603F00703AF
S31508003500013B052B20D8DFE803F003131B0F0B172D
S31508003510FDF72AFE052305B1286004B1236038BDEE
S31508003520FDF722FE0623F6E7FDF770FE0723F2E70E
S31508003530FDF750FE0323EEE7FDF74CFE0423EAE70A
S31508003540FDF760FE0223E6E7044840F63E61FDF714
S31508003550ABFE00231846DEE7008000500C31020857
S31508003560F7B50027144B0197D3F88041064604F0B7
S315080035700304022C0D4614D0032C0DD0012C14D1B3
S31508003580394601A8FFF77CFF10240EB1019B336072
S3150800359005B12C6003B0F0BDFDF738FE0724019095
S315080035A0F3E7FDF72FFE0190EFE741F278110348A4
S315080035B0FDF77AFE3C46E8E7008000500C31020829
S315080035C0002337B50193184B0546D3F820320C462D
S315080035D003F00703013B032B1ED8DFE803F0020EB6
S315080035E01318002101A8FFF783FF12230DB1019AD2
S315080035F02A6004B1236003B030BDFDF707FE072338
S315080036000190F3E7FDF744FE0A230190EEE7FDF784
S3150800361045FE09230190E9E740F6FD510348FDF709
S3150800362043FE0023E2E700BF008000500C31020889
S3150800363038B5124B0546D3F840310C4603F0030360
S31508003640022B0BD0032B0DD0012B0FD1FDF720FE3B
S315080036500A2305B1286004B1236038BDFDF71EFEB4
S315080036600923F6E7FDF717FE0C23F2E7044841F2B3
S315080036705901FDF719FE00231846EAE700800050B5
S315080036800C310208002337B50193184B0546D3F8C9
S3150800369060320C4603F00703013B032B1FD8DFE813
S315080036A003F0020E1914002101A8FFF7E9FE102302
S315080036B00DB1019A2A6004B1236003B030BD002120
S315080036C001A8FFF7B5FF1123F2E7FDF79FFD0723D2
S315080036D00190EDE7FDF796FD02230190E8E740F635
S315080036E0A2610348FDF7E0FD0023E1E700800050F2
S315080036F00C310208002337B50193184B0546D3F859
S3150800370094320C4603F00703013B032B1FD8DFE86E
S3150800371003F0020E1914002101A8FFF7B1FE1023C9
S315080037200DB1019A2A6004B1236003B030BD0021AF
S3150800373001A8FFF77DFF1123F2E7FDF767FD0723D1
S315080037400190EDE7FDF75EFD02230190E8E740F6FC
S31508003750D5610348FDF7A8FD0023E1E70080005086
S315080037600C31020873B500240F4B0194D3F870325C
S31508003770064603F00303012B0D4607D0022B11D092
S315080037804FF470610948FDF78FFD04E0214601A852
S31508003790FFF74EFF11240EB1019B336005B12C6073
S315080037A002B070BD1524F6E7008000500C310208FF
S315080037B038B5154B0546D3F800320C4603F0070317
S315080037C0013B032B18D8DFE803F0020A0E12FDF7B7
S315080037D05FFD0A2305B1286004B1236038BDFDF7F3
S315080037E05DFD0923F6E7FDF756FD0C23F2E7FDF725
S315080037F0DBFC0F23800AEDE7044841F22E21FDF792
S3150800380053FD00231846E5E7008000500C310208F6
S3150800381038B5154B0546D3F808320C4603F00703AE
S31508003820013B032B18D8DFE803F0020A0E12FDF756
S315080038302FFD0A2305B1286004B1236038BDFDF7C2
S315080038402DFD0923F6E7FDF726FD0C23F2E7FDF724
S31508003850ABFC0F23800AEDE7044841F26221FDF72D
S3150800386023FD00231846E5E7008000500C310208C6
S3150800387038B5124B0546D3F840320C4603F003031D
S31508003880022B0BD0032B0DD0012B0FD1FDF700FD1A
S315080038900A2305B1286004B1236038BDFDF7FEFC94
S315080038A00923F6E7FDF7F7FC0C23F2E7044841F293
S315080038B0F111FDF7F9FC00231846EAE700800050ED
S315080038C00C31020838B5124B0546D3F860310C4660
S315080038D003F00303022B0BD0032B0DD0012B0FD1C2
S315080038E0FDF7D6FC0A2305B1286004B1236038BD6C
S315080038F0FDF7D4FC0923F6E7FDF7CDFC0C23F2E728
S31508003900044841F28701FDF7CFFC00231846EAE791
S31508003910008000500C31020870B5054614460E4664
S3150800392000F0D2FF296881EA040202EA06044C4044
S315080039302C60BDE8704000F0CBBF0000B0F5207FDA
S3150800394010B52ED009D8B0F5007F24D003D868B1B9
S31508003950B0F5C07F0AD000241BE0B0F5607FFAD12D
S31508003960124BD3F88040C4F3011412E00F4B1C6FBE
S31508003970230B13F00E0FC4F303340AD0032C08D01C
S31508003980072C06D00F2C04D040F272210848FDF708
S315080039908BFC601C10BD054BD3F89040C4F304643F
S315080039A0F7E7024B1C6FC4F38024F2E7008000504F
S315080039B00C3102084FF4803238B5104B04469A662B
S315080039C000200D46FFF7BAFF41F671320C4B6043F3
S315080039D0DC69DA635A6804F4803422F440125DB96B
S315080039E0084988428CBF4FF4801000201043586065
S315080039F00CB10022DA6338BD0349F2E700900050A3
S31508003A0000000350005A6202002D310108B5FDF787
S31508003A10DDFBBDE808400021FFF7CCBF70B54409BF
S31508003A2005460E460ED140F216310F48FDF73CFC0E
S31508003A3005F01F05AEB104F58053012000FA05F51F
S31508003A401D6070BD012C08D0022C08D04FF44871B7
S31508003A500548FDF729FC0024EAE7044CE8E7044C8E
S31508003A60E6E704F50053E8E70C31020864800050E5
S31508003A7068800050002130B5802885B00446CDE91D
S31508003A80001100F0938029D8002800F09580A0F155
S31508003A9020043D2C35D83D2C33D8DFE804F08D9929
S31508003AA08D99A8A8A8A8A899B23FC8633F999999DB
S31508003AB032323232323232329999996BD299323263
S31508003AC03232323232323232323232A88D8D8DCDA6
S31508003AD03F3FD77A50AD323232323282B0F5B06FCC
S31508003AE000F08F8030D8B0F5207F71D00FD8B0F5B0
S31508003AF0C07F61D0B0F5007F61D0B0F5807F00F05F
S31508003B00858040F26D415448FDF7CEFB51E0B0F593
S31508003B10607F67D00DD8B0F5407FF2D1FDF744FB42
S31508003B2004464FF42070FFF709FFB4FBF0F0400895
S31508003B303EE0B0F5806F5AD0B0F5A06FE1D1002114
S31508003B406846FFF73DFD34E0B0F5106F74D016D81F
S31508003B50B0F5E06F75D00AD8B0F5C06F67D0B0F58C
S31508003B60D06FCED100216846FFF722FE21E0B0F5DE
S31508003B70F06FC6D100216846FFF7A4FE19E0B0F53C
S31508003B80406F39D00AD8B0F5206F5FD0B0F5286FEE
S31508003B90B7D100216846FFF7E5FD0AE0B0F5486FA2
S31508003BA0AFD100216846FFF7A5FD02E0FDF7E2FA6E
S31508003BB00090009805B030BDFDF7F6FAF8E7FDF776
S31508003BC0D9FA05462046FFF7B9FEB5FBF0F0EFE750
S31508003BD0FDF7EAFA04464FF42070FFF7AFFEB4FB90
S31508003BE0F0F0E5E701A8FFF727FC019DEAE70021C9
S31508003BF06846FFF745FCDCE700216846FFF778FCD6
S31508003C00D7E700216846FFF7ABFCD2E74FF0E02381
S31508003C1002911B695B0705D5FDF7C6FA0290029B60
S31508003C200093C6E703A902A8FFF702FDF7E70021FC
S31508003C306846FFF7FDFCBCE700216846FFF7E8FD8C
S31508003C40B7E700216846FFF713FEB2E7002168468A
S31508003C50FFF718FDADE700BF0C31020808B5802054
S31508003C60FFF708FF034B98429EBF4FF48032024B82
S31508003C701A6708BD005A620200A000501FB500234B
S31508003C80B0F5807F019300F0C38064D85D2855D8CD
S31508003C904C2806D82D2847D823282BD840F24B5134
S31508003CA0A5E04D381028F9D801A353F820F000BF35
S31508003CB0073E00089D3C00089D3C00089D3C000806
S31508003CC0B93D00089D3C00089D3C00088D3E000853
S31508003CD0D73D00087D3D0008833E00089D3C00084E
S31508003CE09D3C00089D3C00089D3C00089D3C000842
S31508003CF0973E000824380928D0D801A353F820F0A5
S31508003D00073E0008073E0008073E0008073E000871
S31508003D10073E00089D3C0008F73D00089D3C00084A
S31508003D20993D00083D3E00083D2800F082803E2867
S31508003D30B4D1002001A9FFF79BFD60E08028ADD132
S31508003D40574B1B6F03F00703013B032B4DD8DFE8E6
S31508003D5003F04A47878FB0F5F06F6AD021D8B0F5DF
S31508003D60B06F48D00FD8B0F5607F00F0858095D346
S31508003D70B0F5806F47D0B0F5A06F8FD1002001A9AC
S31508003D80FFF71EFC3BE0B0F5D06F57D0B0F5E06FFB
S31508003D90CFD0B0F5C06F81D1002001A9FFF748FC4C
S31508003DA02DE0B0F5206F71D00BD8B0F5086F4AD06A
S31508003DB0B0F5106F7FF472AF002001A9FFF728FD58
S31508003DC01DE0B0F5406F5CD0B0F5486F63D0B0F534
S31508003DD0286F7FF463AF002001A9FFF7C3FC0EE04C
S31508003DE0052301930BE00223FBE740F29F412D4890
S31508003DF0FDF75AFA03E0002001A9FFF7B1FB019885
S31508003E0005B05DF804FB002001A9FFF739FBF6E7CA
S31508003E1002934FF0E0231B695B0705D5FDF7C4F94C
S31508003E200D230393039BDCE703A902A8FFF700FC15
S31508003E30F8E7002001A9FFF745FDE0E7002001A902
S31508003E40FFF7B6FCDBE7164BD3F8003103F00303A4
S31508003E50022B07D0032B09D0012B0BD1FDF7BAF99A
S31508003E600323BEE7FDF71AFA0923BAE7FDF7C8F9EF
S31508003E700823B6E70123B4E7184601A9FFF7DCFAD9
S31508003E80BDE7002001A9FFF733FBB8E7002001A929
S31508003E90FFF7F8FBB3E7002001A9FFF72BFCAEE715
S31508003EA0008000500C31020838B5036804460F2B11
S31508003EB004D940F663217A48FDF7F6F963680F2BB3
S31508003EC004D940F666217648FDF7EEF9A3680F2B6C
S31508003ED004D940F669217248FDF7E6F9237B0F2BD2
S31508003EE004D940F66C216E48FDF7DEF9637B0F2B8B
S31508003EF004D940F66F216A48FDF7D6F9A37B3F2B14
S31508003F0004D940F672216648FDF7CEF9E37B3F2BCC
S31508003F1004D940F675216248FDF7C6F92369032BD3
S31508003F2004D940F678215E48FDF7BEF96369032B8C
S31508003F3004D940F67B215A48FDF7B6F9E369032B05
S31508003F4004D940F67E215648FDF7AEF98020FFF7E2
S31508003F5095FE032800F083804FF48012514B4FF0F2
S31508003F60A0615A6645F60E034F4AC2F880304F4B99
S31508003F7099624FF4803103F580539962916D11F47B
S31508003F808031FBD1D4E900031B0543EA0063E07BDB
S31508003F900343207B43EA0043607B43EA0033A07B6C
S31508003FA043EA801313619069D4E904531B0643EA74
S31508003FB0856300F000400343A07EE57E0343207E30
S31508003FC043EA0043607E43EA00239361E069136A8B
S31508003FD000280CBF0022082223F00F0343EA00033F
S31508003FE043EA850343EA02032F4A314D136237D168
S31508003FF094F82430916A94F82000DB000D4043EAD7
S31508004000401394F821102B4343EA011343F48033F9
S315080040109362284B916D33EA0101FBD14FF0807111
S31508004020224881621369A56823F4700343EA05539D
S3150800403013614FF00043836194F822300BB91E4B8D
S31508004040996294F823301BB94FF480321A4B9A625E
S3150800405094F825301BB1144B184AC3F8802038BD94
S31508004060022808D11161164891614FF408524FF49D
S315080040707F41FFF751FC0C4994F822308A6A94F87C
S3150800408020001B06154043EA401394F824202B43CE
S3150800409043EAC20394F8232043EA02438B62D7E734
S315080040A00C310208009000500040005A0050005A97
S315080040B0C7FFFEFE030001000060005AF1A7FFFFDC
S315080040C03440005A014B93F900007047A8100020AD
S315080040D0436810B5072B044604D940F6E1312A484F
S315080040E0FDF7E2F8A368032B04D940F6E331264826
S315080040F0FDF7DAF82378032B04D940F6E531224890
S31508004100FDF7D2F894F90130002B04DA40F6E731CE
S315080041101D48FDF7C9F84FF400011C4A637851663B
S315080041204FF4D151022002F5B832516218494F2B8B
S3150800413048604FF0010028BF4F2301F580514860C1
S315080041401169C903FCD4217843EA01235361D4E9F0
S3150800415001131B0143EA0123617B0B43217B43EADD
S3150800416041039360E37BA17B1B0143EA4113617C16
S315080041700B43217C43EA41035360A37C13B16FF4DC
S31508004180D153536210BD00BF0C3102080090005095
S3150800419000100250014B1880704700BFAA1000207B
S315080041A00029CCBF01210021FFF704BCB0F5207F10
S315080041B038B577D00ED8B0F5007F61D003D890B364
S315080041C0B0F5C07F2FD040F2F921BDE838403D4810
S315080041D0FDF76AB8B0F5607FF5D13B4A4C1ED2F8B8
S315080041E0FC5015F080751EBFD2F8FC3023F08073A2
S315080041F0C2F8FC30032C04D940F2DB213148FDF724
S3150800420053F8324BD3F8801021F0300141EA0411FB
S31508004210C3F8801035B12C4AD2F8FC3043F08073CD
S31508004220C2F8FC3038BD102901F1FF3404D8284BF8
S3150800423023FA01F1CB0704D440F2B2212148FDF755
S3150800424033F8FFF7E3FB00F047F84FF48031214BD2
S315080042501E4A1967136F23F4704343EA043313673E
S31508004260FCF7A2FF0446FFF7DBF8C0F1020120467F
S31508004270FFF796FF00F036F8BDE83840FFF7EEBCCA
S315080042804C1E1F2C04D940F2ED210E48FDF70CF800
S315080042900E4BD3F8901021F0F85141EA0461C3F8A7
S315080042A09010BFE74C1E012C04D940F2F3210548B3
S315080042B0FCF7FAFF054B196F21F4806141EA842166
S315080042C01967AFE70C31020800ED00E000800050E6
S315080042D0160101000090005002214FF42070FFF7EC
S315080042E065BF000008B54FF4C070FFF7C3FBBDE813
S315080042F00840044988428CBF022101214FF42070EE
S31508004300FFF754BF80F0FA02B0F5807FF8B50C4687
S3150800431000F062816CD85D285ED84C2806D82D2816
S3150800432046D823282AD840F667018FE14D38102849
S31508004330F9D801A353F820F0AF4500082743000831
S3150800434027430008274300088F440008274300082E
S31508004350274300082B480008C14400081D440008EC
S31508004360F3470008274300082743000827430008A7
S3150800437027430008274300086B4800082438092803
S31508004380D1D801A353F820F0AF450008AF4500087F
S31508004390AF450008AF450008AF45000827430008A9
S315080043A07D4500082743000857440008B74600081B
S315080043B03D2800F06B813E28B5D1093C032C00F25C
S315080043C02D82A84B195DA84AD2F8403223F0030380
S315080043D00B43C2F84032B3E08028A4D18B1E062BCB
S315080043E000F2C180DFE803F0BCADBFC7BFBF8100E4
S315080043F0B0F5F06F00F04A813CD8B0F5B06F00F028
S31508004400BD801DD8B0F5607F00F0AB818BD3B0F5C9
S31508004410806F00F0CC80B0F5A06F84D1073C0B2CE0
S3150800442000F2DE81DFE814F0CE01DC01DA01D80102
S31508004430D801DC01DC01DC01DC01DC01DC01E30183
S31508004440B0F5D06F00F03781B0F5E06FB5D0B0F5B4
S31508004450C06F7FF468AF093C032C00F2FC80834BE5
S31508004460195D814AD2F8403123F003030B43C2F8A1
S31508004470403165E0B0F5206F00F0D78114D8B0F56B
S31508004480086F00F04F81B0F5106F7FF44CAF093C10
S31508004490062C00F23E81DFE814F02E0143014301A9
S315080044A038013C013C013A01B0F5406F00F0A181AA
S315080044B0B0F5486F00F0D981B0F5286F7FF433AFB7
S315080044C0112C00F0F281152C00F0F18140F635012F
S315080044D06748FCF7E9FE00226349D1F8703223F0F9
S315080044E003031343C1F870322AE0002504264FF46B
S315080044F080370121022000F05FFAFFF787FAFFF7FD
S31508004500EBFE5C4B584A1F67136F23F007033343D0
S315080045101367FCF749FE0646FEF782FFC0F1020163
S315080045203046FFF73DFE0121002000F09DFAFFF717
S31508004530D9FEFFF793FB1DB9032C01D14E4B9F62A1
S31508004540F8BD4FF480124B4B0E465A664FF4803234
S315080045504A4B9D6A03F58053C5F300659A62C6E720
S3150800456000250126C3E7002540F28D514048FCF797
S315080045709BFE2E46BBE700250226B8E7072C12D07D
S31508004580102C12D0022C05D040F2D2513848FCF734
S315080045908BFE0024344BD3F8801121F003010C4321
S315080045A0C3F88041CCE70324F4E70124F2E7023C90
S315080045B0052C0AD8324B195D2B4AD2F8203123F044
S315080045C007030B43C2F82031BAE740F209612848CD
S315080045D0FCF76AFE0021EFE7A1F10904082C33D89D
S315080045E0DFE804F0050532051C32323205004FF4C7
S315080045F080321D4B2349586E03F580535A664B6A21
S3150800460043F001034B62C1035CBF1F4B5A664FF070
S31508004610E022136923F00403136191E74FF4803213
S31508004620114B1849586E03F580535A664B6A23F0A6
S3150800463001034B62C3035CBF134B5A664FF0E0227B
S31508004640136943F00403E7E740F23161BDE8F84037
S315080046500748FCF729BE40F24D610548FCF724FEE1
S315080046600021FEE65F310208008000505F31020833
S315080046700C310208009000500060005A0040005AB1
S315080046805931020800C0075000A00050093C032C0D
S315080046900AD8884B195D884AD2F8603123F003039B
S315080046A00B43C2F860314BE74FF4CD618348FCF702
S315080046B0FBFD0021EFE7093C062C13D8DFE804F0E0
S315080046C00419190E1212100002227B49D1F8003281
S315080046D023F007031343C1F8003231E70322F4E756
S315080046E00422F2E740F2AD617448FCF7DDFD0022D2
S315080046F0EBE70122E9E702226F49D1F8083223F0F5
S3150800470007031343C1F808321AE70322F4E7042221
S31508004710F2E740F2CD616948FCF7C6FD0022EBE7F7
S315080047200122E9E74C1E082C12D8DFE804F016111E
S3150800473018111111110F050002225F49D1F8003135
S3150800474023F003031343C1F80031F9E60322F4E723
S3150800475040F2E9615948FCF7A7FD0022EDE701227E
S31508004760EBE7574AD2F8FC5015F080751EBFD2F811
S31508004770FC3023F08073C2F8FC3007291CD00E29C0
S315080047801CD006291CD040F216714C48FCF78CFD4B
S3150800479000224949D1F8803023F003031343C1F8B6
S315080047A08030002D3FF4CCAE454AD2F8FC3043F0B9
S315080047B08073C2F8FC30C3E60222EAE70122E8E782
S315080047C00322E6E702223C49D1F8203223F0070308
S315080047D01343C1F82032B3E60322F4E70422F2E7D2
S315080047E040F266713548FCF75FFD0022EBE70122CF
S315080047F0E9E7023C052C0AD8324B195D2E4AD2F855
S31508004800283123F007030B43C2F8283198E640F213
S3150800481097712A48FCF748FD0021EFE740F2D1716D
S315080048202648FCF741FD0021CDE5102C17D012D8FB
S31508004830022C16D0072C16D040F607011F48FCF7A5
S3150800484033FD00221C49D1F8603223F007031343D5
S31508004850C1F8603274E6112CEED10222F2E7012289
S31508004860F0E70322EEE70422ECE7102C17D012D863
S31508004870022C16D0072C16D040F61F010F48FCF75D
S3150800488013FD00220C49D1F8943223F00703134391
S31508004890C1F8943254E6112CEED10222F2E7012235
S315080048A0F0E70322EEE70422ECE7012214E60222EF
S315080048B012E600BF5F310208008000500C31020882
S315080048C000ED00E059310208EFF3108072B6704728
S315080048D000B962B67047EFF31180302383F311886D
S315080048E0704780F311887047034B5868C0F3080077
S315080048F0003818BF0120704700ED00E0EFF3108381
S31508004900DB0706D4EFF311802F2894BF002001207F
S315080049107047012070470000024A536B0342FCD1DE
S31508004920704700BF00400950044A4178536F23F48A
S31508004930407343EA01235367704700BF00400050A5
S31508004940704770470A4A10B51369044643F00403D2
S31508004950136104F0E7FEFFF7F3FF30BFFFF7F1FF3F
S3150800496004F0F4FE1CB9BDE81040FCF71DBC10BDF0
S3150800497000ED00E0084A10B51369044643F0040345
S31508004980136104F0CFFE30BF04F0E0FE1CB9BDE8A9
S315080049901040FCF709BC10BD00ED00E070477047F9
S315080049A0034A0179D36E23F030030B43D36670476D
S315080049B000400050704700002DE9F0410446264BA0
S315080049C0D3F88420D006FBD4D3F88430C3F38113FC
S315080049D09C423ED0FCF7CEFB012C05460BD11F4B63
S315080049E0984204D940F2FD611D48FCF75DFC01219F
S315080049F02846FFF7D5FBFFF767FF4FF00072194B04
S31508004A0007465A662046FFF7D5FF4FF48063124ED5
S31508004A10621E9340DFF848803367736E9A0103D4A9
S31508004A20D6F884309B060AD53846FFF751FF022C84
S31508004A300FD12846BDE8F0410021FFF7B1BBD6F8F3
S31508004A4084309906E9D540F20B714046FCF72CFCF8
S31508004A50E3E7BDE8F08100BF00400050005A62025B
S31508004A60633102080060005007B518B90191FCF7D8
S31508004A7081FB0199064B1B7843B1064B984205D832
S31508004A80012003B05DF804EBFFF796BF0220F8E7B4
S31508004A9029210020005A62020278034B01210020D6
S31508004AA01A70FFF7E1BF00BF2921002070470000F8
S31508004AB04FF00042154B10B55A664AF6CD331449E5
S31508004AC04C6C0B6404F0010488B90120FFF724FF3D
S31508004AD04B68DB0704D50F4B58600B6BD807FCD522
S31508004AE014B10B4B0C4A1A64FFF7E0FF10BD0B6BB1
S31508004AF01A07FCD42022074B9A620122A3F5805399
S31508004B005A60034A936A9B06FCD5E9E70090005071
S31508004B1000400950006009503254FFFF4FF0004230
S31508004B2038B5164B01465A664AF6CD33144C154A23
S31508004B30656C236443780B205B0043F00103D36361
S31508004B40FFF7EAFE63688A7823F4F87343EA0213E8
S31508004B506360CA784B7943EA0223A3600A798B79A2
S31508004B6043EA022323610878FFF7A2FFEB0744BF55
S31508004B70054B2364FFF79AFF012038BD00900050CB
S31508004B8000400950004000503254FFFF0F2870B50E
S31508004B90044604D940F683511348FCF785FB4FF0C9
S31508004BA00042124B12495D6E03F580535A664AF667
S31508004BB0CD334E6C80200B64FFF7AEFE0B6A23F0F4
S31508004BC00F030F2C94BF234343F00F030B62F30725
S31508004BD044BF084B0B64002DA2BF4FF00042064BA2
S31508004BE05A66FFF763FF70BD633102080080005004
S31508004BF0004009503254FFFF00A00050436D0B429D
S31508004C00FCD1704708B54368DA0714D58368DB0713
S31508004C1002D50369D90707D50A2350218363FFF70D
S31508004C20EDFF836C9A07FCD1012200F500535A6008
S31508004C3043689B07FCD408BD10B5FFF7E3FF0423C0
S31508004C4000F5805100F500520B6113610B61136189
S31508004C500B6113610B611361202341F202010361A9
S31508004C600023C360836041614FF4A021836183659B
S31508004C7041620549C36103628362C3624363036594
S31508004C80D164036310BD00BFFF3F0D0338B5174B52
S31508004C90044698420D4607D0154B984204D040F278
S31508004CA063111448FCF700FB25B92046BDE83840D7
S31508004CB0FFF7A8BF012204F580535A6040F6FF713A
S31508004CC0204605F00F02FFF799FFA2637821FFF748
S31508004CD095FF05F001036A0748BF43F00203A26C7B
S31508004CE002F003029A42FAD138BD00BF0000015B08
S31508004CF000000A50B0310208836C1B06FCD5C06B55
S31508004D00C0B27047836C5B06FCD541647047836C00
S31508004D105A06FCD54164836C1B06FCD5C06B80B271
S31508004D20704700002DE9F04105460C46174622B9A2
S31508004D304FF402716D48FCF7B7FA6D4B9D4200F0CF
S31508004D40C9806C4B9D4200F0CA8040F20B2167482F
S31508004D50FCF7AAFA44B940F25A316448FCF7A4FAB7
S31508004D602046FEF787FE0446AB68D80744D5BC4202
S31508004D7004D240F215215D48FCF796FA6B6803F0F9
S31508004D800108B4FBF7F35C1EFF2C04D940F21D2181
S31508004D905648FCF789FAB8F1000F2BD02821284687
S31508004DA0FFF72CFFAB6C99071ED1AB6CDA071DD445
S31508004DB0AE6C16F002061BD140F22A214B48FCF7CE
S31508004DC073FA2846FFF71EFF2B6923F07F4343EA51
S31508004DD004632B61B8F1000F00F08680314628463F
S31508004DE0BDE8F041FFF752BF0526EAE70926E8E7DE
S31508004DF00626E6E74646E7E76B68012B04D040F24D
S31508004E003D213A48FCF750FAAB6DA968DB0701F07B
S31508004E10E00148BF7F00402946D009D8B9B120290A
S31508004E2038D040F27F21BDE8F0413048FCF73CBA63
S31508004E30602945D08029F4D107EB4703A34204D95A
S31508004E4040F279212948FCF72FFA012308E0B7EB4D
S31508004E50141F04D940F265212448FCF725FA1023CB
S31508004E607B436401B4FBF3F3234E203BB6EBC30F3D
S31508004E704FEAC30404D240F28A211C48FCF714FA0C
S31508004E80284634400121FFF7B9FE2C63BDE8F041FE
S31508004E90FFF7B4BEB7EBD40F04D940F26A21134822
S31508004EA0FCF702FA0823DBE70626B4FBF6F3BB4257
S31508004EB004D240F26F210D48FCF7F6F93346CFE7E6
S31508004EC0B7EB940F04D94FF41D710848FCF7ECF9B9
S31508004ED00423C5E7002C7FF447AF562440E7002C8F
S31508004EE07FF442AF57243BE7BDE8F081B0310208B2
S31508004EF00000015B00000A50F8FF7F00F8B51E4667
S31508004F00436804460D4617461BB140F6FF71FFF786
S31508004F1075FE2046FFF790FEE9896B7B62690B43B5
S31508004F20298A22F44C520B4322F00F021343636181
S31508004F30A2682B7E297B22F0804222F0E2021943E6
S31508004F4011436A691143AA68A1601AB9A26842F0B6
S31508004F500042A260E869002862D0A268017A42EAA3
S31508004F608152A260A268817A42EA4142A26082889E
S31508004F70A16802F4C0420A43A260A268417842EAE4
S31508004F808102A260A268417B42EAC102A260A268CD
S31508004F90817B42EA0112A260A268817842EA8122F4
S31508004FA0A260C2798179520242EA8122E2600278DD
S31508004FB002F0FD01012908BFE168A2F1020204BF5F
S31508004FC041F00401E160012A5A495B4A79D88C42CA
S31508004FD075D05A498C420CBF01214FF0FF3102EBC4
S31508004FE0411241F294414FF0020C42F801C0427A54
S31508004FF004F580518A621AB1E26842F40062E260FE
S31508005000C27A6AB1E2684B4942F40042E260027B26
S315080050108C424B4902F00F0208BF4A67C1F880204C
S3150800502047B197F8202004F5805C002A58D0012261
S31508005030CCF820207EB304F5805013B14FF400431A
S31508005040836596F821203B4B102A3E4958D89C4246
S3150800505054D03A4B9C420CBF01234FF0FF33012733
S31508005060CF54768C3349B6F5006F374B56D88C42F9
S3150800507052D032498C420CBF01214FF0FF31012733
S315080050805F54A36D324323F4F95323F01E031343ED
S31508005090A3650123836505212046FFF7F7FDAA6866
S315080050A01AB120466968FFF73DFE20462978FFF7C2
S315080050B0EDFDA36CDB4313F4405FFAD1F8BD002184
S315080050C08DE78C420AD01D498C420CBF01214FF056
S315080050D0FF3102EB411242F2944184E70021F8E7DE
S315080050E097F82210E06997F821200A4320F0090171
S315080050F00A4342F00102CCF81C209BE70023AEE7E6
S315080051009C4207D00D4B9C420CBF01234FF0FF3346
S315080051100227A5E70023FBE70021B0E78C4207D06A
S3150800512006498C420CBF01214FF0FF310227A7E741
S315080051300021FBE70000015B00C0035000000A5095
S31508005140009003502C2100202A210020134B70B513
S31508005150984205460C4606D0114B984203D070215A
S315080051601048FCF7A1F81CB972210E48FCF79CF808
S31508005170237B802B03D176210A48FCF795F8637BBD
S31508005180032B03D979210748FCF78EF8002321461B
S315080051902846BDE870401A46FFF7B0BE0000015B1E
S315080051A000000A50B03102082B4B70B598420546EC
S315080051B00C4641D08A212948FCF776F834B98C2167
S315080051C02648FCF771F8244B9D4237D09E21234888
S315080051D0FCF76AF8637B032B03D9A7211F48FCF762
S315080051E063F8237B802B03D0A9211C48FCF75CF8C5
S315080051F06369B3F1804F03D0AB211848FCF754F824
S31508005200238A23F400539BB2B3F5805F03D0AD2104
S315080052101248FCF749F8A368013BB3F5165F03D3B8
S31508005220AF210E48FCF740F8002321462846BDE882
S3150800523070401A46FFF762BE0029C0D05620FEF716
S315080052401DFD09380828C1D840F20B1323FA00F0CF
S31508005250C307BBD5BEE700BF0000015BB03102083B
S31508005260774B70B5984204460D4606D0754B984262
S3150800527003D0DC217448FCF717F81DB9DE21724803
S31508005280FCF712F86A7BAB687AB1704A934203D985
S31508005290E0216D48FCF708F82B69D3B1DB7BC3B175
S315080052A0E3216948FCF700F813E0694A934203D9F9
S315080052B0E6216548FBF7F8FF2B6953B11A7F42B11F
S315080052C0A968644A5B7F914240F2A080042B00F2F1
S315080052D0A08063682E6923B140F6FF712046FFF768
S315080052E08DFC2046FFF7A8FC22696B7BA97B22F080
S315080052F087020B43134343F08003236116B32A69DD
S315080053002369117823F0F8030B43117F43EAC1138D
S31508005310117943EA4113517A43EA0113D17B43EAEF
S3150800532081132361E168D2E9053021F0F04121F4C7
S31508005330702103430B43117B527B43EA812343EAE3
S31508005340C233E360A368EA7B23F00303134343F005
S315080053500103A3602EB32A69A168538803F4C043E6
S315080053600B43A3605179A36843EA8123A360937929
S31508005370D079616A1B01000203F0700300F4E06053
S3150800538021F4772121F4EE6103430B43117A527F0E
S31508005390090301F4E04112040B4302F4702213439B
S315080053A0636263692A7B23F00F0313436361B6B113
S315080053B02B695A89A2615A7B3AB1214A94422AD169
S315080053C09A7B254902F00F024A67DA7B3AB11C4AF2
S315080053D094422AD11B7C204A03F00F031367D5E9B0
S315080053E001122046FFF79EFC05212046FFF74EFCDA
S315080053F028212046FFF702FC2B78A363FFF7FEFB64
S31508005400A36CDB4313F4405FFAD170BD042B3FF65F
S3150800541060AFEE2145E70B4A944201BF9A7B0E49DD
S3150800542002F00F02C1F88020CFE7064A944201BF76
S315080054301B7CA2F5CE2203F00F03D367CFE700BF8C
S315080054400000015B00000A50B0310208002D31014E
S31508005450809698003F4B4C000090035038B50D4697
S315080054600446B0B1012816D0022816D0032803D165
S315080054703F23EB40DB0704D440F22D410848FBF7F5
S3150800548013FF302001214443064B01FA05F51D514F
S3150800549038BDFF23EDE70F23EBE740F2FF33E8E7DC
S315080054A0DC2E020840D0035038B50D460446B0B18C
S315080054B0012816D0022816D0032803D13F23EB4033
S315080054C0DB0704D440F2FE310848FBF7EDFE302036
S315080054D001214443064B01FA05F51D5138BDFF234A
S315080054E0EDE70F23EBE740F2FF33E8E7DC2E02088F
S315080054F040E0035070B5054614460E46FFF7E4F93A
