S00F0000546167426F6172642E733337E1
S3150801200000120020114301080F4301080F4301087C
S31508012010197801080F4301080F4301080F43010806
S315080120200F4301080F4301080F4301080F43010835
S315080120300F43010888770508052A01080F43010897
S315080120400F4301080F4301080F4301080F43010815
S315080120500F4301080F4301080F4301080F43010805
S315080120600F4301080F4301080F4301083D2C0108DE
S31508012070492C01080F4301080F4301080F430108C2
S315080120800F4301080F4301080F4301080F430108D5
S315080120900F4301080F4301080F4301080F430108C5
S315080120A00F430108C9490108A54901080F43010859
S315080120B00F43010871350508693F0508213F0508E1
S315080120C01D3F05083D370508653F0508253F0508F5
S315080120D03D3F0508293F0508C93F0508A93F0508E9
S315080120E00F4301080F4301080F4301080F43010875
S315080120F0BD6D01080F4301080F4301080F4301088D
S315080121000F4301080F4301080F4301080F43010854
S315080121100F4301080F4301080F4301080F43010844
S315080121200F4301080F4301080F4301080F43010834
S315080121300F4301080F4301080F4301080F43010824
S315080121400F4301080F4301080F4301084F8801088F
S31508012150691D05080F430108690205086F0205088C
S315080121600F4301080F4301080F4301080F430108F4
S3150801217010B5054C237833B9044B13B1044800E074
S3150801218000BF0123237010BDE018002000000000E5
S3150801219050DC050808B5034B1BB10349034800E0A9
S315080121A000BF08BD00000000E418002050DC050847
S315080121B0A3F5803A704700BF174B002B08BF134B96
S315080121C09D46FFF7F5FF00218B460F461348144A33
S315080121D0121A42F09CF90E4B002B00D098470D4B72
S315080121E0002B00D098470020002104000D000D485F
S315080121F0002802D00C4800E000BF42F01DF920007B
S31508012200290000F0F3FB42F003F900BF00000800C3
S31508012210000000000000000000120020E018002065
S31508012220503F0020000000000000000010B502F039
S3150801223017F802F016F8BDE810400348B423034A1C
S315080122400349006804F001BE901A00206960050878
S315080122501C5F050810B502F003F802F002F8BDE8A4
S31508012260104003488223034A0349006804F0EDBD80
S31508012270901A0020586005081C5F050810B501F082
S31508012280EFFF01F0EEFFBDE810400348A223034A21
S315080122900349006804F0D9BD901A00204660050874
S315080122A01C5F050810B501F0DBFF01F0DAFFBDE898
S315080122B0104003482A23034A0349006804F0C5BDB0
S315080122C0901A002034600508085F050810B501F06A
S315080122D0C7FF01F0C6FFBDE8104003486B23034A58
S315080122E00349006804F0B1BD901A0020276005086B
S315080122F01C5F050810B501F0B3FF01F0B2FFBDE898
S31508012300104003486223034A0349006804F09DBD4F
S31508012310901A00201A6005081C5F0508F7B5089C85
S31508012320064600940F4606F057FB054640B3154C82
S315080123301549206804F089FD1449206804F085FDD3
S3150801234001F08EFF01F08DFF114B124A00931249DD
S31508012350C423206804F079FD2B46104A10492068E9
S3150801236004F073FD284601F0A3FF0E493B463246A9
S31508012370206804F06AFD0449206804F066FDFEE75A
S3150801238003B0F0BD901A002020610508245F0508F6
S315080123907A600508295F0508375F0508435F050860
S315080123A0465F05085B5F05082DE9F04104461546B9
S315080123B01F46DFF888808AB00E4601F051FF01F00A
S315080123C050FF3D23CDE90157184A1949D8F80000AD
S315080123D0009404F03AFD119BB3F90430502B22D135
S315080123E0144B1A691868904702238DF81830C823C8
S315080123F00022ADF81C300A23CDE9023206AB2A4683
S315080124003146CDE900332046BDF8403006F0B4FB2D
S31508012410059001F025FF01F024FF059A0649D8F831
S31508012420000004F012FD0AB0BDE8F0810C60050851
S31508012430AF5F050808670508E45F0508901A0020DC
S3150801244013B50E4C002141F202000D4B0D4A0094C2
S31508012450FFF764FF012141F20200094B0A4A009481
S31508012460FFF75CFF094B002100934FF49850084B86
S31508012470084AFFF753FF02B010BD00BFCD2201087D
S31508012480F5220108A9230108A52201082D22010820
S31508012490552201087D220108FFF7D2BF022300B5A4
S315080124A089B08DF81030C8230021ADF8143004AB7B
S315080124B01A46009141F2020006F089FB039001F0E9
S315080124C0CFFE01F0CEFE044B039A0449186804F0C6
S315080124D0BCFC09B05DF804FB901A0020E45F05080E
S315080124E0094B07B51B785BB9084B1A6918689047F9
S315080124F0074B1A691868019203B05DF804EB104797
S3150801250003B05DF804FB00BF6419002008670508DD
S3150801251020670508704770477047000008B50B48E3
S3150801252002F0AAF8012805D101F046FE00F0C8FF1D
S31508012530002008BD064802F09FF8012804D101F0E1
S315080125403BFE00F0EDFEF3E70120F2E7D866050849
S31508012550F066050830B503684E4A23F47F4323F035
S31508012560070393428FB000F0848005D8A2F5A02214
S31508012570934213D00FB030BD474A9342FAD1474A26
S315080125801378002BF6D0013BDBB21370002BF1D187
S3150801259001F066FE01F065FE414973E0FFF7BEFFF3
S315080125A00028E7D021F076FC3E4C054678B1034673
S315080125B01E213D4A06A842F085F901F051FE01F0B7
S315080125C050FE2A463949206804F03FFCD2E702A8A2
S315080125D021F07EFC054630B33549206804F035FC08
S315080125E03449206804F031FC01F03AFE01F039FE65
S315080125F0314B324A32490093206840F2011304F004
S3150801260024FC2B462F4A3049206804F01EFC284634
S3150801261001F04EFE2D49206804F017FC2449206874
S3150801262004F013FCFEE79DF817301421284A00939D
S3150801263006A89DF8163042F045F901F011FE01F0A1
S3150801264010FE244906AA206804F0FFFB06A842F0FA
S315080126506DF92946024606AB0B201BF013FA05460F
S31508012660002887D001F0FCFD01F0FBFD2A461A4936
S31508012670A9E70A4A13780133137001F0F1FD01F055
S31508012680F0FD1649074B18680FB0BDE8304004F055
S31508012690DCBB00BFA0000600A000060165190020EA
S315080126A06A610508901A00209A600508AE60050857
S315080126B020610508245F05087C620508CD600508C8
S315080126C0375F0508435F0508465F0508D6600508B4
S315080126D0FC6005080E610508226105085E610508AA
S315080126E0036837B523F47F431F4A23F00703934250
S315080126F008D002F18072934234D103B0BDE830406C
S31508012700FFF7CABE0379002BF7D1032021F0CEFBD0
S31508012710054638B3154C1649206804F096FB154949
S31508012720206804F092FB01F09BFD01F09AFD124B23
S31508012730124A13490093206840F2151304F085FBE9
S315080127402B46104A1049206804F07FFB284601F001
S31508012750AFFD0E49206804F078FB0549206804F0AE
S3150801276074FBFEE703B030BDA8001400901A0020E0
S3150801277020610508245F05085E620508CD60050825
S31508012780375F0508435F0508465F0508796105084F
S31508012790012337B504460093FA210023194A1A483A
S315080127A001F0BCFB054638B3184C1949206804F0FA
S315080127B04CFB1849206804F048FB01F051FD01F073
S315080127C050FD154B154A009315494FF4C9732068F6
S315080127D004F03BFB2B46134A1349206804F035FBEA
S315080127E0284601F065FD1149206804F02EFB0849C9
S315080127F0206804F02AFBFEE7204603B0BDE8304016
S3150801280000F07EB8E124010830190020901A002052
S3150801281020610508245F050837620508CD600508AB
S31508012820375F0508435F0508465F0508B461050873
S31508012830F7B5054623480E4601F056FB044638B35C
S31508012840214D2249286804F000FB2149286804F033
S31508012850FCFA01F005FD01F004FD1E4B1E4A00932A
S315080128601E494FF4D873286804F0EFFA23461C4A28
S315080128701C49286804F0E9FA204601F019FD1A49AD
S31508012880286804F0E2FA1149286804F0DEFAFEE73E
S315080128900127164B1F70164BDA6818689047154BB7
S315080128A0DA68186890473146284600F03DF823460D
S315080128B041F28831104A0097104801F02FFB03B006
S315080128C0F0BD00BF30190020901A002020610508CC
S315080128D0245F050819620508CD600508375F0508F4
S315080128E0435F0508465F0508E76105086419002086
S315080128F008670508206705089D240108FC180020BB
S3150801290007B5019001F0ACFC01F0ABFC044B019A50
S315080129100449186803B05DF804EB04F096BA00BFE1
S31508012920901A00208E62050807B50190009101F002
S3150801293097FC01F096FCDDE9003204480449006879
S3150801294003B05DF804EB04F080BA00BF901A0020CA
S31508012950C662050808B50346084611461BB1BDE817
S315080129600840FFF7E1BF01F07BFC01F07AFC034B5D
S3150801297003491868BDE8084004F067BA901A0020B0
S315080129800763050807B5019001F06AFC01F069FCC7
S31508012990044B019A0449186803B05DF804EB04F086
S315080129A054BA00BF901A00204B63050808B501F018
S315080129B057FC01F056FC034B03491868BDE808406B
S315080129C004F043BA901A00207F63050808B501F0A0
S315080129D047FC01F046FC034B03491868BDE808406B
S315080129E004F033BA901A00208F63050808B505F07C
S315080129F04BFFFFF78FFD05F054FFFFF78CFD05F040
S31508012A009FF8F8E70DF078BA05F090BF10B50446BF
S31508012A1001F0C4F920461FF0F9FC2046FFF79AFD9C
S31508012A2010BD0120704700B5C3B00DF087F90DF050
S31508012A30B0F948B1FFF7F5FF30B101A81AF0FDFF6B
S31508012A4010B901A8FFF7E2FF43B05DF804FB704730
S31508012A5008B503481FF024FFBDE8084000F0D6BDBD
S31508012A603466050810B5044600F064F9204600F0FE
S31508012A70F7FE204600F0CEFD204600F0CBFC2046AE
S31508012A8000F0CEFF2046FFF72BFE10BD0120704750
S31508012A9000B5C3B01FF00CFF48B1FFF7F7FF30B11F
S31508012AA001A821F08BF810B901A8FFF7DBFF43B0A5
S31508012AB05DF804FB08B50321802002F0F7FE032127
S31508012AC04FF4806002F0F2FE09214FF4C06002F073
S31508012AD0EDFE09214FF4F06002F0E8FE09213E20DF
S31508012AE002F0E4FE09212D2002F0E0FE0921512021
S31508012AF002F0DCFE002008BD08B504F07FF801F0FD
S31508012B0002FC04F001F804F097F804F025F804F043
S31508012B1059F804F05DF8FFF7CDFF04F00BF801F062
S31508012B20E9FB01F0F9FC01F061FFBDE8084004F09A
S31508012B3005BF08B501F0E0FE00F03EF800F0DEF84A
S31508012B40BDE8084000F0E8B808B501F0D1FB05F08A
S31508012B504BFB04F073F804F06FFB0AF09FFA04F0DC
S31508012B60A9FD08F08FF80AF09FFCBDE8084000F0BF
S31508012B7063B808B503F0A6FF03F0AEFFFFF744FFFD
S31508012B80BDE80840FFF764BF08B501F0ABFABDE838
S31508012B90084001F067BB704708B501F0F7FABDE8D0
S31508012BA0084001F067BA08B5FFF73DFFBDE80840E0
S31508012BB0FFF76EBF7047000008B53A20012102F001
S31508012BC011FABDE80840014801F0A8BD54120020D9
S31508012BD070B5154E9AB0354606AC0FCD0FC495E8BB
S31508012BE00F0084E80F002C2200210FA841F08FFC6A
S31508012BF00E4B02AC0E9301238DF83D3056231093EC
S31508012C00052313930623159306F120030FCB84E8B6
S31508012C100F00074B2146009306AA0EAB054804F0A0
S31508012C20ABF91AB070BD00BFA86605080000015BC4
S31508012C3068190020E8190020FFF7CABF014B186878
S31508012C4004F0AABAE8190020FFF7F8BF014B1A6A7F
S31508012C5018681047E81900200120704701207047BD
S31508012C6010B501F0B9FA04460DF0D4F8002808BFEA
S31508012C70002401F02FFA002808BF0024FFF7ECFF13
S31508012C80002814BF2046002010BD38B505F05AF8B3
S31508012C90044601F0B1FA042825D002284FF00005B0
S31508012CA008BF01240DF0C4F804281ED0022808BF65
S31508012CB00124FFF7CBFF042819D0022808BF0124F5
S31508012CC001F0FEF9042814D0022808BF0124FFF7F1
S31508012CD0C5FF04280FD0022808BF0124002D18BFFC
S31508012CE00024204638BD0125DCE70125E1E7012559
S31508012CF0E6E70125EBE70024F3E7000008B50448F9
S31508012D0001F060FCBDE80840024801F05BBC00BF69
S31508012D10D8660508F066050808B5044801F074FD8B
S31508012D20BDE80840024801F06FBD00BF0867050805
S31508012D302067050837B5044610B30368B14A23F47A
S31508012D407F4323F00703934200F0748200F2A180C7
S31508012D50AD4A934200F0A4814AD8AC4A934200F0A6
S31508012D6018821FD8A2F54022934200F0348209D86E
S31508012D70A74A934200F03A81A64A934200F0998104
S31508012D8003B030BDA44A934200F04E8202F5802278
S31508012D909342F5D101F064FA01F063FAE388A28857
S31508012DA09E4912E19E4A934200F04A820ED8A2F544
S31508012DB0A022934200F0B68102F580329342DFD118
S31508012DC001F04EFA01F04DFA964914E1964A9342FA
S31508012DD000F0548202F540329342D1D101F040FA13
S31508012DE001F03FFA238991490093A38962894DE04D
S31508012DF08F4A934200F09C8123D8A2F5141293427C
S31508012E0000F0D9810ED8A2F57022934200F05D81B7
S31508012E1002F580229342B3D101F022FA01F021FA98
S31508012E208449E8E0844A934200F0BB8102F50C121A
S31508012E309342A5D101F014FA01F013FA22897F49C8
S31508012E4034E17F4A934200F0DD8110D8A2F5802251
S31508012E50934200F0FC8102F54032934290D101F091
S31508012E60FFF901F0FEF9638922897649ADE0764AD0
S31508012E70934285D101F0F4F901F0F3F9B4F8093078
S31508012E8072490093B4F80730B4F805207048006811
S31508012E907AE1704A934200F0A4814CD8A2F57F02E8
S31508012EA0934200F0B98126D8A2F51022934200F088
S31508012EB045810FD8A2F51412934200F0848102F5D8
S31508012EC0101293427FF45CAF01F0CAF901F0C9F917
S31508012ED0614990E0614A934200F0C08102F54032AF
S31508012EE093427FF44DAF01F0BBF901F0BAF963895A
S31508012EF022895B4969E05B4A934200F025810FD834
S31508012F00A2F55012934200F0258102F54C12934224
S31508012F107FF436AF01F0A4F901F0A3F952496AE04A
S31508012F20524A93427FF42CAF01F09AF901F099F9CC
S31508012F30227B4F49BAE04F4A934200F0C08028D815
S31508012F4002F17E4202F55412934200F0CB800FD86B
S31508012F50A2F50032934200F0DF8002F580329342F7
S31508012F607FF40EAF01F07CF901F07BF9424942E0AA
S31508012F70424A934200F07B8102F5403293427FF444
S31508012F80FFAE01F06DF901F06CF9D4F806203C4961
S31508012F908CE03C4A934200F0E4801DD802F17E425F
S31508012FA0934200F0988002F1807293427FF4E8AE72
S31508012FB001F056F901F055F933492079334AB4F845
S31508012FC00530002818BF0A4631492148006803B070
S31508012FD0BDE8304003F039BF2E4A93427FF4D0AEA4
S31508012FE001F03EF901F03DF92B4904E001F038F909
S31508012FF001F037F92949164B186803B0BDE8304086
S3150801300003F023BFA8001F02A0000601A8002400A0
S31508013010A0000600A8001400A8001F00646C05089B
S31508013020A8004D00DD680508A8004E007D6E05085C
S31508013030A8004801096D0508A80024012B6905089F
S31508013040A80051012A6D0508A0000602D2670508E5
S31508013050901A0020A80050035F690508A8004D02D0
S31508013060766D0508A80048038B690508A8004D0375
S31508013070A4700508A8001406A56A0508A8004D0449
S31508013080426E0508A8001409A8670508A06705087F
S31508013090426B0508A800140A38680508B4670508CC
S315080130A001F0DEF801F0DDF8A2887849784B186856
S315080130B02BE001F0D5F801F0D4F876499BE701F049
S315080130C0CFF801F0CEF8744995E701F0C9F801F097
S315080130D0C8F872498FE701F0C3F801F0C2F8A2886F
S315080130E06F49E3E701F0BCF801F0BBF8684B1868D3
S315080130F0A38803F44042B2F5404F0BD013F4805F26
S31508013100684B694A18BF1A46684903B0BDE830409A
S3150801311003F09BBE664AF7E701F0A2F801F0A1F8B1
S31508013120644968E701F09CF801F09BF8624962E797
S3150801313001F096F801F095F860495CE701F090F81E
S3150801314001F08FF85E4956E701F08AF801F089F82F
S315080131505C4950E701F084F801F083F8E2885A499E
S31508013160A4E7057901F07CF801F07BF8484BB4F83F
S3150801317007201868B4F809304DB15449544C012D4B
S3150801318018BF21460091534903F05FFEF8E55249FD
S31508013190F8E701F065F801F064F8E388A2884F4979
S315080131A013E701F05DF801F05CF823894C490093B7
S315080131B0E388A2886AE601F053F801F052F8E38839
S315080131C0A288484901E701F04BF801F04AF8E3887B
S315080131D0A2884549F9E601F043F801F042F8434966
S315080131E009E701F03DF801F03CF8D4F80E3028481B
S315080131F0019323893E490093A3896289006803F0F4
S3150801320024FEBDE501F02CF801F02BF82389394994
S315080132100093A389628939E601F022F801F021F8C1
S31508013220D4F80620344941E701F01AF801F019F8F3
S315080132303249E0E601F014F801F013F83049DAE60C
S3150801324001F00EF801F00DF8227B2E492EE701F068
S3150801325007F801F006F8227B2B4927E701F000F869
S3150801326000F0FFFFD4F80D30227B2849ADE600F0C7
S31508013270F7FF00F0F6FFE268254917E700F0F0FFCF
S3150801328000F0EFFFA289234910E700BF1968050876
S31508013290901A00204E6805086A6805088F680508AF
S315080132A0B0680508546705084A67050808690508E6
S315080132B038670508B7690508D86905080B6A050856
S315080132C03E6A0508726A0508D86A05087767050817
S315080132D08E670508FD6A05085E6705087C6B0508A3
S315080132E0C96B0508246C0508A76C0508EB6C05086D
S315080132F0CB6D0508DE6E0508406F0508816F050868
S31508013300B66F0508E96F05082070050853700508AA
S31508013310E57005082F71050800201AF0F7BB0000B3
S3150801332037B520F0F3FD044630B32E4D2E492868F3
S3150801333003F08BFD2D49286803F087FD00F090FF07
S3150801334000F08FFF2A4B2B4A00932B494923286803
S3150801335003F07BFD2346294A2949286803F075FDB0
S31508013360204600F0A5FF2749286803F06EFD1E498F
S31508013370286803F06AFDFEE7FFF728FB23464FF4AA
S31508013380FA61214A2148009400F0C8FD054630B388
S31508013390144C1549206803F058FD1449206803F0B8
S315080133A054FD00F05DFF00F05CFF114B114A0093DC
S315080133B011495423206803F048FD2B460F4A10494A
S315080133C0206803F042FD284600F072FF1049206884
S315080133D003F03BFD0449206803F037FDFEE703B01F
S315080133E030BD00BF901A002020610508245F05083A
S315080133F0B77205087D710508375F0508435F05083B
S31508013400465F0508F2710508193301080C1A0020F0
S315080134101A720508036837B523F47F431C4A23F05B
S315080134200703934232D1FFF7D1FA00234FF4FA6129
S31508013430184A1948009300F071FD054630B3174C38
S315080134401749206803F001FD1649206803F0FDFCC1
S3150801345000F006FF00F005FF134B144A14490093C8
S315080134602068842303F0F1FC2B46124A124920688E
S3150801347003F0EBFC284600F01BFF1049206803F017
S31508013480E4FC0749206803F0E0FCFEE703B030BD21
S31508013490A800140A193301080C1A0020901A0020F2
S315080134A020610508245F0508787205087D710508FD
S315080134B0375F0508435F0508465F05081A72050860
S315080134C037B520F023FD054630B3434C4349206800
S315080134D003F0BBFC4249206803F0B7FC00F0C0FECC
S315080134E000F0BFFE3F4B404A0093404960232068E5
S315080134F003F0ABFC2B463E4A3E49206803F0A5FC87
S31508013500284600F0D5FE3C49206803F09EFC334965
S31508013510206803F09AFCFEE71AF0A8FA044630B3CD
S315080135202D4D2E49286803F090FC2D49286803F093
S315080135308CFC00F095FE00F094FE2A4B2A4A009373
S315080135402A496323286803F080FC2346284A294927
S31508013550286803F07AFC204600F0AAFE2749286865
S3150801356003F073FC1D49286803F06FFCFEE7FFF7BB
S315080135701DFA23464FF4FA61214A2248009400F0C5
S31508013580CDFC054630B3144C1449206803F05DFCA4
S315080135901349206803F059FC00F062FE00F061FE51
S315080135A0104B114A009311496E23206803F04DFC14
S315080135B02B460F4A0F49206803F047FC284600F0BE
S315080135C077FE1149206803F040FC0449206803F09E
S315080135D03CFCFEE703B030BD901A002020610508C7
S315080135E0245F0508997205087D710508375F050886
S315080135F0435F0508465F0508F2710508517205081B
S31508013600193301080C1A00201A7205080321002033
S3150801361005F0CEB937B501687D4C21F47F4323F017
S315080136200703A342024600F0ED8004D8794A934283
S315080136300FD003B030BD7848834204D0774B0B4096
S3150801364077498B42F5D1104603B0BDE8304005F005
S31508013650E9B920F019FB054630B3724C7249206866
S3150801366003F0F3FB7149206803F0EFFB00F0F8FD66
S3150801367000F0F7FD6E4B6F4A00936F49542320689B
S3150801368003F0E3FB2B466D4A6D49206803F0DDFB29
S31508013690284600F00DFE6B49206803F0D6FB624907
S315080136A0206803F0D2FBFEE720F0E2FA054630B3C4
S315080136B05C4C5D49206803F0C8FB5C49206803F04F
S315080136C0C4FB00F0CDFD00F0CCFD594B594A0093DF
S315080136D059495C23206803F0B8FB2B46574A5849D9
S315080136E0206803F0B2FB284600F0E2FD564920683F
S315080136F003F0ABFB4C49206803F0A7FBFEE720F07B
S31508013700ABFA054630B3474C4749206803F09DFBA1
S315080137104649206803F099FB00F0A2FD00F0A1FDDF
S31508013720434B444A009344497123206803F08DFBB7
S315080137302B46424A4249206803F087FB284600F097
S31508013740B7FD4249206803F080FB3749206803F03A
S315080137507CFBFEE720F0B0FA054630B3314C32491E
S31508013760206803F072FB3149206803F06EFB00F014
S3150801377077FD00F076FD2E4B2E4A00932E497D23C8
S31508013780206803F062FB2B462C4A2D49206803F07A
S315080137905CFB284600F08CFD2D49206803F055FB9B
S315080137A02149206803F051FBFEE720F079FA054626
S315080137B000283FF43EAF1B4C1B49206803F045FB2C
S315080137C01A49206803F041FB00F04AFD00F049FD63
S315080137D0174B184A00931849A423206803F035FBB0
S315080137E02B46164A1649206803F02FFB284600F097
S315080137F05FFD1849206803F028FB0B49206803F090
S3150801380024FBFEE703B0BDE8304005F07FB900BFF1
S31508013810A8001E00A8001400A8001F02F800FFFE59
S31508013820A8001F00901A002020610508245F0508DA
S3150801383046740508D5720508375F0508435F05080C
S31508013840465F05084873050877730508A7730508D1
S31508013850DF7305080E74050800201AF057B9000031
S3150801386037B580B10368344A23F47F4323F007034D
S31508013870934257D009D802F17A42934247D002F1CE
S315080138808072934252D003B030BD2C4A9342FAD18A
S315080138902B4C8088FFF776F800F0E2FC00F0E1FC9B
S315080138A04FF4FA622749206803F0CFFA00234FF450
S315080138B0FA61254A2548009300F030FB05460028A1
S315080138C0E1D02349206803F0C0FA2249206803F0B1
S315080138D0BCFA00F0C5FC00F0C4FC1F4B1F4A204986
S315080138E000932068BB2303F0B0FA2B461D4A1E49F4
S315080138F0206803F0AAFA284600F0DAFC1B4920687A
S3150801390003F0A3FA1249206803F09FFAFEE7037948
S31508013910D0F80720B0F80510181E18BF0120FFF7C8
S3150801392019F8B0E78088FEF733FFACE7D0F8061040
S315080139308088FEF77DFFA6E7A8001406A8001407ED
S31508013940901A00206674050859380108401A0020A3
S3150801395020610508245F050852750508A274050843
S31508013960375F0508435F0508465F05082975050899
S31508013970014B1880704700BF86120020014B18883A
S31508013980704700BF8612002037B501210020194A69
S3150801399005F081FA044680B238B3174D17492868ED
S315080139A003F053FA1649286803F04FFA00F058FC59
S315080139B000F057FC134B144A14490093A4B2CB23C5
S315080139C0286803F042FA2346114A1249286803F087
S315080139D03CFA204600F06CFC0F49286803F035FADA
S315080139E00649286803F031FAFEE703B0BDE830401E
S315080139F0FFF7BEBFD4760508901A00202061050896
S31508013A00245F0508B276050880750508375F05083D
S31508013A1067760508465F0508F575050870470000CD
S31508013A2030B50368B24A23F47F4323F00703934270
S31508013A3004468BB000F0EB8042D8AE4A934200F0C0
S31508013A40AB800AD802F17F42934200F0A18002F5C9
S31508013A50501293420CD00BB030BDA74A934200F0E6
S31508013A60A08002F580329342F5D1037B9B07F2D5FC
S31508013A700023CDE90133B4F80D2019460092628975
S31508013A80208920F09DF904460028E4D0012000F0A1
S31508013A90C7FB0028DFD0994D9949286803F0D5F965
S31508013AA000F0DEFB00F0DDFB964A234696492868BE
S31508013AB003F0CBF9204600F0FBFB944A9449D2E087
S31508013AC0944A934238D02FD802F17F42934200F0AC
S31508013AD0318102F57F029342BDD10023CDE901333D
S31508013AE0B0F80D20194600924289008920F046F95E
S31508013AF004460028AFD0012000F092FB0028AAD086
S31508013B007E4D7F49286803F0A0F900F0A9FB00F073
S31508013B10A8FB7C4A23467C49286803F096F9204687
S31508013B2000F0C6FB7C4A9DE07C4A934200F0A180E6
S31508013B3002F5803293428ED10023CDE90233B4F8DF
S31508013B400F2019460192B4F80D2000926289208946
S31508013B5020F07AF9044600283FF47DAF012000F0F1
S31508013B605FFB00283FF477AF644D6549286803F089
S31508013B706CF900F075FB00F074FB624A2346624952
S31508013B80286803F062F9204600F092FB644A95E73B
S31508013B900379002B3FF45FAF0BB0BDE83040FFF768
S31508013BA0F3BEB0F80D3006AD4C2B00D00BBBFFF7BA
S31508013BB0E5FEADF81600FFF731FF29464C200DF159
S31508013BC0160205F020F8A0B10023CDE900056289A7
S31508013BD02089194620F092F80446002C3FF43BAFA1
S31508013BE0012000F01DFB00283FF435AF434D444941
S31508013BF068E0B4F80D3003228DF818301B0A8DF8E9
S31508013C001930002301958DF81A300092DFE700F18B
S31508013C1010030293C37B0193B0F80D300093002380
S31508013C2042891946008920F087F8044600283FF49E
S31508013C3012AF012000F0F4FA00283FF40CAF2F4D23
S31508013C402F49286803F001F900F00AFB00F009FB87
S31508013C502C4A23462C49286803F0F7F8204600F039
S31508013C6027FB304A304928680BB0BDE8304003F0DD
S31508013C70ECB8FFF783FE06ACADF81600FFF7CEFEEB
S31508013C8021464C200DF1160204F0BDFF00283FF431
S31508013C90E2AE0023CDE900041A461946184620F07B
S31508013CA02DF840F214539842044603D040F21553B6
S31508013CB0984292D1042000F0B3FA00283FF4CBAE23
S31508013CC00E4D1A49286803F0C0F800F0C9FA00F049
S31508013CD0C8FA23460B4A0C49286803F0B6F8204669
S31508013CE000F0E6FA124A1049286803F0AEF8B2E67F
S31508013CF0A8004702A8001401A8004701901A00204D
S31508013D001A760508435F0508465F05085F760508C4
S31508013D106E760508A80048034C760508A8004704EE
S31508013D20A37605083E7605081F7605085A7605081E
S31508013D30677605080023CDE90133B0F80D20194649
S31508013D4000924289008920F05DF8044600283FF474
S31508013D5082AE012000F064FA00283FF47CAE0A4DD9
S31508013D600A49286803F071F800F07AFA00F079FA3E
S31508013D70074A23460749286803F067F8204600F0F2
S31508013D8097FA054A9AE600BF901A00201A7605089E
S31508013D90435F0508465F050893760508036837B546
S31508013DA023F47F433A4A23F007039342044664D037
S31508013DB002F18272934268D1B0F80510212964D1C3
S31508013DC00122344B00791A70002219F071FE05465A
S31508013DD030B3314C3149206803F037F8304920684F
S31508013DE003F033F800F03CFA00F03BFA2D4B2E4A6B
S31508013DF000932E493F23206803F027F82B462C4AC7
S31508013E002C49206803F021F8284600F051FA2A497E
S31508013E10206803F01AF82149206803F016F8FEE72E
S31508013E20207919F011FE054600282ED01A4C1B4997
S31508013E30206803F00AF81A49206803F006F800F02A
S31508013E400FFA00F00EFA174B174A00931749432346
S31508013E50206802F0FAFF2B46154A1649206802F037
S31508013E60F4FF284600F024FA1349206802F0EDFF12
S31508013E700A49206802F0E9FFFEE7064B1B7823B1E1
S31508013E8003B0BDE8304004F03FBD03B030BD00BF0C
S31508013E90A0000601741A0020901A00202061050866
S31508013EA0245F05085F770508DE760508375F05088C
S31508013EB0435F0508465F05084E770508002209494C
S31508013EC00B684BB1834204D1436A4AB1536201205C
S31508013ED070471A465B6AF4E70028F5D0184670471A
S31508013EE00B60F4E7781A002010B5044690B104F087
S31508013EF0B5F92046FFF7E2FF58B194F8280040B11A
S31508013F0001F029FF044A1368013B136001F029FFF8
S31508013F10002010BD2220FCE77C1A00202DE9F04F75
S31508013F2085B00546914698460E469DF8387009B9FA
S31508013F30002F64D12846FFF7D7FF044600283CD155
S31508013F4085F82800286304F0D7FA864239D904F09F
S31508013F50A3FA40F2E7318C462146E6FB00C14FF44D
S31508013F607A726046002340F0BBF84FF0FF32002317
S31508013F7083468A4640F0B4F84FF0FF32688600233C
S31508013F805846514640F0ACF82B46CDE90044114657
S31508013F901C4A284604F0FDF9044670B91A4AC5E9CF
S31508013FA00798136885F82970EE6233B31A465B6A77
S31508013FB0002BFBD1556200236B62204605B0BDE894
S31508013FC0F08F304603A957B104F078FA0446002861
S31508013FD0F3D12B46CDE900000A4A0399D9E704F043
S31508013FE06DFA04460028E8D12B462846CDE9007724
S31508013FF0044A039904F0AAF9CEE71560DBE7212400
S31508014000DBE700BF0D400108781A002091F8283037
S3150801401013B50C4683B90B8E4A8E93420ED243B919
S31508014020CDE9003320460B46104A4FF0FF3104F024
S3150801403057F9238E0133238602B010BD52B191F888
S3150801404029307BB101230093D1E907232046C96AA8
S31508014050FFF764FF0123064A84F828301368013301
S315080140601360E9E7084604F0F9F8F3E70D4001089B
S315080140707C1A002070B5104D2B681BB100260F4B1A
S315080140801C6804B970BD94F8283093B101F063FE39
S315080140902B6884F82860013B2B6001F062FE94F8D6
S315080140A0293013B92046FFF709FFD4E9073120461D
S315080140B09847646AE5E700BF7C1A0020781A002051
S315080140C0034B1B68002B0CBF01200420704700BF5F
S315080140D07C1A0020024B1868B0FA80F04009704734
S315080140E07C1A002004210022024B19711A601973E7
S315080140F09A607047801A00202DE9F843204B05463F
S315080141001B78ABB94FF00208DFF87C901D4C59F8C3
S31508014110043BAB4207D1284600F059FA01280CD1D5
S3150801412004F094F92060B8F1010F04F1080401D1F3
S31508014130BDE8F8834FF00108E9E7284600F047FA99
S3150801414007460028EFD104F081F92368C61AFA2038
S3150801415004F0A8F9B04201D92771E4E74FF47A705F
S3150801416004F0A0F9B04202D901232371DBE741F239
S31508014170883004F097F9B0428CBF02230323F4E791
S3150801418088120020801A00207812002010B5094CE8
S315080141902179042904D00020FEF7BEF904232371EE
S315080141A0217B042904D00120FEF7B6F904232373E1
S315080141B010BD00BF801A0020054B1A783AB90121B3
S315080141C019700421034B19711A6019739A607047A3
S315080141D088120020801A0020054B187838B9054B3B
S315080141E01A79042A03D1187B031F5842584170478C
S315080141F088120020801A0020074B1B7843B9074B09
S315080142001879042806D11B7B042B08BF01207047A7
S31508014210012070470420704788120020801A002068
S315080142200B4B02461B788BB10A4B1B78834234BF72
S3150801423000200120084B1B783BB1084B1B7843FA39
S3150801424002F212F0010F08BF002070470120F1E7C2
S31508014250891200208A120020941A00208B1200204D
S3150801426070477047012208B5074B1A700022074BA1
S315080142701A700422064B1A701F22064B1A7002F096
S31508014280ABFD054B186008BD89120020941A002061
S315080142908A1200208B120020901A0020024B034933
S315080142A0186802F0D2BD00BF901A00207F77050872
S315080142B070B50C4C0C490646206802F0C6FD02F0A2
S315080142C08BFD0546206802F07BFD3046FFF7E6FFC9
S315080142D0284602F075FD20680449BDE8704002F0E1
S315080142E0B4BD00BF901A00208177050883770508B9
S315080142F00F20704708B501213A2000F073FEBDE88A
S315080143000840FEF7A4BB01213A2000F06BBEFEE788
S3150801431008B500F02DF8124B12498B4212D3002032
S31508014320114B12498B4218D3FDF746FF186850F80E
S315080143302240586840F82240013298688242F5D3F3
S315080143400C33EAE70022F8E71C6844F82200013238
S315080143505C68A242F8D30833E4E70022F8E700BF15
S3150801436058DC050864DC050864DC050864DC050816
S315080143704FF480414FF0FF30114B124A10B59A6045
S31508014380D3F8882042F47002C3F888200E4A916651
S315080143900E4901F5005210660D4850660220C3F811
S315080143A0D000BFF34F8FBFF36F8F01244FF4403313
S315080143B00848C0F88041D36004600B6110BD00BF96
S315080143C000ED00E000200108009000500080004444
S315080143D0F7FF370000E100E0014B1868704700BF9E
S315080143E090120020084B1B6F03F00703022B04D021
S315080143F0032B05D0012B05D0FEE7044B186870473F
S31508014400034BFBE7034870470080005090120020D9
S3150801441094120020002D310108B5FFF7E3FF054B83
S315080144201B6FC3F303330133B0FBF3F0024B186080
S3150801443008BD00BF008000508C120020004870475C
S3150801444000B4C404014B1868704700BF94120020D9
S31508014450054B1860054B1B6F03F00703032B01D1AE
S31508014460FFF7DABF704700BF9412002000800050A2
S315080144700020704700487047002D31014FF0B443C2
S315080144809868C0F304400C2822D8DFE800F0092117
S3150801449021212121071719211B1D1F000F487047CC
S315080144A09B6803F04073B3F1807F13D0B3F1007FAB
S315080144B012D00B4A002B08BF1046704709487047AF
S315080144C009487047094870470948704709487047BD
S315080144D0002070470848704708487047405DC60085
S315080144E000093D000024F400C0EA210180BA8C01CC
S315080144F00048E801005A620280841E0040420F000B
S315080145004FF4004070474FF47A707047014B1868B2
S31508014510704700BF981200204FF000639B6A10B5E0
S3150801452003F17842B2F5903F0AD2084C227812F08C
S31508014530FD0F08D1DB69984708B90123237010BD1F
S315080145404FF48170FBE70020F9E700BF951A0020B8
S315080145504FF00053074A1A60BFF34F8F0649074BBE
S31508014560CA6802F4E0621343CB60BFF34F8F00BF02
S31508014570FDE700BF02020FF000ED00E00400FA05B6
S3150801458000230360704703680B6001607047036886
S3150801459003B970478B4202D10B680360704718460E
S315080145A0F5E7000005490A681318054883428CBFD8
S315080145B04FF0FF320B601046704700BF9C12002077
S315080145C000000420436803B1184722207047436955
S315080145D003B11847FF20704710B40A681378022BF5
S315080145E011D014203023147913FB040307481B58F0
S315080145F05079C340DB4303F00103137008465DF8A5
S31508014600044BFFF779BD5DF8044B704730C0035082
S3150801461037B50468012105463A2000F0E3FC00237A
S3150801462001226179207901F0ABFF14223023217927
S3150801463013FB01230E4A9B586279D340DB4303F0EF
S3150801464001032370A379022B0ED100F055F92A46EE
S315080146500849607900F07AF90123024661792079DF
S31508014660CDE9003301F034FF002003B030BD00BFAF
S3150801467030C00350D945010803681878704700000F
S3150801468002681378022B24D014213023107913FBE6
S31508014690001310495B585179CB40917903F0010316
S315080146A0012912D1508843EA40034FF6E07063F0BE
S315080146B03F039BB2834202D11170538070474FF674
S315080146C0DF718B42F9D10021F6E711B983F00103B5
S315080146D01370704730C0035003681A78022A03D151
S315080146E000225A80FFF794BF704713B504682378F0
S315080146F0022B10D0A379022B0BD10021607900F08F
S3150801470013F90023627920791146CDE9003301F0C6
S31508014710DFFE0223237002B010BD00002DE9FF4120
S3150801472003680446B3F1B64F04D0354A934251D1D2
S315080147302F2000E02E20012100F054FC01230A223B
S315080147406179207901F01CFF01230A22E179A07918
S3150801475001F016FF092701262A4D4FF03008227964
S31508014760637908FB025206FA03F302F50152136054
S31508014770642004F0A1F82379627908FB035306FA49
S3150801478002F203F5825364201A6004F095F8013F9A
S31508014790E3D12068B0F1B64F1FD10323C5F8E83439
S315080147A06279237943EA0243C5F8EC34E279A379BD
S315080147B043EA0243C5F8F03440F20113ADF800307C
S315080147C0E36869460293A3680193237C8DF80C304C
S315080147D001F05CFF04B0BDE8F081094B9842EBD1CA
S315080147E00323C5F8F8346279237943EA0243C5F805
S315080147F0FC34E279A37943EA0243C5F80035DBE7DD
S315080148000080065000C00350D0E90003184710B5D0
S31508014810044601213A2000F0E5FBA3782078B3FA93
S3150801482083F3042261785B0901F0AAFE002010BD1A
S3150801483010B5012243780178847830209A40054BD7
S3150801484000FB01331CB903F501531A6010BD03F5CA
S315080148508253FAE700C0035010B501224378017864
S31508014860847830209A40054B00FB01331CB903F5C7
S3150801487082531A6010BD03F50153FAE700C00350CD
S315080148800122437801789A4030235943014B5A5003
S31508014890704700BF40F003501021302302460078CC
S315080148A013FB0013054950785B58C34003F0010018
S315080148B093780BB980F00100704700BF30C00350F0
S315080148C070B5044601250B4E04B970BD94FAA4F0DF
S315080148D0B0FA80F005FA00F306EB001224EA0304A5
S315080148E05368002BF0D0117B11B191689847EBE71B
S315080148F09847E9E7981A002008B5192001F034FA13
S3150801490028B14FF00072074BC3F880211A601A20AC
S3150801491001F02AFA28B14FF08062024BC3F88021D0
S315080149201A6008BD00E100E038B505460C4601F0FD
S3150801493012FA0022044B03EB05135C601A73BDE8F7
S31508014940384001F00EBA00BF981A0020F8B505469E
S315080149500F46164601F0FFF9104B05F0FC02D3F895
S3150801496024140023EC1804F00304144321FA04FC6C
S315080149701CF0010F07D00133042BF3D1FF2401F0FA
S31508014980F0F92046F8BDFF2CF9D00122044B03EBC0
S315080149900413C3E901761A73F1E700BF00C0035097
S315080149A0981A0020074BD3F82404D3F8202403F5DA
S315080149B00053104000F0553020F05020C3F8200471
S315080149C0FFF77EBF00C00350074BD3F82404D3F882
S315080149D0202403F50053104000F0AA3020F0A0204F
S315080149E0C3F82004FFF76CBF00C00350024B1968D7
S315080149F0024B186837F0FAB9A4120020A012002059
S31508014A007047000037B5920004460D46019241F001
S31508014A106BFA431C0BD060B929462046019A3FF030
S31508014A203FFD0028044808BF002003B030BD0348F5
S31508014A30FBE70348F9E700BF10E000F021E000F0CA
S31508014A4024E000F013B5044601A801F09FFE9DF885
S31508014A500630012223804FF4807300206380054BC2
S31508014A609B680A3303F01F0302FA03F3636002B07B
S31508014A7010BD00BF0080E00F01F03ABE08B501F095
S31508014A8027FE002008BD10B5044644EA010313F0C9
S31508014A900303084609D1934201D1002010BD54F8F9
S31508014AA0231040F823100133F5E7214692003FF021
S31508014AB007FDF2E710B5044641F01EFA431C15D06E
S31508014AC0B0B90C4B20469B680A3303F01F02012339
S31508014AD0934023F003032344984201D1002010BDDB
S31508014AE050F8042B0132F7D00348F8E70348F6E7F4
S31508014AF00348F4E70080E00F0EE000F021E000F043
S31508014B0024E000F008B501F01FF9014B186008BD53
S31508014B1028230020014B186801F01AB92823002020
S31508014B200A460139014402F021BE0000044BD3F8BC
S31508014B308420D206FBD4D3F88400C0F381107047D1
S31508014B400040005038B5174B0546D3F820310C46BE
S31508014B5003F00703013B052B20D8DFE803F0030B1D
S31508014B60130F171BFFF738FC052305B1286004B19D
S31508014B70236038BDFFF766FC0323F6E7FFF77EFCE3
S31508014B800723F2E7FFF776FC0223EEE7FFF724FC9B
S31508014B900623EAE7FFF756FC0423E6E7002318464F
S31508014BA0E3E700BF0080005038B5174B0546D3F838
S31508014BB028310C4603F00703013B052B20D8DFE813
S31508014BC003F003131B0F0B17FFF706FC052305B1AB
S31508014BD0286004B1236038BDFFF7FEFB0623F6E71C
S31508014BE0FFF74CFC0723F2E7FFF72CFC0323EEE75C
S31508014BF0FFF728FC0423EAE7FFF73CFC0223E6E774
S31508014C0000231846E3E700BF0080005073B50D4640
S31508014C100021114B0191D3F88041064604F00304A3
S31508014C20022C13D0032C0CD0012C13D101A8FFF7A9
S31508014C3089FF10240EB1019B336005B12C6002B0C7
S31508014C4070BDFFF71BFC07240190F3E7FFF712FC81
S31508014C500190EFE70C46EDE700800050002337B5D9
S31508014C600193154B0546D3F820320C4603F007038A
S31508014C70013B032B1ED8DFE803F0020E13180021AF
S31508014C8001A8FFF791FF12230DB1019A2A6004B119
S31508014C90236003B030BDFFF7F1FB07230190F3E76B
S31508014CA0FFF72EFC0A230190EEE7FFF72FFC0923F5
S31508014CB00190E9E70023E7E70080005038B5104B7B
S31508014CC00546D3F840310C4603F00303022B0BD0FB
S31508014CD0032B0DD0012B0FD1FFF712FC0A2305B1C7
S31508014CE0286004B1236038BDFFF710FC0923F6E7F5
S31508014CF0FFF709FC0C23F2E700231846EFE700BF8C
S31508014D0000800050002337B50193164B0546D3F8AA
S31508014D1060320C4603F00703013B032B1FD8DFE87B
S31508014D2003F0020E1914002101A8FFF70BFF102347
S31508014D300DB1019A2A6004B1236003B030BD002188
S31508014D4001A8FFF7BBFF1123F2E7FFF797FB07233C
S31508014D500190EDE7FFF78EFB02230190E8E70023B8
S31508014D60E6E700BF00800050002337B50193164BD4
S31508014D700546D3F894320C4603F00703013B032B8F
S31508014D801FD8DFE803F0020E1914002101A8FFF766
S31508014D90D9FE10230DB1019A2A6004B1236003B02C
S31508014DA030BD002101A8FFF789FF1123F2E7FFF7BC
S31508014DB065FB07230190EDE7FFF75CFB02230190F2
S31508014DC0E8E70023E6E700BF0080005038B5134B3B
S31508014DD00546D3F800320C4603F00703013B032BC3
S31508014DE018D8DFE803F0020A0E12FFF789FB0A2337
S31508014DF005B1286004B1236038BDFFF787FB092395
S31508014E00F6E7FFF780FB0C23F2E7FFF705FB0F2315
S31508014E10800AEDE700231846EAE700BF0080005044
S31508014E2038B5134B0546D3F808320C4603F0070389
S31508014E30013B032B18D8DFE803F0020A0E12FFF72D
S31508014E405FFB0A2305B1286004B1236038BDFFF76B
S31508014E505DFB0923F6E7FFF756FB0C23F2E7FFF79D
S31508014E60DBFA0F23800AEDE700231846EAE700BFBD
S31508014E700080005038B5104B0546D3F840320C4631
S31508014E8003F00303022B0BD0032B0DD0012B0FD1FB
S31508014E90FFF736FB0A2305B1286004B1236038BD44
S31508014EA0FFF734FB0923F6E7FFF72DFB0C23F2E79F
S31508014EB000231846EFE700BF0080005038B5104BB5
S31508014EC00546D3F860310C4603F00303022B0BD0D9
S31508014ED0032B0DD0012B0FD1FFF712FB0A2305B1C6
S31508014EE0286004B1236038BDFFF710FB0923F6E7F4
S31508014EF0FFF709FB0C23F2E700231846EFE700BF8B
S31508014F000080005070B5054614460E4600F01CFF99
S31508014F10296881EA040202EA06044C402C60BDE8CD
S31508014F20704000F015BF0000B0F5207F1FD009D8EA
S31508014F30B0F5007F15D003D868B1B0F5C07F0AD0A7
S31508014F4000200CE0B0F5607FFAD10B4BD3F8800056
S31508014F50C0F3011003E0084B186FC0F303300130AA
S31508014F607047054BD3F89000C0F30460F7E7024B8E
S31508014F70186FC0F38020F2E70080005002464FF414
S31508014F808030104B10B598660020FFF7CDFF5043CF
S31508014F9041F671320C4BDC69DA635A6804F48034E1
S31508014FA022F4401259B9094988428CBF4FF480103E
S31508014FB00020104358600CB10022DA6310BD044981
S31508014FC0F2E700BF0090005000000350005A620249
S31508014FD0002D310108B5FFF731FABDE80840002177
S31508014FE0FFF7CCBF430905D0012B0DD0022B094B86
S31508014FF018BF002300F01F0041B103F580530122B9
S3150801500002FA00F018607047034BF3E703F5005303
S31508015010F5E700BF68800050648000501FB5002284
S3150801502080280446019200F0BA8048D8002800F08A
S31508015030BA80A0F120043D2C54D83D2C52D8DFE883
S3150801504014F0B200BE00B200BE00D700D700D700E8
S31508015050D700D700BE00E1005B00F70081005B00C6
S31508015060BE00BE00BE005100510051005100510062
S31508015070510051005100BE00BE00BE008900010169
S31508015080BE0051005100510051005100510051001C
S31508015090510051005100510051005100D700B20092
S315080150A0B200B200FC005B005B00060198006C00D0
S315080150B0DC0051005100510051005100A900B0F522
S315080150C0B06F00F09F802DD8B0F5207F77D00CD82F
S315080150D0B0F5C07F67D0B0F5007F67D0B0F5807FA7
S315080150E000F09580019804B010BDB0F5607F6CD0D2
S315080150F00DD8B0F5407FF5D1FFF78EF902464FF48A
S315080151002070FFF711FFB2FBF0F0400849E0B0F557
S31508015110806F6DD0B0F5A06FE4D1002101A8FFF72B
S315080151209DFDDFE7B0F5106F00F0878017D8B0F561
S31508015130E06F00F087800AD8B0F5C06F78D0B0F577
S31508015140D06FCFD1002101A8FFF740FECAE7B0F51D
S31508015150F06FC7D1002101A8FFF7B0FEC2E7B0F58D
S31508015160406F4AD013D8B0F5206F70D0B0F5286FCC
S31508015170B8D10021384B0391D3F8703203F00303F9
S31508015180012B02D103A8FFF799FD039B49E0B0F56E
S31508015190486FA7D1002101A8FFF7E6FDA2E7FFF7AF
S315080151A021F901909EE7FFF737F9FAE7FFF71AF9B0
S315080151B002462046FFF7B8FEB2FBF0F0F1E7FFF72B
S315080151C02BF902464FF42070F4E7234BD3F88030CD
S315080151D003F00303012B04D0022B06D04FF46070B1
S315080151E0E8E7FFF7FFF80246F8E7FFF747F9FAE7B6
S315080151F0002101A8FFF7A6FC74E7002101A8FFF723
S31508015200D3FC6FE7002101A8FFF700FD6AE74FF01D
S31508015210E02302921B695B0705D5FFF7FDF80290AB
S31508015220029B01935EE703A902A8FFF747FDF7E78B
S31508015230002101A8FFF742FD54E7002101A8FFF765
S31508015240EFFD4FE7002101A8FFF714FE4AE7002109
S3150801525001A8FFF757FD45E70080005008B58020F3
S31508015260FFF7DCFE034B98429EBF4FF48032024B98
S315080152701A6708BD005A620200A000501FB5002334
S31508015280B0F5807F019300F0C38064D85D2855D8B6
S315080152904C2807D82D2847D823282BD8019805B09C
S315080152A05DF804FB4D381028F8D801A353F820F00F
S315080152B0075401089D5201089D5201089D52010893
S315080152C0B95301089D5201089D520108A5540108C8
S315080152D0D75301087D5301089B5401089D520108C3
S315080152E09D5201089D5201089D5201089D520108CF
S315080152F0AF54010824380928D0D801A353F820F05F
S3150801530007540108075401080754010807540108FE
S31508015310075401089D520108FD5301089D520108D1
S31508015320995301083D5401083D2800F082803E2822
S31508015330B4D1002001A9FFF79DFDAFE78028ADD1C3
S31508015340604B1B6F03F00703013B032BA6D8DFE86D
S3150801535003F05350878FB0F5F06F6AD021D8B0F5B6
S31508015360B06F4BD00FD8B0F5607F00F0858095D32C
S31508015370B0F5806F47D0B0F5A06F8FD1002001A995
S31508015380FFF76CFC8AE7B0F5D06F57D0B0F5E06F40
S31508015390CFD0B0F5C06F81D1002001A9FFF78EFCEF
S315080153A07CE7B0F5206F7DD00BD8B0F5086F4AD0F1
S315080153B0B0F5106F7FF472AF002001A9FFF730FD39
S315080153C06CE7B0F5406F68D0B0F5486F6FD0B0F5AF
S315080153D0286F7FF463AF00213A4B0391D3F87032FB
S315080153E003F00303012B67D0022B14BF0B461523C9
S315080153F000E00523019351E70223FBE7002001A9F9
S31508015400FFF704FC4AE7002001A9FFF79BFB45E7E4
S3150801541002934FF0E0231B695B0705D5FEF7FCFFF6
S315080154200D230393039BE5E703A902A8FFF746FCAF
S31508015430F8E7002001A9FFF741FD2FE7002001A9A0
S31508015440FFF7C4FC2AE71F4BD3F8003103F0030327
S31508015450022B07D0032B09D0012B0BD1FEF7F2FF44
S315080154600323C7E7FFF752F80923C3E7FFF700F855
S315080154700823BFE70123BDE7124AD2F8802002F0CC
S315080154800302012A05D0022AB4D1FEF7F7FF072342
S31508015490B0E7FEF7A7FF0E23ACE7002001A9FFF747
S315080154A083FBFBE6002001A9FFF72CFCF6E60020AA
S315080154B001A9FFF759FCF1E603A8FFF7FFFB112342
S315080154C098E700BF0080005008B5FFF7D7FE092806
S315080154D011D00A38012811D84FF48002094B4FF62A
S315080154E0FF705A6603F5D8335B6A13F0010F18BFCC
S315080154F04FF4FA7008BD044B1888FBE74FF6FF70A6
S31508015500F8E700BF00900050C612002038B50446DF
S315080155108020FFF7B3FE032800F083804FF4801242
S31508015520504B4FF0A0615A6645F60E034E4AC2F833
S3150801553080304E4B99624FF4803103F5805399625E
S31508015540916D11F48031FBD1D4E900031B0543EABF
S315080155500063E07B0343207B43EA0043607B43EA25
S315080155600033A07B43EA801313619069D4E904539D
S315080155701B0643EA856300F000400343A07EE57EEF
S315080155800343207E43EA0043607E43EA0023936196
S31508015590E069136A00280CBF0022082223F00F03D2
S315080155A043EA000343EA850343EA02032E4A304DE0
S315080155B0136237D194F82430916A94F82000DB00FD
S315080155C00D4043EA401394F821102B4343EA011393
S315080155D043F480339362274B916D33EA0101FBD182
S315080155E04FF08071214881621369A56823F470031D
S315080155F043EA055313614FF00043836194F822305F
S315080156000BB91D4B996294F823301BB94FF48032BC
S31508015610194B9A6294F825301BB1134B174AC3F8F4
S31508015620802038BD022808D11161154891614FF4CF
S3150801563008524FF47F41FFF765FC0B4994F8223075
S315080156408A6A94F820001B06154043EA401394F829
S3150801565024202B4343EAC20394F8232043EA024356
S315080156608B62D7E7009000500040005A0050005A5C
S31508015670C7FFFEFE030001000060005AF1A7FFFF05
S315080156803440005A014B93F900007047C4120020B8
S31508015690F0B5D0E901434FF400061A4A4178057876
S315080156A056664FF4D156022702F5B8325662164E9F
S315080156B04F2977604FF0010728BF4F2106F580561D
S315080156C077601669F603FCD441EA052151611B018D
S315080156D0417B43EA04230B43017B43EA410393607D
S315080156E0C37B817B1B0143EA4113417C0B43017C4C
S315080156F043EA41035360837C13B16FF4D153536278
S31508015700F0BD00BF0090005000100250014B1880F8
S31508015710704700BFC61200204FF4800208B5184B27
S315080157205A660223174A5360936813F48033FBD1F0
S31508015730012822D1FEF786FE134B984215D003F5B0
S31508015740122303F5F863984213D0104B00EB80023D
S31508015750400AB3FBF0F0520A0A4BDA6201221863D7
S315080157605A620022074B5A6008BD45F67A10084A64
S31508015770F2E745F61A00074AEEE75362F1E700BF7A
S31508015780009000500040025000F0490264666666C7
S31508015790D8B80500BBCF05000029CCBF01210021DF
S315080157A0FFF7ECBBB0F5207F10B50C4657D008D8EB
S315080157B0B0F5007F48D003D830B3B0F5C07F23D009
S315080157C010BDB0F5607FFBD129492A48D1F8FC20E4
S315080157D012F080721EBFD1F8FC3023F08073C1F835
S315080157E0FC30D0F88030611E23F0300444EA0114FD
S315080157F0C0F88040002AE3D01D4AD2F8FC3043F0B5
S315080158008073C2F8FC30DBE7FFF7E4FB00F036F8FB
S315080158104FF48031184B174A1967136F611E23F429
S31508015820704444EA01341467FEF7F6FD0446FFF7AF
S315080158307DF9C0F102012046FFF7AEFF00F024F81A
S31508015840BDE81040FFF70ABD0A4A0139D2F890307F
S3150801585023F0F85444EA0164C2F89040B0E7054BD6
S31508015860013C196F21F4806141EA84241C67A7E78A
S3150801587000ED00E0008000500090005002214FF436
S315080158802070FFF78FBF000008B54FF4C070FFF70F
S31508015890C5FBBDE80840044988428CBF02210121A5
S315080158A04FF42070FFF77EBF80F0FA02B0F5807FD3
S315080158B0F8B50C4600F04E816BD85D285DD84C28AA
S315080158C004D82D2844D8232828D8F8BD4D381028BF
S315080158D0FBD801A353F820F0355B0108CB58010822
S315080158E0CB580108CB5801082F5A0108CB58010893
S315080158F0CB580108E95C0108675A0108BF59010834
S31508015900C95C0108CB580108CB580108CB580108D6
S31508015910CB580108CB580108095D01082438092824
S31508015920D3D801A353F820F0355B0108355B01088C
S31508015930355B0108355B0108355B0108CB58010861
S31508015940155B0108CB580108F5590108035C0108E4
S315080159503D2800F046813E28B7D1093C032C8CBF6F
S315080159600021B04BB04A98BF195DD2F8403223F0F6
S3150801597003030B43C2F84032A7E78028A5D18B1E43
S31508015980062B00F2C480DFE803F0BFADC27EC2C2B7
S31508015990BC00B0F5F06F00F024813BD8B0F5B06FCC
S315080159A000F0B8801BD8B0F5607F00F067818CD312
S315080159B0B0F5806F00F0BE80B0F5A06F85D1073CC9
S315080159C00B2C8CBF0021994B974A98BF195DD2F8C9
S315080159D0203223F007030B43C2F8203275E7B0F5EE
S315080159E0D06F00F00E81B0F5E06FB6D0B0F5C06F9C
S315080159F07FF46BAF093C032C8CBF00218C4B8A4A80
S31508015A0098BF195DD2F8403123F003030B43C2F85E
S31508015A1040315AE7B0F5206F00F0668117D8B0F526
S31508015A20086F00F01B81B0F5106F7FF44EAF093C8B
S31508015A30062C8CBF00217F4B7B4A98BF195DD2F893
S31508015A40083223F007030B43C2F808323DE7B0F5E5
S31508015A50406F00F03981B0F5486F00F05581B0F517
S31508015A60286F7FF432AF112C00F05E81152C14BF1C
S31508015A70002102216C4AD2F8703223F003030B434A
S31508015A80C2F8703221E7002502264FF4803701213A
S31508015A90022000F0C7F9FFF79DFAFFF7EFFE664B04
S31508015AA0614A1F67136F23F0070333431367FEF732
S31508015AB0B3FC0646FFF73AF8C0F102013046FFF794
S31508015AC06BFE0121002000F0EDF9FFF7DDFEFFF77F
S31508015AD0C5FB002D7FF4F9AE032C7FF4F6AE574BC8
S31508015AE09F62F2E64FF48012534B0E465A664FF404
S31508015AF08032534B9D6A03F58053C5F300659A625C
S31508015B00C3E700250426C0E700250126BDE70025D1
S31508015B102E46BAE7023C0E2C8CBF0021494B424A5D
S31508015B2098BF195DD2F8803123F003030B43C2F8FD
S31508015B308031CAE6023C052C8CBF0021424B3A4A09
S31508015B4098BF195DD2F8203123F007030B43C2F839
S31508015B502031BAE6A1F10904082C3FF6B6AE01A335
S31508015B6053F824F0895B0108895B0108CB580108C1
S31508015B70895B0108B75B0108CB580108CB580108B6
S31508015B80CB580108895B01084FF48032264B2F490F
S31508015B90586E03F580535A664B6A43F001034B620C
S31508015BA0C1035CBF2A4B5A664FF0E022136923F002
S31508015BB00403136189E64FF480321B4B2349586E5F
S31508015BC003F580535A664B6A23F001034B62C303FC
S31508015BD05CBF1F4B5A664FF0E022136943F004037A
S31508015BE0E7E7093C032C8CBF00211A4B0E4A98BFE4
S31508015BF0195DD2F8603123F003030B43C2F8603113
S31508015C0063E6093C062C8CBF0021134B064A98BF54
S31508015C10195DD2F8003223F007030B43C2F80032AC
S31508015C2053E600BF11780508008000502C78050856
S31508015C301178050815780508009000500060005A8B
S31508015C400040005AFC7705080B78050800C0075084
S31508015C5000A000501178050815780508CC1E062CF9
S31508015C608CBF0021314B324A98BF195DD2F80031F9
S31508015C7023F003030B43C2F8003126E62D49063CFF
S31508015C80D1F8FC2012F080721EBFD1F8FC3023F047
S31508015C908073C1F8FC30082C8CBF0020264B2449A0
S31508015CA098BF185DD1F8803023F003030343C1F888
S31508015CB08030002A3FF409AE1E4AD2F8FC3043F080
S31508015CC08073C2F8FC3000E6023C052C8CBF00212B
S31508015CD01A4B174A98BF195DD2F8283123F00703E2
S31508015CE00B43C2F82831F0E5023C0F2C8CBF00218A
S31508015CF0134B0F4A98BF195DD2F8603223F0070398
S31508015D000B43C2F86032E0E5023C0F2C8CBF002140
S31508015D100C4B074A98BF195DD2F8943223F0070352
S31508015D200B43C2F89432D0E50121A3E61C78050895
S31508015D300080005000ED00E0237805080B7805087F
S31508015D403878050838780508EFF3108072B6704779
S31508015D5000B962B67047EFF31180302383F31188D7
S31508015D60704780F311887047054B420953F8223072
S31508015D7000F01F0023FA00F0C04300F0010070474D
S31508015D8000E100E0024A536B0342FCD1704700BFB1
S31508015D9000400950044A4178536F23F4407343EA9B
S31508015DA001235367704700BF004000507047704792
S31508015DB00A4A10B51369044643F00403136102F055
S31508015DC08DF8FFF7F3FF30BFFFF7F1FF02F09AF8FE
S31508015DD01CB9BDE81040FEF71FBB10BD00ED00E081
S31508015DE0084A10B51369044643F00403136102F027
S31508015DF075F830BF02F086F81CB9BDE81040FEF709
S31508015E000BBB10BD00ED00E070477047034A0179EE
S31508015E10D36E23F030030B43D3667047004000501E
S31508015E2070470000F8B504461C4BD3F88420D10608
S31508015E30FBD4D3F88430C3F381139C422CD0FEF7EC
S31508015E40D1FA012C064602D12146FFF7A5FCFFF738
S31508015E507BFF4FF00072124B07465A662046FFF742
S31508015E60DFFF4FF480630D4D621E93402B676B6E07
S31508015E709A0103D4D5F884309B060AD53846FFF72C
S31508015E8067FF022C08D13046BDE8F8400021FFF72C
S31508015E9083BCD5F88430EAE7F8BD00BF004000505E
S31508015EA00060005007B518B90191FEF79BFA0199F0
S31508015EB0064B1B7843B1064B984205D8012003B01F
S31508015EC05DF804EBFFF7AEBF0220F8E7DC230020FC
S31508015ED0005A62020278034B012100201A70FFF76B
S31508015EE0E1BF00BFDC2300204FF00042154B10B57F
S31508015EF05A664AF6CD3314494C6C0B6404F0010416
S31508015F0088B90120FFF73EFF4B68DB0704D50F4B25
S31508015F1058600B6BD807FCD514B10B4B0C4A1A64A5
S31508015F2037F0A7F810BD0B6B1A07FCD42022074BD4
S31508015F309A620122A3F580535A60034A936A9B0623
S31508015F40FCD5E9E70090005000400950006009506F
S31508015F503254FFFF4FF0004238B5164B01465A66D8
S31508015F604AF6CD33144C154A656C236443780B20E5
S31508015F705B0043F00103D363FFF704FF63688A7884
S31508015F8023F4F87343EA02136360CA784B7943EA48
S31508015F900223A3600A798B7943EA022323610878ED
S31508015FA0FFF7A2FFEB0744BF054B236437F061F8FF
S31508015FB0012038BD009000500040095000400050B3
S31508015FC03254FFFF4FF00042124B70B55D6E03F578
S31508015FD080535A664AF6CD3304460F4980204E6CE3
S31508015FE00B64FFF7CFFE0B6A23F00F030F2C94BF48
S31508015FF0234343F00F030B62F30744BF074B0B64BC
S31508016000002DA2BF4FF00042054B5A6637F031F812
S3150801601070BD00BF00800050004009503254FFFF98
S3150801602000A000504FF00042104B70B55D6E03F5AD
S3150801603080535A664AF6CD3304460D4980204E6C84
S315080160400B64FFF79FFE0B6A23F4F85343EA042314
S315080160500B62F30744BF074B0B64002DA2BF4FF039
S315080160600042054B5A6637F004F870BD00800050AF
S31508016070004009503254FFFF00A00050436D0B4207
S31508016080FCD1704708B54368DA0714D58368DB077E
S3150801609002D50369D90707D50A2350218363FFF778
S315080160A0EDFF836C9A07FCD1012200F500535A6073
S315080160B043689B07FCD408BD38B50C460121024646
S315080160C000F58053596004F00F0540F6FF71FFF79C
S315080160D0D5FF78218563FFF7D1FF04F00103610736
S315080160E048BF43F00203916C01F003019942FAD1CA
S315080160F038BD000010B5FFF7C5FF042300F5805130
S3150801610000F500520B6113610B6113610B61136199
S315080161100B611361202341F2020103610023C3606D
S31508016120836041614FF4A02183618365416205491A
S31508016130C36103628362C36243630365D164036314
S3150801614010BD00BFFF3F0D0309B9FFF79BBFFFF75E
S31508016150B3BF836C1B06FCD5C06BC0B27047836C9A
S315080161605B06FCD541647047F8B5054614460846F2
S3150801617041B9344B9D422FD0334B9D4208BF57201E
S31508016180FEF74CFFAB68DE072ED5B0FBF4F46E685C
S31508016190013C16F0010625D028212846FFF76EFF97
S315080161A0AB6C99071AD1AB6CDA0719D4AB6C13F03F
S315080161B0020F0CBF002706272846FFF763FF286949
S315080161C020F07F4040EA04642C61DEB13946284656
S315080161D0BDE8F840FFF7B8BF5620D1E70527EBE73A
S315080161E00927E9E73746EAE76B68AB6DAF68DB076E
S315080161F007F0E00748BF6400402F1BD003D8DFB182
S31508016200202F1BD0F8BD602F1AD0802FFAD1012676
S3150801621004FB06F34101B1FBF3F30C4A203B02EA06
S31508016220C30228460121FFF729FF2A63BDE8F84082
S31508016230FFF724BF0626EBE71026E9E70826E7E776
S315080162400426E5E70000015B00000A50F8FF7F001D
S31508016250F8B51E46436804460D4617461BB140F677
S31508016260FF71FFF70BFF2046FFF744FFE9896B7BB8
S3150801627062690B43298A22F44C520B4322F00F021E
S3150801628013436361A2682B7E297B22F0804222F0A8
S31508016290E202194311436A691143AA68A1601AB94E
S315080162A0A26842F00042A260E869002862D0A268AA
S315080162B0017A42EA8152A260A268817A42EA41429F
S315080162C0A2608288A16802F4C0420A43A260A26859
S315080162D0417842EA8102A260A268417B42EAC10290
S315080162E0A260A268817B42EA0112A260A268817853
S315080162F042EA8122A260C2798179520242EA812266
S31508016300E260027802F0FD01012908BFE168A2F105
S31508016310020204BF41F00401E160012A5A495B4ABD
S3150801632078D88C4274D05A498C420CBF01214FF05F
S31508016330FF3102EB411241F294414FF0020C42F84F
S3150801634001C0427A04F580518A621AB1E26842F4C0
S315080163500062E260C27A6AB1E2684B4942F40042DD
S31508016360E260027B8C424B4902F00F0208BF4A6782
S31508016370C1F8802047B197F8202004F5805C002AEF
S3150801638057D00122CCF820207EB304F5805013B1F2
S315080163904FF40043836596F821203B4B102A3E496A
S315080163A057D89C4253D03A4B9C420CBF01234FF01D
S315080163B0FF330127CF54768C3349B6F5006F374B37
S315080163C055D88C4251D032498C420CBF01214FF02D
S315080163D0FF3101275F54A36D324323F4F95323F0A8
S315080163E01E031343A3650123836505212046FFF791
S315080163F063FEAA6812B16968FFF7B6FE20462978D6
S31508016400FFF7A2FEA36CDB4313F4405FFAD1F8BD94
S3150801641000218EE78C420AD01D498C420CBF01210E
S315080164204FF0FF3102EB411242F2944185E7002118
S31508016430F8E797F82210E06997F821200A4320F037
S3150801644009010A4342F00102CCF81C209CE700230B
S31508016450AFE79C4207D00E4B9C420CBF01234FF07D
S31508016460FF330227A6E70023FBE70021B1E78C42A9
S3150801647007D007498C420CBF01214FF0FF31022793
S31508016480A8E70021FBE700BF0000015B00C003503D
S3150801649000000A5000900350DF230020DD2300206E
S315080164A000231A46FFF7D4BEFFF7FABF70B50546B3
S315080164B014460E46FFF748FC296881EA040202EAF7
S315080164C006044C402C60BDE87040FFF741BC000053
S315080164D0072AF7B501F0030614461F464FF00301D4
S315080164E02CD89500A94000FA05F21C480191FFF73E
S315080164F0DDFF01991A4806FA05F2FFF7D7FF194B8E
S3150801650019499DF82000002F08BF1946012303FAEF
S3150801651004F40C60154B1649002808BF0B461C608D
S31508016520144B9DF82400C3F820441031A3F6DC333C
S31508016530002808BF0B461C6003B0F0BDA2F1080590
S31508016540AD00A94000FA05F20B480191FFF7AEFF2D
S3150801655001990A4806FA05F2CFE700BF00C40350BD
S3150801656008C4035010E4035010D4035014D4035044
S3150801657014E4035000E0035004C403500CC4035050
S315080165802DE9F04105460F461E4690464AB10123BC
S315080165903022194C8B4002FB00443EB304F5825469
S315080165A023600F21072F05EB450388BFA7F10804D0
S315080165B04FEA0313114895BFBC00A40004330C33FA
S315080165C008FA04F2A1401844FFF770FFB8F1000F6A
S315080165D00AD101213020084A01FA07F700FB0522F2
S315080165E03EB102F582521760BDE8F08104F5015407
S315080165F0D6E702F50152F6E700C0035030C0035052
S31508016600F8B505460E4614465AB3826803F00307E1
S3150801661022F440728260FFF797FBAA6882EA072391
S3150801662003F440735340AB60FFF792FB36B9B5F1FB
S31508016630B64F17D12E20FEF7F1FC0646AB680C4B78
S31508016640D85D60430DD06FEAC4040444A319B3FBB3
S31508016650F0F3AA68013B920702D5002B08BF012374
S31508016660AB61F8BD034B9D42E8D12F20E3E700BF9C
S315080166704878050800800650043021B100F580509D
S3150801668001230360704700F50050F9E738B5002388
S315080166900E4A036400F50053DA634A7804460D4648
S315080166A000F108037AB903F5805302221A602046DD
S315080166B0D5E901122B7BFFF7A3FF20462978BDE810
S315080166C03840FFF7D9BF03F50053EEE7FFFF1F0078
S315080166D04FF48032054B9A6641F6713203F51C3345
S315080166E0DA63012203F50053DA607047009000501F
S315080166F041F671320121064BDA6303F50052D16086
S315080167000022DA634FF48032A3F518339A6670478C
S3150801671000000350436813B9416070475B685A68C3
S31508016720012AFBD159607047836813B981607047A4
S315080167305B685A68012AFBD159607047C369032B04
S315080167409FBF00EB83020133D160C3617047C36900
S31508016750042B15D84FF09842116CC902FCD50433A5
S315080167609B0013650168103B116041680C3011608C
S3150801677050F8041C034411604FF09842984200D126
S31508016780704750F8041B1160F8E700004FF4803297
S31508016790064B5A6603F5E6239B69C3F38512827095
S315080167A003F03F021B0B42700370704700900050C4
S315080167B040F6B732064B5B689BB293429FBF4FF4D4
S315080167C07A72B3FBF2F3034AD05C88BF00207047A4
S315080167D00080E00F4C780508054B9A689107FCD4B0
S315080167E05A689207F9D4DA69002AF6D1704700BFC8
S315080167F000800A5008B5FFF7EFFF0122024B03F5A7
S3150801680080514A601A6108BD00800A50074B5A68D0
S31508016810012A0AD15A68D20702D5DA69002AF9D1BA
S3150801682002221A610122024B5A60704700800A50FF
S3150801683000A00A5010B5064CFFF7CEFF6368012B7E
S3150801684003D1FFF7E3FFFFF7C7FF0378E36010BD46
S3150801685000800A50E8B94A680B7812B1127843EAFF
S31508016860C2034A78002A14BF0222002213438A6807
S3150801687012B1127843EA82138A78002A14BF0422D5
S3150801688000221343CA6812B1127843EA4223014A25
S315080168909364704700800A5008B9014B59647047E0
S315080168A000900A5008B9014B5964704700A00A5074
S315080168B008B9014B1964704700A00A5010B9024B78
S315080168C0186C70470020704700800A5048B911B10A
S315080168D0012903D07047044BD86C7047024B186DD9
S315080168E070470020704700BF00800A5040B911B1B7
S315080168F0012903D07047034BDA647047014B1A65C7
S31508016900704700BF00800A5038B50446054D36F079
S31508016910D6FB0FCC0FC594E8030085E803000020D9
S3150801692038BD00BFE423002047F6FF739A42F0B54D
S3150801693063D0022963D8334BCF0003EBC10013F8A8
S3150801694031108478012913D10025C3781B1B9D4278
S3150801695002D3E018C0B2F0BD591B4668A3EB51013A
S3150801696036F911609642D4BF0D4601F1FF33EEE7C1
S3150801697040680028EFD0B0F90010914204DBB0F965
S3150801698002109142B8BF114682883B44FF2A19BFBB
S31508016990C8222826B0F90620B0F90860A2EB010240
S315080169A00CBF0125002592FBF6F25F782A447B1E6F
S315080169B0934228BF13464FF47A7E00EBC305AE68AF
S315080169C0EA88AC4611FB02621E4622EAE2720133EC
S315080169D002F5FA729F42B2FBFEF204D9BCF80CC06A
S315080169E008359445EBD200EBC6008088904228BF53
S315080169F01046A04238BF2046ACE7FF20ABE700208F
S31508016A00A9E700BFE42300200229F0B553D82B4893
S31508016A1000EBC10410F83110636801290FD1E07841
S31508016A20A478904294BFC4EB0001C4EB0201001B99
S31508016A30CAB28242C8BF002233F91200F0BD002B48
S31508016A4039D0A178914202D3B3F90200F6E7E17889
S31508016A50B3F900009142F1D999886478A1F1FF064A
S31508016A60013C714203F10405E4B2714103F10C07DB
S31508016A701FFA82FCCEB2B44216D805EBC1014FF417
S31508016A807A756A43B1F902404968521A04EBD4711E
S31508016A9002EB610292FBF4F29042CFDBB3F90200FA
S31508016AA09042CBDC10B2C9E737F831E04E1CE64517
S31508016AB0E3D33146DEE70248C0E700BFE4230020FE
S31508016AC00080FFFF0148FFF71FBF00BF5078050888
S31508016AD000487047C81200207FB50222094B4FF4BF
S31508016AE08131CDE901234FF00073CDE9031300236A
S31508016AF001A94FF0FF30059336F062FB07B05DF848
S31508016B0004FB00BF006A180007B5094B18689A8884
S31508016B109B7900906846ADF804208DF80630FFF79A
S31508016B2019FA0C20FFF74EFA002003B05DF804FBB2
S31508016B30CC78050813B50024064A6846536F43F016
S31508016B400103536700948DF80440FFF75FF9204667
S31508016B5002B010BD0040005030B58BB06C46154DE3
S31508016B600FCD0FC40FCD0FC495E8030084E80300C9
S31508016B70114BD3F84C21120314D4D3F85041E4B283
S31508016B808DF81940FEF77EFD204480F308008DF844
S31508016B9018000A48FDF75CFC6846FEF7B7FC0020BA
S31508016BA00BB030BD064B1C884FF6FF739C4208BFDD
S31508016BB08C24E5E7D47805080080E00FC017530256
S31508016BC00001E00F08B50120FEF7A6FD002008BD6B
S31508016BD030B5094D87B001AC0FCD0FC42B6801A89C
S31508016BE023603F238DF80530FEF752FD6420FEF73A
S31508016BF08DFD002007B030BDFC7805086FF0040252
S31508016C00502110B50A480B4C12F0800FD3B21BBFA6
S31508016C1003F00F03043BA3181B1802F101020CBF72
S31508016C2083F8001319764C2AEED1002010BD00BF57
S31508016C3000ED00E000E100E000F078B838B501F0B9
S31508016C40D3FA0446E0B901F027FC4FF4167343431F
S31508016C500C4803F5742303F23F23B3FBF0F30A4A06
S31508016C600A4913600A220D680948013A12F0FF021F
S31508016C7040F8043BF9D103EBC3022B4413440B60E0
S31508016C80204638BD40420F00382400200424002045
S31508016C9008240020012208B5034B1A7001F0D6FB1F
S31508016CA0024B186008BD00BF0024002034240020D0
S31508016CB0F8B5144C237823B301F0C8FB124B134DD6
S31508016CC01B68134EC01A012838BF0120114B124FF9
S31508016CD018602B7856F8232046F82300111A3A68CB
S31508016CE00E48521A0A213A600932B2FBF1F201330F
S31508016CF0DBB20260B3FBF1F201FB12332B70002306
S31508016D002370F8BD002400203424002030240020FC
S31508016D1008240020FC230020042400203824002015
S31508016D20014B1868704700BF3824002020234FF410
S31508016D308012094981F82C33084B5A66084B094ACF
S31508016D4003F50050426702674FF48050C1F8840189
S31508016D50486003445A67704700E100E0009000501C
S31508016D600040005A010000A0044B9A6DD20702D4D4
S31508016D700028FAD170470120704700BF0040005A29
S31508016D800C4B10B51C6FE20707D5012203F500531A
S31508016D901A67FFF78DFF00F0E5FF14F000521CBFDC
S31508016DA0054B1A67002CBEBF4FF00042024B1A670B
S31508016DB010BD00BF0040005A0060005AFFF7E0BF4F
S31508016DC010B50446FEF7C0FF024B1C60FEF7C0FF74
S31508016DD0002010BD3C24002010B5FEF7B5FF034B7B
S31508016DE01C68FEF7B5FF204610BD00BF3C240020F5
S31508016DF007B530B9CDE90012FFF7EEFFDDE900125C
S31508016E0030B1436823B1006803B05DF804EB184755
S31508016E10232003B05DF804FB30B51C4685B058B98C
S31508016E20CDE90012FFF7D8FFDDE9001204B903AC7A
S31508016E3020B9232005B030BD03B903AC8568002D00
S31508016E40F7D023460068A847F4E70EB477B507AB31
S31508016E5053F8046B05460193B0B9FFF7BDFF044625
S31508016E600546304601993DF069FDAC42064602D019
S31508016E702046FFF7A5FF002ED4BF3720002003B018
S31508016E80BDE8704003B07047FFF7A6FF8542044688
S31508016E90E7D02846FFF794FFE3E70122036B19B110
S31508016EA003F580531A65704703F500531A65DA64CA
S31508016EB070470422036B03F580531A657047000077
S31508016EC038B50446026B936C5906FCD50023E16B71
S31508016ED01A4694F83800FFF753FB0023616C1A46EB
S31508016EE094F84000FFF74CFB94F85830DA0706D5BA
S31508016EF00023E16C1A4694F84800FFF741FB94F821
S31508016F0058309B0706D50023616D1A4694F8500040
S31508016F10FFF736FB0021206B094DFFF715F9002114
S31508016F20606BFEF75FF8284604F15C01FDF72FFB5D
S31508016F302B6813B9034800F0E1FD002038BD00BFF6
S31508016F40402400204424002008B5006BFFF707F908
S31508016F50002008BD012910B505D8064B1C685C3C04
S31508016F6014F15C0F00D110BD206B0521FFF7ECF879
S31508016F70E46DF4E7402400202DE9F0418AB01C466F
S31508016F8006AB064688461846174600211022109D6C
S31508016F903DF0BDFA227903460AB18DF81820FB6146
S31508016FA063793046002B14BF01230223CDE903334D
S31508016FB0714B42460293714B29460193704B0093DC
S31508016FC0704B00F07BFA0646002840F0A780A368BC
S31508016FD001216B63E3693A206B64237E85F84030AF
S31508016FE06369EB63237C85F83830636AEB6494F84C
S31508016FF0203085F84830E36A6B6594F8283085F8BF
S31508017000503023682B63FDF7EDFF012304226169E4
S31508017010207CFFF7B5FA01230222E169207EFFF7FA
S31508017020AFFA3E7085F858600121A068FDF7DAFFCE
S3150801703063793BBB01213620FDF7D4FF0A21A068FD
S31508017040FEF734FC39462068FFF72EFA1021E2686C
S315080170504D4B676903EB4210C0F89414217C253225
S3150801706041EA0741C0F8AC14217EE06903EB4213FB
S3150801707041EA004159602379032B7BD8DFE803F005
S31508017080371A527205214FF44060FEF70FFCA368C8
S31508017090562B04D112214FF4A060FEF707FC39469E
S315080170A02068FFF7FDF995F8583043F0040385F891
S315080170B05830CBE7002795F8583043F0010385F897
S315080170C0583000230222616A94F82000FFF758FA23
S315080170D0616A94F82020E36842EA014241F29C4140
S315080170E05B0103F1A04303F570335A5007BB042330
S315080170F02068052100F50052D36400F58052136516
S31508017100FFF722F8214B1B681BB92149214800F0DA
S31508017110E3FC1E4805F15C01FDF735FA30460AB075
S31508017120BDE8F08195F8583043F0020385F85830E8
S3150801713000230422E16A94F82800FFF721FA41F2B4
S3150801714094420221E3685B0103F1A04303F570331E
S31508017150995094F82820E16A03F5A55342EA0142B9
S315080171601A60C4E795F85830012743F0030385F8F8
S315080171705830A6E72326D1E7C16E0108B36E010888
S315080171809B6E0108496F010800C003504024002086
S31508017190D012002044240020026B10B5136DD26C66
S315080171A00446134059070ED500F000FAD8B1206BF2
S315080171B0FEF7CFFF0146204600F008FA0422236BAA
S315080171C003F50053DA64236BDA6CD20711D5012172
S315080171D003F50052D1649B6C9B060AD52046BDE88F
S315080171E0104000F035BA0422236B03F500531A65E3
S315080171F0E9E710BD00207047FEE74FF40053002071
S315080172004B607047012070470020704707B5002082
S3150801721001AB0190FFF700FE0198002808BF4FF067
S31508017220FF3003B05DF804FB10B514460020FFF7E4
S31508017230DFFD204610BD0000034B0222186800231B
S31508017240806819463DF07ABAC816002090F82A30A7
S3150801725001223BB190F82E30022B03D180F82E2063
S31508017260184670471346FBE780F82410704790F8D4
S315080172702400704790F82B0070470000002808DBAF
S315080172800123420900F01F0003FA00F0014B43F8FD
S315080172902200704700E100E0002809DB01224309CA
S315080172A000F01F0002FA00F0024A603342F8230098
S315080172B0704700BF00E100E0F8B504460D4690F8B6
S315080172C02B3081B173B990F82C60FEF73DFD054668
S315080172D00121304600F062FB2846FEF739FD0123FD
S315080172E084F82B30F8BD002BFCD090F82C70FEF7F3
S315080172F02BFD06462946384600F050FB3046FEF778
S3150801730027FD84F82B50EDE770B504460568FFF7AD
S3150801731063FD844202D10020FFF752FD95F928004A
S31508017320FFF7BAFF95F92830002B0DDB01215A0921
S3150801733003F01F0301FA03F31449203241F82230FE
S31508017340BFF34F8FBFF36F8F95F92900FFF7A4FF9E
S3150801735095F92930002B0DDB01215A0903F01F038A
S3150801736001FA03F30949203241F82230BFF34F8F5E
S31508017370BFF36F8F00232846C4E90033C4E90433F9
S31508017380A360EB68BDE87040184700BF00E100E064
S315080173902DE9F047044616460D4690F82480FEF777
S315080173A0DAFC94F82A2003469AB1FEF7DAFC94F837
S315080173B02D90FEF7C9FC07460121484600F0EEFA72
S315080173C03846FEF7C5FCFEF7C6FC0022034684F8DC
S315080173D02A201846FEF7C5FC2E44B8F1000F23D122
S315080173E0AE4205D1204663680121BDE8F04718473A
S315080173F094F82630002BF3D02046236815F8011B94
S3150801740098470028ECD0BDE8F08794F826305BB1A0
S315080174102B780A2B03D10D2120462368984720464D
S31508017420236815F8011B9847AE42EED1DAE72DE934
S31508017430F7434FF00009044690461E46C3F80090EC
S315080174404F1E3368434505D2FEF785FCA269C2B9CA
S31508017450FEF787FC94F827305BB9112301222046F1
S315080174600DF107018DF80730FFF792FF012384F824
S3150801747027303368002B0CBF1B20002003B0BDE862
S31508017480F083E16922698A5C07F8012F2569226A76
S315080174900135954208BF4D46A2692561013AA261A7
S315080174A0FEF75FFCA36820469847336801333360CB
S315080174B0C7E708B5FFF76CFF002008BDF8B51F46FA
S315080174C0536806460C461546002B5BD09368002B7D
S315080174D05AD03022002120463DF019F86B682B4A14
S315080174E0E361AB68204623622B7B84F82430AB7BAF
S315080174F0276084F8253040F20113E384069B0027B0
