S00F0000546167426F6172642E733337E1
S3150801200000120020A9460108A7460108A7460108AB
S315080120104D830108A7460108A7460108A7460108F6
S31508012020A7460108A7460108A7460108A7460108C9
S31508012030A74601084C840508752D0108A74601081D
S31508012040A7460108A7460108A7460108A7460108A9
S31508012050A7460108A7460108A7460108A746010899
S31508012060A7460108A7460108A7460108B12F010896
S31508012070BD2F0108A7460108A7460108A74601087A
S31508012080A7460108A7460108A7460108A746010869
S31508012090A7460108A7460108A7460108A746010859
S315080120A0A74601082950010805500108A746010855
S315080120B0A7460108A1400508994A0508514A050895
S315080120C04D4A05086D420508954A0508554A050809
S315080120D06D4A0508594A0508F94A0508D94A0508FD
S315080120E0A7460108A7460108A7460108A746010809
S315080120F0F1780108A7460108A7460108A74601087D
S31508012100A7460108A7460108A7460108A7460108E8
S31508012110A7460108A7460108A7460108A7460108D8
S31508012120A7460108A7460108A7460108A7460108C8
S31508012130A7460108A7460108A7460108A7460108B8
S31508012140A7460108A7460108A7460108839301087F
S3150801215099280508A7460108990D05089F0D050840
S31508012160A7460108A7460108A7460108A746010888
S3150801217010B5054C237833B9044B13B1044800E074
S3150801218000BF0123237010BDF018002000000000D5
S3150801219010E9050808B5034B1BB10349034800E0DC
S315080121A000BF08BD00000000F418002010E905086A
S315080121B0A3F5803A704700BF174B002B08BF134B96
S315080121C09D46FFF7F5FF00218B460F461348144A33
S315080121D0121A42F034FF0E4B002B00D098470D4BD4
S315080121E0002B00D098470020002104000D000D485F
S315080121F0002802D00C4800E000BF42F0B5FE2000DE
S31508012200290000F013FC42F09BFE00BF0000080005
S31508012210000000000000000000120020F018002055
S31508012220803F0020000000000000000010B502F009
S31508012230E3F902F0E2F9BDE810400348C623034A70
S315080122400349006805F09BBBA41A0020CA6C05085F
S315080122506C6B050810B502F0CFF902F0CEF9BDE8AE
S31508012260104003489423034A0349006805F087BBD5
S31508012270A41A0020B96C05086C6B050810B502F0A4
S31508012280BBF902F0BAF9BDE810400348B423034A82
S315080122900349006805F073BBA41A0020A76C05085A
S315080122A06C6B050810B502F0A7F902F0A6F9BDE8AE
S315080122B0104003482D23034A0349006805F05FBB14
S315080122C0A41A0020956C0508586B050810B502F08C
S315080122D093F902F092F9BDE8104003487D23034AB9
S315080122E00349006805F04BBBA41A0020886C050851
S315080122F06C6B0508F7B5089C064600940F4607F06F
S3150801230003F9054640B3154C1549206805F037FB16
S315080123101449206805F033FB02F06EF902F06DF9F5
S31508012320114B124A00931249D623206805F027FB60
S315080123302B46104A1049206805F021FB284602F071
S3150801234083F90E493B463246206805F018FB0449D5
S31508012350206805F014FBFEE703B0F0BDA41A0020BF
S31508012360816D0508746B0508DB6C0508796B050832
S31508012370876B0508936B0508966B0508AB6B050813
S3150801238010B502F039F902F038F90B480B4C6C23F9
S315080123900B4A0C49006805F0F2FA23784BB94FF459
S315080123A07A71322000F0CAFC237883F00103237086
S315080123B010BD00F0D9FCF7E7A41A00200C1900207B
S315080123C07B6C05086C6B05082DE9F041044615463A
S315080123D09846254E8AB00F4602F00EF902F00DF91D
S315080123E04023CDE90158214A21493068009405F076
S315080123F0C6FA119BB3F90430502B31D11D4B1A691A
S315080124001868904702238DF8183000F057FCB0F58C
S31508012410917F94BF00200120ADF81C0002F0ECF872
S3150801242002F0EBF8BDF91C201349306805F0A7FA4C
S315080124300A230022CDE9023206AB2A463946CDE9FE
S3150801244000332046BDF8403007F02EF9059002F01A
S31508012450D3F802F0D2F8059A0849306805F08FFAE0
S315080124600AB0BDE8F08100BFA41A00206D6C05080A
S31508012470FF6B0508CC730508346C0508456C05081F
S3150801248013B50E4C002141F202000D4B0D4A009482
S31508012490FFF730FF012141F20200094B0A4A009475
S315080124A0FFF728FF094B002100934FF49850084B7A
S315080124B0084AFFF71FFF02B010BD00BFCD22010871
S315080124C081230108C9230108A52201082D22010833
S315080124D0552201087D220108FFF7D2BF022300B564
S315080124E089B08DF81030C8230021ADF8143004AB3B
S315080124F01A46009141F2020007F001F9039002F031
S315080125007BF802F07AF8044B039A0449186805F037
S3150801251036FA09B05DF804FBA41A0020456C0508D3
S31508012520094B07B51B785BB9084B1A6918689047B8
S31508012530074B1A691868019203B05DF804EB104756
S3150801254003B05DF804FB00BF78190020CC730508B9
S31508012550E473050800F0F0BB7047704708B50B48EF
S3150801256002F056FA012805D101F0F2FF01F074F9DB
S31508012570002008BD064802F04BFA012804D101F0F3
S31508012580E7FF01F099F8F3E70120F2E79C730508E4
S31508012590B473050830B503684E4A23F47F4323F024
S315080125A0070393428FB000F0848005D8A2F5A022D4
S315080125B0934213D00FB030BD474A9342FAD1474AE6
S315080125C01378002BF6D0013BDBB21370002BF1D147
S315080125D002F012F802F011F8414973E0FFF7BEFF65
S315080125E00028E7D022F0EEF93E4C054678B10346BD
S315080125F01E213D4A06A842F08BFF01F0FDFF01F0BE
S31508012600FCFF2A463949206805F0B9F9D2E702A83C
S3150801261022F0F6F9054630B33549206805F0AFF9D9
S315080126203449206805F0ABF901F0E6FF01F0E5FF52
S31508012630314B324A32490093206840F2031305F0C0
S315080126409EF92B462F4A3049206805F098F9284605
S3150801265001F0FAFF2D49206805F091F9244920680F
S3150801266005F08DF9FEE79DF817301421284A0093E5
S3150801267006A89DF8163042F04BFF01F0BDFF01F0A8
S31508012680BCFF244906AA206805F079F906A842F094
S3150801269073FF2946024606AB0B201BF08BFF054646
S315080126A0002887D001F0A8FF01F0A7FF2A461A499A
S315080126B0A9E70A4A13780133137001F09DFF01F067
S315080126C09CFF1649074B18680FB0BDE8304005F066
S315080126D056B900BFA0000600A0000601791900201E
S315080126E0CB6D0508A41A0020FB6C05080F6D0508BB
S315080126F0816D0508746B0508DD6E05082E6D0508E4
S31508012700876B0508936B0508966B0508376D0508F1
S315080127105D6D05086F6D0508836D0508BF6D0508B4
S31508012720036837B523F47F431F4A23F0070393420F
S3150801273008D002F18072934234D103B0BDE830402B
S31508012740FFF7CABE0379002BF7D1032022F046F919
S31508012750054638B3154C1649206805F010F9154990
S31508012760206805F00CF901F047FF01F046FF124B0E
S31508012770124A13490093206840F2171305F0FFF82F
S315080127802B46104A1049206805F0F9F8284601F049
S315080127905BFF0E49206805F0F2F80549206805F047
S315080127A0EEF8FEE703B030BDA8001400A41A002015
S315080127B0816D0508746B0508BF6E05082E6D050841
S315080127C0876B0508936B0508966B0508DA6D05088E
S315080127D0012337B504460093FA210023194A1A48FA
S315080127E001F068FD054638B3184C1949206805F00B
S315080127F0C6F81849206805F0C2F801F0FDFE01F097
S31508012800FCFE154B154A009315494FF4CA73206807
S3150801281005F0B5F82B46134A1349206805F0AFF8B9
S31508012820284601F011FF1149206805F0A8F8084962
S31508012830206805F0A4F8FEE7204603B0BDE830405D
S3150801284000F07EB82125010844190020A41A0020A9
S31508012850816D0508746B0508986E05082E6D0508C7
S31508012860876B0508936B0508966B0508156E0508B1
S31508012870F7B5054623480E4601F002FD044638B36E
S31508012880214D2249286805F07AF82149286805F07A
S3150801289076F801F0B1FE01F0B0FE1E4B1E4A009318
S315080128A01E494FF4D973286805F069F823461C4A6E
S315080128B01C49286805F063F8204601F0C5FE1A4947
S315080128C0286805F05CF81149286805F058F8FEE70C
S315080128D00127164B1F70164BDA6818689047154B77
S315080128E0DA68186890473146284600F03DF82346CD
S315080128F041F28831104A0097104801F0DBFC03B019
S31508012900F0BD00BF44190020A41A0020816D0508F6
S31508012910746B05087A6E05082E6D0508876B050820
S31508012920936B0508966B0508486E0508781900200B
S31508012930CC730508E4730508DD2401081019002085
S3150801294007B5019001F058FE01F057FE044B019AB4
S315080129500449186803B05DF804EB05F010B800BF28
S31508012960A41A0020EF6E050807B50190009101F041
S3150801297043FE01F042FEDDE90032044804490068DD
S3150801298003B05DF804EB04F0FABF00BFA41A0020F7
S31508012990276F050808B50346084611461BB1BDE869
S315080129A00840FFF7E1BF01F027FE01F026FE034BC1
S315080129B003491868BDE8084004F0E1BFA41A0020DD
S315080129C0686F050807B5019001F016FE01F015FEBE
S315080129D0044B019A0449186803B05DF804EB04F046
S315080129E0CEBF00BFA41A0020AC6F050808B501F0D8
S315080129F003FE01F002FE034B03491868BDE80840CF
S31508012A0004F0BDBFA41A0020E06F050808B501F05F
S31508012A10F3FD01F0F2FD034B03491868BDE80840D0
S31508012A2004F0ADBFA41A0020F06F050808B506F03A
S31508012A30C5FCFFF78FFD06F0CEFCFFF78DFD05F00F
S31508012A4019FEF8E770B5490086B0022A0C9CADF864
S31508012A500410ADF80620DDE90A650BD0042A0DD06D
S31508012A60012A12D10293ADF80C6001A902F098F877
S31508012A7006B070BD0295ADF80C40F6E70293ADF8C5
S31508012A800C600495ADF81440EFE76FF00300EFE72B
S31508012A902DE9FF4D0646884617469A464FF4967520
S31508012AA00024DFF838B0013D03D2204604B0BDE862
S31508012AB0F08D0C9B3246CDE901A360214346584669
S31508012AC00097FFF7BFFF041EEFD0ECDA002DECD01C
S31508012AD0014842F039FCE8E7FD6F05080080065019
S31508012AE01FB517238DF80C30002302228DF80D101F
S31508012AF004460093012003A9FFF7CAFF021E04DA60
S31508012B004FF4A0710C4842F099FB18238DF80C304C
S31508012B1000230222012064F05F04009303A98DF8C3
S31508012B200D40FFF7B5FF021E04DA4FF4A5710248FE
S31508012B3042F084FB04B010BD1B7005080023012276
S31508012B4030B585B08DF80A308DF80B300092042027
S31508012B500DF10B030DF10A01FFF79AFF021E04DAC4
S31508012B6040F25711524842F069FB9DF80B10514843
S31508012B7042F064FB13238DF80C3029238DF80D30B0
S31508012B80002302220120009303A9FFF781FF021EF9
S31508012B9004DA40F26311464842F050FB14238DF8DB
S31508012BA00C3089238DF80D30002302220120009371
S31508012BB003A9FFF76DFF021E04DA4FF4B6713C480C
S31508012BC042F03CFB15238DF80C300023022201202C
S31508012BD0009303A98DF80D20FFF75AFF021E04DAA8
S31508012BE040F27511324842F029FB16238DF80C3054
S31508012BF0002302220120009303A98DF80D30FFF767
S31508012C0047FF021E04DA4FF4BF71294842F016FB4A
S31508012C10B0210120FFF764FF00210E20FFF760FFB6
S31508012C2000211E20FFF75CFF70211D20FFF758FFCA
S31508012C3020211F20FFF754FF00211120FFF750FF25
S31508012C4070211020FFF74CFF20211220FFF748FFC3
S31508012C5008238DF80C30002302220120009303A9D2
S31508012C608DF80D30FFF714FF021E04DA4FF4CE710A
S31508012C700F4842F0E3FA09238DF80C3000230222AB
S31508012C800120009303A98DF80D30FFF701FF0A4CC7
S31508012C90021E256809DA4FF4D371054842F0CEFAC7
S31508012CA0A3682846984705B030BDE368F9E700BF31
S31508012CB01B7005082B700508CC7305082C2300B575
S31508012CC089B08DF80F3018238DF81C3006238DF83E
S31508012CD01D30002302220120009307A9FFF7D8FE21
S31508012CE0021E04DA40F2BB11114842F0A7FA222368
S31508012CF08DF80F30022301220093042005AB0DF154
S31508012D000F01FFF7C5FE021E04DA4FF4E671084803
S31508012D1042F094FABDF81830BDF81420BDF8101029
S31508012D20044842F08BFABDF8140009B05DF804FBBB
S31508012D301B7005083E700508FFF700BF37B501236C
S31508012D400546084C0091204669468DF8043001F085
S31508012D50B7FF2946204602F0D5F8204602F032F898
S31508012D6003B030BD00120020014802F083B800BF4D
S31508012D70001200200DF058BE06F070BB10B50446CF
S31508012D8001F0D8F9204620F0D9F82046FFF702FCD1
S31508012D9010BD0120704700B5C3B00DF067FD0DF0F9
S31508012DA090FD48B1FFF7F5FF30B101A81BF0DDFB37
S31508012DB010B901A8FFF7E2FF43B05DF804FB7047BD
S31508012DC008B5034820F004FBBDE8084000F0EABD59
S31508012DD0F072050810B5044600F078F9204600F0AF
S31508012DE00BFF204600F0E2FD204600F0DFFC2046FE
S31508012DF000F0E2FF2046FFF793FC10BD0120704763
S31508012E0000B5C3B020F0ECFA48B1FFF7F7FF30B1CF
S31508012E1001A821F06BFC10B901A8FFF7DBFF43B04D
S31508012E205DF804FB08B50321802003F06FF8032140
S31508012E304FF4806003F06AF809214FF4C06003F08B
S31508012E4065F809214FF4F06003F060F809213E2086
S31508012E5003F05CF809212D2003F058F809215120C7
S31508012E6003F054F8002008BD08B504F061FC01F030
S31508012E7016FC04F0E3FB04F079FC04F007FC04F00B
S31508012E803BFC04F03FFCFFF7CDFF04F0EDFB01F03E
S31508012E90FDFB01F00DFD02F0D9F8BDE8084005F08B
S31508012EA0E7BA08B502F058F800F040F800F0E0F883
S31508012EB000F0F0F8BDE8084000F0FAB808B501F0EE
S31508012EC0E3FB05F02BFF04F053FC04F04FFF0AF077
S31508012ED07DFE05F089F908F06DFC0BF07DF8BDE87B
S31508012EE0084000F063B808B504F086FB04F08EFBD1
S31508012EF0FFF742FFBDE80840FFF762BF08B501F0DA
S31508012F00BDFABDE8084001F079BB704708B501F084
S31508012F1009FBBDE8084001F079BA08B5FFF73BFFA0
S31508012F20BDE80840FFF76CBF7047000008B53A20B6
S31508012F30012102F087FBBDE80840014801F0BABD4E
S31508012F405C12002070B5154E9AB0354606AC0FCD09
S31508012F500FC495E80F0084E80F002C2200210FA862
S31508012F6042F06DF80E4B02AC0E9301238DF83D30FD
S31508012F7056231093052313930623159306F120036D
S31508012F800FCB84E80F00074B2146009306AA0EAB28
S31508012F90054804F08BFD1AB070BD00BF64730508BF
S31508012FA00000015B7C190020FC190020FFF7CABF4D
S31508012FB0014B186804F08ABEFC190020FFF7F8BF18
S31508012FC0014B1A6A18681047FC190020012070473E
S31508012FD00120704710B501F0CBFA04460DF0B2FC9A
S31508012FE0002808BF002401F041FA002808BF002480
S31508012FF0FFF7ECFF002814BF2046002010BD38B5A6
S3150801300005F03AFC044601F0C3FA042825D0022843
S315080130104FF0000508BF01240DF0A2FC04281ED0BC
S31508013020022808BF0124FFF7CBFF042819D002287C
S3150801303008BF012401F010FA042814D0022808BF99
S315080130400124FFF7C5FF04280FD0022808BF012471
S31508013050002D18BF0024204638BD0125DCE70125CF
S31508013060E1E70125E6E70125EBE70024F3E70000A0
S3150801307007B56B46054A92E8030083E8030019463B
S31508013080034801F01DFE03B05DF804FB94730508BF
S315080130907012002008B5044801F060FCBDE808403C
S315080130A0024801F05BBC00BF9C730508B4730508B0
S315080130B008B5044801F084FDBDE80840024801F05E
S315080130C07FBD00BFCC730508E473050837B5044610
S315080130D010B30368B14A23F47F4323F007039342ED
S315080130E000F0748200F2A180AD4A934200F0A481F7
S315080130F04AD8AC4A934200F018821FD8A2F540225A
S31508013100934200F0348209D8A74A934200F03A81E3
S31508013110A64A934200F0998103B030BDA44A93426E
S3150801312000F04E8202F580229342F5D101F064FA4D
S3150801313001F063FAE388A2889E4912E19E4A934206
S3150801314000F04A820ED8A2F5A022934200F0B68179
S3150801315002F580329342DFD101F04EFA01F04DFAC1
S31508013160964914E1964A934200F0548202F5403298
S315080131709342D1D101F040FA01F03FFA23899149EE
S315080131800093A38962894DE08F4A934200F09C819E
S3150801319023D8A2F51412934200F0D9810ED8A2F5CC
S315080131A07022934200F05D8102F580229342B3D1E9
S315080131B001F022FA01F021FA8449E8E0844A9342AF
S315080131C000F0BB8102F50C129342A5D101F014FA65
S315080131D001F013FA22897F4934E17F4A934200F0CC
S315080131E0DD8110D8A2F58022934200F0FC8102F518
S315080131F04032934290D101F0FFF901F0FEF963895B
S3150801320022897649ADE0764A934285D101F0F4F9EF
S3150801321001F0F3F9B4F8093072490093B4F80730AC
S31508013220B4F80520704800687AE1704A934200F0C4
S31508013230A4814CD8A2F57F02934200F0B98126D821
S31508013240A2F51022934200F045810FD8A2F5141277
S31508013250934200F0848102F5101293427FF45CAF29
S3150801326001F0CAF901F0C9F9614990E0614A93424E
S3150801327000F0C08102F5403293427FF44DAF01F070
S31508013280BBF901F0BAF9638922895B4969E05B4AAE
S31508013290934200F025810FD8A2F55012934200F00F
S315080132A0258102F54C1293427FF436AF01F0A4F959
S315080132B001F0A3F952496AE0524A93427FF42CAFCE
S315080132C001F09AF901F099F9227B4F49BAE04F4A80
S315080132D0934200F0C08028D802F17E4202F55412CA
S315080132E0934200F0CB800FD8A2F50032934200F04A
S315080132F0DF8002F5803293427FF40EAF01F07CF94C
S3150801330001F07BF9424942E0424A934200F07B814F
S3150801331002F5403293427FF4FFAE01F06DF901F0F8
S315080133206CF9D4F806203C498CE03C4A934200F0FB
S31508013330E4801DD802F17E42934200F0988002F1A2
S31508013340807293427FF4E8AE01F056F901F055F91F
S3150801335033492079334AB4F80530002818BF0A469C
S3150801336031492148006803B0BDE8304004F007BB85
S315080133702E4A93427FF4D0AE01F03EF901F03DF9B1
S315080133802B4904E001F038F901F037F92949164BC0
S31508013390186803B0BDE8304004F0F1BAA8001F026E
S315080133A0A0000601A8002400A0000600A800140039
S315080133B0A8001F0028790508A8004D00A175050871
S315080133C0A8004E00417B0508A8004801CD790508EB
S315080133D0A8002401EF750508A8005101EE79050832
S315080133E0A000060296740508A41A0020A800500336
S315080133F023760508A8004D023A7A0508A80048036D
S315080134004F760508A8004D03687D0508A80014062F
S3150801341069770508A8004D04067B0508A800140964
S315080134206C7405086474050806780508A800140A6A
S31508013430FC7405087874050801F0DEF801F0DDF87A
S31508013440A2887849784B18682BE001F0D5F801F085
S31508013450D4F876499BE701F0CFF801F0CEF8744924
S3150801346095E701F0C9F801F0C8F872498FE701F04C
S31508013470C3F801F0C2F8A2886F49E3E701F0BCF886
S3150801348001F0BBF8684B1868A38803F44042B2F50B
S31508013490404F0BD013F4805F684B694A18BF1A4630
S315080134A0684903B0BDE8304004F069BA664AF7E7EF
S315080134B001F0A2F801F0A1F8644968E701F09CF867
S315080134C001F09BF8624962E701F096F801F095F878
S315080134D060495CE701F090F801F08FF85E4956E71C
S315080134E001F08AF801F089F85C4950E701F084F89F
S315080134F001F083F8E2885A49A4E7057901F07CF8D6
S3150801350001F07BF8484BB4F807201868B4F809307D
S315080135104DB15449544C012D18BF214600915349C8
S3150801352004F02DFAF8E55249F8E701F065F801F0DB
S3150801353064F8E388A2884F4913E701F05DF801F0C2
S315080135405CF823894C490093E388A2886AE601F06E
S3150801355053F801F052F8E388A288484901E701F0D7
S315080135604BF801F04AF8E388A2884549F9E601F0E3
S3150801357043F801F042F8434909E701F03DF801F043
S315080135803CF8D4F80E302848019323893E49009324
S31508013590A3896289006804F0F2F9BDE501F02CF807
S315080135A001F02BF8238939490093A389628939E601
S315080135B001F022F801F021F8D4F80620344941E750
S315080135C001F01AF801F019F83249E0E601F014F8A9
S315080135D001F013F83049DAE601F00EF801F00DF8BA
S315080135E0227B2E492EE701F007F801F006F8227B27
S315080135F02B4927E701F000F800F0FFFFD4F80D305A
S31508013600227B2849ADE600F0F7FF00F0F6FFE268F5
S31508013610254917E700F0F0FF00F0EFFFA2892349DB
S3150801362010E700BFDD740508A41A00201275050805
S315080136302E75050853750508747505081874050867
S315080136400E740508CC750508FC7305087B76050814
S315080136509C760508CF7605080277050836770508AA
S315080136609C7705083B74050852740508C177050857
S3150801367022740508407805088D780508E878050854
S315080136806B790508AF7905088F7A0508A27B0508C5
S31508013690047C0508457C05087A7C0508AD7C050887
S315080136A0E47C0508177D0508A97D0508F37D05084D
S315080136B000201AF0C3BF000037B521F0BFF9044650
S315080136C030B32E4D2E49286804F059F92D4928683A
S315080136D004F055F900F090FF00F08FFF2A4B2B4AB2
S315080136E000932B494923286804F049F92346294AB6
S315080136F02949286804F043F9204600F0A5FF27491F
S31508013700286804F03CF91E49286804F038F9FEE7F0
S31508013710FFF77CF923464FF4FA61214A21480094C0
S3150801372000F0C8FD054630B3144C1549206804F06D
S3150801373026F91449206804F022F900F05DFF00F02B
S315080137405CFF114B114A009311495423206804F078
S3150801375016F92B460F4A1049206804F010F9284635
S3150801376000F072FF1049206804F009F9044920683D
S3150801377004F005F9FEE703B030BD00BFA41A002026
S31508013780816D0508746B05087B7F0508417E050870
S31508013790876B0508936B0508966B0508B67E0508C1
S315080137A0B1360108201A0020DE7E0508036837B500
S315080137B023F47F431C4A23F00703934232D1FFF7D0
S315080137C025F900234FF4FA61184A1948009300F0C5
S315080137D071FD054630B3174C1749206804F0CFF838
S315080137E01649206804F0CBF800F006FF00F005FF43
S315080137F0134B144A144900932068842304F0BFF834
S315080138002B46124A1249206804F0B9F8284600F0F6
S315080138101BFF1049206804F0B2F80749206804F034
S31508013820AEF8FEE703B030BDA800140AB1360108A8
S31508013830201A0020A41A0020816D0508746B05085A
S315080138403C7F0508417E0508876B0508936B0508CB
S31508013850966B0508DE7E050837B521F0EFF80546B3
S3150801386030B3434C4349206804F089F8424920683B
S3150801387004F085F800F0C0FE00F0BFFE3F4B404A59
S31508013880009340496023206804F079F82B463E4AA4
S315080138903E49206804F073F8284600F0D5FE3C49F5
S315080138A0206804F06CF83349206804F068F8FEE7EC
S315080138B01AF074FE044630B32D4D2E49286804F0DB
S315080138C05EF82D49286804F05AF800F095FE00F0D4
S315080138D094FE2A4B2A4A00932A496323286804F04E
S315080138E04EF82346284A2949286804F048F820460C
S315080138F000F0AAFE2749286804F041F81D492868FE
S3150801390004F03DF8FEE7FFF771F823464FF4FA6134
S31508013910214A2248009400F0CDFC054630B3144CE8
S315080139201449206804F02BF81349206804F027F895
S3150801393000F062FE00F061FE104B114A0093114936
S315080139406E23206804F01BF82B460F4A0F4920689E
S3150801395004F015F8284600F077FE1149206804F0AE
S315080139600EF80449206804F00AF8FEE703B030BDF2
S31508013970A41A0020816D0508746B05085D7F05088A
S31508013980417E0508876B0508936B0508966B050844
S31508013990B67E0508157F0508B1360108201A0020EC
S315080139A0DE7E05080321002005F09ABD37B50168BA
S315080139B07D4C21F47F4323F00703A342024600F01E
S315080139C0ED8004D8794A93420FD003B030BD7848C8
S315080139D0834204D0774B0B4077498B42F5D1104689
S315080139E003B0BDE8304005F0B5BD20F0E5FE05465B
S315080139F030B3724C7249206803F0C1FF71492068DF
S31508013A0003F0BDFF00F0F8FD00F0F7FD6E4B6F4ABD
S31508013A1000936F495423206803F0B1FF2B466D4A82
S31508013A206D49206803F0ABFF284600F00DFE6B498F
S31508013A30206803F0A4FF6249206803F0A0FFFEE7AF
S31508013A4020F0AEFE054630B35C4C5D49206803F0B4
S31508013A5096FF5C49206803F092FF00F0CDFD00F067
S31508013A60CCFD594B594A009359495C23206803F008
S31508013A7086FF2B46574A5849206803F080FF284697
S31508013A8000F0E2FD5649206803F079FF4C492068A9
S31508013A9003F075FFFEE720F077FE054630B3474C85
S31508013AA04749206803F06BFF4649206803F067FF22
S31508013AB000F0A2FD00F0A1FD434B444A009344499E
S31508013AC07123206803F05BFF2B46424A424920686E
S31508013AD003F055FF284600F0B7FD4249206803F078
S31508013AE04EFF3749206803F04AFFFEE720F07CFEC7
S31508013AF0054630B3314C3249206803F040FF31495D
S31508013B00206803F03CFF00F077FD00F076FD2E4BB0
S31508013B102E4A00932E497D23206803F030FF2B4659
S31508013B202C4A2D49206803F02AFF284600F08CFD0F
S31508013B302D49206803F023FF2149206803F01FFF60
S31508013B40FEE720F045FE054600283FF43EAF1B4C34
S31508013B501B49206803F013FF1A49206803F00FFF79
S31508013B6000F04AFD00F049FD174B184A0093184921
S31508013B70A423206803F003FF2B46164A164920683A
S31508013B8003F0FDFE284600F05FFD1849206803F0A2
S31508013B90F6FE0B49206803F0F2FEFEE703B0BDE826
S31508013BA0304005F04BBD00BFA8001E00A800140058
S31508013BB0A8001F02F800FFFEA8001F00A41A002093
S31508013BC0816D0508746B05080A810508997F050842
S31508013BD0876B0508936B0508966B05080C80050825
S31508013BE03B8005086B800508A3800508D280050877
S31508013BF000201AF023BD000037B580B10368344AA6
S31508013C0023F47F4323F00703934257D009D802F1DF
S31508013C107A42934247D002F18072934252D003B05E
S31508013C2030BD2C4A9342FAD12B4C8088FEF7CAFE46
S31508013C3000F0E2FC00F0E1FC4FF4FA622749206843
S31508013C4003F09DFE00234FF4FA61254A25480093A7
S31508013C5000F030FB05460028E1D02349206803F02F
S31508013C608EFE2249206803F08AFE00F0C5FC00F0AA
S31508013C70C4FC1F4B1F4A204900932068BB2303F04D
S31508013C807EFE2B461D4A1E49206803F078FE28460B
S31508013C9000F0DAFC1B49206803F071FE124920681E
S31508013CA003F06DFEFEE70379D0F80720B0F805109A
S31508013CB0181E18BF0120FEF76DFEB0E78088FEF7D3
S31508013CC087FDACE7D0F806108088FEF7D1FDA6E798
S31508013CD0A8001406A8001407A41A00202A810508BA
S31508013CE0F13B0108541A0020816D0508746B05081B
S31508013CF01682050866810508876B0508936B050812
S31508013D00966B0508ED810508014B1880704700BFC1
S31508013D1096120020014B1888704700BF96120020A2
S31508013D2037B501210020194A05F04DFE044680B237
S31508013D3038B3174D1749286803F021FE1649286834
S31508013D4003F01DFE00F058FC00F057FC134B144A13
S31508013D5014490093A4B2CB23286803F010FE234626
S31508013D60114A1249286803F00AFE204600F06CFC45
S31508013D700F49286803F003FE0649286803F0FFFD8A
S31508013D80FEE703B0BDE83040FFF7BEBF98830508DC
S31508013D90A41A0020816D0508746B05087683050849
S31508013DA044820508876B05082B830508966B050869
S31508013DB0B98205087047000030B50368B24A23F492
S31508013DC07F4323F00703934204468BB000F0EB8050
S31508013DD042D8AE4A934200F0AB800AD802F17F423C
S31508013DE0934200F0A18002F5501293420CD00BB019
S31508013DF030BDA74A934200F0A08002F58032934273
S31508013E00F5D1037B9B07F2D50023CDE90133B4F83D
S31508013E100D20194600926289208920F069FD044621
S31508013E200028E4D0012000F0C7FB0028DFD0994D17
S31508013E309949286803F0A3FD00F0DEFB00F0DDFBDD
S31508013E40964A23469649286803F099FD204600F0CC
S31508013E50FBFB944A9449D2E0944A934238D02FD82E
S31508013E6002F17F42934200F0318102F57F029342CB
S31508013E70BDD10023CDE90133B0F80D2019460092D2
S31508013E804289008920F012FD04460028AFD001209E
S31508013E9000F092FB0028AAD07E4D7F49286803F0DE
S31508013EA06EFD00F0A9FB00F0A8FB7C4A23467C497D
S31508013EB0286803F064FD204600F0C6FB7C4A9DE0B5
S31508013EC07C4A934200F0A18002F5803293428ED15A
S31508013ED00023CDE90233B4F80F2019460192B4F84C
S31508013EE00D2000926289208920F046FD04460028AB
S31508013EF03FF47DAF012000F05FFB00283FF477AF68
S31508013F00644D6549286803F03AFD00F075FB00F039
S31508013F1074FB624A23466249286803F030FD20464D
S31508013F2000F092FB644A95E70379002B3FF45FAFF3
S31508013F300BB0BDE83040FFF7F3BEB0F80D3006AD63
S31508013F404C2B00D00BBBFFF7E5FEADF81600FFF7CB
S31508013F5031FF29464C200DF1160205F0ECFBA0B104
S31508013F600023CDE9000562892089194620F05EFC07
S31508013F700446002C3FF43BAF012000F01DFB00284E
S31508013F803FF435AF434D444968E0B4F80D30032298
S31508013F908DF818301B0A8DF81930002301958DF814
S31508013FA01A300092DFE700F110030293C37B0193F5
S31508013FB0B0F80D300093002342891946008920F094
S31508013FC053FC044600283FF412AF012000F0F4FA2E
S31508013FD000283FF40CAF2F4D2F49286803F0CFFC7A
S31508013FE000F00AFB00F009FB2C4A23462C492868F5
S31508013FF003F0C5FC204600F027FB304A3049286803
S315080140000BB0BDE8304003F0BABCFFF783FE06AC3F
S31508014010ADF81600FFF7CEFE21464C200DF116022B
S3150801402005F089FB00283FF4E2AE0023CDE9000440
S315080140301A461946184620F0F9FB40F214539842DD
S31508014040044603D040F21553984292D1042000F059
S31508014050B3FA00283FF4CBAE0E4D1A49286803F08F
S315080140608EFC00F0C9FA00F0C8FA23460B4A0C493F
S31508014070286803F084FC204600F0E6FA124A104943
S31508014080286803F07CFCB2E6A8004702A8001401E0
S31508014090A8004701A41A0020DE820508936B0508CB
S315080140A0966B05082383050832830508A80048038B
S315080140B010830508A80047046783050802830508D5
S315080140C0E38205081E8305082B8305080023CDE92D
S315080140D00133B0F80D20194600924289008920F073
S315080140E029FC044600283FF482AE012000F064FA58
S315080140F000283FF47CAE0A4D0A49286803F03FFCC4
S3150801410000F07AFA00F079FA074A2346074928683F
S3150801411003F035FC204600F097FA054A9AE600BFF7
S31508014120A41A0020DE820508936B0508966B05081C
S3150801413057830508036837B523F47F433A4A23F0C2
S3150801414007039342044664D002F18272934268D10E
S31508014150B0F80510212964D10122344B00791A706F
S3150801416000221AF03DFA054630B3314C3149206830
S3150801417003F005FC3049206803F001FC00F03CFA25
S3150801418000F03BFA2D4B2E4A00932E493F23206817
S3150801419003F0F5FB2B462C4A2C49206803F0EFFB6C
S315080141A0284600F051FA2A49206803F0E8FB21491C
S315080141B0206803F0E4FBFEE720791AF0DDF90546ED
S315080141C000282ED01A4C1B49206803F0D8FB1A493F
S315080141D0206803F0D4FB00F00FFA00F00EFA174B33
S315080141E0174A009317494323206803F0C8FB2B4657
S315080141F0154A1649206803F0C2FB284600F024FA3E
S315080142001349206803F0BBFB0A49206803F0B7FB92
S31508014210FEE7064B1B7823B103B0BDE8304005F035
S315080142200BB903B030BD00BFA0000601881A0020F3
S31508014230A41A0020816D0508746B050823840508F6
S31508014240A2830508876B0508936B0508966B050815
S3150801425012840508002209490B684BB1834204D12F
S31508014260436A4AB15362012070471A465B6AF4E70A
S315080142700028F5D0184670470B60F4E78C1A002021
S3150801428010B5044690B104F083FD2046FFF7E2FF1E
S3150801429058B194F8280040B102F08DF8044A136821
S315080142A0013B136002F08DF8002010BD2220FCE7C7
S315080142B0901A00202DE9F04F85B00546914698469B
S315080142C00E469DF8387009B9002F64D12846FFF7C4
S315080142D0D7FF044600283CD185F82800286304F056
S315080142E0A5FE864239D904F071FE40F2E7318C46C3
S315080142F02146E6FB00C14FF47A726046002340F07E
S3150801430087FC4FF0FF32002383468A4640F080FC43
S315080143104FF0FF32688600235846514640F078FC34
S315080143202B46CDE9004411461C4A284604F0CBFD2C
S31508014330044670B91A4AC5E90798136885F82970B9
S31508014340EE6233B31A465B6A002BFBD15562002332
S315080143506B62204605B0BDE8F08F304603A957B118
S3150801436004F046FE04460028F3D12B46CDE90000A9
S315080143700A4A0399D9E704F03BFE04460028E8D126
S315080143802B462846CDE90077044A039904F078FDBF
S31508014390CEE71560DBE72124DBE700BFA54301086B
S315080143A08C1A002091F8283013B50C4683B90B8E68
S315080143B04A8E93420ED243B9CDE9003320460B46C5
S315080143C0104A4FF0FF3104F025FD238E0133238671
S315080143D002B010BD52B191F829307BB10123009387
S315080143E0D1E907232046C96AFFF764FF0123064A74
S315080143F084F82830136801331360E9E7084604F0A6
S31508014400C7FCF3E7A5430108901A002070B5104DC3
S315080144102B681BB100260F4B1C6804B970BD94F8B4
S31508014420283093B101F0C7FF2B6884F82860013B57
S315080144302B6001F0C6FF94F8293013B92046FFF71F
S3150801444009FFD4E9073120469847646AE5E700BFC2
S31508014450901A00208C1A0020034B1B68002B0CBFF6
S3150801446001200420704700BF901A0020024B1868EB
S31508014470B0FA80F040097047901A00200421002202
S31508014480024B19711A6019739A607047941A0020C1
S315080144902DE9F843204B05461B78ABB94FF00208C6
S315080144A0DFF87C901D4C59F8043BAB4207D12846EE
S315080144B000F059FA01280CD104F062FD2060B8F128
S315080144C0010F04F1080401D1BDE8F8834FF0010892
S315080144D0E9E7284600F047FA07460028EFD104F035
S315080144E04FFD2368C61AFA2004F076FDB04201D9B9
S315080144F02771E4E74FF47A7004F06EFDB04202D9F1
S3150801450001232371DBE741F2883004F065FDB042EF
S315080145108CBF02230323F4E798120020941A002083
S315080145208812002010B5094C2179042904D00020ED
S31508014530FEF713F804232371217B042904D00120F3
S31508014540FEF70BF80423237310BD00BF941A00204D
S31508014550054B1A783AB9012119700421034B1971CF
S315080145601A6019739A60704798120020941A0020ED
S31508014570054B187838B9054B1A79042A03D1187BE3
S31508014580031F58425841704798120020941A002078
S31508014590074B1B7843B9074B1879042806D11B7BAF
S315080145A0042B08BF0120704701207047042070477B
S315080145B098120020941A00200B4B02461B788BB1E7
S315080145C00A4B1B78834234BF00200120084B1B7815
S315080145D03BB1084B1B7843FA02F212F0010F08BFF0
S315080145E0002070470120F1E7991200209A12002055
S315080145F0A81A00209B12002070477047012208B5AF
S31508014600074B1A700022074B1A700422064B1A70C0
S315080146101F22064B1A7003F079F9054B186008BD7D
S3150801462099120020A81A00209A1200209B12002035
S31508014630A41A0020024B0349186803F0A0B900BF69
S31508014640A41A00204384050870B50C4C0C4906468B
S31508014650206803F094F903F059F90546206803F038
S3150801466049F93046FFF7E6FF284603F043F9206883
S315080146700449BDE8704003F082B900BFA41A0020BE
S3150801468045840508478405080F20704708B50121A8
S315080146903A2000F0D7FFBDE80840FEF790BB01219C
S315080146A03A2000F0CFBFFEE708B500F02DF8124B0F
S315080146B012498B4212D30020114B12498B4218D34F
S315080146C0FDF77AFD186850F82240586840F82240EC
S315080146D0013298688242F5D30C33EAE70022F8E7FB
S315080146E01C6844F8220001325C68A242F8D30833F8
S315080146F0E4E70022F8E700BF18E9050824E90508F8
S3150801470024E9050824E905084FF480414FF0FF30F4
S31508014710114B124A10B59A60D3F8882042F47002F8
S31508014720C3F888200E4A91660E4901F500521066B3
S315080147300D4850660220C3F8D000BFF34F8FBFF370
S315080147406F8F01244FF440330848C0F88041D36085
S3150801475004600B6110BD00BF00ED00E000200108F8
S315080147600090005000800044F7FF370000E100E0A8
S31508014770014B1868704700BFA0120020084B1B6F39
S3150801478003F00703022B04D0032B05D0012B05D018
S31508014790FEE7044B18687047034BFBE7034870476D
S315080147A000800050A0120020A4120020002D310123
S315080147B008B5FFF7E3FF054B1B6FC3F3033301335B
S315080147C0B0FBF3F0024B186008BD00BF0080005033
S315080147D09C1200200048704700B4C404014B1868B5
S315080147E0704700BFA4120020054B1860054B1B6FCC
S315080147F003F00703032B01D1FFF7DABF704700BFA8
S31508014800A41200200080005000207047004870471D
S31508014810002D31014FF0B4439868C0F304400C28C9
S3150801482022D8DFE800F009212121212107171921C2
S315080148301B1D1F000F4870479B6803F04073B3F1B7
S31508014840807F13D0B3F1007F12D00B4A002B08BF2B
S315080148501046704709487047094870470948704724
S31508014860094870470948704700207047084870474B
S3150801487008487047405DC60000093D000024F40061
S31508014880C0EA210180BA8C010048E801005A620297
S3150801489080841E0040420F004FF4004070474FF4D9
S315080148A07A707047014B1868704700BFA81200203C
S315080148B04FF000639B6A10B503F17842B2F5903F59
S315080148C00AD2084C227812F0FD0F08D1DB69984705
S315080148D008B90123237010BD4FF48170FBE700204E
S315080148E0F9E700BFA91A00204FF00053074A1A60DA
S315080148F0BFF34F8F0649074BCA6802F4E0621343B8
S31508014900CB60BFF34F8F00BFFDE700BF02020FF078
S3150801491000ED00E00400FA05002303607047036810
S315080149200B6001607047036803B970478B4202D177
S315080149300B68036070471846F5E7000005490A68E1
S315080149401318054883428CBF4FF0FF320B6010469F
S31508014950704700BFAC12002000000420436803B171
S31508014960184722207047436903B11847FF2070474B
S3150801497010B40A681378022B11D014203023147945
S3150801498013FB040307481B585079C340DB4303F064
S315080149900103137008465DF8044BFFF779BD5DF80E
S315080149A0044B704730C0035037B5046801210546EA
S315080149B03A2000F047FE002301226179207902F0AE
S315080149C00FF914223023217913FB01230E4A9B5830
S315080149D06279D340DB4303F001032370A379022BE9
S315080149E00ED100F0B9FA2A460849607900F0DEFAD4
S315080149F00123024661792079CDE9003302F098F85E
S31508014A00002003B030BD00BF30C003507149010812
S31508014A10036818787047000002681378022B24D0BF
S31508014A2014213023107913FB001310495B5851796F
S31508014A30CB40917903F00103012912D1508843EA49
S31508014A4040034FF6E07063F03F039BB2834202D105
S31508014A501170538070474FF6DF718B42F9D10021EF
S31508014A60F6E711B983F001031370704730C003509C
S31508014A7003681A78022A03D100225A80FFF794BFE5
S31508014A80704713B504682378022B10D0A379022B3B
S31508014A900BD10021607900F077FA00236279207939
S31508014AA01146CDE9003302F043F80223237002B020
S31508014AB010BD00002DE9FF4103680446B3F1B64F66
S31508014AC004D0354A934251D12F2000E02E200121EE
S31508014AD000F0B8FD01230A226179207902F080F8F5
S31508014AE001230A22E179A07902F07AF80927012639
S31508014AF02A4D4FF030082279637908FB025206FAEB
S31508014B0003F302F501521360642004F06FFC237964
S31508014B10627908FB035306FA02F203F5825364200D
S31508014B201A6004F063FC013FE3D12068B0F1B64F87
S31508014B301FD10323C5F8E8346279237943EA02438E
S31508014B40C5F8EC34E279A37943EA0243C5F8F034AF
S31508014B5040F20113ADF80030E36869460293A36891
S31508014B600193237C8DF80C3002F0C0F804B0BDE83F
S31508014B70F081094B9842EBD10323C5F8F8346279E1
S31508014B80237943EA0243C5F8FC34E279A37943EA77
S31508014B900243C5F80035DBE70080065000C0035024
S31508014BA038B5054602F0D0F9044C012801D1013C7B
S31508014BB000D138BD284602F0BBF8F6E7E1930400B8
S31508014BC0D0E90003184710B5044601213A2000F040
S31508014BD039FDA3782078B3FA83F3042261785B0957
S31508014BE001F0FEFF002010BD10B5012243780178BF
S31508014BF0847830209A40054B00FB01331CB903F534
S31508014C0001531A6010BD03F58253FAE700C0035039
S31508014C1010B5012243780178847830209A40054BF3
S31508014C2000FB01331CB903F582531A6010BD03F565
S31508014C300153FAE700C003500122437801789A40EC
S31508014C4030235943014B5A50704700BF40F0035077
S31508014C50102130230246007813FB001305495078CA
S31508014C605B58C34003F0010093780BB980F001004B
S31508014C70704700BF30C003500F4B984215D00AD871
S31508014C80A3F50043984212D003F58043984214BF16
S31508014C90802025207047094B98420AD003F58043A6
S31508014CA0984214BF80202820704726207047242068
S31508014CB070472720704700BF000005500040055087
S31508014CC070B5044688B00068FFF7D6FF0D46012186
S31508014CD0064600F0B7FC01213A2000F0B3FC2B7917
S31508014CE00422A179607901F07BFF0D220021684633
S31508014CF040F0A5F903238DF8063001238DF8053018
S31508014D0002238DF801302B7921795A1E53425341DA
S31508014D1020686A468DF80A3002F068FA2268224B42
S31508014D209A4239D003F580439A4237D003F5804336
S31508014D309A4235D003F580439A4233D01B481C4921
S31508014D40A3F5BC33FC3B824218BF0B46A0796279B6
S31508014D50217942EA004243F82120304600F08EFCD0
S31508014D602B682568B0FBF3F001382B6BE8612379D2
S31508014D70002405EB43132A6B21460E229C6604A8E0
S31508014D8040F05DF90123284604A98DF8103002F098
S31508014D90DCF9204608B070BD064BD7E7064BD5E7C8
S31508014DA0064BD3E7064BD1E7008004500080055037
S31508014DB064C6035084C60350A4C60350C4C6035030
S31508014DC0E4C60350012301790268114803FA01F187
S31508014DD0824216D000F5804082420DD00D4B9A4290
S31508014DE011D003F580439A420FD003F580439A42C6
S31508014DF00CBF04234FF0FF33074AB4335B01D1508C
S31508014E0070470023F8E70223F6E70323F4E700BF18
S31508014E10008004500000055000C0035001230179A9
S31508014E200268114803FA01F1824217D000F5804061
S31508014E3082420DD00D4B9A4212D003F580439A4215
S31508014E4010D003F580439A420CBF04234FF0FF3379
S31508014E50074A03F59A735B01D15070470023F7E7B8
S31508014E600223F5E70323F3E7008004500000055009
S31508014E7000C0035038B50446FFF7D0FF20681A4B27
S31508014E80984228D003F58043984226D003F58043FB
S31508014E90984224D003F58043984222D0134A1449F4
S31508014EA0A3F5BC33A3F5CE73904218BF1946002566
S31508014EB0237941F8235002F0E5F92B462A46A179D0
S31508014EC0607901F08DFE2068FFF7D6FE294600F0CD
S31508014ED0B9FB284638BD0749E9E70749E7E707491E
S31508014EE0E5E70749E3E700BF008004500080055065
S31508014EF004C7035084C60350A4C60350C4C603504E
S31508014F00E4C6035010B5036802796420DC6961437D
S31508014F10B1FBF0F1186B03EB4213196710BD0000E2
S31508014F2070B5044601250B4E04B970BD94FAA4F078
S31508014F30B0FA80F005FA00F306EB001224EA03043E
S31508014F405368002BF0D0117B11B191689847EBE7B4
S31508014F509847E9E7AC1A002008B5192001F034FA98
S31508014F6028B14FF00072074BC3F880211A601A2046
S31508014F7001F02AFA28B14FF08062024BC3F880216A
S31508014F801A6008BD00E100E038B505460C4601F097
S31508014F9012FA0022044B03EB05135C601A73BDE891
S31508014FA0384001F00EBA00BFAC1A0020F8B5054624
S31508014FB00F46164601F0FFF9104B05F0FC02D3F82F
S31508014FC024140023EC1804F00304144321FA04FC06
S31508014FD01CF0010F07D00133042BF3D1FF2401F094
S31508014FE0F0F92046F8BDFF2CF9D00122044B03EB5A
S31508014FF00413C3E901761A73F1E700BF00C0035031
S31508015000AC1A0020074BD3F82404D3F8202403F55F
S315080150100053104000F0553020F05020C3F820040A
S31508015020FFF77EBF00C00350074BD3F82404D3F81B
S31508015030202403F50053104000F0AA3020F0A020E8
S31508015040C3F82004FFF76CBF00C00350024B196870
S31508015050024B186837F062BCB4120020B012002067
S315080150607047000037B5920004460D46019241F09B
S3150801507063FD431C0BD060B929462046019A3FF0CF
S31508015080A7FF0028044808BF002003B030BD034825
S31508015090FBE70348F9E700BF10E000F021E000F064
S315080150A024E000F013B5044601A801F0EDFF9DF8D0
S315080150B00630012223804FF4807300206380054B5C
S315080150C09B680A3303F01F0302FA03F3636002B015
S315080150D010BD00BF0080E00F01F088BF08B501F0E0
S315080150E075FF002008BD10B5044644EA010313F014
S315080150F00303084609D1934201D1002010BD54F893
S31508015100231040F823100133F5E7214692003FF0BA
S315080151106FFFF2E710B5044641F016FD431C15D0A2
S31508015120B0B90C4B20469B680A3303F01F020123D2
S31508015130934023F003032344984201D1002010BD74
S3150801514050F8042B0132F7D00348F8E70348F6E78D
S315080151500348F4E70080E00F0EE000F021E000F0DC
S3150801516024E000F008B501F01FF9014B186008BDED
S3150801517040230020014B186801F01AB9402300208A
S315080151800A460139014403F08BB80000044BD3F8F1
S315080151908420D206FBD4D3F88400C0F3811070476B
S315080151A00040005038B5174B0546D3F820310C4658
S315080151B003F00703013B052B20D8DFE803F0030BB7
S315080151C0130F171BFFF7D4FA052305B1286004B19D
S315080151D0236038BDFFF702FB0323F6E7FFF71AFB47
S315080151E00723F2E7FFF712FB0223EEE7FFF7C0FA00
S315080151F00623EAE7FFF7F2FA0423E6E7002318464F
S31508015200E3E700BF0080005038B5174B0546D3F8D1
S3150801521028310C4603F00703013B052B20D8DFE8AC
S3150801522003F003131B0F0B17FFF7A2FA052305B1AA
S31508015230286004B1236038BDFFF79AFA0623F6E71A
S31508015240FFF7E8FA0723F2E7FFF7C8FA0323EEE7C1
S31508015250FFF7C4FA0423EAE7FFF7D8FA0223E6E7D9
S3150801526000231846E3E700BF0080005073B50D46DA
S315080152700021114B0191D3F88041064604F003043D
S31508015280022C13D0032C0CD0012C13D101A8FFF743
S3150801529089FF10240EB1019B336005B12C6002B061
S315080152A070BDFFF7B7FA07240190F3E7FFF7AEFAE7
S315080152B00190EFE70C46EDE700800050002337B573
S315080152C00193154B0546D3F820320C4603F0070324
S315080152D0013B032B1ED8DFE803F0020E1318002149
S315080152E001A8FFF791FF12230DB1019A2A6004B1B3
S315080152F0236003B030BDFFF78DFA07230190F3E76A
S31508015300FFF7CAFA0A230190EEE7FFF7CBFA09235A
S315080153100190E9E70023E7E70080005038B5104B14
S315080153200546D3F840310C4603F00303022B0BD094
S31508015330032B0DD0012B0FD1FFF7AEFA0A2305B1C6
S31508015340286004B1236038BDFFF7ACFA0923F6E7F4
S31508015350FFF7A5FA0C23F2E700231846EFE700BF8B
S3150801536000800050002337B50193164B0546D3F844
S3150801537060320C4603F00703013B032B1FD8DFE815
S3150801538003F0020E1914002101A8FFF70BFF1023E1
S315080153900DB1019A2A6004B1236003B030BD002122
S315080153A001A8FFF7BBFF1123F2E7FFF733FA07233B
S315080153B00190EDE7FFF72AFA02230190E8E70023B7
S315080153C0E6E700BF00800050002337B50193164B6E
S315080153D00546D3F894320C4603F00703013B032B29
S315080153E01FD8DFE803F0020E1914002101A8FFF700
S315080153F0D9FE10230DB1019A2A6004B1236003B0C6
S3150801540030BD002101A8FFF789FF1123F2E7FFF755
S3150801541001FA07230190EDE7FFF7F8F90223019056
S31508015420E8E70023E6E700BF0080005038B5134BD4
S315080154300546D3F800320C4603F00703013B032B5C
S3150801544018D8DFE803F0020A0E12FFF725FA0A2335
S3150801545005B1286004B1236038BDFFF723FA092393
S31508015460F6E7FFF71CFA0C23F2E7FFF7A1F90F237A
S31508015470800AEDE700231846EAE700BF00800050DE
S3150801548038B5134B0546D3F808320C4603F0070323
S31508015490013B032B18D8DFE803F0020A0E12FFF7C7
S315080154A0FBF90A2305B1286004B1236038BDFFF76B
S315080154B0F9F90923F6E7FFF7F2F90C23F2E7FFF703
S315080154C077F90F23800AEDE700231846EAE700BFBC
S315080154D00080005038B5104B0546D3F840320C46CB
S315080154E003F00303022B0BD0032B0DD0012B0FD195
S315080154F0FFF7D2F90A2305B1286004B1236038BD44
S31508015500FFF7D0F90923F6E7FFF7C9F90C23F2E704
S3150801551000231846EFE700BF0080005038B5104B4E
S315080155200546D3F860310C4603F00303022B0BD072
S31508015530032B0DD0012B0FD1FFF7AEF90A2305B1C5
S31508015540286004B1236038BDFFF7ACF90923F6E7F3
S31508015550FFF7A5F90C23F2E700231846EFE700BF8A
S315080155600080005070B5054614460E4600F01CFF33
S31508015570296881EA040202EA06044C402C60BDE867
S31508015580704000F015BF0000B0F5207F1FD009D884
S31508015590B0F5007F15D003D868B1B0F5C07F0AD041
S315080155A000200CE0B0F5607FFAD10B4BD3F88000F0
S315080155B0C0F3011003E0084B186FC0F30330013044
S315080155C07047054BD3F89000C0F30460F7E7024B28
S315080155D0186FC0F38020F2E70080005002464FF4AE
S315080155E08030104B10B598660020FFF7CDFF504369
S315080155F041F671320C4BDC69DA635A6804F480347B
S3150801560022F4401259B9094988428CBF4FF48010D7
S315080156100020104358600CB10022DA6310BD04491A
S31508015620F2E700BF0090005000000350005A6202E2
S31508015630002D310108B5FFF7CDF8BDE80840002176
S31508015640FFF7CCBF430905D0012B0DD0022B094B1F
S3150801565018BF002300F01F0041B103F58053012252
S3150801566002FA00F018607047034BF3E703F500539D
S31508015670F5E700BF68800050648000501FB500221E
S3150801568080280446019200F0BA8048D8002800F024
S31508015690BA80A0F120043D2C54D83D2C52D8DFE81D
S315080156A014F0B200BE00B200BE00D700D700D70082
S315080156B0D700D700BE00E1005B00F70081005B0060
S315080156C0BE00BE00BE0051005100510051005100FC
S315080156D0510051005100BE00BE00BE008900010103
S315080156E0BE005100510051005100510051005100B6
S315080156F0510051005100510051005100D700B2002C
S31508015700B200B200FC005B005B00060198006C0069
S31508015710DC0051005100510051005100A900B0F5BB
S31508015720B06F00F09F802DD8B0F5207F77D00CD8C8
S31508015730B0F5C07F67D0B0F5007F67D0B0F5807F40
S3150801574000F09580019804B010BDB0F5607F6CD06B
S315080157500DD8B0F5407FF5D1FFF72AF802464FF488
S315080157602070FFF711FFB2FBF0F0400849E0B0F5F1
S31508015770806F6DD0B0F5A06FE4D1002101A8FFF7C5
S315080157809DFDDFE7B0F5106F00F0878017D8B0F5FB
S31508015790E06F00F087800AD8B0F5C06F78D0B0F511
S315080157A0D06FCFD1002101A8FFF740FECAE7B0F5B7
S315080157B0F06FC7D1002101A8FFF7B0FEC2E7B0F527
S315080157C0406F4AD013D8B0F5206F70D0B0F5286F66
S315080157D0B8D10021384B0391D3F8703203F0030393
S315080157E0012B02D103A8FFF799FD039B49E0B0F508
S315080157F0486FA7D1002101A8FFF7E6FDA2E7FEF74A
S31508015800BDFF01909EE7FEF7D3FFFAE7FEF7B6FF65
S3150801581002462046FFF7B8FEB2FBF0F0F1E7FEF7C5
S31508015820C7FF02464FF42070F4E7234BD3F88030C4
S3150801583003F00303012B04D0022B06D04FF460704A
S31508015840E8E7FEF79BFF0246F8E7FEF7E3FFFAE70C
S31508015850002101A8FFF7A6FC74E7002101A8FFF7BC
S31508015860D3FC6FE7002101A8FFF700FD6AE74FF0B7
S31508015870E02302921B695B0705D5FEF799FF0290A3
S31508015880029B01935EE703A902A8FFF747FDF7E725
S31508015890002101A8FFF742FD54E7002101A8FFF7FF
S315080158A0EFFD4FE7002101A8FFF714FE4AE70021A3
S315080158B001A8FFF757FD45E70080005008B580208D
S315080158C0FFF7DCFE034B98429EBF4FF48032024B32
S315080158D01A6708BD005A620200A000501FB50023CE
S315080158E0B0F5807F019300F0C38064D85D2855D850
S315080158F04C2807D82D2847D823282BD8019805B036
S315080159005DF804FB4D381028F8D801A353F820F0A8
S31508015910675A0108FD580108FD580108FD58010894
S31508015920195A0108FD580108FD580108055B0108C7
S31508015930375A0108DD590108FB5A0108FD580108C3
S31508015940FD580108FD580108FD580108FD580108D0
S315080159500F5B010824380928D0D801A353F820F091
S31508015960675A0108675A0108675A0108675A010800
S31508015970675A0108FD5801085D5A0108FD580108D2
S31508015980F95901089D5A01083D2800F082803E28F0
S31508015990B4D1002001A9FFF79DFDAFE78028ADD15D
S315080159A0604B1B6F03F00703013B032BA6D8DFE807
S315080159B003F05350878FB0F5F06F6AD021D8B0F550
S315080159C0B06F4BD00FD8B0F5607F00F0858095D3C6
S315080159D0B0F5806F47D0B0F5A06F8FD1002001A92F
S315080159E0FFF76CFC8AE7B0F5D06F57D0B0F5E06FDA
S315080159F0CFD0B0F5C06F81D1002001A9FFF78EFC89
S31508015A007CE7B0F5206F7DD00BD8B0F5086F4AD08A
S31508015A10B0F5106F7FF472AF002001A9FFF730FDD2
S31508015A206CE7B0F5406F68D0B0F5486F6FD0B0F548
S31508015A30286F7FF463AF00213A4B0391D3F8703294
S31508015A4003F00303012B67D0022B14BF0B46152362
S31508015A5000E00523019351E70223FBE7002001A992
S31508015A60FFF704FC4AE7002001A9FFF79BFB45E77E
S31508015A7002934FF0E0231B695B0705D5FEF798FEF5
S31508015A800D230393039BE5E703A902A8FFF746FC49
S31508015A90F8E7002001A9FFF741FD2FE7002001A93A
S31508015AA0FFF7C4FC2AE71F4BD3F8003103F00303C1
S31508015AB0022B07D0032B09D0012B0BD1FEF78EFE43
S31508015AC00323C7E7FEF7EEFE0923C3E7FEF79CFEAD
S31508015AD00823BFE70123BDE7124AD2F8802002F066
S31508015AE00302012A05D0022AB4D1FEF793FE072341
S31508015AF0B0E7FEF743FE0E23ACE7002001A9FFF746
S31508015B0083FBFBE6002001A9FFF72CFCF6E6002043
S31508015B1001A9FFF759FCF1E603A8FFF7FFFB1123DB
S31508015B2098E700BF0080005008B5FFF7D7FE09289F
S31508015B3011D00A38012811D84FF48002094B4FF6C3
S31508015B40FF705A6603F5D8335B6A13F0010F18BF65
S31508015B504FF4FA7008BD044B1888FBE74FF6FF703F
S31508015B60F8E700BF00900050D612002038B5044669
S31508015B708020FFF7B3FE032800F083804FF48012DC
S31508015B80504B4FF0A0615A6645F60E034E4AC2F8CD
S31508015B9080304E4B99624FF4803103F580539962F8
S31508015BA0916D11F48031FBD1D4E900031B0543EA59
S31508015BB00063E07B0343207B43EA0043607B43EABF
S31508015BC00033A07B43EA801313619069D4E9045337
S31508015BD01B0643EA856300F000400343A07EE57E89
S31508015BE00343207E43EA0043607E43EA0023936130
S31508015BF0E069136A00280CBF0022082223F00F036C
S31508015C0043EA000343EA850343EA02032E4A304D79
S31508015C10136237D194F82430916A94F82000DB0096
S31508015C200D4043EA401394F821102B4343EA01132C
S31508015C3043F480339362274B916D33EA0101FBD11B
S31508015C404FF08071214881621369A56823F47003B6
S31508015C5043EA055313614FF00043836194F82230F8
S31508015C600BB91D4B996294F823301BB94FF4803256
S31508015C70194B9A6294F825301BB1134B174AC3F88E
S31508015C80802038BD022808D11161154891614FF469
S31508015C9008524FF47F41FFF765FC0B4994F822300F
S31508015CA08A6A94F820001B06154043EA401394F8C3
S31508015CB024202B4343EAC20394F8232043EA0243F0
S31508015CC08B62D7E7009000500040005A0050005AF6
S31508015CD0C7FFFEFE030001000060005AF1A7FFFF9F
S31508015CE03440005A014B93F900007047D412002042
S31508015CF0F0B5D0E901434FF400061A4A4178057810
S31508015D0056664FF4D156022702F5B8325662164E38
S31508015D104F2977604FF0010728BF4F2106F58056B6
S31508015D2077601669F603FCD441EA052151611B0126
S31508015D30417B43EA04230B43017B43EA4103936016
S31508015D40C37B817B1B0143EA4113417C0B43017CE5
S31508015D5043EA41035360837C13B16FF4D153536211
S31508015D60F0BD00BF0090005000100250014B188092
S31508015D70704700BFD61200204FF4800208B5184BB1
S31508015D805A660223174A5360936813F48033FBD18A
S31508015D90012822D1FEF722FD134B984215D003F5AF
S31508015DA0122303F5F863984213D0104B00EB8002D7
S31508015DB0400AB3FBF0F0520A0A4BDA620122186371
S31508015DC05A620022074B5A6008BD45F67A10084AFE
S31508015DD0F2E745F61A00074AEEE75362F1E700BF14
S31508015DE0009000500040025000F049026466666661
S31508015DF0D8B80500BBCF05000029CCBF0121002179
S31508015E00FFF7ECBBB0F5207F10B50C4657D008D884
S31508015E10B0F5007F48D003D830B3B0F5C07F23D0A2
S31508015E2010BDB0F5607FFBD129492A48D1F8FC207D
S31508015E3012F080721EBFD1F8FC3023F08073C1F8CE
S31508015E40FC30D0F88030611E23F0300444EA011496
S31508015E50C0F88040002AE3D01D4AD2F8FC3043F04E
S31508015E608073C2F8FC30DBE7FFF7E4FB00F036F895
S31508015E704FF48031184B174A1967136F611E23F4C3
S31508015E80704444EA01341467FEF792FC0446FFF7AE
S31508015E907DF9C0F102012046FFF7AEFF00F024F8B4
S31508015EA0BDE81040FFF70ABD0A4A0139D2F8903019
S31508015EB023F0F85444EA0164C2F89040B0E7054B70
S31508015EC0013C196F21F4806141EA84241C67A7E724
S31508015ED000ED00E0008000500090005002214FF4D0
S31508015EE02070FFF78FBF000008B54FF4C070FFF7A9
S31508015EF0C5FBBDE80840044988428CBF022101213F
S31508015F004FF42070FFF77EBF80F0FA02B0F5807F6C
S31508015F10F8B50C4600F04E816BD85D285DD84C2843
S31508015F2004D82D2844D8232828D8F8BD4D38102858
S31508015F30FBD801A353F820F0956101082B5F0108EE
S31508015F402B5F01082B5F01088F6001082B5F010891
S31508015F502B5F010849630108C76001081F60010832
S31508015F60296301082B5F01082B5F01082B5F0108D4
S31508015F702B5F01082B5F010869630108243809288A
S31508015F80D3D801A353F820F095610108956101085A
S31508015F909561010895610108956101082B5F010862
S31508015FA0756101082B5F01085560010863620108E4
S31508015FB03D2800F046813E28B7D1093C032C8CBF09
S31508015FC00021B04BB04A98BF195DD2F8403223F090
S31508015FD003030B43C2F84032A7E78028A5D18B1EDD
S31508015FE0062B00F2C480DFE803F0BFADC27EC2C251
S31508015FF0BC00B0F5F06F00F024813BD8B0F5B06F66
S3150801600000F0B8801BD8B0F5607F00F067818CD3AB
S31508016010B0F5806F00F0BE80B0F5A06F85D1073C62
S315080160200B2C8CBF0021994B974A98BF195DD2F862
S31508016030203223F007030B43C2F8203275E7B0F587
S31508016040D06F00F00E81B0F5E06FB6D0B0F5C06F35
S315080160507FF46BAF093C032C8CBF00218C4B8A4A19
S3150801606098BF195DD2F8403123F003030B43C2F8F8
S3150801607040315AE7B0F5206F00F0668117D8B0F5C0
S31508016080086F00F01B81B0F5106F7FF44EAF093C25
S31508016090062C8CBF00217F4B7B4A98BF195DD2F82D
S315080160A0083223F007030B43C2F808323DE7B0F57F
S315080160B0406F00F03981B0F5486F00F05581B0F5B1
S315080160C0286F7FF432AF112C00F05E81152C14BFB6
S315080160D0002102216C4AD2F8703223F003030B43E4
S315080160E0C2F8703221E7002502264FF480370121D4
S315080160F0022000F0C7F9FFF79DFAFFF7EFFE664B9E
S31508016100614A1F67136F23F0070333431367FEF7CB
S315080161104FFB0646FFF73AF8C0F102013046FFF792
S315080161206BFE0121002000F0EDF9FFF7DDFEFFF718
S31508016130C5FB002D7FF4F9AE032C7FF4F6AE574B61
S315080161409F62F2E64FF48012534B0E465A664FF49D
S315080161508032534B9D6A03F58053C5F300659A62F5
S31508016160C3E700250426C0E700250126BDE700256B
S315080161702E46BAE7023C0E2C8CBF0021494B424AF7
S3150801618098BF195DD2F8803123F003030B43C2F897
S315080161908031CAE6023C052C8CBF0021424B3A4AA3
S315080161A098BF195DD2F8203123F007030B43C2F8D3
S315080161B02031BAE6A1F10904082C3FF6B6AE01A3CF
S315080161C053F824F0E9610108E96101082B5F010828
S315080161D0E9610108176201082B5F01082B5F0108B5
S315080161E02B5F0108E96101084FF48032264B2F49DC
S315080161F0586E03F580535A664B6A43F001034B62A6
S31508016200C1035CBF2A4B5A664FF0E022136923F09B
S315080162100403136189E64FF480321B4B2349586EF8
S3150801622003F580535A664B6A23F001034B62C30395
S315080162305CBF1F4B5A664FF0E022136943F0040313
S31508016240E7E7093C032C8CBF00211A4B0E4A98BF7D
S31508016250195DD2F8603123F003030B43C2F86031AC
S3150801626063E6093C062C8CBF0021134B064A98BFEE
S31508016270195DD2F8003223F007030B43C2F8003246
S3150801628053E600BFD584050800800050F084050850
S31508016290D5840508D9840508009000500060005A85
S315080162A00040005AC0840508CF84050800C007507D
S315080162B000A00050D5840508D9840508CC1E062CF3
S315080162C08CBF0021314B324A98BF195DD2F8003193
S315080162D023F003030B43C2F8003126E62D49063C99
S315080162E0D1F8FC2012F080721EBFD1F8FC3023F0E1
S315080162F08073C1F8FC30082C8CBF0020264B24493A
S3150801630098BF185DD1F8803023F003030343C1F821
S315080163108030002A3FF409AE1E4AD2F8FC3043F019
S315080163208073C2F8FC3000E6023C052C8CBF0021C4
S315080163301A4B174A98BF195DD2F8283123F007037B
S315080163400B43C2F82831F0E5023C0F2C8CBF002123
S31508016350134B0F4A98BF195DD2F8603223F0070331
S315080163600B43C2F86032E0E5023C0F2C8CBF0021DA
S315080163700C4B074A98BF195DD2F8943223F00703EC
S315080163800B43C2F89432D0E50121A3E6E08405085F
S315080163900080005000ED00E0E7840508CF84050879
S315080163A0FC840508FC840508EFF3108072B6704773
S315080163B000B962B67047EFF31180302383F3118871
S315080163C0704780F311887047054B420953F822300C
S315080163D000F01F0023FA00F0C04300F001007047E7
S315080163E000E100E0024A536B0342FCD1704700BF4B
S315080163F000400950044A4178536F23F4407343EA35
S3150801640001235367704700BF00400050704770472B
S315080164100A4A10B51369044643F00403136102F0EE
S31508016420F7FAFFF7F3FF30BFFFF7F1FF02F004FBBE
S315080164301CB9BDE81040FEF7BBB910BD00ED00E080
S31508016440084A10B51369044643F00403136102F0C0
S31508016450DFFA30BF02F0F0FA1CB9BDE81040FEF7CA
S31508016460A7B910BD00ED00E070477047034A0179EE
S31508016470D36E23F030030B43D366704700400050B8
S3150801648070470000F8B504461C4BD3F88420D106A2
S31508016490FBD4D3F88430C3F381139C422CD0FEF786
S315080164A06DF9012C064602D12146FFF7A5FCFFF737
S315080164B07BFF4FF00072124B07465A662046FFF7DC
S315080164C0DFFF4FF480630D4D621E93402B676B6EA1
S315080164D09A0103D4D5F884309B060AD53846FFF7C6
S315080164E067FF022C08D13046BDE8F8400021FFF7C6
S315080164F083BCD5F88430EAE7F8BD00BF00400050F8
S315080165000060005007B518B90191FEF737F90199EE
S31508016510064B1B7843B1064B984205D8012003B0B8
S315080165205DF804EBFFF7AEBF0220F8E7F42300207D
S31508016530005A62020278034B012100201A70FFF704
S31508016540E1BF00BFF42300204FF00042154B10B500
S315080165505A664AF6CD3314494C6C0B6404F00104AF
S3150801656088B90120FFF73EFF4B68DB0704D50F4BBF
S3150801657058600B6BD807FCD514B10B4B0C4A1A643F
S3150801658037F00FFB10BD0B6B1A07FCD42022074B03
S315080165909A620122A3F580535A60034A936A9B06BD
S315080165A0FCD5E9E700900050004009500060095009
S315080165B03254FFFF4FF0004238B5164B01465A6672
S315080165C04AF6CD33144C154A656C236443780B207F
S315080165D05B0043F00103D363FFF704FF63688A781E
S315080165E023F4F87343EA02136360CA784B7943EAE2
S315080165F00223A3600A798B7943EA02232361087887
S31508016600FFF7A2FFEB0744BF054B236437F0C9FA2E
S31508016610012038BD0090005000400950004000504C
S315080166203254FFFF4FF00042124B70B55D6E03F511
S3150801663080535A664AF6CD3304460F4980204E6C7C
S315080166400B64FFF7CFFE0B6A23F00F030F2C94BFE1
S31508016650234343F00F030B62F30744BF074B0B6455
S31508016660002DA2BF4FF00042054B5A6637F099FA42
S3150801667070BD00BF00800050004009503254FFFF32
S3150801668000A000504FF00042104B70B55D6E03F547
S3150801669080535A664AF6CD3304460D4980204E6C1E
S315080166A00B64FFF79FFE0B6A23F4F85343EA0423AE
S315080166B00B62F30744BF074B0B64002DA2BF4FF0D3
S315080166C00042054B5A6637F06CFA70BD00800050DF
S315080166D0004009503254FFFF00A00050436D0B42A1
S315080166E0FCD1704708B54368DA0714D58368DB0718
S315080166F002D50369D90707D50A2350218363FFF712
S31508016700EDFF836C9A07FCD1012200F500535A600C
S3150801671043689B07FCD408BD38B50C4601210246DF
S3150801672000F58053596004F00F0540F6FF71FFF735
S31508016730D5FF78218563FFF7D1FF04F001036107CF
S3150801674048BF43F00203916C01F003019942FAD163
S3150801675038BD000010B5FFF7C5FF042300F58051C9
S3150801676000F500520B6113610B6113610B61136133
S315080167700B611361202341F2020103610023C36007
S31508016780836041614FF4A0218361836541620549B4
S31508016790C36103628362C36243630365D1640363AE
S315080167A010BD00BFFF3F0D0309B9FFF79BBFFFF7F8
S315080167B0B3BF836C1B06FCD5C06BC0B27047836C34
S315080167C05B06FCD541647047F8B50546144608468C
S315080167D041B9344B9D422FD0334B9D4208BF5720B8
S315080167E0FEF74CFFAB68DE072ED5B0FBF4F46E68F6
S315080167F0013C16F0010625D028212846FFF76EFF31
S31508016800AB6C99071AD1AB6CDA0719D4AB6C13F0D8
S31508016810020F0CBF002706272846FFF763FF2869E2
S3150801682020F07F4040EA04642C61DEB139462846EF
S31508016830BDE8F840FFF7B8BF5620D1E70527EBE7D3
S315080168400927E9E73746EAE76B68AB6DAF68DB0707
S3150801685007F0E00748BF6400402F1BD003D8DFB11B
S31508016860202F1BD0F8BD602F1AD0802FFAD1012610
S3150801687004FB06F34101B1FBF3F30C4A203B02EAA0
S31508016880C30228460121FFF729FF2A63BDE8F8401C
S31508016890FFF724BF0626EBE71026E9E70826E7E710
S315080168A00426E5E70000015B00000A50F8FF7F00B7
S315080168B0F8B51E46436804460D4617461BB140F611
S315080168C0FF71FFF70BFF2046FFF744FFE9896B7B52
S315080168D062690B43298A22F44C520B4322F00F02B8
S315080168E013436361A2682B7E297B22F0804222F042
S315080168F0E202194311436A691143AA68A1601AB9E8
S31508016900A26842F00042A260E869002862D0A26843
S31508016910017A42EA8152A260A268817A42EA414238
S31508016920A2608288A16802F4C0420A43A260A268F2
S31508016930417842EA8102A260A268417B42EAC10229
S31508016940A260A268817B42EA0112A260A2688178EC
S3150801695042EA8122A260C2798179520242EA8122FF
S31508016960E260027802F0FD01012908BFE168A2F19F
S31508016970020204BF41F00401E160012A5A495B4A57
S3150801698078D88C4274D05A498C420CBF01214FF0F9
S31508016990FF3102EB411241F294414FF0020C42F8E9
S315080169A001C0427A04F580518A621AB1E26842F45A
S315080169B00062E260C27A6AB1E2684B4942F4004277
S315080169C0E260027B8C424B4902F00F0208BF4A671C
S315080169D0C1F8802047B197F8202004F5805C002A89
S315080169E057D00122CCF820207EB304F5805013B18C
S315080169F04FF40043836596F821203B4B102A3E4904
S31508016A0057D89C4253D03A4B9C420CBF01234FF0B6
S31508016A10FF330127CF54768C3349B6F5006F374BD0
S31508016A2055D88C4251D032498C420CBF01214FF0C6
S31508016A30FF3101275F54A36D324323F4F95323F041
S31508016A401E031343A3650123836505212046FFF72A
S31508016A5063FEAA6812B16968FFF7B6FE204629786F
S31508016A60FFF7A2FEA36CDB4313F4405FFAD1F8BD2E
S31508016A7000218EE78C420AD01D498C420CBF0121A8
S31508016A804FF0FF3102EB411242F2944185E70021B2
S31508016A90F8E797F82210E06997F821200A4320F0D1
S31508016AA009010A4342F00102CCF81C209CE70023A5
S31508016AB0AFE79C4207D00E4B9C420CBF01234FF017
S31508016AC0FF330227A6E70023FBE70021B1E78C4243
S31508016AD007D007498C420CBF01214FF0FF3102272D
S31508016AE0A8E70021FBE700BF0000015B00C00350D7
S31508016AF000000A5000900350F7230020F5230020D8
S31508016B0000231A46FFF7D4BEFFF7FABF70B505464C
S31508016B1014460E46FFF748FC296881EA040202EA90
S31508016B2006044C402C60BDE87040FFF741BC0000EC
S31508016B30072AF7B501F0030614461F464FF003016D
S31508016B402CD89500A94000FA05F21C480191FFF7D7
S31508016B50DDFF01991A4806FA05F2FFF7D7FF194B27
S31508016B6019499DF82000002F08BF1946012303FA89
S31508016B7004F40C60154B1649002808BF0B461C6027
S31508016B80144B9DF82400C3F820441031A3F6DC33D6
S31508016B90002808BF0B461C6003B0F0BDA2F108052A
S31508016BA0AD00A94000FA05F20B480191FFF7AEFFC7
S31508016BB001990A4806FA05F2CFE700BF00C4035057
S31508016BC008C4035010E4035010D4035014D40350DE
S31508016BD014E4035000E0035004C403500CC40350EA
S31508016BE02DE9F04105460F461E4690464AB1012356
S31508016BF03022194C8B4002FB00443EB304F5825403
S31508016C0023600F21072F05EB450388BFA7F1080469
S31508016C104FEA0313114895BFBC00A40004330C3393
S31508016C2008FA04F2A1401844FFF770FFB8F1000F03
S31508016C300AD101213020084A01FA07F700FB05228B
S31508016C403EB102F582521760BDE8F08104F50154A0
S31508016C50D6E702F50152F6E700C0035030C00350EB
S31508016C60F8B505460E4614465AB3826803F003077B
S31508016C7022F440728260FFF797FBAA6882EA07232B
S31508016C8003F440735340AB60FFF792FB36B9B5F195
S31508016C90B64F17D12E20FEF7F1FC0646AB680C4B12
S31508016CA0D85D60430DD06FEAC4040444A319B3FB4D
S31508016CB0F0F3AA68013B920702D5002B08BF01230E
S31508016CC0AB61F8BD034B9D42E8D12F20E3E700BF36
S31508016CD00C85050800800650043021B100F5805066
S31508016CE001230360704700F50050F9E738B5002322
S31508016CF00E4A036400F50053DA634A7804460D46E2
S31508016D0000F108037AB903F5805302221A60204676
S31508016D10D5E901122B7BFFF7A3FF20462978BDE8A9
S31508016D203840FFF7D9BF03F50053EEE7FFFF1F0011
S31508016D30B0F1B64F2DE9F04322D0804B984240F08E
S31508016D40FA807F4B402505264FF000084FF0030CCB
S31508016D50996800F50054C26B12F4C06F16D09705F6
S31508016D6010D5FD225A7009221A700022026493F97D
S31508016D700110012900D15A7093F90100BDE8F08389
S31508016D80704BDFE75605EED5FE22EBE71F78082F95
S31508016D9000F2CD80DFE817F009001F0041004C0022
S31508016DA06900740096009E00C2004C880A88E506B0
S31508016DB00AD5120A02F0060242F0F0020121197000
S31508016DC04263C1600120D9E702F0FE02A10748BF6C
S31508016DD042F00102F2E7170607D5802100F50052B5
S31508016DE0D1634FF608721A8062E05206EAD54A88DC
S31508016DF0E563D70604D502221A700B784363E1E7E7
S31508016E00920765D507221A701B7901EBC3010B8915
S31508016E10012BD7D10823C360D4E71706DDD4520660
S31508016E20D0D54A88E563970752D583F800C092E71B
S31508016E304C880A88E50643BF120A02F0060242F0A8
S31508016E40F00202F0FE02640709D51C7942F001023C
S31508016E5001EBC4010989012904BF0821C160042184
S31508016E6019700123C3604263ACE71706B5D4570608
S31508016E70A8D54A88E56352072AD507221A70A1E7D9
S31508016E801A795F8801EBC20EBEF80890B94511D888
S31508016E900132D2B21A714F88A3F8028017F0040F93
S31508016EA0C3D1FF0702D4012A7FF655AF08221A700B
S31508016EB00223B0E7DEF80420791C5980D25D4263CB
S31508016EC00622DBE7170688D457067FF57BAFE5630D
S31508016ED01E7040E794067FF575AF20261A7900F5EE
S31508016EE0005401EBC2010A89456AE6635C88A2423D
S31508016EF081BF4968661C5E800D5559888A42D5D975
S31508016F000424012AC46004D9013A914201D1082214
S31508016F10C2601A78092A3FF428AF53E7D2057FF5EC
S31508016F2051AF4FF4807100F50052D1631BE74FF65C
S31508016F3009321A8019E76FF003001FE7008006502F
S31508016F4008240020FC230020B0F1B64F10B407D066
S31508016F501A4B98422ED06FF003005DF8044B704728
S31508016F60174B0269D20744BF2022C2604A88940798
S31508016F7002D50C89002CEED0520702D50A8A002ABE
S31508016F80E9D04FF480721A60002299601A71C02301
S31508016F90C3604369DB050FD4202200F50053DA6389
S31508016FA0084A5DF8044BDA63036C43F4FC63036433
S31508016FB0FFF7BEBE044BD4E7436AEAE700800650F2
S31508016FC0FC230020FFFF1F00082400204FF4803215
S31508016FD0054B9A6641F6713203F51C33DA630122D1
S31508016FE003F50053DA6070470090005041F671329C
S31508016FF00121064BDA6303F50052D1600022DA63F8
S315080170004FF48032A3F518339A667047000003508F
S31508017010436813B9416070475B685A68012AFBD116
S3150801702059607047836813B9816070475B685A680D
S31508017030012AFBD159607047C369032B9FBF00EB37
S3150801704083020133D160C3617047C369042B15D824
S315080170504FF09842116CC902FCD504339B001365A5
S315080170600168103B116041680C30116050F8041C2E
S31508017070034411604FF09842984200D1704750F886
S31508017080041B1160F8E700004FF48032064B5A667C
S3150801709003F5E6239B69C3F38512827003F03F0269
S315080170A01B0B4270037070470090005040F6B732D0
S315080170B0064B5B689BB293429FBF4FF47A72B3FB50
S315080170C0F2F3034AD05C88BF002070470080E00FC6
S315080170D01085050830B5174CA0421BD004F580442D
S315080170E0A04219D004F58044A04217D004F5804483
S315080170F0A04215D004F58044A0420CBF04204FF0ED
S31508017100FF3006250C4C6BB105FB001004EB800023
S31508017110826430BD0020F4E70120F2E70220F0E79F
S315080171200320EEE705FB0010120204EB8004A264BB
S31508017130EFE700BF0080045000810350036BDA07B4
S3150801714002D503695B06F9D4704738B5FFF7F6FF30
S315080171500122044600F500531A63226B12F002025B
S31508017160FBD10B7948881B0243EA8043487A0343DB
S315080171704878002814BF402000200343887A002855
S3150801718014BF802000200343C87A002814BF20209A
S3150801719000200343087B002814BF10200020034366
S315080171A0487B002814BF082000200343887900285B
S315080171B014BF4FF48030002003430120636004F5B7
S315080171C080531863087808B90223E36000236362D1
S315080171D0CD790B7A497943EA8503002918BF10222C
S315080171E01A43A26008B10123E36038BDF8B5144615
S315080171F0FFF7A4FF0122074600F500531A633E6B09
S3150801720016F00206FBD1E279E57A002A627A14BF02
S315080172104FF480100020002A14BF10220022A379FF
S3150801722043EAC5430343134307EB41152B66237A08
S3150801723023B3237B2A6E384642EA43422A66013B38
S3150801724018BF0123A278FFF745FF012307F58057E9
S315080172503B63637822781B0643EA8263E27843EA52
S315080172600233227943EA8223627943EA0223A27A24
S31508017270002A18BF042633436B66F8BD2B6E2B66AE
S31508017280E3E7000038B5012500F580531D630223A5
S31508017290C36000231C4A00F5005483608361626160
S315080172A04FF6FF720362C2614CF68062436243661F
S315080172B083660367C0F88430C0F88830C0F8903018
S315080172C0C0F8A430C0F8A830C0F8B030C0F8FC2027
S315080172D0C0F8EC30C0F8F0301F230146C0F8F8308A
S315080172E0FFF72CFF25630B6B13F00203FBD14B60F1
S315080172F00B66C1F88030C1F8A030C1F8E030C1F89A
S31508017300E830C1F8E43038BD77007707054B9A684D
S315080173109107FCD45A689207F9D4DA69002AF6D19A
S31508017320704700BF00800A5008B5FFF7EFFF01223A
S31508017330024B03F580514A601A6108BD00800A5064
S31508017340074B5A68012A0AD15A68D20702D5DA695F
S31508017350002AF9D102221A610122024B5A607047AA
S3150801736000800A5000A00A5010B5064CFFF7CEFF60
S315080173706368012B03D1FFF7E3FFFFF7C7FF037824
S31508017380E36010BD00800A50E8B94A680B7812B16B
S31508017390127843EAC2034A78002A14BF022200225D
S315080173A013438A6812B1127843EA82138A78002A4B
S315080173B014BF042200221343CA6812B1127843EAA1
S315080173C04223014A9364704700800A5008B9014B69
S315080173D05964704700900A5008B9014B59647047BF
S315080173E000A00A5008B9014B1964704700A00A5059
S315080173F010B9024B186C70470020704700800A507C
S3150801740048B911B1012903D07047044BD86C7047AC
S31508017410024B186D70470020704700BF00800A5064
S3150801742040B911B1012903D07047034BDA6470479B
S31508017430014B1A65704700BF00800A5038B50446EB
S31508017440054D36F0D4FB0FCC0FC594E8030085E84B
S315080174500300002038BD00BF1424002047F6FF733F
S315080174609A42F0B563D0022963D8334BCF0003EBB8
S31508017470C10013F831108478012913D10025C37886
S315080174801B1B9D4202D3E018C0B2F0BD591B4668CA
S31508017490A3EB510136F911609642D4BF0D4601F1AD
S315080174A0FF33EEE740680028EFD0B0F900109142AB
S315080174B004DBB0F902109142B8BF114682883B44F9
S315080174C0FF2A19BFC8222826B0F90620B0F9086094
S315080174D0A2EB01020CBF0125002592FBF6F25F78AB
S315080174E02A447B1E934228BF13464FF47A7E00EB4B
S315080174F0C305AE68EA88AC4611FB02621E4622EA5B
