S017000069326373706D5F626172656D6574616C2E73333783
S3150800000000100020210800081D0800081D08000827
S315080000101D0800081D0800081D0800081D0800081E
S315080000201D0800081D0800081D0800081D0800080E
S315080000301D0800081D0800081D0800081D080008FE
S315080000401D0800081D0800081D0800081D080008EE
S315080000501D0800081D0800081D0800081D080008DE
S315080000601D0800081D0800081D080008F1050008FD
S31508000070FD0500081D0800081D0800081D080008E1
S315080000801D0800081D0800081D0800081D080008AE
S315080000901D0800081D0800081D0800081D0800089E
S315080000A01D080008F90200081D0800081D080008B8
S315080000B01D0800081D0800081D0800081D0800087E
S315080000C01D0800081D0800081D0800081D0800086E
S315080000D01D0800081D0800081D0800081D0800085E
S315080000E01D0800081D0800081D0800081D0800084E
S315080000F01D0800081D0800081D0800081D0800083E
S315080001001D0800081D0800081D0800081D0800082D
S315080001101D0800081D0800081D0800081D0800081D
S315080001201D0800081D0800081D0800081D0800080D
S315080001301D0800081D0800081D0800081D080008FD
S315080001401D0800081D0800081D0800088D41000844
S315080001501D0800081D0800081D0800081D080008DD
S315080001601D0800081D0800081D0800081D080008CD
S3150800017010B5054C237833B9044B13B1044800E095
S3150800018000BF0123237010BDA4100020000000004A
S31508000190B85E000808B5034B1BB10349034800E0E5
S315080001A000BF08BD00000000A8100020B85E0008C7
S315080001B0A3F5803A704700BF174B002B08BF134BB7
S315080001C09D46FFF7F5FF00218B460F461348144A54
S315080001D0121A04F009FA0E4B002B00D098470D4B63
S315080001E0002B00D098470020002104000D000D4880
S315080001F0002802D00C4800E000BF04F0D1F9200026
S31508000200290000F01EF804F0B7F900BF0000080046
S31508000210000000000000000000100020A4100020CC
S31508000220A4110020000000000000000008B500F03E
S3150800023097F800F073F8BDE8084000F025B900F01B
S3150800024005B908B503F0BFFFFFF7F0FF03F0C8FFD5
S31508000250FFF7F5FF002002F04BF8F7E770B5490005
S3150800026086B0022A0C9CADF80410ADF80620DDE92C
S315080002700A650BD0042A0DD0012A12D10293ADF8D3
S315080002800C6001A900F0FEFC06B070BD0295ADF841
S315080002900C40F6E70293ADF80C600495ADF81440EF
S315080002A0EFE76FF00300EFE72DE9FF4D06468846B6
S315080002B017469A4600244FF49675DFF838B0013D84
S315080002C003D2204604B0BDE8F08D0C9B3246CDE93A
S315080002D001A35321434658460097FFF7BFFF041E64
S315080002E0EFD0ECDA002DECD0014804F00BFAE8E781
S315080002F0CC570008008006508021064B03F50052B3
S31508000300C2F82014042203F540531A670122024B4F
S315080003101A70704700C00350C0100020002337B57C
S3150800032018460122072102F02FFE00250124072284
S31508000330234611462846CDE9005402F0AFFD4FF09A
S315080003400072064BC3F880211A6004222B4602214C
S31508000350204603B0BDE8304002F016BE00E100E0DA
S315080003601FB540F62D03ADF80C30002302220120FC
S31508000370009303A9FFF798FF021E03DA9821324873
S3150800038004F03AF92E238DF80C30002302220120BE
S31508000390009303A98DF80D30FFF786FF021E03DAD6
S315080003A0A121294804F028F924238DF80C300623C6
S315080003B08DF80D30002302220120009303A9FFF7D0
S315080003C073FF021E03DAAA211F4804F015F9272332
S315080003D08DF80C3040238DF80D30002302220120C1
S315080003E0009303A9FFF760FF021E03DAB32116483C
S315080003F004F002F92E238DF80C3010238DF80D30F9
S31508000400002302220120009303A9FFF74DFF021ED5
S3150800041003DABC210C4804F0EFF82F238DF80C30D2
S31508000420EF238DF80D30002302220120009303A943
S31508000430FFF73AFF021E03DAC521034804F0DCF889
S3150800044005B05DF804FB00BFEA5700081FB50C4C61
S3150800045023789BB10122302300928DF80E300420B8
S315080004600DF10F030DF10E01FFF71EFF021E03DA51
S31508000470D921044804F0C0F80023237004B010BD45
S31508000480C0100020EA5700081FB501223023009249
S315080004908DF80E3004200DF10F030DF10E01FFF754
S315080004A003FF021E03DAED21044804F0A5F8002133
S315080004B0034804F0A1F805B05DF804FBEA57000804
S315080004C0FA57000800F0B5B808B50321802001F0F6
S315080004D015FC03214FF4806001F010FC09214FF44C
S315080004E0C06001F00BFC09214FF4F06001F006FC36
S315080004F009213E2001F002FC09212D2001F0FEFB16
S315080005000921512001F0FAFB002008BD08B503F0C7
S31508000510F9F800F0D5F803F081F803F0A7F803F02E
S31508000520DBF8FFF7D1FF03F08FF8BDE8084000F0CD
S31508000530B9B808B500F08AFA00F018F800F060F8C3
S31508000540BDE8084000F0C0B808B500F070F803F040
S31508000550A1FC03F0BDFABDE8084000F047B87047B3
S3150800056070477047704770477047000008B53A20D3
S31508000570012100F04DFFBDE80840014800F0CCBA63
S315080005800010002070B5154C9AB006AD0FCC0FC5FB
S3150800059094E80F0004F1100685E80F000FCE0EADA3
S315080005A00FC50FCE0FC596E80F00403485E80F003B
S315080005B094E80F0002AD85E80F00094B2946009321
S315080005C008480EAB06AA03F041F9044618B169219A
S315080005D0054800F029FA20461AB070BD38580008B8
S315080005E0C41000203C11002007580008FFF7CABFB6
S315080005F0014B186803F026BA3C110020FFF7F8BF34
S3150800060008B5044800F04EFBBDE80840024800F073
S3150800061049BB00BF98580008B058000808B5012320
S3150800062004221846002102F0AFFC002008BDFFF79F
S31508000630F5BF08B5002304221946012002F0A4FCE0
S31508000640002008BD082808B50ADC00280EDD013898
S3150800065007280BD8DFE800F00C140A1A0A0A0A1C45
S31508000660202819D0402819D0102813D09F2108E037
S31508000670032101230846042202F086FC002008BD57
S315080006806D21074800F0D0F90E20F8E77621F8E743
S315080006907F21F6E78821F4E79121F2E79A21F0E72E
S315080006A0C858000808B501213A2000F0B1FEFFF746
S315080006B009FF0120FFF7C6FFBDE8084000F018B89B
S315080006C001213A2000F0A4BE082000F019BA000063
S315080006D01022024BC3F8A020704700BF00D0035079
S315080006E01022024BC3F8A020704700BF00E0035059
S315080006F070B5454C8EB0264601AD0FCE0FC5336892
S3150800070014342B6006AD0FCC0FC594E80F0085E8AE
S315080007100F0001213A2000F07BFE0121572000F04E
S3150800072077FE4FF48073394DADF81C30384B2846A8
S31508000730039301A906AB059302F044FA01230422A8
S315080007401946022002F020FC022100230846012255
S3150800075002F01AFC012304220321022002F014FCF1
S31508000760042201231146022002F00EFC294C2A4BD2
S315080007704FF44870C4F8C8344FF00213C4F8C434B0
S31508000780A3F58033C4F8CC341C23C4F8B43403F07E
S3150800079033FD1420FFF7A4FF03F02EFD2320FFF7F7
S315080007A097FF03F029FDB9212846FFF799FF01F0C5
S315080007B060FFFFF78DFF002301211A46022002F091
S315080007C0E3FB002302211A46084602F0DDFB01235B
S315080007D000220321022002F0D7FB01230022042174
S315080007E0022002F0D1FB284601F0D8FE002157204E
S315080007F0C4F8C814C4F8C414C4F8CC14C4F8B4149F
S3150800080000F006FE0EB070BD2459000800000A501C
S31508000810E070720000C0035002000300FEE700000B
S3150800082008B500F02DF8124B12498B4212D300205E
S31508000830114B12498B4218D3FFF7BEFC186850F8C3
S315080008402240586840F82240013298688242F5D31F
S315080008500C33EAE70022F8E71C6844F82200013264
S315080008605C68A242F8D30833E4E70022F8E700BF41
S31508000870C05E0008CC5E0008CC5E0008CC5E0008AE
S315080008804FF480414FF0FF30114B124A10B59A6071
S31508000890D3F8882042F47002C3F888200E4A91667D
S315080008A00E4901F5005210660D4850660220C3F83D
S315080008B0D000BFF34F8FBFF36F8F01244FF440333F
S315080008C00848C0F88041D36004600B6110BD00BFC2
S315080008D000ED00E000000008009000500080004491
S315080008E0F7FF370000E100E0014B1868704700BFCA
S315080008F020100020084B1B6F03F00703022B04D0BF
S31508000900032B05D0012B05D0FEE7044B186870476A
S31508000910034BFBE703487047008000502010002077
S3150800092024100020002D310108B5FFF7E3FF054B21
S315080009301B6FC3F303330133B0FBF3F0024B1860AC
S3150800094008BD00BF008000501C10002000487047FA
S3150800095000B4C404014B1868704700BF2410002077
S31508000960054B1860054B1B6F03F00703032B01D1DA
S31508000970FFF7DABF704700BF241000200080005040
S315080009800020704700487047002D31014FF0B443EE
S315080009909868C0F304400C2822D8DFE800F0092143
S315080009A021212121071719211B1D1F000F487047F8
S315080009B09B6803F04073B3F1807F13D0B3F1007FD7
S315080009C012D00B4A002B08BF1046704709487047DB
S315080009D009487047094870470948704709487047E9
S315080009E0002070470848704708487047405DC600B1
S315080009F000093D000024F400C0EA210180BA8C01F8
S31508000A000048E801005A620280841E0040420F0036
S31508000A104FF4004070474FF47A707047014B1868DE
S31508000A20704700BF28100020FEE7000005490A6845
S31508000A301318054883428CBF4FF0FF320B601046EF
S31508000A40704700BF2C1000200000042008B50121C3
S31508000A503A2000F0DDFC012304220321002002F0E5
S31508000A6093FA002002F019FA01221E4B0721C3F857
S31508000A7044244FF40022A3F550335A664FF46070AD
S31508000A8001F03CF94FF4607000F0EEFC164B00F5EF
S31508000A90D520D3F8F02000F2FC4042F00102C3F85A
S31508000AA0F020D3F8FC2042F08072C3F8FC200F4AED
S31508000AB0A3F55D431A600E4B0222B0FBF3F00D4B13
S31508000AC001381861C3F8F0204FF48072C3F8042384
S31508000AD04FF06043084A0020C3F8B02F074AC3F80E
S31508000AE0802E08BD00D0035000ED00E0FF03004053
S31508000AF0F8590D00000004E055CEACC50900010008
S31508000B004FF060420123D2F8001E03FA00F00843B2
S31508000B10C2F8000E002070472DE9FF47044618B9B1
S31508000B202C215448FFF780FF2368B3F1B64F0AD04B
S31508000B30514A934200F0838042214E4804B0BDE8F2
S31508000B40F047FFF771BF2E20012100F061FC012359
S31508000B500A226179207902F017FA01230A22E1793B
S31508000B60A07902F011FA09260127DFF81081DFF8CB
S31508000B701091257994F805A0002D62D0012D03D097
S31508000B80022D5ED0032D04D13F2323FA0AF3DA0798
S31508000B9004D440F2FE314046FFF746FF302202FBFE
S31508000BA0059507FA0AF305F501552B60642003F04D
S31508000BB023FB257994F805A0002D45D0012D03D0F7
S31508000BC0022D41D0032D04D13F2323FA0AF3DB0774
S31508000BD004D440F22D414046FFF726FF302202FB9F
S31508000BE0059507FA0AF305F5825564202B6003F08C
S31508000BF003FB013EBDD12068B0F1B64F27D10323D0
S31508000C00C9F8E8346279237943EA0243C9F8EC342F
S31508000C10E279A37943EA0243C9F8F03440F20113B2
S31508000C20ADF80030E36869460293A3680193237C14
S31508000C308DF80C3002F084FA04B0BDE8F0872F2056
S31508000C4082E740F2FF33A0E740F2FF33BDE70A4BE5
S31508000C509842E3D10323C9F8F8346279237943EA41
S31508000C600243C9F8FC34E279A37943EA0243C9F896
S31508000C700035D3E75859000800800650B0590008D7
S31508000C8000C0035038B5054602F09EFB044C012807
S31508000C9001D1013C00D138BD284602F083FAF6E7B7
S31508000CA0E1930400D0E900031847000038B50D4663
S31508000CB00446B0B1012803D0022812D0032803D174
S31508000CC03F23EB40DB0704D440F2FE310648FFF72A
S31508000CD0ABFE302001214443044B01FA05F51D51B2
S31508000CE038BD40F2FF33ECE7B059000840E0035046
S31508000CF038B50D460446B0B1012803D0022812D0F3
S31508000D00032803D13F23EB40DB0704D440F22D41EF
S31508000D100648FFF789FE302001214443044B01FAB7
S31508000D2005F51D5138BD40F2FF33ECE7B059000810
S31508000D3040D0035010B5044601213A2000F068FB64
S31508000D40A3782078B3FA83F3042261785B0902F06A
S31508000D501BF9002010BD034659789B7800780BB91B
S31508000D60FFF7A4BFFFF7C4BF034659789B780078FE
S31508000D700BB9FFF7BDBFFFF799BF000038B5047878
S31508000D804578ACB1012C03D0022C11D0032C03D129
S31508000D903F23EB40DB0704D44FF489610648FFF78D
S31508000DA043FE302301225C43044BAA401A5138BD46
S31508000DB040F2FF33EDE700BFB059000840F003509A
S31508000DC070B5057804464678E5B1012D03D0022DA5
S31508000DD018D0032D03D13F22F240D30704D44FF491
S31508000DE083610A48FFF720FE1023302212FB0535DF
S31508000DF0074BEB58F34003F00100A3780BB980F0DA
S31508000E00010070BD40F2FF32E6E700BFB0590008A6
S31508000E1030C00350044BD3F88420D206FBD4D3F851
S31508000E208400C0F3811070470040005038B50F4B5E
S31508000E300546D3F880300C4603F00303012B09D08E
S31508000E40022B0FD00A4840F6B271FFF7EDFD0023DA
S31508000E50184602E0FFF74EFD0E2305B1286004B1DF
S31508000E60236038BDFFF792FD0723F6E700800050A0
S31508000E70FE59000838B5194B0546D3F820310C46FB
S31508000E8003F00703013B052B20D8DFE803F0030B2B
S31508000E90130F171BFFF728FD052305B1286004B1BA
S31508000EA0236038BDFFF756FD0323F6E7FFF76EFD0F
S31508000EB00723F2E7FFF766FD0223EEE7FFF714FDC7
S31508000EC00623EAE7FFF746FD0423E6E7044841F26E
S31508000ED02B01FFF7A9FD00231846DEE70080005026
S31508000EE0FE59000838B5194B0546D3F828310C4683
S31508000EF003F00703013B052B20D8DFE803F00313B3
S31508000F001B0F0B17FFF7F0FC052305B1286004B18A
S31508000F10236038BDFFF7E8FC0623F6E7FFF736FD42
S31508000F200723F2E7FFF716FD0323EEE7FFF712FDA7
S31508000F300423EAE7FFF726FD0223E6E7044840F61E
S31508000F403E61FFF771FD00231846DEE7008000507A
S31508000F50FE590008F7B50027144B0197D3F88041CE
S31508000F60064604F00304022C0D4614D0032C0DD0BB
S31508000F70012C14D1394601A8FFF77CFF10240EB1C5
S31508000F80019B336005B12C6003B0F0BDFFF7FEFC92
S31508000F9007240190F3E7FFF7F5FC0190EFE741F22C
S31508000FA078110348FFF740FD3C46E8E7008000500B
S31508000FB0FE590008002337B50193184B0546D3F8A8
S31508000FC020320C4603F00703013B032B1ED8DFE84B
S31508000FD003F0020E1318002101A8FFF783FF12235E
S31508000FE00DB1019A2A6004B1236003B030BDFFF742
S31508000FF0CDFC07230190F3E7FFF70AFD0A230190CA
S31508001000EEE7FFF70BFD09230190E9E740F6FD51EE
S315080010100348FFF709FD0023E2E700BF0080005000
S31508001020FE59000838B5124B0546D3F840310C4630
S3150800103003F00303022B0BD0032B0DD0012B0FD18A
S31508001040FFF7E6FC0A2305B1286004B1236038BD22
S31508001050FFF7E4FC0923F6E7FFF7DDFC0C23F2E7CC
S31508001060044841F25901FFF7DFFC00231846EAE776
S3150800107000800050FE590008002337B50193184B2D
S315080010800546D3F860320C4603F00703013B032BF1
S315080010901FD8DFE803F0020E1914002101A8FFF794
S315080010A0E9FE10230DB1019A2A6004B1236003B04A
S315080010B030BD002101A8FFF7B5FF1123F2E7FFF7BE
S315080010C065FC07230190EDE7FFF75CFC022301901E
S315080010D0E8E740F6A2610348FFF7A6FC0023E1E72C
S315080010E000800050FE590008002337B50193184BBD
S315080010F00546D3F894320C4603F00703013B032B4D
S315080011001FD8DFE803F0020E1914002101A8FFF723
S31508001110B1FE10230DB1019A2A6004B1236003B011
S3150800112030BD002101A8FFF77DFF1123F2E7FFF785
S315080011302DFC07230190EDE7FFF724FC022301901D
S31508001140E8E740F6D5610348FFF76EFC0023E1E7C0
S3150800115000800050FE59000873B500240F4B019417
S31508001160D3F87032064603F00303012B0D4607D069
S31508001170022B11D04FF470610948FFF755FC04E0C3
S31508001180214601A8FFF74EFF11240EB1019B3360DB
S3150800119005B12C6002B070BD1524F6E7008000503A
S315080011A0FE59000838B5154B0546D3F800320C46EB
S315080011B003F00703013B032B18D8DFE803F0020A04
S315080011C00E12FFF725FC0A2305B1286004B1236037
S315080011D038BDFFF723FC0923F6E7FFF71CFC0C23B1
S315080011E0F2E7FFF7A1FB0F23800AEDE7044841F277
S315080011F02E21FFF719FC00231846E5E7008000506A
S31508001200FE59000838B5154B0546D3F808320C4682
S3150800121003F00703013B032B18D8DFE803F0020AA3
S315080012200E12FFF7F5FB0A2305B1286004B1236007
S3150800123038BDFFF7F3FB0923F6E7FFF7ECFB0C23B2
S31508001240F2E7FFF771FB0F23800AEDE7044841F246
S315080012506221FFF7E9FB00231846E5E70080005006
S31508001260FE59000838B5124B0546D3F840320C46ED
S3150800127003F00303022B0BD0032B0DD0012B0FD148
S31508001280FFF7C6FB0A2305B1286004B1236038BD01
S31508001290FFF7C4FB0923F6E7FFF7BDFB0C23F2E7CC
S315080012A0044841F2F111FFF7BFFB00231846EAE7AD
S315080012B000800050FE59000838B5124B0546D3F891
S315080012C060310C4603F00303022B0BD0032B0DD021
S315080012D0012B0FD1FFF79CFB0A2305B1286004B147
S315080012E0236038BDFFF79AFB0923F6E7FFF793FB60
S315080012F00C23F2E7044841F28701FFF795FB002328
S315080013001846EAE700800050FE59000870B5054601
S3150800131014460E4600F0D2FF296881EA040202EA62
S3150800132006044C402C60BDE8704000F0CBBF0000BE
S31508001330B0F5207F10B52ED009D8B0F5007F24D09F
S3150800134003D868B1B0F5C07F0AD000241BE0B0F519
S31508001350607FFAD1124BD3F88040C4F3011412E02F
S315080013600F4B1C6F230B13F00E0FC4F303340AD074
S31508001370032C08D0072C06D00F2C04D040F272217B
S315080013800848FFF751FB601C10BD054BD3F8904089
S31508001390C4F30464F7E7024B1C6FC4F38024F2E736
S315080013A000800050FE5900084FF4803238B5104BC3
S315080013B004469A6600200D46FFF7BAFF41F67132D9
S315080013C00C4B6043DC69DA635A6804F4803422F40F
S315080013D040125DB9084988428CBF4FF4801000203E
S315080013E0104358600CB10022DA6338BD0349F2E7AE
S315080013F00090005000000350005A6202002D31018F
S3150800140008B5FFF7A3FABDE808400021FFF7CCBFEF
S3150800141070B5440905460E460ED140F216310F48FE
S31508001420FFF702FB05F01F05AEB104F58053012056
S3150800143000FA05F51D6070BD012C08D0022C08D0F5
S315080014404FF448710548FFF7EFFA0024EAE7044C21
S31508001450E8E7044CE6E704F50053E8E7FE59000818
S315080014606480005068800050002130B5802885B01F
S315080014700446CDE9001100F0938029D8002800F031
S315080014809580A0F120043D2C35D83D2C33D8DFE8D3
S3150800149004F08D998D99A8A8A8A8A899B23FC86301
S315080014A03F99999932323232323232329999996B5E
S315080014B0D29932323232323232323232323232A881
S315080014C08D8D8DCD3F3FD77A50AD32323232328252
S315080014D0B0F5B06F00F08F8030D8B0F5207F71D0AE
S315080014E00FD8B0F5C07F61D0B0F5007F61D0B0F5F8
S315080014F0807F00F0858040F26D415448FFF794FAEA
S3150800150051E0B0F5607F67D00DD8B0F5407FF2D1D5
S31508001510FFF70AFA04464FF42070FFF709FFB4FBF9
S31508001520F0F040083EE0B0F5806F5AD0B0F5A06FF5
S31508001530E1D100216846FFF73DFD34E0B0F5106FB4
S3150800154074D016D8B0F5E06F75D00AD8B0F5C06F6C
S3150800155067D0B0F5D06FCED100216846FFF722FEDE
S3150800156021E0B0F5F06FC6D100216846FFF7A4FE6A
S3150800157019E0B0F5406F39D00AD8B0F5206F5FD0C2
S31508001580B0F5286FB7D100216846FFF7E5FD0AE0F8
S31508001590B0F5486FAFD100216846FFF7A5FD02E018
S315080015A0FFF7A8F90090009805B030BDFFF7BCF921
S315080015B0F8E7FFF79FF905462046FFF7B9FEB5FBA2
S315080015C0F0F0EFE7FFF7B0F904464FF42070FFF7A5
S315080015D0AFFEB4FBF0F0E5E701A8FFF727FC019D95
S315080015E0EAE700216846FFF745FCDCE70021684684
S315080015F0FFF778FCD7E700216846FFF7ABFCD2E790
S315080016004FF0E02302911B695B0705D5FFF78CF9BC
S315080016100290029B0093C6E703A902A8FFF702FD02
S31508001620F7E700216846FFF7FDFCBCE7002168469E
S31508001630FFF7E8FDB7E700216846FFF713FEB2E7B4
S3150800164000216846FFF718FDADE700BFFE59000800
S3150800165008B58020FFF708FF034B98429EBF4FF45A
S315080016608032024B1A6708BD005A620200A0005079
S315080016701FB50023B0F5807F019300F0C38064D8BE
S315080016805D2855D84C2806D82D2847D823282BD886
S3150800169040F24B51A5E04D381028F9D801A353F86C
S315080016A020F000BFFB1700089116000891160008E5
S315080016B091160008AD170008911600089116000843
S315080016C081180008CB17000871170008771800085A
S315080016D09116000891160008911600089116000840
S315080016E0911600088B18000824380928D0D801A3B9
S315080016F053F820F0FB170008FB170008FB17000833
S31508001700FB170008FB17000891160008EB170008DE
S31508001710911600088D170008311800083D2800F0BA
S3150800172082803E28B4D1002001A9FFF79BFD60E026
S315080017308028ADD1574B1B6F03F00703013B032BE2
S315080017404DD8DFE803F04A47878FB0F5F06F6AD0C7
S3150800175021D8B0F5B06F48D00FD8B0F5607F00F04B
S31508001760858095D3B0F5806F47D0B0F5A06F8FD13F
S31508001770002001A9FFF71EFC3BE0B0F5D06F57D05B
S31508001780B0F5E06FCFD0B0F5C06F81D1002001A9C8
S31508001790FFF748FC2DE0B0F5206F71D00BD8B0F5F7
S315080017A0086F4AD0B0F5106F7FF472AF002001A918
S315080017B0FFF728FD1DE0B0F5406F5CD0B0F5486F27
S315080017C063D0B0F5286F7FF463AF002001A9FFF757
S315080017D0C3FC0EE0052301930BE00223FBE740F26E
S315080017E09F412D48FFF720F903E0002001A9FFF7E4
S315080017F0B1FB019805B05DF804FB002001A9FFF7CD
S3150800180039FBF6E702934FF0E0231B695B0705D522
S31508001810FFF78AF80D230393039BDCE703A902A8C5
S31508001820FFF700FCF8E7002001A9FFF745FDE0E710
S31508001830002001A9FFF7B6FCDBE7164BD3F8003109
S3150800184003F00303022B07D0032B09D0012B0BD17E
S31508001850FFF780F80323BEE7FFF7E0F80923BAE7A6
S31508001860FFF78EF80823B6E70123B4E7184601A95F
S31508001870FFF7DCFABDE7002001A9FFF733FBB8E75D
S31508001880002001A9FFF7F8FBB3E7002001A9FFF73D
S315080018902BFCAEE700800050FE59000838B50368F7
S315080018A004460F2B04D940F663217A48FFF7BCF8A3
S315080018B063680F2B04D940F666217648FFF7B4F81B
S315080018C0A3680F2B04D940F669217248FFF7ACF8D4
S315080018D0237B0F2B04D940F66C216E48FFF7A4F83A
S315080018E0637B0F2B04D940F66F216A48FFF79CF8F3
S315080018F0A37B3F2B04D940F672216648FFF794F87C
S31508001900E37B3F2B04D940F675216248FFF78CF834
S315080019102369032B04D940F678215E48FFF784F83B
S315080019206369032B04D940F67B215A48FFF77CF8F4
S31508001930E369032B04D940F67E215648FFF774F86D
S315080019408020FFF795FE032800F083804FF480126D
S31508001950514B4FF0A0615A6645F60E034F4AC2F83E
S3150800196080304F4B99624FF4803103F5805399626A
S31508001970916D11F48031FBD1D4E900031B0543EACC
S315080019800063E07B0343207B43EA0043607B43EA32
S315080019900033A07B43EA801313619069D4E90453AA
S315080019A01B0643EA856300F000400343A07EE57EFC
S315080019B00343207E43EA0043607E43EA00239361A3
S315080019C0E069136A00280CBF0022082223F00F03DF
S315080019D043EA000343EA850343EA02032F4A314DEB
S315080019E0136237D194F82430916A94F82000DB000A
S315080019F00D4043EA401394F821102B4343EA0113A0
S31508001A0043F480339362284B916D33EA0101FBD18D
S31508001A104FF08071224881621369A56823F4700328
S31508001A2043EA055313614FF00043836194F822306B
S31508001A300BB91E4B996294F823301BB94FF48032C8
S31508001A401A4B9A6294F825301BB1144B184AC3F8FE
S31508001A50802038BD022808D11161164891614FF4DB
S31508001A6008524FF47F41FFF751FC0C4994F8223095
S31508001A708A6A94F820001B06154043EA401394F836
S31508001A8024202B4343EAC20394F8232043EA024363
S31508001A908B62D7E7FE590008009000500040005AB4
S31508001AA00050005AC7FFFEFE030001000060005AFE
S31508001AB0F1A7FFFF3440005A014B93F90000704725
S31508001AC030100020436810B5072B044604D940F6A9
S31508001AD0E1312A48FEF7A8FFA368032B04D940F68C
S31508001AE0E3312648FEF7A0FF2378032B04D940F6F6
S31508001AF0E5312248FEF798FF94F90130002B04DA05
S31508001B0040F6E7311D48FEF78FFF4FF400011C4AE7
S31508001B10637851664FF4D151022002F5B83251620A
S31508001B2018494F2B48604FF0010028BF4F2301F595
S31508001B30805148601169C903FCD4217843EA01231E
S31508001B405361D4E901131B0143EA0123617B0B436B
S31508001B50217B43EA41039360E37BA17B1B0143EAB4
S31508001B604113617C0B43217C43EA41035360A37C08
S31508001B7013B16FF4D153536210BD00BFFE5900086C
S31508001B800090005000100250014B1880704700BFAB
S31508001B90321000200029CCBF01210021FFF704BC28
S31508001BA0B0F5207F38B577D00ED8B0F5007F61D074
S31508001BB003D890B3B0F5C07F2FD040F2F921BDE825
S31508001BC038403D48FEF730BFB0F5607FF5D13B4A57
S31508001BD04C1ED2F8FC5015F080751EBFD2F8FC30AA
S31508001BE023F08073C2F8FC30032C04D940F2DB21C1
S31508001BF03148FEF719FF324BD3F8801021F0300137
S31508001C0041EA0411C3F8801035B12C4AD2F8FC30E9
S31508001C1043F08073C2F8FC3038BD102901F1FF3457
S31508001C2004D8284B23FA01F1CB0704D440F2B22199
S31508001C302148FEF7F9FEFFF7E3FB00F047F84FF4FB
S31508001C408031214B1E4A1967136F23F4704343EA08
S31508001C5004331367FEF768FE0446FFF7DBF8C0F1A6
S31508001C6002012046FFF796FF00F036F8BDE8384037
S31508001C70FFF7EEBC4C1E1F2C04D940F2ED210E488E
S31508001C80FEF7D2FE0E4BD3F8901021F0F85141EA38
S31508001C900461C3F89010BFE74C1E012C04D940F22A
S31508001CA0F3210548FEF7C0FE054B196F21F4806144
S31508001CB041EA84211967AFE7FE59000800ED00E004
S31508001CC000800050160101000090005002214FF4D8
S31508001CD02070FFF765BF000008B54FF4C070FFF726
S31508001CE0C3FBBDE80840044988428CBF0221012194
S31508001CF04FF42070FFF754BF80F0FA02B0F5807FEA
S31508001D00F8B50C4600F062816CD85D285ED84C2880
S31508001D1006D82D2846D823282AD840F667018FE109
S31508001D204D381028F9D801A353F820F0A31F00084E
S31508001D301B1D00081B1D00081B1D0008831E00082C
S31508001D401B1D00081B1D00081F220008B51E0008E1
S31508001D50111E0008E72100081B1D00081B1D0008AE
S31508001D601B1D00081B1D00081B1D00085F2200081C
S31508001D7024380928D1D801A353F820F0A31F000856
S31508001D80A31F0008A31F0008A31F0008A31F00081D
S31508001D901B1D0008711F00081B1D00084B1E0008AC
S31508001DA0AB2000083D2800F06B813E28B5D1093CE0
S31508001DB0032C00F22D82A84B195DA84AD2F84032AE
S31508001DC023F003030B43C2F84032B3E08028A4D1C2
S31508001DD08B1E062B00F2C180DFE803F0BCADBFC73F
S31508001DE0BFBF8100B0F5F06F00F04A813CD8B0F56E
S31508001DF0B06F00F0BD801DD8B0F5607F00F0AB81F4
S31508001E008BD3B0F5806F00F0CC80B0F5A06F84D18D
S31508001E10073C0B2C00F2DE81DFE814F0CE01DC0172
S31508001E20DA01D801D801DC01DC01DC01DC01DC01C6
S31508001E30DC01E301B0F5D06F00F03781B0F5E06F53
S31508001E40B5D0B0F5C06F7FF468AF093C032C00F23B
S31508001E50FC80834B195D814AD2F8403123F0030395
S31508001E600B43C2F8403165E0B0F5206F00F0D7812A
S31508001E7014D8B0F5086F00F04F81B0F5106F7FF4F5
S31508001E804CAF093C062C00F23E81DFE814F02E0127
S31508001E904301430138013C013C013A01B0F5406F6A
S31508001EA000F0A181B0F5486F00F0D981B0F5286F30
S31508001EB07FF433AF112C00F0F281152C00F0F1817C
S31508001EC040F635016748FEF7AFFD00226349D1F8B1
S31508001ED0703223F003031343C1F870322AE0002559
S31508001EE004264FF480370121022000F021FAFFF77B
S31508001EF087FAFFF7EBFE5C4B584A1F67136F23F010
S31508001F00070333431367FEF70FFD0646FEF782FF06
S31508001F10C0F102013046FFF73DFE0121002000F026
S31508001F205FFAFFF7D9FEFFF793FB1DB9032C01D122
S31508001F304E4B9F62F8BD4FF480124B4B0E465A66C5
S31508001F404FF480324A4B9D6A03F58053C5F300650A
S31508001F509A62C6E700250126C3E7002540F28D519F
S31508001F604048FEF761FD2E46BBE700250226B8E786
S31508001F70072C12D0102C12D0022C05D040F2D251C8
S31508001F803848FEF751FD0024344BD3F8801121F070
S31508001F9003010C43C3F88041CCE70324F4E701248A
S31508001FA0F2E7023C052C0AD8324B195D2B4AD2F8C7
S31508001FB0203123F007030B43C2F82031BAE740F279
S31508001FC009612848FEF730FD0021EFE7A1F1090471
S31508001FD0082C33D8DFE804F0050532051C32323206
S31508001FE005004FF480321D4B2349586E03F5805384
S31508001FF05A664B6A43F001034B62C1035CBF1F4B31
S315080020005A664FF0E022136923F00403136191E73F
S315080020104FF48032114B1849586E03F580535A66AF
S315080020204B6A23F001034B62C3035CBF134B5A662A
S315080020304FF0E022136943F00403E7E740F2316109
S31508002040BDE8F8400748FEF7EFBC40F24D61054889
S31508002050FEF7EAFC0021FEE6515A0008008000500F
S31508002060515A0008FE590008009000500060005AB6
S315080020700040005A4B5A000800C0075000A0005004
S31508002080093C032C0AD8884B195D884AD2F8603176
S3150800209023F003030B43C2F860314BE74FF4CD61DD
S315080020A08348FEF7C1FC0021EFE7093C062C13D84C
S315080020B0DFE804F00419190E1212100002227B49F7
S315080020C0D1F8003223F007031343C1F8003231E791
S315080020D00322F4E70422F2E740F2AD617448FEF702
S315080020E0A3FC0022EBE70122E9E702226F49D1F8B7
S315080020F0083223F007031343C1F808321AE703220C
S31508002100F4E70422F2E740F2CD616948FEF78CFC59
S315080021100022EBE70122E9E74C1E082C12D8DFE87B
S3150800212004F0161118111111110F050002225F494A
S31508002130D1F8003123F003031343C1F80031F9E65F
S315080021400322F4E740F2E9615948FEF76DFC0022E4
S31508002150EDE70122EBE7574AD2F8FC5015F08075F7
S315080021601EBFD2F8FC3023F08073C2F8FC30072972
S315080021701CD00E291CD006291CD040F216714C48DA
S31508002180FEF752FC00224949D1F8803023F00303B8
S315080021901343C1F88030002D3FF4CCAE454AD2F83F
S315080021A0FC3043F08073C2F8FC30C3E60222EAE74B
S315080021B00122E8E70322E6E702223C49D1F8203269
S315080021C023F007031343C1F82032B3E60322F4E7EA
S315080021D00422F2E740F266713548FEF725FC002234
S315080021E0EBE70122E9E7023C052C0AD8324B195DD8
S315080021F02E4AD2F8283123F007030B43C2F82831B8
S3150800220098E640F297712A48FEF70EFC0021EFE7A0
S3150800221040F2D1712648FEF707FC0021CDE5102CC7
S3150800222017D012D8022C16D0072C16D040F6070164
S315080022301F48FEF7F9FB00221C49D1F8603223F04B
S3150800224007031343C1F8603274E6112CEED102225B
S31508002250F2E70122F0E70322EEE70422ECE7102C6E
S3150800226017D012D8022C16D0072C16D040F61F010C
S315080022700F48FEF7D9FB00220C49D1F8943223F017
S3150800228007031343C1F8943254E6112CEED1022207
S31508002290F2E70122F0E70322EEE70422ECE7012247
S315080022A014E6022212E600BF515A000800800050C8
S315080022B0FE59000800ED00E04B5A0008EFF31080C5
S315080022C072B6704700B962B67047EFF311803023D3
S315080022D083F31188704780F311887047024A536B5D
S315080022E00342FCD1704700BF004009507047704751
S315080022F0084A10B51369044643F004031361FFF74F
S31508002300F5FF30BFFFF7F3FF1CB9BDE81040FEF735
S315080023100BBB10BD00ED00E0034A0179D36E23F034
S3150800232030030B43D36670470040005070470000E7
S315080023302DE9F0410446264BD3F88420D006FBD479
S31508002340D3F88430C3F381139C423ED0FEF7D2FA09
S31508002350012C05460BD11F4B984204D940F2FD616A
S315080023601D48FEF761FB01212846FFF713FCFFF71E
S31508002370A5FF4FF00072194B07465A662046FFF72D
S31508002380D5FF4FF48063124E621E9340DFF84880F3
S315080023903367736E9A0103D4D6F884309B060AD540
S315080023A03846FFF78FFF022C0FD12846BDE8F041CB
S315080023B00021FFF7EFBBD6F884309906E9D540F23D
S315080023C00B714046FEF730FBE3E7BDE8F08100BF3E
S315080023D000400050005A6202555A0008006000503A
S315080023E007B518B90191FEF785FA0199064B1B78CE
S315080023F043B1064B984205D8012003B05DF804EBBB
S31508002400FFF796BF0220F8E754110020005A62022F
S31508002410704700004FF00042154B10B55A664AF651
S31508002420CD3314494C6C0B6404F0010488B90120BF
S31508002430FFF754FF4B68DB0704D50F4B58600B6B4F
S31508002440D807FCD514B10B4B0C4A1A64FFF7E0FF0A
S3150800245010BD0B6B1A07FCD42022074B9A62012287
S31508002460A3F580535A60034A936A9B06FCD5E9E7AD
S315080024700090005000400950006009503254FFFF98
S315080024804FF0004238B5164B01465A664AF6CD3328
S31508002490144C154A656C236443780B205B0043F0A3
S315080024A00103D363FFF71AFF63688A7823F4F87386
S315080024B043EA02136360CA784B7943EA0223A360AE
S315080024C00A798B7943EA022323610878FFF7A2FF8A
S315080024D0EB0744BF054B2364FFF79AFF012038BD7D
S315080024E00090005000400950004000503254FFFF51
S315080024F00F2870B5044604D940F683511348FEF7F1
S3150800250093FA4FF00042124B12495D6E03F5805361
S315080025105A664AF6CD334E6C80200B64FFF7DEFE12
S315080025200B6A23F00F030F2C94BF234343F00F03CA
S315080025300B62F30744BF084B0B64002DA2BF4FF094
S315080025400042064B5A66FFF763FF70BD555A0008EE
S3150800255000800050004009503254FFFF00A0005090
S31508002560436D0B42FCD1704708B54368DA0714D5AA
S315080025708368DB0702D50369D90707D50A235021E3
S315080025808363FFF7EDFF836C9A07FCD1012200F500
S3150800259000535A6043689B07FCD408BD10B5FFF783
S315080025A0E3FF042300F5805100F500520B61136127
S315080025B00B6113610B6113610B611361202341F2F7
S315080025C0020103610023C360836041614FF4A021C7
S315080025D08361836541620549C36103628362C3629D
S315080025E043630365D164036310BD00BFFF3F0D035A
S315080025F038B5174B044698420D4607D0154B9842F6
S3150800260004D040F263111448FEF70EFA25B92046A5
S31508002610BDE83840FFF7A8BF012204F580535A6089
S3150800262040F6FF71204605F00F02FFF799FFA263F7
S315080026307821FFF795FF05F001036A0748BF43F0C5
S315080026400203A26C02F003029A42FAD138BD00BF17
S315080026500000015B00000A50A25A0008836C1B06A2
S31508002660FCD5C06BC0B27047836C5B06FCD5416471
S315080026707047836C5A06FCD54164836C1B06FCD5EF
S31508002680C06B80B2704700002DE9F04105460C4644
S31508002690174622B94FF402716D48FEF7C5F96D4B1E
S315080026A09D4200F0C9806C4B9D4200F0CA8040F202
S315080026B00B216748FEF7B8F944B940F25A31644825
S315080026C0FEF7B2F92046FEF7CFFE0446AB68D807F8
S315080026D044D5BC4204D240F215215D48FEF7A4F960
S315080026E06B6803F00108B4FBF7F35C1EFF2C04D9F2
S315080026F040F21D215648FEF797F9B8F1000F2BD086
S3150800270028212846FFF72CFFAB6C99071ED1AB6C26
S31508002710DA071DD4AE6C16F002061BD140F22A2148
S315080027204B48FEF781F92846FFF71EFF2B6923F071
S315080027307F4343EA04632B61B8F1000F00F08680FB
S3150800274031462846BDE8F041FFF752BF0526EAE7BD
S315080027500926E8E70626E6E74646E7E76B68012B1B
S3150800276004D040F23D213A48FEF75EF9AB6DA96800
S31508002770DB0701F0E00148BF7F00402946D009D8B1
S31508002780B9B1202938D040F27F21BDE8F041304860
S31508002790FEF74AB9602945D08029F4D107EB4703EB
S315080027A0A34204D940F279212948FEF73DF90123CD
S315080027B008E0B7EB141F04D940F265212448FEF758
S315080027C033F910237B436401B4FBF3F3234E203B18
S315080027D0B6EBC30F4FEAC30404D240F28A211C4861
S315080027E0FEF722F9284634400121FFF7B9FE2C638B
S315080027F0BDE8F041FFF7B4BEB7EBD40F04D940F2F9
S315080028006A211348FEF710F90823DBE70626B4FB0E
S31508002810F6F3BB4204D240F26F210D48FEF704F9E5
S315080028203346CFE7B7EB940F04D94FF41D71084828
S31508002830FEF7FAF80423C5E7002C7FF447AF5624C1
S3150800284040E7002C7FF442AF57243BE7BDE8F08110
S31508002850A25A00080000015B00000A50F8FF7F003A
S31508002860F8B51E46436804460D4617461BB140F6A2
S31508002870FF71FFF775FE2046FFF790FEE9896B7B2F
S3150800288062690B43298A22F44C520B4322F00F0249
S3150800289013436361A2682B7E297B22F0804222F0D3
S315080028A0E202194311436A691143AA68A1601AB979
S315080028B0A26842F00042A260E869002862D0A268D5
S315080028C0017A42EA8152A260A268817A42EA4142CA
S315080028D0A2608288A16802F4C0420A43A260A26884
S315080028E0417842EA8102A260A268417B42EAC102BB
S315080028F0A260A268817B42EA0112A260A26881787E
S3150800290042EA8122A260C2798179520242EA812290
S31508002910E260027802F0FD01012908BFE168A2F130
S31508002920020204BF41F00401E160012A5A495B4AE8
S3150800293079D88C4275D05A498C420CBF01214FF088
S31508002940FF3102EB411241F294414FF0020C42F87A
S3150800295001C0427A04F580518A621AB1E26842F4EB
S315080029600062E260C27A6AB1E2684B4942F4004208
S31508002970E260027B8C424B4902F00F0208BF4A67AD
S31508002980C1F8802047B197F8202004F5805C002A1A
S3150800299058D00122CCF820207EB304F5805013B11C
S315080029A04FF40043836596F821203B4B102A3E4995
S315080029B058D89C4254D03A4B9C420CBF01234FF046
S315080029C0FF330127CF54768C3349B6F5006F374B62
S315080029D056D88C4252D032498C420CBF01214FF056
S315080029E0FF3101275F54A36D324323F4F95323F0D3
S315080029F01E031343A3650123836505212046FFF7BC
S31508002A00F7FDAA681AB120466968FFF73DFE204619
S31508002A102978FFF7EDFDA36CDB4313F4405FFAD189
S31508002A20F8BD00218DE78C420AD01D498C420CBFA7
S31508002A3001214FF0FF3102EB411242F2944184E743
S31508002A400021F8E797F82210E06997F821200A4351
S31508002A5020F009010A4342F00102CCF81C209BE74A
S31508002A600023AEE79C4207D00D4B9C420CBF0123C6
S31508002A704FF0FF330227A5E70023FBE70021B0E765
S31508002A808C4207D006498C420CBF01214FF0FF311A
S31508002A900227A7E70021FBE70000015B00C00350FF
S31508002AA000000A50009003505711002055110020CD
S31508002AB0134B70B5984205460C4606D0114B984202
S31508002AC003D070211048FDF7AFFF1CB972210E48DC
S31508002AD0FDF7AAFF237B802B03D176210A48FDF751
S31508002AE0A3FF637B032B03D979210748FDF79CFFD6
S31508002AF0002321462846BDE870401A46FFF7B0BEB7
S31508002B000000015B00000A50A25A00082B4B70B562
S31508002B10984205460C4641D08A212948FDF784FF8C
S31508002B2034B98C212648FDF77FFF244B9D4237D0C8
S31508002B309E212348FDF778FF637B032B03D9A72142
S31508002B401F48FDF771FF237B802B03D0A9211C4862
S31508002B50FDF76AFF6369B3F1804F03D0AB211848CC
S31508002B60FDF762FF238A23F400539BB2B3F5805F17
S31508002B7003D0AD211248FDF757FFA368013BB3F513
S31508002B80165F03D3AF210E48FDF74EFF00232146FB
S31508002B902846BDE870401A46FFF762BE0029C0D035
S31508002BA05620FEF765FD09380828C1D840F20B13F0
S31508002BB023FA00F0C307BBD5BEE700BF0000015BE0
S31508002BC0A25A0008774B70B5984204460D4606D0BF
S31508002BD0754B984203D0DC217448FDF725FF1DB9D3
S31508002BE0DE217248FDF720FF6A7BAB687AB1704A2E
S31508002BF0934203D9E0216D48FDF716FF2B69D3B13F
S31508002C00DB7BC3B1E3216948FDF70EFF13E0694A90
S31508002C10934203D9E6216548FDF706FF2B6953B1B0
S31508002C201A7F42B1A968644A5B7F914240F2A0804C
S31508002C30042B00F2A08063682E6923B140F6FF7169
S31508002C402046FFF78DFC2046FFF7A8FC22696B7B20
S31508002C50A97B22F087020B43134343F080032361C9
S31508002C6016B32A692369117823F0F8030B43117FF9
S31508002C7043EAC113117943EA4113517A43EA01132E
S31508002C80D17B43EA81132361E168D2E9053021F05B
S31508002C90F04121F4702103430B43117B527B43EA35
S31508002CA0812343EAC233E360A368EA7B23F0030384
S31508002CB0134343F00103A3602EB32A69A16853881E
S31508002CC003F4C0430B43A3605179A36843EA812305
S31508002CD0A3609379D079616A1B01000203F070033F
S31508002CE000F4E06021F4772121F4EE6103430B43FD
S31508002CF0117A527F090301F4E04112040B4302F4EE
S31508002D0070221343636263692A7B23F00F0313431C
S31508002D106361B6B12B695A89A2615A7B3AB1214AD5
S31508002D2094422AD19A7B254902F00F024A67DA7B38
S31508002D303AB11C4A94422AD11B7C204A03F00F035D
S31508002D401367D5E901122046FFF79EFC05212046A8
S31508002D50FFF74EFC28212046FFF702FC2B78A363D9
S31508002D60FFF7FEFBA36CDB4313F4405FFAD170BD9B
S31508002D70042B3FF660AFEE2145E70B4A944201BFAC
S31508002D809A7B0E4902F00F02C1F88020CFE7064A67
S31508002D90944201BF1B7CA2F5CE2203F00F03D36732
S31508002DA0CFE700BF0000015B00000A50A25A0008E6
S31508002DB0002D3101809698003F4B4C00009003503F
S31508002DC01F2970B504460D46164603D991210748B2
S31508002DD0FDF72AFE36B104F58054012101FA05F5FE
S31508002DE0256070BD04F50054F7E700BFF25A0008E5
S31508002DF038B50D460446B0B1012803D0022812D0D2
S31508002E00032803D13F23EB40DB0704D440F22D41CE
S31508002E100648FDF709FE302001214443044B01FA18
S31508002E2005F51D5138BD40F2FF33ECE7B0590008EF
S31508002E3040D0035038B50D460446B0B1012803D03A
S31508002E40022812D0032803D13F23EB40DB0704D422
S31508002E5040F2FE310648FDF7E7FD302001214443E4
S31508002E60044B01FA05F51D5138BD40F2FF33ECE776
S31508002E70B059000840E0035070B5054614460E46A2
S31508002E80FFF71CFA296881EA040202EA06044C40A4
S31508002E902C60BDE87040FFF715BA70472DE9F34777
S31508002EA00D4614461E4681469DF828809DF82C70CE
S31508002EB0002843D0012803D002283FD0032803D195
S31508002EC03F23EB40DB0703D4BF212648FDF7ACFDC3
S31508002ED085EA040333F0030303D0C1212148FDF733
S31508002EE0A3FD072C4FF0030105F0030529D84FEA87
S31508002EF0840A01FA0AF11C4809FA0AF20191FFF755
S31508002F00BBFF0199194805FA0AF2FFF7B5FF3246E1
S31508002F1021461748FFF754FF424621461548FFF752
S31508002F204FFF0123144AA340C2F8203421463A46EB
S31508002F30124802B0BDE8F047FFF742BF40F2FF3340
S31508002F40BFE7A4F1080A4FEA8A0A01FA0AF10C480F
S31508002F5009FA0AF20191FFF78FFF0199094805FA64
S31508002F600AF2D2E73F5B000800C4035008C40350C6
S31508002F7010C4035014C4035000E0035024C4035083
S31508002F8004C403500CC403502DE9F0410D461746FE
S31508002F9098460446002835D0012803D0022831D0A7
S31508002FA0032803D13F23EB40DB0704D44FF4B07169
S31508002FB01A48FDF739FD37B129462046B8F1000F02
S31508002FC023D0FFF715FF0F21072D04EB440688BF12
S31508002FD0A5F108034FEA0616114895BFAB009B00FA
S31508002FE004360C3607FA03F299403044FFF744FFDB
S31508002FF097B929462046B8F1000F09D0BDE8F04137
S31508003000FFF7F6BE40F2FF33CDE7FFF713FFDAE727
S31508003010BDE8F041FFF70EBFBDE8F0813F5B000851
S3150800302030C00350F8B506460C4615469ABB40F222
S315080030300F11BDE8F8402F48FDF7F6BC2E4B9E420F
S3150800304001D12F203DE040F229112A48FDF7ECFC7A
S315080030503AE0032F42D0294B3CE06FEAC505054408
S315080030602C44B4FBF0F4013C0AD540F27511214812
S31508003070FDF7DAFC4FF4BB711E48FDF7D5FC02E0FC
S31508003080B4F5007FF6D2B3689B0702D5002C08BFBB
S315080030900124B461F8BD03F00307836823F4407381
S315080030A08360FFF70BF9B26882EA072303F44073DB
S315080030B05340B360FFF706F934B9B6F1B64FBDD140
S315080030C02E20FEF7D1F90446B3689A07C1D5032F17
S315080030D004D00B4B53F827309C4204D84FF4AF71F9
S315080030E00448FDF7A1FC074BD85D6843B5D140F20B
S315080030F06F119EE78D5B000800800650E85B0008AC
S31508003100DC5B0008F45B0008B0F1B64F38B504463E
S315080031100D4607D0084B984204D040F28F11074855
S31508003120FDF782FC043425B104F58054012323609D
S3150800313038BD04F50054F9E7008006508D5B000899
S31508003140B0F1B64F38B504460D4607D0124B984233
S3150800315004D04FF4D2711148FDF766FC0023104ADB
S31508003160236404F50053DA636A7804F108037AB92C
S3150800317003F5805302221A602046D5E901122B7BFB
S31508003180FFF750FF20462978BDE83840FFF7BCBF57
S3150800319003F50053EEE700BF008006508D5B00087C
S315080031A0FFFF1F00B0F1B64F2DE9F8430BD0824B55
S315080031B0984226D0814840F2FB11FDF735FC6FF0A6
S315080031C00300BDE8F8837E4B402505264FF000082E
S315080031D04FF0030C996800F50054C26B12F4C06FE7
S315080031E015D097050FD5FD225A7009221A700022AC
S315080031F0026493F90110012900D15A7093F901006C
S31508003200DFE7704BE0E75605EFD5FE22ECE71F78BF
S31508003210082F00F2CD80DFE817F009001F004100F3
S315080032204C006900740096009E00C2004C880A880B
S31508003230E5060AD5120A02F0060242F0F00201215A
S3150800324019704263C1600120BBE702F0FE02A107C4
S3150800325048BF42F00102F2E7170607D5802100F5BC
S315080032600052D1634FF608721A8062E05206EAD518
S315080032704A88E563D70604D502221A700B78436399
S31508003280E1E7920765D507221A701B7901EBC3019E
S315080032900B89012BD7D10823C360D4E71706DDD4E1
S315080032A05206D0D54A88E563970752D583F800C0F9
S315080032B093E74C880A88E50643BF120A02F006021D
S315080032C042F0F00202F0FE02640709D51C7942F0CA
S315080032D0010201EBC4010989012904BF0821C16063
S315080032E0042119700123C3604263ACE71706B5D4FD
S315080032F05706A8D54A88E56352072AD507221A70C1
S31508003300A1E71A795F8801EBC20EBEF80890B945A5
S3150800331011D80132D2B21A714F88A3F8028017F079
S31508003320040FC3D1FF0702D4012A7FF656AF08223D
S315080033301A700223B0E7DEF80420791C5980D25DA2
S3150800334042630622DBE7170688D457067FF57BAF6C
S31508003350E5631E7041E794067FF575AF20261A7956
S3150800336000F5005401EBC2010A89456AE6635C88E8
S31508003370A24281BF4968661C5E800D5559888A42FB
S31508003380D5D90424012AC46004D9013A914201D14D
S315080033900822C2601A78092A3FF429AF53E7D205F2
S315080033A07FF551AF4FF4807100F50052D1631CE7E9
S315080033B04FF609321A801AE7008006508D5B00081E
S315080033C05C11002068110020B0F1B64F38B50446EC
S315080033D00D4644D0254B98423ED040F25E312448F3
S315080033E0FDF722FB002D3DD140F25F312048FDF765
S315080033F01BFBB4F1B64F28D11E4B2269D00744BF38
S315080034002022E2606A88910701D5298951B35207BB
S3150800341001D52A8A32B34FF480721A6000229D6061
S315080034201A71C023E3606369DB0513D4202204F50F
S315080034300053DA63104A2046DA63236C43F4FC63CC
S315080034402364BDE83840FFF7ADBE084B9C4209D15E
S315080034500A4BD2E7636AE6E70029F9D1C4E70029EF
S31508003460CAD1C1E76FF0030038BD00BF008006501F
S315080034708D5B00085C110020FFFF1F00681100200B
S31508003480054B9A689107FCD45A689207F9D4DA6909
S31508003490002AF6D1704700BF00800A5008B5FFF72A
S315080034A0EFFF0122024B03F580514A601A6108BDFD
S315080034B000800A50074B5A68012A0AD15A68D2076F
S315080034C002D5DA69002AF9D102221A610122024BD1
S315080034D05A60704700800A5000A00A5010B5064C82
S315080034E0FFF7CEFF6368012B03D1FFF7E3FFFFF772
S315080034F0C7FF0378E36010BD00800A5018B1712138
S315080035001048FDF791BA4A680B7812B1127843EA67
S31508003510C2034A78002A14BF0222002213438A688B
S3150800352012B1127843EA82138A78002A14BF042259
S3150800353000221343CA6812B1127843EA4223024AA8
S3150800354093647047F85B000800800A5020B14FF476
S3150800355082710348FDF768BA024B5964704700BF89
S31508003560F85B000800900A5020B14FF4A071034898
S31508003570FDF75ABA024B5964704700BFF85B00085A
S3150800358000A00A5020B14FF4BE710348FDF74CBAAB
S31508003590024B1964704700BFF85B000800A00A5088
S315080035A008B530B1044840F2B711FDF73DFA0020DE
S315080035B008BD024B186CFBE7F85B000800800A5050
S315080035C008B548B1084840F26621FDF72DFA0020F3
S315080035D008BD064BD86CFBE70029FAD00129F7D1BC
S315080035E0024B186DF4E700BFF85B000800800A502C
S315080035F050B14FF441710748FDF716BA064BDA6425
S315080036007047054B1A6570470029F7D00129F8D08D
S31508003610704700BFF85B000800800A5007B5094BE1
S3150800362018689A889B7900906846ADF804208DF84A
S315080036300630FEF725FF0C20FEF75AFF002003B0E0
S315080036405DF804FB555C000813B50024064A684675
S31508003650536F43F00103536700948DF80440FEF757
S315080036605BFE204602B010BD0040005030B58BB05E
S315080036706C46154D0FCD0FC40FCD0FC495E803004A
S3150800368084E80300114BD3F84C21120314D4D3F861
S315080036905041E4B28DF81940FEF70EFA204480F343
S315080036A008008DF818000A48FDF75AF96846FEF72B
S315080036B0F5F800200BB030BD064B1C884FF6FF739B
S315080036C09C4208BF5724E5E75C5C00080080E00FD1
S315080036D0C01753020001E00F30B5094D87B001ACA1
S315080036E00FCD0FC42B6801A8236024238DF805305D
S315080036F0FEF7E8F96420FEF747FA002007B030BD68
S31508003700845C00086FF00402502110B50A480B4C7F
S3150800371012F0800FD3B21BBF03F00F03043BA318AC
S315080037201B1802F101020CBF83F8001319764C2A04
S31508003730EED1002010BD00BF00ED00E000E100E082
S3150800374010B50446FEF7BAFD024B1C60FEF7BAFD3B
S31508003750002010BD7411002010B5FEF7AFFD034B15
S315080037601C68FEF7AFFD204610BD00BF741100208F
S3150800377007B530B9CDE90012FFF7EEFFDDE9001213
S3150800378030B1436823B1006803B05DF804EB18470D
S31508003790232003B05DF804FB30B51C4685B058B944
S315080037A0CDE90012FFF7D8FFDDE9001204B903AC32
S315080037B020B9232005B030BD03B903AC8568002DB8
S315080037C0F7D023460068A847F4E70422C36A03F53E
S315080037D080531A65704710B50446C26A936C590639
S315080037E0FCD50023A16B1A4694F83400FFF7CCFBEE
S315080037F00023216C1A4694F83C00FFF7C5FB94F8A1
S315080038005430DA0706D50023A16C1A4694F844000A
S31508003810FFF7BAFB94F854309B0706D50023216DB1
S315080038201A4694F84C00FFF7AFFBE06A0021FEF752
S31508003830DFFE206B0021FDF7EBFD002010BD08B56B
S31508003840C06AFEF711FF002008BD00002DE9F0410F
S315080038508AB01C4606AB0646884618461746002117
S315080038601022109D00F0C0FE227903460AB18DF899
S315080038701820FB6163793046002B14BF012302230D
S31508003880CDE903336B4B424602936B4B29460193B2
S3150800389000230093694B00F0C5F90646002840F05E
S315080038A09B80A36801212B63E3693A202B64237E5E
S315080038B085F83C306369AB63237C85F83430636AEA
S315080038C0AB6494F8203085F84430E36A2B6594F8A5
S315080038D0283085F84C302368EB62FDF799FD012303
S315080038E004226169207CFFF74FFB01230222E1696C
S315080038F0207EFFF749FB3E7085F854600121A068D9
S31508003900FDF786FD63793BBB01213620FDF780FD77
S315080039100A21A068FEF7F2F939462068FFF7F6F89B
S315080039201021E268464B676903EB4210C0F894140D
S31508003930217C253241EA0741C0F8AC14217EE069B2
S3150800394003EB421341EA004159602379032B6FD8F0
S31508003950DFE803F0371A466605214FF44060FEF7A4
S31508003960CDF9A368562B04D112214FF4A060FEF7B7
S31508003970C5F939462068FFF79BF895F8543043F0A7
S31508003980040385F85430CBE795F8543043F0010327
S3150800399085F85430002500230222616A94F8200035
S315080039A0FFF7F2FA616A94F82020E36842EA0142D6
S315080039B041F29C415B0103F1A04303F570335A5071
S315080039C0A5B904232068052100F50052D36400F543
S315080039D080521365FEF70CFE30460AB0BDE8F0814A
S315080039E095F8543043F0020385F854300023042236
S315080039F0E16A94F82800FFF7C7FA41F294420221D7
S31508003A00E3685B0103F1A04303F57033995094F81A
S31508003A102820E16A03F5A55342EA01421A60D0E775
S31508003A2095F8543043F0030385F854300125B2E77E
S31508003A302326D1E7D7370008CB3700083F380008D8
S31508003A4000C00350C26A10B5136DD26C0446134009
S31508003A505B070ED500F03CF960B1E06AFEF7FEFDA3
S31508003A600146204600F044F90422E36A03F50053B0
S31508003A70DA6410BD0422E36A03F500531A65F8E711
S31508003A8000207047FEE74FF4005300204B60704754
S31508003A90012070470020704707B5002001AB019050
S31508003AA0FFF77AFE0198002808BF4FF0FF3003B0F1
S31508003AB05DF804FB10B500201446FFF759FE18B14F
S31508003AC0BF210248FCF7B0FF204610BD985C0008ED
S31508003AD0034B0222186800238068194600F01ABEB4
S31508003AE03810002080F82410704790F8240070479A
S31508003AF070B504460568FFF72FFE844202D1002000
S31508003B00FFF71EFE95F92830002B11DB012203F082
S31508003B101F015B099B0003F160438A4003F561437B
S31508003B20C3F88021C3F88020BFF34F8FBFF36F8F90
S31508003B3000232846C4E90033C4E90433A360EB68CC
S31508003B40BDE87040184790F8243070B505460C4615
S31508003B508E18E3B9A6420AD095F82630002BF9D07C
S31508003B6028462B6814F8011B98470028F2D070BD28
S31508003B7095F826305BB123780A2B03D10D21284608
S31508003B802B68984728462B6814F8011B9847B442B7
S31508003B90EED1ECE72DE9F7434FF0000904469046CD
S31508003BA01E46C3F800904F1E3368434505D2FEF7FC
S31508003BB08CFBA269C2B9FEF78EFB94F827305BB975
S31508003BC01123012220460DF107018DF80730FFF772
S31508003BD0BAFF012384F827303368002B0CBF1B205B
S31508003BE0002003B0BDE8F083E16922698A5C07F822
S31508003BF0012F2569226A0135954208BF4D46A269FB
S31508003C002561013AA261FEF766FBA368204698473C
S31508003C10336801333360C7E708B5FFF794FF002020
S31508003C2008BD0000F8B51F46536805460C461646FB
S31508003C30002B3ED09368002B3DD02C220021204635
S31508003C4000F0D2FC73681D4AE361B3682362337BD4
S31508003C5084F82430B37B276084F8253040F20113BA
S31508003C60E384069B6360079BA360089BE36096F961
S31508003C70003084F828306A60114A002BAA60114A7D
S31508003C802C602A61104A6A61104AEA600CDB01223C
S31508003C9003F01F015B099B0003F160438A4003F5AB
S31508003CA06143C3F880211A602846FFF749FD0020C2
S31508003CB0F8BD2220FCE72120FAE700BF193C0008DE
S31508003CC0953B0008E53A0008EB3A0008F13A000887
S31508003CD010B50446FEF7F9FAA269236A9A4203D296
S31508003CE0FEF7F9FA012010BDFEF7F5FA0020FAE70B
S31508003CF073B504460D4600E000BFFEF7E6FA94F8F1
S31508003D00253006466BB1132D07D1002384F82630DB
S31508003D1002B0BDE87040FEF7DEBA112D01D10123CD
S31508003D20F4E7A269236A9A4204D340F26911144857
S31508003D30FCF77AFE6369E2693046D554A26963697D
S31508003D400132A261226A01339342636104BF0023F0
S31508003D506361FEF7C0FA94F825307BB1A269236A3D
S31508003D609A420BD11323012220460DF107018DF843
S31508003D700730FFF7E8FE002384F8273002B070BD4D
S31508003D80045D000830B50F4C41612368ABB920606B
S31508003D90836011E0891A9A681D4641612AB1134663
S31508003DA05A698A42F6D955B11A461346A8608360FD
S31508003DB013B15A69511A596130BD0025F0E72060E0
S31508003DC0F5E700BF9011002010B500F073F90A4C12
S31508003DD00A4B19682368C31A01B10BB9206010BDD4
S31508003DE04A699A423ABF9B1A0022D21A4A6128BFE8
S31508003DF000238968F0E700BF7C110020901100209D
S31508003E0038B5134D2B685B6993B1124A02201468C2
S31508003E101C4400F05BF9204600F062F900230E49C5
S31508003E202A680B70D088800709D501230B7038BD26
S31508003E30022000F04BF9022000F0A0F9EEE79268A4
S31508003E40002AF4D050690344012BEBD9EFE700BFF1
S31508003E50901100207C1100208411002000220C49BA
S31508003E600B687BB183420AD183687AB19360836811
S31508003E701BB15A6941690A445A61002070471A46BB
S31508003E809B68EEE70028EFD0022070470B60EEE74C
S31508003E909011002070B5FEF718FA144E05463478CE
S31508003EA0FCB9134B1C60134B1C60134B1C8000F0B1
S31508003EB0CFF8012000F00AF900F082F90F4B02460C
S31508003EC0186020B92846FEF706FA232070BD234657
S31508003ED040F2E7310A4800F0BFF90A4B186001239F
S31508003EE033702846FEF7F7F90020EFE7781100202F
S31508003EF0901100207C110020861100208C110020D2
S31508003F0018FCFFFF80110020C2072DE9F84F044670
S31508003F100BD5464A138801339BB21380FFF754FF2B
S31508003F20434B1B680BB1FFF76BFFA3077CD5FEF766
S31508003F30CCF94FF0000A05465646FFF745FFD0462E
S31508003F403B4FDFF8F4903C680CB163698BB10022F3
S31508003F50384B012E1A7003D1BAF1020F08BF1E7032
S31508003F60002C51D0FFF74CFF2846BDE8F84FFEF766
S31508003F70B2B923461A792179914288BF1C469B68B3
S31508003F8013B15A69002AF5D02846FEF7A4F9D4F8E1
S31508003F9010A0BAF1000F3BD000F08CF8A269851A80
S31508003FA0EB17AA4578EB030333DA23691344012296
S31508003FB0A3612369D3B1CAB9EB17BAEB050563EB5D
S31508003FC04303002B04DA4FF481614846FCF72CFDC5
S31508003FD0FEF77BF9824629462046FFF7D3FEA369FA
S31508003FE0226950461344A361FEF775F9E368B4F8ED
S31508003FF006A0013613B1204621689847FEF765F9F1
S315080040000546FFF7E1FE9EE7022000F0A1F8ABE7C0
S315080040105546FEF75AF983462046FFF71FFF5846CE
S31508004020FEF759F90022C4E7BDE8F88F861100208B
S315080040309011002088110020665D0008034B5A681D
S31508004040D20702D5DA69002AF9D1704700800A50EA
S3150800405010B50121002486B03E20ADF80810CDE940
S3150800406003448DF804408DF80A400594FDF7D0F90D
S3150800407001A8FFF733FA204602A98DF80840FFF792
S315080040803DFA20460F21FFF76FFA0F212046FFF76A
S3150800409079FAFFF703FAFFF7D1FF0822034B9C6171
S315080040A0034BC3F888219A6006B010BD00800A50F9
S315080040B000E100E008B5FFF7C1FF014B986908BDAC
S315080040C000800A5000210846FFF77ABA00F001017D
S315080040D0830748BF41F002010020FFF737BA000006
S315080040E0F8B50446FEF7EAF8FFF7A8FF164B0746A9
S315080040F09D69FFF7E7FF06460020FFF751FA830799
S3150800410004D4731B032B01D8AE420FD10021631BC5
S31508004110022B98BFEC1C0846B4F1FF3F2CBF224681
S31508004120621EFFF765FA0220FFF7D0FF3846FEF752
S31508004130C9F8064A137833B103498B6C43F0010377
S315080041408B6400231370F8BD00800A5034100020D9
S31508004150830700F0010109D50122064B41F002014F
S315080041601A70054A936C23F0010393640020FFF745
S31508004170FBB900BF3410002000800A50830742BFF5
S315080041800222014B1A64704700900A5038B5FEF7B0
S315080041909CF804460020FFF703FA830700F00105A0
S315080041A048BF45F0020500F003010020FFF7EAF9D1
S315080041B02846FFF7A9FE2046BDE83840FEF78BB82B
S315080041C03E20FDF751B908B5FCF7A0F9FCF7B1F99F
S315080041D0FCF7BAF9FCF7C3F9BDE80840FCF7C0B923
S315080041E008B5FCF7BEF9FCF7BDF9FCF7BCF9BDE864
S315080041F00840FCF7B9B9000010B50446FCF794FB73
S315080042004FF47A729042B0FBF2F105D23621BDE83E
S3150800421010400C48FCF708BC0B4BB3FBF1F30B49F9
S31508004220884201D93C21F2E702FB04F0B0FBF3F027
S31508004230022806D9BDE810400323B0FBF3F000F0CE
S3150800424007B810BDC75D000840420F00E7CD9A3B8E
S31508004250013800D0FCE7704753B94AB9002908BFAE
S3150800426000281CBF4FF0FF314FF0FF3000F082B935
S31508004270ADF1080C6DE904CE00F006F8DDF804E0AF
S31508004280DDE9022304B070472DE9F04F099D044685
S315080042900F46002B48D18A42944661D9B2FA82F376
S315080042A043B1C3F120019F4002FA03FC9C4020FA67
S315080042B001F10F434FEA1C411FFA8CFE220CB7FB93
S315080042C0F1F601FB167706FB0EF042EA074290422A
S315080042D008D91CEB020206F1FF3702D2904200F21F
S315080042E037813E46121AA4B2B2FBF1F001FB102246
S315080042F000FB0EFE44EA0244A64508D91CEB04045A
S3150800430000F1FF3202D2A64500F21C81104640EAAF
S315080043100640A4EB0E0400261DB1DC400023C5E9C7
S3150800432000433146BDE8F08F8B4209D9002D00F0D5
S31508004330FD800026C5E9000130463146BDE8F08F0C
S31508004340B3FA83F6002E4BD18B42C0F0F28082423C
S3150800435040F2EF803046002DE3D0C5E90047E0E79C
S3150800436002B9FFDEB2FA82F3002B40F09D80891A6B
S315080043704FEA124E97B20126200CB1FBFEF20EFB55
S31508004380121140EA014107FB02F088420FD91CEBE3
S31508004390010102F1FF382CBF4FF001094FF0000967
S315080043A0884203D9B9F1000F00F0CF804246091AB6
S315080043B0A4B2B1FBFEF00EFB101100FB07F744EAAE
S315080043C00144A74208D91CEB040400F1FF3102D2CC
S315080043D0A74200F2B4800846E41B40EA02409BE785
S315080043E0C6F12007B34001FA06F422FA07FCF940A1
S315080043F0B2404CEA030C20FA07F34FEA1C491C4367
S315080044001FFA8CFE00FA06F3200CB1FBF9F809FB3B
S31508004410181140EA014108FB0EF088420FD91CEB3F
S31508004420010108F1FF3A2CBF4FF0010B4FF0000BCA
S31508004430884203D9BBF1000F00F08D80D046091AD7
S31508004440A4B2B1FBF9F009FB101100FB0EFE44EA19
S3150800445001418E4507D91CEB010100F1FF3401D259
S315080044608E457FD8204640EA0840A1EB0E01A0FB06
S31508004470029841454C46C64602D306D14B4504D25E
S315080044800138B9EB020468EB0C0E002D70D01A1B2C
S3150800449061EB0E0122FA06F301FA07F7F14000264E
S315080044A01F43C5E900713CE702FA03FCC3F120008B
S315080044B001FA03F221FA00F64FEA1C4E24FA00F13B
S315080044C01FFA8CF79C401143B6FBFEF00A0C0EFB54
S315080044D0106642EA064200FB07F696420ED91CEB26
S315080044E0020200F1FF382CBF4FF001094FF0000916
S315080044F0964202D9B9F1000F31D04046921B89B2D3
S31508004500B2FBFEF60EFB162241EA024106FB07F253
S315080045108A4207D91CEB010106F1FF3801D28A420B
S3150800452023D84646891A46EA004625E72E462846EF
S31508004530F7E6841A61EB030301201F460BE7644480
S31508004540023849E764440238E1E6023A61442EE754
S31508004550023E6244C6E6A8F1020861446FE70238E3
S315080045606244CBE7023861447DE7023E6144D9E7FD
S315080045702E46D6E6704700BF08B5074B044613B16A
S31508004580002100E000BF054B1868836A03B198470D
S315080045902046FFF777FA00BF00000000205E0008FB
S315080045A070B50D4D00260D4C641BA410A64209D10A
S315080045B00B4D00260B4C01F0FDF8641BA410A64217
S315080045C005D170BD55F8043B01369847EEE755F816
S315080045D0043B01369847F2E79C1000209C10002007
S315080045E09C100020A010002002440346934200D1EC
S315080045F0704703F8011BF9E70FB40A4B13B51C689B
S3150800460024B1A36913B9204600F020FB05AB049A30
S31508004610A1682046019300F031FD02B0BDE81040C4
S3150800462004B070473810002070B50E46054618B11C
S3150800463083690BB900F00AFBAB69AC6813B9284665
S3150800464000F004FB2C4B9C4220D16C68636EDB07A0
S3150800465005D4A389980502D4A06D00F095FBA3891B
S3150800466019071DD52369DBB1013EA36816F8011F9A
S31508004670013BA36039BB002B38DA22460A212846BB
S3150800468000F00CF9013011D00A2511E01B4B9C42B1
S3150800469001D1AC68DAE71A4B9C4208BFEC68D5E74B
S315080046A02146284600F04CF90028DDD04FF0FF35AA
S315080046B0636EDA0705D4A3899B0502D4A06D00F0C2
S315080046C064FB284670BD002B04DAA2699A4206DC10
S315080046D00A2904D023685A1C22601970C5E72246A5
S315080046E0284600F0DBF80130BFD1DFE723680A254A
S315080046F05A1C22601D70DBE7445E0008645E0008F1
S31508004700245E0008024B01461868FFF78DBF00BFFC
S31508004710381000202DE9F7431D465C4B04460E462B
S315080047201F68904627B1BB6913B9384600F08EFA60
S31508004730574B9C4267D17C68B8F1020F06D0B8F196
S31508004740010F00F29E80002DC0F29B80636EDB078E
S3150800475005D4A389980502D4A06D00F015FB21465F
S31508004760384600F0DFF9616B41B104F14403994220
S3150800477002D0384600F078FB002363630023A36168
S315080047806360A389190603D52169384600F06CFBD6
S31508004790A389B8F1020F23F44A6323F00303A38124
S315080047A06BD001AB6A462146384600F0EFFAA3897A
S315080047B01843A081002D30D1009D284600F04CFBFF
S315080047C00646002854D1DDF80090A94549D14FF096
S315080047D0FF350022B4F90C30A26004F1470243F019
S315080047E00203226022610122A3816261626ED207FE
S315080047F005D413F4007F02D1A06D00F0C6FA28464E
S3150800480003B0BDE8F083234B9C4201D1BC6893E713
S31508004810214B9C4208BFFC688EE7002ECDD0BB69B1
S3150800482013B9384600F012FAB8F1010F266002BF34
S31508004830A38943F00103A381A28912F00803C4E9FE
S3150800484004651CD0D30745BF00236D42A560A3604D
S3150800485048BFA561656E15F0010515D112F4007FF4
S31508004860C9E7484600F0F8FA06460028AFD04D4694
S31508004870A38943F08003A381D1E70025A9E7A360B4
S31508004880E8E74FF0FF35BAE70025B8E7381000200B
S31508004890445E0008645E0008245E0008F8B50E460B
S315080048A01446054618B183690BB900F0CFF9214BB8
S315080048B09C422BD16C68A369A360A3891A072FD5DC
S315080048C023696BB32369F6B220683746C01A636951
S315080048D0834204DC2146284600F024F930BBA3684D
S315080048E00130013BA36023685A1C22601E7063696D
S315080048F0834204D0A389DB0706D50A2E04D12146B4
S31508004900284600F00FF988B93846F8BD0A4B9C428C
S3150800491001D1AC68CFE7094B9C4208BFEC68CAE7EF
S315080049202146284600F00CF80028CBD04FF0FF3778
S31508004930EAE700BF445E0008645E0008245E0008DB
S31508004940324B70B51D6806460C4625B1AB6913B9DE
S31508004950284600F07BF92E4B9C420FD16C68A38940
S31508004960B4F90C2019072CD4DD0611D409233360B9
S3150800497042F040034FF0FF30A3813EE0254B9C42B6
S3150800498001D1AC68EBE7244B9C4208BFEC68E6E72C
S31508004990580712D5616B41B104F14403994202D01C
S315080049A0304600F061FA00236363A38923F02403E9
S315080049B0A3810023636023692360A38943F0080366
S315080049C0A38123694BB9A38903F42073B3F5007F48
S315080049D003D02146304600F0FFF9A089B4F90C202F
S315080049E010F001030AD00023A36063695B42A36148
S315080049F0236943B910F08000BAD170BD810758BF4A
S31508004A006369A360F4E70020F7E700BF38100020C9
S31508004A10445E0008645E0008245E00088A892DE961
S31508004A20F041054610070C4658D44B68002B05DCA8
S31508004A300B6C002B02DC0020BDE8F081E66A002E34
S31508004A40F9D0002312F480522F682B6032D0606DA3
S31508004A50A3895A0705D56368C01A636B0BB1236C23
S31508004A60C01A00230246E66A2846216AB047431C54
S31508004A70A38906D129681D292CD8294ACA40D607F0
S31508004A8028D50022D90462602269226004D5421C16
S31508004A9001D12B6803B96065616B2F600029CAD004
S31508004AA004F14403994202D0284600F0DDF90020BB
S31508004AB06063C1E7216A01232846B047411CC7D174
S31508004AC02B68002BC4D01D2B01D0162B01D12F60CB
S31508004AD0B1E7A38943F04003A381ADE70F69002F2F
S31508004AE0A9D093070E680F600CBF4B690023A6EB8D
S31508004AF007088B60B8F1000F9DDD43463A46216AE8
S31508004B002846A66AB047002806DCA3894FF0FF307E
S31508004B1043F04003A3818FE70744A8EB0008E9E7C1
S31508004B200100402038B50B6905460C4613B9002527
S31508004B30284638BD18B183690BB900F087F8144BBD
S31508004B409C421BD16C68B4F90C30002BEFD0626E16
S31508004B50D00704D4990502D4A06D00F015F92846AB
S31508004B602146FFF75BFF636E0546DA07E0D4A389A3
S31508004B709B05DDD4A06D00F008F9D9E7054B9C42EA
S31508004B8001D1AC68DFE7044B9C4208BFEC68DAE762
S31508004B90445E0008645E0008245E0008002310B521
S31508004BA004468360818119464366C281082283616F
S31508004BB0C0E90033C0E904335C30FFF715FD054B47
S31508004BC024626362044BA362044BE362044B2363CF
S31508004BD010BD00BF295600084B560008835600082A
S31508004BE0A7560008014900F0AFB800BF254B0008DA
S31508004BF070B568224D1E0E46554305F1740100F046
S31508004C009FF9044640B1002105F16802C0E9001683
S31508004C100C30A060FFF7E8FC204670BD014800F0A4
S31508004C20B3B800BF95110020014800F0AEB800BF28
S31508004C3095110020014800F0A7B800BF9611002082
S31508004C40014800F0A2B800BF9611002010B504462E
S31508004C50FFF7F0FFA3691BB1BDE81040FFF7F0BFEF
S31508004C60C4E9123323652046124B134A1B68A26215
S31508004C70A34204BF0123A36100F020F86060204628
S31508004C8000F01CF8A060204600F018F80022042165
S31508004C90E0606068FFF782FF01220921A068FFF73C
S31508004CA07DFF02221221E068FFF778FF0123A36146
S31508004CB0D2E700BF205E0008E54B0008F8B50746B6
S31508004CC0FFF7ACFF1E4B1E68B36913B93046FFF7F2
S31508004CD0BDFF4836D6E90134013B03D533680BB32B
S31508004CE03668F7E7B4F90C50D5B9164B04F15800F5
S31508004CF06566E36000F047F8FFF796FF0822294645
S31508004D0004F15C002560A561C4E90155C4E90455B0
S31508004D10FFF76AFCC4E90D55C4E912552046F8BDEB
S31508004D206834D9E704213846FFF762FF0446306045
S31508004D300028D5D1FFF778FF0C233B60EEE700BFCC
S31508004D40205E00080100FFFF2DE9F8430646884665
S31508004D5000F148040027D4E90195B9F1010905D500
S31508004D602468002CF7D13846BDE8F883AB89012BB7
S31508004D7007D9B5F90E30013303D029463046C04766
S31508004D8007436835E9E770477047704770B50E46C0
S31508004D90B1F90E1096B0144600291D4608DAB6F980
S31508004DA00C3000222A601A0610D44FF480630EE0F5
S31508004DB06A4600F09FFC0028F1DB019A02F4704273
S31508004DC0A2F500535A425A412A60EEE740230020D2
S31508004DD0236016B070BD00008B8973B59D07064623
S31508004DE00C4607D504F14703236023610123636159
S31508004DF002B070BD01AB6A46FFF7C8FF00990546C9
S31508004E00304600F09DF848B9B4F90C309A05EFD44D
S31508004E1023F0030343F00203A381E3E70D4BB362D8
S31508004E20A389206043F080032061A381009B63610E
S31508004E30019B5BB1B4F90E10304600F06DFC28B149
S31508004E40A38923F0030343F00103A381A089054343
S31508004E50A581CDE7E54B0008024B0146186800F02E
S31508004E606FB800BF3810002037B5002943D051F875
S31508004E70043C0C1F0190002BB8BFE41800F07CFC22
S31508004E801E4A0198136833B96360146003B0BDE81D
S31508004E90304000F077BCA34208D9256861198B42D7
S31508004EA001BF19685B6849192160EDE71A465B6816
S31508004EB00BB1A342FAD911685518A5420BD124683B
S31508004EC0214454181160A342E0D11C685B68214450
S31508004ED053601160DAE702D90C230360D6E7256828
S31508004EE061198B4202BF19685B684919636008BF7C
S31508004EF021605460CAE703B030BD00BF9811002096
S31508004F0070B50E4E0C460546316811B900F07CFBAB
S31508004F1030602146284600F077FB431C0AD0C41CA3
S31508004F2024F00304A04207D0211A284600F06CFB9F
S31508004F30013001D14FF0FF34204670BD9C1100208E
S31508004F402DE9F041CD1C074625F0030508350C2D43
S31508004F5038BF0C25002D01DBA94205D90C230026F4
S31508004F603B603046BDE8F0812E4E00F005FC336804
S31508004F701C4634BB29463846FFF7C2FF431C044685
S31508004F804DD134682646002E40D12368314638462E
S31508004F9004EB030800F038FB80453AD12168033555
S31508004FA038466D1A25F0030508350C2D38BF0C2533
S31508004FB02946FFF7A5FF01302BD023682B44236031
S31508004FC00EE02268521B1ED40B2A16D96119A34279
S31508004FD0256018BF5960636808BF316062514B602D
S31508004FE004F10B06384600F0CDFB231D26F0070614
S31508004FF0F21AB6D09B1BA350B3E76268A3420CBF54
S3150800500032605A60ECE723466468B2E7344676684D
S31508005010B9E70C2338463B6000F0B4FBA1E72560EE
S31508005020DEE700BF981100209368013B002B9360D0
S3150800503010B408DA9469A34201DB0A2903D15DF8A2
S31508005040044BFFF72BBC1368581C106008461970F0
S315080050505DF8044B7047F8B506460F461446D51852
S31508005060AC4201D1002007E03A4614F8011B30464D
S31508005070FFF7DAFF431CF3D1F8BD00002DE9F04F26
S315080050800D469DB014469846064618B183690BB975
S31508005090FFF7DCFD894B9D421BD175686B6ED907FE
S315080050A005D4AB899A0502D4A86DFFF76DFEAB89C6
S315080050B01B0701D52B69EBB929463046FFF740FC9B
S315080050C0C0B16B6EDC070ED54FF0FF301DB0BDE8E2
S315080050D0F08F7B4B9D4201D1B568DFE7794B9D4246
S315080050E008BFF568DAE7AB899805EDD4A86DFFF730
S315080050F04CFEE9E70023CDF80C804FF00109DFF8F4
S31508005100C881099320238DF8293030238DF82A3059
S3150800511023469A4613F8012B0AB1252AF9D1BAEB88
S31508005120040B0BD05B46224629463046FFF793FF11
S31508005130013000F0AA80099A5A4409929AF8003078
S31508005140002B00F0A28000234FF0FF320AF1010A7B
S31508005150049307938DF853301A93CDE905235446E3
S315080051600522594814F8011B00F0F8FA049AD8B930
S31508005170D10644BF20238DF85330130744BF2B2391
S315080051808DF853309AF800302A2B15D0079A5446D2
S3150800519000204FF00A0C214611F8013B303B092B41
S315080051A04ED9B0B1079214E0A0EB0803A24609FA5B
S315080051B003F313430493D2E7039B191D1B68002BC3
S315080051C00391BBBF5B4242F0020207930793B8BF45
S315080051D0049223782E2B0CD163782A2B35D1039B86
S315080051E002341A1D1B68002B0392B8BF4FF0FF3319
S315080051F00593DFF8E4A003222178504600F0AEFAC2
S3150800520040B14023A0EB0A00013403FA00F0049BE6
S315080052100343049314F8011B06222C488DF8281022
S3150800522000F09CFA00283FD0294B1BBB039B073391
S3150800523023F0070308330393099B3B44099367E765
S315080052400CFB02320C460120A5E7002301344FF07F
S315080052500A0C19460593204610F8012B303A092AFC
S3150800526003D9002BC5D00591C3E70CFB01210446E1
S315080052700123F0E703AB2A4604A930460093154BF1
S3150800528000E000BF0746781CD6D16B6ED90705D457
S31508005290AB899A0502D4A86DFFF777FDAB895B0643
S315080052A03FF512AF099811E703AB2A4604A9304621
S315080052B00093084B00F082F8E4E700BF445E00085C
S315080052C0645E0008245E0008845E00088E5E00089E
S315080052D000000000575000088A5E00082DE9F047D4
S315080052E0164699468A6807460B690C46DDF82080FB
S315080052F09342B8BF1346336091F843200AB101338D
S3150800530033602368990642BF3368023333602568E1
S3150800531015F0060506D104F1190AE36832689B1AE6
S31508005320AB4229DC94F84320131E226818BF0123D8
S3150800533092062ED404F1430249463846C047013046
S3150800534021D023681A3454F80E5C03F00603326839
S315080053500026042B54F8123C08BFAD1A54F80A2C40
S3150800536014BF002525EAE5759342C4BF9B1AED18BC
S31508005370B5421AD1002008E001235246494638466C
S31508005380C047013003D14FF0FF30BDE8F087013543
S31508005390C3E7E1185A1C30200233224481F843003F
S315080053A094F8451082F84310C4E70123224649467B
S315080053B03846C0470130E6D00136D9E72DE9FF4720
S315080053C00F7E914680460C46782F9A460C9D01F131
S315080053D0430207D8622F0AD8002F00F0D880582F2A
S315080053E000F0A38004F1420584F842703AE0A7F180
S315080053F06303152BF6D801A151F823F0555400087C
S3150800540069540008E5530008E5530008E553000809
S31508005410E553000869540008E5530008E5530008F9
S31508005420E5530008E5530008755500089954000827
S3150800543057550008E5530008E55300089755000836
S31508005440E553000899540008E5530008E553000899
S315080054505F5500082B681A1D1B682A6004F142056F
S3150800546084F842300123A3E020682968060601F182
S3150800547004030AD50E682B60002E03DA2D23764224
S3150800548084F843305E480A2319E00E6810F0400F8E
S315080054902B6018BF36B2EFE72B682068191D296004
S315080054A0010601D51E6802E04606FBD51E886F2F49
S315080054B053480CBF08230A23002184F84310656863
S315080054C0002DA560A2BF216821F0040121600EB954
S315080054D0002D4DD01546B6FBF3F103FB1167C75DEA
S315080054E005F8017D37460E46BB42F4D9082B0BD189
S315080054F02368DE0708D5236961689942DEBF302331
