S01000004D61696E426F6172642E73333777
S315080120000012002009DC010805DC010805DC0108CD
S31508012010BDA6010805DC010805DC010805DC010887
S3150801202005DC010805DC010805DC010805DC0108F9
S3150801203005DC0108780B0608CDFA010805DC01085C
S3150801204005DC010805DC010805DC010805DC0108D9
S3150801205005DC010805DC010805DC010805DC0108C9
S3150801206005DC010805DC010805DC010805DC0108B9
S3150801207005DC0108195405082554050805DC01087D
S3150801208005DC010805DC010805DC010805DC010899
S3150801209005DC010855D8010805DC010805DC01083D
S315080120A005DC01080DD60108E9D5010805DC01089A
S315080120B005DC0108792E050871380508293805084F
S315080120C025380508453005086D3805082D380508F1
S315080120D04538050831380508D1380508B1380508E5
S315080120E005DC010805DC010805DC010805DC010839
S315080120F0B9AD010805DC010805DC010805DC0108A4
S3150801210005DC010805DC010805DC010805DC010818
S3150801211005DC010805DC010805DC010805DC010808
S3150801212005DC010805DC010805DC010805DC0108F8
S3150801213005DC010805DC010805DC010805DC0108E8
S3150801214005DC010805DC010805DC0108BF9C01085E
S315080121507116050805DC010891FA040897FA0408BE
S3150801216005DC010805DC010805DC010805DC0108B8
S3150801217010B5054C237833B9044B13B1044800E074
S3150801218000BF0123237010BD1022002000000000AB
S315080121908C08080808B5034B1BB10349034800E03E
S315080121A000BF08BD00000000142200208C080808A2
S315080121B0A3F5803A704700BF174B002B08BF134B96
S315080121C09D46FFF7F5FF00218B460F461348144A33
S315080121D0121A41F070FE0E4B002B00D098470D4B9A
S315080121E0002B00D098470020002104000D000D485F
S315080121F0002802D00C4800E000BF41F0F1FD2000A4
S3150801220029000EF01DFA41F0D7FD00BF00000800B5
S31508012210000000000000000000120020102200202B
S31508012220A89D002000000000000000000123A0F581
S315080122300320074AA0F58070410900F01F0003FA40
S3150801224000F052F82130184342F82100704700BFC8
S315080122502C2200202DE9F04780460F461E461546DA
S3150801226088B00AB1002313600EB1002333604FF022
S31508012270100ADFF8AC9000233A464146D9F8000027
S31508012280CDF800A039F032FB044680BB3A68204BF2
S315080122909A4230D14FF0180A0146524602A841F037
S315080122A00AFE23464146D9F80000CDF800A002AA45
S315080122B039F01CFB0446D0B9069B7B60DDE9042393
S315080122C0C7E90223134B3B600DB1C5F800A0124CB8
S315080122D03A68104B9A4218D14DB146B13346414638
S315080122E0D9F8000002AA39F055FB48B10446204640
S315080122F008B0BDE8F087002DEAD0C5F800A0E7E7E9
S3150801230033682A689B1A3360F1E7044CEFE700BF8C
S31508012310D175E105105D175EFEDF00F0FFDF00F005
S31508012320101200202DE9F04F93B080460F460BF0AE
S3150801233049F80446002837D1384E3378F3B90146AF
S31508012340402202A841F0B7FD354D364A2B4636489C
S315080123501035954294BF009500920068102202A993
S3150801236039F05EFB4FF0000982460DF1080BCA45AC
S315080123701CD12E4B9D42E8D1012333702C4E337B61
S31508012380002B43D1DFF8B490DFF8B4A0DFF8B4B07E
S31508012390620959F8222004F01F0322FA03F3DB0726
S315080123A00BD40134C12CF3D1224D1EE05BF8040B8A
S315080123B0FFF73CFF09F10109D9E7002304F50325D5
S315080123C005F580751A46284602A9FFF743FF08B1A5
S315080123D050450ED1DDE904239F4208BF9045E0D15F
S315080123E00123C6E900873373B560284613B0BDE8F3
S315080123F0F08F114B984201D05845D2D10A4B294644
S31508012400186839F017FB0028CBD0CDE7D6E90023A9
S315080124109F4208BF9045B5D1B568E6E74822002036
S3150801242000310800C131080010120020D03108001F
S3150801243050220020C2310800FFDF00F02C220020C4
S31508012440FEDF00F011E000F02DE9F84FDDF828A0D5
S3150801245083460D46994617460AB1002B5DD0BAF157
S31508012460010F5DD829465846FFF75CFF07F11008AA
S3150801247004464146012005F069FF0646002852D068
S315080124804246002141F017FD2D4B9C4226D90024D6
S315080124902C49620951F8222004F01F0322FA03F39A
S315080124A013F0010342D00134C12CF2D16FF08D052E
S315080124B0254CC6F804A02FB13A46494606F1100044
S315080124C041F0D2FC2148434632462146006839F09C
S315080124D075F968B92046FFF7A9FE0BE000233146D6
S315080124E01A462046FFF7B6FE78B1194B98420CD02A
S315080124F06FF0910542460021304641F0DCFC30463A
S3150801250005F046FF2846BDE8F88F7368012B01D010
S315080125100025CEE76FF08405ECE76FF08605F1E755
S315080125206FF08505EEE76FF08C05EBE7094A04F5D0
S315080125300324C6E902B504F580743260E8E700BFF2
S31508012540C13108002C220020C231080010120020D7
S31508012550FEDF00F0105D175E2DE9F04389B01546E0
S31508012560DDE910891E469BB1B9F1000F04D16FF060
S31508012570860009B0BDE8F083B8F1000FF7D0B8F1CD
S31508012580005FF4D3C3F1005303F580239845EED8D1
S31508012590FFF7C8FE1F4B0746984202D96FF08B001A
S315080125A0E7E7102200210DEB020041F084FC00232D
S315080125B03846CDE9023303AA02AB04A9FFF74AFE5E
S315080125C0154B9842EAD028B1013B984202D06FF0E8
S315080125D09100CEE7029CCEB1AC4203D8002CC6D1FD
S315080125E015B1C4E7002CFBD0641BB44228BF34469E
S315080125F0039B0A48C9F800400094424639460068D8
S315080126002B4439F073F90028B3D0E0E7AC42EBD29A
S31508012610ADE700BFC1310800FFDF00F0101200204E
S3150801262030B5144687B022B3FFF77CFE144B054636
S31508012630984203D96FF08B0007B030BD10220021F4
S3150801264002A841F038FC00232846CDE9003301AA47
S315080126506B4602A9FFF7FEFD0A4B9842EAD010B174
S31508012660013B984208D1039B00206360009B2360CD
S31508012670E2E76FF08600DFE76FF09100DCE700BF65
S31508012680C1310800FFDF00F070B586B006460D4679
S31508012690FFF748FE244B0446984203D96FF08B0096
S315080126A006B070BD1022002102A841F004FC0023E7
S315080126B02046CDE9003301AA6B4602A9FFF7CAFDF8
S315080126C01A4B9842EAD028B1013B984202D06FF0E2
S315080126D09100E5E7039B012B22D0154B214618688B
S315080126E039F0A8F90028F2D1124B1A7B32B1D3E995
S315080126F00012AA4208BFB14208BF18730123A4F504
S3150801270003240D4AA4F58074610904F01F0403FA31
S3150801271004F452F8213000205C4042F82140BFE71A
S315080127206FF08400BCE700BFC1310800FFDF00F08D
S3150801273010120020502200202C22002005289ABFC2
S31508012740024B33F810000020704700BFE8F4050873
S3150801275008B502F06DFA002814BF6FF09200002048
S3150801276008BDFFF7F5BF2DE9F04F1C460023884643
S315080127701646052789B02360256808EB050BA6EBE5
S31508012780050902F055FA10B16FF092000DE068469E
S3150801279002F0A0FA82460028F6D14A46594668460A
S315080127A002F05CFF70B9C4F8009023681D44B54275
S315080127B028BF0020013F256001D00028DCD109B0DF
S315080127C0BDE8F08FC4F800A0DEE7000030B5048844
S315080127D004F4E043B3F5005F34D1C4F30223042BB8
S315080127E030D181F0AA6383F4807333F47E1309D060
S315080127F081F0AA6383F4007333F47E130CBF0123BB
S31508012800002300E001230BB1C1F30543164D21F462
S315080128107E11A94221D1B4F5105F1ED14188B1F5C7
S31508012820807F03D021F04001802919D1191F0C2975
S3150801283016D8DB0714D4073A062A8CBF6FF0860030
S31508012840002030BD42F204039C4204D181F00523E5
S3150801285083F48013D0E70023D5E76FF08500F0E70E
S315080128606FF08600EDE700BF000140052DE9F04F46
S315080128702DED028B99B08146DDE9287608EE102AFE
S315080128801D468B46DDF8A880DDF8BCA041B138B1FC
S31508012890249B2BB1269B0BB9279B0BB91FB94EB1AC
S315080128A06FF0860486E02EB1B8F1000FF8D02B9BA5
S315080128B0002BF5D02C9B002BF2D0BAF1000FEFD0EC
S315080128C02E9B002BECD02D9B002BE9D0B9F80030BC
S315080128D003F4E042B2F5005F72D1C3F30222042A7F
S315080128E06ED185F0AA6383F4807333F47E1309D01D
S315080128F085F0AA6383F4007333F47E130CBF0123B6
S31508012900002300E001230BB1C5F3054329464846D8
S31508012910259ACAF80030FFF759FF0446002849D11D
S31508012920202201460DEB020041F0C5FA202221467C
S3150801293010A841F0C0FA08A802F0CCF9002858D12D
S3150801294018EE102A5946484610AB00F095FC044685
S3150801295000282FD12B9B9E424ED8DAF800302E9AAA
S31508012960934249D8474508D2BB19984505D23946F5
S315080129703246404641F085FA4746214B25F47E15F5
S315080129809D4228D1DAF80030324606932D9B0397EB
S31508012990CDE90483279B10A90293269B08A80193D6
S315080129A0259B0093249B02F0CFFA21281BD0E8B976
S315080129B02C9B1E60204619B0BDEC028BBDE8F08F3A
S315080129C042F20402934204D185F0052383F480136D
S315080129D092E7002397E76FF0880400232C9A136087
S315080129E0CAF80030E6E76FF08604F6E76FF092045E
S315080129F0F3E76FF09204DDE76FF08904DAE700BFC9
S31508012A0000014005F0B58FB0DDE91947DDE91B5630
S31508012A10A54222D94FF0000C2D1BCDE906740A9563
S31508012A2005943D19189CCDF834C00494179C0DF1F2
S31508012A30340C0394169CCDE908650294159CCDF8CF
S31508012A402CC00194149C0094FFF710FF18B9336841
S31508012A500D9A134433600FB0F0BD6FF08900FAE7A1
S31508012A602DE9F04F99B08A46DDE9266593469846E1
S31508012A7081462A9F28B96FF08604204619B0BDE819
S31508012A80F08F0029F7D0229B002BF4D0249B13B991
S31508012A90259B002BEFD10EB9002DECD117B92B9B35
S31508012AA0002BE8D12C9B002BE5D0289B002BE2D0EC
S31508012AB041464846239AFFF789FE04460028DCD199
S31508012AC0202201460DEB020041F0F5F920222146AC
S31508012AD010A841F0F0F908A802F0FCF810B16FF05F
S31508012AE09204CAE75A465146484610AB00F0C4FB61
S31508012AF004460028C1D12B9B9D422AD8BE4208D242
S31508012B0073199F4205D231462A46384641F0B9F92A
S31508012B103E46144B28F47E1898451DD1299B2A4612
S31508012B200693289B0396CDE90473259B10A9029366
S31508012B30249B08A80193239B0093229B02F0BAFACF
S31508012B40212898D02C280AD00028C8D12C9B1D6092
S31508012B5093E76FF0890490E76FF088048DE76FF0CB
S31508012B6094048AE7000140052DE9F04790B09046A4
S31508012B70DDE91C920F461D460646002859D00388F2
S31508012B8003F4E041B1F5005F45D1C3F302210429FD
S31508012B9041D185F0AA6383F4807333F47E1309D097
S31508012BA085F0AA6383F4007333F47E130CBF012402
S31508012BB0002400E00124002C38D0C5F305449442D2
S31508012BC037D8B9F1000F34D0102C32D8A2EB040A49
S31508012BD00CAB2246184609EB0A0141F045F91B9B45
S31508012BE0209A03931A9B0A9202931F9A199B099298
S31508012BF001931E9A189BCDE90742CDE905A00093DA
S31508012C0042462B4639463046CDF81090FFF728FF45
S31508012C1010B0BDE8F08742F204018B4204D185F079
S31508012C20052383F48013BFE70024C4E7B9F1000F35
S31508012C30CCD16FF08600EBE7134B98421BD010D826
S31508012C40124B984205D020F48070A3F58063984210
S31508012C5016D10B88B3F5105F0CBF00206FF0850005
S31508012C6070470B4B9842F4D08EBF0A4B20F4807004
S31508012C70A3F50073EBE742F204030A889A42EBE7ED
S31508012C806FF08500704700BF0001800400444004CE
S31508012C900012C0040013C00420F00803102B05D04D
S31508012CA020280CBF00206FF086007047002070476F
S31508012CB070B50D461446064658B151B10021502249
S31508012CC041F0F9F8746229462046BDE87040FFF7DD
S31508012CD0B3BF6FF0860070BD70B50E461546044643
S31508012CE070B169B10021502241F0E5F8012365620E
S31508012CF084F8203031462846BDE87040FFF79CBF6E
S31508012D006FF0860070BD00002DE9F04F0E4615469E
S31508012D101F46044691B028B96FF08608404611B09F
S31508012D20BDE8F08F09B9002AF6D117B91A9B002B0D
S31508012D30F2D11B9B002BEFD02068FFF7ADFF804631
S31508012D400028EBD1E16C854A01F00F030493C3F126
S31508012D50100A636A934219D194F82020012A1ED1D8
S31508012D6085B1BAF1100F934600D191BB554530D2C2
S31508012D7004982A463C303146204441F075F8E26C05
S31508012D802A44E26400231B9A1360C7E7744A9342F4
S31508012D9000F0D88014D8734A934205D009D8724AEC
S31508012DA023F48073934208D1002DEBD04FF0000B2A
S31508012DB0DCE76E4A934200F0C5806FF08808ADE7FC
S31508012DC06B4A934200F0BE8023F40073A2F5807229
S31508012DD0F0E755457FD9049BA5F110021A4411095C
S31508012DE04B1CBBF1000F03D012F00F0F08BF0B46A7
S31508012DF01A9AB2EB031FC0F08E8001230593202295
S31508012E0000210DEB020041F056F808A801F062FF17
S31508012E10814600287CD1BE420CD273199F4209D241
S31508012E201A9B9D423FF678AF31462A46384641F00D
S31508012E3028F83E46636A4A4A93424ED002F54072E2
S31508012E4093424AD0474A9342B7D1BAF1100F20D0DC
S31508012E50E06C524600F00F003C303146204441F008
S31508012E6003F804F13C03009301971023214694F8D3
S31508012E70202008A801F03EFF00284FD14FF0100985
S31508012E80049B103D2B441D46E36C564453441037AE
S31508012E90E3640F2D13D9CDE9006725F00F0A5346D0
S31508012EA0214694F8202008A801F024FF002835D1EE
S31508012EB0E36C56445344A5EB0A05D144E3641DB3B8
S31508012EC0059B23B10F2D33D9BBF1000F2ED100235A
S31508012ED01B9A136071E701238AE7E36C2A4603F01C
S31508012EE00F03079304F13C03019304F128030093AC
S31508012EF02146CDE9026707AB08A801F053FF68B977
S31508012F00A946E36C2B44E3641B9BC3F8009005E7D1
S31508012F106FF0920802E76FF08908FFE600231B9A13
S31508012F2001281360F4D16FF08B08F7E6102DCED186
S31508012F302A46314604F13C0040F096FFE26C2A44E9
S31508012F40E264E1E7002D3FF41DAF1A9B9D42E2D8EA
S31508012F504FF0000BCDF814B051E700BF0041400413
S31508012F600010C004004440040040400400018004ED
S31508012F700012C00438B51C46054648B301B93ABB28
S31508012F8034B32868FFF788FEF0B96A6A124B9A4289
S31508012F9013D007D8114B22F480629A4210D06FF0F1
S31508012FA088000AE00E4B9A4207D08EBF0D4B22F4D9
S31508012FB08072A3F500739A42F1D10023236003E0DE
S31508012FC02060EB6C1B0700D138BD6FF08600F4E773
S31508012FD06FF08600F8E700BF000180040040400456
S31508012FE00012C0040013C0042DE9F047C2B00C4614
S31508012FF005460021164601A820229946DDF828A192
S31508013000DDF830814E9F40F056FF2022002109A8A5
S3150801301040F051FF2022002111A840F04CFF202248
S31508013020002119A840F047FF0021802222A82191FA
S3150801303040F041FF002C5AD0002E58D0BAF1000FAB
S3150801304055D0B8F1000F52D0002F50D02188628890
S3150801305001F4E043B3F5804F49D02D4B2D482B4061
S3150801306043F01063834205D06FF08504204642B0D1
S31508013070BDE8F087D31DB9EBD30F4FEAD30536D395
S315080130804D9B9D423DD847F212139942ECD1B2F5B8
S31508013090807FE9D1204B4B9809930AF101030D93DF
S315080130A08423023020F0030016936B000E901293CE
S315080130B020464A4631460DF1840A01ABCDF854A0A3
S315080130C000F0DAF804460028D0D10B9B119043F49E
S315080130D0005319A80B9301F0FDFDA8B911AB09AA74
S315080130E001A919A802F0E2FC20B14828BCD06FF06A
S315080130F08604BBE72A465146404640F0B5FE3D6088
S31508013100B4E76FF08904B1E76FF09204AEE700BF48
S315080131100000FFF6000002092000008020F0FF03EE
S31508013120B3F5824F06D14138C0B2012894BF0020B9
S315080131300120704700207047002310B544681360CA
S31508013140240A04D0012C0AD06FF0850010BD00882E
S31508013150FFF7E4FF00B1013100201160F6E72C31D9
S3150801316018461160F2E70000F8B5134642880D4685
S315080131700732072A4FEAD20104D0A94202D06FF0DA
S3150801318086003AE044680688C76820221846002166
S3150801319040F091FE240A034614B1012C52D1C460B1
S315080131A0002DECD041F20102964205D0B6F5885FB2
S315080131B002D0B6F5905F0ED15D60002C45D017F0B0
S315080131C0020007F0010116D1B9B99A68084642F01A
S315080131D080729A6011E0B6F5105F07D1182D03D0F9
S315080131E0202D01D0102DCAD11D60E5E706F44F4206
S315080131F0B2F5824F02D06FF08500F8BDF2B2122AFD
S31508013200F9D1202DF7D1124A26F0FF06B6F5E24F7D
S315080132101A600DD14FF4804217F4705F9A600DD091
S3150801322017F4864FE7D19A6842F480629A60C4E738
S31508013230B6F5824FA3D14FF40052EDE79A6822F40E
S315080132408062F3E76FF08B00D7E72046D5E700BF2A
S31508013250200000802B2A0BD901230B8000234B80E9
S3150801326002684A6042688A6082681846CA6070477E
S315080132706FF08900704700002DE9F04115460022DC
S315080132801C4643688AB01B0A07460E46019204D0BB
S31508013290012B59D06FF08B0094E0008820F0FF03D2
S315080132A0B3F5824F4ED17A880732D2080192FFF7D9
S315080132B035FF002800F001810B78042B02D06FF04E
S315080132C086007FE0013DB5EB420F06F10106F6D116
S315080132D0224638460199FFF747FF002872D1033580
S315080132E0C4E9030625F003056561019D002C00F07C
S315080132F0C880002D00F0C5802022002102A840F0D8
S31508013300DAFD2946384602AAFFF72EFF002840F0C3
S31508013310B8802368029A9A4240F0B3806368039A98
S315080133209A4240F0AE80A368049A9A4240F0A98076
S31508013330A369089A9A4240F0A480E369099A9A42D5
S3150801334040D09EE00195C3E7032DB8D991F80080D6
S31508013350B8F1010F40F0B4804978002979D0F739DE
S31508013360082997D801A353F821F000BF03340108AF
S31508013370CB33010895320108E73301089532010874
S3150801338091330108953201081F34010839340108BF
S315080133901C22002103A840F08EFD4B4B4FF4105020
S315080133A002930323CDE90403FC2306930AAD02AB7A
S315080133B01A4603CAAA4220606160134604F108044A
S315080133C0F6D100200AB0BDE8F0811C22002103A82D
S315080133D040F071FD3C4B4FF4105202930323CDE9A3
S315080133E00423F823E1E71C22002103A840F063FD2A
S315080133F010234FF0807E02930323CDE904E3FA23D9
S31508013400D3E71C22002103A840F055FD20234FF0E5
S31508013410007702930323CDE90473F723C5E71C223A
S31508013420002103A840F047FD274B284D02930323AB
S31508013430CDE90453FE23B8E700211C2203A840F076
S315080134403AFD214B224902930323CDE90413FF23B5
S31508013450ABE72B2D7FF633AF2022204640F02BFD1C
S315080134607368103D2360B3681036636056F8043CF0
S315080134702046C4E902382661656101A902F0BAFB52
S3150801348028B120220021204640F015FD17E73A8889
S31508013490019B02F44F41B1F5824F08D1D1B21229ED
S315080134A005D122F0FF02B2F5824F08BF5B006269BF
S315080134B01C339A42BFF419AFE3E76FF0850081E741
S315080134C06FF091007EE700BF2000008000440002F3
S315080134D000440003406810B5000A029C04D0012884
S315080134E007D06FF08B0010BD93420CD8C4E90412C3
S315080134F0F9E703F12C00824205D310311C33002071
S3150801350021616361EFE76FF08C00ECE72DE9F04785
S315080135109AB00C46DDE9229A15461F4680460028D0
S3150801352064D0002962D0002A60D0002B5ED0B9F1A0
S31508013530000F5BD0BAF1000F58D0C368DB0758D526
S315080135402022002102A840F0B6FC21462A46404620
S3150801355002ABFFF791FE0446002840D10AAD02AE40
S315080135600FCE0FC596E80F0085E80F0001A90AA836
S31508013570B8F80050019402F06EFB01462846FFF7A1
S31508013580CDFD012804BF042307F8013B4FF00003D2
S3150801359008BF09F1FF39CDE90D3709F1030323F016
S315080135A0030305460F93C1B9019B4B4524D8202235
S315080135B012A840F080FC12A801F08CFB68B90AAA8F
S315080135C002A912A802F011FE68B901982844CAF89E
S315080135D0000012A801F088FB08B16FF0920420469A
S315080135E01AB0BDE8F0876FF09204F2E76FF086042F
S315080135F0F5E76FF08404F2E76FF08904EFE72DE948
S31508013600F0470F4692469946054692B000285ED085
S3150801361000295CD0002A5AD04288D31D072B4FEACD
S31508013620D30857D0038803F4E043B3F5805F02D08B
S31508013630B3F5005F01D1520749D1B3F5804F49D09F
S3150801364002AE20220021304640F035FC3246414682
S315080136502846FFF789FD044610BB434652463946BC
S3150801366028460096FFF736FF0446C8B901462022C8
S315080136700AA840F020FC0AA801F02CFB70B93146D3
S315080136800AA802F086FC78B148280CBF6FF08504B9
S315080136906FF092040AA801F027FB08B16FF09204B3
S315080136A0204612B0BDE8F0876B681B0A06D14A4668
S315080136B041462846FFF740FD0446EBE752463946A0
S315080136C03046FFF7C7FD04460028F0D0E2E76FF061
S315080136D08604E5E76FF08504E2E7FFF790BF10B4CB
S315080136E0048804F4E044B4F5805F06D0B4F5005FBD
S315080136F003D05DF8044BFFF782BF6FF085005DF8D4
S31508013700044B70472DE9F0439BB00D46DDE922894C
S3150801371016461F460446002866D0002964D0002AAA
S3150801372062D0002B60D0B8F1000F5DD0B9F1000F5F
S315080137305AD02022002102A840F0BDFB204632467D
S31508013740294602ABFFF798FD044600283FD10AAD8A
S3150801375002AE0FCE0FC596E80F0085E80F000C9A4A
S315080137607B1C22F080720E9322F4804208F1020338
S3150801377023F0030342F4005201A90AA80D940F93FA
S315080137800C92019402F067FAF8B9019B013343459B
S3150801379001932CD82022214612A840F08CFB12A8AE
S315080137A001F098FA88B90AAA02A912A802F066FCD9
S315080137B0012816D078B148280CBF6FF085046FF040
S315080137C0920412A801F090FA08B16FF0920420460B
S315080137D01BB0BDE8F08304233B70019BC9F8003098
S315080137E0EFE76FF08B04ECE76FF08604EFE76FF015
S315080137F08904ECE7FFF786BF70B4048804F4E04453
S31508013800B4F5804F02D070BCFFF77CBF6FF085001E
S3150801381070BC70472DE9F0410D4614461F46C4B0E9
S3150801382010B96FF0860039E00029FAD0002AF8D0DD
S31508013830002BF6D0038803F44F42B2F5824F02D02B
S315080138406FF085002AE0DAB2122AF9D123F0FF03D4
S31508013850B3F5E24F2AD143883B6013BBE3003B60D3
S315080138603B68B3F5807FEBD10023474A28191444F6
S315080138701A4614F8016D10F8011D0A43891B0CBF7D
S315080138804FF0FF360026854203EA060343EA0103A1
S31508013890EFD1002AC5D0002BC3DA002044B0BDE819
S315080138A0F0810733B4EBD30FDAD0BAE7B3F5824F19
S315080138B066D10B78042BB4D12022002101A840F04F
S315080138C0FAFA01A801F006FA10B16FF09200E5E7DD
S315080138D00023694601A8009302F0D4FC0646002895
S315080138E0F3D1009B294A23F07F439342A8D9014685
S315080138F08622219022A840F0DEFA01234FF08A0899
S3150801390020223146013C09A88DF88430013540F062
S31508013910D2FA202231460E9411A8E4000D956408C6
S3150801392040F0C9FA21AD2022314619A81595CDF8DE
S31508013930588040F0C0FAB4F5807FCDE91D583C6047
S315080139407FF46FAF124B09AA099311934FF40053F1
S315080139500B934FF480431393402311A91A9301A89B
S3150801396019AB02F0A3F83B680733DB085A0023B901
S31508013970002893D055E705F8016B013AFBD2F7E722
S315080139806FF096008AE700BFF4F40508010201000A
S31508013990200000802DE9F04F9DB01546DDE926BAD5
S315080139A00F4699460646289A002800F0A180002B62
S315080139B000F09E80BBF1000F00F09A80002900F00C
S315080139C09780002D00F09480BAF1000F00F09080E6
S315080139D0002A00F08D800023B0F80080CAF8003074
S315080139E008F44F41EB00B1F5824F136012D15FFA2B
S315080139F088F012280ED128F0FF00B0F5824F02BFD9
S31508013A00083B5B0813601368B3F5047F04BF40F2F3
S31508013A10092313600023B1F5824F039363D12A4624
S31508013A203946304603ABFFF7F5FE0446002856D162
S31508013A30039B40460733DB080393FFF76FFB08B187
S31508013A40013D01370DF1100820220021404640F0C2
S31508013A5032FA424630460399FFF786FB04460028A8
S31508013A603DD1C6460DF1300CBEE80F00ACE80F009B
S31508013A709EE80F008CE80F00EB1C214623F0030398
S31508013A80202214A8CDE90F47119340F014FA2B46CA
S31508013A905A4649463046CDF80080FFF71BFD0446D5
S31508013AA0E8B914A801F016F928BB42460CA914A8CE
S31508013AB002F04EFBC8B95A4649464046FFF7CAFBCB
S31508013AC0044660B9524629463046FFF735FB044697
S31508013AD014A801F009F9002818BF6FF092042046CE
S31508013AE01DB0BDE8F08F0395ACE76FF09204EFE7E0
S31508013AF06FF08604F3E76FF09204F0E7F8B51E4617
S31508013B00089B0F461546FFF785FE044648B9069BEE
S31508013B109D4208D82A463946304640F0A5F9079B02
S31508013B201D602046F8BD6FF08904FAE7144B03407F
S31508013B30B3F1607F21D1C3B243F0007303F17E4331
S31508013B40053B062B19D8DFE803F0041818080C10F2
S31508013B501400142301200B6070471C2302200B60FC
S31508013B607047202303200B607047302304200B6025
S31508013B707047402305200B6070470020704700BF3F
S31508013B800000C07F2DE9F04F9FB08046DDE9287916
S31508013B900C4692469B462A9E2FB96FF0860420460C
S31508013BA01FB0BDE8F08F002EF7D00028F5D02022EF
S31508013BB0002106A840F07FF906A801F08BF878BB2A
S31508013BC03D4B2340B3F1607F38D1059005A92046C6
S31508013BD0FFF7ACFF024600286AD0059BC4F30544EB
S31508013BE09C42DAD804B10594059B4B455DD8402320
S31508013BF00EAD029341465346CDE900B506A801F03C
S31508013C00CBFC044678B9059C29462246384640F03D
S31508013C102BF93460002406A801F066F80028BED006
S31508013C206FF09204BBE700233360212C37D0012CB7
S31508013C3038D0002CEED06FF09204ECE714F47C1F18
S31508013C40C4F3054527D0102DA7D84D452DD81B4BB4
S31508013C5024F47E149C422BD100230DF13809CDE9B9
S31508013C600E33CDE9103352465B464146CDF80090F6
S31508013C7006A801F0E5FA04460028D6D12A4649469F
S31508013C80384640F0F1F8224609EB04030134112CB9
S31508013C9003D13560BEE71025D7E71A70F4E76FF050
S31508013CA08604B8E76FF08B04B5E76FF0890476E709
S31508013CB06FF0850473E700BF0000C07F0002C003F0
S31508013CC070B50E461446054610B96FF0860070BDEC
S31508013CD00029FAD04822002140F0EDF8094B24F4D6
S31508013CE07E129A420AD13388B3F5105F06D1C4F31E
S31508013CF00543102BE9D800202C60E8E76FF0850012
S31508013D00E5E700BF0002C003F0B50F4616461D469B
S31508013D1004468BB070B302B963BB2022002102A806
S31508013D2040F0C9F802A800F0D5FFA8B92368134ADC
S31508013D3023F47E13934214D14DB133463A46009586
S31508013D4002A9201D01F062FB01280DD078B90024D3
S31508013D5002A800F0C9FF08B16FF0920420460BB023
S31508013D60F0BD6FF08804F3E76FF08B04F0E76FF0AE
S31508013D709204EDE76FF08604F0E700BF0002C00386
S31508013D802DE9F0418CB0884616460446129F002854
S31508013D9041D0002A3FD0002B3DD0002F3BD0102B1D
S31508013DA028BF10231D46036813F47C1FC3F305427D
S31508013DB002D0954228BF15461A4A23F47E13934228
S31508013DC02CD12022002104A840F075F8002304A86C
S31508013DD0CDE90033CDE9023300F07CFF40B96B46EB
S31508013DE0424604A9201D01F08DFA20B100233B604B
S31508013DF06FF092000CE004A800F076FF0446002854
S31508013E00F4D12A466946304640F02EF820463D60F0
S31508013E100CB0BDE8F0816FF08600F9E76FF0880015
S31508013E20F6E700BF0002C003FEF7ECBDFEF79CBE35
S31508013E302DE9F0419846436804461B0A012B0E46B4
S31508013E40174622D101F1400342463946FFF714FAD3
S31508013E50054628B97B7833B13B6833600423F3639D
S31508013E602846BDE8F08164880734E40804F12C0388
S31508013E7098450DD31C343C2C0AD82246304607F106
S31508013E8010013FF0F1FFF463EAE76FF08505E7E714
S31508013E906FF08605E4E7F7B5089F0C461646054612
S31508013EA00193A8B1A1B19AB19022002140F003F87B
S31508013EB03A46214605F14000FEF7FAFE50B9324668
S31508013EC029462046019B03B0BDE8F040FFF7B0BF85
S31508013ED06FF0860003B0F0BDF7B5089F0C4616468D
S31508013EE005460193A8B1A1B19AB1902200213FF0EC
S31508013EF0E2FF3A46214605F14000FEF7EDFE50B9CC
S31508013F00324629462046019B03B0BDE8F040FFF73B
S31508013F108FBF6FF0860003B0F0BD70B4DDE90345CD
S31508013F2040B1467806B90065CDE9034570BC403015
S31508013F30FEF7EABE6FF0860070BC704710B438B160
S31508013F40447804B900655DF8044B4030FFF712B8B0
S31508013F506FF086005DF8044B704708B518B19022DA
S31508013F6000213FF0A8FF002008BD00002DE9F74316
S31508013F700A9C0E4690469946054610B96FF0860486
S31508013F803CE00029FAD0002AF8D02A4FC82200219D
S31508013F9027403FF090FFB7F1607F33D13388B3F5FF
S31508013FA0885FEBD10023204601A90193FFF7BEFDE7
S31508013FB010B3019B402B1FD8C5F880402B464A46B3
S31508013FC041463046FFF758F90446B8B97288B7F141
S31508013FD0607F4FEAD202EA671ED1131F3C2BCDD868
S31508013FE06B691C329342C9D305F120031846296926
S31508013FF03FF03AFF286101E06FF08504204603B0DF
S31508014000BDE8F0832246314605F18000FFF758FEE8
S3150801401004460028D2D0F1E7A2F110011029ADD843
S3150801402001238B4003F0013323F08073002BA5D0C5
S31508014030D6E700BF0000C07FFFF798BF1FB513463C
S3150801404008B301B9FAB9D0F88040124A2240B2F150
S31508014050607F10D1D0F8C420C2B900F1C40202921F
S315080140604022019200F1840200920A462146FFF796
S3150801407089FD04B010BD0A460146803004B0BDE88A
S315080140801040FFF741BE6FF08600F2E76FF0880037
S31508014090EFE700BF0000C07F37B504461D46084656
S315080140A014B309B302B3FBB1D4F88010134B0B4018
S315080140B0B3F1607F0FD1D4F8C430C3B1934219D894
S315080140C01A4604F184013FF0CFFE0020D4F8C4302B
S315080140D02B6003B030BD134621460246009504F114
S315080140E08000FFF74DFEF4E76FF08600F1E76FF009
S315080140F08800EEE76FF08900EBE700BF0000C07F9C
S3150801410008B528B1C82200213FF0D5FE002008BD18
S315080141106FF08600FBE7FEF767BFFEF773BCFEF795
S3150801412023BD2DE9F84347880D460737FE08904613
S3150801413001F1240231469946FFF716F8044650B9AB
S315080141404E450BD8B7F5847F08D2324641462846F4
S315080141503FF08AFE2E622046BDE8F8836FF086049A
S31508014160F9E7F7B5089F0C46164605460193A8B127
S31508014170A1B19AB1742200213FF09DFE3A4621462B
S3150801418005F12400FEF794FD50B93246294620462A
S31508014190019B03B0BDE8F040FFF7C3BF6FF086008F
S315080141A003B0F0BDF7B5089F0C46164605460193C0
S315080141B0A8B1A1B19AB1742200213FF07CFE3A461A
S315080141C0214605F12400FEF787FD50B932462946F6
S315080141D02046019B03B0BDE8F040FFF7A2BF6FF090
S315080141E0860003B0F0BD70B440B10026C0E90C608A
S315080141F020262430466170BCFEF786BD6FF0860026
S3150801420070BC704710B448B10024C0E90C402024A2
S31508014210243044615DF8044BFEF7ACBE6FF08600AE
S315080142205DF8044B704708B518B1742200213FF0B8
S3150801423042FE002008BD000030B50D46044689B08F
S3150801424000B3031DD422002118463FF034FE0F4A5D
S31508014250954206D0043295420ED06FF0850009B01A
S3150801426030BD01226946227001F0BEFA00280CBF52
S3150801427000206FF09200F2E703226946227001F0EE
S31508014280CDFAF3E76FF08600E9E700BF0500000203
S3150801429070B50D461646044688B080B101B972B9A3
S315080142A0684600F017FD30B933462A466946201D8F
S315080142B001F0CEFA08B16FF0920008B070BD6FF048
S315080142C08600FAE72DE9F0430C4691461D46064657
S315080142D089B050B301B942BB3DB3684600F0FAFC58
S315080142E08046F8B9371D224669464B46384601F0DD
S315080142F021FB0446D422414638463FF0DCFD7CB911
S315080143003378012B06D0032B08D06FF0880009B04B
S31508014310BDE8F083142320462B60F8E72023FAE74B
S31508014320212C05D06FF09200F1E76FF08600EEE7D9
S315080143306FF08900EBE708B518B1D82200213FF0E4
S31508014340BAFD002008BD00002DE9F0478AB01746DE
S31508014350DDE9129498460E4609B9002A35D1B8F115
S31508014360000F02D1B9F1000F2FD174B3184B98423F
S3150801437007D00433984210D06FF085000AB0BDE823
S31508014380F08714234FF0010A236023684B4509D9A6
S3150801439000236FF089002360F0E720234FF0030A1A
S315080143A02360F2E702A800F095FC054650B93B46A2
S315080143B032465146CDE9008902A801F035FB0028AD
S315080143C0DCD025606FF09200D8E76FF08600D5E75C
S315080143D0050000020023C36001F14803036120239D
S315080143E00A6843618B6E0B4922F47E128A42436046
S315080143F003D001F580718A4208D1102B02D10360DE
S3150801440000207047182BFAD0202BF8D06FF08800BF
S31508014410704700BF0001C0032DE9FF47DDF8309062
S31508014420884614461F46054610B96FF086006AE0AD
S315080144300029FAD00AB9002BF7D14FF4AE72002140
S3150801444028463FF038FD694B09EA0303B3F1607F5B
S3150801445040F09080B8F80030B3F5885FE5D1644B39
S315080144605FFA89F646F000769E424FD006F17E4302
S31508014470043B012B4CD95F4B9E424BD001339E42E4
S315080144804AD001339E4249D001339E4216D00133A8
S315080144909E423FD001339E423ED003339E4239D0DD
S315080144A001339E4238D001339E4237D001339E42B2
S315080144B004D00022C9F305439342B6D805F1040A8C
S315080144C031465046FFF7B8FEE8B9B8F8022006F1BA
S315080144D07E430A3B022B4FEAD20234BF4FF08008D3
S315080144E04FF04008BA4203929FD8424505F1DC07CE
S315080144F016D903AB019380232146009330463B46E8
S31508014500FFF722FF88B104B0BDE8F0871022D1E792
S315080145101422CFE71C22CDE72022CBE73022C9E7B8
S315080145201AB1214638463FF09FFC3C463846039A65
S3150801453002F1DC032B44984216D13621A8EB02027C
S315080145403FF0B9FC424639465046FFF7A1FE00281E
S31508014550D9D14744237883F06A0304F8013BA7427B
S31508014560F8D1C5F80090CEE7017881F0360100F858
S31508014570011BE0E74A4641462846FFF7A1FB00280A
S31508014580C1D1B8F80230DB08182BAB6612D0202B44
S315080145901ED0102B7FF449AF0F2F7FF646AF05F1DA
S315080145A0480304F1100254F8041B944243F8041B0F
S315080145B0F9D1A8E7172F7FF638AF05F1480304F1BB
S315080145C0180254F8041B944243F8041BF9D19AE7DC
S315080145D01F2F7FF62AAF05F1480304F1200254F88C
S315080145E0041B944243F8041BF9D18CE70000C07FF1
S315080145F00300000208000002FFF70EBF30B513469C
S315080146000D4604468BB010B301B902BB2168114AA5
S315080146100A40B2F1607F07D11A462946201D0BB020
S31508014620BDE83040FFF734BE0021202202A80193DD
S315080146303FF041FC214602A8FFF7CCFE28B92A46DD
S315080146402046019B02A9FFF75FFB0BB030BD6FF057
S315080146508600FAE70000C07F2DE9F04F0F46904625
S3150801466099460546B5B000286BD0002969D0002ABD
S3150801467067D0002B65D00668334B3340B3F1607FB2
S3150801468049D1F6B246F0007606F17E430A3B022B83
S3150801469034BF4FF0800A4FF0400A4FF0000B00F18B
S315080146A0DC042146524604A8CDF80CB03FF0DCFBE9
S315080146B05946802220463FF0FEFB0DF10C0B04A95A
S315080146C05B46CAF1C0025144281DFFF7FBFD0446AB
S315080146D0D0B9C023039A009304AB19463046CDF8E6
S315080146E004B05244FFF730FE044668B96D8815F0E8
S315080146F03F0508BF039D45450AD82A46384604A9F9
S315080147003FF0B2FBC9F80050204635B0BDE8F08F3E
S315080147106FF08904F8E72022002104A83FF0CBFBBB
S31508014720294604A8FFF756FE04460028ECD143465D
S315080147303A462846CDF8009004A9FFF721FB04461E
S31508014740E2E76FF08604DFE70000C07F08B530B105
S315080147504FF4AE7200213FF0AEFB002008BD6FF0AA
S315080147608600FBE7FEF740BC30B5154B87B00293D0
S31508014770144B0390049346F611030D46059300F076
S31508014780FFF91428044616D1684600F033FA4FF0AB
S31508014790A843032202A95A6319601D619A63DA6B59
S315080147A09207FCD1142C02D1684600F031FA00F0C8
S315080147B01BFA044601E00028E9D0204607B030BDBF
S315080147C060220020040000202DE9F04FB1B0054613
S315080147D08C46E9466E4F3B9EDDF8F8E0409C07F1B2
S315080147E0100AC846386879680837A8E803005745A3
S315080147F0C146F6D10EEB0208C8F1000909F00F0906
S31508014800002E00F0AF80774207F00F070121DDF88F
S31508014810FCB0C4F1100ACDF810B0059144F000516E
S3150801482006914FEA0A2101F4F85141F02101079155
S3150801483006B96B460893002D40F09680002C00F0CF
S31508014840938004AB0993002E00F0908046F0005344
S315080148500A93002D40F08D80002C14BF01232123DB
S3150801486043EA07230B9308A942F00053CDF830C059
S315080148703D980D910E934FEA092343F041030F9397
S31508014880109002B10CA9002A16BF00224FF000525F
S31508014890412342EA0E021191129213933C9B3D4A1F
S315080148A0149310AB15933C4B0021169340F6110354
S315080148B017933A4B002D08BF1346189314AB199357
S315080148C0374B10221A9311231B931CAB18463FF042
S315080148D0F2FA01221D924AF080421E9200220346F4
S315080148E0239205B9EB46102C08BF01230DF1900A56
S315080148F0102200215046CDF880B0219322943FF032
S31508014900DAFA002C37D020AB002125938F4218BF45
S31508014910534647F0804226923A9A2CA88A42289210
S31508014920299313460CBF4FF080430B46102233439D
S315080149302B912A933FF0BFFAFEB95346C8442D93EB
S315080149402CA948F0804318A82E93FFF70DFF30B91C
S315080149502DB90346A34212D1002818BF2C2031B025
S31508014960BDE8F08F102751E701236BE747F00053A5
S315080149706EE7212374E70123C6E728ABDEE703F1D7
S31508014980C0026A4412F8C02C01331043E2E700BFA3
S3150801499014F5050828F50508100000202CF505086A
S315080149A004000020F0B549248FB08DF82440149CEA
S315080149B00DF1250504F10C0654F8047BB44245F8BB
S315080149C0047BF9D124782C7001258DF835509DF892
S315080149D0545000248DF8365004250695169DCDE9C8
S315080149E0001205951325049509ADCDE902358DF813
S315080149F033200B46224621468DF832408DF8344045
S31508014A00FFF7E2FE0FB0F0BDF0B5C0299FB0249EB6
S31508014A104FD0B1F5807F04D0802941D029201FB01D
S31508014A20F0BD40F2344440F21445002E08BF2C462E
S31508014A3021271025019401240296039404950597CC
S31508014A40259F069706B102AC079401240895099497
S31508014A500A9221220B940C950D92174A0AAC0E92D2
S31508014A60164A0F94109242F6110211921293139458
S31508014A701495159201AA1692CBB112AB179304237A
S31508014A8018931123199316AB1A901B9340F6110329
S31508014A90C9081C911AA806A91D93FFF765FEBEE76A
S31508014AA0002E14BF4FF486644FF48264C0E70EAB40
S31508014AB0E4E70F20B3E700BF30F505081000001042
S31508014AC030B5C02A93B033D0B2F5807F04D0802A9E
S31508014AD02BD0292013B030BD4FF482740194019C68
S31508014AE080F00100204301901698012502901024B8
S31508014AF02120039504940590069301AB0795089424
S31508014B0009900A9306AB0B9304230C9311230D9377
S31508014B100AAB0E910F9340F61103D20802A90EA80B
S31508014B2010921193FFF720FED4E74FF48074D5E76E
S31508014B300F20CFE71FB5079C02949DF81840CDE9D1
S31508014B40003413460A4601460020FFF72BFF04B03E
S31508014B5010BD1FB5079C02949DF81840CDE9003495
S31508014B6013460A4601460120FFF71CFF04B010BD93
S31508014B7008B500F005F8BDE8084000F035B80000B2
S31508014B8038B5164B5A6E42F004025A66D3F880229B
S31508014B9042F00102C3F88022114B5B68C3F3080394
S31508014BA043B14FF0A842D36B13F0430FFBD1142442
S31508014BB0204638BD4FF0A843DC6B14F04304FBD103
S31508014BC0084D2B681BB90421284602F0C7FB2B6840
S31508014BD0013343F000432B60EAE700BF0080005031
S31508014BE000ED00E060220020014B00205B68704761
S31508014BF000ED00E010B5044607F030FC4FF0A8437D
S31508014C001A6822601B69636007F02CFC002010BD3E
S31508014C1010B5044607F022FC4FF0A84322681A6033
S31508014C2062681A6107F01EFC002010BD00F000B88A
S31508014C3000207047B0F5802F24D010D8B0F5003F7A
S31508014C4022D006D828B3B0F5803F14BF01204820EA
S31508014C507047B0F5403F14BF01202C207047B0F5CE
S31508014C60302F13D008D8B0F5E02F11D0B0F5202F8A
S31508014C7014BF012010207047B0F57F0F14BF012023
S31508014C80062070474B2070472A207047112070472D
S31508014C902120704708B5B0B14FF480620B4B9A6674
S31508014CA008F083FA4FF098435A6CD202FCD54FF4B8
S31508014CB08062586D064B10F470209A6604D0BDE8E0
S31508014CC00840FFF7B7BF212008BD00BF009000507C
S31508014CD000A0005008B528B1202200213FF0EBF8CA
S31508014CE0002008BD2120FCE708B1FFF7F3BF21200A
S31508014CF0704700002DE9F0418CB08846DDE912764F
S31508014D001D460446002847D0002945D0002F43D028
S31508014D10002E41D013F00F033ED120482049A3604D
S31508014D20002A18BF0146E361C4E90013404609A9F0
S31508014D3001F015F868BB2046099908F02DFA2946AD
S31508014D40204608F029FA6946404601F0D7F800BB23
S31508014D506946204608F00CFA404603A901F0EAF82C
S31508014D60B8B9204603A908F003FA06970127204691
S31508014D7045F0005506A90797089508F0F9F9204660
S31508014D8009A909960A970B9508F0FCF92046FFF739
S31508014D9081FF0CB0BDE8F0812120FAE7000101048A
S31508014DA0000100042DE9F04F97B0894690461F4649
S31508014DB00546DDF880A0002800F0BD80002900F036
S31508014DC0BA803AB1229B002B00F0B580239B002BB9
S31508014DD000F0B180BAF1000F00F0AD80219B002BE5
S31508014DE000F0A98077B13C680026229B43440293D0
S31508014DF0464509D3002F00F0A08000203C6017B07B
S31508014E00BDE8F08F3C46EFE75CB1229B219A9B5D9A
S31508014E10125D01345340239A04F00F049355013669
S31508014E20E6E7A8EB060BBBF10F0F58D9444B4846EA
S31508014E30C5E90034AC60EC6113A900F090FF0028C5
S31508014E40DDD1284613992BF00F0B08F0A5F9594621
S31508014E50284608F0A1F9484604A901F04FF80028A8
S31508014E60CDD1284604A908F083F9484607A901F0D7
S31508014E7061F80028C3D1284607A908F079F9012362
S31508014E802299304ACDF828A00B930C928A190D92D3
S31508014E9028464BF000520AA90E9303920F9208F086
S31508014EA067F928460DA908F063F9239B039A99190E
S31508014EB00123109111931292224A284610A9CDF87E
S31508014EC04CA01493159208F05DF9284613A908F029
S31508014ED059F92846FFF7DEFE5E4400288FD1229B4A
S31508014EE003EB060B239B1E44029B5B4501D14646F9
S31508014EF07EE7ACB9219B2246CDE900A3494610239A
S31508014F002846FFF7F7FE00287FF479AF0AF1100269
S31508014F1012F8013D0133DBB213700BB99245F7D193
S31508014F20219A1BF8013B125D0134534006F8013BF7
S31508014F3004F00F04D8E7212061E738465FE700BF90
S31508014F4003030004100000202DE9F04F97B00F4627
S31508014F50144699468346209EDDF88880DDF890A0A0
S31508014F60269D002800F09F80002900F09C801DB135
S31508014F70259B002B00F09780B9F1000F00F0938074
S31508014F80B8F1000F03D0219B002B00F08C803CB1B7
S31508014F90239B002B00F08780BAF1000F00F0838075
S31508014FA0C6F10F02D2B2032A05D80121D20001FAAD
S31508014FB002F2A24277D9022D75D0102D73D815F0B9
S31508014FC0010270D1F11F06296DD838490AEB040090
S31508014FD0884268D836493846CBE90012CBF808200A
S31508014FE0CBF81C2013A900F0BAFE002858D1584660
S31508014FF0139908F0D1F8584645EA064108F0CCF865
S315080150004146584608F0C8F82146584608F0C4F8FB
S31508015010384601A900F072FF002841D1584601A976
S3150801502008F0A6F8384604A900F084FF002837D10D
S315080150300127584604A908F09BF8239B48F000521B
S315080150400793219B584644F000540DA946F0005693
S31508015050089709940A930B970C92CDF834900E97FA
S315080150600F9608F085F858460AA908F081F85846B7
S3150801507007A908F07DF8259B584610A945F0005563
S31508015080CDF840A01197129413931497159508F02B
S3150801509079F8584613A908F075F85846FFF7FAFD46
S315080150A017B0BDE8F08F2120FAE700BFFFFF032004
S315080150B0000005042DE9F04F99B00F4614469B46AA
S315080150C08046229EDDF89890289D002800F0B2803F
S315080150D0002900F0AF80279B002B00F0AB80BBF1C5
S315080150E0000F00F0A780249B1BB1239B002B00F027
S315080150F0A1803CB1259B002B00F09C80B9F1000FE3
S3150801510000F09880C6F10F03DBB2032B06D8012104
S31508015110DB0001FA03F3A34240F28C80022D00F072
S3150801512089806B1E0F2B00F2858015F0010A40F06D
S315080151308180F31F062B7DD83F4B09EB0401994269
S3150801514078D83E4B3846C8E9003AC8F808A0C8F8E6
S315080151501CA015A900F003FE0346002866D14046A7
S31508015160159908F019F8404645EA064108F014F879
S315080151704046249908F010F82146404608F00CF8F4
S31508015180384603A900F0BAFE034600284ED1404628
S3150801519003A907F0EDFF384606A900F0CBFE034642
S315080151A0002843D10127404606A907F0E1FF259BC0
S315080151B04046099344F000530A9701930B93239BA6
S315080151C046F000560C93249B0D9743F000510E911F
S315080151D00FA9CDF83CB01097119607F0C9FF4046C4
S315080151E00CA907F0C5FF404609A907F0C1FF019BB5
S315080151F0404612A9CDF848901397149307F0C2FFB9
S31508015200279B404615A945F00055159316971795FE
S3150801521007F0AEFF4046FFF73DFD034630B101906A
S315080152202246514648463EF046FE019B184619B0AD
S31508015230BDE8F08F2123F9E7FFFF032000000604EC
S315080152402DE9F0438DB0884615461C460746DDF81C
S315080152505090002850D000294ED0002A4CD0B9F1E0
S31508015260000F49D00B68103B102B45D8012606FACA
S3150801527003F303F0013323F08073002B3CD00023A2
S315080152801E4A8360C0E90023C36109A9404600F0AC
S3150801529066FD70BB3846099907F07EFF21463846F8
S315080152A007F07AFF6946404600F028FE08BB6946C2
S315080152B0384607F05DFF404603A900F03BFEC0B93A
S315080152C0384603A907F054FF44F00054384606A9A6
S315080152D006950796089407F04BFF094B384609A926
S315080152E0CDF824900A960B9307F04CFF3846FFF742
S315080152F0D1FC0DB0BDE8F0832120FAE700000404D3
S3150801530010000020F0B50C4617461E46054695B016
S31508015310002874D0002972D0002A70D0002B6ED0D4
S31508015320036B0F2B5BD80023364A3846C4E90023A2
S31508015330A360E36111A900F012FD00285BD12046A4
S31508015340119907F029FF296B20460F2984BF01F01F
S315080153500F01103107F020FF384602A900F0CEFDF3
S31508015360002848D1204602A907F002FF384605A9B8
S3150801537000F0E0FD00283ED1204605A907F0F8FE19
S315080153800122214B089509920A932B6B05F110000E
S3150801539003F00F0141F000510B900F2B0C920D9168
S315080153A00E900F9243F00052109226D90A9B08A933
S315080153B023F0005320460A9307F0DAFE0BA920468C
S315080153C007F0D6FE0123119612930F4B204611A919
S315080153D0139307F0D7FE2046FFF75CFC0BE000F1BC
S315080153E02003019000930122102339462046FFF736
S315080153F081FC002897D015B0F0BD0EA9DFE7212062
S31508015400F9E700BF00000404100000202DE9F04F61
S315080154109BB00D46914698460646DDF890A00028B1
S3150801542000F0B380002900F0B080002A00F0AD80BA
S31508015430002B00F0AA80026B0AEB02031B09B3EBEF
S31508015440121F02F00F0700F098800023504A8B6064
S31508015450C1E90023CB61484617A900F080FC044640
S31508015460002840F086800AEB070323F00F0B284635
S315080154701799009307F090FE5946284607F08CFEC7
S31508015480484602A900F03AFD0446002871D128468B
S3150801549002A907F06DFE484605A900F04BFD044632
S315080154A0002866D14FF00109284605A907F060FED4
S315080154B0384A284608A90896CDF824900A9207F092
S315080154C057FE47F00051ABEB070706F1100347F00B
S315080154D000570B93CDF830900D91CDF83880CDF863
S315080154E03C9010970D99284621F000510D910BA972
S315080154F0019307F03DFE28460EA907F039FEABF1E8
S315080155001001244A41F000511194CDF848901391A5
S3150801551006F120011491CDF8549016921399284654
S3150801552041F080411391139921F00051139111A96A
S3150801553007F028FE284614A907F024FE154A17A9DC
S3150801554028461796CDF86090199207F01BFE284653
S31508015550FFF7A0FB009B0446ABEB0301A3EB0B0291
S31508015560019B5144184641443EF07EFC336B53443B
S31508015570336320461BB0BDE8F08F103052464146D2
S3150801558038443EF071FC0024F0E72124F1E700BF1E
S3150801559003020004100000202DE9F0438DB088466F
S315080155A0DDE914591E460746002850D000294ED079
S315080155B0002B4CD0B9F1000F49D0531EDBB2042B96
S315080155C045D82449CC5C169B9C4240D8224B09A954
S315080155D003EB022200230260C0E90133C36140469E
S315080155E000F0BDFB80BB3846099907F0D5FD294671
S315080155F0384607F0D1FD6946404600F07FFC18BBE6
S315080156006946384607F0B4FD404603A900F092FC06
S31508015610D0B9384603A907F0ABFD069601263846E8
S3150801562006A945F00055079644F00054089507F079
S315080156309FFD384609A9CDF824900A960B9407F0E0
S31508015640A1FD3846FFF726FB0DB0BDE8F083212002
S31508015650FAE700BF34F50508000102032DE9FF4703
S3150801566000230E4617460446009300285BD00AB16C
S31508015670002958D037F0030807F0030A25D04FF060
S3150801568000094FF0E063C4E9003901230196204679
S31508015690029301A948F00053C4F80890C4F81C9075
S315080156A0039307F06FFD4146204607F075FD204636
S315080156B0FFF7F0FA054640B14246494630463EF004
S315080156C0FAFB284604B0BDE8F0874FF00009BAF1A5
S315080156D0000F2AD04FF0E063C4E900390123CDF861
S315080156E004D00293124B204601A9C4F80890C4F8C5
S315080156F01C90039307F046FD0421204607F04CFD54
S315080157002046FFF7C7FA054608B13A46D5E70346E4
S3150801571000994644DA00013321FA02F29A4506F85D
S31508015720012BF7D1CDE72125CBE75546C9E700BFC0
S3150801573004000020F0B5054617462A780846013ABE
S315080157408DB0042A44D8DFE802F0032F34393E002D
S3150801575014269C011F4B0C35036000232146C0E922
S315080157600133C361019007F017FD0123019846F043
S31508015770005606A944F00054039704930594069528
S315080157800793089609950A930B9607F0F1FC019879
S3150801579003A907F0EDFC019809A907F0F3FC0198A4
S315080157A0FFF778FA0DB0F0BD9C0120260A4B0C359F
S315080157B0D2E79C012026094B0C35CDE7DC014026B2
S315080157C0074B1435C8E7DC014026064B1435C3E7F9
S315080157D02120E7E700020103000301030004010396
S315080157E0000501030006010310B591B188B1002334
S315080157F0C0E90133084B00F10C0203F1200153F80B
S31508015800044B8B4242F8044BF9D101230370002063
S3150801581010BD2120FCE700BF5AF5050810B591B166
S3150801582088B10023C0E90133084B00F10C0203F1EA
S31508015830200153F8044B8B4242F8044BF9D1032358
S315080158400370002010BD2120FCE700BF39F50508CB
S315080158502DE9F84F0546894616461C4613B9002018
S31508015860BDE8F88F28B121B11AB10378032B02D804
S3150801587063B92120F4E7043B012BFAD84268031DDA
S3150801588000F1540A4FF08008042006E04268031D1F
S3150801589000F12C0A4FF04008022008F1FF371740A3
S315080158A0A2181A6003D2A7B944452BD23BE05A681D
S315080158B0511C1A4603EB800342F8041F043B93422A
S315080158C0F1D052F8041B0029F9D111680131116090
S315080158D0F5E7A8EB070B5C45E6D35A4631460AEBD2
S315080158E007003EF0C1FA0123524649462846FFF70A
S315080158F021FF0028B4D1A4EB08043C44A04507467F
S315080159005E440ED8B4FBF8FB32465B464946284648
S31508015910FFF710FF0028A3D10BFB08F84644A4EBB8
S315080159200804002C9BD0224631460AEB07003EF0BC
S315080159309BFA94E72DE9F0479046044686B000287D
S315080159406ED000296CD0002A6AD00278013A042A5E
S3150801595066D8DFE802F0034F545960001426251D66
S3150801596004F10C07022040229E4259D84FF0000C40
S31508015970E24602AB4FEA800903EB800355F82CE0B7
S315080159800CF1010C0AEBCE0A03F801AC4FEA5E1AD8
S3150801599003F802AC4FEA5E3A03F803AC60454FEAF6
S315080159A05E5A03F804AD4FEA5E7AE7D12D68531EB5
S315080159B02B40A2EB09059D4296BFA2EB4002EB1ACA
S315080159C0C3EB42032046174A0191FFF741FF0199AC
S315080159D0054658B94B46204602AAFFF739FF054640
S315080159E020B93246394640463EF03EFA284606B0C8
S315080159F0BDE8F0871C26251D04F10C07B2E7202611
S31508015A00251D04F10C07ADE73026251D04F1140701
S31508015A1004208022A8E74026251D04F11407F7E78C
S31508015A202125E3E77FF505082DE9F04186B0904683
S31508015A301D4604460C9F002833D097B302B983BB91
S31508015A404B1EDBB2042B2CD8174AD65C0D9B9E4203
S31508015A5027D80023080200F1407000F58070294616
S31508015A60C4E901332060E361204607F095FB012371
S31508015A706946204645F0005546F00056CDF80080A7
S31508015A800193029503970493059607F071FB204647
S31508015A9003A907F077FB2046FFF7FCF806B0BDE837
S31508015AA0F0812120FAE700BF7AF50508F0B50F461F
S31508015AB016461D46044693B010B9212013B0F0BD11
S31508015AC00029FAD0002AF8D0002BF6D00023314657
S31508015AD01A46384600F0F8F80028EFD1304602A9F0
S31508015AE000F088F80028E9D1EB68022B0AD039685A
S31508015AF03F48029A81426B6902D01830814270D1BF
S31508015B009A42DAD82B68002BD7D14FF06062384613
S31508015B10C4E90023A360E36101A900F020F9002884
S31508015B20CCD10199204621F4F061019107F034FBAB
S31508015B306946284600F013F90028BFD12046009986
S31508015B4007F02AFB384609A900F0D8F90028B5D18B
S31508015B50204609A907F00CFB38460CA900F0EAF91A
S31508015B600028ABD120460CA907F002FBEB684BB124
S31508015B70284606A900F0C2F900289FD1204606A9A1
S31508015B8007F0F6FA304603A900F0D4F9002895D1B2
S31508015B90B368DA040CD59B0427D50621F369326963
S31508015BA01B6801FB03225B0043F000530392059334
S31508015BB0204603A907F0DCFA28460FA900F0BAF92E
S31508015BC000287FF47BAF20460FA907F0DBFA0325EF
S31508015BD02046FFF75FF801287FF470AF013DF7D142
S31508015BE06CE7B3EB420F8DD267E7292066E700BF62
S31508015BF0200000B010B510B92123184610BD0029A0
S31508015C00FAD0036813F0704209D1C3F30E030B608F
S31508015C100B68F3B94268002AEED00A60EDE703F093
S31508015C205044B4F1004F05D0B2F1304F02D0B2F171
S31508015C30404FE1D18268D20406D5C269002ADBD079
S31508015C40002B04DA1368E2E703F07F03DFE70F238B
S31508015C50D3E70023D1E737B50C46054610B921200D
S31508015C6003B030BD0029FAD0002301A90193FFF73B
S31508015C70C1FF0028F4D1296811F0704102D1019BB6
S31508015C802360EDE7AA68B1F1004FC2F38033C2F38E
S31508015C904035C2F3003207D1062103EB450301FB68
S31508015CA00233019A5343EBE7B1F1204F04D12B4458
S31508015CB002EB82021344F4E7B1F1304F02D0B1F19D
S31508015CC0404FCCD12B44ECE7F7B50D4616461F4697
S31508015CD00446D8B1D1B101682B68994218D001F0B0
S31508015CE03042B2F1004F11D1594011F070410FD134
S31508015CF0019101A9FFF77EFF40B9019923682A6836
S31508015D00C1F30E010B4311438B4201D0212024E03C
S31508015D102368002B10DA1FB976B14FF4E04202E08E
S31508015D203EB14FF48052A368A9684B401342EDD1A6
S31508015D3017B1AB689B04E9D5002369462046009351
S31508015D40FFF758FF48B9019001A92846FFF752FF06
S31508015D5018B9DDE900239A42D8D103B0F0BDF7B5E9
S31508015D600C46054608B921206FE00029FBD000231F
S31508015D700B60036803F070430B60C268032AF2D80C
S31508015D80012A64D812B143F000632360AB6803F0BB
S31508015D90807213F0007F03F0407318BF4FF0007252
S31508015DA0B3F1407FEB6808BF4FF040720BB9002A88
S31508015DB0D9D1236823F0407313432360EA68022A82
S31508015DC007D12A69032ACED823F47F0343EA02437B
S31508015DD02360EB68032B03D12B69F62BC3D9A37078
S31508015DE0AB68180442BF236843F400432360EB6899
S31508015DF0032B09D023682A6823F4FF4323F07F0382
S31508015E00C2F30E02134323602A68AB68002A03F41F
S31508015E10805703F480661DDB2A6812F070420AD5A2
S31508015E20B2F1404F0AD24EB1226842F48062226032
S31508015E302A68002A02DB13F4C84F94D100232846A6
S31508015E4001A90193FFF7D6FEC8B103B0F0BD43F02F
S31508015E5080639AE7590442BF226842F4804222606D
S31508015E609A0442BF226842F4005222601FB1226896
S31508015E7042F48052226013F4C04FCDD173E72B68E8
S31508015E8013F0704223D12368019923F4FF4323F0C9
S31508015E907F03C1F30E010B432360002FD5D0EB69B5
S31508015EA0002B3FF460AFB2F1004F24D11A7F22B123
S31508015EB01EB1226842F4007222605B7F002BC4D0B7
S31508015EC0002EC2D0236843F480732360BDE703F034
S31508015ED05043B3F1004F06D0B2F1304F03D0B2F1BF
S31508015EE0404F7FF440AF019B2168013B03F07F03DC
S31508015EF021F07F01CFE70F20A7E70000A0B199B1F4
S31508015F0001234B60C368013B012B0AD88069074B03
S31508015F1018B1086000208B607047054A0A608B60DB
S31508015F2070474FF00053F5E721207047080000201D
S31508015F3000F6050837B50C46054610B9212003B009
S31508015F4030BD0029FAD001234B60C368012B1AD84A
S31508015F50002301A90193FFF77EFE0028EFD1EB6824
S31508015F605BB9019B6A699A4223BF2A6943F00053C8
S31508015F7022601D2028BFA360E1E7012B0ABF019B10
S31508015F8003461C33EEE7023B012BD7D80020886075
S31508015F90D5E72DE9F0410D46044698B0002869D0A9
S31508015FA0002967D000234FF000728360C0E90023FF
S31508015FB0C36115A92846FFF7D2FE002857D1204606
S31508015FC0159907F0E9F8AB68DB043CD52B68002B7B
S31508015FD052DA4FF00108EE69694637687368204658
S31508015FE0CDF804800093029707F0C2F8B3682046FB
S31508015FF003A9CDF810800393059707F0B9F8F3685C
S31508016000204606A9CDF81C800693089707F0B0F834
S315080160103369204609A9CDF8288009930B9707F01B
S31508016020A7F8736920460CA9CDF834800C930E970E
S3150801603007F09EF8B36920460FA9CDF840800F9363
S31508016040119707F095F8284612A9FFF757FF70B977
S31508016050204607F08DF8284615A9FFF76BFF30B9DA
S31508016060204615A907F08EF82046FEF713FE18B04C
S31508016070BDE8F0812120FAE70F20F8E770B50E4652
S31508016080154604468AB000285BD0002959D0002A53
S3150801609057D0012329461A463046FFF715FE002830
S315080160A04DD1B36813F4C04F4BD0AB6803F4C0436A
S315080160B0B3F5005F45D1254BA060C4E90030E06126
S315080160C007A93046FFF74BFE002838D12046079925
S315080160D007F062F8304601A9FFF710FF78BB2046A2
S315080160E007F046F8304604A9FFF724FF38BB2046D7
S315080160F004A907F03DF8EB681BBBAB6803F4C04382
S31508016100B3F5005F1DD169462846FFF7A4FDB0B96E
S31508016110009B6A699A4216D32A6943F0005307928B
S315080161200122204607A908920325099307F02AF8B0
S315080161302046FEF7AFFD012801D1013DF8D10AB08D
S3150801614070BD2120FBE71D20F9E700BF0000010211
S3150801615070B50E46154604468AB010B921200AB014
S3150801616070BD0029FAD0002AF8D000230122294659
S315080161703046FFF7A9FD0028F1D1F368002BEDD1D0
S31508016180EB68013B012BE9D84FF08073A060C4E9A5
S315080161900030E06107A92846FFF7E1FD0028DED1B6
S315080161A02046079906F0F8FF304601A9FFF7C2FE17
S315080161B00028D4D1204601A906F0DAFF284604A909
S315080161C0FFF79CFE0028CAD1204606F0D1FF2846D3
S315080161D007A9FFF7AFFE0028C1D1204607A906F097
S315080161E0D1FF2046FEF756FDB9E770B50D461646AE
S315080161F004468AB010B921200AB070BD0029FAD028
S31508016200002AF8D00023012231462846FFF75CFD13
S315080162100028F1D1F368002BEDD1EB68013B012B86
S31508016220E9D84FF08173A060C4E90030E06107A99D
S315080162302846FFF794FD0028DED12046079906F087
S31508016240ABFF284601A9FFF759FE0028D4D12046FD
S3150801625006F08EFF284604A9FFF76CFE0028CBD16D
S31508016260204604A906F084FF304607A9FFF762FE17
S315080162700028C1D1204607A906F084FF2046FEF76B
S3150801628009FDB9E71FB5044698B191B100230A4A39
S315080162908360C0E90023C361012301910293074B7F
S315080162A001A9039306F06EFF2046FEF7F3FC04B03E
S315080162B010BD2120FBE700BF0000084304000020B1
S315080162C030B50446074B586800B930BD85692D7845
S315080162D0A54205D145688D4202D145789542F4D04B
S315080162E00833F0E708F605080A4619B1024B0021FA
S315080162F01B681847704700BF0012002000F4E040F1
S31508016300B0F5805F04D0A0F5005358425841704754
S31508016310012070470E4B0340B3F1607F06D1B1F5FA
S31508016320885F14BF6FF0860000207047B3F1707F55
S315080163300BD101F4E043B3F5005F06D111F4E06F28
S315080163400CBF6FF08600002070476FF0860070471B
S315080163500000C07F8A42F8B507460D4600F0218144
S315080163609B4822F0FF01814210D09A4C22F4FF7318
S3150801637023F00103A34209D0974B994206D09749C6
S3150801638022F47F7323F003038B4223D125F0FF0107
S31508016390814210D08F4825F4FF7323F0010383420D
S315080163A009D08D4B994206D08C4925F47F7323F089
S315080163B003038B420ED115F0FF030BD0884943F036
S315080163C000738B4206D16A4032F0FF030CBF0120ED
S315080163D00020F8BD05F0FE43B3F1A06F17D102F016
S315080163E0FE43B3F1A06F40F0DE8082EA050333F481
S315080163F07E1340F0D88015F40040EAD0C5F3054075
S31508016400C2F3054290428CBF00200120E1E7B3F1B7
S31508016410407F40F0B38002F0FE43B3F1407F40F085
S31508016420C28082EA050333F47E1640F0BC80394601
S315080164302846FFF76FFF002840F0B580694C12F433
S315080164407C1C04EA020438D0B4F1607FC2F3054C1F
S315080164507AD16549D3B243F000738B4278D003F100
S315080164607E410439012975D960498B4276D00131BB
S315080164708B4275D001318B4274D001318B426BD07E
S3150801648001318B426AD001318B4269D003318B428B
S3150801649064D001318B4263D001318B4262D0013124
S315080164A08B4208BF402615F47C1FC5F305435BD113
S315080164B0664514BF002001208BE7B4F1607F2BD11C
S315080164C04949D3B243F000738B426ED003F17E4142
S315080164D0043901296CD945498B426FD001318B4268
S315080164E06FD001318B426FD001318B4263D00131BC
S315080164F08B4263D001318B4263D003318B425DD02D
S3150801650001318B425DD001318B425DD001318B4225
S3150801651008BF4FF0400C9CE7B4F1707FC3D107F474
S31508016520E043B3F5005F05D14FF0010CC7F3022331
S315080165300CFA03FC07F4E043B3F5005FB3D1012677
S31508016540C7F302239E40AEE7B4F1707FABD1F1E702
S315080165501026A8E71426A6E74026A4E71C26A2E7E4
S315080165602026A0E730269EE712F47C1F01D1B3420C
S3150801657017D02A047FF52DAF634544E7B3F1106FB1
S3150801658011D125F01F6323F4702363B902F0FE438A
S31508016590B3F1106F07D11648104040F01060A842B9
S315080165A087E7012015E7002013E74FF0100C50E7A5
S315080165B04FF0140C4DE74FF0400C4AE74FF01C0C16
S315080165C047E74FF0200C44E74FF0300C41E700BF96
S315080165D00013000600020006000900060004000672
S315080165E0FF0000020000C07F03000002080000024D
S315080165F00000FFF6074B20F47E10984206D10739B2
S3150801660006298CBF6FF08600002070476FF0850061
S31508016610704700BF000140057FB500F0FE46B6F1A0
S31508016620106F0D4603D06FF0850004B070BD20F0E1
S315080166301F6424F47024002CF5D10A9C0294099C49
S315080166400194089C009401F0D2FB10F1860FECD15D
S315080166506B681B0AE9D1E6E72DE9F8438846174630
S315080166601C4601F0A9FC0546002859D1D8F8006056
S31508016670B6F8009009F4E043B3F5804FF36808BF14
S3150801668027F0010737EA030342D1002C48D02F4AE5
S3150801669024F0FF03934211D02D4924F4FF7222F00E
S315080166A001028A420AD02B4A934207D024F47F7208
S315080166B022F0030201F500718A4234D114F0FF0277
S315080166C031D022498B4211D0214824F4FF7121F09F
S315080166D0010181420AD01F498B4207D024F47F73F6
S315080166E023F00303A1F5A0618B4204D142F00073A4
S315080166F0194A93421ED0224648463169FFF72AFEB7
S31508016700074668B9224648467169FFF723FED0B99C
S315080167106FF0840500233046C8F8003001F09AFC72
S315080167202846BDE8F88304F0FE43B3F1407F04D15F
S315080167302304E0D56FF08605ECE7B3F1A06FF7D037
S31508016740054B9C42D6E73D46EAE700BF0013000623
S315080167500002000600090006FF00000238B50379A9
S3150801676004460D4633B9A36820462B6001F072FC36
S3150801677038B938BDD0E9081201F030FD0028F2D049
S31508016780F7E700232B60F4E700F0FE43B3F1407FFF
S3150801679070B505460E4640F09980FFF7BBFD002807
S315080167A040F0968015F47C1F05D0C5F30543032BED
S315080167B013700DD86BE04C4B2B40B3F1607F69D158
S315080167C04A49EBB243F000738B4231D1102313705F
S315080167D0454C2C40B4F1607F6AD14449EAB242F093
S315080167E000728A4275D002F17E410439012972D9B3
S315080167F03F498A4271D001318A4270D001318A42B9
S315080168006FD001318A4211D001318A4265D00131F6
S315080168108A4264D003318A425FD001318A425ED00E
S3150801682001318A425DD001318A424FD140214BE084
S3150801683003F17E410439012901D81423C7E72C49FC
S315080168408B4201D11C23C2E72A498B4201D120235D
S31508016850BDE729498B4201D13023B8E727498B4245
S3150801686001D14023B3E726498B42EBD001318B4254
S31508016870EDD003318B42E5D001318B42E7D00131AE
S315080168808B42E9D001318B42EBD0002313706FF0B4
S3150801689085001DE0B3F1707FF7D101F4E043B3F54C
S315080168A0005FF2D10123C1F302218B40DBB27EE7FF
S315080168B0B4F1707F0AD106F4E042B2F5005F05D162
S315080168C00121C6F3022291408B4201D96FF086005D
S315080168D070BD1021F8E71421F6E71C21F4E7202101
S315080168E0F2E73021F0E700BF0000C07F0300000295
S315080168F008000002090000020A0000020B0000025B
S315080169000C00000200232DE9F341D0E90168044691
S315080169100F4630461146136001F0A6FB054688B9B5
S31508016920304601F0A3FB054660B9F6B276B9B8F16F
S31508016930000F05D1E36823F47F4323F0030363B112
S315080169406FF08605284602B0BDE8F0810146A068C9
S3150801695001F087FA0028EDD1F2E74FF6F87362885D
S315080169609A421CD8238B23F00103002BE8D1394620
S3150801697001A801F0DFFA05460028E3D10FCC3F68EC
S315080169803E460FC694E807003B7986E807000BB92F
S31508016990019BBB603B8B23F001033B83D2E76FF07E
S315080169A08505CFE7B0F5105F0DD009D8B0F5885F3A
S315080169B010D0B0F5905F0DD041F20103984209D08D
S315080169C06FF08500704721F04003802B02D0B1F5A6
S315080169D0807F06D111F0070F14BF6FF086000020E3
S315080169E070476FF08600704770B5046A05460E4613
S315080169F03CB9012001F0AAFC286228B120466E6242
S31508016A0070BD6FF08A00FBE76FF08C00F8E773B58D
S31508016A100E46114605460192FFF7E6FF044620B9E0
S31508016A203146019A286A3DF01FFA204602B070BD28
S31508016A302DE9F041089D88461F46048802B3204681
S31508016A40FFF75CFCE0B12B680BB9D3002B6020463D
S31508016A502968FFF7A7FF044678B9CE1DB2EBD60F12
S31508016A6011D1069B9A4211D8414638463DF0FCF9A8
S31508016A702B68079A0733DB0813602046BDE8F081C7
S31508016A806FF08504F9E76FF08604F6E76FF089047D
S31508016A90F3E710B50446006A10B1616AFFF724FCF2
S31508016AA0206A01F075FC0020C4E9080010BD38B55C
S31508016AB00446FFF7EEFFE3692822012B0CBF0546C2
S31508016AC06FF09605002120463DF0F5F9284638BDB8
S31508016AD013B5044660B101A901F06EFA044638B946
S31508016AE00198C369012B06D901F0B4FA6FF0830442
S31508016AF0204602B010BD0379FF2B0BD01BB180686D
S31508016B0001F0C6FA04460198FFF7D1FF002818BF1D
S31508016B100446EDE76FF08404F5E770B5144602887C
S31508016B201D461046049EFFF7E9FB50B944F20103DE
S31508016B3022F44050984204D002F44F42B2F5824FF3
S31508016B400ED1B4420FD8224628463DF08DF90021D0
S31508016B50321B28193DF0AFF90020059B1C6070BD5A
S31508016B606FF08500FBE76FF08900F8E72DE9F04142
S31508016B7088461F4616468CB022B3002301223B6085
S31508016B8002A9FFF769FDD0B9DDF808C003AC65466F
S31508016B90CDE90A000FCD0FC495E8070084E8070080
S31508016BA0CDE900674346DCE9081203A800F003FFB4
S31508016BB00446029801F04EFA002C18BF20460CB084
S31508016BC0BDE8F0816FF08900F9E770B514460288CF
S31508016BD044F2010022F440568642049D04D002F490
S31508016BE04F40B0F5824F13D102F4E042B2F5804F1F
S31508016BF00ED1AC420FD8184622463DF035F9002190
S31508016C002A1B20443DF057F90020059B1C6070BDE6
S31508016C106FF08500FBE76FF08900F8E72DE9F0438F
S31508016C208946984617468DB052B3002302A91A46DB
S31508016C30C8F80030FFF710FDE0B9029E33885B04FF
S31508016C401BD5354603ACCDE90A000FCD0FC495E82F
S31508016C50070084E80700CDE900784B46D6E9081213
S31508016C6003A800F0BEFE0446029801F0F3F9002CD1
S31508016C7018BF20460DB0BDE8F0836FF08604F3E730
S31508016C806FF08900F6E72DE9F0411F46002388B029
S31508016C90054688461646CDE9043307923B60002A25
S31508016CA05FD0B2F1005F5FD205AA04A9FFF72AFEF9
S31508016CB00446A0B9049B1B6ABBB1049B41465A888A
S31508016CC02846069206AA029203F1240201925A6AFA
S31508016CD000921B6A324600F03DFE0446D0B1049884
S31508016CE0002832D0FFF7E3FE2FE06B681B0A07D1B5
S31508016CF007990498FFF778FE04460028DDD0EEE7E9
S31508016D0032464146284607AB00F0F3FD0446002803
S31508016D10EED0E4E70498069B4288D2B943804FF641
S31508016D20F87293421AD82B8813B102889A4212D163
S31508016D302B6A83B96B8813B142889A420BD13946BB
S31508016D40FFF70CFD04460028C9D1204608B0BDE866
S31508016D50F0819A42E3D06FF08604C0E76FF08504AC
S31508016D60BDE76FF08604F0E76FF08504EDE7036889
S31508016D7010B5044623B100F0F8FE0023236010BDC8
S31508016D801846FCE738B50C460168054699B904F07A
S31508016D90FE43B3F1007F11D1D82204303DF08BF8C0
S31508016DA02146284600F0C1FE044610B12846FFF7E1
S31508016DB0DEFF204638BD6FF08804F7E76FF08604DA
S31508016DC0F4E738B50468054664B112B900242046CB
S31508016DD038BD00F0B3FE04460028F7D02846FFF771
S31508016DE0C6FFF4E76FF08804F8E770B500261E6061
S31508016DF0046805463CB100F0AAFE04462846FFF79A
S31508016E00B6FF204670BD6FF08804FAE7036810B52F
S31508016E10044653B100F0DDFF00232360A38823F461
S31508016E20FF7323F00103A38010BD1846FCE72DE983
S31508016E30F04105460C4600218CB0174603A82422CA
S31508016E40984602913DF037F82B68002B3DD1B8F1F1
S31508016E50000F20463B4614BF4FF480624FF4006290
S31508016E6002A9FFF7F9FB044600BB029E03AC0FCE4D
S31508016E700FC496E8070084E807003846BDF80C10E9
S31508016E802A1DFFF781FC044680B96B79284668F309
S31508016E9000036B71029B03A9D3E908230097B8F194
S31508016EA0000F0FD000F034FF044610B12846FFF753
S31508016EB0ADFF029801F0CEF8002C18BF20460CB0A1
S31508016EC0BDE8F08100F043FFEEE76FF08804EDE7D7
S31508016ED00123FFF7ACBF38B50368054614464BB125
S31508016EE032B100F053FF044610B12846FFF78EFF72
S31508016EF0204638BD6FF08804FAE72DE9F0411646B9
S31508016F00026805460F469846F2B14279D2071BD563
S31508016F100279CAB1B2421AD800F046FF044618B13E
S31508016F200023C8F800602B712879B04204D2321ABE
S31508016F30212138443CF0BFFF2846FFF767FF002CA4
S31508016F4018BF2046BDE8F0816FF08804E8E76FF0C6
S31508016F508904E5E7036810B504463BB100F0D7FD9F
S31508016F6000232360237923F003032371002010BD36
S31508016F702DE9F0410646984600238CB00293336802
S31508016F80B8F1010F154608460CBF4FF480724FF44D
S31508016F900072002B6BD105F0FE43B3F1806F69D106
S31508016FA02B4602A9FFF758FB0446002841D133793D
S31508016FB0324A23F00303954218BF43F00103DDF873
S31508016FC008C03371BCF8003003F4E042B2F5005F43
S31508016FD03BD113F4E06FC3F3022036D0284A25F4D7
S31508016FE0807191420AD002F50072954206D0254A6F
S31508016FF0954203D0A2F53F42914226D10122824011
S31508017000D2B200236746727103ACCDE90A330FCFBA
S315080170100FC497E80700B8F1010F84E80700DCE917
S3150801702008233046009503A91ED100F005FD044644
S3150801703010B13046FFF78EFF029801F00BF8002CCD
S3150801704018BF20460CB0BDE8F08142F20402934213
S3150801705002D10D4B9D4205D00C4A95420CBF0D221B
S315080170600022CEE70C22CCE700F005FDDFE76FF042
S315080170708804DEE76FF08604DBE700BF00444004BE
S315080170800010C00400FF4004000180040013C0047E
S315080170900123FFF76DBF37B50468054694B1047936
S315080170A004F00304012C0DD0079C0194069C00945E
S315080170B000F000FD044610B12846FFF74BFF2046B5
S315080170C003B030BD6FF08804F6E770B5046805466D
S315080170D01E466CB1047904F00304012C08D000F0B3
S315080170E001FD044630B92846BDE87040FFF732BFB6
S315080170F06FF08804002328463360FFF72BFF2046EC
S3150801710070BD00002DE9F04F1D46002395B091464C
S31508017110DDE922A7249A0C46136001F0FE43B3F178
S31508017120A06F33D13E4A21F0FF03934211D021F4D7
S31508017130FF723C4922F001028A420AD03A4A934236
S3150801714007D024F47F7222F0030201F500718A4206
S315080171501FD114F0FF021CD031498B4211D0314E98
S3150801716024F4FF7121F00101B1420AD02E498B4264
S3150801717007D024F47F7323F00303A1F5A0618B42A2
S3150801718009D142F00073294A934204D16FF0850B65
S3150801719041E02304FAD423464FF480720AA9FFF783
S315080171A05BFA8346002836D1DDF828800DF12C0CD0
S315080171B0C646CDE912000646BEE80F00ACE80F0048
S315080171C09EE807008CE8070029462046FFF712FAD1
S315080171D08346E8B9249BCDF818A0CDE90773219B0E
S315080171E0CDF800900593209B0BA804931F9B03934E
S315080171F01E9BCDE901532346D8E9081200F0BEFCCF
S31508017200834628B127B13A46314650463CF053FEEB
S315080172100A9800F01FFF584615B0BDE8F08F00BF69
S31508017220001300060002000600090006FF0000021E
S315080172302DE9F04F1D46002395B09146DDE922A7B9
S31508017240249A0C46136001F0FE43B3F1A06F33D1C3
S315080172503E4A21F0FF03934211D021F4FF723C49C3
S3150801726022F001028A420AD03A4A934207D024F40C
S315080172707F7222F0030201F500718A421FD114F0D0
S31508017280FF021CD031498B4211D0314E24F4FF71D3
S3150801729021F00101B1420AD02E498B4207D024F4CC
S315080172A07F7323F00303A1F5A0618B4209D142F054
S315080172B00073294A934204D16FF0850B41E02304F8
S315080172C0FAD423464FF400720AA9FFF7C5F9834693
S315080172D0002836D1DDF828800DF12C0CC646CDE9FB
S315080172E012000646BEE80F00ACE80F009EE807004C
S315080172F08CE8070029462046FFF77CF98346E8B95A
S31508017300249BCDF818A0CDE90773219BCDF80090F1
S315080173100593209B0BA804931F9B03931E9BCDE902
S3150801732001532346D8E9081200F08DFC834628B19B
S3150801733027B13A46314650463CF0BDFD0A9800F061
S3150801734089FE584615B0BDE8F08F00BF0013000648
S315080173500002000600090006FF00000237B50C4DC1
S315080173600C462B78DB070FD500230A460193014605
S3150801737001AB281DFBF7F7F920B9019BA34218BFFA
S315080173806FF0930003B030BD6FF08800FAE700BFD5
S31508017390642200202DE9F04705469A46002386B067
S315080173A0059305F0FE43B3F1106F0846DDE90E9625
S315080173B01746DDF8408022D12B464FF4804205A9B5
S315080173C0FFF74AF9044658B953463A462846CDE9DD
S315080173D001680599CDF80090FFF71EF9044628B112
S315080173E031464846FFF7BAFFC8F80060059800F02D
S315080173F031FE002C18BF204606B0BDE8F0876FF0B5
S315080174008604EDE7034610B50C461146DA6900888D
S315080174100AB91B6A3BB9FEF771FF38B12046BDE8C8
S315080174201040FFF79BBF6FF0860010BD6FF0850017
S31508017430FBE72DE9FF410023CDE901330B604388C2
S3150801744006460D46002B00F08E80038803F4E043C0
S31508017450B3F5804F00F0878002AA01A9FFF752FA17
S31508017460044600BB019B1B6A73B10199304601F1C1
S315080174702403D1E9081200F049FA0446002875D018
S315080174800198FFF706FB0EE07268170A60D1B6F895
S31508017490008071884046FEF731FF60B14046FFF72C
S315080174A081FA044660B1019808B1FFF700FB20464E
S315080174B004B0BDE8F08128F0FF03B3F5E24F4FD1E0
S315080174C008F4E043B3F5805F02D0B3F5005F02D15B
S315080174D0CA1DD7100AE047F2010398450FD14A0899
S315080174E00132D21002EBC20202F13B07039703995C
S315080174F00198FFF779FA04460028B6D0D3E744F293
