S01B0000626F6F746C6F616465722D6170706C6F616465722E733337C9
S315080000000010002045020008F50100089D0A0008B6
S31508000010F5010008F5010008F5010008F5010008DA
S31508000020F5010008F501000890BC0008F501000874
S31508000030F5010008D8BC0008F5010008F50100081C
S31508000040F5010008F5010008F5010008F5010008AA
S31508000050F5010008F5010008F5010008F50100089A
S31508000060F5010008F5010008F5010008F50100088A
S31508000070F5010008F5010008F5010008F50100087A
S31508000080F5010008F5010008F5010008F50100086A
S31508000090F5010008F5010008F5010008F50100085A
S315080000A0F5010008F5010008F5010008F50100084A
S315080000B0F50100086DA5000855AF00081DAF00083A
S315080000C019AF000839A7000851AF000821AF00088A
S315080000D029AF000825AF0008B5AF000895AF00089E
S315080000E0F5010008F5010008F5010008F50100080A
S315080000F0F5010008F5010008F5010008F5010008FA
S31508000100F5010008F5010008F5010008F5010008E9
S31508000110F5010008F5010008F5010008F5010008D9
S31508000120F5010008F5010008F5010008F5010008C9
S31508000130F5010008F5010008F5010008F5010008B9
S31508000140F5010008F5010008F5010008F5010008A9
S3150800015061930008F5010008657B00086B7B0008C1
S31508000160F5010008F5010008F5010008F501000889
S3150800017010B5054C237833B9044B13B1044800E095
S3150800018000BF0123237010BD70100020000000007E
S31508000190600C010808B5034B1BB10349034800E08E
S315080001A000BF08BD0000000074100020600C0108A4
S315080001B008B50321802002F01BFA03214FF4806062
S315080001C002F016FA0A214FF4C06002F011FA0A2169
S315080001D04FF4F06002F00CFA0A213E2002F008FA09
S315080001E00A212D2002F004FA0A21512002F000FA11
S315080001F0002008BDFEE70000064B0748DA1C121A65
S31508000200C11E22F00302994288BF002203490BF05F
S31508000210EBBC00BF7010002000100020740C010811
S31508000220064B0748DA1C121AC11E22F0030299422D
S3150800023088BF002200210BF0FEBC00BFC0230020AF
S315080002407010002008B500F009F800F061FCFFF70F
S31508000250D3FFFFF7E5FF00F025FC00004FF48041CF
S315080002604FF0FF30114B124A10B59A60D3F8882028
S3150800027042F47002C3F888200E4A91660E4901F5C9
S31508000280005210660D4850660220C3F8D000BFF32E
S315080002904F8FBFF36F8F01244FF440330848C0F8DF
S315080002A08041D36004600B6110BD00BF00ED00E023
S315080002B0000000080090005000800044F7FF370057
S315080002C000E100E0014B1868704700BF04100020E9
S315080002D0084B1B6F03F00703022B04D0032B05D032
S315080002E0012B05D0FEE7044B18687047034BFBE764
S315080002F003487047008000500410002008100020B2
S31508000300002D310108B5FFF7E3FF054B1B6FC3F35B
S3150800031003330133B0FBF3F0024B186008BD00BF8E
S3150800032000800050001000200048704700B4C40444
S31508000330014B1868704700BF081000200048704736
S31508000340002D31014FF0B4439868C0F304400C28DF
S3150800035022D8DFE800F009212121212107171921D8
S315080003601B1D1F000F4870479B6803F04073B3F1CD
S31508000370807F13D0B3F1007F12D00B4A002B08BF41
S31508000380104670470948704709487047094870473A
S315080003900948704709487047002070470848704761
S315080003A008487047405DC60000093D000024F40077
S315080003B0C0EA210180BA8C010048E801005A6202AD
S315080003C080841E0040420F004FF4004070474FF4EF
S315080003D07A707047014B1868704700BF0C100020F0
S315080003E000F0BEB800F0C6B810B5144BADF5107DD8
S315080003F003AC0FCB84E80F002C22002107A80BF0D2
S315080004001AFCFF234FF49472002146A88DF81D307C
S315080004100BF011FC6822002112A80BF00CFC6822D4
S3150800042000212CA80BF007FC00942CAB12AA46A9B5
S3150800043007A800F0F1F80DF5107D10BD60BC0008A6
S31508000440704700000122044B1A700023034A1370F8
S31508000450034A1370704700BFA9100020A810002097
S31508000460AA100020002238B5124B134C1A7001222C
S31508000470124B1A7023689A78DAB1DA78CAB11A7800
S31508000480510706D5986A00F0F1FA10B10C4800F049
S315080004907BFA23681A7892070BD55D6800F0AAFAEA
S315080004A0854206D923680648596ABDE8384000F0EF
S315080004B021BA38BDA910002094100020A8100020E9
S315080004C00080010800F096BA002307B501A8019339
S315080004D000F095FA00B1019803B05DF804FB00003E
S315080004E007B5024601200B46064908700649074823
S315080004F00968009106490068096800F0DFFD03B045
S315080005005DF804FBAA100020981000209C1000201B
S3150800051094100020044A05490548202312680968F2
S31508000520006800F08FBD00BF8C10002090100020DE
S315080005309C100020094B1A68D37892782AB1002BB0
S3150800054041F20C0018BF0020704741F20C0240F23D
S315080005500570002B08BF1046704700BF9410002096
S3150800056008B5FFF725FEBDE80840014802F0BEBD04
S31508000570A010002010B5254B254C18681B7992B0A1
S315080005808DF80C3023880290ADF80D30A3786846B4
S315080005908DF80F3002F0BEFD41F60833ADF8103085
S315080005A09DF806300098C3F300038DF81230BDF8A5
S315080005B00430CDF81300ADF81730164B1A889B781F
S315080005C0ADF828208DF82A3000238DF82B3002F05C
S315080005D0CBFD02F0CFFD2046032102F0D1FD02F04B
S315080005E0D7FD02F08FFD112102A802F0A7FD032115
S315080005F00AA802F0AAFD012002F0AEFD002840F28A
S31508000600017008BF002012B010BD00BF70BC000802
S3150800061076BC00087ABC000870B5134C134E2060EF
S315080006201348144D016014490A60144A1360049A69
S31508000630134B1A6033780BB102F06AFD2B78002B46
S31508000640F8D0104B1B784BB123689A784AB1DB78FF
S3150800065040F20570002B18BF002070BD40F20370F1
S31508000660FBE740F20570F8E794100020A910002077
S315080006709C100020A8100020901000208C1000204C
S3150800068098100020AA1000204FF098435A6CD20206
S31508000690FCD5586D00F470207047C0F30C032DE9A3
S315080006A0F04105460F4616460BB900F067FB05F5FF
S315080006B0005424F4FF5424F01F0405EB0608A04553
S315080006C007D8324639462846BDE8F041022300F0ED
S315080006D063BB204600F052FB04F50054EFE770B404
S315080006E04FF00065AD6A03462E69864206D86C69E6
S315080006F013449C4202D370BCFFF7CFBF70BC70474F
S315080007001FB500F1006303F5C0330393104B14467D
S3150800071098421BD8039A0F4B9A4217D2039A9B1AF0
S31508000720A34213D358B94FF000639B6A0A4A586923
S31508000730904204D91869019100F020FB01992246DC
S31508000740039804B0BDE81040FFF7A7BF04B010BD7A
S31508000750FF7FFEF700E01708008001087FB56FF0FD
S31508000760006200F17841914203461AD26D460E4A5C
S3150800077002F110062C4610685168083203C4B242CA
S315080007802546F7D15A1E0DF10F010F3311F801094D
S3150800079012F8014F844204D19A42F7D1012004B0DD
S315080007A070BD0020FBE700BF7DBC0008036913F09D
S315080007B0FE0F0CBF01200020704738B504460D46D1
S315080007C0FFF7CCFF48B16369012B09D12046FFF733
S315080007D0EDFF08B1A3692B6038BD01202C60FBE74B
S315080007E00020F9E72DE9F0410368044603F1604368
S315080007F0B3F5802FA0B034D84FF000639B6A4268E7
S315080008001E6996422DD8394B9A422AD8456B06F16D
S315080008104002AA4268D89D4266D82846FFF79EFF3E
S31508000820002861D02846FFF7C1FF80B16B6973B114
S31508000830022B0FD1AB69C4F1040119444FF0FF3202
S31508000840204601F065F82A4BC31A5842584120B091
S31508000850BDE8F08140F2046328460493FFF77EFF63
S3150800086008B90020F3E72846FFF7A0FF0028F8D0CC
S315080008704FF00067D7F834804046FFF76FFF00282F
S31508000880EFD0503EB045ECD8284605A9FFF795FFAE
S315080008900028E6D0BA6A059B12699A42E1D89C42BA
S315080008A0DFD8124A9342DCD806A801F005F9059A62
S315080008B02146121B06A801F00FF906A801F00EF949
S315080008C0059C01F00FF9039001F02AF921460090E2
S315080008D0039B04F1200206A801F06EF80490049820
S315080008E0B0FA80F04009B2E70120B0E70000180826
S315080008F0E320BBDE70B54FF0FF3290B005460C46DC
S3150800090001F006F81C4B984232D14FF480621B4B1B
S3150800091000219A6601A81C220BF08DF9184B29466E
S315080009206846043C009302F02EFA2146684602F017
S315080009302AFA684602F030FAFFF7A6FE0646B8B964
S3150800094040F2022000F0E5F91C22314609A80BF016
S3150800095072F90C4B294608A8089302F014FA08A85D
S31508000960214602F010FA08A802F016FAFFF78CFEE4
S31508000970002010B070BD00BFE320BBDE0090005021
S3150800098001000543010006434FF4806230B5044672
S31508000990154B91B09A6600211C2201A80BF04BF961
S315080009A0124B21466846009302F0EDF9684602F0BC
S315080009B0F3F9FFF769FE054698B940F2022000F000
S315080009C0A8F91C22294609A80BF035F9084B08A8EE
S315080009D02146089302F0D7F908A802F0DDF9FFF7D7
S315080009E053FE002011B030BD0090005000000243B5
S315080009F0000003434FF000639B6A9868704738B558
S31508000A004FF000639B6A04461B695D6B2846FFF737
S31508000A10A5FE08B12B6A236038BD00004FF480623A
S31508000A2010B50F4B8CB004469A6600211C2205A807
S31508000A300BF001F90B4B01940493012302930A4B23
S31508000A4001A904A8039302F094F904A802F0A4F9F2
S31508000A50FFF71AFEB0FA80F040090CB010BD00BFCF
S31508000A600090005000000843040000204FF0FF33B8
S31508000A7013B5044601A80193FFF7D0FF20B1019BE7
S31508000A80A3422CBF0020012002B010BD00487047C9
S31508000A900080010800207047002070474FF401705D
S31508000AA000F042B9194B10B5D3F88420110606D4C4
S31508000AB04FF400621A67D3F88420D206FBD4FFF7F6
S31508000AC0E9FF00F014F9FFF78BFCFFF78BFC18B170
S31508000AD04FF4017000F028F9FFF786FC0446FFF78B
S31508000AE0AFFC1CB140F203739C4203D140F20120D3
S31508000AF000F01AF9A4F20574012C94BF40F2032001
S31508000B004FF4017000F010F9002010BD00400050AD
S31508000B1037B50124364B8DF806408DF80740D3F8D3
S31508000B2094305B0610D500F013F9A0F2022080B2CB
S31508000B30072809D804FA00F010F0C90F1EBF0023D1
S31508000B408DF806308DF807302A4B5B68013308D1DB
S31508000B504FF4027000F0DDF800238DF806308DF8AA
S31508000B6007309DF807305BB12248FFF73BFE8DF84A
S31508000B7006009DF806301BB94FF4027000F0C9F85C
S31508000B809DF80630002B30D04FF480434FF0FF31EC
S31508000B90194A936602F17442116601F5800151669D
S31508000BA00021164AC2F8D010BFF34F8FBFF36F8FDC
S31508000BB00125134CC4F88050BFF34F8FBFF36F8FD6
S31508000BC04FF440300F490861C4F88051C86001F1FC
S31508000BD040618B66074B93601846016881F3088865
S31508000BE081F3098840688746FEE703B030BD00BF39
S31508000BF000400050002001080090005000ED00E081
S31508000C0000E100E000A00044B1F50D7F10B50446F0
S31508000C100FD34FF40D7200210BF00DF804F5DE72B8
S31508000C2004F5AA7104F12C000023BDE8104000F079
S31508000C3009BA40F2052010BD13B5044600910146D5
S31508000C402C3000F03BFAC4F8300218B141F2070321
S31508000C50984209D1A3784BB140F2032040F202230F
S31508000C60E278002A08BF184602B010BD40F20120FB
S31508000C70FAE72DE9F04387B00DF1080904460E4658
S31508000C8017460021102248461D46DDF838800AF02E
S31508000C90D2FF00211C22C8F8001028460AF0CBFF14
S31508000CA032463B462146CDF8009004F12C0000F070
S31508000CB005FA23789A0744BF6268C8F80020DB075C
S31508000CC009D504F1080304F1240253F8041B9342DE
S31508000CD045F8041BF9D1237840F20640002B18BFCB
S31508000CE0002007B0BDE8F0834FF40D7070474FF051
S31508000CF000534CF23C325A8070474FF000534AF684
S31508000D00C0305B8823F00F039BB21B1A5842584128
S31508000D1070474FF0005208B51080FFF7EEFF10B984
S31508000D204FF20F03538008BD08B5FFF7F2FFBFF374
S31508000D304F8F0549054BCA6802F4E0621343CB603E
S31508000D40BFF34F8F00BFFDE700ED00E00400FA0592
S31508000D504FF000534FF20F015A888A4201D1188882
S31508000D6070473AB91B8840F20220012B18BF4FF48E
S31508000D70007070474FF40070704700004FF48032DF
S31508000D8008B5044B9A6601F049FFB0FA80F04009AD
S31508000D9008BD00BF00900050072BF8B506460F4661
S31508000DA014461D4601D90020F8BD0121202001F076
S31508000DB049FA0121212001F045FA8CB144EA0603DB
S31508000DC09B07F0D14FF48032064B31469A66284687
S31508000DD023463A4601F04AFFB0FA80F04009E3E7B5
S31508000DE00120E1E70090005000207047002070477E
S31508000DF070B5D1E90152AA4205D290F840302B4489
S31508000E009B1A402B10D9002012E00A6890F840403F
S31508000E10D65C90F841200133224402F03F020134A7
S31508000E2086548B6080F840408B689D42EDD801203F
S31508000E3070BD2DE9F8431D461746D1E901329B1AC4
S31508000E4090F84020044613449D420E469DF8209093
S31508000E509DF8248056D9FFF7CBFF00285CD11423D0
S31508000E6041F2020084F84630BDE8F88394F8412040
S31508000E70A25CFA5494F841200133013202F03F0291
S31508000E8084F8412094F84020013A84F8402094F8E8
S31508000E9040200AB19D42E9D1D6E90121914201D209
S31508000EA09D4231D89D42DAD129463846D4F8882061
S31508000EB000F02EFDC4F88800B9F1000F04D02A46C8
S31508000EC03946E06C00F008FEB8F1000F08D094F837
S31508000ED043308BB12B463A463946A06C00F05AFD92
S31508000EE094F8433043B1E36DA26D2B449342E36516
S31508000EF024BF002384F84330636D41F203002B447A
S31508000F006365B1E70023C2E73268525CFA54B268F7
S31508000F1001330132B260BFE70020A5E77FB50023A1
S31508000F20CDE90033082315460DEB03020446FFF707
S31508000F3080FF41F203039842064626D194F84330CF
S31508000F4063B10822E06C0DEB020100F0C5FD082331
S31508000F500DEB03021146A06C00F01CFD039A029BE0
S31508000F606A6094F843202B605AB9094A934208D01C
S31508000F70084A934205D00822E06C0DEB020100F006
S31508000F80ABFD6B68236500236365304604B070BD0E
S31508000F90F70A0AF7FC0404FC2DE9F74304465868E7
S31508000FA00E4617469846002841D08B0742D14FF087
S31508000FB000639B6A206E1B6902EB000C1D1D6545CC
S31508000FC01CD81C33984219D28542294638BF014697
S31508000FD09C4594BFC1EB0C02C1EB0302081AC5F18C
S31508000FE0680506EB000968182044494601920AF08C
S31508000FF0FBFDFF214846019A0AF01DFE226E0F4BA3
S315080010009A420AD80E49B818884206D99B1AF25845
S31508001010C4F880204FF0FF32F2503A46D8E900353E
S31508001020206E3146A8470020226E3A44226603B055
S31508001030BDE8F08341F20200F9E700BF0480010829
S31508001040078001082DE9F04100254FF0FF370446D7
S315080010508846164603F0200380F842301822FF21FE
S31508001060C0E91855A0F8405080F84350A0F84450FD
S3150800107080F84650C0F8887068300AF0DCFD88228F
S315080010802946C4E91286C4F88070C4F8847004F14D
S3150800109090000AF0D0FD40F20113A4F82431012390
S315080010A0C4E9475784F8185184F8263116B13046F2
S315080010B000F002FD0020BDE8F08100002DE9F04FA8
S315080010C0A7B0CDE913230293002304460E46309DAC
S315080010D0DFF8B4931593159A029B9A4201D3002020
S315080010E0C7E094F84630142BF6D8DFE813F067000B
S315080010F0AE00A800520039002E00530239004B02F8
S315080011003900020239004B029B03090415008C01C1
S3150800111041034103D30209044FF00008636D0F2B06
S3150800112000F291800127102316AA2046CDF80480E4
S31508001130009713A9FFF77DFE41F203030990099A68
S315080011409A4200F05281099B44E00127D4E91432FF
S31508001150934200F25E8184F8467041F2030339E057
S315080011604FF00108D4E91437BB426CD9DB1BDDE923
S315080011701472BF1A94F84020032B174440F20E82CB
S31508001180032F00F20E82204613A9FFF731FE002333
S3150800119020E00127636D072BDFD8082316AA20460F
S315080011A0CDE9007713A9FFF744FE41F203030C903B
S315080011B00C9A9A4200F0B2810C9B0BE016AA2046C4
S315080011C013A9FFF7ABFE41F203020690069B934272
S315080011D002D0069B059345E0179A169922650022C8
S315080011E062659E4A914240F0A681022284F8462012
S315080011F0F0E7012316AA009320460823019713A9AE
S31508001200FFF717FE41F203030790079A9A4201D0A7
S31508001210079BDFE7169B03F07F43B3F1407F05D0BA
S31508001220142384F8463041F20903D3E7179BD807FD
S3150800123006D594F8423043F0010384F8423000277B
S31508001240636D072BD5D90123A1E1204616AA13A958
S31508001250FFF764FE41F203030890089F9F420BD0F4
S31508001260089F059741F20303059A9A423FF433AF64
S31508001270059827B0BDE8F08F94F84420169B2AB14C
S31508001280774A934240F087800D2336E094F842204F
S31508001290D10741D594F84320002A3DD171498B42A4
S315080012A033D022D8704A934275D014D86F4A9342E5
S315080012B000F0888004D8694A93426CD04B456AD0BE
S315080012C0142316A884F84630FFF78EFD002865D14A
S315080012D041F20807C5E7664A934279D0F0D8654ACD
S315080012E0934258D0644A9342E9E75D4A9342CBD089
S315080012F006D8624A9342E3D10F2384F84630B0E712
S315080013005F4A934247D05F4AEDE7102384F8463098
S31508001310236DC4E91632A4E7574A93424AD02BD81C
S31508001320514A934244D022D84B453FD04F4A934224
S3150800133044D016A8FFF758FD00284BD0132316985B
S3150800134084F84630C4F88C00FFF750FD94F8423014
S315080013509A0686D5002884D04368002B81D020467B
S3150800136098470890089B002B3FF47BAF16E0414A4C
S315080013709342DED10323C0E7414A93421CD010D8DA
S315080013803B4A934220D0364A9342D2D194F843300E
S31508001390002B3FF479AF142384F8463041F2010755
S315080013A05FE7384A9342C4D10823A6E70A23A4E78D
S315080013B00523A2E70623A0E70C239EE794F843300B
S315080013C0002BE8D1112398E794F84330002BE2D19B
S315080013D0122392E7142384F8463094F84330002BFE
S315080013E03FF476AF41F204073BE7D4F848A000F093
S315080013F0B5FB80230221CDE9000317AA3B465046D8
S3150800140000F09EFA8AE6012384F8433084F84630D1
S3150800141061E616AA2046CDE9007713A9FFF709FD6C
S3150800142041F203030A900A9A9A4201D00A9BD1E62E
S315080014300DF1580C06F108030DF1700E624603CA49
S31508001440724518605960944603F10803F6D110688E
S315080014501860337843F00103337077E6EB17A60379
S31508001460FC0404FCF90707F9F40A0AF4F30B0BF376
S31508001470F70A0AF7F50909F5F60808F6FA0606FA64
S31508001480FD0303FDFE0101FEEB17A65E337843F06C
S3150800149004033370199BB36273785B0726D5EB2375
S315080014A08DF8583017238DF85930A6238DF85A3001
S315080014B05E2300208DF85B30236D6066C4F88430A7
S315080014C094F8453043F0020384F84530EF686FB16D
S315080014D004222B6816A9B8470822606E2B68EF68A5
S315080014E018A91044B847636E103363660B2384F853
S315080014F04630636D072B3FF630AE012318AACDE9B7
S3150800150000332046082313A9FFF793FC41F203038F
S315080015100B900B9A9A42B9D00B9B5BE6337843F053
S3150800152002033370169B7360236D083B7362179B27
S31508001530B3F1006F05D0142384F8463041F2010355
S3150800154048E6042384F8463094F8453043F001030E
S3150800155084F84530002363661CE6042316AA204651
S31508001560CDE9007713A9FFF764FC41F203030D9058
S315080015700D9A9A4201D00D9B2CE6236D042B02D9B5
S31508001580169B23660127636D032BE6D9092384F886
S315080015904630E2E500236366072337E79F42FFF4F8
S315080015A0F2AD402B28BF40239F4228BF1F46032F7A
S315080015B088BF27F003073B4616AA2046CDE90088D0
S315080015C013A9FFF736FC41F203030E900E9A9A42CE
S315080015D001D00E9BFEE594F846B0BBF1070F04D187
S315080015E0D5F808A0BAF1000F1BD1042FC7F1040AD9
S315080015F088BF4FF0000A16AB5246FF21D8190AF0E9
S315080016001AFBBBF1090FBA4414D12B4652462046A1
S3150800161016A9FFF7C1FC0E900E9B002B3FF4A2AD56
S31508001620D7E73A462B68606E16A9D047626E3A44E9
S31508001630626697E5BBF1040F20D173789F077FF5A3
S3150800164091ADEB68002B3FF48DAD626E042A0BD882
S315080016500AEB0203062B07D917AB9B1A1A68C4F8BC
S3150800166084204FF0FF321A60EF6852462B68606E8E
S3150800167016A9B847676E5744676673E5BBF10B0F43
S315080016807FF470AD737858077FF56CADEF68002F5F
S31508001690EBD167E594F8427017F0200707D0D4F825
S315080016A08C00FFF7A3FB074600283FF447AF4FF02F
S315080016B0010A42E04BB347B33B6933B32046984728
S315080016C0DDE9143294F840809B1A43448342FFF4C0
S315080016D05AADD4E91421A2EB0108B8F1400F28BF8E
S315080016E04FF04008984528BF984616AA4346204614
S315080016F0CDE900AA13A9FFF79CFB41F203030F905B
S315080017000F9A9A4203D00F9B64E50120D8E794F814
S315080017104230990611D5002F3FF410AFD7F808B01C
S31508001720BBF1000F3FF40AAF2B464246204616A9E6
S31508001730D8470F900F9B002BE5D1D4E9142194F8D4
S315080017404230914203F02003B4D3002B3FF47BAD23
S31508001750002F3FF478ADFB68002B3FF474AD2946A3
S31508001760204698470F900F9B002B3FF46CADCAE7B5
S315080017704FF000618A6A496B1269503A91423FF606
S31508001780DDAE112B0FD194F81831002B7FF45BAD29
S3150800179041F206031093109A9A4202D1142384F850
S315080017A04630109B16E594F84430002B7FF44BAD79
S315080017B0CDE9003316AA4023204613A9FFF739FBC3
S315080017C041F203031090109A9A42EAD1E06C00F0B5
S315080017D085F994F81831A3B104F1B403E06C0093C9
S315080017E01EAA04F1940316A900F0E6F81090109BBF
S315080017F09BB10023F370142384F8463041F20603A4
S31508001800E8E4E76C00F06EF9039000F089F9039BB1
S3150800181000901EAA384616A9E6E70123F37084F855
S31508001820443010E5002316AACDE9003320460423E8
S3150800183013A9FFF7FEFA41F203031190119A9A428F
S3150800184002D0119B059313E5D4F888202E4B9A42B3
S3150800185005D0142384F8463041F20503F2E7012344
S31508001860F37094F84530DA0707D5EF682FB10422EC
S315080018702B68104604F18401B84794F845309B0755
S3150800188007D5EF682FB104222B68104604F18401AE
S31508001890B847236E6BB36F685FB34FF0FF3304F13D
S315080018A08001042212A8129302910AF08DF920B140
S315080018B004222B6802991548B84704F168090422DE
S315080018C0494612A80AF080F998B14FF000639B6A5E
S315080018D01422D3F8108004F16C0108F10800D5E948
S315080018E00037B847D5E900370422494608EB020015
S315080018F0B8470123B3700E2384F846300023A1E7C6
S3150800190041F20700B5E400BFE320BBDE048001080E
S3150800191030B50824094B00255C66012403F5FE232F
S315080019205C6001449D601A61DC60884201D1586A96
S3150800193030BD10F8012B1A62F7E700BF009000507F
S31508001940F7B516464FF480621D46114B04469A6653
S3150800195020300F46019001F085FADDE9081201985A
S3150800196001F084FA002384F8587063643368C4F875
S3150800197059307368C4F85D30B368C4F861302B0C0D
S315080019806DBA84F86530A4F8665003B0F0BD00BFA0
S31508001990009000501FB50C46194600F14803CDE9E2
S315080019A00142009300F1440200F15803203001F08F
S315080019B0D9FA04B010BD00002DE9F04315464FF4DE
S315080019C080621C46364B99B0DDF880900E46074675
S315080019D09A66002861D000295FD0002D5DD0002CC2
S315080019E058D0304B304AB9F1000F14BF984690468C
S315080019F01C22002111A80AF01EF92C4B414610A8FA
S31508001A00109301F0C0F9202110A801F0BCF90122B9
S31508001A10274B019402920393CDF8109005920693F2
S31508001A2054B1B9F1000F07D001A910A801F097F930
S31508001A3004A910A801F093F9079701271C4C07A9D8
S31508001A4010A80897099401F08AF90AA910A80A9615
S31508001A500B970C940D950E970F9401F080F90DA92C
S31508001A6010A801F07CF910A801F096F9114B009323
S31508001A704FF098435A6CD202FCD55B6D40F2046075
S31508001A8003F470230093009B002B08BF002019B0B5
S31508001A90BDE8F083DFF81080AAE740F20160F6E7B8
S31508001AA0009000501F2400801F24FC8400000106BB
S31508001AB020000020785634124FF4806210B5044690
S31508001AC0044B9A6600F002F92046BDE81040002152
S31508001AD000F000B90090005000F001B9014600F08E
S31508001AE00BB900004FF4806200B50B4B91B09A66B3
S31508001AF06946002340224FF4807001F06BF9B0F577
S31508001B00A02F07D0B0F5302F044818BF002011B019
S31508001B105DF804FB0148FAE7009000504CE317080B
S31508001B204FF4806200B50B4B91B09A666946002364
S31508001B3040224FF4807001F04DF9B0F5A02F07D080
S31508001B40B0F5302F044818BF002011B05DF804FB2B
S31508001B500148FAE7009000506CE317080048704700
S31508001B6086E217082DE9F34799460A9B0C46196839
S31508001B7005463F29164642D85A68002A41D0224AC5
S31508001B80002E14BFB046904601F03F07091928BF3A
S31508001B905A68196024BF01325A60AFB1C7F1400ACA
S31508001BA0A24521D82946524609EB07000AF01CF837
S31508001BB00123414600934A463346002000F0A4F824
S31508001BC0B046403C55443C443F2C0CD9A3092A4610
S31508001BD0009341463346002000F096F824F03F0370
S31508001BE01D4404F03F0400272CB12246294609EB80
S31508001BF0070009F0F9FF002002B0BDE8F08790461B
S31508001C00C2E7DFF80480BFE728BD000830B4054600
S31508001C10084611461A46DDE9023425B931B102945F
S31508001C2030BCFFF79FBF024830BC70470846FBE749
S31508001C3080AFFFFF2DE9F0411746146886B01E46AF
S31508001C40E3008DF80F30630952688DF80E30630B88
S31508001C508DF80D30630D8DF80C30D30003EB5473FB
S31508001C608DF80B3004F03F045309372C8DF80A30F1
S31508001C704FEA52334FEA525205468DF808208846F5
S31508001C8094BFC4F13802C4F17802CDE900178DF883
S31508001C9009300D4903460020FFF7B8FF08214346DF
S31508001CA02A4600970DEB0100FFF75CFF284605F171
S31508001CB0200350F8042B984246F8042BF9D100204B
S31508001CC006B0BDE8F08100BF48BD000868220021C3
S31508001CD009F0B1BF0023C0E900331846704707B5BD
S31508001CE000F128030190009300F108030020FFF794
S31508001CF08DFF03B05DF804FB02460B4600F1280190
S31508001D000830FFF797BF0000F0B517464FF480621A
S31508001D101D46254B93B00E469A660446202200219E
S31508001D200AA809F088FF01204FF000520197029097
S31508001D300392049605900692079508900992002C3E
S31508001D402FD1189C194BA40121460AA80A9301F021
S31508001D501AF803990AA80C430394069B04A943F0AE
S31508001D6020030693099B43F02003099300F0F7FF2D
S31508001D7001A90AA800F0F3FF07A90AA800F0F9FFCD
S31508001D800AA801F009F84FF098435A6CD202FCD51C
S31508001D905B6D13F4702F0CBF00206FF06F0013B04B
S31508001DA0F0BD6FF07100FAE70090005000040103DF
S31508001DB0044BD3F88420D206FBD4D3F88400C0F3AE
S31508001DC0811070470040005038B5174B0546D3F8C8
S31508001DD020310C4603F00703013B052B20D8DFE82A
S31508001DE003F0030B130F171BFEF76CFA052305B157
S31508001DF0286004B1236038BDFEF79AFA0323F6E794
S31508001E00FEF7A0FA0723F2E7FEF798FA0223EEE7B1
S31508001E10FEF758FA0623EAE7FEF78AFA0423E6E706
S31508001E2000231846E3E700BF0080005038B5174B7B
S31508001E300546D3F828310C4603F00703013B052B6A
S31508001E4020D8DFE803F003131B0F0B17FEF73AFA47
S31508001E50052305B1286004B1236038BDFEF732FAC0
S31508001E600623F6E7FEF76EFA0723F2E7FEF760FAAF
S31508001E700323EEE7FEF75CFA0423EAE7FEF75EFAC9
S31508001E800223E6E700231846E3E700BF0080005078
S31508001E9073B50D460021114B0191D3F880410646D2
S31508001EA004F00304022C13D0032C0CD0012C13D1FC
S31508001EB001A8FFF789FF10240EB1019B336005B115
S31508001EC02C6002B070BDFEF73DFA07240190F3E7D7
S31508001ED0FEF734FA0190EFE70C46EDE70080005074
S31508001EE0002337B50193154B0546D3F820320C4627
S31508001EF003F00703013B032B1ED8DFE803F0020EAD
S31508001F001318002101A8FFF791FF12230DB1019ABA
S31508001F102A6004B1236003B030BDFEF713FA072325
S31508001F200190F3E7FEF750FA0A230190EEE7FEF771
S31508001F3051FA09230190E9E70023E7E700800050FA
S31508001F4038B5104B0546D3F840310C4603F0030369
S31508001F50022B0BD0032B0DD0012B0FD1FEF734FA31
S31508001F600A2305B1286004B1236038BDFEF732FAAA
S31508001F700923F6E7FEF72BFA0C23F2E700231846A7
S31508001F80EFE700BF00800050002337B50193164BDA
S31508001F900546D3F860320C4603F00703013B032BD2
S31508001FA01FD8DFE803F0020E1914002101A8FFF775
S31508001FB00BFF10230DB1019A2A6004B1236003B008
S31508001FC030BD002101A8FFF7BBFF1123F2E7FEF79A
S31508001FD0B9F907230190EDE7FEF7B0F9022301905E
S31508001FE0E8E70023E6E700BF00800050002337B586
S31508001FF00193164B0546D3F894320C4603F00703B3
S31508002000013B032B1FD8DFE803F0020E1914002149
S3150800201001A8FFF7D9FE10230DB1019A2A6004B171
S31508002020236003B030BD002101A8FFF789FF112303
S31508002030F2E7FEF787F907230190EDE7FEF77EF949
S3150800204002230190E8E70023E6E700BF008000507E
S3150800205038B5134B0546D3F800320C4603F0070390
S31508002060013B032B18D8DFE803F0020A0E12FEF72D
S31508002070ABF90A2305B1286004B1236038BDFEF721
S31508002080A9F90923F6E7FEF7A2F90C23F2E7FEF70A
S3150800209039F90F23800AEDE700231846EAE700BF5F
S315080020A00080005038B5134B0546D3F808320C4665
S315080020B003F00703013B032B18D8DFE803F0020AF5
S315080020C00E12FEF781F90A2305B1286004B12360D0
S315080020D038BDFEF77FF90923F6E7FEF778F90C23F2
S315080020E0F2E7FEF70FF90F23800AEDE700231846FB
S315080020F0EAE700BF0080005038B5104B0546D3F814
S3150800210040320C4603F00303022B0BD0032B0DD0F1
S31508002110012B0FD1FEF758F90A2305B1286004B13F
S31508002120236038BDFEF756F90923F6E7FEF74FF99F
S315080021300C23F2E700231846EFE700BF00800050A3
S3150800214038B5104B0546D3F860310C4603F0030347
S31508002150022B0BD0032B0DD0012B0FD1FEF734F930
S315080021600A2305B1286004B1236038BDFEF732F9A9
S315080021700923F6E7FEF72BF90C23F2E700231846A6
S31508002180EFE700BF00800050B0F5207F1FD009D8C8
S31508002190B0F5007F15D003D868B1B0F5C07F0AD076
S315080021A000200CE0B0F5607FFAD10B4BD3F8800025
S315080021B0C0F3011003E0084B186FC0F30330013079
S315080021C07047054BD3F89000C0F30460F7E7024B5D
S315080021D0186FC0F38020F2E70080005002464FF4E3
S315080021E08030104B10B598660020FFF7CDFF50439E
S315080021F041F671320C4BDC69DA635A6804F48034B0
S3150800220022F4401259B9094988428CBF4FF480100C
S315080022100020104358600CB10022DA6310BD04494F
S31508002220F2E700BF0090005000000350005A620217
S31508002230002D310108B5FEF777F8BDE80840002102
S31508002240FFF7CCBF430905D0012B0DD0022B094B54
S3150800225018BF002300F01F0041B103F58053012287
S3150800226002FA00F018607047034BF3E703F50053D2
S31508002270F5E700BF68800050648000501FB5002253
S3150800228080280446019200F0BA8048D8002800F059
S31508002290BA80A0F120043D2C54D83D2C52D8DFE852
S315080022A014F0B200BE00B200BE00D700D700D700B7
S315080022B0D700D700BE00E1005B00F70081005B0095
S315080022C0BE00BE00BE005100510051005100510031
S315080022D0510051005100BE00BE00BE008900010138
S315080022E0BE005100510051005100510051005100EB
S315080022F0510051005100510051005100D700B20061
S31508002300B200B200FC005B005B00060198006C009E
S31508002310DC0051005100510051005100A900B0F5F0
S31508002320B06F00F09F802DD8B0F5207F77D00CD8FD
S31508002330B0F5C07F67D0B0F5007F67D0B0F5807F75
S3150800234000F09580019804B010BDB0F5607F6CD0A0
S315080023500DD8B0F5407FF5D1FDF7D4FF02464FF40E
S315080023602070FFF711FFB2FBF0F0400849E0B0F526
S31508002370806F6DD0B0F5A06FE4D1002101A8FFF7FA
S31508002380AFFDDFE7B0F5106F00F0878017D8B0F51E
S31508002390E06F00F087800AD8B0F5C06F78D0B0F546
S315080023A0D06FCFD1002101A8FFF752FECAE7B0F5DA
S315080023B0F06FC7D1002101A8FFF7C2FEC2E7B0F54A
S315080023C0406F4AD013D8B0F5206F70D0B0F5286F9B
S315080023D0B8D10021384B0391D3F8703203F00303C8
S315080023E0012B02D103A8FFF7ABFD039B49E0B0F52B
S315080023F0486FA7D1002101A8FFF7F8FDA2E7FDF76E
S3150800240067FF01909EE7FDF77DFFFAE7FDF760FF9E
S3150800241002462046FFF7B8FEB2FBF0F0F1E7FDF7FB
S3150800242071FF02464FF42070F4E7234BD3F880304F
S3150800243003F00303012B04D0022B06D04FF460707F
S31508002440E8E7FDF745FF0246F8E7FDF77BFFFAE701
S31508002450002101A8FFF7B8FC74E7002101A8FFF7DF
S31508002460E5FC6FE7002101A8FFF712FD6AE74FF0C8
S31508002470E02302921B695B0705D5FDF743FF02902F
S31508002480029B01935EE703A902A8FFF759FDF7E748
S31508002490002101A8FFF754FD54E7002101A8FFF722
S315080024A001FE4FE7002101A8FFF726FE4AE70021B3
S315080024B001A8FFF769FD45E70080005008B58020B0
S315080024C0FFF7DCFE034B98429EBF4FF48032024B67
S315080024D01A6708BD005A620200A000500029CCBF46
S315080024E001210021FFF77ABEB0F5207F10B50C4612
S315080024F057D008D8B0F5007F48D003D830B3B0F528
S31508002500C07F23D010BDB0F5607FFBD129492A488A
S31508002510D1F8FC2012F080721EBFD1F8FC3023F0EF
S315080025208073C1F8FC30D0F88030611E23F0300487
S3150800253044EA0114C0F88040002AE3D01D4AD2F8C4
S31508002540FC3043F08073C2F8FC30DBE7FFF772FE1D
S3150800255000F036F84FF48031184B174A1967136F95
S31508002560611E23F4704444EA01341467FDF7CAFE79
S315080025700446FFF71DFCC0F102012046FFF7AEFF37
S3150800258000F024F8BDE81040FFF798BF0A4A013961
S31508002590D2F8903023F0F85444EA0164C2F8904027
S315080025A0B0E7054B013C196F21F4806141EA8424A8
S315080025B01C67A7E700ED00E000800050009000507F
S315080025C002214FF42070FFF78FBF000008B54FF4C3
S315080025D0C070FFF753FEBDE80840044988428CBF27
S315080025E0022101214FF42070FFF77EBF80F0FA0226
S315080025F0B0F5807FF8B50C4600F04E816BD85D28A3
S315080026005DD84C2804D82D2844D8232828D8F8BDC6
S315080026104D381028FBD801A353F820F07928000874
S315080026200F2600080F2600080F2600087327000843
S315080026300F2600080F2600082D2A0008AB270008D9
S31508002640032700080D2A00080F2600080F26000891
S315080026500F2600080F2600080F2600084D2A000836
S3150800266024380928D3D801A353F820F0792800087C
S3150800267079280008792800087928000879280008A8
S315080026800F260008592800080F26000839270008D1
S31508002690472900083D2800F046813E28B7D1093C65
S315080026A0032C8CBF0021B04BB04A98BF195DD2F8F5
S315080026B0403223F003030B43C2F84032A7E78028D1
S315080026C0A5D18B1E062B00F2C480DFE803F0BFAD50
S315080026D0C27EC2C2BC00B0F5F06F00F024813BD8C0
S315080026E0B0F5B06F00F0B8801BD8B0F5607F00F089
S315080026F067818CD3B0F5806F00F0BE80B0F5A06F0F
S3150800270085D1073C0B2C8CBF0021994B974A98BF63
S31508002710195DD2F8203223F007030B43C2F82032A2
S3150800272075E7B0F5D06F00F00E81B0F5E06FB6D062
S31508002730B0F5C06F7FF46BAF093C032C8CBF00214A
S315080027408C4B8A4A98BF195DD2F8403123F00303AF
S315080027500B43C2F840315AE7B0F5206F00F06681A6
S3150800276017D8B0F5086F00F01B81B0F5106F7FF42D
S315080027704EAF093C062C8CBF00217F4B7B4A98BF85
S31508002780195DD2F8083223F007030B43C2F8083262
S315080027903DE7B0F5406F00F03981B0F5486F00F0BD
S315080027A05581B0F5286F7FF432AF112C00F05E81A9
S315080027B0152C14BF002102216C4AD2F8703223F07E
S315080027C003030B43C2F8703221E7002502264FF4B3
S315080027D080370121022000F073F9FFF72BFDFFF780
S315080027E0EFFE664B614A1F67136F23F007033343F7
S315080027F01367FDF787FD0646FFF7DAFAC0F102010F
S315080028003046FFF76BFE0121002000F099F9FFF72B
S31508002810DDFEFFF753FE002D7FF4F9AE032C7FF49F
S31508002820F6AE574B9F62F2E64FF48012534B0E46B4
S315080028305A664FF48032534B9D6A03F58053C5F3AD
S3150800284000659A62C3E700250426C0E7002501262D
S31508002850BDE700252E46BAE7023C0E2C8CBF0021A8
S31508002860494B424A98BF195DD2F8803123F00303D9
S315080028700B43C2F88031CAE6023C052C8CBF002106
S31508002880424B3A4A98BF195DD2F8203123F0070324
S315080028900B43C2F82031BAE6A1F10904082C3FF629
S315080028A0B6AE01A353F824F0CD280008CD280008B9
S315080028B00F260008CD280008FB2800080F26000868
S315080028C00F2600080F260008CD2800084FF480328E
S315080028D0264B2F49586E03F580535A664B6A43F0C8
S315080028E001034B62C1035CBF2A4B5A664FF0E022D4
S315080028F0136923F00403136189E64FF480321B4BF6
S315080029002349586E03F580535A664B6A23F0010330
S315080029104B62C3035CBF1F4B5A664FF0E022136934
S3150800292043F00403E7E7093C032C8CBF00211A4B4C
S315080029300E4A98BF195DD2F8603123F003030B43A2
S31508002940C2F8603163E6093C062C8CBF0021134BA4
S31508002950064A98BF195DD2F8003223F007030B43E5
S31508002960C2F8003253E600BF9DBD00080080005043
S31508002970B8BD00089DBD0008A1BD00080090005024
S315080029800060005A0040005A88BD000897BD00083C
S3150800299000C0075000A000509DBD0008A1BD00085A
S315080029A0CC1E062C8CBF0021314B324A98BF195DCC
S315080029B0D2F8003123F003030B43C2F8003126E6B0
S315080029C02D49063CD1F8FC2012F080721EBFD1F8C2
S315080029D0FC3023F08073C1F8FC30082C8CBF002033
S315080029E0264B244998BF185DD1F8803023F003039D
S315080029F00343C1F88030002A3FF409AE1E4AD2F8D4
S31508002A00FC3043F08073C2F8FC3000E6023C052C2B
S31508002A108CBF00211A4B174A98BF195DD2F8283186
S31508002A2023F007030B43C2F82831F0E5023C0F2CCC
S31508002A308CBF0021134B0F4A98BF195DD2F860323C
S31508002A4023F007030B43C2F86032E0E5023C0F2C83
S31508002A508CBF00210C4B074A98BF195DD2F89432F7
S31508002A6023F007030B43C2F89432D0E50121A3E60D
S31508002A70A8BD00080080005000ED00E0AFBD0008CA
S31508002A8097BD0008C4BD0008C4BD0008EFF3108058
S31508002A9072B6704700B962B67047EFF311803023FB
S31508002AA083F31188704780F311887047024A536B85
S31508002AB00342FCD1704700BF004009507047000030
S31508002AC0F8B504461C4BD3F88420D106FBD4D3F8BA
S31508002AD08430C3F381139C422CD0FDF7F9FB012CFB
S31508002AE0064602D12146FFF7F9FCFFF7CFFF4FF064
S31508002AF00072124B07465A662046FFF7DFFF4FF46F
S31508002B0080630D4D621E93402B676B6E9A0103D44A
S31508002B10D5F884309B060AD53846FFF7BBFF022C4A
S31508002B2008D13046BDE8F8400021FFF7D7BCD5F8F4
S31508002B308430EAE7F8BD00BF00400050006000504E
S31508002B4007B518B90191FDF7C3FB0199064B1B7828
S31508002B5043B1064B984205D8012003B05DF804EB53
S31508002B60FFF7AEBF0220F8E7AB100020005A62025A
S31508002B704FF00042104B70B55D6E03F580535A66F0
S31508002B804AF6CD3304460D4980204E6C0B64FFF798
S31508002B908DFF0B6A23F4F85343EA04230B62F30709
S31508002BA044BF074B0B64002DA2BF4FF00042054BF4
S31508002BB05A6602F04AFF70BD008000500040095076
S31508002BC03254FFFF00A00050F0B5114A114C124EC6
S31508002BD000F00105E3695F0713D40DB9334213D139
S31508002BE003EA00078F4207D10B4A1A40002A14BF8E
S31508002BF06FF001000020F0BD013AEBD16FF0020042
S31508002C00F9E74FF0FF30F6E76FF00100F3E700BF92
S31508002C108096980000000350020001004FF48032AD
S31508002C2038B50E4B0E4C9A66E56941F67133154078
S31508002C300122E3630B4B0021DA6002236061212045
S31508002C402361FFF7C1FF10B92120FFF7BDFF01225D
S31508002C50054BDA600DB10023E36338BD00900050E0
S31508002C600000035000100350002003502DE9F04FD8
S31508002C7006464FF430250120B400DFF8C0C004F141
S31508002C80A04404F58824CCF80400656030250024A7
S31508002C904FF48037DFF8A8E0DFF8A89005FB06E5D3
S31508002CA0EC652C662C67234CDFF89CA0A76641F6DA
S31508002CB0713704F51C34D4F81C80E763E76800FA1A
S31508002CC006F60743E7604BB9E26818F4803F22F03E
S31508002CD00102E26000D0E363184628E001F50050DF
S31508002CE000EA0900401A984228BF18466161D4F8DC
S31508002CF01CB087081BF0040F17D1013F3F0147F0AE
S31508002D0060576F66AA66C5F86CA0CCF82460DEF832
S31508002D1034703E42FBD0084F01447E630427CCF84A
S31508002D202860024427611B1ACDE74FF0FF30BDE843
S31508002D30F08F00BF0090005000200450001004508F
S31508002D400000045000E0FFFF180003504FF09843BE
S31508002D505A6CD202FCD5586D00F47020704743684F
S31508002D6013B9416070475B685A68012AFBD15960FC
S31508002D707047836813B9816070475B685A68012A8F
S31508002D80FBD159607047C369032B9FBF00EB8302D1
S31508002D900133D160C3617047C369042B15D84FF05E
S31508002DA09842116CC902FCD504339B00136501686F
S31508002DB0103B116041680C30116050F8041C034444
S31508002DC011604FF09842984200D1704750F8041BA2
S31508002DD01160F8E7F0B507460F4D10488DB0002B87
S31508002DE008BF05460E46144600211C2205A808F011
S31508002DF022FF012304A801A93D4344F0005401968B
S31508002E00049502930394FFF7B4FFFFF7C5FFFFF796
S31508002E109DFF0DB0F0BD00BF01000AFF010008FFCD
S31508002E204FF48032064B5A6603F5E6239B69C3F3D3
S31508002E308512827003F03F021B0B427003707047C5
S31508002E40009000504FF48062014B00209A6670474C
S31508002E50009000504FF48062014B00209A6670473C
S31508002E6000A000502422002108F0E5BE70B51546E2
S31508002E700E4624220021044608F0DDFE25F0400314
S31508002E80802B02D0B5F5807F08D12046314640F820
S31508002E90045BEA0808F0A8FE002070BD6FF01F006A
S31508002EA0FBE700002DE9F04104681E4624F04003C4
S31508002EB0802B05468846174692B002D0B4F5807F27
S31508002EC043D11C2200210BA808F0B5FE224A234B49
S31508002ED00121B8F1010F18BF13460A932B1D019360
S31508002EE0E4081F4B44F0005402910AA8039404977F
S31508002EF0059106930796089101A90993FFF72FFFF5
S31508002F0004A90AA8FFF72BFF07A90AA8FFF731FFAC
S31508002F1029680AA8C908FFF736FF10210AA8FFF78B
S31508002F2032FFFFF78FFF98B90AA8FFF735FF4FF072
S31508002F3098435A6CD202FCD55C6DFFF78BFF04F4FC
S31508002F407024204612B0BDE8F0816FF07100F9E7F1
S31508002F504FF0FF30F6E700BF00010104000100044E
S31508002F60100000202DE9F04F9BB007468946984689
S31508002F701646DDF894B072B115683B6823F0400236
S31508002F80802A03D0B3F5807F40F0A6800BEB0903B7
S31508002F90002400930DE01546EFE795B1249A1BF837
S31508002FA00430525D01355340269A05F00F05135536
S31508002FB001344C45F1D3002E00F091800020356095
S31508002FC067E0A9EB040ABAF10F0F57D91C22294664
S31508002FD013A808F030FE434B3A6812933B1D03933F
S31508002FE00123D20842F00052049305923E4A2699DC
S31508002FF0CDF818802AF00F0A07930892CDF8248096
S315080030000A930B920BEB04020C9221444AF00052ED
S315080030100D9312A80E920F9103A910931192FFF720
S315080030209EFE06A912A8FFF79AFE0CA912A8FFF79A
S3150800303096FE0FA912A8FFF79CFE09A912A8FFF78A
S3150800304098FE396812A8C908FFF79DFE514612A8CE
S31508003050FFF799FEFFF7F6FEC8B912A8FFF79CFE20
S315080030604FF098435A6CD202FCD55B6D544403F476
S3150800307070230193FFF7EEFE019B5BBB269B0BEBD0
S31508003080040A1C44009B9A4506D14C4691E74FF02A
S31508003090FF301BB0BDE8F08F8DB942460121384696
S315080030A0249BFFF7FFFE0028F3D108F1100212F85F
S315080030B0013D0133DBB213700BB99045F7D1249A61
S315080030C01AF8013B525D0135534004F8013B05F0FF
S315080030D00F05D7E71846DCE76FF01F00D9E730463B
S315080030E0D7E700BF030300041000002007B54368B4
S315080030F0019303886846ADF8003000F0AAF803B0DB
S315080031005DF804FB014800F0B7B800BFAC1000201A
S3150800311000F0AAB813B50446684600F0B7F8BDF83B
S315080031200430A279A3809DF806300098C3F3000303
S3150800313063F300022060A27102B010BD08B500F06A
S31508003140A1F808B140F4805008BD08B500F09CF815
S3150800315008B140F4805008BD08B500F08FF808B1F2
S3150800316040F4805008BD0000014800F017B800BFC1
S31508003170AC100020014800F093B800BFAC10002046
S315080031800A460146014800F0BBB800BFAC10002053
S31508003190014800F015B900BFAC10002000230360F9
S315080031A0436070474FF6FE720160828070470000E8
S315080031B01FB50A79064B02920A6808310192022263
S315080031C000920CCB00F0BCFB05B05DF804FB00BF19
S315080031D0E4BD000830B50B7985B00333029301F1DD
S315080031E04403019302230C460546114A0093143101
S315080031F00CCA00F0A5FB238A04F12C010293E368AC
S3150800320028460193237A009394E80C0000F098FB73
S315080032100546237AA4F845002279216884F84430C3
S3150800322004F1470008F0E0FC284605B030BD00BFB1
S31508003230DCBD00081FB50B8A0293CB6801930B7A95
S31508003240009391E80C00143100F07AFB05B05DF8A4
S3150800325004FB08B500F08AFE00F074FD00F080F962
S31508003260BDE8084000F074B808B500F05FFE00B984
S3150800327008BD00F0D1FDF8E700F0D8BA00F036BE78
S3150800328000F039BE00F02EBE00F02EBE10B5044682
S3150800329000F03AF9A3796FF30003A37110BD00009B
S315080032A038B50546124B134CD4E9020183E80300EE
S315080032B019462846FFF77CFFD4E9040110220E4B75
S315080032C083E80300194628461A72FFF783FFD4E9F4
S315080032D006010222094B20341A7283E80300DC60D7
S315080032E0194628461A82BDE83840FFF7A3BF00BF33
S315080032F0B0110020F8BD00080C1100206411002050
S31508003300F8B504460D4B0E4D0F46D5E9090183E87D
S315080033100300194620461646FFF74AFFD5E90B0172
S315080033200222084B1A7283E80300DF60194620461A
S315080033301E82BDE8F840FFF74DBF00BF9011002080
S31508003340F8BD0008B41000200EB403B070477047EB
S315080033507047000010B50C4630B9FDF7B5F8034BB9
S31508003360186023600423A380002010BDD01100201C
S3150800337010B50C4630B9FDF7A5F8034B1860236065
S315080033800423A380002010BDD411002001280B4679
S3150800339004D1898821B1186801F07EBA00207047E7
S315080033A00D20704701280B4605D18988012904D1CB
S315080033B0186801F09DBA002070470D20704700007C
S315080033C02DE9F74306466D464FF00809404C414B38
S315080033D0414F94E8030083E8030019463046FFF797
S315080033E0E7FED4E9020187E8030028463B4987F847
S315080033F00890FFF7D7FE95E8030007F10C0383E86A
S31508003400030039463046FFF7E5FED4E904010C23EC
S315080034104FF00208324F87E80300284631493B72CD
S31508003420FFF7C0FE95E8030007F10C0383E80300E5
S3150800343039463046FFF7CEFED4E906012A4B2B4A19
S3150800344083E803001946304683F80880DA60A3F853
S315080034501090FFF7BFFED4E90801254B254A264FF1
S31508003460DA60012283E80300194630461A8283F897
S315080034700880FFF7AFFED4E90A0187E8030028466B
S315080034801E4987F80880FFF78DFE95E8030007F1C7
S315080034900C0383E803003946194F3046FFF79AFEB6
S315080034A0D4E90C0187E803002846164987F80880FE
S315080034B0FFF778FE95E8030007F10C0383E803009D
S315080034C03946304603B0BDE8F043FFF783BE00BF78
S315080034D0A4BE0008E8130020E0120020A533000867
S315080034E0381300208D33000830120020DCBE000897
S315080034F090130020E4BE00088812002071330008EB
S31508003500D811002055330008074B9A6CDB6C110A5A
S315080035100270120C82701A0AC2701A0C1B0E4170C5
S3150800352002714371704700BF0080E00F014801F047
S31508003530C1BE00BFE8BE00087FB500230130CDE953
S31508003540043380B2054BCDE9010169460420009396
S31508003550039200F0FDFB07B05DF804FB0C14002095
S315080035601B22014B1A80704708140020F7B5034642
S31508003570CDE9001207460E4615464FF48040094A23
S315080035800949FFF7E1FE0022012311460420074CF2
S31508003590237067706680257103B0BDE8F040FFF7B9
S315080035A0CBBF00BF04C1000864BF00080C1400208C
S315080035B0034610B5094A044609494FF48040FFF707
S315080035C0C3FE0322074B02201A700022A3F801400B
S315080035D01146BDE81040FFF7AFBF00BFEDC00008B9
S315080035E098BF00080C14002030B50C4685B004A915
S315080035F001E90C00054603460A4A4FF480400A4989
S315080036000094FFF7A1FE05220320084B02991A70C1
S315080036109DF80C205D705C8005B0BDE83040FFF772
S315080036208BBF00BFD2C00008A4BF00080C1400203E
S3150800363037B5034605460C4600914FF48040094AC3
S315080036400949FFF781FE0722084B04201A70002259
S315080036501146A3F80150A3F8034003B0BDE8304073
S31508003660FFF76ABFB7C00008C8BF00080C140020DF
S3150800367038B5094A05460C460B464FF480400749BB
S31508003680FFF762FE0B22064B29461A7000202246D7
S31508003690BDE83840FFF750BFA7C00008EDBF0008D7
S315080036A00C14002008B54FF48040074A0749FFF775
S315080036B04BFE1322064B1A700022BDE8084011463D
S315080036C01046FFF739BF00BF96C00008FCBF0008C8
S315080036D00C14002073B50346144605460E460092A0
S315080036E04FF48040084A0949FFF72EFE0922084B85
S315080036F031461A70A21C5A70032022465D8002B019
S31508003700BDE87040FFF718BF80C0000802C0000877
S315080037100C1400202DE9F3411C469046CDE9001310
S3150800372007460E4603460A4A4FF480400949FFF702
S315080037300BFE1123224641460520074D2B70231DFB
S315080037406B706F80AE8002B0BDE8F041FFF7F4BE43
S3150800375065C0000820C000080C14002070B50D468E
S3150800376003780C4A04460C494FF48040FFF7ECFDF9
S3150800377000230A4E691E204689B2738000F002F9BA
S31508003780024628B171882078BDE87040FFF7EEBE82
S3150800379070BD00BF5DC000084AC0000808140020BC
S315080037A0024610B500B3114B1968888890421BD39E
S315080037B098880024904281BF012009689880996002
S315080037C09868998828B904B198604FF6FF729A806C
S315080037D009E08A4204D001310124006889B2F1E780
S315080037E00CB19A80986010BD0020FCE714140020E4
S315080037F0036937B514460D46828A63B14FF6FE71E2
S315080038008A4208D1002069460090ADF8040098471E
S3150800381028B103B030BD2B6000202280F9E7009B59
S315080038202B60BDF804302380F3E700004FF6FF72E3
S31508003830014B18609A8070471414002010B50C4686
S31508003840FFF7AEFF28B1D0E9010184E803000020A4
S3150800385010BD0120FCE72DE9FF416D46044685E8C9
S315080038600C000E460A9FBDF82C80FFF799FF054607
S315080038700DB1B44205D94FF6FF74204604B0BDE831
S31508003880F0812B7A9DF804209A4219D1009968682C
S3150800389008F09AF9A0B9002FEFD028460DF10A02D0
S315080038A003A9FFF7A5FF58B9039949B1BDF80A302E
S315080038B0434505D14246384608F086F90028DCD04B
S315080038C001342D68A4B2D3E737B515461C46FFF771
S315080038D067FF70B1036973B14FF6FE72818A914230
S315080038E009D1694601200095ADF80440984703B010
S315080038F030BD0120FBE70E20F9E710B50C46FFF7AF
S315080039004FFF40B1037B1C4207D114F00C0F14BFC4
S315080039100320022010BD0120FCE70020FAE738B595
S3150800392015461C46FFF73CFF40B122462946FFF7DD
S315080039305FFF10B92B6803B9208038BD0120FCE76A
S3150800394013B5044602A800E90C00081D80E80C001F
S315080039509DF810300B73059B0B61BDF818308B82F0
S3150800396000230B60236853B11A461B68002BFBD152
S315080039701160A388013398B2A08002B010BD2160FF
S31508003980F7E700002DE9F04704780546122C0E46A5
S3150800399088B017D8012C18D9A31E102B15D8DFE824
S315080039A013F0160014002F0014005A0014000E011C
S315080039B014009F0014001400140014001400510190
S315080039C01400CC00522C00F0DE8006243FE00229C9
S315080039D040F0B681B0F80130B34A4FF48040B3499D
S315080039E0FFF7B2FCB5F80140B4F5007F28BF4FF4E5
S315080039F000742046FFF7DCFDAD4B1C80002426E052
S31508003A00042924D1B0F80330AA4A0093B0F801304B
S31508003A10A9494FF48040FFF797FCB5F8017006AD49
S31508003A20BEB229463046FFF709FF044618B1A04B37
S31508003A305F800A240BE09DF81C303146022B08BF34
S31508003A40012095E80C0018BF0220FFF7CDFD20469F
S31508003A5008B0BDE8F08702278E1FB6B20196B0F807
S31508003A600330964A0093B0F8013095494FF48040E8
S31508003A70FFF76AFC05F10508EB1D019600938DF822
S31508003A801470CDF810804246059BB5F80310B5F8BA
S31508003A900100FFF7E0FE4FF6FF76B042044606D176
S31508003AA0AA786B7843EA0223814A5380C1E7002348
S31508003AB0CDE90033CDF818808DF81C7008AB0130BD
S31508003AC0314613E90C0080B2FFF7C5FE0146B04245
S31508003AD01CBF00F1FF3189B22046FFF7A9FD8DE72B
S31508003AE0022940F02D81B0F80130764A4FF4804023
S31508003AF07549FFF729FC3146B5F80100FFF7FDFEC9
S31508003B006B4E044628B16B78AA7843EA0223738081
S31508003B109DE733880146013BADF81030B5F8010042
S31508003B2004AB06AAFFF7FBFE04460028EBD1BDF856
S31508003B3010100698FFF79CFD89E78E1EB6B2009610
S31508003B40B0F80130614A4FF480406149FFF7FCFB49
S31508003B500821B5F80100FFF7D0FE044630B1AA786F
S31508003B606B7843EA0223524A538070E7014633468C
S31508003B70B5F80100EA1CFFF7A7FE04460028EED1B7
S31508003B80FFF790FD63E78E1EB6B20096B0F80130D7
S31508003B90504A4FF480404E49FFF7D6FB0421B5F84A
S31508003BA00100FFF7AAFE044600287FF427AF014666
S31508003BB03346B5F80100EA1CFFF786FE47E70E1FF5
S31508003BC0B6B2022E02D0102E40F0BA800024B5F804
S31508003BD003304FF480400093B5F801303E4A364929
S31508003BE0FFF7B2FBCDE900446B1D06938DF81C6008
S31508003BF008AB13E90C00B5F80310B5F80100FFF798
S31508003C002AFE4FF6FF7398420646294F05D16B7870
S31508003C10AA7843EA02237B800BE73B882146043BCC
S31508003C20ADF80E3004AA0DF10E03FFF778FE044630
S31508003C3008B17E800BE73046BDF80E200499FFF7E1
S31508003C4049FD04E70E1FB6B2022E01D0102E77D119
S31508003C500024B5F803304FF480400093B5F80130DE
S31508003C601E4A1549FFF770FBCDE9004405F1050A20
S31508003C70F6B28DF81460CDF810A05246059BB5F83B
S31508003C800310B5F80100FFF7E6FD4FF6FF79484542
S31508003C900746DFF81C8023D16B78AA7843EA02230B
S31508003CA0A8F80230C5E600BFD0C1000898BF0008D2
S31508003CB008140020BDC1000815C10008AAC10008E3
S31508003CC033C10008A2C100085CC1000899C10008F8
S31508003CD002C0000890C1000882C100086FC1000830
S31508003CE0CDE90044CDF818A006AC8DF81C6001306B
S31508003CF094E80C00494680B2FFF7ADFD0546B8F8D2
S31508003D0000304845A3F1060318BF00F1FF352246E7
S31508003D10ADF80E304FF0000138460DF10E0318BF0E
S31508003D20ADB2FFF7FCFD044610B1A8F802708EE6A6
S31508003D3029463846BDF80E30069AFFF7EBFC86E6AC
S31508003D40042484E60022014B1A60704724160020DA
S31508003D500023F7B501F1080421461A46ADF80430E8
S31508003D60ADF8060051F8080C083198B90BB1ADF852
S31508003D700420042501270DEB05062A463146384658
S31508003D8000F0DEF80028F8D02D1AADB206445DB171
S31508003D900027F2E751F80C3C1A4492B20123E1E7F6
S31508003DA034F8045C35B9083454F8086C002EF7D199
S31508003DB003B0F0BD2A463146002000F0C1F80028BD
S31508003DC0F0D02D1AADB20644ECE7000003291FB562
S31508003DD01CD90288131D994218D304D84388042B8A
S31508003DE003D0062B06D0012011E011460430FFF758
S31508003DF0B5FCF8E70022CDE90222064A6946009298
S31508003E00022218460192FFF7A3FFECE7002005B04F
S31508003E105DF804FB1010002037B500220DF10700ED
S31508003E20114600F06DF89DF807300C4C0BB10023D5
S31508003E30236021680A4DC1F5017292B229440DF139
S31508003E40070000F05DF82168014428462160FFF765
S31508003E50BDFF08B10023236003B030BD241600203F
S31508003E602014002010B504464FF4807300210E4A32
S31508003E700E4800F0A1FD4FF4807300210C4A0D484E
S31508003E8000F09AFD204600F05BFB00F031F900F0E7
S31508003E901DFF00F085FE830705D500F09DFCBDE8F3
S31508003EA0104000F063BA10BD5817002040170020D4
S31508003EB0401600202816002008B513460A46014673
S31508003EC0024800F038FEC0B208BD00BF4017002007
S31508003ED008B5034800F079FD003818BF012008BD71
S31508003EE04017002000F05ABF00F06ABF08B500F07E
S31508003EF007FF002008BD08B501F02EF8002008BD10
S31508003F0073B50E4604460192FEF7C0FD21460546E6
S31508003F103246019B044800F00EFE04462846FEF78A
S31508003F20B9FD204602B070BD2816002008B5034822
S31508003F3000F04BFD003818BF012008BD28160020E8
S31508003F4073B50E4604460192FEF7A0FD21460546C6
S31508003F503246019B044800F0B9FD04462846FEF7A0
S31508003F6099FD204602B070BD40170020FFF77ABFC2
S31508003F7010B50C460146044800F007FEA04234BFBF
S31508003F800020012010BD00BF2816002073B50E467C
S31508003F90114605460192FFF7EBFF044628B1324663
S31508003FA02946019B024800F091FD204602B070BDEB
S31508003FB02816002000F0FCBC00F0FCBC10B5034C31
S31508003FC0A07900F0DBFF0023236010BD58180020FD
S31508003FD01FB50B4C0B4AA37A0B490393637A4FF42C
S31508003FE080500293237A0193E3790093A379FFF72C
S31508003FF0ABF9A01D00F046FF0023236004B010BDF6
S315080040005818002094C30008DFC100081FB5104CDB
S31508004010104AB4F80D304FF480500293B4F80930C2
S315080040200D490193A3790093B4F80730FFF78CF98B
S31508004030B4F80710A07900F057FFB4F80D10B4F8DB
S31508004040090000F065FF0023236004B010BD00BF1F
S315080040505818002066C3000808C20008014B99805A
S3150800406018607047581800200022014B1A607047E4
S3150800407058180020034A13681BB19288824200D15F
S315080040801847704758180020014B18701846704793
S315080040906C180020013100F053BF0000162838B50F
S315080040A003464FF0020514BF034613230B4C0C4A74
S315080040B04FF480500B4963702570FFF745F9294680
S315080040C0204600F03DFF01F099F8074B074A0530F6
S315080040D01A60627898809A7138BD00BF6C18002003
S315080040E02EC300083FC2000858180020BD3F00082C
S315080040F07047000030B5044603787B4A4FF4805079
S315080041007A4985B0FFF720F923780C2B0AD80C2BAF
S315080041100BD8DFE803F05A3F790A0A0A0A0A890A1D
S315080041200A0A1600142B00F0A880204600F024F98D
S31508004130002867D1072223786D4802210270437050
S3150800414023E0A3884FF4805001936388694A00935B
S3150800415063786949FFF7F8F84FF0FF32644C0C238F
S31508004160A2700222E270002223706271012340F2DB
S31508004170FF2263702371604900924FF480505F4AB2
S315080041800193FFF7E1F80621204605B0BDE8304067
S3150800419000F0D6BEE3885A4A5A494FF48050FFF7D2
S315080041A0D3F8E179A379584A43EA01239380134661
S315080041B0564943F8061BD4F80110C2F80610B4F89D
S315080041C005209A80E2799A711CE06389504A4D4924
S315080041D04FF48050FFF7B8F8E27AA37A4A4943EADF
S315080041E002238B800B464B4A43F8062BD4F8012052
S315080041F0C1F80620D4F805205A60B4F809201A81B7
S31508004200E27A9A7205B030BD6378434A4FF480501B
S315080042104249FFF799F800F0F1FF3B4B404A053059
S315080042201A6098806278CEE7D4F80530D4F8012071
S315080042303C49CDE900234FF480503B4AFFF784F808
S3150800424000F096FAD4F80130294C034003F0FF0336
S3150800425020F0FF00184309252346002203F8015BD6
S31508004260C4F801002F495A60CDE900024FF4805086
S315080042702E4AFFF769F8294686E7B4F807302C4A2C
S315080042800293B4F805304FF480500193B4F8033024
S3150800429028490093B4F80130FFF756F8B4F803102C
S315080042A0B4F8010000F042FE1523114C6FF0270206
S315080042B023700723E2702371E271237200216FF0E5
S315080042C004004FF4FB62FB236070A1706071A1715A
S315080042D04FF48050CDE9013216490092164AFFF78D
S315080042E033F8092150E700BF25C3000855C2000866
S315080042F06C1800201AC3000866C20008BCC3000870
S31508004300AEC3000897C2000858180020D13F00081D
S3150800431080C300080D40000859C300083FC20008C2
S31508004320BD3F0008A7C200084EC300083FC30008E7
S3150800433010C30008C0C2000802C3000810B5084B25
S315080043404FF480509C79074A23460749FEF7FCFF3D
S31508004350204600F0E5FDBDE81040FFF785BE00BF2A
S315080043605818002029C40008CBC300080122014BB5
S315080043701A70704778180020244B73B51E780446C7
S315080043802EB10378162B05D0182B27D000263046D9
S3150800439002B070BD83781E4A009343781D494FF4D6
S315080043A08050FEF7D1FF6378A47817201C4004F0EC
S315080043B00304022C18BF0124FFF766FE0546447065
S315080043C0847023464FF48050134A12490094FEF72E
S315080043D0BBFF02212846FFF75DFED8E7B0F8033099
S315080043E00E4A019383780E49009343784FF4805020
S315080043F0FEF7AAFFB4F803100A48FFF72FFED4F811
S315080044000120094BC3F80620C1E700BF7818002031
S3150800441054C40008DBC3000849C400083CC40008AB
S31508004420FBC300083D4300085818002013B50D4B80
S3150800443001281B880C4CADF80030ADF8043002BFDB
S3150800444002238DF8003004236946206808BF8DF8DA
S31508004450043001F0CBFA206801A901F0DDFA02B0B8
S3150800446010BD00BF5BC400087C18002070B5334C33
S3150800447011464FF4867086B01E461546FEF767FF4E
S31508004480236933B929464FF48370FEF760FF06B0F7
S3150800449070BDA5F10802324321D101AA0321206883
S315080044A001F02CFB636860615B7A04F118012376DE
S315080044B09DF804300220DA1F53425341627E63F3AB
S315080044C00002039B6276E361BDF8063063832369C5
S315080044D0984701220021206801F016FBD7E705F16D
S315080044E07F42324305D10021012006B0BDE8704065
S315080044F0184715F4A04209D04FF480714FF4817023
S31508004500FEF725FF002103202369EEE705F4A063E3
S315080045101A4308D001214FF48170FEF718FF0021D5
S31508004520FF202369E1E705F0A042134319BF0121E3
S3150800453040F2011029464FF48370EEE77C180020FC
S31508004540F0B58BB00646FEF7F1FF3748374B00212A
S315080045500360374B374C436000F02CFF30A3D3E998
S315080045600023CDE900234FF0FF334FF0FF322060E0
S3150800457001F054FA02224FF0FF31206801F050FA98
S315080045803C2394220027CDE90332059396232A4D2E
S3150800459003A92068CDE907770997069301F02AF859
S315080045A0294620682F7001F065FA28B101232946AB
S315080045B020682B7001F05EFA206801F0E2FA29788B
S315080045C0B6F90020206800F085FE0146206801F053
S315080045D03EFA7568194BD5B91846FEF795FFA37BC1
S315080045E065F30003A373202310222384144B83F856
S315080045F0202383F8212383F8252383F8242383F8AB
S31508004600222383F81F2383F823230BB0F0BD2868E1
S31508004610A060A988AA7999809A71E4E7AFF3008027
S315080046200855005100000000AC1800206D44000831
S31508004630A01800207C1800201210002084180020E2
S3150800464000E100E00A46014602484FF4007300689C
S3150800465001F036BA7C180020F0B50446164D174A04
S315080046606B68807A5B7A85B0D75C0E46FFF7DEFE0C
S31508004670237AB9B2022B0CD1002328681A4600F017
S31508004680C3FEA8B10021FF20334605B0BDE8F040BF
S315080046901847002220688DF80C300290009228688E
S315080046A002ABADF80D208DF80F2000F0BBFEE8E751
S315080046B02E6105B0F0BD00BF7C1800205DC400085F
S315080046C02DE9F04104461D4D1D4A6B680E465B7A7E
S315080046D086B0D15C807A0191FFF7A8FE237A4FF065
S315080046E00108022B02BF0023029301238DF80C3028
S315080046F0636818BF226803F164030493637A4FF072
S31508004700000418BF029201998DF8143002AA2346B4
S3150800471028688DF815808DF8164000F0A9FE074622
S3150800472042462146286801F0EFF92FB12146FF20BD
S31508004730B04706B0BDE8F0812E61FAE77C18002084
S315080047405DC4000808B500214FF48570FEF7FFFD2B
S315080047500022044B03211A6118680122BDE80840AB
S3150800476000F04EBE7C1800200048704784180020D0
S31508004770014B188C704700BF7C1800207FB50223B8
S315080047808DF80A30064B5A8B59690332ADF8082062
S31508004790186801AA01F0B6F9019807B05DF804FB9C
S315080047A07C18002008B5014640F20510FEF7CFFD3B
S315080047B008BD0000002313B5064C0093437AD0E9E0
S315080047C000216060206801F00AFA00F00DF802B0D6
S315080047D010BD00BF7C180020024A138C43F4807376
S315080047E0138470477C18002038B50D4C238CDB05E4
S315080047F00CD563680B4D1B7A2A789A4206D0012B92
S3150800480005D0022B07D063681B7A2B7038BD206849
S3150800481001F0BAF9F7E7206801F0BCF9F3E700BF41
S315080048207C180020BC18002038B50C4611462568AF
S315080048300144AD1A2A4607F0E4F9256038BD0000A0
S3150800484010B50024064B1C60064B1C7000F09AF845
S31508004850B0FA80F3044A5B091370044B1C7010BD50
S31508004860C01C0020C51C0020C61C0020C41C00203B
S3150800487010B5074B1C782CB9064B1B7833B100F0E2
S3150800488089F8044600F08EF8204610BD8124F9E721
S31508004890C51C0020C61C002038B50A460F49034629
S315080048A00978C1B10E49087850B90E4C24783CB93C
S315080048B00D4C20681518B5F5806F02D9822008704E
S315080048C038BD1946094B184407F08EF92560BDE82E
S315080048D0384000F025B88120F2E700BFC61C00204A
S315080048E0C51C0020C41C0020C01C0020C0180020C5
S315080048F0012908B512D103781BB9BDE80840FFF7AE
S315080049009FBF032B03D1BDE80840FFF7B1BF042BB7
S3150800491004D11320FEF7B4FC002008BD0620FCE7EE
S3150800492038B5134B134D1A782968022A0ED0032975
S3150800493001D8002038BD104A1068104A904203D0AA
S3150800494084200F4B1870F5E702221A700A48FBF705
S31508004950C7FD04462A6807490748FFF765FF002C84
S31508004960E7D041F207039C42E3D08520E9E700BF80
S31508004970C61C0020C01C0020C0180020EB17A60388
S31508004980C51C002008B5FBF7C5FD002814BF852007
S31508004990002008BD08B5FBF7CDFD002814BF802010
S315080049A0002008BD0022014B1A707047C61C002063
S315080049B0FBF748BDFBF756BD83820023C0E90022FA
S315080049C0826081750382C3757047837DDB0701D5D5
S315080049D0808A7047D0E901239B1A44BF828A9B18B4
S315080049E098B27047014608B5FFF7EFFF8B8A181A89
S315080049F080B208BD2DE9F04116460546FFF7E5FFEA
S31508004A00B04228BF304686B20F46B046B8F1000F0E
S31508004A1009D12EB1AB7DDA0744BF23F00103AB758C
S31508004A203046BDE8F0812B68AC8A69681C44641A74
S31508004A30A4B2444528BF44463846224607F0D4F86F
S31508004A406A682B68A98A224419448A4238BF1346E1
S31508004A502744A8EB04041FFA84F86B60D6E72DE90F
S31508004A60F041164605460F46FFF7BCFFB04228BF81
S31508004A70304686B2B046B8F1000F0BD13EB1D5E943
S31508004A8001329A4202BFAB7D43F00103AB75304653
S31508004A90BDE8F0812B68AC8AA8681C44241AA4B225
S31508004AA0444528BF44463946224607F09DF8AA6879
S31508004AB02B68A98A224419448A4238BF13462744D8
S31508004AC0A8EB04041FFA84F8AB60D4E7F8B50446EB
S31508004AD016461F46F9B1FFF785FF012829D9E37D58
S31508004AE063B1E068658A05702D0A07D02268A38A33
S31508004AF001301344984228BF1046F4E70023638226
S31508004B00A3680222E360204604F11201FFF7A7FF1B
S31508004B10E37D0133E3753A4631462046FFF79FFFAA
S31508004B20638A03446382E37D13B9238A0344238299
S31508004B30F8BD0020FCE7F8B51F46038A044616466A
S31508004B40EBB9C57DDDB10123013D0B700222C575A8
S31508004B5000F11001FFF74EFFE37D9BB1228A314633
S31508004B60BA4228BF3A462046FFF744FF238A1B1A53
S31508004B702382E37D13B9638A1B1A6382F8BD002377
S31508004B800B70EBE7638A2382E8E710B50C46FFF75C
S31508004B9029FF24B1022892BF0020023880B210BD36
S31508004BA0032070471FB5124C1148637A0133DBB2F4
S31508004BB0272B88BF25236372FFF7FCFD0023CDE969
S31508004BC00233E368627C01930123617DD2070948B9
S31508004BD001F102018DF80C3048BF8DF80E30FFF751
S31508004BE031FD054901A8FFF737FD04B010BD00BF28
S31508004BF0C81C0020DC1C0020294C000838B50D46CE
S31508004C000446FFF7B1FD8379014603F00103AB4281
S31508004C1007D10622204606F0D7FFB0FA80F04009F1
S31508004C2038BD0020FCE70000022810B51BD002D8CA
S31508004C30012805D0FEE7032843D0FF2841D0F9E72D
S31508004C40214C637C990707D5FFF77CFDFFF7AAFF80
S31508004C50637C6FF341036374637CDA0730D4BDE881
S31508004C601040FFF79FBF4B78DB072AD54C682178A1
S31508004C7001F00F03032B11D0052B22D1C90904F12A
S31508004C800800FFF7BBFFD8B1FFF75CFDFFF776FD1D
S31508004C9001462046BDE8104000F0B6BAC90904F13D
S31508004CA00800FFF7ABFF58B1074C94F83D1004F124
S31508004CB03C000231FFF7C6FC637C43F002036374D1
S31508004CC010BDFFF73FFDCAE7C81C002010B5094C08
S31508004CD000215C2204F1080006F0ADFF42F21073D1
S31508004CE00549E360054BC4E9001342F201532381E9
S31508004CF010BD00BFC81C0020D6BE898E555555006C
S31508004D0038B50446FFF71EFD002C3FD0204C257C05
S31508004D10627CB5FA85F35B0963F300026274FFF7F8
S31508004D2023FD837905F00F05C3F3000345EA8315D0
S31508004D30237D23F04F031D43637D25750BB9062399
S31508004D4063750368C4F816308288124B9A80FFF799
S31508004D500BFD837994F83C20C3F300039B0143F0D1
S31508004D60040322F04F02134384F83C3094F83D3094
S31508004D7013B9062384F83D300368C4F83E308288A8
S31508004D80054B9A80BDE83840FFF70CBF38BD00BF19
S31508004D90C81C0020DE1C0020061D002020290A460B
S31508004DA008B509D8054B06315975014603F11C00AB
S31508004DB006F01AFF002008BD1220FCE7C81C0020D8
S31508004DC020290A4608B50AD8064B063183F83D104D
S31508004DD0014603F1440006F007FF002008BD122033
S31508004DE0FCE700BFC81C00200A20D0B50B4CE38C9A
S31508004DF0584306F0BDFA0646A08C0F4606F0B8FAE8
S31508004E000022074B06F01EFB02460B463046394683
S31508004E1006F042FC06F028FD2083D0BD2C1D00209C
S31508004E200000F43F1FB5154C40F601002189FEF736
S31508004E308EFAA37E5A061FD423F0070343F0010314
S31508004E402089A376FFF716F9A37A04F10C00234408
S31508004E5093F82A306375FFF7ADFCD4E90032A3EB6B
S31508004E60520103EB520302934FF48033019101A8D8
S31508004E7003490393FFF724FC04B010BD2C1D002042
S31508004E80095000080022134630B58BB0D910415C92
S31508004E9003F007042141CC0742BF02F12801694407
S31508004EA001F8283C03F1010348BF0132252BEDD157
S31508004EB000230C4CD910415C03F007052941C907AA
S31508004EC05FBFB3FBF2F102FB1131283169444CBFD5
S31508004ED0D9B211F8281C0133252B04F8011BE9D196
S31508004EE00BB030BD561D002010B540F2E244074A0B
S31508004EF06043136800F5807004FB0131536801EBC9
S31508004F00500118441160506010BD00BF2C1D0020D0
S31508004F10024B9884D984FFF767BF00BF2C1D002079
S31508004F20014B1875704700BF2C1D0020C908884220
S31508004F3028BF0846014B1885704700BF2C1D002066
S31508004F40044B5A6D22B95865A3F8581001207047CA
S31508004F50002070472C1D002010B504460346054A5C
S31508004F604FF400600449FEF7EFF92046BDE810400B
S31508004F70FFF794B8D1C4000885C4000810B50446E4
S31508004F800346084A4FF400600749FEF7DDF9074A69
S31508004F902046BDE81040937E43F040039376FFF722
S31508004FA00BB800BFC2C4000885C400082C1D002029
S31508004FB010B5144CA37E5B0623D4FFF7C3FB40F25F
S31508004FC0E243A18C226803FB0122A37A226094F8AB
S31508004FD04F2013442522B3FBF2F002FB103322893B
S31508004FE0A372013222810A22636802FB01336360DD
S31508004FF0238B5A1E228323B9BDE810400820FFF7E9
S31508005000BDBF10BD2C1D002002282DE9F7438046A0
S315080050100E460BD003D8012800F0DC80FEE70328F3
S3150800502000F0DE80FF2800F0DB80F7E74F78714C50
S3150800503017F0010763D14FF0FF3140F60300FEF782
S3150800504086F93D46A37E6C4F13F0200F12D0616D92
S315080050506FF34513A376002900F09E803B7894F8F9
S31508005060582043F003033B707A70B81C06F0BCFD69
S3150800507000236365FEF72CFFA37E60F34103C3F3A9
S315080050800012C3F3C001920042EAC102A37642EAC3
S3150800509000133A7803F01C0322F01C0213433B70FA
S315080050A040F602003988FEF752F9797852480231FB
S315080050B0C9B2FFF7C7FAA37E7668D90709D56FF391
S315080050C00003A37600236360FFF758FB2060FFF711
S315080050D08BFE002D00F08B80337803F00303022B40
S315080050E005D0032B6FD0012B40F081800025284680
S315080050F07278B11C03B0BDE8F043FEF747BFD1F89C
S31508005100049040F60300B9F80010FEF720F999F864
S315080051100030A27EC3F3001363F3820299F80030CD
S31508005120A276C3F3C001C2F3001291422FD103F055
S315080051300303022B29D0032B08D0012B27D10020EB
S3150800514099F8011031B3FEF713FF07463D46A27ED4
S3150800515099F80010C2F3C003C1F38001994208D040
S3150800516083F00103DB0043F0200322F028021343F7
S31508005170A376002F3FF466AFA37EC3F3001282F036
S31508005180010262F30413A3765CE73846D8E70025E4
S315080051902F46DCE70D46DAE794F82820B91C0DF10E
S315080051A00700FEF789FE58B19DF80730002B08BFA7
S315080051B04FF001083B78787068F301033B7059E7B4
S315080051C04FF00108F6E77178B01C03B0BDE8F0436C
S315080051D0FEF790BF074B9B7E9A0708D45B0706D459
S315080051E0FFF7E6FE03B0BDE8F043FFF71BBE03B0CA
S315080051F0BDE8F0832C1D0020881D0020014B18896E
S31508005200704700BF2C1D0020F7B5274D04460E46F3
S315080052105C220021284606F00EFD2023AB760523E6
S315080052202B83627E237E012743EA0223AB84627FB7
S31508005230237F04F11E0043EA0223EB8494F823300B
S31508005240C3F3040385F84F3094F82330C3F34213AD
S3150800525085F850301B232B85FFF714FED4F80E3043
S31508005260E27CEB60A37C2E6043EA0223227D2F7545
S3150800527043EA02432B6195F84F30607DAB72E18AB1
S315080052803944FFF731FEFFF7CDFDEB8C074A084995
S3150800529000934FF40060AB8CFEF756F82046FEF7F5
S315080052A089FE384603B0F0BD2C1D0020B5C40008A1
S315080052B098C4000838B50446054D00F0ECFB0FCC41
S315080052C00FC594E8030085E80300002038BD00BF39
S315080052D0881E002047F6FF739A42F0B563D002296C
S315080052E063D8334BCF0003EBC10013F83110847831
S315080052F0012913D10025C3781B1B9D4202D3E01850
S31508005300C0B2F0BD591B4668A3EB510136F91160CE
S315080053109642D4BF0D4601F1FF33EEE740680028F8
S31508005320EFD0B0F90010914204DBB0F902109142B7
S31508005330B8BF114682883B44FF2A19BFC8222826CF
S31508005340B0F90620B0F90860A2EB01020CBF0125EE
S31508005350002592FBF6F25F782A447B1E934228BF0B
S3150800536013464FF47A7E00EBC305AE68EA88AC466E
S3150800537011FB02621E4622EAE272013302F5FA7254
S315080053809F42B2FBFEF204D9BCF80CC0083594451E
S31508005390EBD200EBC6008088904228BF1046A04298
S315080053A038BF2046ACE7FF20ABE70020A9E700BFDF
S315080053B0881E0020F8B50D4610B900242046F8BD11
S315080053C00E4F3E68002EF8D100F090F804460028EB
S315080053D0F3D0386000F0E6F8204600F0B0F838B1AF
S315080053E030463E6000F0DEF8204600F0A3F8E4E719
S315080053F0002DE3D02046A847E0E700BFA01E002006
S315080054000846114600F0E0B810B501F02DFF044635
S3150800541018B9034B01215B689847204610BD00BFA9
S3150800542024100020F7B5114D04460F466E68012179
S315080054300020CDE90032B047DDE90032064639469C
S31508005440204601F01AFF044618B901202B68984730
S3150800545004463EB100F0D6FB00B91CB100216B68CA
S3150800546008469847204603B0F0BD00BF2410002028
S31508005470F7B5104D04460F466B68012100200192CE
S31508005480984739460646019A204600F0CBFA044664
S3150800549018B901202B68984704463EB100F0B2FBC4
S315080054A000B91CB100216B6808469847204603B02E
S315080054B0F0BD00BF2410002070470000431E0333D0
S315080054C006D8044B984228BF1846642838BF64207B
S315080054D0704700BF40420F00431E012B03D9031F2C
S315080054E0584258417047012070470000F8B50546F4
S315080054F0FDF7CCFA07460E4B1E6826B93846FDF767
